:10447900C2AF53D7F91242AC124349124A43124B05
:1044890062124A74124B3F123EA6124AEDE490079B
:1044990004F0A3F0900708F0A3F090070CF0A3F044
:1044A900900710F0A3F0D2AF780CF69006D804F07C
:1044B900A3F0A37406F0A3748FF0A3740BF07B0030
:1044C9007A00790C7F58124AA17B017A02796D1220
:1044D90015E67B017A0779041240227B017A077974
:1044E900081224C17B017A07790C12191D7B017A04
:1044F900077910120F077B017A027971122209805C
:02450900C822C6
:104022009006D0EBF0A3EAF0A3E9F0E49006F7F0F3
:104032009006D304F0120507FFAEF0E5F07076EFBC
:1040420024A9601F2457706D9006D0E0FBA3E0FA0C
:10405200A3E0F9900002E4F5F0120589E475F05747
:1040620012056A9006D0E0FBA3E0FAA3E0F9900003
:1040720002120532C3940FE5F094004003D380018D
:10408200C340037F00229006D87401F0A3F0A3740A
:1040920006F0A3748FF0A3740BF07B007A00790C06
:1040A2007F58124AA19006F9E004F070069006F8D3
:1040B200E004F08093E49006D3F09006D0E0FBA3F6
:0D40C200E0FAA3E0F9E4F5F012056A7F03CF
:0140CF0022CE
:03001B0002473D5C
:10473D00C0E0C083C082758D8A758BD0900707E06D
:10474D0004F07006900706E004F090070BE004F00B
:10475D00700690070AE004F090070FE004F0700671
:10476D0090070EE004F0900270E004F070069002E5
:10477D006FE004F0900703E004F07006900702E08C
:10478D0004F0900274E004F07006900273E004F0FF
:07479D00D082D083D0E0328E
:104B3F00759E82759D2D759852D2ACC299C298D22E
:024B4F00BC2286
:104A740075D10075D20075E60043D28043D220433D
:104A8400D20753E6F043E6401241727F03124B898A
:0D4A94007F647E00124B03D2AE43D120227E
:0300330002332174
:10332100C0E0C0F0C083C082C0D0EEC0E0EFC0E01A
:10333100E5E654079004DBF0E0FF75F026A424FDD8
:10334100F582E5F03404F583E09004DCF075F026B5
:10335100EFA424DDF582E5F03404F583C083C08257
:103361009004DCE0FFD082D08375F004120706E4FC
:10337100F09004DBE0FE75F026A424DEF582E5F092
:103381003404F58375F004EF120706E5DBF075F000
:1033910026EEA424DFF582E5F03404F583C083C072
:1033A100829004DCE0FFD082D08375F0041207061E
:1033B100E5DAF09004DBE0FE75F026A424E0F58266
:1033C100E5F03404F58375F004EF120706E5D9F052
:1033D1009004DCE0045407FF75F026EEA424FDF50B
:1033E10082E5F03404F583EFF09004DBE0FF75F043
:1033F10026A42402F582E5F03405F5837401F0EF8B
:10340100045407FFE5E654F04FF5E6E5E654077589
:10341100F019A4247FF582E5F03403F583E0640715
:103421005407FFE5D254F84FF5D2E5E6540775F09D
:1034310019A42480F582E5F03403F583E0F5D4C2C4
:01344100DFAB
:10344200D0E0FFD0E0FED0D0D082D083D0F0D0E068
:013452003247
:074B890053D1F8EF42D122E5
:104B0300CBEFCBCAEECAE4F9F87F557E05FDFC1264
:054B130049C68FD42209
:10417200E49006D0F0A3F09006D0F09006D0E0FFD5
:10418200C39408400302420E75F026EFA424FDF505
:1041920082E5F03404F583E4F075F026EFA4240000
:1041A200F582E5F03405F583E4F075F026EFA424FA
:1041B20001F582E5F03405F5837420F075F026EF01
:1041C200A42402F582E5F03405F583E4F09006D1EB
:1041D200F09006D1E0FFC3940850289006D0E07515
:1041E200F026A424DDF582E5F03404F58375F004AD
:1041F200EF1207061206D5000000009006D1E00477
:0C420200F080CE9006D0E004F002417D78
:01420E00228D
:083B5B009006E7ECF0A3EDF089
:103B6300E49006EBF0A3F0A3F09006E7E0FEA3E0F9
:103B7300FF9006EAE02F9006E9E03EC39404400478
:103B8300E4FEFF22E49006EBF0A3F09006E7E0FEEC
:103B9300A3E0FFC39006ECE09F9006EBE09E40039A
:103BA300023C35A2AFE4339006EDF0C2AF9006EBD2
:103BB300E0FEA3E07802C333CE33CED8F9FFF5821B
:103BC3008E8312046FF5BC8F828E83A312046FF56C
:103BD300BD9006EBE0FEA3E07802C333CE33CED82C
:103BE300F9FFF5828E83A3A312046FF5BE8F828E35
:103BF30083A3A3A312046FF5BF9006E9E0FEA3E03D
:103C0300FF8EC78FC675B90575B9029006EDE0241E
:103C1300FF92AF9006EAE004F070069006E9E00434
:103C2300F09006ECE004F070069006EBE004F0027E
:0A3C33003B8E9006EBE0FEA3E0FFDD
:013C3D002264
:083C3E009006DCECF0A3EDF0B0
:103C4600E49006E0F0A3F0A3F09006DCE0FEA3E02B
:103C5600FF9006DFE02F9006DEE03EC394044004AA
:103C6600E4FEFF22E49006E0F0A3F09006DCE0FE1E
:103C7600A3E0FFC39006E1E09F9006E0E09E4003CC
:103C8600023D14A2AFE4339006E2F0C2AF9006DE26
:103C9600E0FEA3E0FF8EC78FC675B901A3E0FCA3C3
:103CA600E0FDCEECCE7802C333CE33CED8F9FFF5A5
:103CB600828E83E5BC1204CF8F828E83A3E5BD126C
:103CC60004CFEDCEECCE7802C333CE33CED8F9FF97
:103CD600F5828E83A3A3E5BE1204CF8F828E83A3C3
:103CE600A3A3E5BF1204CF9006E2E024FF92AF90B3
:103CF60006DFE004F070069006DEE004F09006E1D0
:103D0600E004F070069006E0E004F0023C719006D4
:063D1600E0E0FEA3E0FF67
:013D1C002284
:104A0A00E4FE8F0AD2C0850AC0EE75F003A424EF33
:104A1A00F582E43406F583E4F0A3F0EE75F003A41E
:104A2A0024EEF582E43406F5837401F00EEEB40642
:084A3A00D8E4900700F0A3F09E
:014A42002251
:0A4B7F00C2AFD2C0850AC0D2AF2237
:0B367300900729EBF0A3EAF0A3E9F0B8
:09367E00E4A3F0A3F09006F4F0BF
:1036870090072E04F0900729E0FBA3E0FAA3E0F9E6
:10369700120507FFAEF0E5F06003023767EF24C3BA
:1036A7006022243D6003023767900729E0FBA3E00F
:1036B700FAA3E0F9900002E4F5F0120589E475F049
:1036C7003D12056A900729E0FBA3E0FAA3E0F99011
:1036D7000002120532C39464E5F094004003D380DE
:1036E70001C340037F0022E490072DF09006F6E027
:1036F70004F070069006F5E004F0E490072CF090D3
:10370700072CE075F003A424EEF582E43406F58374
:10371700E0FF90072CE075F003A424EFF582E43472
:1037270006F583E0FEA3E04F4E700790072D04F0E7
:10373700801F90072CE075F003A424EFF582E43492
:1037470006F583E4F0A3F090072CE004F0E0B4065C
:10375700AE90072DE060030236B0124B7F0236B001
:10376700E490072EF0900729E0FBA3E0FAA3E0F925
:08377700E4F5F012056A7F037E
:01377F002227
:101293005400053C3C7555534F5F323E3E00000001
:1012A30000000000000000602800193C2D2D20479D
:1012B300454F5350484552415F32303132202D2D36
:1012C3003E000000000000000000000000000000DD
:1012D3000000004800413030303031000000410050
:1012E300490141004A1401120041004E00610E0001
:1012F3004F0000000000000000000000000000009C
:1013030000000000000000000000000000000000DA
:1013130000000000000000000000000000000000CA
:1013230000000000000000000000000000000000BA
:1013330000000000000000000000000000000000AA
:10134300000000000000000000000000000000009A
:10135300000000000000000000000000000000008A
:10136300000000000000000000000000000000007A
:10137300000000000000000000000000000000006A
:10138300000000000000000000000000000000005A
:10139300000000000000000000000000000000004A
:1013A300000000000000000000000000000000003A
:1013B300000000000000000000000000000000002A
:1013C300000000000000000000000000000000001A
:1013D300000000000000000000000000000000000A
:1013E30000000000000000000000000000000000FA
:1013F3000000000000000000000000000000006189
:101403000E015D000000000000000000000000006D
:1014130000000000000000000000000000000000C9
:1014230000000000000000000000000000000000B9
:1014330000000000000000000000000000000000A9
:101443000000000000000000000000000000000099
:101453000000000000000000000000000000000089
:101463000000000000000000000000000000000079
:101473000000000000000000000000000000000069
:101483000000000000000000000000000000000059
:101493000000000000000000000000000000000049
:1014A3000000000000000000000000000000000039
:1014B3000000000000000000000000000000000029
:1014C3000000000000000000000000000000000019
:1014D3000000000000000000000000000000000009
:1014E30000000000000000000000000000000000F9
:1014F30000000000000000000000000000000000E9
:1015030000000000000000000000000000000000D8
:101513000041026BC00114FF41026C004100000056
:1015230041000100410002004100030041000400AA
:030023000245F99A
:1045F900C0E0C083C082C0D0EFC0E0C2AF30981E17
:10460900C298900375E02475F582E43402F583E5D8
:1046190099F0900375E004F0900377E004F0309985
:104629002FC29990004DE0FF90004CE0C39F5015B8
:10463900E0245DF582E43401F583E0F59990004CBE
:10464900E004F0800B90004CE4F090026DF0A3F0D0
:0E465900D2AFD0E0FFD0D0D082D083D0E032FC
:104A4300C299C298123985E4900375F0A3F0A3F0DC
:104A530090004BF0A3F0A3F0C2B57813F690026B6D
:104A630074C0F0E490026DF0A3F0900271F0A3F033
:014A73002220
:102DA500E4FF90015DF0A374D7F0A37429F09000BF
:102DB50049E0900160F0A37402F090026BE090018D
:102DC50063F0E4EFC39414501A74052FF582E434CC
:102DD50000F583E0FE74642FF582E43401F583EE9B
:102DE500F0800C74642FF582E43401F583E4F00F70
:102DF500EFB414CFE4FFEFC39408501874412FF5D6
:102E050082E43400F583E0FE74782FF582E4340122
:102E1500F583EEF00FEFB405DD9004DAE090017D67
:102E2500F0E4FF9004DAE0FEEFC39E504C75F01914
:102E3500EFA4247DF582E5F03403F583E0FEC45468
:102E4500F0FE75F019EFA4247EF582E5F03403F564
:102E550083E04EFE75F002EFA4247EF582E5F034A2
:102E650001F583EEF075F002EFA4247FF582E5F01D
:102E75003401F583E4F00F80AAE4FF90004AE0FEF8
:102E8500EFC39E502D74192FF582E43400F583E0CD
:102E9500FE9004DAE075F002A42FF582E435F0F532
:102EA50083E582247EF582E5833401F583EEF00F18
:102EB50080C99004DAE025E0FD241CFF90004AE07B
:102EC5002F900162F07E017F5EED2420FD90004A87
:102ED500E02DFD124ACA90004AE0FE9004DAE0FDBA
:102EE50075F002A42EF582E435F0F583E582247EA3
:102EF500F582E5833401F583EFF0ED25E02422FF2B
:062F050090004AE02FFFDE
:012F0B0022A3
:030006007F002256
:03000E007F00224E
:030016007F002246
:10306F00E4FF9006D0F0900054E014FEEFC39E40B2
:10307F00030231C174552FF582E43400F583E0FE6D
:10308F009004DAE0FDEEC39D40030231BB74562F6E
:10309F00F582E43400F583E0FEC4540F600302317F
:1030AF00B474552FF582E43400F583E075F019A45C
:1030BF00247EF582E5F03403F583E0FE74562FF598
:1030CF0082E43400F583E0FDEE6D705974552FF5F1
:1030DF0082E43400F583E075F019A4247FF582E5CE
:1030EF00F03403F583E0FE74572FF582E43400F5D6
:1030FF0083E0FDEE6D702E74552FF582E43400F5EC
:10310F0083E075F019A42480F582E5F03403F5838C
:10311F00E0FE74582FF582E43400F583E0FDEE6D88
:10312F0070030231B174572FF582E43400F583E058
:10313F00FE74552FF582E43400F583E075F019A481
:10314F00247FF582E5F03403F583EEF074582FF504
:10315F0082E43400F583E0FE74552FF582E43400E9
:10316F00F583E075F019A42480F582E5F03403F5BA
:10317F0083EEF074562FF582E43400F583E0540F9C
:10318F00FE74552FF582E43400F583E075F019A431
:10319F00247EF582E5F03403F583EEF09006D074CB
:1031AF0001F00F8001000F0F0F0230757F011248E1
:1031BF006E229006D0E06003124667E4FF12486E5D
:0131CF0022DD
:03001E007F00223E
:030026007F002236
:03002E007F00222E
:034B90007F002281
:104B2C0090026B7440F0780C7612124349E4FF1239
:034B3C00486E229E
:10076500E4F508F50990015DF0A374D7F0A37429A9
:10077500F0900049E0900160F0A37415F090026BD1
:10078500E0900163F0750807E4F5099004DAE0FFED
:10079500E509C39F4003020B3AAF080508745D2FB6
:1007A500F582E43401F583E509F075F019A4247D9B
:1007B500F582E5F03403F583E0C454F0FF75F019D4
:1007C500E509A4247EF582E5F03403F583E04FFFC7
:1007D500AE080508745D2EF582E43401F583EFF06B
:1007E50075F019E509A4247DF582E5F03403F58358
:1007F500E01470030209B2147003020A6124026056
:1008050003020B3575F019E509A4247EF582E5F0A0
:100815003403F583E024FD70030208B32403600369
:10082500020B3575F019E509A42489F582E5F03444
:1008350003F583E0640175F019702FE509A4248799
:10084500F582E5F03403F583E0FFAE080508745D35
:100855002EF582E43401F583EFF075F019E509A46E
:100865002486F582E5F03403802DE509A42483F57B
:1008750082E5F03403F583E0FFAE080508745D2ECC
:10088500F582E43401F583EFF075F019E509A42448
:1008950082F582E5F03403F583E0FFAE08050874C0
:1008A5005D2EF582E43401F583EFF002097F75F0E2
:1008B50019E509A42489F582E5F03403F583E0649C
:1008C5000175F0197051E509A42488F582E5F03425
:1008D50003F583E0FFAE080508745D2EF582E43468
:1008E50001F583EFF075F019E509A42487F582E594
:1008F500F03403F583E0FFAE080508745D2EF5823C
:10090500E43401F583EFF075F019E509A42486F5C3
:1009150082E5F03403804FE509A42484F582E5F0EF
:100925003403F583E0FFAE080508745D2EF582E417
:100935003401F583EFF075F019E509A42483F582F8
:10094500E5F03403F583E0FFAE080508745D2EF588
:1009550082E43401F583EFF075F019E509A42482EA
:10096500F582E5F03403F583E0FFAE080508745D14
:100975002EF582E43401F583EFF075F019E509A44D
:10098500247FF582E5F03403F583E0FFAE08050822
:10099500745D2EF582E43401F583EFF075F019E509
:1009A50009A42480F582E5F03403020B2175F019C2
:1009B500E509A4247EF582E5F03403F583E06003C0
:1009C500020B3575F019E509A42484F582E5F034A8
:1009D50003F583E0FFAE080508745D2EF582E43467
:1009E50001F583EFF075F019E509A42483F582E597
:1009F500F03403F583E0FFAE080508745D2EF5823B
:100A0500E43401F583EFF075F019E509A42482F5C6
:100A150082E5F03403F583E0FFAE080508745D2E2A
:100A2500F582E43401F583EFF075F019E509A424A6
:100A350081F582E5F03403F583E0FFAE080508741F
:100A45005D2EF582E43401F583EFF075F019E509C3
:100A5500A4247FF582E5F03403020B2175F019E536
:100A650009A4247EF582E5F03403F583E014605A89
:100A7500046003020B3575F019E509A42484F58299
:100A8500E5F03403F583E0FFAE080508745D2EF547
:100A950082E43401F583EFF075F019E509A42483A8
:100AA500F582E5F03403F583E0FFAE080508745DD3
:100AB5002EF582E43401F583EFF075F019E509A40C
:100AC500247FF582E5F03403805275F019E509A419
:100AD5002484F582E5F03403F583E0FFAE080508CC
:100AE500745D2EF582E43401F583EFF075F019E5B8
:100AF50009A42483F582E5F03403F583E0FFAE080D
:100B05000508745D2EF582E43401F583EFF075F088
:100B150019E509A4247FF582E5F03403F583E0FFA8
:100B2500AE080508745D2EF582E43401F583EFF017
:100B35000509020790E50824FB900162F07E017F1C
:100B45005EE50814FD124ACA745D2508F582E43491
:090B550001F583EFF0E50804FF4F
:010B5E002274
:103A760090005AE0FF900378EFF0900059E0FF9035
:103A86000379EFF0900058E0FF90037AEFF0900092
:103A960057E0FF90037BEFF0900378E0FCA3E0FD96
:103AA600A3E0FEA3E0FF9007211206C990005EE0A6
:103AB600FF900378EFF090005DE0FF900379EFF060
:103AC60090005CE0FF90037AEFF090005BE0FF90DF
:103AD600037BEFF0900378E0FCA3E0FDA3E0FEA3F8
:103AE600E0FF9007251206C9900056E0FFEF120787
:103AF600123B04003B3C013B480200003B54900053
:103B060055E0FFEFC0E0900721E0FCA3E0FDA3E055
:103B1600FEA3E0FF9006D11206C9900725E0FCA39C
:103B2600E0FDA3E0FEA3E0FF9006D51206C9D0E0B3
:103B3600FF1240D08019900055E0FF7D00123DE352
:103B4600800D900055E0FF7D01123DE38001007F6E
:043B56000012486EA3
:013B5A002248
:10378000750B0090015DE4F090015E74D7F090013C
:103790005F7429F0900049E0FF900160EFF0900124
:1037A0006174CCF0900162740BF0900055E0FF8FD3
:1037B0000B9004DAE0FFE50BC39F40067F09124837
:1037C0006E22900163E50BF0AF0B75F019EFA424A6
:1037D00089F582E5F03403F583E0FF900164EFF0B2
:1037E000AF0B75F019EFA4248AF582E5F03403F5E8
:1037F00083E0FCA3E0FDA3E0FEA3E0FF90037812CA
:1038000006C9900378E0FF900168EFF0900379E03B
:10381000FF900167EFF090037AE0FF900166EFF010
:1038200090037BE0FF900165EFF0AF0B75F019EFAF
:10383000A4248EF582E5F03403F583E0FCA3E0FDDB
:10384000A3E0FEA3E0FF9003781206C9900378E09E
:10385000FF90016CEFF0900379E0FF90016BEFF0C7
:1038600090037AE0FF90016AEFF090037BE0FF9015
:103870000169EFF07E017F5E7D0F124ACA90016DF3
:04388000EFF07F11D5
:013884002221
:10450B0090074EE4F0900054E0FFEF24E5FF900796
:10451B004EEFF090074EE0FFEF6054900055E0FF38
:10452B007B017A007956EBC0E0EAC0E0E9C0E07BA2
:10453B00017A00796A900718EBF0A3EAF0A3E9F08F
:10454B007B017A00796F90071BEBF0A3EAF0A3E9EC
:10455B00F090074EE0FE90071EEEF0D0E0F9D0E0B1
:10456B00FAD0E0FB1229317F0012486E2280067FC1
:07457B000912486E227F00C7
:014582002216
:0C4B73001227491249797F0012486E2277
:10486E0090074FEFF090015DE4F090015E74D7F089
:10487E0090015F7429F0900049E0FF900160EFF025
:10488E00900053E0FF900164EFF090016174FFF02F
:10489E0090026BE0FF900163EFF090074FE0FF9006
:1048AE000165EFF09001627404F07E017F5D7D0979
:0B48BE00124ACA900166EFF07F0A2248
:0D458300900735EEF0A3EFF0900737EDF054
:10459000900738E4F0900739E4F0900739E4F090A0
:1045A0000737E0FF900739E0FEEEC39F5036C2D7D1
:1045B000900739E0FF900735E0FCA3E0FD8D828C89
:1045C00083E5822FF582E43583F583E0FF90073899
:1045D000E02FF030D706900738E004F0900739E07C
:1045E00004F080BB900738E0FFC374FF9FFF900783
:0845F00038EFF0900738E0FFFE
:0145F80022A0
:101C4D00900746E4F0900747E4F0900053E0FFEF73
:101C5D00131313541FFFEF541FFF900746EFF0901F
:101C6D000746E0FFEFC3940E4003021F3490015D61
:101C7D00E4F090015E74D7F090015F7428F090014C
:101C8D0060E4F0900053E0FF900161EFF09001628D
:101C9D007403F0900746E0FF75F019EFA4247DF56D
:101CAD0082E5F03403F583E0FFEF1207121CC70045
:101CBD001E1F011E7C0200001F0E900746E0FF75DF
:101CCD00F019EFA4247EF582E5F03403F583E0FFEF
:101CDD00EF1207121CEB001D770300001F0E90077B
:101CED0046E0FF75F019EFA42489F582E5F0340381
:101CFD00F583E0FFEFB40139900746E0FF75F01969
:101D0D00EFA42486F582E5F03403F583E0FF90011E
:101D1D0063EFF0900746E0FF75F019EFA42487F507
:101D2D0082E5F03403F583E0FF900164EFF0021FCC
:101D3D000E900746E0FF75F019EFA42482F582E5B9
:101D4D00F03403F583E0FF900163EFF0900746E078
:101D5D00FF75F019EFA42483F582E5F03403F583C4
:101D6D00E0FF900164EFF0021F0E900746E0FF7553
:101D7D00F019EFA42489F582E5F03403F583E0FF33
:101D8D00EF64017051900746E0FF75F019EFA42440
:101D9D0086F582E5F03403F583E0FF900746E0FE1B
:101DAD00745D2EF582E43401F583EFF0900746E083
:101DBD00FF75F019EFA42487F582E5F03403F58360
:101DCD00E0FF900746E0FE745D2EF582E43401F5E8
:101DDD0083EFF0021F0E900746E0FF75F019EFA498
:101DED002482F582E5F03403F583E0FF900163EF83
:101DFD00F0900746E0FF75F019EFA42483F582E516
:101E0D00F03403F583E0FF900164EFF0021F0E0242
:101E1D001F0E900746E0FF75F019EFA4247EF582A2
:101E2D00E5F03403F583E0FFEF1207121E400000CA
:101E3D00001F0E900746E0FF75F019EFA42483F5FF
:101E4D0082E5F03403F583E0FF900163EFF0900736
:101E5D0046E0FF75F019EFA42484F582E5F0340314
:101E6D00F583E0FF900164EFF0021F0E021F0E904C
:101E7D000746E0FF75F019EFA4247EF582E5F034F6
:101E8D0003F583E0FFEF1207121EA0001ED801001C
:101E9D00001F0E900746E0FF75F019EFA42483F59F
:101EAD0082E5F03403F583E0FF900163EFF09007D6
:101EBD0046E0FF75F019EFA42484F582E5F03403B4
:101ECD00F583E0FF900164EFF08036900746E0FF68
:101EDD0075F019EFA42483F582E5F03403F583E062
:101EED00FF900163EFF0900746E0FF75F019EFA446
:101EFD002484F582E5F03403F583E0FF900164EF6F
:101F0D00F07E017F5D900747E0FD12458390074706
:101F1D00E0FE745D2EF582E43401F583EFF0900759
:091F2D0047E0FFEF04FF227F00F2
:011F36002288
:100B5F00900748E4F0900749E4F0900053E0FFEF6E
:100B6F00131313541FFFEF541FFF900748EFF0901C
:100B7F000748E0FFEFC3940E4003020F0490015D9E
:100B8F00E4F090015E74D7F090015F7428F090014B
:100B9F0060E4F0900053E0FF900161EFF09001628C
:100BAF007406F0900748E0FF75F019EFA4247DF567
:100BBF0082E5F03403F583E0FFEF1207120BD90043
:100BCF000D85010E3B0200000ED8900748E0FF751F
:100BDF00F019EFA4247EF582E5F03403F583E0FFEE
:100BEF00EF1207120BFD000C890300000D2A90076E
:100BFF0048E0FF75F019EFA42489F582E5F034037E
:100C0F00F583E0FFEFB40139900748E0FF75F01965
:100C1F00EFA42486F582E5F03403F583E0FF90011D
:100C2F0063EFF0900748E0FF75F019EFA42487F504
:100C3F0082E5F03403F583E0FF900164EFF0020DDD
:100C4F002A900748E0FF75F019EFA42482F582E59A
:100C5F00F03403F583E0FF900163EFF0900748E075
:100C6F00FF75F019EFA42483F582E5F03403F583C3
:100C7F00E0FF900164EFF0020D2A900748E0FF7546
:100C8F00F019EFA42489F582E5F03403F583E0FF32
:100C9F00EF64017050900748E0FF75F019EFA4243E
:100CAF0086F582E5F03403F583E0FF900748E0FE18
:100CBF00745D2EF582E43401F583EFF0900748E080
:100CCF00FF75F019EFA42487F582E5F03403F5835F
:100CDF00E0FF900748E0FE745D2EF582E43401F5E5
:100CEF0083EFF08036900748E0FF75F019EFA424EA
:100CFF0082F582E5F03403F583E0FF900163EFF0B6
:100D0F00900748E0FF75F019EFA42483F582E5F012
:100D1F003403F583E0FF900164EFF0900748E0FFA4
:100D2F0075F019EFA4247FF582E5F03403F583E025
:100D3F00FFEF5407FFEF1207120D58000D5F010D63
:100D4F0067050D6F0700000D77900165E4F0801DBA
:100D5F009001657402F080159001657404F0800DA8
:100D6F009001657406F08005900165E4F0900166CE
:100D7F00740AF0020ED8900748E0FF75F019EFA43F
:100D8F00247EF582E5F03403F583E0FFEF120712BE
:100D9F000DA60000000ED8900748E0FF75F019EF80
:100DAF00A42483F582E5F03403F583E0FF9001631B
:100DBF00EFF0900748E0FF75F019EFA42484F58257
:100DCF00E5F03403F583E0FF900164EFF0900748FE
:100DDF00E0FF75F019EFA4247FF582E5F03403F5F9
:100DEF0083E0FFEF5407FFEF1207120E0A000E12F7
:100DFF00010E1A050E220700000E2A90016574409D
:100E0F00F0801E9001657442F08016900165744465
:100E1F00F0800E9001657446F08006900165744075
:100E2F00F0900166E4F0020ED8020ED8900748E069
:100E3F00FF75F019EFA4247EF582E5F03403F583F6
:100E4F00E0FFEF1207120E5F000E970100000ECDAC
:100E5F00900748E0FF75F019EFA42483F582E5F0C1
:100E6F003403F583E0FF900163EFF0900748E0FF54
:100E7F0075F019EFA42484F582E5F03403F583E0CF
:100E8F00FF900164EFF08036900748E0FF75F0198E
:100E9F00EFA42483F582E5F03403F583E0FF90019E
:100EAF0063EFF0900748E0FF75F019EFA42484F585
:100EBF0082E5F03403F583E0FF900164EFF09001D9
:100ECF00657440F0900166E4F090016774FFF07E66
:100EDF00017F5D900749E0FD124583900749E0FED1
:100EEF00745D2EF582E43401F583EFF0900749E04D
:070EFF00FFEF04FF227F005A
:010F060022C8
:102F0C0090074AE4F090074BE4F0900053E0FFEF99
:102F1C00131313541FFFEF541FFF90074AEFF09049
:102F2C00074AE0FFEFC3940E400302306C90015D42
:102F3C00E4F090015E74D7F090015F7428F090017A
:102F4C0060E4F0900053E0FF900161EFF0900162BB
:102F5C007403F090074AE0FF75F019EFA4247DF597
:102F6C0082E5F03403F583E0FFEF1207122F8600A1
:102F7C002FE001303B020000304690074AE0FF751D
:102F8C00F019EFA4247FF582E5F03403F583E0FF1C
:102F9C00EF5407FFEF1207122FB4002FBB012FC302
:102FAC00052FCB0700002FD3900163E4F0801D9018
:102FBC0001637402F080159001637404F0800D902D
:102FCC0001637406F08005900163E4F09001647471
:102FDC000AF0806690074AE0FF75F019EFA4247F91
:102FEC00F582E5F03403F583E0FFEF5407FFEF12B1
:102FFC000712300E00301601301E05302607000077
:10300C00302E9001637440F0801E9001637442F086
:10301C0080169001637444F0800E9001637446F046
:10302C0080069001637440F0900164E4F0800B9092
:10303C0001637440F0900164E4F07E017F5D9007C1
:10304C004BE0FD12458390074BE0FE745D2EF5823C
:10305C00E43401F583EFF090074BE0FFEF04FF221F
:02306C007F00E3
:01306E00223F
:034B93007F00227E
:102C3700900750E4F0900053E0FFEF131313541F75
:102C4700FFEF541FFF900750EFF0900750E0FFEFA2
:102C5700C3940E4003022DA2900055E0FFEFC3136B
:102C6700FFEF5403FFEF1207122C80002CBB012C3F
:102C7700F6022D300300002D6A900750E0FF75F033
:102C870019EFA4247FF582E5F03403F583E0FFEF25
:102C970054F0FFEFF0900750E0FF75F019EFA42410
:102CA7007FF582E5F03403F583E0FFEF4400FFEFA3
:102CB700F0022DA2900750E0FF75F019EFA4247FD2
:102CC700F582E5F03403F583E0FFEF54F0FFEFF012
:102CD700900750E0FF75F019EFA4247FF582E5F027
:102CE7003403F583E0FFEF4401FFEFF0022DA290DC
:102CF7000750E0FF75F019EFA4247FF582E5F03463
:102D070003F583E0FFEF54F0FFEFF0900750E0FF8B
:102D170075F019EFA4247FF582E5F03403F583E01D
:102D2700FFEF4405FFEFF08072900750E0FF75F06A
:102D370019EFA4247FF582E5F03403F583E0FFEF74
:102D470054F0FFEFF0900750E0FF75F019EFA4245F
:102D57007FF582E5F03403F583E0FFEF4407FFEFEB
:102D6700F08038900750E0FF75F019EFA4247FF545
:102D770082E5F03403F583E0FFEF54F0FFEFF090C6
:102D87000750E0FF75F019EFA4247FF582E5F034D2
:0D2D970003F583E0FFEF4400FFEFF07F0045
:012DA400220C
:1034530090072FEBF0A3EAF0A3E9F0900732EDF029
:10346300900733E4F0900734E4F09007337403F0EB
:10347300900732E0FF900733E0FEEEC39F40030264
:10348300355D90072FE0FBA3E0FAA3E0F990073343
:10349300E0FF8F8275830012046FFFEF64D7600330
:1034A300023554900732E0FFEF14FF900734EFF03A
:1034B300900733E0FF900734E0FEEED39F40459042
:1034C300072FE0FBA3E0FAA3E0F9900734E0FF8FB6
:1034D3008275830012046FFF900734E0FEEEFD7CDB
:1034E30000ED2401FDEC3400FC90072FE0FBA3E08A
:1034F300FAA3E0F98D828C83EF1204CF900734E0B6
:1035030014F080AC900733E0FF7E00EF2401FFEE60
:103513003400FE90072FE0FBA3E0FAA3E0F98F82CB
:103523008E83E41204CF90026CE0FFEFB401169097
:10353300072FE0FBA3E0FAA3E0F97582057583008A
:10354300740112049C900732E004F0900733E00406
:0F355300F0900733E004F0023473900732E0FF8A
:013562002246
:102ABA0090026CE0FFEF1207122AD0002BA8012B1C
:102ACA00FC0300002C369004927440F09004937436
:102ADA000AF0900053E0FFEF1207122B16012B1F8A
:102AEA00032B28052B31072B3A092B430A2B4C0CB5
:102AFA002B550E2B5E102B67122B70142B82CA2BB0
:102B0A0094CB2B79CD2B8BDF00002B9D122DA5901A
:102B1A00004DEFF02212000690004DEFF022120055
:102B2A000E90004DEFF02212001690004DEFF022A9
:102B3A0012306F90004DEFF02212001E90004DEF00
:102B4A00F02212002690004DEFF02212002E900083
:102B5A004DEFF022124B9090004DEFF022124B2CC9
:102B6A0090004DEFF02212076590004DEFF022120F
:102B7A00450B90004DEFF022123A7690004DEFF09F
:102B8A0022124B7390004DEFF02212378090004DC5
:102B9A00EFF0227F0612486E90004DEFF02290006F
:102BAA0054E0FFEFC4135407FFEF5407FFEF120777
:102BBA00122BCE002BD7012BE0022BE9032BF204B8
:102BCA0000002C36124B9390004DEFF022122C3756
:102BDA0090004DEFF022122F0C90004DEFF02212D0
:102BEA001C4D90004DEFF022120B5F90004DEFF05C
:102BFA002222900052E0FF120000EFC454F0FFEFCF
:102C0A00C0E0900053E0FF120000CEEFCED0E0FF0C
:102C1A00EE4FFFEF1207122C280300002C3112008E
:0D2C2A000090004DEFF02290004DE4F022EC
:0B15E60090073AEBF0A3EAF0A3E9F055
:1015F10090073D7401F090073AE0FBA3E0FAA3E005
:10160100F9120507FFAEF0EF8EF01207381622002F
:1016110000164B0494187A04DE18D404E200001971
:101621000390004BE4F0D29CC2B5D2AC9006EE74AC
:1016310001F090073DE4F090073AE0FBA3E0FAA344
:10164100E0F9740475F09412056A90073DE0FFEF2C
:1016510060077812E6FFEF70037F01229006F0E049
:1016610004F070069006EFE004F078127600900224
:101671006CE0FFEF12071216850016F101173A030D
:10168100000017ED900049E0FF900052E0FEEE6F80
:10169100601590073AE0FBA3E0FAA3E0F9E475F0E6
:1016A1000012056A7F002290004BE0FF744E2FF577
:1016B10082E43400F583E0FF900000EFF07E007FCC
:1016C1004F90004BE0FDED14FD124ACA900000E07E
:1016D100FEEF6E70030217ED90073AE0FBA3E0FA0C
:1016E100A3E0F9E475F00012056A7F00220217ED0C
:1016F10090004BE0FF744E2FF582E43400F583E057
:10170100FF900000EFF07E007F4F90004BE0FDED79
:1017110014FD124583900000E0FEEF6E7003021786
:10172100ED90073AE0FBA3E0FAA3E0F9E475F000DD
:1017310012056A7F00220217ED900050E0FF1200AF
:1017410000EFC454F0FFEFC0E0900051E0FF120041
:1017510000CEEFCED0E0FFEE4FFF900049E0FEEF6C
:101761006E601590073AE0FBA3E0FAA3E0F9E47597
:10177100F00012056A7F002290004BE0FF744D2FAC
:10178100F582E43400F583E0FF120000EFC454F069
:10179100FFEFC0E090004BE0FF744E2FF582E43480
:1017A10000F583E0FF120000CEEFCED0E0FFEE4F58
:1017B100FF900001EFF07B017A00794F90004BE040
:1017C100FF7E00EF24FEFDEE34FFFC1200009000CE
:1017D10001E0FEEF6E601590073AE0FBA3E0FAA38B
:1017E100E0F9E475F00012056A7F0022122ABA902E
:1017F100004DE0FFEF701890073AE0FBA3E0FAA379
:10180100E0F9E475F00012056A7F00220216227BDE
:10181100017A01795D90004DE0FD12345390004D45
:10182100EFF0D2B5C29C90004CE4F090004CE0FF88
:10183100745D2FF582E43401F583E0FF8F99900008
:101841004CE004F0D2AC90026CE0FFEF705A9007CC
:101851003AE0FBA3E0FAA3E0F9758202758300E4A4
:1018610075F00012058990073AE0FBA3E0FAA3E0C6
:10187100F9740475F0DE12056A90073AE0FBA3E003
:10188100FAA3E0F9758202758300120532FFAEF00A
:10189100C3EF940AEE94004003D38001C3500302C6
:1018A10016227F002202162290073AE0FBA3E0FAFB
:1018B100A3E0F9758202758300E475F000120589D1
:1018C10090073AE0FBA3E0FAA3E0F9740475F0E2B3
:1018D10012056A90073AE0FBA3E0FAA3E0F97582EA
:1018E10002758300120532FFAEF0C3EF9403EE944C
:1018F100004003D38001C350030216227F0022025D
:10190100162290073DE4F090073AE0FBA3E0FAA32A
:0B191100E0F9E475F00012056A7F03A6
:01191C0022A8
:10293100900714EFF0900715EBF0A3EAF0A3E9F08C
:1029410090071FE4F0A3E4F07B017A077914900665
:10295100E9E4F0A3742AF07D017C00123B5B90074F
:1029610015E0FBA3E0FAA3E0F99006E9E4F0A37413
:102971002BF07D057C00123B5B900715E0FBA3E08B
:10298100FAA3E0F9EBC0E0EAC0E0E9C0E07B017A3C
:10299100007905C8E9C8CCEACCCDEBCDD0E0F9D0BF
:1029A100E0FAD0E0FB7E007F14120430900718E0BB
:1029B100FBA3E0FAA3E0F99006E9E4F0A37430F098
:1029C1007D027C00123B5B900718E0FBA3E0FAA3B9
:1029D100E0F9EBC0E0EAC0E0E9C0E07B017A007910
:1029E10041C8E9C8CCEACCCDEBCDD0E0F9D0E0FAD2
:1029F100D0E0FB7E007F0812043090071EE0FFEF5D
:102A01001313543FFF7E0090071FEEF0A3EFF090E9
:102A1100071EE0FFEF54FCFFEF600E900720E0047B
:102A2100F0700690071FE004F090071FE0FEA3E09E
:102A3100FFD3EF940AEE9400400990071FE4F0A33E
:102A4100740AF090071BE0FBA3E0FAA3E0F99007FA
:102A51001FE0FCA3E0FD9006E9E4F0A37433F0125B
:102A61003B5B90071EE0FF90004AEFF07B017A0785
:102A7100791E9006E9E4F0A37432F07D017C001226
:102A81003B5B90071EE0FF7E0090071BE0FBA3E08D
:102A9100FAA3E0F9EBC0E0EAC0E0E9C0E07B017A2B
:102AA100007919C8E9C8CCEACCCDEBCDD0E0F9D09A
:082AB100E0FAD0E0FB12043052
:012AB90022FA
:1039850090074CE4F0A3E4F07B017A0079499006B6
:10399500DEE4F0A3742AF07D017C00123C3E900029
:1039A50049E0FFEFC39401400B900049E0FFEFD3DE
:1039B500940F40069000497401F07B017A00790567
:1039C5009006DEE4F0A3742BF07D057C00123C3EEE
:1039D5007B017A0079419006DEE4F0A37430F07D36
:1039E500027C00123C3E7B017A00794A9006DEE4B7
:1039F500F0A37432F07D017C00123C3E90004AE059
:103A0500FFEFD39428400690004A7428F090004AAE
:103A1500E0FFEF1313543FFF7E0090074CEEF0A339
:103A2500EFF090004AE0FFEF54FCFFEF600E9007C7
:103A35004DE004F0700690074CE004F090074CE070
:103A4500FEA3E0FFD3EF940AEE9400400990074CE3
:103A5500E4F0A3740AF07B017A00791990074CE031
:103A6500FCA3E0FD9006DEE4F0A37433F0123C3EC7
:013A7500222E
:0B22090090073EEBF0A3EAF0A3E9F021
:102214009007417401F090073EE0FBA3E0FAA3E0CD
:10222400F9120507FFAEF0EF8EF0120738223D00D9
:102234000022550532000024A7900741E4F09007DE
:102244003EE0FBA3E0FAA3E0F9740575F032120551
:102254006A900741E0FFEF6011900377E0FFEFD34E
:1022640094004003D38001C340037F0122C2AC9099
:102274000377E0FF900002EFF0900377E4F090031F
:1022840075E0FF900003EFF0D2AC900002E0FF9005
:102294000003E0FEC3EE9FFF900004EFF090000304
:1022A400E0FF900004E0FEEE6F608E900004E0FF1B
:1022B40074752FF582E43402F583E0FFEF12071200
:1022C40023AD0023582823032922D4D7000023E573
:1022D400900004E0FF74752FF582E43402F583E086
:1022E400FF90004BE0FE744F2EF582E43400F5833A
:1022F400EFF090004BE004F078137601022411789B
:1023040013E6FFEFB4011E90004FE4F09000507408
:10231400D7F09000517429F090004B7403F09002B0
:102324006CE4F08028900004E0FF74752FF582E4DB
:102334003402F583E0FF90004BE0FE744F2EF582EB
:10234400E43400F583EFF090004BE004F07813766A
:10235400000224117813E6FFEFB4011F90004FE44C
:10236400F090005074D7F09000517428F090004B16
:102374007403F090026C7401F08028900004E0FF74
:1023840074752FF582E43402F583E0FF90004BE08E
:10239400FE744F2EF582E43400F583EFF090004B89
:1023A400E004F07813760080647813E6FFEFB4015C
:1023B40006781376008056900004E0FF74752FF5BC
:1023C40082E43402F583E0FF90004BE0FE744F2E6C
:1023D400F582E43400F583EFF090004BE004F080E4
:1023E4002C900004E0FF74752FF582E43402F58329
:1023F400E0FF90004BE0FE744F2EF582E43400F5CC
:1024040083EFF090004BE004F07813760090004BDB
:10241400E0FFEFD39406404990004EE0FF7E00EFCA
:102424002406FFEE3400FE90004BE0FD7C00ED6FCF
:102434007002EC6E700C78127601C2ACC29C7813F8
:10244400760090004BE0FF7E00D3EF940EEE6480A4
:102454009481404390026DE4F0A3E4F07F00228075
:102464003690004BE0FFEFB4062D90004BE0FF7474
:102474004E2FF582E43400F583E0FF90004EEFF038
:1024840090026CE0FFEFB4010E90004EE0FFEF54B9
:102494001FFF90004EEFF0900004E004F00222A130
:1024A40002223D900741E4F090073EE0FBA3E0FAEE
:0C24B400A3E0F9E475F00012056A7F0354
:0124C00022F9
:041533004104DA0E87
:104349001243E19003811206D50000000090039A00
:104359001206D5000000009003B31206D500000034
:10436900009003CC1206D5000000009003E5120668
:10437900D5000000009003FE1206D5000000009051
:1043890004171206D5000000009004301206D5006B
:104399000000009004491206D50000000090046254
:1043A9001206D50000000090047B1206D50000001B
:1043B900009004AD1206D5000000009004C6120654
:1043C900D5000000009004927440F0A3740AF0A391
:0843D9001206D58000800022CD
:10466700E49006D9F0A31206D500000000E49006F6
:10467700D9F09006D9E0FFC3940E502BEF75F019CF
:10468700A4247DF9740335F0FA7B01E02410FEE4DD
:10469700339006E9F0A3CEF07D017C00123B5B90DE
:1046A70006D9E004F080CB1248C9E4FCFDFE900671
:1046B700DA1206C97B017A0679DA9006E9E4F0A3F3
:0A46C70074A0F07D017C00123B5B43
:0146D10022C6
:1043E100E49006D0F0A31206D5000000009006D597
:1043F1001206D500000000E49006D0F09006D0E04F
:10440100FFC3940E502BEF75F019A4247DF97403AA
:1044110035F0FA7B01E02410FEE4339006DEF0A3D0
:10442100CEF07D017C00123C3E9006D0E004F0808D
:10443100CB1248C9E4FCFDFE9006D51206C97B01EA
:104441007A0679D19006DEE4F0A374A0F07D017CB8
:1044510000123C3E9006D1E0FCA3E0FDA3E0FEA3E8
:10446100E0FFA3E0F8A3E0F9A3E0FAA3E0FBC312A5
:0744710006926003122749C7
:014478002221
:10274900E490037CF0A3F0A37403F0A37440F0A316
:102759007406F0A31206D500000000900385120646
:10276900D5000000009003957401F0E4A3F0A37470
:1027790003F0A37440F0A37406F0A31206D5000079
:10278900000090039E1206D5000000009003AE746D
:1027990002F0E4A3F0A37403F0A37440F0A3740659
:1027A900F0A31206D5000000009003B71206D50069
:1027B9000000009003C77403F0E4A3F0A37403F0CE
:1027C900A37440F0A37406F0A31206D5000000001C
:1027D9009003D01206D5000000009003E07404F0C5
:1027E900E4A3F0A37403F0A37440F0A37406F0A368
:1027F9001206D5000000009003E91206D50000007A
:10280900009003F97405F0E4A3F0A37403F0A37432
:1028190040F0A37406F0A31206D50000000090044E
:10282900021206D5000000009004127406F0E4A319
:10283900F0A37403F0A37440F0A37406F0A3120686
:10284900D50000000090041B1206D500000000907E
:10285900042B7407F0E4A3F0A37403F0A37440F00D
:10286900A37406F0A31206D50000000090043412E8
:1028790006D5000000009004447408F0A37402F027
:10288900A314F0A37440F0A3740AF0A31206D500B0
:1028990000000090045D7409F0A37402F0A314F021
:1028A900A37440F0A3740AF0A31206D50000000037
:1028B900900476740AF0A37402F0A314F0A3744090
:1028C900F0A3740AF0A31206D50000000190048F4A
:1028D900740BF0A37401F0E4A3F0A37440F0A374A3
:1028E9000AF0A31206D5800080009004A8740CF0A9
:1028F900A37402F0E4A3F0A37440F0A3740AF0A354
:102909001206D5000000009004C1740DF0A37402F2
:10291900F0E4A3F0A37440F0A3740AF0A31206D55F
:082929000000000012466722C5
:1048C900E49006DEF0A3F0A3F09006DFF0E4900692
:1048D900E0F09006DFE075F019A4247DF974033542
:1048E900F0FA7B01A3E07E0029F9EE3AFA120456A8
:1048F900FF9006DEE06F903885939006DEF0900613
:10490900E0E004F0E0B404CA9006DFE004F0E0B4AB
:074919000EBB9006DEE0FF7B
:014920002274
:0300000002420FAA
:10420F0043AF01787FE4F6D8FD9000007FFF7E80FA
:0D421F00E4F0A3DFFCDEFA758114024267B3
:1015370060660612000000000000000000000000C6
:101547000000000000000000000000000000000094
:101557000000000000000000000000000000000084
:101567000000000000000000000000000000000074
:101577000000000000000000000000000000000064
:101587000000000000000000000000000000000054
:101597000000000000000000000041060D004406A6
:0515A7000E0000000031
:103EA600E4FF9006D0F0124B51124B18D2AAD2A8BA
:103EB600D288D28AE4FFEF75F022A42412F582E4B8
:103EC6003406F583E4F0A3F09006D0F0EF75F02207
:103ED600A42414F582E43406F583C083C0829006D8
:103EE600D0E0FED082D08375F008120706E4F0A376
:103EF600F0EF75F022A42416F582E43406F58375F6
:103F0600F008EE120706E4F0A3F0EF75F022A42401
:103F160018F582E43406F583C083C0829006D0E0AB
:103F2600FED082D08375F008120706E4F0A3F0EF06
:103F360075F022A4241AF582E43406F58375F00898
:103F4600EE120706E4F0A3F09006D0E004F0E06479
:0F3F5600046003023ED20FEF64036003023EBC1F
:013F65002239
:030003000247A40D
:1047A400C0E0C0F0C083C082C0D0E8C0E0ECC0E08C
:0647B400EDC0E0EFC0E0E3
:1047BA00900612E0C3135403FF75F008A42414F5FD
:1047CA0082E43406F583E475F0011204F1900612CE
:1047DA00E0FCA3E0FDEF75F008A42416F582E434AA
:0847EA0006F583ECF0A3EDF0ED
:1047F200D0E0FFD0E0FDD0E0FCD0E0F8D0D0D08215
:07480200D083D0F0D0E032BA
:0300130002480997
:10480900C0E0C0F0C083C082C0D0E8C0E0ECC0E026
:06481900EDC0E0EFC0E07D
:10481F00900612E0C3135403FF75F008A42436F575
:10482F0082E43406F583E475F0011204F190061268
:10483F00E0FCA3E0FDEF75F008A42438F582E43422
:08484F0006F583ECF0A3EDF087
:10485700D0E0FFD0E0FDD0E0FCD0E0F8D0D0D082AF
:07486700D083D0F0D0E03255
:03000B000246D2D8
:1046D200C0E0C0F0C083C082C0D0E8C0E0ECC0E05F
:0646E200EDC0E0EFC0E0B6
:1046E800758CFF758AFF900612E0C3135403FF759B
:1046F800F008A42458F582E43406F583E475F00143
:104708001204F1900612E0FCA3E0FDEF75F008A496
:0E471800245AF582E43406F583ECF0A3EDF0AC
:10472600D0E0FFD0E0FDD0E0FCD0E0F8D0D0D082E1
:07473600D083D0F0D0E03287
:03002B00021F377A
:101F3700C0E0C0F0C083C082C0D0E8C0E0ECC0E021
:101F4700EDC0E0EEC0E0EFC0E0C2CF900612E0FEC9
:101F5700A3E08EF01207381F7201FF201C03FF2039
:101F6700AE05FF214107FF000021DA900617E024A4
:101F7700FFFF900616E03407FE90062EE0FCA3E074
:101F8700FDC3EF9DFFEE9C900618F0A3EFF09006BF
:101F970014E0FFA3E090061ACFF0A3EFF090062C11
:101FA700E4F0A3F0900639E024FFFF900638E03410
:101FB70007FE900650E0FCA3E0FDC3EF9DFFEE9CFB
:101FC70090063AF0A3EFF0900636E0FFA3E0900604
:101FD7003CCFF0A3EFF090064EE4F0A3F090065B41
:101FE700E024FFFF90065AE03407FE900672E0FCFB
:101FF700A3E0FDC3EF9DFFEE9C90065CF0A3EFF01E
:10200700900658E0FFA3E090065ECFF0A3EFF090B4
:10201700067002213D900616E0FEA3E0FFC390067E
:102027001FE09FFF90061EE09E900620F0A3EFF0B2
:1020370090061CE0FFA3E0900622CFF0A3EFF090FC
:102047000614E4F0A3F0900638E0FEA3E0FFC39087
:102057000641E09FFF900640E09E900642F0A3EF06
:10206700F090063EE0FFA3E0900644CFF0A3EFF028
:10207700900636E4F0A3F090065AE0FEA3E0FFC313
:10208700900663E09FFF900662E09E900664F0A3CF
:10209700EFF0900660E0FFA3E0900666CFF0A3EFB5
:1020A700F090065802213D90061EE0FEA3E0FFC314
:1020B700900627E09FFF900626E09E900628F0A353
:1020C700EFF0900624E0FFA3E090062ACFF0A3EFFD
:1020D700F090061CE4F0A3F0900640E0FEA3E0FFBA
:1020E700C3900649E09FFF900648E09E90064AF09D
:1020F700A3EFF0900646E0FFA3E090064CCFF0A3D5
:10210700EFF090063EE4F0A3F0900662E0FEA3E055
:10211700FFC390066BE09FFF90066AE09E90066CF7
:10212700F0A3EFF0900668E0FFA3E090066ECFF013
:10213700A3EFF0900660E40221D7900626E0FEA305
:10214700E0FFC390062FE09FFF90062EE09E9006CB
:1021570030F0A3EFF090062CE0FFA3E0900632CF1B
:10216700F0A3EFF0900624E4F0A3F0900648E0FE19
:10217700A3E0FFC3900651E09FFF900650E09E90BA
:102187000652F0A3EFF090064EE0FFA3E09006544E
:10219700CFF0A3EFF0900646E4F0A3F090066AE0D4
:1021A700FEA3E0FFC3900673E09FFF900672E09ED8
:1021B700900674F0A3EFF0900670E0FFA3E090069E
:1021C70076CFF0A3EFF0900668E4F0A3F090061244
:1021D700F0A3F0900613E004F07006900612E004F6
:1021E700F0900612E05407F0D0E0FFD0E0FED0E018
:1021F700FDD0E0FCD0E0F8D0D0D082D083D0F0D0B2
:02220700E032C3
:0B24C100900742EBF0A3EAF0A3E9F063
:0524CC009006FAE4F0A7
:1024D1009007457401F0900742E0FBA3E0FAA3E006
:1024E100F9120507FFAEF0EF8EF012073824FE0057
:1024F10000252800C1269F00C40000272F90074215
:10250100E0FBA3E0FAA3E0F9758202758300E475AC
:10251100F000120589900742E0FBA3E0FAA3E0F97D
:10252100E475F0C112056A900742E0FBA3E0FAA34B
:10253100E0F9758202758300120532FFAEF0C3EF38
:102541009414EE94004003D38001C340037F002222
:1025510090060DE0FFEF75F022A42422F582E43409
:1025610006F583E0FEA3E0FFCBEFCBCAEECAE4F9A8
:10257100F890060DE0FFEF75F022A4241AF582E42D
:102581003406F583E0FEA3E0FFE4FCFDEF2BFBEE58
:102591003AFAED39F9EC38F890060DE0FFEF75F0F5
:1025A10022A4242AF582E43406F583E0FEA3E0FFA9
:1025B100E4FCFDEB2FFBEA3EFAE93DF9E83CF8903B
:1025C100060DE0FFEF75F022A42432F582E4340613
:1025D100F583E0FEA3E0FFE4FCFDEB2FFFEA3EFE06
:1025E100E93DFDE83CFC78121206B6ECC0E0EDC016
:1025F100E0EEC0E0EFC0E090060DE0FFEF75F022E5
:10260100A42420F582E43406F583E0FEA3E0FF90E4
:10261100060DE0FDED75F022A42418F582E43406E0
:10262100F583E0FCA3E0FDED2FFFEC3EFE90060DEF
:10263100E0FDED75F022A42428F582E43406F5834B
:10264100E0FCA3E0FDEF2DFFEE3CFE90060DE0FD6A
:10265100ED75F022A42430F582E43406F583E0FC24
:10266100A3E0FDEF2DFFEE3CFECBEFCBCAEECAE4BB
:10267100F9F8D0E0FFD0E0FED0E0FDD0E0FC12059B
:10268100F290060E1206C9900745E4F0900742E069
:10269100FBA3E0FAA3E0F9E475F0C412056A900720
:1026A10045E0FFEF70037F01227FFF7EFF7D007C0D
:1026B1000090060EE0F8A3E0F9A3E0FAA3E0FBD353
:1026C100120692502790060EE0FCA3E0FDA3E0FE67
:1026D100A3E0FF90060DE0FB75F019EBA42449F58A
:1026E10082E5F03404F5831206C9801B90060DE0E3
:1026F100FF75F019EFA42449F582E5F03404F58360
:102701001206D50000FFFF90060DE004F090060DC3
:10271100E0FFEFC39403400590060DE4F09006FC42
:10272100E004F070069006FBE004F00224FE90073E
:1027310045E4F0900742E0FBA3E0FAA3E0F9E47579
:07274100F00012056A7F039E
:01274800226E
:104B51005389F0438905758CFF758AFFD2A9D28CE0
:014B61002231
:104B1800D2ADE4F5C875CCFF75CDE775CAFF75CB86
:044B2800E7D2CA22E4
:1015AC0041067F0041068000410684124A068500F0
:1015BC00000000000000000000060C00000000000D
:0915CC000041069A0041069B0053
:104AED00D2EBE490069CF0A3F09006A0F0A3F0901A
:064AFD0006A4F0A3F02264
:104AA100EF25E054FE90067EF09006D8E090067F58
:104AB100F09006DCE0900680F0A3EBF0A3EAF0A30F
:094AC100E9F090069A7401F0225C
:100F07009006D0EBF0A3EAF0A3E9F0E49006FDF039
:100F17009006D304F0120507FFAEF0E5F060030278
:100F2700127AEF1207120F5B000F6D4C0F98570FD5
:100F3700BC5D100D66104A71109B7810DC85110797
:100F47008B11589311959B11EBA2122CAE1250B333
:100F57000000127A9006D0E0FBA3E0FAA3E0F9E4E0
:100F670075F04C12056A90069AE07002FF22E49031
:100F7700069AF0D2EEC2EDD2EFD2ED9006D3F09002
:100F870006D0E0FBA3E0FAA3E0F9E475F0571205F9
:100F97006A9006D3E070037F0122C2EFE49006A0B7
:100FA700F0A3F09006D0E0FBA3E0FAA3E0F9E47524
:100FB700F05D12056A7A06797E9006D77401F0A370
:100FC7007406F0A3747EF0A37401F0FB7A0679A08F
:100FD7001231D0C3EF6480948250028001C3500362
:100FE7007F002290069BE06041C2EDC2EFD2EDE4A4
:100FF7009006D3F09006D0E0FBA3E0FAA3E0F9E473
:1010070075F06612056A9006D3E070037F0122D25D
:10101700EFE490069BF09006D0E0FBA3E0FAA3E094
:10102700F9E4F5F012056A7F0022E49006A0F0A328
:10103700F09006D0E0FBA3E0FAA3E0F9E475F071C5
:1010470012056A9006D7E4F0A37400F0A3740CF0BD
:1010570090067FE09006DAF07B017A0679A01231DC
:10106700D0C3EF6480948250028001C350037F0095
:101077002290069BE06041C2EDC2EFD2EDE49006FC
:10108700D3F09006D0E0FBA3E0FAA3E0F9E475F013
:101097007812056A9006D3E070037F0122D2EFE44D
:1010A70090069BF09006D0E0FBA3E0FAA3E0F9E4FA
:1010B700F5F012056A7F0022C2EDD2EFD2EDE4907F
:1010C70006D3F09006D0E0FBA3E0FAA3E0F9E475BD
:1010D700F08512056A9006D3E070037F0122C2EF04
:1010E70090067EE04401F0E49006A0F0A3F090069D
:1010F700D0E0FBA3E0FAA3E0F9E475F08B12056AF0
:101107007A06797E9006D77401F0A37406F0A3746B
:101117007EF0A37401F0FB7A0679A01231D0C3EFF9
:101127006480948250028001C350037F002290069E
:101137009BE06041C2EDC2EFD2EDE49006D3F090A0
:1011470006D0E0FBA3E0FAA3E0F9E475F0931205FB
:101157006A9006D3E070037F0122D2EFE490069BEA
:10116700F09006D0E0FBA3E0FAA3E0F9E4F5F01273
:10117700056A7F0022E490069CF0A3F09006D0E079
:10118700FBA3E0FAA3E0F9E475F09B12056A7A067F
:10119700798F9006D77401F0A37406F0A3748FF0CB
:1011A700900680E09006DAF07B017A06799C12358A
:1011B70063C3EF6480948250028001C350037F00B1
:1011C7002290069BE06041C2EDC2EFD2EDE49006AB
:1011D700D3F09006D0E0FBA3E0FAA3E0F9E475F0C2
:1011E700A212056A9006D3E070037F0122D2EFE4D2
:1011F70090069BF09006D0E0FBA3E0FAA3E0F9E4A9
:10120700F5F012056A7F0022C2EDC2EFD2EDE4903D
:1012170006D3F09006D0E0FBA3E0FAA3E0F9E4756B
:10122700F0AE12056A9006D3E070037F0122D2EF79
:10123700E49006A4F0A3F09006D0E0FBA3E0FAA3A5
:10124700E0F9E475F0B312056A7B017A0679A41216
:101257003D1DC3EF6480948250028001C350037F19
:1012670000229006FFE004F070069006FEE004F00E
:10127700020F5BE49006D3F09006D0E0FBA3E0FA00
:0B128700A3E0F9E4F5F012056A7F0314
:011292002239
:0B3563009006D4EBF0A3EAF0A3E9F01F
:10356E009006DB7401F0120507FFAEF0E5F0600384
:10357E0002365AEF2436604224E4700302364324A6
:10358E00E6600302365AE4900678F09006DAE0FF21
:10359E00900678E0C39F4003023653E490067AF01B
:1035AE00C2EEC2ED9006DBF09006D4E0FBA3E0FA8B
:1035BE00A3E0F9E475F0CA12056A9006DBE0700329
:1035CE007F0122E4900679F0D2ED90067AE0FF2595
:1035DE00E0FFA2ECE4334FF0C2ED900679E004F088
:1035EE00E0B408E490067AE0FF9006D7E0FBA3E093
:1035FE00FAA3E0F9900678E0F582758300EF1204E5
:10360E00CF900678E004F0D2EE9006DAE0FF900656
:10361E0078E0C39F5004C2EF8002D2EFD2EDE49067
:10362E0006DBF09006D4E0FBA3E0FAA3E0F9E47524
:10363E00F0E612056A9006DBE070037F0122C2ED10
:10364E00C2EE023599D2EEE490069BF0E49006DBD2
:10365E00F09006D4E0FBA3E0FAA3E0F9E4F5F01253
:04366E00056A7F0367
:013672002235
:0B31D0009006D4EBF0A3EAF0A3E9F0B6
:1031DB009006DB7401F012050712073831FF00006F
:1031EB00325000FF3282010732B3010E32D601108A
:1031FB0000003308D2EEE490067BF09006DAE0FF95
:10320B0090067BE0C39F40030233039006D7E0FB9D
:10321B00A3E0FAA3E0F990067BE0F5827583001238
:10322B00046F90067DF090067BE004F0C2EDE49015
:10323B0006DBF09006D4E0FBA3E0FAA3E0F9E4751B
:10324B00F0FF12056A9006DBE070037F0122E49029
:10325B00067CF090067DE0FF25E0F092EFD2EDE4E6
:10326B009006DBF09006D4E0FBA3E0FAA3E0F97440
:10327B000175F00712056A9006DBE070037F0122EF
:10328B00C2ED90067CE004F0E0B408C7C2EEC2EDDC
:10329B00E49006DBF09006D4E0FBA3E0FAA3E0F9A0
:1032AB00740175F00E12056A9006DBE070037F0166
:1032BB0022D2EDE49006DBF09006D4E0FBA3E0FA1B
:1032CB00A3E0F9740175F01012056A9006DBE0704B
:1032DB00037F0122C2EDD2EE20EC030232069006F0
:1032EB009B7401F09006D4E0FBA3E0FAA3E0F9E4B1
:1032FB00F5F012056A7F0222E490069BF0E490063B
:10330B00DBF09006D4E0FBA3E0FAA3E0F9E4F5F0E0
:05331B0012056A7F03AA
:01332000228A
:0B3D1D009006D4EBF0A3EAF0A3E9F05D
:103D2800A37401F0120507FFAEF06003023DCAEE6E
:103D38006003023DCA7E067F8F7D0A124ACA90063A
:103D480099E06F707990068FE0FCA3E0FDA3E0FE98
:103D5800A3E0FF9004941206C9900693E060221431
:103D6800704C900694E0FEA3E0FFE4FCFD9004ADE7
:103D78001206C99004AA7401F09004DA740DF08058
:103D88002D900694E0FEA3E0FFE4FCFD9004AD1244
:103D980006C9900696E0FEA3E0FFE4FCFD9004C689
:103DA8001206C9E49004AAF09004DA740EF09002A6
:103DB8006BE0FF900698E0FEEF4E90026BF0E4781F
:103DC8000CF6E49006D7F09006D4E0FBA3E0FAA343
:0A3DD800E0F9E4F5F012056A7F033C
:013DE20022BE
:053F66009006D4EFF00D
:103F6B009006D91206D5000000009006D5E0FCA300
:103F7B00E0FDA3E0FEA3E0FFE41202A19006D4E073
:103F8B0075F019A4248AF582E5F03403F583E0F883
:103F9B00A3E0F9A3E0FAA3E0FB12012E9006D4E014
:103FAB0075F019A4248EF582E5F03403F583E0F85F
:103FBB00A3E0F9A3E0FAA3E0FB12003D9006D912AF
:103FCB0006C97FFF7EFF7D7F7C4B9006D9E0F8A36F
:103FDB00E0F9A3E0FAA3E0FB120234600A40087494
:103FEB00FFFFFEFD7C0022E4FFFEFDFC9006D9E006
:103FFB00F8A3E0F9A3E0FAA3E0FB1202345006E4C5
:10400B00FFFEFDFC229006D9E0FCA3E0FDA3E0FE41
:06401B00A3E0FF1202DF2A
:01402100227C
:1042AC00E49006D0F0A31206D5000000009006D5CD
:1042BC001206D500000000E49006D0F09006D0E085
:1042CC00FFC3940E5030EF75F019A42489F97403D0
:1042DC0035F0FA7B01E075F003A42450FEE435F0D0
:1042EC009006DEF0A3CEF07D037C00123C3E9006DF
:1042FC00D0E004F080C6124921E4FCFDFE9006D506
:10430C001206C97B017A0679D19006DEE4F0A3741B
:10431C00A1F07D017C00123C3E9006D1E0FCA3E0B4
:10432C00FDA3E0FEA3E0FFA3E0F8A3E0F9A3E0FA0D
:0C433C00A3E0FBC3120692600312497953
:014348002252
:0540D0009006D0EFF0A6
:1040D5009006D91206D5000000009006D1E0FCA399
:1040E500E0FDA3E0FEA3E0FF9006D0E0FB75F0192C
:1040F500A4248AF582E5F03403F5831206C99006F7
:10410500D5E0FCA3E0FDA3E0FEA3E0FF75F019EB0D
:10411500A4248EF582E5F03403F5831206C9EB7508
:10412500F019A42489F9740335F0FA7B019006D0BF
:10413500E075F003A42450FEE435F09006E9F0A301
:10414500CEF07D037C00123B5B124921E4FCFDFEB1
:104155009006D91206C97B017A0679D99006E9E459
:0C416500F0A374A1F07D017C00123B5B14
:01417100222B
:10492100E49006E4F0A3F0A3F09006E5F0E490062D
:10493100E6F09006E5E075F019A42489F9740335D1
:10494100F0FA7B01A3E07E0029F9EE3AFA1204564F
:10495100FF9006E4E06F903885939006E4F09006AE
:10496100E6E004F0E0B40CCA9006E5E004F0E0B43F
:074971000EBB9006E4E0FF1D
:01497800221C
:093DE3009006DEEFF0A3EDF0FB09
:103DEC00A31206D500000000EB640170439006DEC0
:103DFC00E0FF75F019A42489F582E5F03403F5830E
:103E0C007401F0EF75F019A42489F9740335F0FAF4
:103E1C007B019006DEE075F003A42450FEE435F03F
:103E2C009006E9F0A3CEF07D037C00123B5B80464C
:103E3C009006DFE070409006DEE0FF75F019A424D8
:103E4C0089F582E5F03403F583E4F0EF75F019A4FD
:103E5C002489F9740335F0FA7B019006DEE075F0E5
:103E6C0003A42450FEE435F09006E9F0A3CEF07DD7
:103E7C00037C00123B5B124921E4FCFDFE9006E042
:103E8C001206C97B017A0679E09006E9E4F0A37486
:093E9C00A1F07D017C00123B5BEA
:013EA50022FA
:10497900E49006D9F0A31206D500000000E49006E1
:10498900D9F09006D9E0FFC3940E500DE4FD123D15
:10499900E39006D9E004F080E9124921E4FCFDFE28
:1049A9009006DA1206C97B017A0679DA9006E9E4FB
:0C49B900F0A374A1F07D017C00123B5BB8
:0149C50022CF
:1015D5004106CB004106A8004106A9004106AA0024
:0B191D009006D0EBF0A3EAF0A3E9F085
:05192800E49006F1F05F
:10192D009006D304F0120507FFAEF0E5F060030258
:10193D001C34EF24ED603724F670030219F924F5F9
:10194D007003021A6324F47003021B4B24346003EA
:10195D00021C349006D0E0FBA3E0FAA3E0F990005E
:10196D0002E4F5F0120589E475F01312056A90068C
:10197D00D0E0FBA3E0FAA3E0F9900002120532C318
:10198D009401E5F094004003D38001C340037F0030
:10199D00229006CBE075F026A42402F582E5F03402
:1019AD0005F583E0706A9006A8F09006CBE075F01F
:1019BD0026A42402F582E5F03405F583E070369017
:1019CD0006A8E06408602E9006CBE0045407F09062
:1019DD0006A8E004F0E49006D3F09006D0E0FBA357
:1019ED00E0FAA3E0F9E475F01D12056A9006D3E064
:1019FD0070B87F01229006A8E0B408149006D0E0DC
:101A0D00FBA3E0FAA3E0F9E4F5F012056A7F0022EA
:101A1D009006CBE075F026A424DDF9740435F0FAB8
:101A2D007B01EAC0E0E9C0E07A0679AB78AB7C06D1
:101A3D007D01D0E0F9D0E0FA7E007F20120430E481
:101A4D009006D3F09006D0E0FBA3E0FAA3E0F9E412
:101A5D0075F02812056A9006D3E070037F0122907D
:101A6D0006A97407F0E49006AAF09006A9E0FFA37A
:101A7D00E0C39F4003021B5DE025E025E024AFF5A8
:101A8D0082E43406F583E0FCA3E0FDA3E0FEA3E0D1
:101A9D00FF9006AAE025E025E024ABF582E43406AC
:101AAD00F583E0F8A3E0F9A3E0FAA3E0FBD3120677
:101ABD009240749006AAE025E025E024ABF582E47F
:101ACD003406F583E0FCA3E0FDA3E0FEA3E0FF9068
:101ADD0006CC1206C99006AAE025E025E024AFF554
:101AED0082E43406F583E0FCA3E0FDA3E0FEA3E071
:101AFD00FF9006AAE025E025E024ABF582E434064C
:101B0D00F5831206C99006CCE0FCA3E0FDA3E0FE30
:101B1D00A3E0FF9006AAE025E025E024AFF582E4DE
:101B2D003406F5831206C9E49006D3F09006D0E092
:101B3D00FBA3E0FAA3E0F9E475F03412056A900610
:101B4D00D3E070037F01229006AAE004F0021A7719
:101B5D009006A9E014F0E06003021A729006BBE053
:101B6D00FCA3E0FDA3E0FEA3E0FF9006B7E0F8A321
:101B7D00E0F9A3E0FAA3E02FFFEA3EFEE93DFDE820
:101B8D003CFC78011206A39006CBE075F019A42455
:101B9D0081F582E5F03403F5831206C99006CBE09A
:101BAD0075F019A42489F582E5F03403F583E0601E
:101BBD00409006CBE075F019A42481F582E5F03450
:101BCD0003F583E0FCA3E0FDA3E0FEA3E0FF900698
:101BDD00D51206C99006CBE0FF123F669006CBE00A
:101BED0075F019A42485F582E5F03403F58312060A
:101BFD00C99006CBE075F026A42402F582E5F034F9
:101C0D0005F583E4F09006F3E004F070069006F21B
:101C1D00E004F09006D0E0FBA3E0FAA3E0F9E4F5D0
:101C2D00F012056A7F0022E49006D3F09006D0E012
:0F1C3D00FBA3E0FAA3E0F9E4F5F012056A7F03D8
:011C4C002275
:104B620053890F438910758D8A758BD0D2ABD28E43
:014B72002220
:1038850000BC01BD02BE03BF04B805B906BA07BB3B
:1038950008B409B50AB60BB70CB00DB10EB20FB32B
:1038A50010AC11AD12AE13AF14A815A916AA17AB1B
:1038B50018A419A51AA61BA71CA01DA11EA21FA30B
:1038C500209C219D229E239F24982599269A279BFB
:1038D500289429952A962B972C902D912E922F93EB
:1038E500308C318D328E338F34883589368A378BDB
:1038F500388439853A863B873C803D813E823F83CB
:1039050040FC41FD42FE43FF44F845F946FA47FBBA
:1039150048F449F54AF64BF74CF04DF14EF24FF3AA
:1039250050EC51ED52EE53EF54E855E956EA57EB9A
:1039350058E459E55AE65BE75CE05DE15EE25FE38A
:1039450060DC61DD62DE63DF64D865D966DA67DB7A
:1039550068D469D56AD66BD76CD06DD16ED26FD36A
:1039650070CC71CD72CE73CF74C875C976CA77CB5A
:1039750078C479C57AC67BC77CC07DC17EC27FC34A
:104ACA00E4FCCBEDCB1DEB60160FEFCAEECA70010A
:104ADA000E14F5828A83E06C90388593FC80E3CFCC
:024AEA00ECCF0F
:014AEC0022A7
:1000360002034BE86480F8E933E83360110460F0AA
:10004600ED33EC337009E8FCE9FDEAFEEBFF220430
:1000560060DED3EB9FEA9EE99DE8C2E78CF0C2F72B
:1000660095F0400CE8CCF8E9CDF9EACEFAEBCFFBF7
:1000760012031685D0F05804700320D5B3E8047037
:10008600075002B2D502035592D5EC0460F7E4CCD2
:10009600C0E0C398F8603B94186008400DD0E0FBC0
:1000A60002032DE4FBFAC9FC8028E830E406E4C923
:1000B600FBE4CAFCE830E305E4C9CACBFCE8540714
:1000C6006010F8C3E913F9EA13FAEB13FBEC13FC1F
:1000D600D8F130F52FC3E49CFCEF9BFFEE9AFEEDC2
:1000E60099FDD0E0FBEF4E4D4C701222DB0302036C
:1000F60052EC2CFCEF33FFEE33FEED33FDED30E733
:10010600EB02032DEF2BFFEE3AFEED39FDD0E0FBBF
:1001160050130BBB0003020355ED13FDEE13FEEF68
:0801260013FFEC13FC02032D92
:10012E00EC4D6011E8497017ED33EC3304600DE4CB
:10013E00FCFFFEFD22E933E8330470F802034B1294
:10014E00031658046009E4CC248150062850090295
:10015E000355284003020352C0E0EB4A7044B980B5
:10016E0006D0E0FB020341EF4E701CBD8008EBFF92
:10017E00EAFEE9FD80EBE98DF0A4FEE5F002021740
:10018E00E9CDF9EAFEEBFFEF89F0A4FCE5F0CE89AC
:10019E00F0A42EFFE435F0CD89F0A42DFEE435F069
:1001AE008067EF4E7005BD80D780C3EF8BF0A4AC97
:1001BE00F0EE8BF0A42CFCE435F0F8EF8AF0A42CD2
:1001CE00E5F038FCE433CB8DF0A42CFCE5F03BF8E5
:1001DE00EE8AF0A42CFCE5F038F8E433CF89F0A4D5
:1001EE002CFCE5F038CF3400CE89F0A42FFFE5F0DB
:1001FE003EFEE433C98DF0A42EFEE5F039CD8AF033
:10020E00A42FFFE5F03EFEE43DFD33D0E0FB5007AA
:10021E000BBB000F020355EC2CFCEF33FFEE33FE4D
:06022E00ED33FD02032D7B
:1002340074F8CC6480CCC86480C8F582046043C37D
:10024400EB9FF5F0EA9E42F0E99D42F0E89C45F010
:1002540060305018E5825FFFE582F42B5582FB5035
:10026400210ABA001D09B90019088016E5825BFB52
:10027400E582F42F5582FF50090EBE00050DBD0026
:10028400010CC3EB9FF5F0EA9E42F0E99D42F0E8D1
:0D0294009C45F06007CC4820E701B3EC2248
:1002A10075F020800E75F010800575F0087D007ED8
:1002B100007F003392D530D503120684EC33401011
:1002C100EF33FFEE33FEED33FDEC33FCD5F0ED22E1
:0E02D100E5F0247EA2D513CC92E7CDCEFF221D
:1002DF00EDD2E7CD33EC3392D524814006E4FFFE17
:1002EF00FDFC22FCE4CFCECDCC24E0501174FF8076
:1002FF00EDC3CC13CCCD13CDCE13CECF13CF047013
:07030F00F030D5DE02068488
:10031600E9D2E7C933E833F892D5EDD2E7CD33EC2D
:0703260033FC5002B2D522A6
:10032D00EC30E7100FBF000C0EBE00080DBD000431
:10033D000BEB6014A2D5EB13FCED92E7FD2274FFDD
:10034D00FCFDFEFF22E480F8A2D574FF13FC7D8036
:03035D00E480EF4A
:10422C00024479E493A3F8E493A34003F68001F2EB
:10423C0008DFF48029E493A3F85407240CC8C33393
:10424C00C4540F4420C8834004F456800146F6DF62
:10425C00E4800B0102040810204080901293E47E4D
:10426C00019360BCA3FF543F30E509541FFEE49357
:10427C00A360010ECF54C025E060A840B8E493A31E
:10428C00FAE493A3F8E493A3C8C582C8CAC583CA49
:10429C00F0A3C8C582C8CAC583CADFE9DEE780BE01
:0115E5000005
:10036000E709F608DFFA8046E709F208DFFA803E7F
:1003700088828C83E709F0A3DFFA8032E309F6086C
:10038000DFFA8078E309F208DFFA807088828C83D4
:10039000E309F0A3DFFA806489828A83E0A3F60888
:1003A000DFFA805889828A83E0A3F208DFFA804C62
:1003B00080D280FA80C680D4806980F28033801039
:1003C00080A680EA809A80A880DA80E280CA8033A2
:1003D00089828A83ECFAE493A3C8C582C8CCC5831A
:1003E000CCF0A3C8C582C8CCC583CCDFE9DEE780EA
:1003F0000D89828A83E493A3F608DFF9ECFAA9F069
:10040000EDFB2289828A83ECFAE0A3C8C582C8CCBE
:10041000C583CCF0A3C8C582C8CCC583CCDFEADED7
:10042000E880DB89828A83E493A3F208DFF980CC39
:1004300088F0EF60010E4E60C388F0ED2402B40432
:100440000050B9F582EB2402B4040050AF232345D9
:0604500082239003B0734B
:10045600BB010689828A83E0225002E722BBFE02A4
:09046600E32289828A83E49322D7
:10046F00BB010CE58229F582E5833AF583E0225042
:10047F0006E92582F8E622BBFE06E92582F8E2228C
:0D048F00E58229F582E5833AF583E49322A6
:10049C00BB010FF8E58229F582E5833AF583E02864
:1004AC00F0225009C58229F8E58226F622BBFE0906
:1004BC00C58229F8E22582F222F8EA2583F583E940
:0304CC0093282250
:1004CF00F8BB010DE58229F582E5833AF583E8F063
:1004DF00225006E92582C8F622BBFE05E92582C80F
:0204EF00F222F7
:1004F100C5F0F8A3E028F0C5F0F8E5821582700296
:060501001583E038F02232
:10050700BB010A89828A83E0F5F0A3E022500687BF
:10051700F009E71922BBFE07E3F5F009E319228981
:0B052700828A83E493F5F074019322B4
:10053200BB0110E58229F582E5833AF583E0F5F007
:10054200A3E0225009E92582F886F008E622BBFEE4
:100552000AE92582F8E2F5F008E222E5832AF5832A
:08056200E993F5F0A3E99322EF
:10056A00BB010A89828A83F0E5F0A3F0225006F7DC
:0F057A0009A7F01922BBFE06F3E5F009F31922D9
:10058900F8BB0111E58229F582E5833AF583E8F0A4
:10059900E5F0A3F0225009E92582C8F608A6F02261
:0D05A900BBFE09E92582C8F2E5F008F22248
:1005B60075F008758200EF2FFFEE33FECD33CDCCFC
:1005C60033CCC58233C5829BED9AEC99E58298407F
:1005D6000CF582EE9BFEED9AFDEC99FC0FD5F0D65C
:1005E600E4CEFBE4CDFAE4CCF9A88222B800C1B986
:1005F6000059BA002DEC8BF084CFCECDFCE5F0CBC4
:10060600F97818EF2FFFEE33FEED33FDEC33FCEBFC
:1006160033FB10D703994004EB99FB0FD8E5E4F9B7
:10062600FA227818EF2FFFEE33FEED33FDEC33FCA4
:10063600C933C910D7059BE99A4007EC9BFCE99A98
:10064600F90FD8E0E4C9FAE4CCFB2275F010EF2FDD
:10065600FFEE33FEED33FDCC33CCC833C810D707DD
:100666009BEC9AE899400AED9BFDEC9AFCE899F818
:0E0676000FD5F0DAE4CDFBE4CCFAE4C8F922AB
:1049C600C2D5E830E70FB2D5E4C39BFBE49AFAE41C
:1049D60099F9E498F8EC30E717B2D51249FC1205BC
:1049E600F2E4C39BFBE49AFAE499F9E498F88003AD
:1049F6001205F230D50DE4C39FFFE49EFEE49DFD53
:044A0600E49CFC220E
:0E068400C3E49FFFE49EFEE49DFDE49CFC2287
:10069200EB9FF5F0EA9E42F0E99D42F0E89C45F0BE
:0106A2002235
:1006A300E8600FECC313FCED13FDEE13FEEF13FF35
:0306B300D8F12259
:1006B600E8600FEFC333FFEE33FEED33FDEC33FCA2
:0306C600D8F12246
:0C06C900ECF0A3EDF0A3EEF0A3EFF022A4
:1006D500A8828583F0D083D0821206EC1206EC1234
:1006E50006EC1206ECE473E493A3C583C5F0C58359
:1006F500C8C582C8F0A3C583C5F0C583C8C582C86F
:0107050022D1
:0C070600A42582F582E5F03583F58322FE
:10071200D083D082F8E4937012740193700DA3A376
:1007220093F8740193F5828883E47374029368608A
:06073200EFA3A3A380DF8A
:10073800D083D082F8E4937012740193700DA3A350
:1007480093F8740193F5828883E473740293B5F087
:0D075800067403936860E9A3A3A3A380D8EF
:00000001FF
