:1039C700C2AF53D7F91237FA123DCE123E59123E03
:1039D700FE123E03123EDB1200007F72123D95126B
:1039E7000003E490042EF0A3F0900432F0A3F090CB
:1039F7000436F0A3F090043AF0A3F0D2AF780CF6B7
:103A070090040204F0A3F0A37403F0A374B9F0A325
:103A1700740BF07B007A00790C7F58123E307B01E3
:103A27007A027969121B2B7B017A04792E1235638E
:103A37007B017A04793612124B7B017A04793A12A8
:0E3A47000EBF7B017A04792A122B6280D122F5
:103563009003FAEBF0A3EAF0A3E9F0E4900421F06E
:103573009003FD04F01204F1FFAEF0E5F07076EF76
:1035830024AA601F2456706D9003FAE0FBA3E0FAAF
:10359300A3E0F9900002E4F5F0120573E475F05628
:1035A3001205549003FAE0FBA3E0FAA3E0F99000BC
:1035B3000212051CC3940FE5F094004003D380016D
:1035C300C340037F00229004027401F0A3F0A374AC
:1035D30003F0A374B9F0A3740BF07B007A00790CA9
:1035E3007F58123E30900423E004F07006900422CA
:1035F300E004F08093E49003FDF09003FAE0FBA372
:0D360300E0FAA3E0F9E4F5F01205547F03AE
:013610002297
:03001B00023D069D
:103D0600C0E0C083C082758D8A758BD0900431E087
:103D160004F07006900430E004F0900439E004F0FA
:103D26007006900438E004F090026CE004F070062F
:103D360090026BE004F090042DE004F0700690040D
:0B3D46002CE004F0D082D083D0E032EB
:103EDB00759E82759D2D759852D2ACC299C298D29F
:023EEB00BC22F7
:103E030075D10075D20075E60043D28043D22043BA
:103E1300D20753E6F043E6401238977F03123F1967
:0D3E23007F647E00123E9FD2AE43D120226C
:0300330002292976
:10292900C0E0C0F0C083C082C0D0EEC0E0EFC0E01C
:10293900E5E65403900271F0E0FF75F026A42493B4
:10294900F582E43402F583E0900272F0EF75F02627
:10295900A42473F582E43402F583C083C082900213
:1029690072E0FFD082D08375F00412060FE4F09074
:102979000271E0FE75F026A42474F582E43402F5B0
:102989008375F004EF12060FE5DBF0EE75F026A46F
:102999002475F582E43402F583C083C08290027203
:1029A900E0FFD082D08375F00412060FE5DAF090CB
:1029B9000271E0FE75F026A42476F582E43402F56E
:1029C9008375F004EF12060FE5D9F0900272E00466
:1029D9005407FFEE75F026A42493F582E43402F53A
:1029E90083EFF0900271E0FF75F026A42498F58238
:1029F900E43402F5837401F0EF045403FFE5E6546F
:102A0900F04FF5E6E5E6540775F019A4240EF582B2
:102A1900E43403F583E064075407FFE5D254F84F23
:102A2900F5D2E5E6540775F019A4240FF582E434CC
:082A390003F583E0F5D4C2DFD0
:102A4100D0E0FFD0E0FED0D0D082D083D0F0D0E073
:012A51003252
:073F190053D1F8EF42D12261
:103E9F00CBEFCBCAEECAE4F9F87F557E05FDFC12D5
:053EAF003D518FD422FB
:10389700E49003FAF0A3F09003FAF09003FAE0FF44
:1038A700C39404400302392EEF75F026A42493F540
:1038B70082E43402F583E4F0EF75F026A42496F54C
:1038C70082E43402F583E4F0EF75F026A42497F53B
:1038D70082E43402F5837420F0EF75F026A424986F
:1038E700F582E43402F583E4F09003FBF09003FBE8
:1038F700E0FFC3940850279003FAE075F026A4244C
:1039070073F582E43402F58375F004EF12060F12A3
:1039170005DE000000009003FBE004F080CF900379
:07392700FAE004F00238A2EF
:01392E002276
:08314E00900411ECF0A3EDF078
:10315600E4900415F0A3F0A3F0900411E0FEA3E0C0
:10316600FF900414E02F900413E03EC3940440043F
:10317600E4FEFF22E4900415F0A3F0900411E0FEB3
:10318600A3E0FFC3900416E09F900415E09E400361
:10319600023228A2AFE433900417F0C2AF900415B0
:1031A600E0FEA3E07802C333CE33CED8F9FFF58232
:1031B6008E8312046FF5BC8F828E83A312046FF583
:1031C600BD900415E0FEA3E07802C333CE33CED81B
:1031D600F9FFF5828E83A3A312046FF5BE8F828E4C
:1031E60083A3A3A312046FF5BF900413E0FEA3E02C
:1031F600FF8EC78FC675B90575B902900417E0240E
:10320600FF92AF900414E004F07006900413E004FB
:10321600F0900416E004F07006900415E004F00245
:0A3226003181900415E0FEA3E0FFE3
:01323000227B
:08323100900407ECF0A3EDF09E
:10323900E490040BF0A3F0A3F0900407E0FEA3E0F0
:10324900FF90040AE02F900409E03EC3940440046F
:10325900E4FEFF22E490040BF0A3F0900407E0FEE3
:10326900A3E0FFC390040CE09F90040BE09E400391
:10327900023307A2AFE43390040DF0C2AF90040902
:10328900E0FEA3E0FF8EC78FC675B901A3E0FCA3DA
:10329900E0FDCEECCE7802C333CE33CED8F9FFF5BC
:1032A900828E83E5BC1204CF8F828E83A3E5BD1283
:1032B90004CFEDCEECCE7802C333CE33CED8F9FFAE
:1032C900F5828E83A3A3E5BE1204CF8F828E83A3DA
:1032D900A3A3E5BF1204CF90040DE024FF92AF90A1
:1032E900040AE004F07006900409E004F090040C6C
:1032F900E004F0700690040BE004F00232649004DC
:063309000BE0FEA3E0FF53
:01330F00229B
:103D9500E4FE8F0AD2C0850AC0EE75F003A424198B
:103DA500F582E43404F583E4F0A3F0EE75F003A4A2
:103DB5002418F582E43404F5837401F00EEEB4069C
:083DC500D8E490042AF0A3F0F9
:013DCD0022D3
:0A3F0F00C2AFD2C0850AC0D2AF22B3
:0B2B62009003FAEBF0A3EAF0A3E9F007
:092B6D00E4A3F0A3F090041EF0B3
:102B76009003FF04F09003FAE0FBA3E0FAA3E0F968
:102B86001204F1FFAEF0E5F06003022C56EF24C309
:102B96006022243D6003022C569003FAE0FBA3E07A
:102BA600FAA3E0F9900002E4F5F0120573E475F07B
:102BB6003D1205549003FAE0FBA3E0FAA3E0F99076
:102BC600000212051CC39464E5F094004003D38010
:102BD60001C340037F0022E49003FEF0900420E04E
:102BE60004F0700690041FE004F0E49003FDF090FA
:102BF60003FDE075F003A42418F582E43404F5839C
:102C0600E0FF9003FDE075F003A42419F582E43497
:102C160004F583E0FEA3E04F4E70079003FE04F038
:102C2600801F9003FDE075F003A42419F582E434B7
:102C360004F583E4F0A3F09003FDE004F0E0B406AD
:102C4600AE9003FEE06003022B9F123F0F022B9F04
:102C5600E49003FFF09003FAE0FBA3E0FAA3E0F9A7
:082C6600E4F5F01205547F03B0
:012C6E002243
:10185D005400013C3C7555534F5F323E3E00000035
:10186D0000000000000000602800153C2D2D2047D1
:10187D00454F5350484552415F32303132202D2D66
:10188D003E0000000000000000000000000000000D
:10189D0000000048003D3030303031000000410084
:1018AD0045014100461401120041004A00610E003D
:1018BD004B000000000000000000000000000000D0
:1018CD00000000000000000000000000000000000B
:1018DD0000000000000000000000000000000000FB
:1018ED0000000000000000000000000000000000EB
:1018FD0000000000000000000000000000000000DB
:10190D0000000000000000000000000000000000CA
:10191D0000000000000000000000000000000000BA
:10192D0000000000000000000000000000000000AA
:10193D00000000000000000000000000000000009A
:10194D00000000000000000000000000000000008A
:10195D00000000000000000000000000000000007A
:10196D00000000000000000000000000000000006A
:10197D00000000000000000000000000000000005A
:10198D00000000000000000000000000000000004A
:10199D00000000000000000000000000000000003A
:1019AD00000000000000000000000000000000002A
:1019BD0000000000000000000000000000000061B9
:1019CD000E015900000000000000000000000000A2
:1019DD0000000000000000000000000000000000FA
:1019ED0000000000000000000000000000000000EA
:1019FD0000000000000000000000000000000000DA
:101A0D0000000000000000000000000000000000C9
:101A1D0000000000000000000000000000000000B9
:101A2D0000000000000000000000000000000000A9
:101A3D000000000000000000000000000000000099
:101A4D000000000000000000000000000000000089
:101A5D000000000000000000000000000000000079
:101A6D000000000000000000000000000000000069
:101A7D000000000000000000000000000000000059
:101A8D000000000000000000000000000000000049
:101A9D000000000000000000000000000000000039
:101AAD000000000000000000000000000000000029
:101ABD000000000000000000000000000000000019
:101ACD000000000000000000000000000000000009
:101ADD0000410267C00114FF41026800410000008F
:03002300021D7A41
:101D7A00C0E0C083C082C0D0E8C0E0EEC0E0EFC0DF
:101D8A00E0C2AF209803021EF6C298900047E0D343
:101D9A00940E74809481400A900269E4F0A3F002E0
:101DAA001F767814A699900418E4F0E67003021ED0
:101DBA006824D8606914602624526003021E8D7854
:101DCA0014E6FF900047E0244BF582E43400F583E3
:101DDA00EFF0900047E004F0187601021EA978138C
:101DEA00E6B4011A90004BE4F0A374D7F0A3742967
:101DFA00F09000477403F0900268E4F080197814B8
:101E0A00E6FF900047E0244BF582E43400F583EFC7
:101E1A00F0900047E004F078137600021EA97813C8
:101E2A00E6B4011B90004BE4F0A374D7F0A3742826
:101E3A00F09000477403F09002687401F0801978FA
:101E4A0014E6FF900047E0244BF582E43400F58362
:101E5A00EFF0900047E004F07813760080417813A1
:101E6A00E6B40104760080377814E6FF900047E074
:101E7A00244BF582E43400F583EFF0900047E00448
:101E8A00F0801C7814E6FF900047E0244BF582E4CA
:101E9A003400F583EFF0900047E004F018760090E4
:101EAA000047E0D39406402090004AE02406FFE46D
:101EBA0033FE900047E06F7001EE703078127601C1
:101ECA00C2ACC29C08F68024900047E0B4061DE02C
:101EDA00244AF582E43400F583E090004AF0900247
:101EEA0068E0B4010790004AE0541FF030997BC2C1
:101EFA0099900049E0FF900048E0C39F505EE0C31C
:101F0A0094034007900268E0B40118900048E02466
:101F1A0059F582E43401F583E0F599900048E0042C
:101F2A00F080477813E6702B900048E02459F58238
:101F3A00E43401F583E0B4D7027601900048E02446
:101F4A0059F582E43401F583E0F599900048E004FC
:101F5A00F0801775990078137600800E900048E497
:101F6A00F07813F6900269F0A3F0D2AFD0E0FFD078
:0E1F7A00E0FED0E0F8D0D0D082D083D0E032AC
:103E5900C299C298122F78E4900047F0A3F0A3F01A
:103E6900C2B57813F690026774C0F0E4900269F065
:033E7900A3F02291
:10228100E4FF900159F0A374D7F0A37429F09000F2
:1022910045E090015CF0A37402F0900267E09001C8
:1022A1005FF0E4EFC39414501A74012FF582E43403
:1022B10000F583E0FE74602FF582E43401F583EECE
:1022C100F0800C74602FF582E43401F583E4F00FA3
:1022D100EFB414CFE4FFEFC394085018743D2FF509
:1022E10082E43400F583E0FE74742FF582E4340156
:1022F100F583EEF00FEFB405DD9003A1E0900179D5
:10230100F0E4FF9003A1E0FEEFC39E504AEF75F0A9
:1023110019A4240CF582E43403F583E0FEC454F0DF
:10232100FEEF75F019A4240DF582E43403F583E082
:102331004EFE75F002EFA4247AF582E5F03401F542
:1023410083EEF075F002EFA4247BF582E5F0340111
:10235100F583E4F00F80ACE4FF900046E0FEEFC3AC
:102361009E502D74152FF582E43400F583E0FE9024
:1023710003A1E075F002A42FF582E435F0F583E5C1
:1023810082247AF582E5833401F583EEF00F80C96A
:102391009003A1E025E0FD241CFF900046E02F9072
:1023A100015EF07E017F5AED2420FD900046E02D74
:1023B100FD123E7C900046E0FE9003A1E0FD75F029
:1023C10002A42EF582E435F0F583E582247AF582C4
:1023D100E5833401F583EFF0ED25E02422FF900041
:0423E10046E02FFFA4
:0123E50022D5
:03001E007F00223E
:033F20007F0022FD
:033F23007F0022FA
:10254A00E4FF9003FAF0900050E014FEEFC39E40BF
:10255A000302269374512FF582E43400F583E0FEDA
:10256A009003A1E0FDEEC39D400302268D74522F15
:10257A00F582E43400F583E0FEC4540F60030226BA
:10258A008674512FF582E43400F583E075F019A4BE
:10259A00240DF582E43403F583E0FE74522FF582AC
:1025AA00E43400F583E0FDEE6D705474512FF5822A
:1025BA00E43400F583E075F019A4240EF582E434BE
:1025CA0003F583E0FE74532FF582E43400F583E0CB
:1025DA00FDEE6D702A74512FF582E43400F583E024
:1025EA0075F019A4240FF582E43403F583E0FE7430
:1025FA00542FF582E43400F583E0FDEE6D607A74C1
:10260A00532FF582E43400F583E0FE74512FF582EE
:10261A00E43400F583E075F019A4240EF582E4345D
:10262A0003F583EEF074542FF582E43400F583E069
:10263A00FE74512FF582E43400F583E075F019A495
:10264A00240FF582E43403F583EEF074522FF582F9
:10265A00E43400F583E0540FFE74512FF582E4341C
:10266A0000F583E075F019A4240DF582E43403F52E
:10267A0083EEF09003FA7401F00F8001000F0F0F40
:10268A000225507F01123BAE229003FAE06003124A
:07269A003B43E4FF123BAEDD
:0126A1002216
:033F26007F0022F7
:033F29007F0022F4
:033F2C007F0022F1
:033F2F007F0022EE
:103EC8009002677440F0780C7612123DCEE4FF122F
:033ED8003BAE22DC
:10073C00E4F508F509900159F0A374D7F0A37429D6
:10074C00F0900045E090015CF0A37415F090026706
:10075C00E090015FF0750807E4F5099003A1E0FF54
:10076C00E509C39F4003020AF8AF08050874592F26
:10077C00F582E43401F583E509F075F019A4240C35
:10078C00F582E43403F583E0C454F0FFE50975F019
:10079C0019A4240DF582E43403F583E04FFFAE0871
:1007AC00050874592EF582E43401F583EFF0E50960
:1007BC0075F019A4240CF582E43403F583E014706D
:1007CC000302097D147003020A2624026003020A44
:1007DC00F3E50975F019A4240DF582E43403F583CF
:1007EC00E024FD700302088424036003020AF3E58D
:1007FC000975F019A42418F582E43403F583E06438
:10080C00017030E50975F019A42416F582E434035F
:10081C00F583E0FFAE08050874592EF582E4340127
:10082C00F583EFF0E50975F019A42415F582E4348D
:10083C0003802EE50975F019A42412F582E4340323
:10084C00F583E0FFAE08050874592EF582E43401F7
:10085C00F583EFF0E50975F019A42411F582E43461
:10086C0003F583E0FFAE08050874592EF582E434D5
:10087C0001F583EFF002094CE50975F019A4241871
:10088C00F582E43403F583E064017051E50975F0F9
:10089C0019A42417F582E43403F583E0FFAE0805B0
:1008AC000874592EF582E43401F583EFF0E50975EF
:1008BC00F019A42416F582E43403F583E0FFAE08A6
:1008CC00050874592EF582E43401F583EFF0E5093F
:1008DC0075F019A42415F582E43403804FE50975ED
:1008EC00F019A42413F582E43403F583E0FFAE0879
:1008FC00050874592EF582E43401F583EFF0E5090F
:10090C0075F019A42412F582E43403F583E0FFAEEC
:10091C0008050874592EF582E43401F583EFF0E5EF
:10092C000975F019A42411F582E43403F583E0FF72
:10093C00AE08050874592EF582E43401F583EFF006
:10094C00E50975F019A4240EF582E43403F583E06F
:10095C00FFAE08050874592EF582E43401F583EFD7
:10096C00F0E50975F019A4240FF582E43403020AAA
:10097C00DFE50975F019A4240DF582E43403F58341
:10098C00E06003020AF3E50975F019A42413F5825B
:10099C00E43403F583E0FFAE08050874592EF582A4
:1009AC00E43401F583EFF0E50975F019A42412F590
:1009BC0082E43403F583E0FFAE08050874592EF584
:1009CC0082E43401F583EFF0E50975F019A42411E4
:1009DC00F582E43403F583E0FFAE08050874592E64
:1009EC00F582E43401F583EFF0E50975F019A424E0
:1009FC0010F582E43403F583E0FFAE080508745962
:100A0C002EF582E43401F583EFF0E50975F019A4B5
:100A1C00240EF582E43403020ADFE50975F019A40B
:100A2C00240DF582E43403F583E01460570460036D
:100A3C00020AF3E50975F019A42413F582E43403D2
:100A4C00F583E0FFAE08050874592EF582E43401F5
:100A5C00F583EFF0E50975F019A42412F582E4345E
:100A6C0003F583E0FFAE08050874592EF582E434D3
:100A7C0001F583EFF0E50975F019A4240EF582E475
:100A8C003403804FE50975F019A42413F582E4347E
:100A9C0003F583E0FFAE08050874592EF582E434A3
:100AAC0001F583EFF0E50975F019A42412F582E441
:100ABC003403F583E0FFAE08050874592EF582E483
:100ACC003401F583EFF0E50975F019A4240EF582D5
:100ADC00E43403F583E0FFAE08050874592EF58263
:100AEC00E43401F583EFF00509020767E50824FB00
:100AFC0090015EF07E017F5AE50814FD123E7C7475
:100B0C00592508F582E43401F583EFF0E50804FF7C
:010B1C0022B6
:10306900900056E0FF90026DEFF0900055E0FF9060
:10307900026EEFF0900054E0FF90026FEFF09000C5
:1030890053E0FF900270EFF090026DE0FCA3E0FDC9
:10309900A3E0FEA3E0FF90044B1205D290005AE092
:1030A900FF90026DEFF0900059E0FF90026EEFF093
:1030B900900058E0FF90026FEFF0900057E0FF900A
:1030C9000270EFF090026DE0FCA3E0FDA3E0FEA327
:1030D900E0FF90044F1205D2900052E0FFEF120674
:1030E9001B30F700312F01313B02000031479000BE
:1030F90051E0FFEFC0E090044BE0FCA3E0FDA3E04A
:10310900FEA3E0FF9003FB1205D290044FE0FCA35D
:10311900E0FDA3E0FEA3E0FF9003FF1205D2D0E09B
:10312900FF1236BD8019900051E0FF7D001233E88F
:10313900800D900051E0FF7D011233E88001007F8E
:0431490000123BAE87
:01314D00225F
:102D7600750B00900159E4F090015A74D7F0900158
:102D86005B7429F0900045E0FF90015CEFF0900144
:102D96005D74CCF090015E740BF0900051E0FF8FF3
:102DA6000B9003A1E0FFE50BC39F40067F09123B92
:102DB600AE2290015FE50BF0AF0BEF75F019A4247E
:102DC60018F582E43403F583E0FF900160EFF0AF7D
:102DD6000BEF75F019A42419F582E43403F583E0AA
:102DE600FCA3E0FDA3E0FEA3E0FF90026D1205D276
:102DF60090026DE0FF900164EFF090026EE0FF90AC
:102E06000163EFF090026FE0FF900162EFF0900235
:102E160070E0FF900161EFF0AF0BEF75F019A4249D
:102E26001DF582E43403F583E0FCA3E0FDA3E0FE98
:102E3600A3E0FF90026D1205D290026DE0FF9001B3
:102E460068EFF090026EE0FF900167EFF090026F7E
:102E5600E0FF900166EFF0900270E0FF900165EFF1
:102E6600F07E017F5A7D0F123E7C900169EFF07F64
:012E7600114A
:012E77002238
:103A550090046AE4F0900050E0FFEF24E5FF900445
:103A65006AEFF090046AE0FFEF6054900051E0FFC8
:103A75007B017A007952EBC0E0EAC0E0E9C0E07B67
:103A8500017A007966900442EBF0A3EAF0A3E9F02D
:103A95007B017A00796B900445EBF0A3EAF0A3E98A
:103AA500F090046AE0FE900448EEF0D0E0F9D0E032
:103AB500FAD0E0FB121F887F00123BAE2280067F02
:073AC50009123BAE227F0055
:013ACC0022D7
:0C002600123310123CB97F00123BAE22D6
:103BAE0090046BEFF0900159E4F090015A74D7F045
:103BBE0090015B7429F0900045E0FF90015CEFF0FE
:103BCE0090004FE0FF900160EFF090015D74FFF008
:103BDE00900267E0FF90015FEFF090046BE0FF90C2
:103BEE000161EFF090015E7404F07E017F597D0952
:0B3BFE00123E7C900162EFF07F0A2273
:0D3ACD00900459EEF0A3EFF090045BEDF0D3
:103ADA0090045CE4F090045DE4F090045DE4F090FE
:103AEA00045BE0FF90045DE0FEEEC39F5036C2D750
:103AFA0090045DE0FF900459E0FCA3E0FD8D828C08
:103B0A0083E5822FF582E43583F583E0FF90045C38
:103B1A00E02FF030D70690045CE004F090045DE0FA
:103B2A0004F080BB90045CE0FFC374FF9FFF900425
:083B3A005CEFF090045CE0FF79
:013B42002260
:10157700900462E4F0900463E4F090004FE0FFEF22
:10158700131313541FFFEF541FFF900462EFF090E3
:101597000462E0FFEFC39406400302185A90015912
:1015A700E4F090015A74D7F090015B7428F0900131
:1015B7005CE4F090004FE0FF90015DEFF090015E7A
:1015C7007403F0900462E0FFEF75F019A4240CF5A2
:1015D70082E43403F583E0FFEF12061B15F00017D2
:1015E7003D0117970200001824900462E0FFEF7591
:1015F700F019A4240DF582E43403F583E0FFEF121C
:10160700061B161300169A0300001824900462E0C4
:10161700FFEF75F019A42418F582E43403F583E08D
:10162700FFEFB40137900462E0FFEF75F019A424CF
:1016370015F582E43403F583E0FF90015FEFF09046
:101647000462E0FFEF75F019A42416F582E4340371
:10165700F583E0FF900160EFF0021824900462E048
:10166700FFEF75F019A42411F582E43403F583E044
:10167700FF90015FEFF0900462E0FFEF75F019A4AF
:101687002412F582E43403F583E0FF900160EFF064
:10169700021824900462E0FFEF75F019A42418F5EE
:1016A70082E43403F583E0FFEF6401704F90046236
:1016B700E0FFEF75F019A42415F582E43403F583F0
:1016C700E0FF900462E0FE74592EF582E43401F5E0
:1016D70083EFF0900462E0FFEF75F019A42416F58C
:1016E70082E43403F583E0FF900462E0FE74592E30
:1016F700F582E43401F583EFF0021824900462E0E8
:10170700FFEF75F019A42411F582E43403F583E0A3
:10171700FF90015FEFF0900462E0FFEF75F019A40E
:101727002412F582E43403F583E0FF900160EFF0C3
:10173700021824021824900462E0FFEF75F019A440
:10174700240DF582E43403F583E0FFEF12061B173F
:101757005D0000001824900462E0FFEF75F019A403
:101767002412F582E43403F583E0FF90015FEFF084
:10177700900462E0FFEF75F019A42413F582E434B6
:1017870003F583E0FF900160EFF0021824021824AC
:10179700900462E0FFEF75F019A4240DF582E4349C
:1017A70003F583E0FFEF12061B17BA0017F00100DD
:1017B700001824900462E0FFEF75F019A42412F5D5
:1017C70082E43403F583E0FF90015FEFF090046259
:1017D700E0FFEF75F019A42413F582E43403F583D1
:1017E700E0FF900160EFF08034900462E0FFEF7556
:1017F700F019A42412F582E43403F583E0FF900185
:101807005FEFF0900462E0FFEF75F019A42413F581
:1018170082E43403F583E0FF900160EFF07B017A07
:101827000179597D08122C6F900463EFF07E017FD8
:1018370059900463E0FD123ACD900463E0FE7459B9
:101847002EF582E43401F583EFF0900463E0FFEFB7
:0518570004FF227F00E8
:01185C002269
:100B1D00900464E4F0900465E4F090004FE0FFEF82
:100B2D00131313541FFFEF541FFF900464EFF09045
:100B3D000464E0FFEFC394064003020EBC9001591C
:100B4D00E4F090015A74D7F090015B7428F0900195
:100B5D005CE4F090004FE0FF90015DEFF090015EDE
:100B6D007406F0900464E0FFEF75F019A4240CF501
:100B7D0082E43403F583E0FFEF12061B0B96000DA4
:100B8D0036010DE80200000E80900464E0FFEF7561
:100B9D00F019A4240DF582E43403F583E0FFEF1280
:100BAD00061B0BB9000C400300000CDC900464E044
:100BBD00FFEF75F019A42418F582E43403F583E0F2
:100BCD00FFEFB40137900464E0FFEF75F019A42432
:100BDD0015F582E43403F583E0FF90015FEFF090AB
:100BED000464E0FFEF75F019A42416F582E43403D4
:100BFD00F583E0FF900160EFF0020CDC900464E0FF
:100C0D00FFEF75F019A42411F582E43403F583E0A8
:100C1D00FF90015FEFF0900464E0FFEF75F019A411
:100C2D002412F582E43403F583E0FF900160EFF0C8
:100C3D00020CDC900464E0FFEF75F019A42418F5A4
:100C4D0082E43403F583E0FFEF6401704E90046499
:100C5D00E0FFEF75F019A42415F582E43403F58354
:100C6D00E0FF900464E0FE74592EF582E43401F542
:100C7D0083EFF0900464E0FFEF75F019A42416F5EE
:100C8D0082E43403F583E0FF900464E0FE74592E92
:100C9D00F582E43401F583EFF08034900464E0FFD5
:100CAD00EF75F019A42411F582E43403F583E0FF08
:100CBD0090015FEFF0900464E0FFEF75F019A4244C
:100CCD0012F582E43403F583E0FF900160EFF090BC
:100CDD000464E0FFEF75F019A4240EF582E43403EB
:100CED00F583E0FFEF5407FFEF12061B0D09000D12
:100CFD0010010D18050D200700000D28900161E46D
:100D0D00F0801D9001617402F080159001617404F2
:100D1D00F0800D9001617406F08005900161E4F0A2
:100D2D00900162740AF0020E80900464E0FFEF758A
:100D3D00F019A4240DF582E43403F583E0FFEF12DE
:100D4D00061B0D560000000E80900464E0FFEF7549
:100D5D00F019A42412F582E43403F583E0FF900129
:100D6D005FEFF0900464E0FFEF75F019A42413F524
:100D7D0082E43403F583E0FF900160EFF0900464AA
:100D8D00E0FFEF75F019A4240EF582E43403F5832A
:100D9D00E0FFEF5407FFEF12061B0DB7000DBF016B
:100DAD000DC7050DCF0700000DD79001617440F000
:100DBD00801E9001617442F080169001617444F0C0
:100DCD00800E9001617446F080069001617440F0D0
:100DDD00900162E4F0020E80020E80900464E0FF48
:100DED00EF75F019A4240DF582E43403F583E0FFCB
:100DFD00EF12061B0E0B000E410100000E75900444
:100E0D0064E0FFEF75F019A42412F582E43403F5C4
:100E1D0083E0FF90015FEFF0900464E0FFEF75F069
:100E2D0019A42413F582E43403F583E0FF900160E7
:100E3D00EFF08034900464E0FFEF75F019A42412F4
:100E4D00F582E43403F583E0FF90015FEFF0900449
:100E5D0064E0FFEF75F019A42413F582E43403F573
:100E6D0083E0FF900160EFF09001617440F090011C
:100E7D0062E4F090016374FFF07B017A0179597D92
:100E8D000B122C6F900465EFF07E017F5990046575
:100E9D00E0FD123ACD900465E0FE74592EF582E422
:100EAD003401F583EFF0900465E0FFEF04FF227F3E
:010EBD000034
:010EBE002211
:10211100900466E4F0900467E4F090004FE0FFEF74
:10212100131313541FFFEF541FFF900466EFF09039
:102131000466E0FFEFC39406400302227E9001593A
:10214100E4F090015A74D7F090015B7428F090018B
:102151005CE4F090004FE0FF90015DEFF090015ED4
:102161007403F0900466E0FFEF75F019A4240CF5F8
:1021710082E43403F583E0FFEF12061B218A00217C
:10218100E301223D0200002248900466E0FFEF7562
:10219100F019A4240EF582E43403F583E0FFEF5433
:1021A10007FFEF12061B21B70021BE0121C6052141
:1021B100CE07000021D690015FE4F0801D90015F01
:1021C1007402F0801590015F7404F0800D90015F3E
:1021D1007406F0800590015FE4F0900160740AF0EC
:1021E1008065900466E0FFEF75F019A4240EF58276
:1021F100E43403F583E0FFEF5407FFEF12061B22DF
:102201001000221801222005222807000022309008
:10221100015F7440F0801E90015F7442F08016905F
:10222100015F7444F0800E90015F7446F080069067
:10223100015F7440F0900160E4F0800B90015F74E5
:1022410040F0900160E4F07B017A0179597D081238
:102251002C6F900467EFF07E017F59900467E0FDD9
:10226100123ACD900467E0FE74592EF582E43401F0
:0F227100F583EFF0900467E0FFEF04FF227F009A
:01228000223B
:033F32007F0022EB
:1023E60090046CE4F090004FE0FFEF131313541FBA
:1023F600FFEF541FFF90046CEFF090046CE0FFEFCA
:10240600C394064003022547900051E0FFEFC31333
:10241600FFEF5403FFEF12061B242F00246801244C
:10242600A10224D9030000251190046CE0FFEF758A
:10243600F019A4240EF582E43403F583E0FFEF548B
:10244600F0FFEFF090046CE0FFEF75F019A4240E96
:10245600F582E43403F583E0FFEF4400FFEFF0027A
:10246600254790046CE0FFEF75F019A4240EF58261
:10247600E43403F583E0FFEF54F0FFEFF090046CD3
:10248600E0FFEF75F019A4240EF582E43403F5831A
:10249600E0FFEF4401FFEFF002254790046CE0FFF8
:1024A600EF75F019A4240EF582E43403F583E0FFFA
:1024B600EF54F0FFEFF090046CE0FFEF75F019A415
:1024C600240EF582E43403F583E0FFEF4405FFEFC5
:1024D600F0806E90046CE0FFEF75F019A4240EF501
:1024E60082E43403F583E0FFEF54F0FFEFF090044D
:1024F6006CE0FFEF75F019A4240EF582E43403F5C1
:1025060083E0FFEF4407FFEFF0803690046CE0FFB6
:10251600EF75F019A4240EF582E43403F583E0FF89
:10252600EF54F0FFEFF090046CE0FFEF75F019A4A4
:10253600240EF582E43403F583E0FFEF4400FFEF59
:03254600F07F0023
:01254900226F
:102C6F00900453EBF0A3EAF0A3E9F0900456EDF0D3
:102C7F00900457E4F0900458E4F09004577403F074
:102C8F00900456E0FF900457E0FEEEC39F4003020E
:102C9F002D70900453E0FBA3E0FAA3E0F9900457E2
:102CAF00E0FF8F8275830012046FFFEF64D760031C
:102CBF00022D67900456E0FFEF14FF900458EFF0D9
:102CCF00900457E0FF900458E0FEEED39F404590EC
:102CDF000453E0FBA3E0FAA3E0F9900458E0FF8F60
:102CEF008275830012046FFF900458E0FEEEFD7CA6
:102CFF0000ED2401FDEC3400FC900453E0FBA3E055
:102D0F00FAA3E0F98D828C83EF1204CF900458E080
:102D1F0014F080AC900457E0FF7E00EF2401FFEE2B
:102D2F003400FE900453E0FBA3E0FAA3E0F98F8296
:102D3F008E83E41204CF900453E0FBA3E0FAA3E0E8
:102D4F00F9758205758300740112049C900456E096
:102D5F0004F0900457E004F0900457E004F0022CC4
:062D6F008F900456E0FF06
:012D7500223B
:1027F300900268E0FFEF60030228D6900421744042
:10280300F0900422740AF090004FE0FFEF12061BD1
:10281300284401284D03285605285F0728680928FE
:10282300710A287A0C28830E288C10289512289E6A
:102833001428B0CA28C2CB28A7CD28B9DF000028A6
:10284300CB122281900049EFF02212001E90004922
:10285300EFF022123F20900049EFF022123F239025
:102863000049EFF02212254A900049EFF022123F6F
:1028730026900049EFF022123F29900049EFF02201
:10288300123F2C900049EFF022123F2F900049EFA6
:10289300F022123EC8900049EFF02212073C90004C
:1028A30049EFF022123A55900049EFF022123069B5
:1028B300900049EFF022120026900049EFF0221217
:1028C3002D76900049EFF0227F06123BAE9000492F
:1028D300EFF022900050E0FFEFC4135407FFEF54D2
:1028E30007FFEF12061B28FC00290501290E022908
:1028F300170329200400002928123F32900049EFD2
:10290300F0221223E6900049EFF0221221119000E9
:1029130049EFF022121577900049EFF022120B1DB8
:06292300900049EFF022D4
:0B1B2B0090045EEBF0A3EAF0A3E9F0E9
:101B36009004617401F090045EE0FBA3E0FAA3E078
:101B4600F91204F1FFAEF0EF8EF01206411B6700AA
:101B5600001B9004E81CD705181D31051C00001D4C
:101B660060900047E4F0D29CC2B5D2AC90041874E1
:101B760001F0900461E4F090045EE0FBA3E0FAA3B8
:101B8600E0F9740475F0E8120554900461E0FFEF83
:101B960060077812E6FFEF70037F012290041AE0D7
:101BA60004F07006900419E004F0781276009002B2
:101BB60068E0FFEF7023900045E0FF90004EE0FEE6
:101BC600EE6F601590045EE0FBA3E0FAA3E0F9E493
:101BD60075F0001205547F0022900047E0FF744A1A
:101BE6002FF582E43400F583E0FF900000EFF090DB
:101BF6000268E0FFEF702F7E007F4B900047E0FD0C
:101C0600ED14FD123E7C900000E0FEEF6E60449005
:101C1600045EE0FBA3E0FAA3E0F9E475F000120528
:101C2600547F0022802D7E007F4B900047E0FDED23
:101C360014FD123ACD900000E0FEEF6E60159004A0
:101C46005EE0FBA3E0FAA3E0F9E475F000120554A8
:101C56007F00221227F3900049E0FFEF70189004EE
:101C66005EE0FBA3E0FAA3E0F9E475F00012055488
:101C76007F0022021B67D2B5C29C900048E4F07830
:101C8600137600900048E0FF74592FF582E4340182
:101C9600F583E0FF8F99900048E004F0D2AC900203
:101CA60068E0FFEF705A90045EE0FBA3E0FAA3E061
:101CB600F9758202758300E475F0001205739004CD
:101CC6005EE0FBA3E0FAA3E0F9740575F0181205CF
:101CD6005490045EE0FBA3E0FAA3E0F97582027576
:101CE600830012051CFFAEF0C3EF940AEE94004089
:101CF60003D38001C35003021B677F0022021B67C8
:101D060090045EE0FBA3E0FAA3E0F9758202758316
:101D160000E475F00012057390045EE0FBA3E0FAA0
:101D2600A3E0F9740575F01C12055490045EE0FBFF
:101D3600A3E0FAA3E0F975820275830012051CFF81
:101D4600AEF0C3EF9403EE94004003D38001C3507A
:101D560003021B677F0022021B67900461E4F09078
:101D6600045EE0FBA3E0FAA3E0F9E475F0001205D7
:031D7600547F0394
:011D79002247
:101F880090043EEFF090043FEBF0A3EAF0A3E9F0F1
:101F9800900449E4F0A3E4F07B017A04793E9004CC
:101FA80013E4F0A3742AF07D017C0012314E9004F2
:101FB8003FE0FBA3E0FAA3E0F9900413E4F0A37474
:101FC8002BF07D057C0012314E90043FE0FBA3E02E
:101FD800FAA3E0F9EBC0E0EAC0E0E9C0E07B017AEF
:101FE800007901C8E9C8CCEACCCDEBCDD0E0F9D076
:101FF800E0FAD0E0FB7E007F14120430900442E047
:10200800FBA3E0FAA3E0F9900413E4F0A37430F022
:102018007D027C0012314E900442E0FBA3E0FAA35B
:10202800E0F9EBC0E0EAC0E0E9C0E07B017A0079C2
:102038003DC8E9C8CCEACCCDEBCDD0E0F9D0E0FA88
:10204800D0E0FB7E007F08120430900448E0FFEFE8
:102058001313543FFF7E00900449EEF0A3EFF09075
:102068000448E0FFEF54FCFFEF600E90044AE004E0
:10207800F07006900449E004F0900449E0FEA3E003
:10208800FFD3EF940AEE94004009900449E4F0A3CA
:10209800740AF0900445E0FBA3E0FAA3E0F9900489
:1020A80049E0FCA3E0FD900413E4F0A37433F012BC
:1020B800314E900448E0FF900046EFF07B017A042F
:1020C8007948900413E4F0A37432F07D017C001287
:1020D800314E900448E0FF7E00900445E0FBA3E009
:1020E800FAA3E0F9EBC0E0EAC0E0E9C0E07B017ADE
:1020F800007915C8E9C8CCEACCCDEBCDD0E0F9D051
:08210800E0FAD0E0FB12043004
:0121100022AC
:102F7800900468E4F0A3E4F07B017A0079459004BA
:102F880009E4F0A3742AF07D017C0012323190002C
:102F980045E0FFEFC39401400B900045E0FFEFD3FD
:102FA800940F40069000457401F07B017A00790186
:102FB800900409E4F0A3742BF07D057C00123231F3
:102FC8007B017A00793D900409E4F0A37430F07D28
:102FD800027C001232317B017A007946900409E4C0
:102FE800F0A37432F07D017C00123231900046E08B
:102FF800FFEFD3942840069000467428F0900046CE
:10300800E0FFEF1313543FFF7E00900468EEF0A337
:10301800EFF0900046E0FFEF54FCFFEF600E9004E5
:1030280069E004F07006900468E004F0900468E039
:10303800FEA3E0FFD3EF940AEE94004009900468E1
:10304800E4F0A3740AF07B017A007915900468E033
:10305800FCA3E0FD900409E4F0A37433F0123231CC
:013068002245
:041AED004103A1060A
:103DCE00E49003FAF012392FE49003FAF09003FA1C
:103DDE00E0FFC39406501DEF75F019A42410F58270
:103DEE00E43403F5831205DE000000009003FAE0D0
:043DFE0004F080D974
:013E0200229D
:103B4300E4900404F0A31205DE00000000E49004F6
:103B530004F0900404E0FFC39406502BEF75F019B2
:103B6300A4240CF9740335F0FA7B01E02410FEE47D
:103B730033900413F0A3CEF07D017C0012314E90FC
:103B83000404E004F080CB123C09E4FCFDFE900445
:103B9300051205D27B017A047905900413E4F0A39E
:0A3BA30074A0F07D017C0012314E89
:013BAD0022F5
:10392F00E49003FBF0A31205DE00000000900400FA
:10393F001205DE00000000E49003FBF09003FBE0B3
:10394F00FFC39406502BEF75F019A4240CF97403E0
:10395F0035F0FA7B01E02410FEE433900409F0A364
:10396F00CEF07D017C001232319003FBE004F08039
:10397F00CB123C09E4FCFDFE9004001205D27B0142
:10398F007A0379FC900409E4F0A374A0F07D017C24
:10399F00001232319003FCE0FCA3E0FDA3E0FEA394
:1039AF00E0FFA3E0F8A3E0F9A3E0FAA3E0FBC31262
:0739BF0005AE600312331096
:0139C60022DE
:10331000E490030BF0A3F0A37403F0A37440F0A3B4
:103320007406F0A31205DE000000009003141205DD
:10333000DE000000009003247401F0E4A3F0A37405
:1033400003F0A37440F0A37406F0A31205DE00009E
:10335000000090032D1205DE0000000090033D7474
:1033600002F0E4A3F0A37403F0A37440F0A3740686
:10337000F0A31205DE000000009003461205DE00F7
:103380000000009003567403F0E4A3F0A37403F06C
:10339000A37440F0A37406F0A31205DE0000000041
:1033A00090035F1205DE0000000090036F7404F0CC
:1033B000A37402F0E4A3F0A37440F0A3740AF0A392
:1033C0001205DE000000009003887405F0A374026B
:1033D000F0E4A3F0A37440F0A3740AF0A31205DE96
:0833E00000000000123B432233
:103C0900E4900409F0A3F0A3F090040AF0E490040E
:103C19000BF090040AE075F019A4240CF97403352B
:103C2900F0FA7B01A3E07E0029F9EE3AFA12045674
:103C3900FF900409E06F902E7893900409F09004A6
:103C49000BE004F0E0B404CA90040AE004F0E0B424
:073C590006BB900409E0FF27
:013C60002241
:0300000002375D67
:10375D0043AF01787FE4F6D8FD9000007FFF7E80B7
:0D376D00E4F0A3DFFCDEFA7581140237B52D
:103EED005389F0438905758CFF758AFFD2A9D28C51
:013EFD0022A2
:103EB400D2ADE4F5C875CCFF75CDE775CAFF75CBF7
:043EC400E7D2CA2255
:101AF1004103A9004103AA004103AE124A03AF000A
:101B0100000000000000000000060C0000000000C2
:091B1100004103C4004103C500BA
:10000300D2EBE49003C6F0A3F09003CAF0A3F09000
:0600130003CEF0A3F02271
:103E3000EF25E054FE9003A8F0900402E09003A95F
:103E4000F0900406E09003AAF0A3EBF0A3EAF0A33D
:093E5000E9F09003C47401F022B2
:100EBF009003FAEBF0A3EAF0A3E9F0E4900427F033
:100ECF009003FD04F01204F1FFAEF0E5F0600302B1
:100EDF001232EF12061B0F13000F254C0F50570F36
:100EEF00745D0FC56610027110537810948510BF92
:100EFF008B111093114D9B11A3A211E4AE1208B3E5
:100F0F00000012329003FAE0FBA3E0FAA3E0F9E449
:100F1F0075F04C1205549003C4E07002FF22E49068
:100F2F0003C4F0D2EEC2EDD2EFD2ED9003FDF090FC
:100F3F0003FAE0FBA3E0FAA3E0F9E475F05712051A
:100F4F00549003FDE070037F0122C2EFE49003CAC7
:100F5F00F0A3F09003FAE0FBA3E0FAA3E0F9E47545
:100F6F00F05D1205547A0379A89004017401F0A37F
:100F7F007403F0A374A8F0A37401F0FB7A0379CA89
:100F8F001226A2C3EF6480948250028001C35003E3
:100F9F007F00229003C5E06041C2EDC2EFD2EDE4C5
:100FAF009003FDF09003FAE0FBA3E0FAA3E0F9E46D
:100FBF0075F0661205549003FDE070037F0122D295
:100FCF00EFE49003C5F09003FAE0FBA3E0FAA3E08F
:100FDF00F9E4F5F01205547F0022E49003CAF0A360
:100FEF00F09003FAE0FBA3E0FAA3E0F9E475F071E7
:100FFF00120554900401E4F0A37400F0A3740CF0F4
:10100F009003A9E0900404F07B017A0379CA1226B9
:10101F00A2C3EF6480948250028001C350037F000B
:10102F00229003C5E06041C2EDC2EFD2EDE4900320
:10103F00FDF09003FAE0FBA3E0FAA3E0F9E475F00A
:10104F00781205549003FDE070037F0122D2EFE484
:10105F009003C5F09003FAE0FBA3E0FAA3E0F9E4F4
:10106F00F5F01205547F0022C2EDD2EFD2EDE490DD
:10107F0003FDF09003FAE0FBA3E0FAA3E0F9E475B7
:10108F00F0851205549003FDE070037F0122C2EF3B
:10109F009003A8E04401F0E49003CAF0A3F090039A
:1010AF00FAE0FBA3E0FAA3E0F9E475F08B12055424
:1010BF007A0379A89004017401F0A37403F0A37468
:1010CF00A8F0A37401F0FB7A0379CA1226A2C3EF2A
:1010DF006480948250028001C350037F00229003EA
:1010EF00C5E06041C2EDC2EFD2EDE49003FDF09098
:1010FF0003FAE0FBA3E0FAA3E0F9E475F09312051D
:10110F00549003FDE070037F0122D2EFE49003C5FA
:10111F00F09003FAE0FBA3E0FAA3E0F9E4F5F01294
:10112F0005547F0022E49003C6F0A3F09003FAE089
:10113F00FBA3E0FAA3E0F9E475F09B1205547A03E0
:10114F0079B99004017401F0A37403F0A374B9F09A
:10115F009003AAE0900404F07B017A0379C6122A67
:10116F0052C3EF6480948250028001C350037F000A
:10117F00229003C5E06041C2EDC2EFD2EDE49003CF
:10118F00FDF09003FAE0FBA3E0FAA3E0F9E475F0B9
:10119F00A21205549003FDE070037F0122D2EFE409
:1011AF009003C5F09003FAE0FBA3E0FAA3E0F9E4A3
:1011BF00F5F01205547F0022C2EDC2EFD2EDE4909C
:1011CF0003FDF09003FAE0FBA3E0FAA3E0F9E47566
:1011DF00F0AE1205549003FDE070037F0122D2EFB1
:1011EF00E49003CEF0A3F09003FAE0FBA3E0FAA3A0
:1011FF00E0F9E475F0B31205547B017A0379CE124E
:10120F003611C3EF6480948250028001C350037F74
:10121F000022900429E004F07006900428E004F006
:10122F00020F13E49003FDF09003FAE0FBA3E0FA42
:0B123F00A3E0F9E4F5F01205547F0372
:01124A002281
:0B2A52009003FEEBF0A3EAF0A3E9F014
:102A5D009004057401F01204F1FFAEF0E5F060038F
:102A6D00022B49EF2436604224E47003022B3224FA
:102A7D00E66003022B49E49003A2F0900404E0FF0A
:102A8D009003A2E0C39F4003022B42E49003A4F005
:102A9D00C2EEC2ED900405F09003FEE0FBA3E0FA58
:102AAD00A3E0F9E475F0CA120554900405E0700333
:102ABD007F0122E49003A3F0D2ED9003A4E0FF2563
:102ACD00E0FFA2ECE4334FF0C2ED9003A3E004F07D
:102ADD00E0B408E49003A4E0FF900401E0FBA3E060
:102AED00FAA3E0F99003A2E0F582758300EF1204DA
:102AFD00CF9003A2E004F0D2EE900404E0FF900327
:102B0D00A2E0C39F5004C2EF8002D2EFD2EDE49059
:102B1D000405F09003FEE0FBA3E0FAA3E0F9E475F1
:102B2D00F0E6120554900405E070037F0122C2ED1A
:102B3D00C2EE022A88D2EEE49003C5F0E4900405BB
:102B4D00F09003FEE0FBA3E0FAA3E0F9E4F5F01248
:042B5D0005547F0399
:012B61002251
:0B26A2009003FEEBF0A3EAF0A3E9F0C8
:1026AD009004057401F01204F112064126D10000C8
:1026BD00272200FF275401072785010E27A80110A7
:1026CD00000027DAD2EEE49003A5F0900404E0FFB9
:1026DD009003A5E0C39F40030227D5900401E0FBC2
:1026ED00A3E0FAA3E0F99003A5E0F582758300124B
:1026FD00046F9003A7F09003A5E004F0C2EDE49001
:10270D000405F09003FEE0FBA3E0FAA3E0F9E47505
:10271D00F0FF120554900405E070037F0122E49050
:10272D0003A6F09003A7E0FF25E0F092EFD2EDE4D1
:10273D00900405F09003FEE0FBA3E0FAA3E0F9742A
:10274D000175F007120554900405E070037F012216
:10275D00C2ED9003A6E004F0E0B408C7C2EEC2EDEE
:10276D00E4900405F09003FEE0FBA3E0FAA3E0F98A
:10277D00740175F00E120554900405E070037F018D
:10278D0022D2EDE4900405F09003FEE0FBA3E0FA05
:10279D00A3E0F9740175F010120554900405E07072
:1027AD00037F0122C2EDD2EE20EC030226D8900366
:1027BD00C57401F09003FEE0FBA3E0FAA3E0F9E499
:1027CD00F5F01205547F0222E49003C5F0E4900465
:1027DD0005F09003FEE0FBA3E0FAA3E0F9E4F5F0C9
:0527ED001205547F03FA
:0127F20022C4
:0B3611009003FEEBF0A3EAF0A3E9F049
:10361C00A37401F01204F1FFAEF0707CEE70797EB1
:10362C00037FB97D0A123E7C9003C3E06F706590F6
:10363C0003BDE0602214704C9003BEE0FEA3E0FFDB
:10364C00E4FCFD9003741205D29003717401F090A8
:10365C0003A17405F0802D9003BEE0FEA3E0FFE40F
:10366C00FCFD9003741205D29003C0E0FEA3E0FFB2
:10367C00E4FCFD90038D1205D2E4900371F09003ED
:10368C00A17406F0900267E0FF9003C2E0FEEF4EDB
:10369C00900267F0E4780CF6E4900401F09003FEDD
:1036AC00E0FBA3E0FAA3E0F9E4F5F01205547F0384
:0136BC0022EB
:0534A9009003FEEFF0AE
:1034AE009004031205DE000000009003FFE0FCA371
:1034BE00E0FDA3E0FEA3E0FFE41202A19003FEE014
:1034CE0075F019A42419F582E43403F583E0F8A30A
:1034DE00E0F9A3E0FAA3E0FB12012E9003FEE075E3
:1034EE00F019A4241DF582E43403F583E0F8A3E07B
:1034FE00F9A3E0FAA3E0FB12003D9004031205D2FB
:10350E007FFF7EFF7D7F7C4B900403E0F8A3E0F904
:10351E00A3E0FAA3E0FB120234600A400874FFFF36
:10352E00FEFD7C0022E4FFFEFDFC900403E0F8A308
:10353E00E0F9A3E0FAA3E0FB1202345006E4FFFE2A
:10354E00FDFC22900403E0FCA3E0FDA3E0FEA3E05B
:04355E00FF1202DF77
:013562002246
:1037FA00E49003FAF0A31205DE000000009003FF34
:10380A001205DE00000000E49003FAF09003FAE0EB
:10381A00FFC394065030EF75F019A42418F9740305
:10382A0035F0FA7B01E075F003A42450FEE435F08C
:10383A00900409F0A3CEF07D037C0012323190038C
:10384A00FAE004F080C6123C61E4FCFDFE9003FF3E
:10385A001205D27B017A0379FB900409E4F0A37480
:10386A00A1F07D017C001232319003FBE0FCA3E061
:10387A00FDA3E0FEA3E0FFA3E0F8A3E0F9A3E0FACA
:0C388A00A3E0FBC31205AE6003123CB9C2
:01389600220F
:0536BD009003FAEFF09C
:1036C2009004031205DE000000009003FBE0FCA35F
:1036D200E0FDA3E0FEA3E0FF9003FAE0FB75F01922
:1036E200A42419F582E43403F5831205D29003FF72
:1036F200E0FCA3E0FDA3E0FEA3E0FFEB75F019A45C
:10370200241DF582E43403F5831205D2EB75F0191A
:10371200A42418F9740335F0FA7B019003FAE075DA
:10372200F003A42450FEE435F0900413F0A3CEF08D
:103732007D037C0012314E123C61E4FCFDFE9004DC
:10374200031205D27B017A047903900413E4F0A3F7
:0A37520074A1F07D017C0012314EDD
:01375C00224A
:103C6100E490040EF0A3F0A3F090040FF0E49004AC
:103C710010F090040FE075F019A42418F9740335BD
:103C8100F0FA7B01A3E07E0029F9EE3AFA1204561C
:103C9100FF90040EE06F902E789390040EF0900444
:103CA10010E004F0E0B40CCA90040FE004F0E0B4BA
:073CB10006BB90040EE0FFCA
:013CB80022E9
:0933E800900408EFF0A3EDF0FBE6
:1033F100A31205DE00000000EB6401704290040896
:10340100E0FF75F019A42418F582E43403F5837400
:1034110001F0EF75F019A42418F9740335F0FA7B63
:1034210001900408E075F003A42450FEE435F09007
:103431000413F0A3CEF07D037C0012314E80459041
:103441000409E0703F900408E0FF75F019A4241806
:10345100F582E43403F583E4F0EF75F019A4241840
:10346100F9740335F0FA7B01900408E075F003A4C8
:103471002450FEE435F0900413F0A3CEF07D037CDC
:103481000012314E123C61E4FCFDFE90040A12056B
:10349100D27B017A04790A900413E4F0A374A1F0B9
:0734A1007D017C0012314E99
:0134A8002201
:103CB900E4900403F0A31205DE00000000E4900480
:103CC90003F0900403E0FFC39406500DE4FD1233A2
:103CD900E8900403E004F080E9123C61E4FCFDFE95
:103CE9009004041205D27B017A047904900413E448
:0C3CF900F0A374A1F07D017C0012314E9C
:013D0500229B
:101B1A004103F5004103D2004103D3004103D4003D
:0B124B009003FAEBF0A3EAF0A3E9F037
:05125600E490041BF010
:10125B009003FD04F01204F1FFAEF0E5F060030221
:10126B00155EEF24EE603724F6700302132724F586
:10127B00700302139124F470030214792433600376
:10128B0002155E9003FAE0FBA3E0FAA3E0F99000ED
:10129B0002E4F5F0120573E475F012120554900395
:1012AB00FAE0FBA3E0FAA3E0F990000212051CC3DD
:1012BB009401E5F094004003D38001C340037F0009
:1012CB00229003F5E075F026A42498F582E5F0341E
:1012DB0002F583E0706A9003D2F09003F5E075F0AD
:1012EB0026A42498F582E5F03402F583E07036905D
:1012FB0003D2E06404602E9003F5E0045407F090F1
:10130B0003D2E004F0E49003FDF09003FAE0FBA3BA
:10131B00E0FAA3E0F9E475F01C1205549003FDE02C
:10132B0070B87F01229003D2E0B404149003FAE06A
:10133B00FBA3E0FAA3E0F9E4F5F01205547F0022D9
:10134B009003F5E075F026A42473F9740235F0FAD6
:10135B007B01EAC0E0E9C0E07A0379D578D57C035C
:10136B007D01D0E0F9D0E0FA7E007F20120430E45A
:10137B009003FDF09003FAE0FBA3E0FAA3E0F9E49D
:10138B0075F0271205549003FDE070037F01229046
:10139B0003D37407F0E49003D4F09003D3E0FFA3DE
:1013AB00E0C39F400302148BE025E025E024D9F530
:1013BB0082E43403F583E0FCA3E0FDA3E0FEA3E0AD
:1013CB00FF9003D4E025E025E024D5F582E4340337
:1013DB00F583E0F8A3E0F9A3E0FAA3E0FBD3120551
:1013EB00AE40749003D4E025E025E024D5F582E4EB
:1013FB003403F583E0FCA3E0FDA3E0FEA3E0FF9044
:10140B0003F61205D29003D4E025E025E024D9F5AC
:10141B0082E43403F583E0FCA3E0FDA3E0FEA3E04C
:10142B00FF9003D4E025E025E024D5F582E43403D6
:10143B00F5831205D29003F6E0FCA3E0FDA3E0FEDA
:10144B00A3E0FF9003D4E025E025E024D9F582E466
:10145B003403F5831205D2E49003FDF09003FAE018
:10146B00FBA3E0FAA3E0F9E475F033120554900303
:10147B00FDE070037F01229003D4E004F00213A57A
:10148B009003D3E014F0E060030213A09003E5E0B7
:10149B00FCA3E0FDA3E0FEA3E0FF9003E1E0F8A3D3
:1014AB00E0F9A3E0FAA3E02FFFEA3EFEE93DFDE8F9
:1014BB003CFC78011205BF9003F5E075F019A424EC
:1014CB0010F582E43403F5831205D29003F5E07531
:1014DB00F019A42418F582E43403F583E0603E9000
:1014EB0003F5E075F019A42410F582E43403F583B9
:1014FB00E0FCA3E0FDA3E0FEA3E0FF9003FF1205D9
:10150B00D29003F5E0FF1234A99003F5E075F019C2
:10151B00A42414F582E43403F5831205D29003F569
:10152B00E075F026A42498F582E5F03402F583E407
:10153B00F090041DE004F0700690041CE004F090A1
:10154B0003FAE0FBA3E0FAA3E0F9E4F5F01205548B
:10155B007F0022E49003FDF09003FAE0FBA3E0FA96
:0B156B00A3E0F9E4F5F01205547F0343
:011576002252
:103EFE0053890F438910758D8A758BD0D2ABD28EB4
:013F0E002290
:102E780000BC01BD02BE03BF04B805B906BA07BB52
:102E880008B409B50AB60BB70CB00DB10EB20FB342
:102E980010AC11AD12AE13AF14A815A916AA17AB32
:102EA80018A419A51AA61BA71CA01DA11EA21FA322
:102EB800209C219D229E239F24982599269A279B12
:102EC800289429952A962B972C902D912E922F9302
:102ED800308C318D328E338F34883589368A378BF2
:102EE800388439853A863B873C803D813E823F83E2
:102EF80040FC41FD42FE43FF44F845F946FA47FBD2
:102F080048F449F54AF64BF74CF04DF14EF24FF3C1
:102F180050EC51ED52EE53EF54E855E956EA57EBB1
:102F280058E459E55AE65BE75CE05DE15EE25FE3A1
:102F380060DC61DD62DE63DF64D865D966DA67DB91
:102F480068D469D56AD66BD76CD06DD16ED26FD381
:102F580070CC71CD72CE73CF74C875C976CA77CB71
:102F680078C479C57AC67BC77CC07DC17EC27FC361
:103E7C00E4FCCBEDCB1DEB60160FEFCAEECA700164
:103E8C000E14F5828A83E06C902E7893FC80E3CF3D
:023E9C00ECCF69
:013E9E002201
:1000360002034BE86480F8E933E83360110460F0AA
:10004600ED33EC337009E8FCE9FDEAFEEBFF220430
:1000560060DED3EB9FEA9EE99DE8C2E78CF0C2F72B
:1000660095F0400CE8CCF8E9CDF9EACEFAEBCFFBF7
:1000760012031685D0F05804700320D5B3E8047037
:10008600075002B2D502035592D5EC0460F7E4CCD2
:10009600C0E0C398F8603B94186008400DD0E0FBC0
:1000A60002032DE4FBFAC9FC8028E830E406E4C923
:1000B600FBE4CAFCE830E305E4C9CACBFCE8540714
:1000C6006010F8C3E913F9EA13FAEB13FBEC13FC1F
:1000D600D8F130F52FC3E49CFCEF9BFFEE9AFEEDC2
:1000E60099FDD0E0FBEF4E4D4C701222DB0302036C
:1000F60052EC2CFCEF33FFEE33FEED33FDED30E733
:10010600EB02032DEF2BFFEE3AFEED39FDD0E0FBBF
:1001160050130BBB0003020355ED13FDEE13FEEF68
:0801260013FFEC13FC02032D92
:10012E00EC4D6011E8497017ED33EC3304600DE4CB
:10013E00FCFFFEFD22E933E8330470F802034B1294
:10014E00031658046009E4CC248150062850090295
:10015E000355284003020352C0E0EB4A7044B980B5
:10016E0006D0E0FB020341EF4E701CBD8008EBFF92
:10017E00EAFEE9FD80EBE98DF0A4FEE5F002021740
:10018E00E9CDF9EAFEEBFFEF89F0A4FCE5F0CE89AC
:10019E00F0A42EFFE435F0CD89F0A42DFEE435F069
:1001AE008067EF4E7005BD80D780C3EF8BF0A4AC97
:1001BE00F0EE8BF0A42CFCE435F0F8EF8AF0A42CD2
:1001CE00E5F038FCE433CB8DF0A42CFCE5F03BF8E5
:1001DE00EE8AF0A42CFCE5F038F8E433CF89F0A4D5
:1001EE002CFCE5F038CF3400CE89F0A42FFFE5F0DB
:1001FE003EFEE433C98DF0A42EFEE5F039CD8AF033
:10020E00A42FFFE5F03EFEE43DFD33D0E0FB5007AA
:10021E000BBB000F020355EC2CFCEF33FFEE33FE4D
:06022E00ED33FD02032D7B
:1002340074F8CC6480CCC86480C8F582046043C37D
:10024400EB9FF5F0EA9E42F0E99D42F0E89C45F010
:1002540060305018E5825FFFE582F42B5582FB5035
:10026400210ABA001D09B90019088016E5825BFB52
:10027400E582F42F5582FF50090EBE00050DBD0026
:10028400010CC3EB9FF5F0EA9E42F0E99D42F0E8D1
:0D0294009C45F06007CC4820E701B3EC2248
:1002A10075F020800E75F010800575F0087D007ED8
:1002B100007F003392D530D5031205A0EC334010F6
:1002C100EF33FFEE33FEED33FDEC33FCD5F0ED22E1
:0E02D100E5F0247EA2D513CC92E7CDCEFF221D
:1002DF00EDD2E7CD33EC3392D524814006E4FFFE17
:1002EF00FDFC22FCE4CFCECDCC24E0501174FF8076
:1002FF00EDC3CC13CCCD13CDCE13CECF13CF047013
:07030F00F030D5DE0205A06D
:10031600E9D2E7C933E833F892D5EDD2E7CD33EC2D
:0703260033FC5002B2D522A6
:10032D00EC30E7100FBF000C0EBE00080DBD000431
:10033D000BEB6014A2D5EB13FCED92E7FD2274FFDD
:10034D00FCFDFEFF22E480F8A2D574FF13FC7D8036
:03035D00E480EF4A
:10377A000239C7E493A3F8E493A34003F68001F265
:10378A0008DFF48029E493A3F85407240CC8C33350
:10379A00C4540F4420C8834004F456800146F6DF1F
:1037AA00E4800B010204081020408090185DE47E3A
:1037BA00019360BCA3FF543F30E509541FFEE49314
:1037CA00A360010ECF54C025E060A840B8E493A3DB
:1037DA00FAE493A3F8E493A3C8C582C8CAC583CA06
:1037EA00F0A3C8C582C8CAC583CADFE9DEE780BEBE
:011B2A0000BA
:10036000E709F608DFFA8046E709F208DFFA803E7F
:1003700088828C83E709F0A3DFFA8032E309F6086C
:10038000DFFA8078E309F208DFFA807088828C83D4
:10039000E309F0A3DFFA806489828A83E0A3F60888
:1003A000DFFA805889828A83E0A3F208DFFA804C62
:1003B00080D280FA80C680D4806980F28033801039
:1003C00080A680EA809A80A880DA80E280CA8033A2
:1003D00089828A83ECFAE493A3C8C582C8CCC5831A
:1003E000CCF0A3C8C582C8CCC583CCDFE9DEE780EA
:1003F0000D89828A83E493A3F608DFF9ECFAA9F069
:10040000EDFB2289828A83ECFAE0A3C8C582C8CCBE
:10041000C583CCF0A3C8C582C8CCC583CCDFEADED7
:10042000E880DB89828A83E493A3F208DFF980CC39
:1004300088F0EF60010E4E60C388F0ED2402B40432
:100440000050B9F582EB2402B4040050AF232345D9
:0604500082239003B0734B
:10045600BB010689828A83E0225002E722BBFE02A4
:09046600E32289828A83E49322D7
:10046F00BB010CE58229F582E5833AF583E0225042
:10047F0006E92582F8E622BBFE06E92582F8E2228C
:0D048F00E58229F582E5833AF583E49322A6
:10049C00BB010FF8E58229F582E5833AF583E02864
:1004AC00F0225009C58229F8E58226F622BBFE0906
:1004BC00C58229F8E22582F222F8EA2583F583E940
:0304CC0093282250
:1004CF00F8BB010DE58229F582E5833AF583E8F063
:1004DF00225006E92582C8F622BBFE05E92582C80F
:0204EF00F222F7
:1004F100BB010A89828A83E0F5F0A3E022500687D6
:10050100F009E71922BBFE07E3F5F009E319228997
:0B051100828A83E493F5F074019322CA
:10051C00BB0110E58229F582E5833AF583E0F5F01D
:10052C00A3E0225009E92582F886F008E622BBFEFA
:10053C000AE92582F8E2F5F008E222E5832AF58340
:08054C00E993F5F0A3E9932205
:10055400BB010A89828A83F0E5F0A3F0225006F7F2
:0F05640009A7F01922BBFE06F3E5F009F31922EF
:10057300F8BB0111E58229F582E5833AF583E8F0BA
:10058300E5F0A3F0225009E92582C8F608A6F02277
:0D059300BBFE09E92582C8F2E5F008F2225E
:103D5100C2D5E830E70FB2D5E4C39BFBE49AFAE49D
:103D610099F9E498F8EC30E717B2D5123D871206BD
:103D7100AAE4C39BFBE49AFAE499F9E498F8800376
:103D81001206AA30D50DE4C39FFFE49EFEE49DFD1B
:043D9100E49CFC2290
:0E05A000C3E49FFFE49EFEE49DFDE49CFC226C
:1005AE00EB9FF5F0EA9E42F0E99D42F0E89C45F0A3
:0105BE00221A
:1005BF00E8600FECC313FCED13FDEE13FEEF13FF1A
:0305CF00D8F1223E
:0C05D200ECF0A3EDF0A3EEF0A3EFF0229C
:1005DE00A8828583F0D083D0821205F51205F5121C
:1005EE0005F51205F5E473E493A3C583C5F0C58341
:1005FE00C8C582C8F0A3C583C5F0C583C8C582C867
:01060E0022C9
:0C060F00A42582F582E5F03583F58322F6
:10061B00D083D082F8E4937012740193700DA3A36E
:10062B0093F8740193F5828883E473740293686082
:06063B00EFA3A3A380DF82
:10064100D083D082F8E4937012740193700DA3A348
:1006510093F8740193F5828883E473740293B5F07F
:0D066100067403936860E9A3A3A3A380D8E7
:10066E0075F008758200EF2FFFEE33FECD33CDCC43
:10067E0033CCC58233C5829BED9AEC99E5829840C6
:10068E000CF582EE9BFEED9AFDEC99FC0FD5F0D6A3
:10069E00E4CEFBE4CDFAE4CCF9A88222B800C1B9CD
:1006AE000059BA002DEC8BF084CFCECDFCE5F0CB0B
:1006BE00F97818EF2FFFEE33FEED33FDEC33FCEB44
:1006CE0033FB10D703994004EB99FB0FD8E5E4F9FF
:1006DE00FA227818EF2FFFEE33FEED33FDEC33FCEC
:1006EE00C933C910D7059BE99A4007EC9BFCE99AE0
:1006FE00F90FD8E0E4C9FAE4CCFB2275F010EF2F25
:10070E00FFEE33FEED33FDCC33CCC833C810D70724
:10071E009BEC9AE899400AED9BFDEC9AFCE899F85F
:0E072E000FD5F0DAE4CDFBE4CCFAE4C8F922F2
:00000001FF
