:102E89009005CCF0A3F0A37405F0A37484F0A374A7
:102E99000AF07B007A00790B7F58229005C4E0FB89
:072EA900A3E0FAA3E0F92207
:10277300C2AF53D7F91213AF122AE2122F6F122EE0
:1027830008122F4C122EF77F42122FA4122F0D1274
:102793002D1AE49005E2F0A3F09005E6F0A3F09083
:1027A30005EAF0A3F09005EEF0A3F0D2AF780BF6B4
:1027B30004122E89122EB07B017A02796C121AB799
:1027C3007B017A0579E21229B97B017A0579E61250
:1027D30019087B017A0579EA120FDF7B017A057903
:0927E300EE120DCC122F9A80CEEB
:0B29B9009005C4EBF0A3EAF0A3E9F0E6
:1029C400A37401F01203D1FFE5F07041EF24AF606E
:1029D4001724517038122EA4900002E4F5F012046A
:1029E40053E475F051120434122EA4900002120321
:1029F400FCC3940FE5F094004003D38001C340036B
:102A04007F00227401122E89122EB080C8E4900532
:0D2A1400C7F0122EA4E4F5F01204347F0385
:012A21002292
:03001B00022A8432
:102A8400C0E0C083C08205A7C083C082C0A775A769
:102A940000758D8A758BD09005E5E004F070069082
:102AA40005E4E004F09005E9E004F070069005E820
:102AB400E004F09005EDE004F070069005ECE0040D
:102AC400F090026FE004F0700690026EE004F0D023
:0E2AD400A7D082D08305A7D082D083D0E03275
:102F4C00759E82759D2D759852D2ACC299C298D23D
:022F5C00BC2295
:102D5B00E5E6540775F026A424F2F582E5F034037A
:102D6B00F58322F0E5E6540775F026A422E5E65438
:102D7B000775F019A42275F0040205D024F7F5822B
:0F2D8B00E5F03403F58322E4F075F026EFA4227F
:102E080075D10075D20075E60043D28043D22043C5
:102E1800D207122DD57F03122FAC7F647E00122FAC
:0D2E28002353E6F043E640D2AE43D1202212
:03003300021E703A
:101E7000C0E0C0F0C083C08205A7C083C082C0A7F5
:101E800075A700C0D0EFC0E0122D6F24D2F582E517
:101E9000F03403F583C083C082122D5BE0D082D082
:101EA00083122D81E4122D6E24D3F582E5F03403E4
:101EB000F583C083C082122D5BE0D082D083122DC7
:101EC00081E5DB122D6E24D4F582E5F03403F58331
:101ED000C083C082122D5BE0D082D083122D81E5B9
:101EE000DA122D6E24D5F582E5F03403F583C08334
:101EF000C082122D5BE0D082D083122D81E5D9F013
:101F0000122D5BE0045407FF122D5BEF122D6E12B1
:101F10002D877401F053D1DF8011122D782474F5D0
:101F200082E5F03402F583E0B4FF0FE5E6045407E0
:101F3000FFE5E654F04FF5E680E0122D782477F5C2
:101F400082E5F03402F583E064075407FFE5D254DC
:101F5000F84FF5D2122D782478F582E5F03402F5A9
:101F600083E0F5D443D120C2DFD0E0FFD0D0D0A7AA
:0F1F7000D082D08305A7D082D083D0F0D0E032CA
:072FAC0053D1F8EF42D122DE
:102F2300CBEFCBCAEECAE4F9F87F557E05FDFC1260
:052F33002CD68FD42212
:102DD500E4FF75F026EF122D62122D9224F5F5828F
:102DE500E5F03403F583122D9224F6F582E5F034EF
:102DF50003F5837420122D93122D87E4F00FEFB4A1
:022E050008D0F3
:012E070022A8
:0A2F9000E0FEA3E0FF8EC78FC6220B
:0824EA009005DCECF0A3EDF01D
:1024F200E49005E0F0A3F09005DCE0FEA3E0FF909D
:1025020005DFE02F9005DEE03EC394044004E4FEC4
:10251200FF22E49005E0F0A3F09005DCE0FEA3E0EA
:10252200FFC39005E1E09F9005E0E09E5071E0FE60
:10253200A3E07802C333CE33CED8F9FFF5828E837F
:1025420012036CF5BC8F828E83A312036CF5BD90CF
:1025520005E0E0FEA3E07802C333CE33CED8F9FF24
:10256200F5828E83A3A312036CF5BE8F828E83A3A2
:10257200A3A312036CF5BF9005DE122F9075B90567
:1025820075B902E004F070069005DEE004F09005F3
:10259200E1E004F070839005E0E004F002251B9076
:0725A20005E0E0FEA3E0FFED
:0125A900220F
:082428009005C9ECF0A3EDF0F2
:10243000E49005CDF0A3F09005C9E0FEA3E0FF9085
:1024400005CCE02F9005CBE03EC394044004E4FEAD
:10245000FF22E49005CDF0A3F09005C9E0FEA3E0D3
:10246000FFC39005CEE09F9005CDE09E5073900590
:10247000CB122F9075B901A3E0FCA3E0FDCEECCE0A
:102480007802C333CE33CED8F9FFF5828E83E5BC14
:102490001203998F828E83A3E5BD120399EDCEECD2
:1024A000CE7802C333CE33CED8F9FFF5828E83A324
:1024B000A3E5BE1203998F828E83A3A3A3E5BF1267
:1024C00003999005CCE004F070069005CBE004F091
:1024D0009005CEE004F070819005CDE004F0022478
:0924E000599005CDE0FEA3E0FFD8
:0124E90022D0
:082FA4008F0AD2C0850AC02289
:0A2F9A00C2AFD2C0850AC0D2AF2238
:1020880000BC01BD02BE03BF04B805B906BA07BB50
:1020980008B409B50AB60BB70CB00DB10EB20FB340
:1020A80010AC11AD12AE13AF14A815A916AA17AB30
:1020B80018A419A51AA61BA71CA01DA11EA21FA320
:1020C800209C219D229E239F24982599269A279B10
:1020D800289429952A962B972C902D912E922F9300
:1020E800308C318D328E338F34883589368A378BF0
:1020F800388439853A863B873C803D813E823F83E0
:1021080040FC41FD42FE43FF44F845F946FA47FBCF
:1021180048F449F54AF64BF74CF04DF14EF24FF3BF
:1021280050EC51ED52EE53EF54E855E956EA57EBAF
:1021380058E459E55AE65BE75CE05DE15EE25FE39F
:1021480060DC61DD62DE63DF64D865D966DA67DB8F
:1021580068D469D56AD66BD76CD06DD16ED26FD37F
:1021680070CC71CD72CE73CF74C875C976CA77CB6F
:1021780078C479C57AC67BC77CC07DC17EC27FC35F
:10158E005400013C3C7555534F5F323E3E00000007
:10159E0000000000000000602800153C2D2D2047A3
:1015AE00454F5350484552415F32303132202D2D38
:1015BE003E000000000000000000000000000000DF
:1015CE0000000048003D3030303031000000410056
:1015DE004501410046144100470041004C00610E98
:1015EE00004D0000000000000000000000000000A0
:1015FE0000000000000000000000000000000000DD
:10160E0000000000000000000000000000000000CC
:10161E0000000000000000000000000000000000BC
:10162E0000000000000000000000000000000000AC
:10163E00000000000000000000000000000000009C
:10164E00000000000000000000000000000000008C
:10165E00000000000000000000000000000000007C
:10166E00000000000000000000000000000000006C
:10167E00000000000000000000000000000000005C
:10168E00000000000000000000000000000000004C
:10169E00000000000000000000000000000000003C
:1016AE00000000000000000000000000000000002C
:1016BE00000000000000000000000000000000001C
:1016CE00000000000000000000000000000000000C
:1016DE0000000000000000000000000000000000FC
:1016EE0000000000000000000000000000000000EC
:1016FE00410269C041026AFF41026B0041000000D5
:030023000217566B
:10175600C0E0C083C08205A7C083C082C0A775A7AA
:1017660000C0D0EEC0E0EFC0E0C2AF209803021880
:1017760087C298900048E0D3940E74809481400A02
:1017860090026CE4F0A3F00218F190026AE599F079
:10179600E0606524D7602924526003021825900270
:1017A6006AE0FF900048E0244DF582E43400F583BA
:1017B600EFF0900048E004F090004B7401F0807E5A
:1017C60090004BE0B4011590004DE4F0A374D7F0FF
:1017D600A37429F09000487403F0805D90026AE0DB
:1017E600FF900048E0244DF582E43400F583EFF0E5
:1017F600900048E004F0804190004BE0B40104E41E
:10180600F0803B90026AE0FF900048E0244DF582AC
:10181600E43400F583EFF0900048E004F0801F9078
:10182600026AE0FF900048E0244DF582E43400F5BA
:1018360083EFF0900048E004F090004BE4F0900055
:1018460048E0D39406402490004CE02406FFE4339D
:10185600FE900048E06F7001EE702690004704F09D
:10186600C2ACC29C90004BE4F08016900048E0B4F5
:10187600060FE0244CF582E43400F583E090004C3A
:10188600F0309965C29990004AE0FF900049E0C3A4
:101896009F5047E0C394035002802090004BE070B5
:1018A6002F900049E0245BF582E43401F583E0B42F
:1018B600D70690004B7401F0900049E0245BF58256
:1018C600E43401F583E0F599900049E004F08019CD
:1018D60075990090004BE4F0800F900049E4F09079
:1018E600004BF090026CF0A3F0D2AFD0E0FFD0E056
:1018F600FED0D0D0A7D082D08305A7D082D083D007
:02190600E032CD
:102AE200E4FFC299C298122285E4900048F0A3F054
:102AF200A3F0C2B5A3F090026974C0F0E490026B37
:102B0200F0FF75F019EFA42474F582E5F03402F5B4
:102B120083E0F4601C90026BE0FE75F019EFA424D0
:102B220074F582E5F03402F583EEF090026BE00476
:0D2B3200F00FEFB40ECCE490026CF0A3F0B5
:012B3F002273
:1011CC00E49005C8F090015BF0A374D7F0A37429E8
:1011DC00F0900045E090015EF0A37402F09002697B
:1011EC00E0900161F0E49005C8F09005C8E0C3946C
:1011FC0014501DE02401F582E43400F583E0FF90E7
:10120C0005C8E02462F582E43401F583EFF0800F29
:10121C009005C8E02462F582E43401F583E4F09093
:10122C0005C8E004F0E0B414C1E49005C8F09005E2
:10123C00C8E0C39408501BE0243DF582E43400F56B
:10124C0083E0FF9005C8E02476F582E43401F58351
:10125C00EFF09005C8E004F0E0B405D290026BE02A
:10126C0090017BF0E49005C8F09005C8E075F0198A
:10127C00A42474F582E5F03402F583E0F4607290F6
:10128C0005C8E075F019A42475F582E5F03402F573
:10129C0083E0C454F0FF9005C8E075F019A42476DF
:1012AC00F582E5F03402F583E04FFF9005C8E07558
:1012BC00F019A42474F582E5F03402F583E075F09E
:1012CC0002A4247CF582E5F03401F583EFF090055F
:1012DC00C8E075F019A42474F582E5F03402F583A6
:1012EC00E075F002A4247DF582E5F03401F583E489
:1012FC00F09005C8E004F0E0640E6003021275E49F
:10130C009005C8F0900046E0FF9005C8E0C39F50E0
:10131C0037E02415F582E43400F583E0FF9005C82E
:10132C00E0FE90026BE075F002A42EF582E435F03D
:10133C00F583E582247CF582E5833401F583EFF0B7
:10134C009005C8E004F080BC90026BE025E0241C02
:10135C00FF900046E02F900160F07E017F5C9002D0
:10136C006BE025E02420FD900046E02DFD122ED4EC
:10137C00900046E0FE90026BE075F002A42EF58220
:10138C00E435F0F583E582247CF582E5833401F5C0
:10139C0083EFF090026BE025E02422FF900046E002
:0213AC002FFF11
:0113AE00221C
:030006007F002256
:03000E007F00224E
:030016007F002246
:101BFF00E4FF9005C8F0FEFD900052E014FCEFC327
:101C0F009C4003021D3774532FF582E43400F58393
:101C1F00E0FC90026BE0FBECC39B4003021D3374AE
:101C2F00542FF582E43400F583E0FCC4540F6003B5
:101C3F00021D2CE4FE74532FF582E43400F583E08B
:101C4F00FC75F019EEA42474F582E5F03402F583E7
:101C5F00E06C7005CDEECD80050EEEB40ED774544A
:101C6F002FF582E43400F583E0FC75F019EDA42420
:101C7F0076F582E5F03402F583E06C703E74552FF3
:101C8F00F582E43400F583E0FC75F019EDA42477B8
:101C9F00F582E5F03402F583E06C701F74562FF572
:101CAF0082E43400F583E0FC75F019EDA42478F597
:101CBF0082E5F03402F583E06C605F74552FF58296
:101CCF00E43400F583E0FC75F019EDA42477F58278
:101CDF00E5F03402F583ECF074562FF582E434000E
:101CEF00F583E0FC75F019EDA42478F582E5F03466
:101CFF0002F583ECF074542FF582E43400F583E0A1
:101D0F00540FFC75F019EDA42476F582E5F034023A
:101D1F00F583ECF09005C87401F00F8001000F0FF0
:101D2F000F021C077F01800B9005C8E06003122E85
:061D3F0035E4FF122C4BFD
:011D4500227B
:03001E007F00223E
:030026007F002236
:03002E007F00222E
:032FB3007F00227A
:102F80009002697440F0780B7612E4FF122C4B2209
:10071500E4F508F50990015BF0A374D7F0A37429FB
:10072500F0900045E090015EF0A37415F090026929
:10073500E0900161F0750807E4F50975F019E50920
:10074500A42474F582E5F03402F583E0FFF4700328
:10075500020AF0AE080508745B2EF582E43401F553
:1007650083EFF075F019E509A42475F582E5F034F9
:1007750002F583E0C454F0FF75F019E509A4247669
:10078500F582E5F03402F583E04FFFAE0805087405
:100795005B2EF582E43401F583EFF075F019E50978
:1007A500A42475F582E5F03402F583E014700302A4
:1007B500096D147003020A1C24026003020AF07515
:1007C500F019E509A42476F582E5F03402F583E015
:1007D50024FD700302086E24036003020AF075F01D
:1007E50019E509A42481F582E5F03402F583E06476
:1007F5000175F019702FE509A4247FF582E5F03421
:1008050002F583E0FFAE080508745B2EF582E4343B
:1008150001F583EFF075F019E509A4247EF582E56D
:10082500F03402802DE509A4247BF582E5F034023D
:10083500F583E0FFAE080508745B2EF582E434010C
:10084500F583EFF075F019E509A4247AF582E5F052
:100855003402F583E0FFAE080508745B2EF582E4EB
:100865003401F583EFF002093A75F019E509A4247E
:1008750081F582E5F03402F583E0640175F01970C5
:1008850051E509A42480F582E5F03402F583E0FF03
:10089500AE080508745B2EF582E43401F583EFF0AC
:1008A50075F019E509A4247FF582E5F03402F58396
:1008B500E0FFAE080508745B2EF582E43401F5838C
:1008C500EFF075F019E509A4247EF582E5F0340210
:1008D500804FE509A4247CF582E5F03402F583E038
:1008E500FFAE080508745B2EF582E43401F583EF4D
:1008F500F075F019E509A4247BF582E5F03402F5DD
:1009050083E0FFAE080508745B2EF582E43401F53B
:1009150083EFF075F019E509A4247AF582E5F03442
:1009250002F583E0FFAE080508745B2EF582E4341A
:1009350001F583EFF075F019E509A42477F582E553
:10094500F03402F583E0FFAE080508745B2EF582EE
:10095500E43401F583EFF075F019E509A42478F581
:1009650082E5F03402020ADC75F019E509A4247663
:10097500F582E5F03402F583E06003020AF075F0D4
:1009850019E509A4247CF582E5F03402F583E0FF3E
:10099500AE080508745B2EF582E43401F583EFF0AB
:1009A50075F019E509A4247BF582E5F03402F58399
:1009B500E0FFAE080508745B2EF582E43401F5838B
:1009C500EFF075F019E509A4247AF582E5F0340213
:1009D500F583E0FFAE080508745B2EF582E434016B
:1009E500F583EFF075F019E509A42479F582E5F0B2
:1009F5003402F583E0FFAE080508745B2EF582E44A
:100A05003401F583EFF075F019E509A42477F58233
:100A1500E5F03402020ADC75F019E509A42476F53F
:100A250082E5F03402F583E014605A046003020A9B
:100A3500F075F019E509A4247CF582E5F03402F59A
:100A450083E0FFAE080508745B2EF582E43401F5FA
:100A550083EFF075F019E509A4247BF582E5F03400
:100A650002F583E0FFAE080508745B2EF582E434D9
:100A750001F583EFF075F019E509A42477F582E512
:100A8500F03402805275F019E509A4247CF582E55D
:100A9500F03402F583E0FFAE080508745B2EF5829D
:100AA500E43401F583EFF075F019E509A4247BF52D
:100AB50082E5F03402F583E0FFAE080508745B2E8D
:100AC500F582E43401F583EFF075F019E509A42406
:100AD50077F582E5F03402F583E0FFAE080508748A
:100AE5005B2EF582E43401F583EFF00509E5096431
:100AF5000E6003020740E50824FB900160F07E01CB
:100B05007F5CE50814FD122ED4745B2508F582E49C
:0A0B15003401F583EFF0E50804FF5A
:010B1F0022B3
:101F7F00900058E0900270F0900057E0900271F0DE
:101F8F00900056E0900272F0900055E0900273F0CE
:101F9F00900270E0FCA3E0FDA3E0FEA3E0FF90053C
:101FAF00C812059390005CE0900270F090005BE027
:101FBF00900271F090005AE0900272F0900059E098
:101FCF00900273F0900270E0FCA3E0FDA3E0FEA38B
:101FDF00E0FF9005CC120593900054E014603C1480
:101FEF00604E240260030220819005C8E0FCA3E04C
:101FFF00FDA3E0FEA3E0FF9005D11205939005CC61
:10200F00E0FCA3E0FDA3E0FEA3E0FF9005D51205E1
:10201F0093900053E0FF1228DC8058900053E07536
:10202F00F019A42481F582E5F03402F583E48014DD
:10203F00900053E075F019A42481F582E5F0340285
:10204F00F5837401F0900053E075F019A42481F921
:10205F00740235F0FA7B01E075F003A42450FEE41E
:10206F0035F09005DEF0A3CEF07D037C001224EA5C
:08207F00800100E4FF122C4B6C
:012087002236
:102D9A00900052E024E5FE602DA3E0FF9005CC747C
:102DAA0001F0A37400F0A37468F0A37401F0A37493
:102DBA0000F0A3746DF0A3EEF07B017A007954124F
:0B2DCA001D46E4FF80027F09022C4B35
:102C4B00E490015BF0A374D7F0A37429F0900045D6
:102C5B00E090015EF0900051E0900162F090015F16
:102C6B0074FFF0900269E0900161F0900163EFF066
:102C7B009001607404F07E017F5B7D09122ED4906D
:072C8B000164EFF07F0A2253
:1026F500900051E01205DC272701272C032731051F
:10270500273607273B0927400A27450C274A0E2766
:102715004F102754122759142763CA275ECD00008E
:1027250027681211CC8041120006803C12000E80F1
:10273500371200168032121BFF802D12001E8028D2
:10274500120026802312002E801E122FB38019122C
:102755002F808014120715800F122D9A800A121FE0
:0E2765007F80057F06122C4B90004AEFF02279
:0B1AB7009005C4EBF0A3EAF0A3E9F0F7
:101AC200A37401F01203D11206021AE000001AFEFA
:101AD20002BB1B5902C91BC002DB00001BE6E490DB
:101AE2000048F0D29CC2B5D2AC9005C4E0FBA3E0A2
:101AF200FAA3E0F9740275F0BB120434900047E0D7
:101B02007002FF22E4900047F0900045E0FF900051
:101B120050E06F60028052900048E0244CF582E46D
:101B22003400F583E0900000F07E007F4D90004885
:101B3200E014FD122ED4900000E06F6002802AE4CF
:101B42009005C7F09005C4E0FBA3E0FAA3E0F974A6
:101B52000275F0C91204349005C7E070037F0122B8
:101B62001226F590004AE070149005C4E0FBA3E051
:101B7200FAA3E0F9E4F5F01204347F0022D2B5C2F0
:101B82009CE4900049F090004BF0900049E0245B07
:101B9200F582E43401F583E0F599900049E004F020
:101BA200D2AC9005C4E0FBA3E0FAA3E0F9900002F6
:101BB200E4F5F0120453740275F0DB12043490055C
:101BC200C4E0FBA3E0FAA3E0F99000021203FCC315
:101BD200940AE5F094004003D38001C35003021A33
:101BE200E07F0022E49005C7F09005C4E0FBA3E08B
:0C1BF200FAA3E0F9E4F5F01204347F03DC
:011BFE0022C4
:102ED400E4FCCBEDCB1DEB60160FEFCAEECA70011C
:102EE4000E14F5828A83E06C90208893FC80E3CFF3
:022EF400ECCF21
:012EF60022B9
:0E1D46009005C8EFF0A3EBF0A3EAF0A3E9F0DC
:101D5400E49005D3F0A3F07B017A0579C89005DE01
:101D6400F0A3742AF07D017C001224EA9005C9E0F6
:101D7400FBA3E0FAA3E0F99005DEE4F0A3742BF0F2
:101D84007D057C001224EA7A00790178017C007DCB
:101D9400019005C9E0FBA3E0FAA3E0F97E007F14FB
:101DA4001206EF9005CCE0FBA3E0FAA3E0F990055E
:101DB400DEE4F0A37430F07D027C001224EA7A00A1
:101DC400793D783D7C007D019005CCE0FBA3E0FAF1
:101DD400A3E0F97E007F081206EF9005D2E0FF131E
:101DE40013543FFDA3E4F0A3EDF0EF54FC600BE0CB
:101DF40004F070069005D3E004F0D39005D4E09489
:101E04000A9005D3E094004006E4F0A3740AF0902D
:101E140005CFE0FBA3E0FAA3E0F99005D3E0FCA32F
:101E2400E0FD9005DEE4F0A37433F01224EA90059B
:101E3400D2E0900046F07B017A0579D29005DEE489
:101E4400F0A37432F07D017C001224EA9005D2E004
:101E5400FF7E007A00791578157C007D019005CF0E
:0B1E6400E0FBA3E0FAA3E0F91206EF98
:011E6F002250
:10228500E49005C4F0A3F07B017A0079459005CB75
:10229500F0A3742AF07D017C00122428900045E00B
:1022A500C394014006E0D3940F40069000457401A5
:1022B500F07B017A0079019005CBE4F0A3742BF053
:1022C5007D057C001224287B017A00793D9005CBA1
:1022D500E4F0A37430F07D027C001224287B017A9F
:1022E5000079469005CBE4F0A37432F07D017C00C3
:1022F500122428900046E0D3942840037428F090D7
:102305000046E0FF1313543FFF9005C4E4F0A3EF2C
:10231500F0900046E054FC600E9005C5E004F070B6
:10232500069005C4E004F0D39005C5E0940A900535
:10233500C4E094004006E4F0A3740AF07B017A003F
:1023450079159005C4E0FCA3E0FD9005CBE4F0A36E
:062355007433F01224288D
:01235B00225F
:102C9200F0A37440F0A3741EF0227440F0A3740AEF
:102CA200F022EF75F019A42475F9740235F0FA7B5D
:102CB20001E02410FEE4332274FFF0A37402F0A3B7
:102CC20014F02274FFF0E4A3F022E4F0A37402F003
:042CD200E4A3F02265
:1013AF00122E5F900275E0700990028EE0700302BA
:1013BF0014A2E4900276122C9290027D12059F00E7
:1013CF00000000E4900281F090028F122C929002A4
:1013DF009612059F00000000E490029AF09002A878
:1013EF00122C929002AF12059F00000000E49002B1
:1013FF00B3F09002C1122C929002C812059F000008
:10140F000000E49002CCF09002DA122C929002E1EC
:10141F0012059F00000000E49002E5F09002F31225
:10142F002C929002FA12059F00000000E49002FE39
:10143F00F090030C122C9290031312059F000000E2
:10144F0000E4900317F0900325122C9290032C12B6
:10145F00059F00000000E4900330F090033F122C32
:10146F009CE4900349F0900358122C9CE490036283
:10147F00F0900371122C9CE490037BF090038A127E
:10148F002C9CE4900394F09003A3122C9C9003BC2B
:10149F00122C9CE4900274F0A3F090027912059F35
:1014AF0000000000E490028DF0A3F090029212056C
:1014BF009F00000000E49002A6F0A3F09002AB1290
:1014CF00059F00000000E49002BFF0A3F09002C45B
:1014DF0012059F000000009002D8122CC59002DD6B
:1014EF0012059F000000009002F1122CC59002F629
:1014FF0012059F0000000090030A122CC590030FE5
:10150F0012059F00000000900323122CC5900328A2
:10151F0012059F0000000090033C122CBA9003416B
:10152F0012059F00000000900355122CBA90035A29
:10153F0012059F0000000090036E122CBA900373E7
:10154F0012059F0000000090038774FFF0A3740141
:10155F00F0E4A3F090038C12059F800080009003AD
:10156F00A0122CCC9003A512059F00000000900341
:0F157F00B9122CCC9003BE12059F000000002271
:102E3500E49005C9F0F09005C9E0FFC3940E501960
:102E4500122CA49005DEF0A3CEF07D017C001224A7
:092E5500EA9005C9E004F080DDFB
:012E5E002251
:102E5F00E49005C4F0F09005C4E0FFC3940E501940
:102E6F00122CA49005CBF0A3CEF07D017C00122490
:092E7F00289005C4E004F080DD98
:012E88002227
:030000000226666F
:0F26660043AF01787FE4F6D8FD7581110226B0ED
:0E170E00011100410502004405030000000027
:1027EC00F583E475F0011203BB90050775F008E062
:1027FC00FCA3E0FDEFA422E49005C7F09005C4E033
:10280C00FBA3E0FAA3E0F922E0FEA3E0FFC322342D
:10281C0007FEE0FCA3E0FDC3EF9DFFEE9C229005BC
:10282C0007E0C3135403FF75F008A422F8900502C7
:10283C00E075F022A422900502E075F019A4244161
:10284C00F582E5F03403F58322F583E0FEA3E02264
:08285C00F583ECF0A3EDF0227E
:102EF700122F5E122F38D2AAD2A8D288D28AE49093
:062F07000507F0A3F02213
:03000300022B9D30
:102B9D00C0E0C0F0C083C08205A7C083C082C0A7BB
:102BAD0075A700C0D0E8C0E0ECC0E0EDC0E0EFC01C
:012BBD00E037
:102BBE0012282A2409F582E434051227EC240BF599
:072BCE0082E4340512285CCB
:102BD500D0E0FFD0E0FDD0E0FCD0E0F8D0D0D0A729
:0F2BE500D082D08305A7D082D083D0F0D0E03249
:03001300022BF4C9
:102BF400C0E0C0F0C083C08205A7C083C082C0A764
:102C040075A700C0D0E8C0E0ECC0E0EDC0E0EFC0C4
:012C1400E0DF
:102C150012282A242BF582E434051227EC242DF5FD
:072C250082E4340512285C73
:102C2C00D0E0FFD0E0FDD0E0FCD0E0F8D0D0D0A7D1
:0F2C3C00D082D08305A7D082D083D0F0D0E032F1
:03000B00022B4085
:102B4000C0E0C0F0C083C08205A7C083C082C0A718
:102B500075A700C0D0E8C0E0ECC0E0EDC0E0EFC079
:012B6000E094
:102B6100758CFF758AFF12282A244DF582E43405FD
:0D2B71001227EC244FF582E4340512285C95
:102B7E00D0E0FFD0E0FDD0E0FCD0E0F8D0D0D0A780
:0F2B8E00D082D08305A7D082D083D0F0D0E032A0
:03002B00020B20A5
:100B2000C0E0C0F0C083C08205A7C083C082C0A758
:100B300075A700C0D0E8C0E0ECC0E0EDC0E0EEC0BA
:100B4000E0EFC0E0C2CF900507E0FEA3E08EF01218
:100B500006020B6601FF0BF203FF0C7B05FF0D0580
:100B600007FF00000D9590050CE024FFFF90050B9A
:100B7000E090052312281B90050DF0A3EFF09005DF
:100B800009E0FFA3E090050FCFF0A3EFF09005215F
:100B9000E4F0A3F090052EE024FFFF90052DE090F7
:100BA000054512281B90052FF0A3EFF090052BE0D0
:100BB000FFA3E0900531CFF0A3EFF0900543E4F000
:100BC000A3F0900550E024FFFF90054FE03407FEAE
:100BD00090056712281E900551F0A3EFF090054D87
:100BE000E0FFA3E0900553CFF0A3EFF0900565027E
:100BF0000D0190050B122814900514E09FFF90053D
:100C000013E09E900515F0A3EFF0900511E0FFA30F
:100C1000E0900517CFF0A3EFF0900509E4F0A3F002
:100C200090052D122814900536E09FFF900535E0C1
:100C30009E900537F0A3EFF0900533E0FFA3E0901E
:100C40000539CFF0A3EFF090052BE4F0A3F0900569
:100C50004F122814900558E09FFF900557E09E9092
:100C60000559F0A3EFF0900555E0FFA3E090055B78
:100C7000CFF0A3EFF090054D020D0190051312285F
:100C80001490051CE09FFF90051BE09E90051DF051
:100C9000A3EFF0900519E0FFA3E090051FCFF0A3AC
:100CA000EFF0900511E4F0A3F090053512281490B0
:100CB000053EE09FFF90053DE09E90053FF0A3EFCD
:100CC000F090053BE0FFA3E0900541CFF0A3EFF0EB
:100CD000900533E4F0A3F0900557122814900560B6
:100CE000E09FFF90055FE09E900561F0A3EFF0901C
:100CF000055DE0FFA3E0900563CFF0A3EFF0900562
:100D000055E4020D9290051B122814900524E09FD3
:100D1000FF900523E09E900525F0A3EFF0900521BC
:100D2000E0FFA3E0900527CFF0A3EFF0900519E4D2
:100D3000F0A3F090053D122814900546E09FFF9027
:100D40000545E09E900547F0A3EFF0900543E0FFD6
:100D5000A3E0900549CFF0A3EFF090053BE4F0A3AA
:100D6000F090055F122814900568E09FFF900567DA
:100D7000E09E900569F0A3EFF0900565E0FFA3E029
:100D800090056BCFF0A3EFF090055DE4F0A3F09039
:100D90000507F0A3F0900508E004F0700690050741
:100DA000E004F0900507E05407F0D0E0FFD0E0FE4B
:100DB000D0E0FDD0E0FCD0E0F8D0D0D0A7D082D0F9
:0C0DC0008305A7D082D083D0F0D0E032B1
:0B1908009005C4EBF0A3EAF0A3E9F0A7
:10191300A37401F01203D1FFE5F06003021AABEFE9
:10192300244D602124FD7003021A5324B660030280
:101933001AAB122808900002E4F5F0120453E47580
:10194300F0B31204341228089000021203FCC3946B
:1019530028E5F094004003D38001C340037F0022B5
:101963001228392417F582E43405122855FBCAEEF0
:10197300CAE4122839240FF582E43405122855FFEE
:10198300EF2BFBEE3AFAE433F9E433122838241F41
:10199300F582E43405122855FFE4FCFDEB2FFBEA46
:1019A3003EFAED39F9EC381228382427F582E4346D
:1019B30005122855FFEB2FFFEA3EFEED39FDEC380B
:1019C300FC7812120580ECC0E0EDC0E0EEC0E0EF61
:1019D300C0E0900502E0FF75F022A42415F582E42F
:1019E3003405F58375F0221227FB240DF582E434C8
:1019F300051228552DFFEE3CFE900502E0FD75F023
:101A030022A4241DF582E43405F583E0FAA3E02F34
:101A1300FFEA3EFEED75F022A42425F582E43405A9
:101A2300F583E0FCA3E02FFFEC3ECBEFCBFAE4F928
:101A3300F8D0E0FFD0E0FED0E0FDD0E0FC1204BC23
:101A4300900503120593122803E475F0B6120434CB
:101A53009005C7E070037F0122E47FFF7EFFFDFC5A
:101A6300900503E0F8A3E0F9A3E0FAA3E0FBD312A7
:101A7300055C5016900503E0FCA3E0FDA3E0FEA384
:101A8300E0FF122842120593800A12284212059F92
:101A93000000FFFF900502E004F0E0C3940350034D
:101AA300021935E4F0021935122803E4F5F01204A3
:031AB300347F037A
:011AB600220D
:102F5E005389F0438905758CFF758AFFD2A9D28CEF
:012F6E002240
:102F3800D2ADE4F5C875CCFF75CDE775CAFF75CB82
:042F4800E7D2CA22E0
:10171C004105740041057500410579124A057A00AE
:10172C00000000000000000000060B00000000009C
:09173C000041058E0041058F00FB
:10294C00C2EDC2EFD2EDE49005C7F09005C4E0FBF8
:10295C00A3E0FAA3E0F9E422E49005CFF09005C8D7
:10296C00E0FBA3E0FAA3E0F922EBF0A3EAF0A3E981
:10297C00F022F5F01204347F0322A37401F0020359
:10298C00D1E49005CFF09005C822E49005CFF090EB
:10299C0005C8229005CEE0FF90056DE0C39F22E4B0
:0D29AC00900594F0A322C3EF648094822272
:102F0D00D2EBE4900590F0A3F0900594F0A3F0902F
:062F1D000598F0A3F0226C
:102EB000EF25E054FE900573F09005CCE09005748A
:102EC000F09005D0E0900575F0A312297590058E5D
:042ED0007401F02277
:060DCC009005C412297518
:100DD200122986FFE5F06003020FB7EF1205DC0E61
:100DE2000F000E18440E364F0E4D550E695E0E7EE4
:100DF200690EB8700ED17D0EEF830F0B8B0F25930A
:100E02000F609A0F84A60F9EAB00000FB7122957EE
:100E120075F04412043490058EE07002FF22E490D3
:100E2200058EF0D2EEC2EDD2EFD2ED12295375F05B
:100E32004F1204349005C7E070037F0122C2EF1203
:100E420029AB12295675F055120434120FBE500206
:100E52008001C350037F002290058FE060121229A7
:100E62004C75F05E1204349005C7E070527F012287
:100E72001229AB12295675F0691204349005CBE49D
:100E8200F0A37400F0A3740BF0900574E09005CE0B
:100E9200F07B017A0579941221881229B2500280DE
:100EA20001C350037F002290058FE0601512294C88
:100EB20075F0701204349005C7E070037F012202BE
:100EC2000F69C2EDD2EF12295075F07D12043490F1
:100ED20005C7E070037F0122C2EF900573E0440171
:100EE200F01229AB12295675F083120434120FBE88
:100EF20050028001C350037F002290058FE06014EE
:100F020012294C75F08B1204349005C7E070037FF0
:100F120001228053E4900590F0A312295675F093B4
:100F22001204349005CB7401F0A37405F0A3748409
:100F3200F0900575E09005CEF07B017A057990126C
:100F4200235C1229B250028001C350037F00229019
:100F5200058FE0602412294C75F09A120434900532
:100F6200C7E070037F0122D2EFE490058FF01229CF
:100F720057F5F01204347F002212294C75F0A612A4
:100F820004349005C7E070037F0122D2EFE490059C
:100F920098F0A312295675F0AB1204347B017A053E
:100FA20079981228641229B250028001C3400302C8
:0B0FB2000E0F7F002212295212297E30
:100FBD00229005CB7401F0A37405F0A37473F0A314
:100FCD007401F0FB7A057994122188C3EF64809443
:020FDD0082226E
:06235C009005C81229756E
:102362009005CF122987FFE5F0600302241EEF24B7
:1023720040603024E4700302240724DC600302245A
:102382001EE490056DF012299F4003022417E49089
:10239200056FF0C2EEC2ED12299712295A75F0C0EC
:1023A2001204349005CFE070037F0122E490056EA1
:1023B200F0D2ED90056FE025E0FFA2ECE4334FF0A0
:1023C200C2ED90056EE004F0E0B408E590056FE020
:1023D200FF9005CB12296C90056DE0F582758300A4
:1023E200EF12039990056DE004F0D2EE12299F508E
:1023F20004C2EF8002D2EFD2ED12299612295A7549
:10240200F0DC1204349005CFE070037F0122C2EDAC
:10241200C2EE022388D2EEE490058FF012299612C2
:05242200295A12297E79
:012427002292
:062188009005C812297544
:10218E009005CF12298712060221AF000021F00020
:10219E00F4221500FC22390103224F010500002212
:1021AE007BD2EEE4900570F09005CEE0FF900570C6
:1021BE00E0C39F40030222769005CB12296C900556
:1021CE0070E0F58275830012036C900572F0900535
:1021DE0070E004F0C2ED12298D12295A75F0F41236
:1021EE0004349005CFE070037F0122E4900571F076
:1021FE00900572E025E0F092EFD2ED12298D1229B2
:10220E005A75F0FC1204349005CFE070037F012262
:10221E00C2ED900571E004F0E0B408D4C2EEC2ED58
:10222E00122964740175F0031204349005CFE07026
:10223E00037F0122D2ED122964740175F005120498
:10224E00349005CFE070037F0122C2EDD2EE20EC78
:10225E00030221B690058F7401F09005C812295A19
:10226E00F5F01204347F0222E490058FF012298DCE
:06227E0012295A12297E0C
:012284002237
:062864009005C812297561
:10286A00122986705EE5F0705A7E057F847D091212
:10287A002ED490058DE06F7046900584E0FCA3E0AD
:10288A00FDA3E0FEA3E0FF90038C12059390058858
:10289A00E0FEA3E0FFE4FCFD9003A512059390057A
:1028AA008AE0FEA3E0FFE4FCFD9003BE12059390CC
:1028BA000269E0FF90058CE0FEEF4E900269F0E4B9
:1028CA00780BF6E49005CBF09005C812295A122924
:0128DA007E7F
:0128DB0022DA
:0525AA009005C8EFF0F0
:1025AF009005CD12059F000000009005C9E0FCA327
:1025BF00E0FDA3E0FEA3E0FFE41202AD9005C8E04A
:1025CF0075F019A42482F582E5F03402F583E0F862
:1025DF00A3E0F9A3E0FAA3E0FB12012E9005C8E0F7
:1025EF0075F019A42486F582E5F03402F583E0F83E
:1025FF00A3E0F9A3E0FAA3E0FB12003D9005CD1292
:10260F0005937FFF7EFF7D7F7C4B9005CDE0F8A388
:10261F00E0F9A3E0FAA3E0FB120234600A40087469
:10262F00FFFFFEFD7C0022E4FFFEFDFC9005CDE0E8
:10263F00F8A3E0F9A3E0FAA3E0FB1202345006E49A
:10264F00FFFEFDFC229005CDE0FCA3E0FDA3E0FE24
:06265F00A3E0FF1202EBF4
:012665002252
:102D1A00E49005C4F0F09005C4E0FFC3940E50306F
:102D2A00EF75F019A42481F9740235F0FA7B01E0F9
:102D3A0075F003A42450FEE435F09005CBF0A3CE41
:102D4A00F07D037C001224289005C4E004F080C6BC
:012D5A002256
:1028DC009005D0EFF0FBA3E0FCA3E0FDA3E0FEA38A
:1028EC00E0FF75F019EBA42482F582E5F03402F5D3
:1028FC00831205939005D5E0FCA3E0FDA3E0FEA3B5
:10290C00E0FF75F019EBA42486F582E5F03402F5AE
:10291C0083120593EB75F019A42481F9740235F038
:10292C00FA7B019005D0E075F003A42450FEE43549
:10293C00F09005DEF0A3CEF07D037C001224EA2299
:101745004105BF0041059C0041059D0041059E00E6
:102A2200E49005C7F09005C4E0FBA3E0FAA3E0F947
:102A320022E025E025E024A3F582E43405F583E0D5
:102A4200FCA3E0FDA3E0FEA3E0FF229005BFE0753A
:102A5200F026A424F7F582E5F03403F583229005ED
:102A62009EE025E025E0249FF582E43405229005CE
:102A7200BFE075F019A422E0F8A3E0F9A3E0FAA3FD
:022A8200E02250
:0B0FDF009005C4EBF0A3EAF0A3E9F0DA
:100FEA00A37401F01203D1FFE5F060030211C0EF10
:100FFA0024F0602C24F6607324F570030210BD24DB
:10100A00F4700302112C243160030211C0122A2742
:10101A00900002E4F5F0120453E475F0101204345F
:10102A00122A279000021203FCC3940AE5F09400E6
:10103A004003D38001C340037F0022122A4DE0708F
:10104A003D90059CF0122A4DE0702990059CE064C1
:10105A000860219005BFE0045407F090059CE00465
:10106A00F0122A22E475F01A1204349005C7E070CF
:10107A00D47F012290059CE0B408030211B49005C4
:10108A00BFE075F026A424D2F9740335F0FA7B0187
:10109A00EAC0E0E9C0E0789F7C057D01D0E0F9D0A4
:1010AA00E0FA7E007F201206EF122A22E475F0256C
:1010BA001204349005C7E070037F012290059D74E5
:1010CA0007F0E490059EF090059DE0FFA3E0C39F22
:1010DA005062122A33122A60F583122A79FBD3123C
:1010EA00055C4034122A60122A3F9005C01205930B
:1010FA0090059E122A33122A60F5831205939005F1
:10110A00C0122A4190059EE025E025E024A3F5823D
:10111A00E43405F583120593122A22E475F031129C
:10112A0004349005C7E070037F012290059EE00415
:10113A00F00210D190059DE014F0E070859005AFA3
:10114A00122A419005AB122A792FFFEA3EFEE93DA9
:10115A00FDE83CFC780112056D122A702479F582AB
:10116A00E5F03402F583120593122A702481F58280
:10117A00E5F03402F583E0602C122A702479F582B6
:10118A00E5F03402122A3F9005C91205939005BF73
:10119A00E0FF1225AA122A70247DF582E5F03402B6
:1011AA00F583120593122A4DE4F0122A27E4F5F08A
:1011BA001204347F0022122A22E4F5F01204347F4A
:0111CA000321
:0111CB002201
:102F6F0053890F438910758D8A758BD0D2ABD28E52
:012F7F00222F
:10003600020357E86480F8E933E83360110460F09E
:10004600ED33EC337009E8FCE9FDEAFEEBFF220430
:1000560060DED3EB9FEA9EE99DE8C2E78CF0C2F72B
:1000660095F0400CE8CCF8E9CDF9EACEFAEBCFFBF7
:1000760012032285D0F05804700320D5B3E804702B
:10008600075002B2D502036192D5EC0460F7E4CCC6
:10009600C0E0C398F8603B94186008400DD0E0FBC0
:1000A600020339E4FBFAC9FC8028E830E406E4C917
:1000B600FBE4CAFCE830E305E4C9CACBFCE8540714
:1000C6006010F8C3E913F9EA13FAEB13FBEC13FC1F
:1000D600D8F130F52FC3E49CFCEF9BFFEE9AFEEDC2
:1000E60099FDD0E0FBEF4E4D4C701222DB0302036C
:1000F6005EEC2CFCEF33FFEE33FEED33FDED30E727
:10010600EB020339EF2BFFEE3AFEED39FDD0E0FBB3
:1001160050130BBB0003020361ED13FDEE13FEEF5C
:0801260013FFEC13FC02033986
:10012E00EC4D6011E8497017ED33EC3304600DE4CB
:10013E00FCFFFEFD22E933E8330470F80203571288
:10014E00032258046009E4CC248150062850090289
:10015E00036128400302035EC0E0EB4A7044B9809D
:10016E0006D0E0FB02034DEF4E701CBD8008EBFF86
:10017E00EAFEE9FD80EBE98DF0A4FEE5F002021740
:10018E00E9CDF9EAFEEBFFEF89F0A4FCE5F0CE89AC
:10019E00F0A42EFFE435F0CD89F0A42DFEE435F069
:1001AE008067EF4E7005BD80D780C3EF8BF0A4AC97
:1001BE00F0EE8BF0A42CFCE435F0F8EF8AF0A42CD2
:1001CE00E5F038FCE433CB8DF0A42CFCE5F03BF8E5
:1001DE00EE8AF0A42CFCE5F038F8E433CF89F0A4D5
:1001EE002CFCE5F038CF3400CE89F0A42FFFE5F0DB
:1001FE003EFEE433C98DF0A42EFEE5F039CD8AF033
:10020E00A42FFFE5F03EFEE43DFD33D0E0FB5007AA
:10021E000BBB000F020361EC2CFCEF33FFEE33FE41
:06022E00ED33FD0203396F
:1002340074F8CC6480CCC86480C8F58204604FC371
:10024400EB9FF5F0EA9E42F0E99D42F0E89C45F010
:10025400603C501DE5825FFFE582D313CB5BCBF49A
:100264002B5582FB50280ABA002409B900200880C3
:100274001DE5825BFBE582D313CF5FCFF4C3132F5D
:100284005582FF50090EBE00050DBD00010CC3EBE5
:100294009FF5F0EA9E42F0E99D42F0E89C45F0604B
:0902A40007CC4820E701B3EC226D
:1002AD0075F020800E75F010800575F0087D007ECC
:1002BD00007F003392D530D50312054EEC3340103C
:1002CD00EF33FFEE33FEED33FDEC33FCD5F0ED22D5
:0E02DD00E5F0247EA2D513CC92E7CDCEFF2211
:1002EB00EDD2E7CD33EC3392D524814006E4FFFE0B
:1002FB00FDFC22FCE4CFCECDCC24E0501174FF806A
:10030B00EDC3CC13CCCD13CDCE13CECF13CF047006
:07031B00F030D5DE02054EB3
:10032200E9D2E7C933E833F892D5EDD2E7CD33EC21
:0703320033FC5002B2D5229A
:10033900EC30E7100FBF000C0EBE00080DBD000425
:100349000BEB6014A2D5EB13FCED92E7FD2274FFD1
:10035900FCFDFEFF22E480F8A2D574FF13FC7D802A
:03036900E480EF3E
:10267500022773E493A3F8E493A34003F68001F2E1
:1026850008DFF48029E493A3F85407240CC8C33366
:10269500C4540F4420C8834004F456800146F6DF35
:1026A500E4800B010204081020408090158EE47E22
:1026B500019360BCA3FF543F30E509541FFEE4932A
:1026C500A360010ECF54C025E060A840B8E493A3F1
:1026D500FAE493A3F8E493A3C8C582C8CAC583CA1C
:1026E500F0A3C8C582C8CAC583CADFE9DEE780BED4
:011755000093
:10036C00BB010CE58229F582E5833AF583E0225046
:10037C0006E92582F8E622BBFE06E92582F8E22290
:0D038C00E58229F582E5833AF583E49322AA
:10039900F8BB010DE58229F582E5833AF583E8F09A
:1003A900225006E92582C8F622BBFE05E92582C846
:0203B900F2222E
:1003BB00C5F0F8A3E028F0C5F0F8E58215827002CD
:0603CB001583E038F0226A
:1003D100BB010A89828A83E0F5F0A3E022500687F7
:1003E100F009E71922BBFE07E3F5F009E3192289B9
:0B03F100828A83E493F5F074019322EC
:1003FC00BB0110E58229F582E5833AF583E0F5F03F
:10040C00A3E0225009E92582F886F008E622BBFE1B
:10041C000AE92582F8E2F5F008E222E5832AF58361
:08042C00E993F5F0A3E9932226
:10043400BB010A89828A83F0E5F0A3F0225006F713
:0F04440009A7F01922BBFE06F3E5F009F3192210
:10045300F8BB0111E58229F582E5833AF583E8F0DB
:10046300E5F0A3F0225009E92582C8F608A6F02298
:0D047300BBFE09E92582C8F2E5F008F2227F
:1004800075F008758200EF2FFFEE33FECD33CDCC33
:1004900033CCC58233C5829BED9AEC99E5829840B6
:1004A0000CF582EE9BFEED9AFDEC99FC0FD5F0D693
:1004B000E4CEFBE4CDFAE4CCF9A88222B800C1B9BD
:1004C0000059BA002DEC8BF084CFCECDFCE5F0CBFB
:1004D000F97818EF2FFFEE33FEED33FDEC33FCEB34
:1004E00033FB10D703994004EB99FB0FD8E5E4F9EF
:1004F000FA227818EF2FFFEE33FEED33FDEC33FCDC
:10050000C933C910D7059BE99A4007EC9BFCE99ACF
:10051000F90FD8E0E4C9FAE4CCFB2275F010EF2F14
:10052000FFEE33FEED33FDCC33CCC833C810D70714
:100530009BEC9AE899400AED9BFDEC9AFCE899F84F
:0E0540000FD5F0DAE4CDFBE4CCFAE4C8F922E2
:102CD600C2D5E830E70FB2D5E4C39BFBE49AFAE429
:102CE60099F9E498F8EC30E717B2D5122D0C1204D6
:102CF600BCE4C39BFBE49AFAE499F9E498F88003F0
:102D06001204BC30D50DE4C39FFFE49EFEE49DFD96
:042D1600E49CFC221B
:0E054E00C3E49FFFE49EFEE49DFDE49CFC22BE
:10055C00EB9FF5F0EA9E42F0E99D42F0E89C45F0F5
:01056C00226C
:10056D00E8600FECC313FCED13FDEE13FEEF13FF6C
:03057D00D8F12290
:10058000E8600FEFC333FFEE33FEED33FDEC33FCD9
:03059000D8F1227D
:0C059300ECF0A3EDF0A3EEF0A3EFF022DB
:10059F00A8828583F0D083D0821205B61205B612D9
:1005AF0005B61205B6E473E493A3C583C5F0C583FE
:1005BF00C8C582C8F0A3C583C5F0C583C8C582C8A6
:0105CF002209
:0C05D000A42582F582E5F03583F5832236
:1005DC00D083D082F8E4937012740193700DA3A3AE
:1005EC0093F8740193F5828883E4737402936860C2
:0605FC00EFA3A3A380DFC2
:10060200D083D082F8E4937012740193700DA3A387
:1006120093F8740193F5828883E473740293B5F0BE
:0D062200067403936860E9A3A3A3A380D826
:10062F00E709F608DFFA8046E709F208DFFA803EAD
:10063F0088828C83E709F0A3DFFA8032E309F6089A
:10064F00DFFA8070E309F208DFFA806888828C8312
:10065F00E309F0A3DFFA805C89828A83E0A3F608BE
:10066F00DFFA805089828A83E0A3F208DFFA8044A0
:10067F0080D280FA80C680D4805980F2802B80107F
:10068F0080A680EA809A80A880DA80E280CA802BD8
:10069F0089828A8305A788828C8375A754E493F097
:1006AF00DFFBDEF975A700800B89828A83E493A3B1
:1006BF00F608DFF9ECFAA9F0EDFB2289828A8305AF
:1006CF00A788828C8375A754E0F0DFFCDEFA75A74C
:1006DF000080E189828A83E493A3F208DFF980D452
:1006EF0088F0EF60010E4E60CB88F0ED2402B40469
:1006FF000050C1F582EB2402B4040050B723234508
:06070F00822390067F73B7
:00000001FF
