:1042B700C2AF53D7F91240EA124187124860124938
:1042C7001B12480A1248F8123CE47F721247D112B7
:1042D70048A6E49005F9F0A3F09005FDF0A3F0904F
:1042E7000601F0A3F0900605F0A3F0D2AF780CF624
:1042F7009005CD04F0A3F0A37405F0A37484F0A394
:10430700740BF07B007A00790C7F581248377B01D9
:104317007A02796912216A7B017A0579F9123E607E
:104327007B017A0579FD121EE27B017A067901127B
:1043370015E67B017A067905120F177B017A057955
:07434700F51233AA80C82221
:103E60009005C5EBF0A3EAF0A3E9F0E49005ECF0CF
:103E70009005C804F0120507FFAEF0E5F07076EF8C
:103E800024AA601F2456706D9005C5E0FBA3E0FADC
:103E9000A3E0F9900002E4F5F0120589E475F0560C
:103EA00012056A9005C5E0FBA3E0FAA3E0F99000D3
:103EB00002120532C3940FE5F094004003D3800151
:103EC000C340037F00229005CD7401F0A3F0A374DA
:103ED00005F0A37484F0A3740BF07B007A00790CD6
:103EE0007F581248379005EEE004F070069005ED1B
:103EF000E004F08093E49005C8F09005C5E0FBA3D2
:0D3F0000E0FAA3E0F9E4F5F012056A7F0392
:013F0D002291
:03001B0002463763
:10463700C0E0C083C082758D8A758BD09005FCE081
:1046470004F070069005FBE004F0900600E004F02B
:1046570070069005FFE004F0900604E004F0700691
:10466700900603E004F090026CE004F070069002FC
:104677006BE004F09005F8E004F070069005F7E0B1
:0946870004F0D082D083D0E032AF
:1048F800759E82759D2D759852D2ACC299C298D278
:02490800BC22CF
:10480A0075D10075D20075E60043D28043D22043A9
:10481A00D20753E6F043E640123FB07F0312494203
:0D482A007F647E001248BCD2AE43D1202234
:030033000231682F
:10316800C0E0C0F0C083C082C0D0EEC0E0EFC0E0D5
:10317800E5E654079003D0F0E0FF75F026A424F2AA
:10318800F582E5F03403F583E09003D1F075F0267D
:10319800EFA424D2F582E5F03403F583C083C0821E
:1031A8009003D1E0FFD082D08375F004120706E4C3
:1031B800F09003D0E0FE75F026A424D3F582E5F064
:1031C8003403F58375F004EF120706E5DBF075F0BC
:1031D80026EEA424D4F582E5F03403F583C083C039
:1031E800829003D1E0FFD082D08375F004120706E5
:1031F800E5DAF09003D0E0FE75F026A424D5F58238
:10320800E5F03403F58375F004EF120706E5D9F00D
:103218009003D1E0045407FF75F026EEA424F2F5DC
:1032280082E5F03403F583EFF09003D0E0FF75F00A
:1032380026A424F7F582E5F03403F5837401F0EF52
:10324800045407FFE5E654F04FF5E6E5E654077544
:10325800F019A42474F582E5F03402F583E06407DC
:103268005407FFE5D254F84FF5D2E5E6540775F058
:1032780019A42475F582E5F03402F583E0F5D4C28B
:01328800DF66
:10328900D0E0FFD0E0FED0D0D082D083D0F0D0E023
:013299003202
:0749420053D1F8EF42D1222E
:1048BC00CBEFCBCAEECAE4F9F87F557E05FDFC12AE
:0548CC00478D8FD4228E
:103FB000E49005C5F0A3F09005C5F09005C5E0FFBD
:103FC000C39408400302404C75F026EFA424F2F598
:103FD00082E5F03403F583E4F075F026EFA424F5D0
:103FE000F582E5F03403F583E4F075F026EFA424C0
:103FF000F6F582E5F03403F5837420F075F026EFD2
:10400000A424F7F582E5F03403F583E4F09005C6C7
:10401000F09005C6E0FFC3940850289005C5E075F0
:10402000F026A424D2F582E5F03403F58375F0047C
:10403000EF1207061206D5000000009005C6E00446
:0C404000F080CE9005C5E004F0023FBB0C
:01404C002251
:083999009005DCECF0A3EDF059
:1039A100E49005E0F0A3F0A3F09005DCE0FEA3E0D5
:1039B100FF9005DFE02F9005DEE03EC39404400454
:1039C100E4FEFF22E49005E0F0A3F09005DCE0FEC8
:1039D100A3E0FFC39005E1E09F9005E0E09E400376
:1039E100023A73A2AFE4339005E2F0C2AF9005E072
:1039F100E0FEA3E07802C333CE33CED8F9FFF582DF
:103A01008E8312046FF5BC8F828E83A312046FF52F
:103A1100BD9005E0E0FEA3E07802C333CE33CED8FB
:103A2100F9FFF5828E83A3A312046FF5BE8F828EF8
:103A310083A3A3A312046FF5BF9005DEE0FEA3E00C
:103A4100FF8EC78FC675B90575B9029005E2E024EE
:103A5100FF92AF9005DFE004F070069005DEE00410
:103A6100F09005E1E004F070069005E0E004F0025A
:0A3A710039CC9005E0E0FEA3E0FF71
:013A7B002228
:083A7C009005D1ECF0A3EDF080
:103A8400E49005D5F0A3F0A3F09005D1E0FEA3E007
:103A9400FF9005D4E02F9005D3E03EC39404400486
:103AA400E4FEFF22E49005D5F0A3F09005D1E0FEFA
:103AB400A3E0FFC39005D6E09F9005D5E09E4003A8
:103AC400023B52A2AFE4339005D7F0C2AF9005D3C6
:103AD400E0FEA3E0FF8EC78FC675B901A3E0FCA387
:103AE400E0FDCEECCE7802C333CE33CED8F9FFF569
:103AF400828E83E5BC1204CF8F828E83A3E5BD1230
:103B040004CFEDCEECCE7802C333CE33CED8F9FF5A
:103B1400F5828E83A3A3E5BE1204CF8F828E83A386
:103B2400A3A3E5BF1204CF9005D7E024FF92AF9082
:103B340005D4E004F070069005D3E004F09005D6B7
:103B4400E004F070069005D5E004F0023AAF900569
:063B5400D5E0FEA3E0FF36
:013B5A002248
:1047D100E4FE8F0AD2C0850AC0EE75F003A424E47A
:1047E100F582E43405F583E4F0A3F0EE75F003A45B
:1047F10024E3F582E43405F5837401F00EEEB4068A
:08480100D8E49005F5F0A3F0E6
:01480900228C
:0A493800C2AFD2C0850AC0D2AF2280
:0B33AA009005C5EBF0A3EAF0A3E9F0EA
:0933B500E4A3F0A3F09005E9F097
:1033BE009005CA04F09005C5E0FBA3E0FAA3E0F97E
:1033CE00120507FFAEF0E5F0600302349EEF24C352
:1033DE006022243D600302349E9005C5E0FBA3E00D
:1033EE00FAA3E0F9900002E4F5F0120589E475F015
:1033FE003D12056A9005C5E0FBA3E0FAA3E0F99043
:10340E000002120532C39464E5F094004003D380A9
:10341E0001C340037F0022E49005C9F09005EBE064
:10342E0004F070069005EAE004F0E49005C8F09010
:10343E0005C8E075F003A424E3F582E43405F583B2
:10344E00E0FF9005C8E075F003A424E4F582E434AF
:10345E0005F583E0FEA3E04F4E70079005C904F01A
:10346E00801F9005C8E075F003A424E4F582E434CF
:10347E0005F583E4F0A3F09005C8E004F0E0B4068F
:10348E00AE9005C9E060030233E71249380233E714
:10349E00E49005CAF09005C5E0FBA3E0FAA3E0F9BD
:0834AE00E4F5F012056A7F034A
:0134B60022F3
:1012A3005400013C3C7555534F5F323E3E000000F5
:1012B30000000000000000602800153C2D2D204791
:1012C300454F5350484552415F32303132202D2D26
:1012D3003E000000000000000000000000000000CD
:1012E30000000048003D3030303031000000410044
:1012F30045014100461401120041004A00610E00FD
:101303004B0000000000000000000000000000008F
:1013130000000000000000000000000000000000CA
:1013230000000000000000000000000000000000BA
:1013330000000000000000000000000000000000AA
:10134300000000000000000000000000000000009A
:10135300000000000000000000000000000000008A
:10136300000000000000000000000000000000007A
:10137300000000000000000000000000000000006A
:10138300000000000000000000000000000000005A
:10139300000000000000000000000000000000004A
:1013A300000000000000000000000000000000003A
:1013B300000000000000000000000000000000002A
:1013C300000000000000000000000000000000001A
:1013D300000000000000000000000000000000000A
:1013E30000000000000000000000000000000000FA
:1013F30000000000000000000000000000000000EA
:101403000000000000000000000000000000006178
:101413000E01590000000000000000000000000061
:1014230000000000000000000000000000000000B9
:1014330000000000000000000000000000000000A9
:101443000000000000000000000000000000000099
:101453000000000000000000000000000000000089
:101463000000000000000000000000000000000079
:101473000000000000000000000000000000000069
:101483000000000000000000000000000000000059
:101493000000000000000000000000000000000049
:1014A3000000000000000000000000000000000039
:1014B3000000000000000000000000000000000029
:1014C3000000000000000000000000000000000019
:1014D3000000000000000000000000000000000009
:1014E30000000000000000000000000000000000F9
:1014F30000000000000000000000000000000000E9
:1015030000000000000000000000000000000000D8
:1015130000000000000000000000000000000000C8
:1015230000410267C00114FF41026800410000004E
:030023000223B9FC
:1023B900C0E0C083C082C0D0E8C0E0EEC0E0EFC09A
:1023C900E0C2AF209803022535C298900047E0D3B8
:1023D900940E74809481400A900269E4F0A3F0029B
:1023E90025B57814A6999005E3E4F0E67003022474
:1023F900A724D86069146026245260030224CC788B
:1024090014E6FF900047E0244BF582E43400F5839D
:10241900EFF0900047E004F01876010224E8781301
:10242900E6B4011A90004BE4F0A374D7F0A3742921
:10243900F09000477403F0900268E4F08019781472
:10244900E6FF900047E0244BF582E43400F583EF82
:10245900F0900047E004F0781376000224E878133E
:10246900E6B4011B90004BE4F0A374D7F0A37428E1
:10247900F09000477403F09002687401F0801978B5
:1024890014E6FF900047E0244BF582E43400F5831D
:10249900EFF0900047E004F078137600804178135C
:1024A900E6B40104760080377814E6FF900047E02F
:1024B900244BF582E43400F583EFF0900047E00403
:1024C900F0801C7814E6FF900047E0244BF582E485
:1024D9003400F583EFF0900047E004F0187600909F
:1024E9000047E0D39406402090004AE02406FFE428
:1024F90033FE900047E06F7001EE7030781276017C
:10250900C2ACC29C08F68024900047E0B4061DE0E6
:10251900244AF582E43400F583E090004AF0900201
:1025290068E0B4010790004AE0541FF030997BC27B
:1025390099900049E0FF900048E0C39F505EE0C3D6
:1025490094034007900268E0B40118900048E02421
:1025590059F582E43401F583E0F599900048E004E7
:10256900F080477813E6702B900048E02459F582F3
:10257900E43401F583E0B4D7027601900048E02401
:1025890059F582E43401F583E0F599900048E004B7
:10259900F0801775990078137600800E900048E452
:1025A900F07813F6900269F0A3F0D2AFD0E0FFD033
:0E25B900E0FED0E0F8D0D0D082D083D0E03267
:10486000C299C2981237C3E4900047F0A3F0A3F0B6
:10487000C2B57813F690026774C0F0E4900269F054
:03488000A3F02280
:102C1900E4FF900159F0A374D7F0A37429F0900050
:102C290045E090015CF0A37402F0900267E0900126
:102C39005FF0E4EFC39414501A74012FF582E43461
:102C490000F583E0FE74602FF582E43401F583EE2C
:102C5900F0800C74602FF582E43401F583E4F00F01
:102C6900EFB414CFE4FFEFC394085018743D2FF567
:102C790082E43400F583E0FE74742FF582E43401B4
:102C8900F583EEF00FEFB405DD9003CFE090017905
:102C9900F0E4FF9003CFE0FEEFC39E504C75F019AE
:102CA900EFA42472F582E5F03402F583E0FEC45402
:102CB900F0FE75F019EFA42473F582E5F03402F5FE
:102CC90083E04EFE75F002EFA4247AF582E5F03434
:102CD90001F583EEF075F002EFA4247BF582E5F0AF
:102CE9003401F583E4F00F80AAE4FF900046E0FE8A
:102CF900EFC39E502D74152FF582E43400F583E05F
:102D0900FE9003CFE075F002A42FF582E435F0F5CB
:102D190083E582247AF582E5833401F583EEF00FA9
:102D290080C99003CFE025E0FD241CFF900046E018
:102D39002F90015EF07E017F5AED2420FD90004620
:102D4900E02DFD124883900046E0FE9003CFE0FDA0
:102D590075F002A42EF582E435F0F583E582247A34
:102D6900F582E5833401F583EFF0ED25E02422FFB8
:062D7900900046E02FFF70
:012D7F002231
:030006007F002256
:03000E007F00224E
:030016007F002246
:102D8000E4FF9005C5F0900050E014FEEFC39E40B4
:102D900003022ED274512FF582E43400F583E0FE55
:102DA0009003CFE0FDEEC39D4003022ECC74522F62
:102DB000F582E43400F583E0FEC4540F6003022E74
:102DC000C574512FF582E43400F583E075F019A441
:102DD0002473F582E5F03402F583E0FE74522FF59A
:102DE00082E43400F583E0FDEE6D705974512FF5E7
:102DF00082E43400F583E075F019A42474F582E5CB
:102E0000F03402F583E0FE74532FF582E43400F5CC
:102E100083E0FDEE6D702E74512FF582E43400F5E1
:102E200083E075F019A42475F582E5F03402F5838A
:102E3000E0FE74542FF582E43400F583E0FDEE6D7E
:102E40007003022EC274532FF582E43400F583E040
:102E5000FE74512FF582E43400F583E075F019A477
:102E60002474F582E5F03402F583EEF074542FF506
:102E700082E43400F583E0FE74512FF582E43400DF
:102E8000F583E075F019A42475F582E5F03402F5B8
:102E900083EEF074522FF582E43400F583E0540F92
:102EA000FE74512FF582E43400F583E075F019A427
:102EB0002473F582E5F03402F583EEF09005C574D5
:102EC00001F00F8001000F0F0F022D867F011245C8
:102ED000DC229005C5E0600312443CE4FF1245DCAF
:012EE00022CF
:03001E007F00223E
:030026007F002236
:03002E007F00222E
:034949007F0022CA
:1048E5009002677440F0780C7612124187E4FF124B
:0348F50045DC227D
:10076500E4F508F509900159F0A374D7F0A37429AD
:10077500F0900045E090015CF0A37415F0900267DD
:10078500E090015FF0750807E4F5099003CFE0FFFD
:10079500E509C39F4003020B3AAF08050874592FBA
:1007A500F582E43401F583E509F075F019A42472A6
:1007B500F582E5F03402F583E0C454F0FF75F019D5
:1007C500E509A42473F582E5F03402F583E04FFFD3
:1007D500AE08050874592EF582E43401F583EFF06F
:1007E50075F019E509A42472F582E5F03402F58364
:1007F500E01470030209B2147003020A6124026056
:1008050003020B3575F019E509A42473F582E5F0AB
:100815003402F583E024FD70030208B3240360036A
:10082500020B3575F019E509A4247EF582E5F0344F
:1008350002F583E0640175F019702FE509A4247CA5
:10084500F582E5F03402F583E0FFAE08050874593A
:100855002EF582E43401F583EFF075F019E509A46E
:10086500247BF582E5F03402802DE509A42478F592
:1008750082E5F03402F583E0FFAE08050874592ED1
:10088500F582E43401F583EFF075F019E509A42448
:1008950077F582E5F03402F583E0FFAE08050874CC
:1008A500592EF582E43401F583EFF002097F75F0E6
:1008B50019E509A4247EF582E5F03402F583E064A8
:1008C5000175F0197051E509A4247DF582E5F03430
:1008D50002F583E0FFAE08050874592EF582E4346D
:1008E50001F583EFF075F019E509A4247CF582E59F
:1008F500F03402F583E0FFAE08050874592EF58241
:10090500E43401F583EFF075F019E509A4247BF5CE
:1009150082E5F03402804FE509A42479F582E5F0FB
:100925003402F583E0FFAE08050874592EF582E41C
:100935003401F583EFF075F019E509A42478F58203
:10094500E5F03402F583E0FFAE08050874592EF58D
:1009550082E43401F583EFF075F019E509A42477F5
:10096500F582E5F03402F583E0FFAE080508745919
:100975002EF582E43401F583EFF075F019E509A44D
:100985002474F582E5F03402F583E0FFAE0805082E
:1009950074592EF582E43401F583EFF075F019E50D
:1009A50009A42475F582E5F03402020B2175F019CE
:1009B500E509A42473F582E5F03402F583E06003CC
:1009C500020B3575F019E509A42479F582E5F034B3
:1009D50002F583E0FFAE08050874592EF582E4346C
:1009E50001F583EFF075F019E509A42478F582E5A2
:1009F500F03402F583E0FFAE08050874592EF58240
:100A0500E43401F583EFF075F019E509A42477F5D1
:100A150082E5F03402F583E0FFAE08050874592E2F
:100A2500F582E43401F583EFF075F019E509A424A6
:100A350076F582E5F03402F583E0FFAE080508742B
:100A4500592EF582E43401F583EFF075F019E509C7
:100A5500A42474F582E5F03402020B2175F019E542
:100A650009A42473F582E5F03402F583E014605A95
:100A7500046003020B3575F019E509A42479F582A4
:100A8500E5F03402F583E0FFAE08050874592EF54C
:100A950082E43401F583EFF075F019E509A42478B3
:100AA500F582E5F03402F583E0FFAE0805087459D8
:100AB5002EF582E43401F583EFF075F019E509A40C
:100AC5002474F582E5F03402805275F019E509A425
:100AD5002479F582E5F03402F583E0FFAE080508D8
:100AE50074592EF582E43401F583EFF075F019E5BC
:100AF50009A42478F582E5F03402F583E0FFAE0819
:100B0500050874592EF582E43401F583EFF075F08C
:100B150019E509A42474F582E5F03402F583E0FFB4
:100B2500AE08050874592EF582E43401F583EFF01B
:100B35000509020790E50824FB90015EF07E017F20
:100B45005AE50814FD12488374592508F582E434E2
:090B550001F583EFF0E50804FF4F
:010B5E002274
:1038B400900056E0FF90026DEFF0900055E0FF900D
:1038C400026EEFF0900054E0FF90026FEFF0900072
:1038D40053E0FF900270EFF090026DE0FCA3E0FD76
:1038E400A3E0FEA3E0FF9006161206C990005AE07A
:1038F400FF90026DEFF0900059E0FF90026EEFF040
:10390400900058E0FF90026FEFF0900057E0FF90B6
:103914000270EFF090026DE0FCA3E0FDA3E0FEA3D3
:10392400E0FF90061A1206C9900052E0FFEF12075A
:1039340012394200397A0139860200003992900026
:1039440051E0FFEFC0E0900616E0FCA3E0FDA3E029
:10395400FEA3E0FF9005C61206C990061AE0FCA378
:10396400E0FDA3E0FEA3E0FF9005CA1206C9D0E083
:10397400FF123F0E8019900051E0FF7D00123C21A0
:10398400800D900051E0FF7D01123C218001007FF9
:04399400001245DCFC
:01399800220C
:1035BE00750B00900159E4F090015A74D7F0900108
:1035CE005B7429F0900045E0FF90015CEFF09001F4
:1035DE005D74CCF090015E740BF0900051E0FF8FA3
:1035EE000B9003CFE0FFE50BC39F40067F0912450A
:1035FE00DC2290015FE50BF0AF0B75F019EFA42400
:10360E007EF582E5F03402F583E0FF900160EFF085
:10361E00AF0B75F019EFA4247FF582E5F03402F5B7
:10362E0083E0FCA3E0FDA3E0FEA3E0FF90026D1299
:10363E0006C990026DE0FF900164EFF090026EE01B
:10364E00FF900163EFF090026FE0FF900162EFF0E8
:10365E00900270E0FF900161EFF0AF0B75F019EF83
:10366E00A42483F582E5F03402F583E0FCA3E0FDAB
:10367E00A3E0FEA3E0FF90026D1206C990026DE07A
:10368E00FF900168EFF090026EE0FF900167EFF09F
:10369E0090026FE0FF900166EFF0900270E0FF90F5
:1036AE000165EFF07E017F5A7D0F1248839001690C
:0436BE00EFF07F1199
:0136C20022E5
:10434E00900639E4F0900050E0FFEF24E5FF900670
:10435E0039EFF0900639E0FFEF6054900051E0FF26
:10436E007B017A007952EBC0E0EAC0E0E9C0E07B65
:10437E00017A00796690060DEBF0A3EAF0A3E9F05E
:10438E007B017A00796B900610EBF0A3EAF0A3E9BB
:10439E00F0900639E0FE900613EEF0D0E0F9D0E092
:1043AE00FAD0E0FB1227AF7F001245DC2280067F99
:0743BE00091245DC227F001B
:0143C50022D5
:0C492C001225C71247407F001245DC2214
:1045DC0090063AEFF0900159E4F090015A74D7F03C
:1045EC0090015B7429F0900045E0FF90015CEFF0C6
:1045FC0090004FE0FF900160EFF090015D74FFF0D0
:10460C00900267E0FF90015FEFF090063AE0FF90B8
:10461C000161EFF090015E7404F07E017F597D0919
:0B462C00124883900162EFF07F0A2229
:0D43C600900624EEF0A3EFF0900626EDF037
:1043D300900627E4F0900628E4F0900628E4F09095
:1043E3000626E0FF900628E0FEEEC39F5036C2D7B4
:1043F300900628E0FF900624E0FCA3E0FD8D828C6C
:1044030083E5822FF582E43583F583E0FF90062769
:10441300E02FF030D706900627E004F0900628E05E
:1044230004F080BB900627E0FFC374FF9FFF900654
:0844330027EFF0900627E0FFDF
:01443B00225E
:10191600900631E4F0900632E4F090004FE0FFEFDD
:10192600131313541FFFEF541FFF900631EFF0906F
:101936000631E0FFEFC3940E4003021C0D900159DF
:10194600E4F090015A74D7F090015B7428F090018E
:101956005CE4F090004FE0FF90015DEFF090015ED7
:101966007403F0900631E0FF75F019EFA42472F5C8
:1019760082E5F03402F583E0FFEF120712199000BA
:101986001AE8011B450200001BD7900631E0FF75DF
:10199600F019EFA42473F582E5F03402F583E0FF35
:1019A600EF12071219B4001A400300001BD7900665
:1019B60031E0FF75F019EFA4247EF582E5F03402DC
:1019C600F583E0FFEFB40139900631E0FF75F019B9
:1019D600EFA4247BF582E5F03402F583E0FF900165
:1019E6005FEFF0900631E0FF75F019EFA4247CF567
:1019F60082E5F03402F583E0FF900160EFF0021B10
:101A0600D7900631E0FF75F019EFA42477F582E54B
:101A1600F03402F583E0FF90015FEFF0900631E0CD
:101A2600FF75F019EFA42478F582E5F03402F5830A
:101A3600E0FF900160EFF0021BD7900631E0FF75E2
:101A4600F019EFA4247EF582E5F03402F583E0FF79
:101A5600EF64017051900631E0FF75F019EFA42490
:101A66007BF582E5F03402F583E0FF900631E0FE77
:101A760074592EF582E43401F583EFF0900631E0D7
:101A8600FF75F019EFA4247CF582E5F03402F583A6
:101A9600E0FF900631E0FE74592EF582E43401F53C
:101AA60083EFF0021BD7900631E0FF75F019EFA423
:101AB6002477F582E5F03402F583E0FF90015FEFCD
:101AC600F0900631E0FF75F019EFA42478F582E571
:101AD600F03402F583E0FF900160EFF0021BD702BD
:101AE6001BD7900631E0FF75F019EFA42473F58239
:101AF600E5F03402F583E0FFEF1207121B09000040
:101B0600001BD7900631E0FF75F019EFA42478F595
:101B160082E5F03402F583E0FF90015FEFF0900676
:101B260031E0FF75F019EFA42479F582E5F034026F
:101B3600F583E0FF900160EFF0021BD7021BD79000
:101B46000631E0FF75F019EFA42473F582E5F03451
:101B560002F583E0FFEF1207121B69001BA10100CB
:101B6600001BD7900631E0FF75F019EFA42478F535
:101B760082E5F03402F583E0FF90015FEFF0900616
:101B860031E0FF75F019EFA42479F582E5F034020F
:101B9600F583E0FF900160EFF08036900631E0FFBC
:101BA60075F019EFA42478F582E5F03402F583E0A8
:101BB600FF90015FEFF0900631E0FF75F019EFA49A
:101BC6002479F582E5F03402F583E0FF900160EFB9
:101BD600F07B017A0179597D081234B7900632EF0D
:101BE600F07E017F59900632E0FD1243C690063220
:101BF600E0FE74592EF582E43401F583EFF0900689
:091C060032E0FFEF04FF227F0031
:011C0F0022B2
:100B5F00900633E4F0900634E4F090004FE0FFEF9E
:100B6F00131313541FFFEF541FFF900633EFF09032
:100B7F000633E0FFEFC3940E4003020F14900159A8
:100B8F00E4F090015A74D7F090015B7428F0900153
:100B9F005CE4F090004FE0FF90015DEFF090015E9C
:100BAF007406F0900633E0FF75F019EFA42472F588
:100BBF0082E5F03402F583E0FFEF1207120BD90044
:100BCF000D85010E3B0200000ED8900633E0FF7535
:100BDF00F019EFA42473F582E5F03402F583E0FFFA
:100BEF00EF1207120BFD000C890300000D2A90066F
:100BFF0033E0FF75F019EFA4247EF582E5F034029F
:100C0F00F583E0FFEFB40139900633E0FF75F0197B
:100C1F00EFA4247BF582E5F03402F583E0FF900129
:100C2F005FEFF0900633E0FF75F019EFA4247CF529
:100C3F0082E5F03402F583E0FF900160EFF0020DE2
:100C4F002A900633E0FF75F019EFA42477F582E5BB
:100C5F00F03402F583E0FF90015FEFF0900633E090
:100C6F00FF75F019EFA42478F582E5F03402F583CF
:100C7F00E0FF900160EFF0020D2A900633E0FF7560
:100C8F00F019EFA4247EF582E5F03402F583E0FF3E
:100C9F00EF64017050900633E0FF75F019EFA42454
:100CAF007BF582E5F03402F583E0FF900633E0FE3A
:100CBF0074592EF582E43401F583EFF0900633E09A
:100CCF00FF75F019EFA4247CF582E5F03402F5836B
:100CDF00E0FF900633E0FE74592EF582E43401F5FF
:100CEF0083EFF08036900633E0FF75F019EFA42400
:100CFF0077F582E5F03402F583E0FF90015FEFF0C6
:100D0F00900633E0FF75F019EFA42478F582E5F033
:100D1F003402F583E0FF900160EFF0900633E0FFBF
:100D2F0075F019EFA42474F582E5F03402F583E031
:100D3F00FFEF5407FFEF1207120D58000D5F010D63
:100D4F0067050D6F0700000D77900161E4F0801DBE
:100D5F009001617402F080159001617404F0800DB0
:100D6F009001617406F08005900161E4F0900162DA
:100D7F00740AF0020ED8900633E0FF75F019EFA455
:100D8F002473F582E5F03402F583E0FFEF120712CA
:100D9F000DA60000000ED8900633E0FF75F019EF96
:100DAF00A42478F582E5F03402F583E0FF90015F2B
:100DBF00EFF0900633E0FF75F019EFA42479F58278
:100DCF00E5F03402F583E0FF900160EFF090063319
:100DDF00E0FF75F019EFA42474F582E5F03402F505
:100DEF0083E0FFEF5407FFEF1207120E0A000E12F7
:100DFF00010E1A050E220700000E2A9001617440A1
:100E0F00F0801E9001617442F0801690016174446D
:100E1F00F0800E9001617446F0800690016174407D
:100E2F00F0900162E4F0020ED8020ED8900633E083
:100E3F00FF75F019EFA42473F582E5F03402F58302
:100E4F00E0FFEF1207120E5F000E970100000ECDAC
:100E5F00900633E0FF75F019EFA42478F582E5F0E2
:100E6F003402F583E0FF90015FEFF0900633E0FF6F
:100E7F0075F019EFA42479F582E5F03402F583E0DB
:100E8F00FF900160EFF08036900633E0FF75F019A8
:100E9F00EFA42478F582E5F03402F583E0FF9001AA
:100EAF005FEFF0900633E0FF75F019EFA42479F5AA
:100EBF0082E5F03402F583E0FF900160EFF09001DE
:100ECF00617440F0900162E4F090016374FFF07B75
:100EDF00017A0179597D0B1234B7900634EFF07E09
:100EEF00017F59900634E0FD1243C6900634E0FEB0
:100EFF0074592EF582E43401F583EFF0900634E057
:070F0F00FFEF04FF227F0049
:010F160022B8
:10293800900635E4F0900636E4F090004FE0FFEFA3
:10294800131313541FFFEF541FFF900635EFF09039
:102958000635E0FFEFC3940E4003022AA890015900
:10296800E4F090015A74D7F090015B7428F090015C
:102978005CE4F090004FE0FF90015DEFF090015EA5
:102988007403F0900635E0FF75F019EFA42472F592
:1029980082E5F03402F583E0FFEF12071229B20056
:1029A8002A0C012A670200002A72900635E0FF759A
:1029B800F019EFA42474F582E5F03402F583E0FF02
:1029C800EF5407FFEF12071229E00029E70129EF6A
:1029D8000529F707000029FF90015FE4F0801D90AA
:1029E800015F7402F0801590015F7404F0800D900F
:1029F800015F7406F0800590015FE4F09001607457
:102A08000AF08066900635E0FF75F019EFA424748B
:102A1800F582E5F03402F583E0FFEF5407FFEF128B
:102A280007122A3A002A42012A4A052A52070000B8
:102A38002A5A90015F7440F0801E90015F7442F042
:102A4800801690015F7444F0800E90015F7446F028
:102A5800800690015F7440F0900160E4F0800B9074
:102A6800015F7440F0900160E4F07B017A017959CC
:102A78007D081234B7900636EFF07E017F59900634
:102A880036E0FD1243C6900636E0FE74592EF582F4
:102A9800E43401F583EFF0900636E0FFEF04FF22FF
:022AA8007F00AD
:012AAA002209
:03494C007F0022C7
:102AAB0090063BE4F090004FE0FFEF131313541F1D
:102ABB00FFEF541FFF90063BEFF090063BE0FFEF5C
:102ACB00C3940E4003022C16900051E0FFEFC3138A
:102ADB00FFEF5403FFEF1207122AF4002B2F012BE9
:102AEB006A022BA40300002BDE90063BE0FF75F07F
:102AFB0019EFA42474F582E5F03402F583E0FFEFBF
:102B0B0054F0FFEFF090063BE0FF75F019EFA424B3
:102B1B0074F582E5F03402F583E0FFEF4400FFEF3C
:102B2B00F0022C1690063BE0FF75F019EFA424740D
:102B3B00F582E5F03402F583E0FFEF54F0FFEFF0A0
:102B4B0090063BE0FF75F019EFA42474F582E5F0D5
:102B5B003402F583E0FFEF4401FFEFF0022C1690F7
:102B6B00063BE0FF75F019EFA42474F582E5F03411
:102B7B0002F583E0FFEF54F0FFEFF090063BE0FF30
:102B8B0075F019EFA42474F582E5F03402F583E0B7
:102B9B00FFEF4405FFEFF0807290063BE0FF75F00E
:102BAB0019EFA42474F582E5F03402F583E0FFEF0E
:102BBB0054F0FFEFF090063BE0FF75F019EFA42403
:102BCB0074F582E5F03402F583E0FFEF4407FFEF85
:102BDB00F0803890063BE0FF75F019EFA42474F5F4
:102BEB0082E5F03402F583E0FFEF54F0FFEFF09055
:102BFB00063BE0FF75F019EFA42474F582E5F03481
:0D2C0B0002F583E0FFEF4400FFEFF07F00D3
:012C18002299
:1034B70090061EEBF0A3EAF0A3E9F0900621EDF0E9
:1034C700900622E4F0900623E4F09006227403F0BD
:1034D700900621E0FF900622E0FEEEC39F40030224
:1034E70035B890061EE0FBA3E0FAA3E0F9900622A8
:1034F700E0FF8F8275830012046FFFEF64D76003CC
:103507000235AF900621E0FFEF14FF900623EFF09E
:10351700900622E0FF900623E0FEEED39F40459001
:10352700061EE0FBA3E0FAA3E0F9900623E0FF8F75
:103537008275830012046FFF900623E0FEEEFD7C88
:1035470000ED2401FDEC3400FC90061EE0FBA3E037
:10355700FAA3E0F98D828C83EF1204CF900623E063
:1035670014F080AC900622E0FF7E00EF2401FFEE0E
:103577003400FE90061EE0FBA3E0FAA3E0F98F8279
:103587008E83E41204CF90061EE0FBA3E0FAA3E0CB
:10359700F9758205758300740112049C900621E079
:1035A70004F0900622E004F0900622E004F00234D2
:0635B700D7900621E0FFA1
:0135BD0022EB
:10303200900268E0FFEF600302311590038774404D
:10304200F0900388740AF090004FE0FFEF1207122D
:10305200308301308C03309505309E0730A709304C
:10306200B00A30B90C30C20E30CB1030D41230DD81
:103072001430EFCA3101CB30E6CD30F8DF00003139
:103082000A122C19900049EFF02212000690004912
:10309200EFF02212000E900049EFF022120016907B
:1030A2000049EFF022122D80900049EFF022120029
:1030B2001E900049EFF022120026900049EFF02204
:1030C20012002E900049EFF022124949900049EF78
:1030D200F0221248E5900049EFF0221207659000B5
:1030E20049EFF02212434E900049EFF0221238B419
:1030F200900049EFF02212492C900049EFF0221281
:1031020035BE900049EFF0227F061245DC9000495F
:10311200EFF022900050E0FFEFC4135407FFEF548A
:1031220007FFEF120712313B00314401314D0231EA
:103132005603315F040000316712494C900049EF99
:10314200F022122AAB900049EFF0221229389000A7
:1031520049EFF022121916900049EFF022120B5F8C
:06316200900049EFF0228D
:0B216A00900629EBF0A3EAF0A3E9F0D7
:1021750090062C7401F0900629E0FBA3E0FAA3E099
:10218500F9120507FFAEF0EF8EF012073821A60011
:102195000021CF04E8231605182370051C00002331
:1021A5009F900047E4F0D29CC2B5D2AC9005E37491
:1021B50001F090062CE4F0900629E0FBA3E0FAA3D9
:1021C500E0F9740475F0E812056A90062CE0FFEF5B
:1021D50060077812E6FFEF70037F01229005E5E0C6
:1021E50004F070069005E4E004F0781276009002A1
:1021F50068E0FFEF7023900045E0FF90004EE0FEA1
:10220500EE6F6015900629E0FBA3E0FAA3E0F9E480
:1022150075F00012056A7F0022900047E0FF744ABE
:102225002FF582E43400F583E0FF900000EFF09095
:102235000268E0FFEF702F7E007F4B900047E0FDC6
:10224500ED14FD124883900000E0FEEF6E604490AF
:102255000629E0FBA3E0FAA3E0F9E475F000120516
:102265006A7F0022802D7E007F4B900047E0FDEDC8
:1022750014FD1243C6900000E0FEEF6E6015900657
:1022850029E0FBA3E0FAA3E0F9E475F00012056A82
:102295007F0022123032900049E0FFEF701890065F
:1022A50029E0FBA3E0FAA3E0F9E475F00012056A62
:1022B5007F00220221A6D2B5C29C900048E4F078A6
:1022C500137600900048E0FF74592FF582E434013D
:1022D500F583E0FF8F99900048E004F0D2AC9002BE
:1022E50068E0FFEF705A900629E0FBA3E0FAA3E04F
:1022F500F9758202758300E475F000120589900670
:1023050029E0FBA3E0FAA3E0F9740575F0181205BE
:102315006A900629E0FBA3E0FAA3E0F9758202754D
:102325008300120532FFAEF0C3EF940AEE9400402D
:1023350003D38001C350030221A67F00220221A6F8
:10234500900629E0FBA3E0FAA3E0F9758202758304
:1023550000E475F000120589900629E0FBA3E0FA78
:10236500A3E0F9740575F01C12056A900629E0FBD7
:10237500A3E0FAA3E0F9758202758300120532FF26
:10238500AEF0C3EF9403EE94004003D38001C35035
:10239500030221A67F00220221A690062CE4F090DC
:1023A5000629E0FBA3E0FAA3E0F9E475F0001205C5
:0323B5006A7F0339
:0123B8002202
:1027AF00900609EFF090060AEBF0A3EAF0A3E9F028
:1027BF00900614E4F0A3E4F07B017A067909900502
:1027CF00DEE4F0A3742AF07D017C001239999006A3
:1027DF000AE0FBA3E0FAA3E0F99005DEE4F0A374AE
:1027EF002BF07D057C0012399990060AE0FBA3E0DF
:1027FF00FAA3E0F9EBC0E0EAC0E0E9C0E07B017AC0
:10280F00007901C8E9C8CCEACCCDEBCDD0E0F9D046
:10281F00E0FAD0E0FB7E007F1412043090060DE04A
:10282F00FBA3E0FAA3E0F99005DEE4F0A37430F027
:10283F007D027C0012399990060DE0FBA3E0FAA30C
:10284F00E0F9EBC0E0EAC0E0E9C0E07B017A007993
:10285F003DC8E9C8CCEACCCDEBCDD0E0F9D0E0FA59
:10286F00D0E0FB7E007F08120430900613E0FFEFEC
:10287F001313543FFF7E00900614EEF0A3EFF09079
:10288F000613E0FFEF54FCFFEF600E900615E00417
:10289F00F07006900614E004F0900614E0FEA3E03A
:1028AF00FFD3EF940AEE94004009900614E4F0A3CE
:1028BF00740AF0900610E0FBA3E0FAA3E0F990068B
:1028CF0014E0FCA3E0FD9005DEE4F0A37433F012F6
:1028DF003999900613E0FF900046EFF07B017A06DE
:1028EF0079139005DEE4F0A37432F07D017C0012C1
:1028FF003999900613E0FF7E00900610E0FBA3E0ED
:10290F00FAA3E0F9EBC0E0EAC0E0E9C0E07B017AAE
:10291F00007915C8E9C8CCEACCCDEBCDD0E0F9D021
:08292F00E0FAD0E0FB120430D5
:01293700227D
:1037C300900637E4F0A3E4F07B017A007945900595
:1037D300D3E4F0A3742AF07D017C00123A7C9000BC
:1037E30045E0FFEFC39401400B900045E0FFEFD3AA
:1037F300940F40069000457401F07B017A00790133
:103803009005D3E4F0A3742BF07D057C00123A7C81
:103813007B017A00793D9005D3E4F0A37430F07D09
:10382300027C00123A7C7B017A0079469005D3E44E
:10383300F0A37432F07D017C00123A7C900046E0E4
:10384300FFEFD3942840069000467428F09000467A
:10385300E0FFEF1313543FFF7E00900637EEF0A313
:10386300EFF0900046E0FFEF54FCFFEF600E900690
:1038730038E004F07006900637E004F0900637E075
:10388300FEA3E0FFD3EF940AEE94004009900637BD
:10389300E4F0A3740AF07B017A007915900637E00F
:1038A300FCA3E0FD9005D3E4F0A37433F0123A7C5B
:0138B30022F2
:041533004103CF0E93
:1041870012421F9002761206D50000000090028F9F
:104197001206D5000000009002A81206D500000004
:1041A700009002C11206D5000000009002DA120644
:1041B700D5000000009002F31206D5000000009021
:1041C700030C1206D5000000009003251206D50047
:1041D70000000090033E1206D50000000090035730
:1041E7001206D5000000009003701206D5000000EB
:1041F700009003A21206D5000000009003BB120630
:10420700D5000000009003877440F0A3740AF0A360
:084217001206D5800080002290
:10443C00E49005CEF0A31206D500000000E4900530
:10444C00CEF09005CEE0FFC3940E502BEF75F01913
:10445C00A42472F9740235F0FA7B01E02410FEE416
:10446C00339005DEF0A3CEF07D017C0012399990DB
:10447C0005CEE004F080CB124690E4FCFDFE9005E6
:10448C00CF1206C97B017A0579CF9005DEE4F0A343
:0A449C0074A0F07D017C0012399934
:0144A60022F3
:10421F00E49005C5F0A31206D5000000009005CA72
:10422F001206D500000000E49005C5F09005C5E02A
:10423F00FFC3940E502BEF75F019A42472F974027A
:10424F0035F0FA7B01E02410FEE4339005D3F0A3A0
:10425F00CEF07D017C00123A7C9005C5E004F08021
:10426F00CB124690E4FCFDFE9005CA1206C97B01F5
:10427F007A0579C69005D3E4F0A374A0F07D017C94
:10428F0000123A7C9005C6E0FCA3E0FDA3E0FEA37C
:10429F00E0FFA3E0F8A3E0F9A3E0FAA3E0FBC31269
:0742AF00069260031225C70F
:0142B60022E5
:1025C700E4900271F0A3F0A37403F0A37440F0A3A6
:1025D7007406F0A31206D50000000090027A1206D6
:1025E700D50000000090028A7401F0E4A3F0A37400
:1025F70003F0A37440F0A37406F0A31206D50000FD
:1026070000009002931206D5000000009002A37408
:1026170002F0E4A3F0A37403F0A37440F0A37406DC
:10262700F0A31206D5000000009002AC1206D500F8
:102637000000009002BC7403F0E4A3F0A37403F05D
:10264700A37440F0A37406F0A31206D5000000009F
:102657009002C51206D5000000009002D57404F060
:10266700E4A3F0A37403F0A37440F0A37406F0A3EB
:102677001206D5000000009002DE1206D500000009
:10268700009002EE7405F0E4A3F0A37403F0A374C2
:1026970040F0A37406F0A31206D5000000009002D4
:1026A700F71206D5000000009003077406F0E4A3B4
:1026B700F0A37403F0A37440F0A37406F0A312060A
:1026C700D5000000009003101206D500000000900E
:1026D70003207407F0E4A3F0A37403F0A37440F09D
:1026E700A37406F0A31206D5000000009003291278
:1026F70006D5000000009003397408F0A37402F0B7
:10270700A314F0A37440F0A3740AF0A31206D50033
:102717000000009003527409F0A37402F0A314F0B0
:10272700A37440F0A3740AF0A31206D500000000BA
:1027370090036B740AF0A37402F0A314F0A374401F
:10274700F0A3740AF0A31206D500000001900384D9
:10275700740BF0A37401F0E4A3F0A37440F0A37426
:102767000AF0A31206D58000800090039D740CF038
:10277700A37402F0E4A3F0A37440F0A3740AF0A3D7
:102787001206D5000000009003B6740DF0A3740282
:10279700F0E4A3F0A37440F0A3740AF0A31206D5E3
:0827A7000000000012443C2276
:10469000E49005D3F0A3F0A3F09005D4F0E49005E6
:1046A000D5F09005D4E075F019A42472F9740235A0
:1046B000F0FA7B01A3E07E0029F9EE3AFA120456E3
:1046C000FF9005D3E06F9036C3939005D3F090052B
:1046D000D5E004F0E0B404CA9005D4E004F0E0B4FE
:0746E0000EBB9005D3E0FFC3
:0146E70022B0
:0300000002404D6E
:10404D0043AF01787FE4F6D8FD9000007FFF7E80BE
:0D405D00E4F0A3DFFCDEFA7581140240A53B
:1015370060660507000000000000000000000000D2
:101547000000000000000000000000000000000094
:101557000000000000000000000000000000000084
:101567000000000000000000000000000000000074
:101577000000000000000000000000000000000064
:101587000000000000000000000000000000000054
:1015970000000000000000000000410502004405B3
:0515A70003000000003C
:103CE400E4FF9005C5F012490A1248D1D2AAD2A81D
:103CF400D288D28AE4FFEF75F022A42407F582E487
:103D04003405F583E4F0A3F09005C5F0EF75F022D7
:103D1400A42409F582E43405F583C083C0829005A8
:103D2400C5E0FED082D08375F008120706E4F0A344
:103D3400F0EF75F022A4240BF582E43405F58375C5
:103D4400F008EE120706E4F0A3F0EF75F022A424C5
:103D54000DF582E43405F583C083C0829005C5E087
:103D6400FED082D08375F008120706E4F0A3F0EFCA
:103D740075F022A4240FF582E43405F58375F00868
:103D8400EE120706E4F0A3F09005C5E004F0E06449
:0F3D9400046003023D100FEF64036003023CFA6A
:013DA30022FD
:03000300024512A1
:10451200C0E0C0F0C083C082C0D0E8C0E0ECC0E020
:06452200EDC0E0EFC0E077
:10452800900507E0C3135403FF75F008A42409F5A8
:1045380082E43405F583E475F0011204F19005076F
:10454800E0FCA3E0FDEF75F008A4240BF582E43449
:0845580005F583ECF0A3EDF082
:10456000D0E0FFD0E0FDD0E0FCD0E0F8D0D0D082A9
:07457000D083D0F0D0E0324F
:030013000245772C
:10457700C0E0C0F0C083C082C0D0E8C0E0ECC0E0BB
:06458700EDC0E0EFC0E012
:10458D00900507E0C3135403FF75F008A4242BF521
:10459D0082E43405F583E475F0011204F19005070A
:1045AD00E0FCA3E0FDEF75F008A4242DF582E434C2
:0845BD0005F583ECF0A3EDF01D
:1045C500D0E0FFD0E0FDD0E0FCD0E0F8D0D0D08244
:0745D500D083D0F0D0E032EA
:03000B000244A705
:1044A700C0E0C0F0C083C082C0D0E8C0E0ECC0E08C
:0644B700EDC0E0EFC0E0E3
:1044BD00758CFF758AFF900507E0C3135403FF75D4
:1044CD00F008A4244DF582E43405F583E475F0017C
:1044DD001204F1900507E0FCA3E0FDEF75F008A4D0
:0E44ED00244FF582E43405F583ECF0A3EDF0E6
:1044FB00D0E0FFD0E0FDD0E0FCD0E0F8D0D0D0820F
:07450B00D083D0F0D0E032B4
:03002B00021C10A4
:101C1000C0E0C0F0C083C082C0D0E8C0E0ECC0E04B
:101C2000EDC0E0EEC0E0EFC0E0C2CF900507E0FEFF
:101C3000A3E08EF01207381C4B01FF1CF503FF1DBB
:101C40008705FF1E1A07FF00001EB390050CE02455
:101C5000FFFF90050BE03407FE900523E0FCA3E0B6
:101C6000FDC3EF9DFFEE9C90050DF0A3EFF09005F6
:101C700009E0FFA3E090050FCFF0A3EFF09005215E
:101C8000E4F0A3F090052EE024FFFF90052DE03452
:101C900007FE900545E0FCA3E0FDC3EF9DFFEE9C31
:101CA00090052FF0A3EFF090052BE0FFA3E0900547
:101CB00031CFF0A3EFF0900543E4F0A3F09005508E
:101CC000E024FFFF90054FE03407FE900567E0FC3D
:101CD000A3E0FDC3EF9DFFEE9C900551F0A3EFF054
:101CE00090054DE0FFA3E0900553CFF0A3EFF090F7
:101CF0000565021E1690050BE0FEA3E0FFC39005EC
:101D000014E09FFF900513E09E900515F0A3EFF0FF
:101D1000900511E0FFA3E0900517CFF0A3EFF0903E
:101D20000509E4F0A3F090052DE0FEA3E0FFC390C9
:101D30000536E09FFF900535E09E900537F0A3EF54
:101D4000F0900533E0FFA3E0900539CFF0A3EFF06A
:101D500090052BE4F0A3F090054FE0FEA3E0FFC355
:101D6000900558E09FFF900557E09E900559F0A31D
:101D7000EFF0900555E0FFA3E090055BCFF0A3EFF7
:101D8000F090054D021E16900513E0FEA3E0FFC380
:101D900090051CE09FFF90051BE09E90051DF0A3A1
:101DA000EFF0900519E0FFA3E090051FCFF0A3EF3F
:101DB000F0900511E4F0A3F0900535E0FEA3E0FFFC
:101DC000C390053EE09FFF90053DE09E90053FF0EB
:101DD000A3EFF090053BE0FFA3E0900541CFF0A317
:101DE000EFF0900533E4F0A3F0900557E0FEA3E098
:101DF000FFC3900560E09FFF90055FE09E90056146
:101E0000F0A3EFF090055DE0FFA3E0900563CFF055
:101E1000A3EFF0900555E4021EB090051BE0FEA371
:101E2000E0FFC3900524E09FFF900523E09E90050E
:101E300025F0A3EFF0900521E0FFA3E0900527CF68
:101E4000F0A3EFF0900519E4F0A3F090053DE0FE5B
:101E5000A3E0FFC3900546E09FFF900545E09E90FC
:101E60000547F0A3EFF0900543E0FFA3E09005499C
:101E7000CFF0A3EFF090053BE4F0A3F090055FE016
:101E8000FEA3E0FFC3900568E09FFF900567E09E1A
:101E9000900569F0A3EFF0900565E0FFA3E09005E1
:101EA0006BCFF0A3EFF090055DE4F0A3F090050791
:101EB000F0A3F0900508E004F07006900507E00438
:101EC000F0900507E05407F0D0E0FFD0E0FED0E04E
:101ED000FDD0E0FCD0E0F8D0D0D082D083D0F0D0DC
:021EE000E032EE
:0B1EE20090062DEBF0A3EAF0A3E9F05E
:051EED009005EFE4F098
:101EF2009006307401F090062DE0FBA3E0FAA3E017
:101F0200F9120507FFAEF0EF8EF01207381F1F001F
:101F1200001F4900C120C000C40000215090062DBE
:101F2200E0FBA3E0FAA3E0F9758202758300E47591
:101F3200F00012058990062DE0FBA3E0FAA3E0F978
:101F4200E475F0C112056A90062DE0FBA3E0FAA346
:101F5200E0F9758202758300120532FFAEF0C3EF1D
:101F62009414EE94004003D38001C340037F002207
:101F7200900502E0FFEF75F022A42417F582E43405
:101F820005F583E0FEA3E0FFCBEFCBCAEECAE4F98E
:101F9200F8900502E0FFEF75F022A4240FF582E429
:101FA2003405F583E0FEA3E0FFE4FCFDEF2BFBEE3E
:101FB2003AFAED39F9EC38F8900502E0FFEF75F0E6
:101FC20022A4241FF582E43405F583E0FEA3E0FF9A
:101FD200E4FCFDEB2FFBEA3EFAE93DF9E83CF89020
:101FE2000502E0FFEF75F022A42427F582E4340510
:101FF200F583E0FEA3E0FFE4FCFDEB2FFFEA3EFEEB
:10200200E93DFDE83CFC78121206B6ECC0E0EDC0FA
:10201200E0EEC0E0EFC0E0900502E0FFEF75F022D5
:10202200A42415F582E43405F583E0FEA3E0FF90D5
:102032000502E0FDED75F022A4240DF582E43405DD
:10204200F583E0FCA3E0FDED2FFFEC3EFE900502E0
:10205200E0FDED75F022A4241DF582E43405F5833C
:10206200E0FCA3E0FDEF2DFFEE3CFE900502E0FD5B
:10207200ED75F022A42425F582E43405F583E0FC15
:10208200A3E0FDEF2DFFEE3CFECBEFCBCAEECAE4A0
:10209200F9F8D0E0FFD0E0FED0E0FDD0E0FC120580
:1020A200F29005031206C9900630E4F090062DE086
:1020B200FBA3E0FAA3E0F9E475F0C412056A900606
:1020C20030E0FFEF70037F01227FFF7EFF7D007C07
:1020D20000900503E0F8A3E0F9A3E0FAA3E0FBD344
:1020E2001206925027900503E0FCA3E0FDA3E0FE58
:1020F200A3E0FF900502E0FB75F019EBA4243EF586
:1021020082E5F03403F5831206C9801B900502E0D4
:10211200FF75F019EFA4243EF582E5F03403F58350
:102122001206D50000FFFF900502E004F0900502C0
:10213200E0FFEFC394034005900502E4F09005F13F
:10214200E004F070069005F0E004F0021F1F900614
:1021520030E4F090062DE0FBA3E0FAA3E0F9E47589
:07216200F00012056A7F0383
:012169002253
:10490A005389F0438905758CFF758AFFD2A9D28C29
:01491A00227A
:1048D100D2ADE4F5C875CCFF75CDE775CAFF75CBD0
:0448E100E7D2CA222E
:1015AC004105740041057500410579124A057A0020
:1015BC00000000000000000000060C00000000000D
:0915CC000041058F00410590006B
:1048A600D2EBE4900591F0A3F0900595F0A3F0907B
:0648B6000599F0A3F022B9
:10483700EF25E054FE900573F09005CDE0900574E8
:10484700F09005D1E0900575F0A3EBF0A3EAF0A393
:09485700E9F090058F7401F022D4
:100F17009005C5EBF0A3EAF0A3E9F0E49005F2F041
:100F27009005C804F0120507FFAEF0E5F060030274
:100F3700128AEF1207120F6B000F7D4C0FA8570F85
:100F4700CC5D101D66105A7110AB7810EC85111727
:100F57008B11689311A59B11FBA2123CAE1260B3D3
:100F67000000128A9005C5E0FBA3E0FAA3E0F9E4CC
:100F770075F04C12056A90058FE07002FF22E4902D
:100F8700058FF0D2EEC2EDD2EFD2ED9005C8F0900A
:100F970005C5E0FBA3E0FAA3E0F9E475F0571205F5
:100FA7006A9005C8E070037F0122C2EFE4900595BF
:100FB700F0A3F09005C5E0FBA3E0FAA3E0F9E47520
:100FC700F05D12056A7A0579739005CC7401F0A378
:100FD7007405F0A37473F0A37401F0FB7A05799597
:100FE700122EE1C3EF6480948250028001C3500344
:100FF7007F0022900590E06041C2EDC2EFD2EDE4A0
:101007009005C8F09005C5E0FBA3E0FAA3E0F9E47A
:1010170075F06612056A9005C8E070037F0122D259
:10102700EFE4900590F09005C5E0FBA3E0FAA3E09C
:10103700F9E4F5F012056A7F0022E4900595F0A324
:10104700F09005C5E0FBA3E0FAA3E0F9E475F071C1
:1010570012056A9005CCE4F0A37400F0A3740CF0B9
:10106700900574E09005CFF07B017A057995122EF3
:10107700E1C3EF6480948250028001C350037F0074
:1010870022900590E06041C2EDC2EFD2EDE49005F9
:10109700C8F09005C5E0FBA3E0FAA3E0F9E475F01A
:1010A7007812056A9005C8E070037F0122D2EFE449
:1010B700900590F09005C5E0FBA3E0FAA3E0F9E402
:1010C700F5F012056A7F0022C2EDD2EFD2EDE4906F
:1010D70005C8F09005C5E0FBA3E0FAA3E0F9E475C5
:1010E700F08512056A9005C8E070037F0122C2EF00
:1010F700900573E04401F0E4900595F0A3F09005A6
:10110700C5E0FBA3E0FAA3E0F9E475F08B12056AEA
:101117007A0579739005CC7401F0A37405F0A37474
:1011270073F0A37401F0FB7A057995122EE1C3EFF2
:101137006480948250028001C350037F002290058F
:1011470090E06041C2EDC2EFD2EDE49005C8F090A7
:1011570005C5E0FBA3E0FAA3E0F9E475F0931205F7
:101167006A9005C8E070037F0122D2EFE4900590F2
:10117700F09005C5E0FBA3E0FAA3E0F9E4F5F0126F
:10118700056A7F0022E4900591F0A3F09005C5E081
:10119700FBA3E0FAA3E0F9E475F09B12056A7A0570
:1011A70079849005CC7401F0A37405F0A37484F0DE
:1011B700900575E09005CFF07B017A0579911232A1
:1011C7009AC3EF6480948250028001C350037F006A
:1011D70022900590E06041C2EDC2EFD2EDE49005A8
:1011E700C8F09005C5E0FBA3E0FAA3E0F9E475F0C9
:1011F700A212056A9005C8E070037F0122D2EFE4CE
:10120700900590F09005C5E0FBA3E0FAA3E0F9E4B0
:10121700F5F012056A7F0022C2EDC2EFD2EDE4902D
:1012270005C8F09005C5E0FBA3E0FAA3E0F9E47573
:10123700F0AE12056A9005C8E070037F0122D2EF75
:10124700E4900599F0A3F09005C5E0FBA3E0FAA3AD
:10125700E0F9E475F0B312056A7B017A0579991212
:101267003B5BC3EF6480948250028001C350037FCD
:1012770000229005F4E004F070069005F3E004F016
:10128700020F6BE49005C8F09005C5E0FBA3E0FAF8
:0B129700A3E0F9E4F5F012056A7F0304
:0112A2002229
:0B329A009005C9EBF0A3EAF0A3E9F0F7
:1032A5009005D07401F0120507FFAEF0E5F060035C
:1032B500023391EF2436604224E4700302337A240A
:1032C500E66003023391E490056DF09005CFE0FFD1
:1032D50090056DE0C39F400302338AE490056FF0CB
:1032E500C2EEC2ED9005D0F09005C9E0FBA3E0FA6F
:1032F500A3E0F9E475F0CA12056A9005D0E0700301
:103305007F0122E490056EF0D2ED90056FE0FF2578
:10331500E0FFA2ECE4334FF0C2ED90056EE004F05F
:10332500E0B408E490056FE0FF9005CCE0FBA3E076
:10333500FAA3E0F990056DE0F582758300EF1204BC
:10334500CF90056DE004F0D2EE9005CFE0FF90053B
:103355006DE0C39F5004C2EF8002D2EFD2EDE4903E
:1033650005D0F09005C9E0FBA3E0FAA3E0F9E47508
:10337500F0E612056A9005D0E070037F0122C2EDE8
:10338500C2EE0232D0D2EEE4900590F0E49005D082
:10339500F09005C9E0FBA3E0FAA3E0F9E4F5F0122B
:0433A500056A7F0333
:0133A9002201
:0B2EE1009005C9EBF0A3EAF0A3E9F0B4
:102EEC009005D07401F01205071207382F1000005E
:102EFC002F6100FF2F9301072FC4010E2FE7011044
:102F0C0000003019D2EEE4900570F09005CFE0FF90
:102F1C00900570E0C39F40030230149005CCE0FB99
:102F2C00A3E0FAA3E0F9900570E0F5827583001236
:102F3C00046F900572F0900570E004F0C2EDE4901F
:102F4C0005D0F09005C9E0FBA3E0FAA3E0F9E47525
:102F5C00F0FF12056A9005D0E070037F0122E49027
:102F6C000571F0900572E0FF25E0F092EFD2EDE4F0
:102F7C009005D0F09005C9E0FBA3E0FAA3E0F9744A
:102F8C000175F00712056A9005D0E070037F0122ED
:102F9C00C2ED900571E004F0E0B408C7C2EEC2EDDA
:102FAC00E49005D0F09005C9E0FBA3E0FAA3E0F9AA
:102FBC00740175F00E12056A9005D0E070037F0164
:102FCC0022D2EDE49005D0F09005C9E0FBA3E0FA25
:102FDC00A3E0F9740175F01012056A9005D0E07049
:102FEC00037F0122C2EDD2EE20EC03022F179005D5
:102FFC00907401F09005C9E0FBA3E0FAA3E0F9E4BA
:10300C00F5F012056A7F0222E4900590F0E4900539
:10301C00D0F09005C9E0FBA3E0FAA3E0F9E4F5F0E9
:05302C0012056A7F039C
:01303100227C
:0B3B5B009005C9EBF0A3EAF0A3E9F02D
:103B6600A37401F0120507FFAEF06003023C08EEF5
:103B76006003023C087E057F847D0A124883900517
:103B86008EE06F7079900584E0FCA3E0FDA3E0FE73
:103B9600A3E0FF9003891206C9900588E06022140D
:103BA600704C900589E0FEA3E0FFE4FCFD9003A2C3
:103BB6001206C990039F7401F09003CF740DF08034
:103BC6002D900589E0FEA3E0FFE4FCFD9003A21220
:103BD60006C990058BE0FEA3E0FFE4FCFD9003BB65
:103BE6001206C9E490039FF09003CF740EF0900282
:103BF60067E0FF90058DE0FEEF4E900267F0E478F7
:103C06000CF6E49005CCF09005C9E0FBA3E0FAA31E
:0A3C1600E0F9E4F5F012056A7F03FF
:013C20002281
:053DA4009005C9EFF0DD
:103DA9009005CE1206D5000000009005CAE0FCA3DC
:103DB900E0FDA3E0FEA3E0FFE41202A19005C9E043
:103DC90075F019A4247FF582E5F03402F583E0F853
:103DD900A3E0F9A3E0FAA3E0FB12012E9005C9E0E4
:103DE90075F019A42483F582E5F03402F583E0F82F
:103DF900A3E0F9A3E0FAA3E0FB12003D9005CE127F
:103E090006C97FFF7EFF7D7F7C4B9005CEE0F8A33E
:103E1900E0F9A3E0FAA3E0FB120234600A40087457
:103E2900FFFFFEFD7C0022E4FFFEFDFC9005CEE0D5
:103E3900F8A3E0F9A3E0FAA3E0FB1202345006E488
:103E4900FFFEFDFC229005CEE0FCA3E0FDA3E0FE11
:063E5900A3E0FF1202DFEE
:013E5F002240
:1040EA00E49005C5F0A31206D5000000009005CAA9
:1040FA001206D500000000E49005C5F09005C5E061
:10410A00FFC3940E5030EF75F019A4247EF974029F
:10411A0035F0FA7B01E075F003A42450FEE435F093
:10412A009005D3F0A3CEF07D037C00123A7C900573
:10413A00C5E004F080C61246E8E4FCFDFE9005CA1C
:10414A001206C97B017A0579C69005D3E4F0A374F7
:10415A00A1F07D017C00123A7C9005C6E0FCA3E048
:10416A00FDA3E0FEA3E0FFA3E0F8A3E0F9A3E0FAD1
:0C417A00A3E0FBC3120692600312474052
:014186002216
:053F0E009005C5EFF075
:103F13009005CE1206D5000000009005C6E0FCA374
:103F2300E0FDA3E0FEA3E0FF9005C5E0FB75F019FB
:103F3300A4247FF582E5F03402F5831206C99005C7
:103F4300CAE0FCA3E0FDA3E0FEA3E0FF75F019EBDC
:103F5300A42483F582E5F03402F5831206C9EB75D8
:103F6300F019A4247EF9740235F0FA7B019005C59B
:103F7300E075F003A42450FEE435F09005DEF0A3D1
:103F8300CEF07D037C001239991246E8E4FCFDFE75
:103F93009005CE1206C97B017A0579CE9005DEE441
:0C3FA300F0A374A1F07D017C001239999C
:013FAF0022EF
:1046E800E49005D9F0A3F0A3F09005DAF0E4900582
:1046F800DBF09005DAE075F019A4247EF974023530
:10470800F0FA7B01A3E07E0029F9EE3AFA1204568A
:10471800FF9005D9E06F9036C3939005D9F09005C6
:10472800DBE004F0E0B40CCA9005DAE004F0E0B491
:074738000EBB9005D9E0FF64
:01473F002257
:093C21009005D3EFF0A3EDF0FBD8
:103C2A00A31206D500000000EB640170439005D38F
:103C3A00E0FF75F019A4247EF582E5F03402F583DD
:103C4A007401F0EF75F019A4247EF9740235F0FAC4
:103C5A007B019005D3E075F003A42450FEE435F00F
:103C6A009005DEF0A3CEF07D037C001239998046E0
:103C7A009005D4E070409005D3E0FF75F019A424B4
:103C8A007EF582E5F03402F583E4F0EF75F019A4CD
:103C9A00247EF9740235F0FA7B019005D3E075F0C1
:103CAA0003A42450FEE435F09005DEF0A3CEF07DA7
:103CBA00037C001239991246E8E4FCFDFE9005D512
:103CCA001206C97B017A0579D59005DEE4F0A37462
:093CDA00A1F07D017C0012399972
:013CE30022BE
:10474000E49005CEF0A31206D500000000E4900529
:10475000CEF09005CEE0FFC3940E500DE4FD123C68
:10476000219005CEE004F080E91246E8E4FCFDFE6D
:104770009005CF1206C97B017A0579CF9005DEE45A
:0C478000F0A374A1F07D017C00123999B7
:01478C00220A
:1015D5004105C00041059D0041059E0041059F0054
:0B15E6009005C5EBF0A3EAF0A3E9F0CC
:0515F100E49005E6F0A6
:1015F6009005C804F0120507FFAEF0E5F06003029F
:1016060018FDEF24ED603724F670030216C224F5A8
:10161600700302172C24F470030218142434600398
:101626000218FD9005C5E0FBA3E0FAA3E0F99000DF
:1016360002E4F5F0120589E475F01312056A9005C7
:10164600C5E0FBA3E0FAA3E0F9900002120532C35D
:101656009401E5F094004003D38001C340037F006A
:10166600229005C0E075F026A424F7F582E5F03453
:1016760003F583E0706A90059DF09005C0E075F073
:1016860026A424F7F582E5F03403F583E07036905E
:10169600059DE06408602E9005C0E0045407F090B4
:1016A600059DE004F0E49005C8F09005C5E0FBA3B5
:1016B600E0FAA3E0F9E475F01D12056A9005C8E0AA
:1016C60070B87F012290059DE0B408149005C5E02E
:1016D600FBA3E0FAA3E0F9E4F5F012056A7F002225
:1016E6009005C0E075F026A424D2F9740335F0FA0B
:1016F6007B01EAC0E0E9C0E07A0579A078A07C0524
:101706007D01D0E0F9D0E0FA7E007F20120430E4BB
:101716009005C8F09005C5E0FBA3E0FAA3E0F9E464
:1017260075F02812056A9005C8E070037F012290C3
:10173600059E7407F0E490059FF090059EE0FFA3D8
:10174600E0C39F4003021826E025E025E024A4F527
:1017560082E43405F583E0FCA3E0FDA3E0FEA3E00C
:10176600FF90059FE025E025E024A0F582E43405FE
:10177600F583E0F8A3E0F9A3E0FAA3E0FBD31206B1
:1017860092407490059FE025E025E024A0F582E4D0
:101796003405F583E0FCA3E0FDA3E0FEA3E0FF90A3
:1017A60005C11206C990059FE025E025E024A4F5B1
:1017B60082E43405F583E0FCA3E0FDA3E0FEA3E0AC
:1017C600FF90059FE025E025E024A0F582E434059E
:1017D600F5831206C99005C1E0FCA3E0FDA3E0FE77
:1017E600A3E0FF90059FE025E025E024A4F582E430
:1017F6003405F5831206C9E49005C8F09005C5E0E6
:10180600FBA3E0FAA3E0F9E475F03412056A90054B
:10181600C8E070037F012290059FE004F0021740A4
:1018260090059EE014F0E0600302173B9005B0E0DF
:10183600FCA3E0FDA3E0FEA3E0FF9005ACE0F8A367
:10184600E0F9A3E0FAA3E02FFFEA3EFEE93DFDE85A
:101856003CFC78011206A39005C0E075F019A4249B
:1018660076F582E5F03402F5831206C99005C0E0EC
:1018760075F019A4247EF582E5F03402F583E06064
:10188600409005C0E075F019A42476F582E5F034A1
:1018960002F583E0FCA3E0FDA3E0FEA3E0FF9005D4
:1018A600CA1206C99005C0E0FF123DA49005C0E02B
:1018B60075F019A4247AF582E5F03402F583120650
:1018C600C99005C0E075F026A424F7F582E5F0344A
:1018D60003F583E4F09005E8E004F070069005E770
:1018E600E004F09005C5E0FBA3E0FAA3E0F9E4F517
:1018F600F012056A7F0022E49005C8F09005C5E065
:0F190600FBA3E0FAA3E0F9E4F5F012056A7F0312
:0119150022AF
:10491B0053890F438910758D8A758BD0D2ABD28E8C
:01492B002269
:1036C30000BC01BD02BE03BF04B805B906BA07BBFF
:1036D30008B409B50AB60BB70CB00DB10EB20FB3EF
:1036E30010AC11AD12AE13AF14A815A916AA17ABDF
:1036F30018A419A51AA61BA71CA01DA11EA21FA3CF
:10370300209C219D229E239F24982599269A279BBE
:10371300289429952A962B972C902D912E922F93AE
:10372300308C318D328E338F34883589368A378B9E
:10373300388439853A863B873C803D813E823F838E
:1037430040FC41FD42FE43FF44F845F946FA47FB7E
:1037530048F449F54AF64BF74CF04DF14EF24FF36E
:1037630050EC51ED52EE53EF54E855E956EA57EB5E
:1037730058E459E55AE65BE75CE05DE15EE25FE34E
:1037830060DC61DD62DE63DF64D865D966DA67DB3E
:1037930068D469D56AD66BD76CD06DD16ED26FD32E
:1037A30070CC71CD72CE73CF74C875C976CA77CB1E
:1037B30078C479C57AC67BC77CC07DC17EC27FC30E
:10488300E4FCCBEDCB1DEB60160FEFCAEECA700153
:104893000E14F5828A83E06C9036C393FC80E3CFD9
:0248A300ECCF58
:0148A50022F0
:1000360002034BE86480F8E933E83360110460F0AA
:10004600ED33EC337009E8FCE9FDEAFEEBFF220430
:1000560060DED3EB9FEA9EE99DE8C2E78CF0C2F72B
:1000660095F0400CE8CCF8E9CDF9EACEFAEBCFFBF7
:1000760012031685D0F05804700320D5B3E8047037
:10008600075002B2D502035592D5EC0460F7E4CCD2
:10009600C0E0C398F8603B94186008400DD0E0FBC0
:1000A60002032DE4FBFAC9FC8028E830E406E4C923
:1000B600FBE4CAFCE830E305E4C9CACBFCE8540714
:1000C6006010F8C3E913F9EA13FAEB13FBEC13FC1F
:1000D600D8F130F52FC3E49CFCEF9BFFEE9AFEEDC2
:1000E60099FDD0E0FBEF4E4D4C701222DB0302036C
:1000F60052EC2CFCEF33FFEE33FEED33FDED30E733
:10010600EB02032DEF2BFFEE3AFEED39FDD0E0FBBF
:1001160050130BBB0003020355ED13FDEE13FEEF68
:0801260013FFEC13FC02032D92
:10012E00EC4D6011E8497017ED33EC3304600DE4CB
:10013E00FCFFFEFD22E933E8330470F802034B1294
:10014E00031658046009E4CC248150062850090295
:10015E000355284003020352C0E0EB4A7044B980B5
:10016E0006D0E0FB020341EF4E701CBD8008EBFF92
:10017E00EAFEE9FD80EBE98DF0A4FEE5F002021740
:10018E00E9CDF9EAFEEBFFEF89F0A4FCE5F0CE89AC
:10019E00F0A42EFFE435F0CD89F0A42DFEE435F069
:1001AE008067EF4E7005BD80D780C3EF8BF0A4AC97
:1001BE00F0EE8BF0A42CFCE435F0F8EF8AF0A42CD2
:1001CE00E5F038FCE433CB8DF0A42CFCE5F03BF8E5
:1001DE00EE8AF0A42CFCE5F038F8E433CF89F0A4D5
:1001EE002CFCE5F038CF3400CE89F0A42FFFE5F0DB
:1001FE003EFEE433C98DF0A42EFEE5F039CD8AF033
:10020E00A42FFFE5F03EFEE43DFD33D0E0FB5007AA
:10021E000BBB000F020355EC2CFCEF33FFEE33FE4D
:06022E00ED33FD02032D7B
:1002340074F8CC6480CCC86480C8F582046043C37D
:10024400EB9FF5F0EA9E42F0E99D42F0E89C45F010
:1002540060305018E5825FFFE582F42B5582FB5035
:10026400210ABA001D09B90019088016E5825BFB52
:10027400E582F42F5582FF50090EBE00050DBD0026
:10028400010CC3EB9FF5F0EA9E42F0E99D42F0E8D1
:0D0294009C45F06007CC4820E701B3EC2248
:1002A10075F020800E75F010800575F0087D007ED8
:1002B100007F003392D530D503120684EC33401011
:1002C100EF33FFEE33FEED33FDEC33FCD5F0ED22E1
:0E02D100E5F0247EA2D513CC92E7CDCEFF221D
:1002DF00EDD2E7CD33EC3392D524814006E4FFFE17
:1002EF00FDFC22FCE4CFCECDCC24E0501174FF8076
:1002FF00EDC3CC13CCCD13CDCE13CECF13CF047013
:07030F00F030D5DE02068488
:10031600E9D2E7C933E833F892D5EDD2E7CD33EC2D
:0703260033FC5002B2D522A6
:10032D00EC30E7100FBF000C0EBE00080DBD000431
:10033D000BEB6014A2D5EB13FCED92E7FD2274FFDD
:10034D00FCFDFEFF22E480F8A2D574FF13FC7D8036
:03035D00E480EF4A
:10406A000242B7E493A3F8E493A34003F68001F273
:10407A0008DFF48029E493A3F85407240CC8C33357
:10408A00C4540F4420C8834004F456800146F6DF26
:10409A00E4800B01020408102040809012A3E47E01
:1040AA00019360BCA3FF543F30E509541FFEE4931B
:1040BA00A360010ECF54C025E060A840B8E493A3E2
:1040CA00FAE493A3F8E493A3C8C582C8CAC583CA0D
:1040DA00F0A3C8C582C8CAC583CADFE9DEE780BEC5
:0115E5000005
:10036000E709F608DFFA8046E709F208DFFA803E7F
:1003700088828C83E709F0A3DFFA8032E309F6086C
:10038000DFFA8078E309F208DFFA807088828C83D4
:10039000E309F0A3DFFA806489828A83E0A3F60888
:1003A000DFFA805889828A83E0A3F208DFFA804C62
:1003B00080D280FA80C680D4806980F28033801039
:1003C00080A680EA809A80A880DA80E280CA8033A2
:1003D00089828A83ECFAE493A3C8C582C8CCC5831A
:1003E000CCF0A3C8C582C8CCC583CCDFE9DEE780EA
:1003F0000D89828A83E493A3F608DFF9ECFAA9F069
:10040000EDFB2289828A83ECFAE0A3C8C582C8CCBE
:10041000C583CCF0A3C8C582C8CCC583CCDFEADED7
:10042000E880DB89828A83E493A3F208DFF980CC39
:1004300088F0EF60010E4E60C388F0ED2402B40432
:100440000050B9F582EB2402B4040050AF232345D9
:0604500082239003B0734B
:10045600BB010689828A83E0225002E722BBFE02A4
:09046600E32289828A83E49322D7
:10046F00BB010CE58229F582E5833AF583E0225042
:10047F0006E92582F8E622BBFE06E92582F8E2228C
:0D048F00E58229F582E5833AF583E49322A6
:10049C00BB010FF8E58229F582E5833AF583E02864
:1004AC00F0225009C58229F8E58226F622BBFE0906
:1004BC00C58229F8E22582F222F8EA2583F583E940
:0304CC0093282250
:1004CF00F8BB010DE58229F582E5833AF583E8F063
:1004DF00225006E92582C8F622BBFE05E92582C80F
:0204EF00F222F7
:1004F100C5F0F8A3E028F0C5F0F8E5821582700296
:060501001583E038F02232
:10050700BB010A89828A83E0F5F0A3E022500687BF
:10051700F009E71922BBFE07E3F5F009E319228981
:0B052700828A83E493F5F074019322B4
:10053200BB0110E58229F582E5833AF583E0F5F007
:10054200A3E0225009E92582F886F008E622BBFEE4
:100552000AE92582F8E2F5F008E222E5832AF5832A
:08056200E993F5F0A3E99322EF
:10056A00BB010A89828A83F0E5F0A3F0225006F7DC
:0F057A0009A7F01922BBFE06F3E5F009F31922D9
:10058900F8BB0111E58229F582E5833AF583E8F0A4
:10059900E5F0A3F0225009E92582C8F608A6F02261
:0D05A900BBFE09E92582C8F2E5F008F22248
:1005B60075F008758200EF2FFFEE33FECD33CDCCFC
:1005C60033CCC58233C5829BED9AEC99E58298407F
:1005D6000CF582EE9BFEED9AFDEC99FC0FD5F0D65C
:1005E600E4CEFBE4CDFAE4CCF9A88222B800C1B986
:1005F6000059BA002DEC8BF084CFCECDFCE5F0CBC4
:10060600F97818EF2FFFEE33FEED33FDEC33FCEBFC
:1006160033FB10D703994004EB99FB0FD8E5E4F9B7
:10062600FA227818EF2FFFEE33FEED33FDEC33FCA4
:10063600C933C910D7059BE99A4007EC9BFCE99A98
:10064600F90FD8E0E4C9FAE4CCFB2275F010EF2FDD
:10065600FFEE33FEED33FDCC33CCC833C810D707DD
:100666009BEC9AE899400AED9BFDEC9AFCE899F818
:0E0676000FD5F0DAE4CDFBE4CCFAE4C8F922AB
:10478D00C2D5E830E70FB2D5E4C39BFBE49AFAE457
:10479D0099F9E498F8EC30E717B2D51247C3120532
:1047AD00F2E4C39BFBE49AFAE499F9E498F88003E8
:1047BD001205F230D50DE4C39FFFE49EFEE49DFD8E
:0447CD00E49CFC224A
:0E068400C3E49FFFE49EFEE49DFDE49CFC2287
:10069200EB9FF5F0EA9E42F0E99D42F0E89C45F0BE
:0106A2002235
:1006A300E8600FECC313FCED13FDEE13FEEF13FF35
:0306B300D8F12259
:1006B600E8600FEFC333FFEE33FEED33FDEC33FCA2
:0306C600D8F12246
:0C06C900ECF0A3EDF0A3EEF0A3EFF022A4
:1006D500A8828583F0D083D0821206EC1206EC1234
:1006E50006EC1206ECE473E493A3C583C5F0C58359
:1006F500C8C582C8F0A3C583C5F0C583C8C582C86F
:0107050022D1
:0C070600A42582F582E5F03583F58322FE
:10071200D083D082F8E4937012740193700DA3A376
:1007220093F8740193F5828883E47374029368608A
:06073200EFA3A3A380DF8A
:10073800D083D082F8E4937012740193700DA3A350
:1007480093F8740193F5828883E473740293B5F087
:0D075800067403936860E9A3A3A3A380D8EF
:00000001FF
