:10451200C2AF53D7F91243451243E2124ADC124B9F
:10452200FF124B11124BDC123F3F124B8AE49007F1
:1045320005F0A3F0900709F0A3F090070DF0A3F0A7
:10454200900711F0A3F0D2AF780CF69006D904F0E0
:10455200A3F0A37406F0A37490F0A3740BF07B0095
:104562007A00790C7F58124B3E7B017A02796E12E7
:1045720012A37B017A0779051240BB7B017A077986
:104582000912254A7B017A07790D12194B7B017AB0
:10459200077911120F177B017A027972121C7B8044
:0245A200C8222D
:1040BB009006D1EBF0A3EAF0A3E9F0E49006F8F058
:1040CB009006D404F0120507FFAEF0E5F07076EF22
:1040DB0024A9601F2457706D9006D1E0FBA3E0FA72
:1040EB00A3E0F9900002E4F5F0120589E475F057AE
:1040FB0012056A9006D1E0FBA3E0FAA3E0F9900069
:10410B0002120532C3940FE5F094004003D38001F3
:10411B00C340037F00229006D97401F0A3F0A3746F
:10412B0006F0A37490F0A3740BF07B007A00790C6B
:10413B007F58124B3E9006FAE004F070069006F999
:10414B00E004F08093E49006D4F09006D1E0FBA35A
:0D415B00E0FAA3E0F9E4F5F012056A7F0335
:014168002234
:03001B000247D6C3
:1047D600C0E0C083C082758D8A758BD0900708E0D3
:1047E60004F07006900707E004F090070CE004F070
:1047F600700690070BE004F0900710E004F07006D6
:1048060090070FE004F0900271E004F07006900249
:1048160070E004F0900704E004F07006900703E0EF
:1048260004F0900275E004F07006900274E004F063
:07483600D082D083D0E032F4
:104BDC00759E82759D2D759852D2ACC299C298D291
:024BEC00BC22E9
:104B110075D10075D20075E60043D28043D220439F
:104B2100D20753E6F043E64012420B7F03124C26B4
:0D4B31007F647E00124BA0D2AE43D1202243
:030033000233BADB
:1033BA00C0E0C0F0C083C082C0D0EEC0E0EFC0E081
:1033CA00E5E654079004DCF0E0FF75F026A424FE3D
:1033DA00F582E5F03404F583E09004DDF075F0261B
:1033EA00EFA424DEF582E5F03404F583C083C082BD
:1033FA009004DDE0FFD082D08375F004120706E462
:10340A00F09004DCE0FE75F026A424DFF582E5F0F6
:10341A003404F58375F004EF120706E5DBF075F066
:10342A0026EEA424E0F582E5F03404F583C083C0D7
:10343A00829004DDE0FFD082D08375F00412070683
:10344A00E5DAF09004DCE0FE75F026A424E1F582CA
:10345A00E5F03404F58375F004EF120706E5D9F0B8
:10346A009004DDE0045407FF75F026EEA424FEF56F
:10347A0082E5F03404F583EFF09004DCE0FF75F0A8
:10348A0026A42403F582E5F03405F5837401F0EFF0
:10349A00045407FFE5E654F04FF5E6E5E6540775F0
:1034AA00F019A42480F582E5F03403F583E064077B
:1034BA005407FFE5D254F84FF5D2E5E6540775F004
:1034CA0019A42481F582E5F03403F583E0F5D4C22A
:0134DA00DF12
:1034DB00D0E0FFD0E0FED0D0D082D083D0F0D0E0CF
:0134EB0032AE
:074C260053D1F8EF42D12247
:104BA000CBEFCBCAEECAE4F9F87F557E05FDFC12C7
:054BB0004A5F8FD422D2
:10420B00E49006D1F0A3F09006D1F09006D1E0FF38
:10421B00C3940840030242A775F026EFA424FEF5D1
:10422B0082E5F03404F583E4F075F026EFA4240165
:10423B00F582E5F03405F583E4F075F026EFA42460
:10424B0002F582E5F03405F5837420F075F026EF66
:10425B00A42403F582E5F03405F583E4F09006D24F
:10426B00F09006D2E0FFC3940850289006D1E07579
:10427B00F026A424DEF582E5F03404F58375F00412
:10428B00EF1207061206D5000000009006D2E004DC
:0C429B00F080CE9006D1E004F002421644
:0142A70022F4
:083BF4009006E8ECF0A3EDF0EF
:103BFC00E49006ECF0A3F0A3F09006E8E0FEA3E05E
:103C0C00FF9006EBE02F9006EAE03EC394044004DC
:103C1C00E4FEFF22E49006ECF0A3F09006E8E0FE50
:103C2C00A3E0FFC39006EDE09F9006ECE09E4003FE
:103C3C00023CCEA2AFE4339006EEF0C2AF9006EC9D
:103C4C00E0FEA3E07802C333CE33CED8F9FFF58281
:103C5C008E8312046FF5BC8F828E83A312046FF5D2
:103C6C00BD9006ECE0FEA3E07802C333CE33CED891
:103C7C00F9FFF5828E83A3A312046FF5BE8F828E9B
:103C8C0083A3A3A312046FF5BF9006EAE0FEA3E0A2
:103C9C00FF8EC78FC675B90575B9029006EEE02484
:103CAC00FF92AF9006EBE004F070069006EAE00499
:103CBC00F09006EDE004F070069006ECE004F002E3
:0A3CCC003C279006ECE0FEA3E0FFA9
:013CD60022CB
:083CD7009006DDECF0A3EDF016
:103CDF00E49006E1F0A3F0A3F09006DDE0FEA3E090
:103CEF00FF9006E0E02F9006DFE03EC3940440040F
:103CFF00E4FEFF22E49006E1F0A3F09006DDE0FE83
:103D0F00A3E0FFC39006E2E09F9006E1E09E400330
:103D1F00023DADA2AFE4339006E3F0C2AF9006DFF1
:103D2F00E0FEA3E0FF8EC78FC675B901A3E0FCA329
:103D3F00E0FDCEECCE7802C333CE33CED8F9FFF50B
:103D4F00828E83E5BC1204CF8F828E83A3E5BD12D2
:103D5F0004CFEDCEECCE7802C333CE33CED8F9FFFD
:103D6F00F5828E83A3A3E5BE1204CF8F828E83A329
:103D7F00A3A3E5BF1204CF9006E3E024FF92AF9018
:103D8F0006E0E004F070069006DFE004F09006E233
:103D9F00E004F070069006E1E004F0023D0A9006A0
:063DAF00E1E0FEA3E0FFCD
:013DB50022EB
:104AA300E4FE8F0AD2C0850AC0EE75F003A424F099
:104AB300F582E43406F583E4F0A3F0EE75F003A485
:104AC30024EFF582E43406F5837401F00EEEB406A8
:084AD300D8E4900701F0A3F004
:014ADB0022B8
:0A4C1C00C2AFD2C0850AC0D2AF2299
:0B370C0090072AEBF0A3EAF0A3E9F01D
:09371700E4A3F0A3F09006F5F024
:1037200090072F04F090072AE0FBA3E0FAA3E0F94A
:10373000120507FFAEF0E5F06003023800EF24C386
:103740006022243D600302380090072AE0FBA3E0DA
:10375000FAA3E0F9900002E4F5F0120589E475F0AF
:103760003D12056A90072AE0FBA3E0FAA3E0F99076
:103770000002120532C39464E5F094004003D38044
:1037800001C340037F0022E490072EF09006F7E08B
:1037900004F070069006F6E004F0E490072DF09037
:1037A000072DE075F003A424EFF582E43406F583D9
:1037B000E0FF90072DE075F003A424F0F582E434D7
:1037C00006F583E0FEA3E04F4E700790072E04F04D
:1037D000801F90072DE075F003A424F0F582E434F7
:1037E00006F583E4F0A3F090072DE004F0E0B406C2
:1037F000AE90072EE06003023749124C1C02374995
:10380000E490072FF090072AE0FBA3E0FAA3E0F989
:08381000E4F5F012056A7F03E4
:01381800228D
:1015F8005400053C3C7555534F5F323E3E00000099
:1016080000000000000000602800193C2D2D204734
:10161800454F5350484552415F32303132202D2DCD
:101628003E00000000000000000000000000000074
:1016380000000048004130303030310000004100E7
:10164800490141004A1401120041004F00610E0097
:101658005000000000000000000000000000000032
:101668000000000000000000000000000000000072
:101678000000000000000000000000000000000062
:101688000000000000000000000000000000000052
:101698000000000000000000000000000000000042
:1016A8000000000000000000000000000000000032
:1016B8000000000000000000000000000000000022
:1016C8000000000000000000000000000000000012
:1016D8000000000000000000000000000000000002
:1016E80000000000000000000000000000000000F2
:1016F80000000000000000000000000000000000E2
:1017080000000000000000000000000000000000D1
:1017180000000000000000000000000000000000C1
:1017280000000000000000000000000000000000B1
:1017380000000000000000000000000000000000A1
:101748000000000000000000000000000000000091
:101758000000000000000000000000000000006120
:101768000E015E0000000000000000000000000004
:101778000000000000000000000000000000000061
:101788000000000000000000000000000000000051
:101798000000000000000000000000000000000041
:1017A8000000000000000000000000000000000031
:1017B8000000000000000000000000000000000021
:1017C8000000000000000000000000000000000011
:1017D8000000000000000000000000000000000001
:1017E80000000000000000000000000000000000F1
:1017F80000000000000000000000000000000000E1
:1018080000000000000000000000000000000000D0
:1018180000000000000000000000000000000000C0
:1018280000000000000000000000000000000000B0
:1018380000000000000000000000000000000000A0
:101848000000000000000000000000000000000090
:101858000000000000000000000000000000000080
:101868000000000000000000000000000000000070
:101878000041026CC00114FF41026D0041000000EC
:101888004100010041000200410003004100040042
:0300230002469200
:10469200C0E0C083C082C0D0EFC0E0C2AF30981E7D
:1046A200C298900376E02476F582E43402F583E53D
:1046B20099F0900376E004F0900378E004F03099EA
:1046C2002FC29990004EE0FF90004DE0C39F50151D
:1046D200E0245EF582E43401F583E0F59990004D23
:1046E200E004F0800B90004DE4F090026EF0A3F035
:0E46F200D2AFD0E0FFD0D0D082D083D0E03263
:104ADC00C299C298123A1EE4900376F0A3F0A3F0A8
:104AEC0090004BF0A3F090004DF0A3F0C2B57813FA
:104AFC00F690026C74C0F0E490026EF0A3F0900299
:054B0C0072F0A3F0228D
:102FA100E4FF90015EF0A374D7F0A37429F09000C0
:102FB10049E0900161F0A37402F090026CE090018D
:102FC10064F0E4EFC39414501A74052FF582E434CD
:102FD10000F583E0FE74652FF582E43401F583EE9C
:102FE100F0800C74652FF582E43401F583E4F00F71
:102FF100EFB414CFE4FFEFC39408501874412FF5D8
:1030010082E43400F583E0FE74792FF582E4340123
:10301100F583EEF00FEFB405DD9004DBE090017E67
:10302100F0E4FF9004DBE0FEEFC39E504C75F01915
:10303100EFA4247EF582E5F03403F583E0FEC45469
:10304100F0FE75F019EFA4247FF582E5F03403F565
:1030510083E04EFE75F002EFA4247FF582E5F034A3
:1030610001F583EEF075F002EFA42480F582E5F01E
:103071003401F583E4F00F80AAE4FF90004AE0FEFA
:10308100EFC39E502D74192FF582E43400F583E0CF
:10309100FE9004DBE075F002A42FF582E435F0F533
:1030A10083E582247FF582E5833401F583EEF00F19
:1030B10080C99004DBE025E0FD241CFF90004AE07C
:1030C1002F900163F07E017F5FED2420FD90004A87
:1030D100E02DFD124B6790004AE0FE9004DBE0FD1D
:1030E10075F002A42EF582E435F0F583E582247FA4
:1030F100F582E5833401F583EFF0ED25E02422FF2D
:0631010090004AE02FFFE0
:0131070022A5
:030006007F002256
:03000E007F00224E
:030016007F002246
:10310800E4FF9006D1F0900055E014FEEFC39E4016
:103118000302325A74562FF582E43400F583E0FE38
:103128009004DBE0FDEEC39D400302325474572F38
:10313800F582E43400F583E0FEC4540F60030232E4
:103148004D74562FF582E43400F583E075F019A428
:10315800247FF582E5F03403F583E0FE74572FF5FC
:1031680082E43400F583E0FDEE6D705974562FF556
:1031780082E43400F583E075F019A42480F582E533
:10318800F03403F583E0FE74582FF582E43400F53B
:1031980083E0FDEE6D702E74562FF582E43400F551
:1031A80083E075F019A42481F582E5F03403F583F2
:1031B800E0FE74592FF582E43400F583E0FDEE6DEE
:1031C800700302324A74582FF582E43400F583E024
:1031D800FE74562FF582E43400F583E075F019A4E7
:1031E8002480F582E5F03403F583EEF074592FF569
:1031F80082E43400F583E0FE74562FF582E434004F
:10320800F583E075F019A42481F582E5F03403F51F
:1032180083EEF074572FF582E43400F583E0540F01
:10322800FE74562FF582E43400F583E075F019A496
:10323800247FF582E5F03403F583EEF09006D1742F
:1032480001F00F8001000F0F0F02310E7F011249AC
:1032580007229006D1E06003124700E4FF124907F5
:013268002243
:03001E007F00223E
:030026007F002236
:03002E007F00222E
:034C2D007F0022E3
:104BC90090026C7440F0780C76121243E2E4FF1202
:034BD90049072267
:10076500E4F508F50990015EF0A374D7F0A37429A8
:10077500F0900049E0900161F0A37415F090026CCF
:10078500E0900164F0750807E4F5099004DBE0FFEB
:10079500E509C39F4003020B3AAF080508745E2FB5
:1007A500F582E43401F583E509F075F019A4247E9A
:1007B500F582E5F03403F583E0C454F0FF75F019D4
:1007C500E509A4247FF582E5F03403F583E04FFFC6
:1007D500AE080508745E2EF582E43401F583EFF06A
:1007E50075F019E509A4247EF582E5F03403F58357
:1007F500E01470030209B2147003020A6124026056
:1008050003020B3575F019E509A4247FF582E5F09F
:100815003403F583E024FD70030208B32403600369
:10082500020B3575F019E509A4248AF582E5F03443
:1008350003F583E0640175F019702FE509A4248898
:10084500F582E5F03403F583E0FFAE080508745E34
:100855002EF582E43401F583EFF075F019E509A46E
:100865002487F582E5F03403802DE509A42484F579
:1008750082E5F03403F583E0FFAE080508745E2ECB
:10088500F582E43401F583EFF075F019E509A42448
:1008950083F582E5F03403F583E0FFAE08050874BF
:1008A5005E2EF582E43401F583EFF002097F75F0E1
:1008B50019E509A4248AF582E5F03403F583E0649B
:1008C5000175F0197051E509A42489F582E5F03424
:1008D50003F583E0FFAE080508745E2EF582E43467
:1008E50001F583EFF075F019E509A42488F582E593
:1008F500F03403F583E0FFAE080508745E2EF5823B
:10090500E43401F583EFF075F019E509A42487F5C2
:1009150082E5F03403804FE509A42485F582E5F0EE
:100925003403F583E0FFAE080508745E2EF582E416
:100935003401F583EFF075F019E509A42484F582F7
:10094500E5F03403F583E0FFAE080508745E2EF587
:1009550082E43401F583EFF075F019E509A42483E9
:10096500F582E5F03403F583E0FFAE080508745E13
:100975002EF582E43401F583EFF075F019E509A44D
:100985002480F582E5F03403F583E0FFAE08050821
:10099500745E2EF582E43401F583EFF075F019E508
:1009A50009A42481F582E5F03403020B2175F019C1
:1009B500E509A4247FF582E5F03403F583E06003BF
:1009C500020B3575F019E509A42485F582E5F034A7
:1009D50003F583E0FFAE080508745E2EF582E43466
:1009E50001F583EFF075F019E509A42484F582E596
:1009F500F03403F583E0FFAE080508745E2EF5823A
:100A0500E43401F583EFF075F019E509A42483F5C5
:100A150082E5F03403F583E0FFAE080508745E2E29
:100A2500F582E43401F583EFF075F019E509A424A6
:100A350082F582E5F03403F583E0FFAE080508741E
:100A45005E2EF582E43401F583EFF075F019E509C2
:100A5500A42480F582E5F03403020B2175F019E535
:100A650009A4247FF582E5F03403F583E014605A88
:100A7500046003020B3575F019E509A42485F58298
:100A8500E5F03403F583E0FFAE080508745E2EF546
:100A950082E43401F583EFF075F019E509A42484A7
:100AA500F582E5F03403F583E0FFAE080508745ED2
:100AB5002EF582E43401F583EFF075F019E509A40C
:100AC5002480F582E5F03403805275F019E509A418
:100AD5002485F582E5F03403F583E0FFAE080508CB
:100AE500745E2EF582E43401F583EFF075F019E5B7
:100AF50009A42484F582E5F03403F583E0FFAE080C
:100B05000508745E2EF582E43401F583EFF075F087
:100B150019E509A42480F582E5F03403F583E0FFA7
:100B2500AE080508745E2EF582E43401F583EFF016
:100B35000509020790E50824FB900163F07E017F1B
:100B45005FE50814FD124B67745E2508F582E434F1
:090B550001F583EFF0E50804FF4F
:010B5E002274
:103B0F0090005BE0FF900379EFF090005AE0FF9098
:103B1F00037AEFF0900059E0FF90037BEFF09000F5
:103B2F0058E0FF90037CEFF0900379E0FCA3E0FDF9
:103B3F00A3E0FEA3E0FF9007221206C990005FE00A
:103B4F00FF900379EFF090005EE0FF90037AEFF0C3
:103B5F0090005DE0FF90037BEFF090005CE0FF9042
:103B6F00037CEFF0900379E0FCA3E0FDA3E0FEA35C
:103B7F00E0FF9007261206C9900057E0FFEF1207EB
:103B8F00123B9D003BD5013BE10200003BED900055
:103B9F0056E0FFEFC0E0900722E0FCA3E0FDA3E0BA
:103BAF00FEA3E0FF9006D21206C9900726E0FCA301
:103BBF00E0FDA3E0FEA3E0FF9006D61206C9D0E019
:103BCF00FF1241698019900056E0FF7D00123E7C84
:103BDF00800D900056E0FF7D01123E7C8001007F3A
:043BEF000012490770
:013BF30022AF
:10381900750B0090015EE4F090015F74D7F09001A0
:10382900607429F0900049E0FF900161EFF0900188
:103839006274CCF0900163740BF0900056E0FF8F36
:103849000B9004DBE0FFE50BC39F40067F0912499B
:103859000722900164E50BF0AF0B75F019EFA42472
:103869008AF582E5F03403F583E0FF900165EFF016
:10387900AF0B75F019EFA4248BF582E5F03403F54D
:1038890083E0FCA3E0FDA3E0FEA3E0FF900379122F
:1038990006C9900379E0FF900169EFF090037AE09F
:1038A900FF900168EFF090037BE0FF900167EFF074
:1038B90090037CE0FF900166EFF0AF0B75F019EF14
:1038C900A4248FF582E5F03403F583E0FCA3E0FD41
:1038D900A3E0FEA3E0FF9003791206C9900379E003
:1038E900FF90016DEFF090037AE0FF90016CEFF02B
:1038F90090037BE0FF90016BEFF090037CE0FF9079
:10390900016AEFF07E017F5F7D0F124B6790016EB8
:04391900EFF07F113B
:01391D002287
:1045A40090074FE4F0900055E0FFEF24E5FF9007FB
:1045B4004FEFF090074FE0FFEF6054900056E0FF9C
:1045C4007B017A007957EBC0E0EAC0E0E9C0E07B08
:1045D400017A00796B900719EBF0A3EAF0A3E9F0F4
:1045E4007B017A00797090071CEBF0A3EAF0A3E951
:1045F400F090074FE0FE90071FEEF0D0E0F9D0E016
:10460400FAD0E0FB1229BA7F001249072280067F04
:0746140009124907227F0093
:01461B00227C
:0C4C10001227D2124A127F00124907221C
:10490700900750EFF090015EE4F090015F74D7F0EC
:104917009001607429F0900049E0FF900161EFF089
:10492700900054E0FF900165EFF090016274FFF092
:1049370090026CE0FF900164EFF0900750E0FF9069
:104947000166EFF09001637404F07E017F5E7D09DC
:0B495700124B67900167EFF07F0A220F
:0D461C00900736EEF0A3EFF0900738EDF0B8
:10462900900739E4F090073AE4F090073AE4F09003
:104639000738E0FF90073AE0FEEEC39F5036C2D735
:1046490090073AE0FF900736E0FCA3E0FD8D828CED
:1046590083E5822FF582E43583F583E0FF900739FE
:10466900E02FF030D706900739E004F090073AE0E0
:1046790004F080BB900739E0FFC374FF9FFF9007E8
:0846890039EFF0900739E0FF62
:014691002206
:101F7E00900747E4F0900748E4F0900054E0FFEF3C
:101F8E00131313541FFFEF541FFF900747EFF090EA
:101F9E000747E0FFEFC3940E400302227590015EE7
:101FAE00E4F090015F74D7F09001607428F0900116
:101FBE0061E4F0900054E0FF900162EFF090016355
:101FCE007403F0900747E0FF75F019EFA4247EF537
:101FDE0082E5F03403F583E0FFEF1207121FF800DD
:101FEE0021500121AD020000223F900747E0FF750E
:101FFE00F019EFA4247FF582E5F03403F583E0FFBA
:10200E00EF120712201C0020A8030000223F9007A9
:10201E0047E0FF75F019EFA4248AF582E5F034034A
:10202E00F583E0FFEFB40139900747E0FF75F01933
:10203E00EFA42487F582E5F03403F583E0FF9001E9
:10204E0064EFF0900747E0FF75F019EFA42488F5D0
:10205E0082E5F03403F583E0FF900165EFF0022294
:10206E003F900747E0FF75F019EFA42483F582E552
:10207E00F03403F583E0FF900164EFF0900747E042
:10208E00FF75F019EFA42484F582E5F03403F5838F
:10209E00E0FF900165EFF002223F900747E0FF75E9
:1020AE00F019EFA4248AF582E5F03403F583E0FFFE
:1020BE00EF64017051900747E0FF75F019EFA4240B
:1020CE0087F582E5F03403F583E0FF900747E0FEE5
:1020DE00745E2EF582E43401F583EFF0900747E04D
:1020EE00FF75F019EFA42488F582E5F03403F5832B
:1020FE00E0FF900747E0FE745E2EF582E43401F5B2
:10210E0083EFF002223F900747E0FF75F019EFA42E
:10211E002483F582E5F03403F583E0FF900164EF4C
:10212E00F0900747E0FF75F019EFA42484F582E5DF
:10213E00F03403F583E0FF900165EFF002223F02D9
:10214E00223F900747E0FF75F019EFA4247FF58238
:10215E00E5F03403F583E0FFEF1207122171000062
:10216E0000223F900747E0FF75F019EFA42484F595
:10217E0082E5F03403F583E0FF900164EFF0900701
:10218E0047E0FF75F019EFA42485F582E5F03403DE
:10219E00F583E0FF900165EFF002223F02223F90AF
:1021AE000747E0FF75F019EFA4247FF582E5F034C0
:1021BE0003F583E0FFEF12071221D100220901007F
:1021CE0000223F900747E0FF75F019EFA42484F535
:1021DE0082E5F03403F583E0FF900164EFF09007A1
:1021EE0047E0FF75F019EFA42485F582E5F034037E
:1021FE00F583E0FF900165EFF08036900747E0FF32
:10220E0075F019EFA42484F582E5F03403F583E02C
:10221E00FF900164EFF0900747E0FF75F019EFA40F
:10222E002485F582E5F03403F583E0FF900165EF38
:10223E00F07B017A01795E7D081234EC900748EF4D
:10224E00F07E017F5E900748E0FD12461C90074825
:10225E00E0FE745E2EF582E43401F583EFF0900714
:09226E0048E0FFEF04FF227F00AD
:012277002244
:100B5F00900749E4F090074AE4F0900054E0FFEF6B
:100B6F00131313541FFFEF541FFF900749EFF0901B
:100B7F000749E0FFEFC3940E4003020F1490015E8C
:100B8F00E4F090015F74D7F09001607428F0900149
:100B9F0061E4F0900054E0FF900162EFF090016388
:100BAF007406F0900749E0FF75F019EFA4247EF565
:100BBF0082E5F03403F583E0FFEF1207120BD90043
:100BCF000D85010E3B0200000ED8900749E0FF751E
:100BDF00F019EFA4247FF582E5F03403F583E0FFED
:100BEF00EF1207120BFD000C890300000D2A90076E
:100BFF0049E0FF75F019EFA4248AF582E5F034037C
:100C0F00F583E0FFEFB40139900749E0FF75F01964
:100C1F00EFA42487F582E5F03403F583E0FF90011C
:100C2F0064EFF0900749E0FF75F019EFA42488F501
:100C3F0082E5F03403F583E0FF900165EFF0020DDC
:100C4F002A900749E0FF75F019EFA42483F582E598
:100C5F00F03403F583E0FF900164EFF0900749E073
:100C6F00FF75F019EFA42484F582E5F03403F583C2
:100C7F00E0FF900165EFF0020D2A900749E0FF7544
:100C8F00F019EFA4248AF582E5F03403F583E0FF31
:100C9F00EF64017050900749E0FF75F019EFA4243D
:100CAF0087F582E5F03403F583E0FF900749E0FE16
:100CBF00745E2EF582E43401F583EFF0900749E07E
:100CCF00FF75F019EFA42488F582E5F03403F5835E
:100CDF00E0FF900749E0FE745E2EF582E43401F5E3
:100CEF0083EFF08036900749E0FF75F019EFA424E9
:100CFF0083F582E5F03403F583E0FF900164EFF0B4
:100D0F00900749E0FF75F019EFA42484F582E5F010
:100D1F003403F583E0FF900165EFF0900749E0FFA2
:100D2F0075F019EFA42480F582E5F03403F583E024
:100D3F00FFEF5407FFEF1207120D58000D5F010D63
:100D4F0067050D6F0700000D77900166E4F0801DB9
:100D5F009001667402F080159001667404F0800DA6
:100D6F009001667406F08005900166E4F0900167CB
:100D7F00740AF0020ED8900749E0FF75F019EFA43E
:100D8F00247FF582E5F03403F583E0FFEF120712BD
:100D9F000DA60000000ED8900749E0FF75F019EF7F
:100DAF00A42484F582E5F03403F583E0FF90016419
:100DBF00EFF0900749E0FF75F019EFA42485F58255
:100DCF00E5F03403F583E0FF900165EFF0900749FC
:100DDF00E0FF75F019EFA42480F582E5F03403F5F8
:100DEF0083E0FFEF5407FFEF1207120E0A000E12F7
:100DFF00010E1A050E220700000E2A90016674409C
:100E0F00F0801E9001667442F08016900166744463
:100E1F00F0800E9001667446F08006900166744073
:100E2F00F0900167E4F0020ED8020ED8900749E067
:100E3F00FF75F019EFA4247FF582E5F03403F583F5
:100E4F00E0FFEF1207120E5F000E970100000ECDAC
:100E5F00900749E0FF75F019EFA42484F582E5F0BF
:100E6F003403F583E0FF900164EFF0900749E0FF52
:100E7F0075F019EFA42485F582E5F03403F583E0CE
:100E8F00FF900165EFF08036900749E0FF75F0198C
:100E9F00EFA42484F582E5F03403F583E0FF90019D
:100EAF0064EFF0900749E0FF75F019EFA42485F582
:100EBF0082E5F03403F583E0FF900165EFF09001D8
:100ECF00667440F0900167E4F090016874FFF07B66
:100EDF00017A01795E7D0B1234EC90074AEFF07EB8
:100EEF00017F5E90074AE0FD12461C90074AE0FE24
:100EFF00745E2EF582E43401F583EFF090074AE03B
:070F0F00FFEF04FF227F0049
:010F160022B8
:102CC00090074BE4F090074CE4F0900054E0FFEFE5
:102CD000131313541FFFEF541FFF90074BEFF09097
:102CE000074BE0FFEFC3940E4003022E3090015ECD
:102CF000E4F090015F74D7F09001607428F09001C7
:102D000061E4F0900054E0FF900162EFF090016305
:102D10007403F090074BE0FF75F019EFA4247EF5E3
:102D200082E5F03403F583E0FFEF1207122D3A003D
:102D30002D94012DEF0200002DFA90074BE0FF7556
:102D4000F019EFA42480F582E5F03403F583E0FF69
:102D5000EF5407FFEF1207122D68002D6F012D773A
:102D6000052D7F0700002D87900164E4F0801D9001
:102D700001647402F080159001647404F0800D9079
:102D800001647406F08005900164E4F090016574BC
:102D90000AF0806690074BE0FF75F019EFA42480DD
:102DA000F582E5F03403F583E0FFEF5407FFEF12FF
:102DB00007122DC2002DCA012DD2052DDA07000001
:102DC0002DE29001647440F0801E9001647442F022
:102DD00080169001647444F0800E9001647446F093
:102DE00080069001647440F0900165E4F0800B90DF
:102DF00001647440F0900165E4F07B017A01795E32
:102E00007D081234EC90074CEFF07E017F5E900756
:102E10004CE0FD12461C90074CE0FE745E2EF582DD
:102E2000E43401F583EFF090074CE0FFEF04FF225C
:022E30007F0021
:012E3200227D
:034C30007F0022E0
:102E3300900751E4F0900054E0FFEF131313541F75
:102E4300FFEF541FFF900751EFF0900751E0FFEFA2
:102E5300C3940E4003022F9E900056E0FFEFC3136E
:102E6300FFEF5403FFEF1207122E7C002EB7012E43
:102E7300F2022F2C0300002F66900751E0FF75F03C
:102E830019EFA42480F582E5F03403F583E0FFEF26
:102E930054F0FFEFF0900751E0FF75F019EFA42411
:102EA30080F582E5F03403F583E0FFEF4400FFEFA4
:102EB300F0022F9E900751E0FF75F019EFA42480D4
:102EC300F582E5F03403F583E0FFEF54F0FFEFF014
:102ED300900751E0FF75F019EFA42480F582E5F027
:102EE3003403F583E0FFEF4401FFEFF0022F9E90E0
:102EF3000751E0FF75F019EFA42480F582E5F03463
:102F030003F583E0FFEF54F0FFEFF0900751E0FF8C
:102F130075F019EFA42480F582E5F03403F583E01E
:102F2300FFEF4405FFEFF08072900751E0FF75F06B
:102F330019EFA42480F582E5F03403F583E0FFEF75
:102F430054F0FFEFF0900751E0FF75F019EFA42460
:102F530080F582E5F03403F583E0FFEF4407FFEFEC
:102F6300F08038900751E0FF75F019EFA42480F545
:102F730082E5F03403F583E0FFEF54F0FFEFF090C8
:102F83000751E0FF75F019EFA42480F582E5F034D2
:0D2F930003F583E0FFEF4400FFEFF07F0047
:012FA000220E
:1034EC00900730EBF0A3EAF0A3E9F0900733EDF08E
:1034FC00900734E4F0900735E4F09007347403F04F
:10350C00900733E0FF900734E0FEEEC39F400302C8
:10351C0035F6900730E0FBA3E0FAA3E0F99007340E
:10352C00E0FF8F8275830012046FFFEF64D7600396
:10353C000235ED900733E0FFEF14FF900735EFF005
:10354C00900734E0FF900735E0FEEED39F404590A6
:10355C000730E0FBA3E0FAA3E0F9900735E0FF8F1A
:10356C008275830012046FFF900735E0FEEEFD7C40
:10357C0000ED2401FDEC3400FC900730E0FBA3E0EF
:10358C00FAA3E0F98D828C83EF1204CF900735E01B
:10359C0014F080AC900734E0FF7E00EF2401FFEEC6
:1035AC003400FE900730E0FBA3E0FAA3E0F98F8231
:1035BC008E83E41204CF90026DE0FFEFB4011690FD
:1035CC000730E0FBA3E0FAA3E0F9758205758300F0
:1035DC00740112049C900733E004F0900734E0046B
:0F35EC00F0900734E004F002350C900733E0FF55
:0135FB0022AD
:102B430090026DE0FFEF1207122B59002C31012C7C
:102B5300850300002CBF9004937440F09004947498
:102B63000AF0900054E0FFEF1207122B9F012BA8ED
:102B7300032BB1052BBA072BC3092BCC0A2BD50C7E
:102B83002BDE0E2BE7102BF0122BF9142C0BCA2C77
:102B93001DCB2C02CD2C14DF00002C26122FA1906C
:102BA300004EEFF02212000690004EEFF0221200CA
:102BB3000E90004EEFF02212001690004EEFF0221E
:102BC30012310890004EEFF02212001E90004EEFDB
:102BD300F02212002690004EEFF02212002E9000F9
:102BE3004EEFF022124C2D90004EEFF022124BC903
:102BF30090004EEFF02212076590004EEFF0221284
:102C030045A490004EEFF022123B0F90004EEFF0E0
:102C130022124C1090004EEFF02212381990004E01
:102C2300EFF0227F0612490790004EEFF02290004A
:102C330055E0FFEFC4135407FFEF5407FFEF1207EC
:102C4300122C57002C60012C69022C72032C7B047C
:102C530000002CBF124C3090004EEFF022122E33A6
:102C630090004EEFF022122CC090004EEFF0221293
:102C73001F7E90004EEFF022120B5F90004EEFF09C
:102C83002222900053E0FF120000EFC454F0FFEF44
:102C9300C0E0900054E0FF120000CEEFCED0E0FF82
:102CA300EE4FFFEF1207122CB10300002CBA1200F3
:0D2CB3000090004EEFF02290004EE4F02261
:0B12A30090073BEBF0A3EAF0A3E9F09A
:1012AE0090073E7401F090073BE0FBA3E0FAA3E049
:1012BE00F9120507FFAEF0EF8EF012073812DF00BD
:1012CE0000130B0494155504E215AF04E600001547
:1012DE00DE90004BE4F0A3E4F0D29CC2B5D2AC9009
:1012EE0006EF7401F090073EE4F090073BE0FBA39D
:1012FE00E0FAA3E0F9740475F09412056A90073EC3
:10130E00E0FFEF60077812E6FFEF70037F01229097
:10131E0006F1E004F070069006F0E004F078127624
:10132E000090026DE0FFEF12071213450013B70194
:10133E00140603000014C0900049E0FF900053E033
:10134E00FEEE6F601590073BE0FBA3E0FAA3E0F919
:10135E00E475F00012056A7F002290004BE0FEA3B8
:10136E00E0FF744F2FF58274003EF583E0FF90008E
:10137E0000EFF07E007F5090004BE0FCA3E0FDED0F
:10138E0014FD124B67900000E0FEEF6E7003021426
:10139E00C090073BE0FBA3E0FAA3E0F9E475F00090
:1013AE0012056A7F00220214C090004BE0FEA3E0FB
:1013BE00FF744F2FF58274003EF583E0FF9000001E
:1013CE00EFF07E007F5090004BE0FCA3E0FDED14AB
:1013DE00FD12461C900000E0FEEF6E70030214C07A
:1013EE0090073BE0FBA3E0FAA3E0F9E475F00012EE
:1013FE00056A7F00220214C0900051E0FF12000027
:10140E00EFC454F0FFEFC0E0900052E0FF12000076
:10141E00CEEFCED0E0FFEE4FFF900049E0FEEF6E34
:10142E00601590073BE0FBA3E0FAA3E0F9E475F04A
:10143E000012056A7F002290004BE0FEA3E0FF74CD
:10144E004E2FF58274003EF583E0FF120000EFC4CC
:10145E0054F0FFEFC0E090004BE0FEA3E0FF744FAE
:10146E002FF58274003EF583E0FF120000CEEFCE22
:10147E00D0E0FFEE4FFF900001EFF07B017A007994
:10148E005090004BE0FEA3E0FFEF24FEFDEE34FF94
:10149E00FC120000900001E0FEEF6E601590073B1D
:1014AE00E0FBA3E0FAA3E0F9E475F00012056A7F11
:1014BE000022122B4390004EE0FFEF701890073B76
:1014CE00E0FBA3E0FAA3E0F9E475F00012056A7FF1
:1014DE0000220212DF90026DE0FFEF70137B017AA3
:1014EE0001795E90004EE0FD1234EC90004EEFF06C
:1014FE00D2B5C29C90004DE4F090004DE0FF745EBA
:10150E002FF582E43401F583E0FF8F9990004DE0D2
:10151E0004F0D2AC90026DE0FFEF705A90073BE002
:10152E00FBA3E0FAA3E0F9758202758300E475F07F
:10153E000012058990073BE0FBA3E0FAA3E0F974E3
:10154E000475F0E212056A90073BE0FBA3E0FAA3F4
:10155E00E0F9758202758300120532FFAEF0C3EF1B
:10156E00940AEE94004003D38001C350030212DFAD
:10157E007F00220212DF90073BE0FBA3E0FAA3E01C
:10158E00F9758202758300E475F0001205899007E3
:10159E003BE0FBA3E0FAA3E0F9740475F0E6120554
:1015AE006A90073BE0FBA3E0FAA3E0F975820275AF
:1015BE008300120532FFAEF0C3EF9403EE940040A9
:1015CE0003D38001C350030212DF7F00220212DF19
:1015DE0090073EE4F090073BE0FBA3E0FAA3E0F9AE
:0915EE00E475F00012056A7F03A8
:0115F70022D1
:1029BA00900715EFF0900716EBF0A3EAF0A3E9F001
:1029CA00900720E4F0A3E4F07B017A0779159006DA
:1029DA00EAE4F0A3742AF07D017C00123BF490072C
:1029EA0016E0FBA3E0FAA3E0F99006EAE4F0A37488
:1029FA002BF07D057C00123BF4900716E0FBA3E068
:102A0A00FAA3E0F9EBC0E0EAC0E0E9C0E07B017AB2
:102A1A00007905C8E9C8CCEACCCDEBCDD0E0F9D035
:102A2A00E0FAD0E0FB7E007F14120430900719E030
:102A3A00FBA3E0FAA3E0F99006EAE4F0A37430F00D
:102A4A007D027C00123BF4900719E0FBA3E0FAA395
:102A5A00E0F9EBC0E0EAC0E0E9C0E07B017A007986
:102A6A0041C8E9C8CCEACCCDEBCDD0E0F9D0E0FA48
:102A7A00D0E0FB7E007F0812043090071FE0FFEFD2
:102A8A001313543FFF7E00900720EEF0A3EFF0905F
:102A9A00071FE0FFEF54FCFFEF600E900721E004F0
:102AAA00F07006900720E004F0900720E0FEA3E013
:102ABA00FFD3EF940AEE94004009900720E4F0A3B4
:102ACA00740AF090071CE0FBA3E0FAA3E0F9900770
:102ADA0020E0FCA3E0FD9006EAE4F0A37433F012D0
:102AEA003BF490071FE0FF90004AEFF07B017A0762
:102AFA00791F9006EAE4F0A37432F07D017C00129B
:102B0A003BF490071FE0FF7E0090071CE0FBA3E068
:102B1A00FAA3E0F9EBC0E0EAC0E0E9C0E07B017AA1
:102B2A00007919C8E9C8CCEACCCDEBCDD0E0F9D010
:082B3A00E0FAD0E0FB120430C8
:012B42002270
:103A1E0090074DE4F0A3E4F07B017A00794990061B
:103A2E00DFE4F0A3742AF07D017C00123CD79000F5
:103A3E0049E0FFEFC39401400B900049E0FFEFD344
:103A4E00940F40069000497401F07B017A007905CD
:103A5E009006DFE4F0A3742BF07D057C00123CD7BA
:103A6E007B017A0079419006DFE4F0A37430F07D9B
:103A7E00027C00123CD77B017A00794A9006DFE483
:103A8E00F0A37432F07D017C00123CD790004AE026
:103A9E00FFEFD39428400690004A7428F090004A15
:103AAE00E0FFEF1313543FFF7E0090074DEEF0A39F
:103ABE00EFF090004AE0FFEF54FCFFEF600E90072E
:103ACE004EE004F0700690074DE004F090074DE0D4
:103ADE00FEA3E0FFD3EF940AEE9400400990074D49
:103AEE00E4F0A3740AF07B017A00791990074DE097
:103AFE00FCA3E0FD9006DFE4F0A37433F0123CD794
:013B0E002294
:0B1C7B0090073FEBF0A3EAF0A3E9F0B4
:101C86009007427401F090073FE0FBA3E0FAA3E05F
:101C9600F9120507FFAEF0EF8EF01207381CAF0001
:101CA600001CC7053600001F64900742E4F0900749
:101CB6003FE0FBA3E0FAA3E0F9740575F0361205E0
:101CC6006A900742E0FFEF6011900378E0FFEFD3E0
:101CD60094004003D38001C340037F0122C2AC902D
:101CE6000378E0FF900002EFF0900378E4F09003B1
:101CF60076E0FF900003EFF0D2AC900002E0FF9098
:101D06000003E0FEC3EE9FFF900004EFF090000397
:101D1600E0FF900004E0FEEE6F608E900004E0FFAE
:101D260074762FF582E43402F583E0FFEF12071292
:101D36001E46001DE3281D80291D46D700001E896A
:101D4600900004E0FF74762FF582E43402F583E018
:101D5600FF90004BE0FCA3E0FD74502DF58274006B
:101D66003CF583EFF090004CE004F0700690004BD9
:101D7600E004F078137601021EC07813E6FFEFB494
:101D86000121900050E4F090005174D7F090005279
:101D96007429F090004BE4F0A37403F090026DE414
:101DA600F08033900004E0FF74762FF582E434026D
:101DB600F583E0FF90004BE0FCA3E0FD74502DF5A9
:101DC6008274003CF583EFF090004CE004F070065E
:101DD60090004BE004F078137600021EC07813E6FC
:101DE600FFEFB40122900050E4F090005174D7F058
:101DF6009000527428F090004BE4F0A37403F09026
:101E0600026D7401F08033900004E0FF74762FF5C4
:101E160082E43402F583E0FF90004BE0FCA3E0FD92
:101E260074502DF58274003CF583EFF090004CE081
:101E360004F0700690004BE004F078137600807A88
:101E46007813E6FFEFB4010678137600806C9000F5
:101E560004E0FF74762FF582E43402F583E0FF9008
:101E6600004BE0FCA3E0FD74502DF58274003CF5B8
:101E760083EFF090004CE004F0700690004BE00415
:101E8600F08037900004E0FF74762FF582E4340288
:101E9600F583E0FF90004BE0FCA3E0FD74502DF5C8
:101EA6008274003CF583EFF090004CE004F070067D
:101EB60090004BE004F07813760090004BE0FEA310
:101EC600E0FFD3EF9406EE9400404990004FE0FF08
:101ED6007E00EF2406FFEE3400FE90004BE0FCA3EC
:101EE600E0FDEF6D7002EE6C700C78127601C2ACFC
:101EF600C29C7813760090004BE0FEA3E0FFD3EF80
:101F0600940EEE9401404B90026EE4F0A3E4F07F51
:101F16000022803E90004BE0FEA3E0FFEF64064EF9
:101F2600703090004BE0FEA3E0FF744F2FF58274F3
:101F3600003EF583E0FF90004FEFF090026DE0FF6A
:101F4600EFB4010E90004FE0FFEF541FFF90004FDB
:101F5600EFF0900004E004F0021D13021CAF90079E
:101F660042E4F090073FE0FBA3E0FAA3E0F9E47552
:071F7600F00012056A7F0371
:011F7D002241
:041898004104DB0E1E
:1043E20012447A9003821206D50000000090039BCB
:1043F2001206D5000000009003B41206D50000009A
:10440200009003CD1206D5000000009003E61206CC
:10441200D5000000009003FF1206D50000000090B6
:1044220004181206D5000000009004311206D500CF
:1044320000000090044A1206D500000000900463B8
:104442001206D50000000090047C1206D500000080
:10445200009004AE1206D5000000009004C71206B8
:10446200D5000000009004937440F0A3740AF0A3F6
:084472001206D5800080002233
:10470000E49006DAF0A31206D500000000E490065B
:10471000DAF09006DAE0FFC3940E502BEF75F01933
:10472000A4247EF9740335F0FA7B01E02410FEE442
:10473000339006EAF0A3CEF07D017C00123BF490AA
:1047400006DAE004F080CB124962E4FCFDFE90063C
:10475000DB1206C97B017A0679DB9006EAE4F0A356
:0A47600074A0F07D017C00123BF410
:01476A00222C
:10447A00E49006D1F0A31206D5000000009006D6FB
:10448A001206D500000000E49006D1F09006D1E0B3
:10449A00FFC3940E502BEF75F019A4247EF9740310
:1044AA0035F0FA7B01E02410FEE4339006DFF0A336
:1044BA00CEF07D017C00123CD79006D1E004F0805A
:1044CA00CB124962E4FCFDFE9006D61206C97B01B6
:1044DA007A0679D29006DFE4F0A374A0F07D017C1D
:1044EA0000123CD79006D2E0FCA3E0FDA3E0FEA3B5
:1044FA00E0FFA3E0F8A3E0F9A3E0FAA3E0FBC3120C
:07450A00069260031227D2A4
:014511002287
:1027D200E490037DF0A3F0A37403F0A37440F0A38C
:1027E2007406F0A31206D5000000009003861206BC
:1027F200D5000000009003967401F0E4A3F0A374E6
:1028020003F0A37440F0A37406F0A31206D50000EF
:10281200000090039F1206D5000000009003AF74E1
:1028220002F0E4A3F0A37403F0A37440F0A37406CF
:10283200F0A31206D5000000009003B81206D500DE
:102842000000009003C87403F0E4A3F0A37403F043
:10285200A37440F0A37406F0A31206D50000000092
:102862009003D11206D5000000009003E17404F039
:10287200E4A3F0A37403F0A37440F0A37406F0A3DE
:102882001206D5000000009003EA1206D5000000EF
:10289200009003FA7405F0E4A3F0A37403F0A374A8
:1028A20040F0A37406F0A31206D5000000009004C5
:1028B200031206D5000000009004137406F0E4A38E
:1028C200F0A37403F0A37440F0A37406F0A31206FD
:1028D200D50000000090041C1206D50000000090F4
:1028E200042C7407F0E4A3F0A37403F0A37440F083
:1028F200A37406F0A31206D500000000900435125E
:1029020006D5000000009004457408F0A37402F09C
:10291200A314F0A37440F0A3740AF0A31206D50026
:1029220000000090045E7409F0A37402F0A314F096
:10293200A37440F0A3740AF0A31206D500000000AD
:10294200900477740AF0A37402F0A314F0A3744005
:10295200F0A3740AF0A31206D500000001900490BF
:10296200740BF0A37401F0E4A3F0A37440F0A37419
:102972000AF0A31206D5800080009004A9740CF01E
:10298200A37402F0E4A3F0A37440F0A3740AF0A3CA
:102992001206D5000000009004C2740DF0A3740268
:1029A200F0E4A3F0A37440F0A3740AF0A31206D5D6
:0829B2000000000012470022A2
:10496200E49006DFF0A3F0A3F09006E0F0E49006F6
:10497200E1F09006E0E075F019A4247EF9740335A5
:10498200F0FA7B01A3E07E0029F9EE3AFA1204560E
:10499200FF9006DFE06F90391E939006DFF09006DD
:1049A200E1E004F0E0B404CA9006E0E004F0E0B410
:0749B2000EBB9006DFE0FFE1
:0149B90022DB
:030000000242A811
:1042A80043AF01787FE4F6D8FD9000007FFF7E8061
:0D42B800E4F0A3DFFCDEFA75811402430080
:10189C00606606130000000000000000000000005D
:1018AC00000000000000000000000000000000002C
:1018BC00000000000000000000000000000000001C
:1018CC00000000000000000000000000000000000C
:1018DC0000000000000000000000000000000000FC
:1018EC0000000000000000000000000000000000EC
:1018FC000000000000000000000041060E0044063D
:05190C000F00000000C7
:103F3F00E4FF9006D1F0124BEE124BB5D2AAD2A8E5
:103F4F00D288D28AE4FFEF75F022A42413F582E41D
:103F5F003406F583E4F0A3F09006D1F0EF75F0226C
:103F6F00A42415F582E43406F583C083C08290063D
:103F7F00D1E0FED082D08375F008120706E4F0A3DB
:103F8F00F0EF75F022A42417F582E43406F583755B
:103F9F00F008EE120706E4F0A3F0EF75F022A42468
:103FAF0019F582E43406F583C083C0829006D1E010
:103FBF00FED082D08375F008120706E4F0A3F0EF6D
:103FCF0075F022A4241BF582E43406F58375F008FE
:103FDF00EE120706E4F0A3F09006D1E004F0E064DF
:0F3FEF00046003023F6B0FEF64036003023F5552
:013FFE0022A0
:0300030002483D73
:10483D00C0E0C0F0C083C082C0D0E8C0E0ECC0E0F2
:06484D00EDC0E0EFC0E049
:10485300900613E0C3135403FF75F008A42415F561
:1048630082E43406F583E475F0011204F190061333
:10487300E0FCA3E0FDEF75F008A42417F582E4340F
:0848830006F583ECF0A3EDF053
:10488B00D0E0FFD0E0FDD0E0FCD0E0F8D0D0D0827B
:07489B00D083D0F0D0E03221
:030013000248A2FE
:1048A200C0E0C0F0C083C082C0D0E8C0E0ECC0E08D
:0648B200EDC0E0EFC0E0E4
:1048B800900613E0C3135403FF75F008A42437F5DA
:1048C80082E43406F583E475F0011204F1900613CE
:1048D800E0FCA3E0FDEF75F008A42439F582E43488
:0848E80006F583ECF0A3EDF0EE
:1048F000D0E0FFD0E0FDD0E0FCD0E0F8D0D0D08216
:07490000D083D0F0D0E032BB
:03000B0002476B3E
:10476B00C0E0C0F0C083C082C0D0E8C0E0ECC0E0C5
:06477B00EDC0E0EFC0E01C
:10478100758CFF758AFF900613E0C3135403FF7500
:10479100F008A42459F582E43406F583E475F001A8
:1047A1001204F1900613E0FCA3E0FDEF75F008A4FC
:0E47B100245BF582E43406F583ECF0A3EDF012
:1047BF00D0E0FFD0E0FDD0E0FCD0E0F8D0D0D08248
:0747CF00D083D0F0D0E032EE
:03002B0002227836
:10227800C0E0C0F0C083C082C0D0E8C0E0ECC0E0DD
:10228800EDC0E0EEC0E0EFC0E0C2CF900613E0FE84
:10229800A3E08EF012073822B301FF235D03FF236A
:1022A800EF05FF248207FF0000251B900618E02495
:1022B800FFFF900617E03407FE90062FE0FCA3E02E
:1022C800FDC3EF9DFFEE9C900619F0A3EFF090067A
:1022D80015E0FFA3E090061BCFF0A3EFF090062DCA
:1022E800E4F0A3F090063AE024FFFF900639E034CA
:1022F80007FE900651E0FCA3E0FDC3EF9DFFEE9CB6
:1023080090063BF0A3EFF0900637E0FFA3E09006BD
:102318003DCFF0A3EFF090064FE4F0A3F090065CF9
:10232800E024FFFF90065BE03407FE900673E0FCB4
:10233800A3E0FDC3EF9DFFEE9C90065DF0A3EFF0D8
:10234800900659E0FFA3E090065FCFF0A3EFF0906E
:10235800067102247E900617E0FEA3E0FFC39006F4
:1023680020E09FFF90061FE09E900621F0A3EFF06B
:1023780090061DE0FFA3E0900623CFF0A3EFF090B6
:102388000615E4F0A3F0900639E0FEA3E0FFC39041
:102398000642E09FFF900641E09E900643F0A3EFBF
:1023A800F090063FE0FFA3E0900645CFF0A3EFF0E2
:1023B800900637E4F0A3F090065BE0FEA3E0FFC3CD
:1023C800900664E09FFF900663E09E900665F0A388
:1023D800EFF0900661E0FFA3E0900667CFF0A3EF6F
:1023E800F090065902247E90061FE0FEA3E0FFC38A
:1023F800900628E09FFF900627E09E900629F0A30C
:10240800EFF0900625E0FFA3E090062BCFF0A3EFB6
:10241800F090061DE4F0A3F0900641E0FEA3E0FF73
:10242800C390064AE09FFF900649E09E90064BF055
:10243800A3EFF0900647E0FFA3E090064DCFF0A38E
:10244800EFF090063FE4F0A3F0900663E0FEA3E00F
:10245800FFC390066CE09FFF90066BE09E90066DB0
:10246800F0A3EFF0900669E0FFA3E090066FCFF0CD
:10247800A3EFF0900661E4022518900627E0FEA37A
:10248800E0FFC3900630E09FFF90062FE09E900685
:1024980031F0A3EFF090062DE0FFA3E0900633CFD4
:1024A800F0A3EFF0900625E4F0A3F0900649E0FED3
:1024B800A3E0FFC3900652E09FFF900651E09E9074
:1024C8000653F0A3EFF090064FE0FFA3E090065507
:1024D800CFF0A3EFF0900647E4F0A3F090066BE08E
:1024E800FEA3E0FFC3900674E09FFF900673E09E92
:1024F800900675F0A3EFF0900671E0FFA3E0900658
:1025080077CFF0A3EFF0900669E4F0A3F0900613FC
:10251800F0A3F0900614E004F07006900613E004AF
:10252800F0900613E05407F0D0E0FFD0E0FED0E0D2
:10253800FDD0E0FCD0E0F8D0D0D082D083D0F0D06D
:02254800E0327F
:0B254A00900743EBF0A3EAF0A3E9F0D8
:052555009006FBE4F01C
:10255A009007467401F0900743E0FBA3E0FAA3E07A
:10256A00F9120507FFAEF0EF8EF012073825870043
:10257A000025B100C1272800C4000027B8900743EE
:10258A00E0FBA3E0FAA3E0F9758202758300E47523
:10259A00F000120589900743E0FBA3E0FAA3E0F9F3
:1025AA00E475F0C112056A900743E0FBA3E0FAA3C1
:1025BA00E0F9758202758300120532FFAEF0C3EFAF
:1025CA009414EE94004003D38001C340037F002299
:1025DA0090060EE0FFEF75F022A42423F582E4347E
:1025EA0006F583E0FEA3E0FFCBEFCBCAEECAE4F91F
:1025FA00F890060EE0FFEF75F022A4241BF582E4A2
:10260A003406F583E0FEA3E0FFE4FCFDEF2BFBEECE
:10261A003AFAED39F9EC38F890060EE0FFEF75F06A
:10262A0022A4242BF582E43406F583E0FEA3E0FF1E
:10263A00E4FCFDEB2FFBEA3EFAE93DF9E83CF890B1
:10264A00060EE0FFEF75F022A42433F582E4340687
:10265A00F583E0FEA3E0FFE4FCFDEB2FFFEA3EFE7C
:10266A00E93DFDE83CFC78121206B6ECC0E0EDC08C
:10267A00E0EEC0E0EFC0E090060EE0FFEF75F0225A
:10268A00A42421F582E43406F583E0FEA3E0FF905A
:10269A00060EE0FDED75F022A42419F582E4340655
:1026AA00F583E0FCA3E0FDED2FFFEC3EFE90060E65
:1026BA00E0FDED75F022A42429F582E43406F583C1
:1026CA00E0FCA3E0FDEF2DFFEE3CFE90060EE0FDE0
:1026DA00ED75F022A42431F582E43406F583E0FC9A
:1026EA00A3E0FDEF2DFFEE3CFECBEFCBCAEECAE432
:1026FA00F9F8D0E0FFD0E0FED0E0FDD0E0FC120512
:10270A00F290060F1206C9900746E4F0900743E0DC
:10271A00FBA3E0FAA3E0F9E475F0C412056A900796
:10272A0046E0FFEF70037F01227FFF7EFF7D007C82
:10273A000090060FE0F8A3E0F9A3E0FAA3E0FBD3C8
:10274A00120692502790060FE0FCA3E0FDA3E0FEDC
:10275A00A3E0FF90060EE0FB75F019EBA4244AF5FE
:10276A0082E5F03404F5831206C9801B90060EE058
:10277A00FF75F019EFA4244AF582E5F03404F583D5
:10278A001206D50000FFFF90060EE004F090060E38
:10279A00E0FFEFC39403400590060EE4F09006FDB7
:1027AA00E004F070069006FCE004F002258790072A
:1027BA0046E4F0900743E0FBA3E0FAA3E0F9E475EE
:0727CA00F00012056A7F0315
:0127D10022E5
:104BEE005389F0438905758CFF758AFFD2A9D28C43
:014BFE002294
:104BB500D2ADE4F5C875CCFF75CDE775CAFF75CBE9
:044BC500E7D2CA2247
:101911004106800041068100410685124A06860083
:10192100000000000000000000060C0000000000A4
:091931000041069B0041069C00E8
:104B8A00D2EBE490069DF0A3F09006A1F0A3F0907A
:064B9A0006A5F0A3F022C5
:104B3E00EF25E054FE90067FF09006D9E0900680B7
:104B4E00F09006DDE0900681F0A3EBF0A3EAF0A36F
:094B5E00E9F090069B7401F022BD
:100F17009006D1EBF0A3EAF0A3E9F0E49006FEF027
:100F27009006D404F0120507FFAEF0E5F060030267
:100F3700128AEF1207120F6B000F7D4C0FA8570F85
:100F4700CC5D101D66105A7110AB7810EC85111727
:100F57008B11689311A59B11FBA2123CAE1260B3D3
:100F67000000128A9006D1E0FBA3E0FAA3E0F9E4BF
:100F770075F04C12056A90069BE07002FF22E49020
:100F8700069BF0D2EEC2EDD2EFD2ED9006D4F090F0
:100F970006D1E0FBA3E0FAA3E0F9E475F0571205E8
:100FA7006A9006D4E070037F0122C2EFE49006A1A5
:100FB700F0A3F09006D1E0FBA3E0FAA3E0F9E47513
:100FC700F05D12056A7A06797F9006D87401F0A35E
:100FD7007406F0A3747FF0A37401F0FB7A0679A17D
:100FE700123269C3EF6480948250028001C35003B8
:100FF7007F002290069CE06041C2EDC2EFD2EDE493
:101007009006D4F09006D1E0FBA3E0FAA3E0F9E460
:1010170075F06612056A9006D4E070037F0122D24C
:10102700EFE490069CF09006D1E0FBA3E0FAA3E082
:10103700F9E4F5F012056A7F0022E49006A1F0A317
:10104700F09006D1E0FBA3E0FAA3E0F9E475F071B4
:1010570012056A9006D8E4F0A37400F0A3740CF0AC
:10106700900680E09006DBF07B017A0679A11232C8
:1010770069C3EF6480948250028001C350037F00EC
:101087002290069CE06041C2EDC2EFD2EDE49006EB
:10109700D4F09006D1E0FBA3E0FAA3E0F9E475F001
:1010A7007812056A9006D4E070037F0122D2EFE43C
:1010B70090069CF09006D1E0FBA3E0FAA3E0F9E4E8
:1010C700F5F012056A7F0022C2EDD2EFD2EDE4906F
:1010D70006D4F09006D1E0FBA3E0FAA3E0F9E475AB
:1010E700F08512056A9006D4E070037F0122C2EFF3
:1010F70090067FE04401F0E49006A1F0A3F090068B
:10110700D1E0FBA3E0FAA3E0F9E475F08B12056ADE
:101117007A06797F9006D87401F0A37406F0A37459
:101127007FF0A37401F0FB7A0679A1123269C3EF4D
:101137006480948250028001C350037F002290068E
:101147009CE06041C2EDC2EFD2EDE49006D4F0908E
:1011570006D1E0FBA3E0FAA3E0F9E475F0931205EA
:101167006A9006D4E070037F0122D2EFE490069CD8
:10117700F09006D1E0FBA3E0FAA3E0F9E4F5F01262
:10118700056A7F0022E490069DF0A3F09006D1E067
:10119700FBA3E0FAA3E0F9E475F09B12056A7A066F
:1011A70079909006D87401F0A37406F0A37490F0B8
:1011B700900681E09006DBF07B017A06799D123577
:1011C700FCC3EF6480948250028001C350037F0008
:1011D7002290069CE06041C2EDC2EFD2EDE490069A
:1011E700D4F09006D1E0FBA3E0FAA3E0F9E475F0B0
:1011F700A212056A9006D4E070037F0122D2EFE4C1
:1012070090069CF09006D1E0FBA3E0FAA3E0F9E496
:10121700F5F012056A7F0022C2EDC2EFD2EDE4902D
:1012270006D4F09006D1E0FBA3E0FAA3E0F9E47559
:10123700F0AE12056A9006D4E070037F0122D2EF68
:10124700E49006A5F0A3F09006D1E0FBA3E0FAA393
:10125700E0F9E475F0B312056A7B017A0679A51205
:101267003DB6C3EF6480948250028001C350037F70
:101277000022900700E004F070069006FFE004F0FB
:10128700020F6BE49006D4F09006D1E0FBA3E0FADE
:0B129700A3E0F9E4F5F012056A7F0304
:0112A2002229
:0B35FC009006D5EBF0A3EAF0A3E9F085
:103607009006DC7401F0120507FFAEF0E5F06003E9
:103617000236F3EF2436604224E470030236DC24DA
:10362700E660030236F3E4900679F09006DBE0FFEC
:10363700900679E0C39F40030236ECE490067BF0E6
:10364700C2EEC2ED9006DCF09006D5E0FBA3E0FAEF
:10365700A3E0F9E475F0CA12056A9006DCE070038E
:103667007F0122E490067AF0D2ED90067BE0FF25F9
:10367700E0FFA2ECE4334FF0C2ED90067AE004F0ED
:10368700E0B408E490067BE0FF9006D8E0FBA3E0F7
:10369700FAA3E0F9900679E0F582758300EF12044A
:1036A700CF900679E004F0D2EE9006DBE0FF9006BB
:1036B70079E0C39F5004C2EF8002D2EFD2EDE490CD
:1036C70006DCF09006D5E0FBA3E0FAA3E0F9E47589
:1036D700F0E612056A9006DCE070037F0122C2ED76
:1036E700C2EE023632D2EEE490069CF0E49006DC9D
:1036F700F09006D5E0FBA3E0FAA3E0F9E4F5F012B9
:04370700056A7F03CD
:01370B00229B
:0B3269009006D5EBF0A3EAF0A3E9F01B
:103274009006DC7401F0120507120738329800003A
:1032840032E900FF331B0107334C010E336F011089
:10329400000033A1D2EEE490067CF09006DBE0FF60
:1032A40090067CE0C39F400302339C9006D8E0FB69
:1032B400A3E0FAA3E0F990067CE0F582758300129E
:1032C400046F90067EF090067CE004F0C2EDE4907A
:1032D40006DCF09006D5E0FBA3E0FAA3E0F9E47580
:1032E400F0FF12056A9006DCE070037F0122E4908F
:1032F400067DF090067EE0FF25E0F092EFD2EDE44B
:103304009006DCF09006D5E0FBA3E0FAA3E0F974A4
:103314000175F00712056A9006DCE070037F012254
:10332400C2ED90067DE004F0E0B408C7C2EEC2ED41
:10333400E49006DCF09006D5E0FBA3E0FAA3E0F904
:10334400740175F00E12056A9006DCE070037F01CB
:1033540022D2EDE49006DCF09006D5E0FBA3E0FA7F
:10336400A3E0F9740175F01012056A9006DCE070B0
:10337400037F0122C2EDD2EE20EC0302329F9006BD
:103384009C7401F09006D5E0FBA3E0FAA3E0F9E415
:10339400F5F012056A7F0222E490069CF0E49006A0
:1033A400DCF09006D5E0FBA3E0FAA3E0F9E4F5F045
:0533B40012056A7F0311
:0133B90022F1
:0B3DB6009006D5EBF0A3EAF0A3E9F0C3
:103DC100A37401F0120507FFAEF06003023E63EE3B
:103DD1006003023E637E067F907D0A124B67900668
:103DE1009AE06F7079900690E0FCA3E0FDA3E0FEFD
:103DF100A3E0FF9004951206C9900694E060221496
:103E0100704C900695E0FEA3E0FFE4FCFD9004AE4B
:103E11001206C99004AB7401F09004DB740DF080BC
:103E21002D900695E0FEA3E0FFE4FCFD9004AE12A8
:103E310006C9900697E0FEA3E0FFE4FCFD9004C7ED
:103E41001206C9E49004ABF09004DB740EF090020A
:103E51006CE0FF900699E0FEEF4E90026CF0E47882
:103E61000CF6E49006D8F09006D5E0FBA3E0FAA3A7
:0A3E7100E0F9E4F5F012056A7F03A2
:013E7B002224
:053FFF009006D5EFF073
:104004009006DA1206D5000000009006D6E0FCA364
:10401400E0FDA3E0FEA3E0FFE41202A19006D5E0D8
:1040240075F019A4248BF582E5F03403F583E0F8E8
:10403400A3E0F9A3E0FAA3E0FB12012E9006D5E079
:1040440075F019A4248FF582E5F03403F583E0F8C4
:10405400A3E0F9A3E0FAA3E0FB12003D9006DA1214
:1040640006C97FFF7EFF7D7F7C4B9006DAE0F8A3D4
:10407400E0F9A3E0FAA3E0FB120234600A400874FA
:10408400FFFFFEFD7C0022E4FFFEFDFC9006DAE06B
:10409400F8A3E0F9A3E0FAA3E0FB1202345006E42B
:1040A400FFFEFDFC229006DAE0FCA3E0FDA3E0FEA7
:0640B400A3E0FF1202DF91
:0140BA0022E3
:10434500E49006D1F0A31206D5000000009006D631
:104355001206D500000000E49006D1F09006D1E0E9
:10436500FFC3940E5030EF75F019A4248AF9740335
:1043750035F0FA7B01E075F003A42450FEE435F036
:104385009006DFF0A3CEF07D037C00123CD79006AB
:10439500D1E004F080C61249BAE4FCFDFE9006D6D1
:1043A5001206C97B017A0679D29006DFE4F0A37480
:1043B500A1F07D017C00123CD79006D2E0FCA3E081
:1043C500FDA3E0FEA3E0FFA3E0F8A3E0F9A3E0FA74
:0C43D500A3E0FBC31206926003124A1220
:0143E10022B9
:054169009006D1EFF00B
:10416E009006DA1206D5000000009006D2E0FCA3FD
:10417E00E0FDA3E0FEA3E0FF9006D1E0FB75F01991
:10418E00A4248BF582E5F03403F5831206C990065C
:10419E00D6E0FCA3E0FDA3E0FEA3E0FF75F019EB73
:1041AE00A4248FF582E5F03403F5831206C9EB756E
:1041BE00F019A4248AF9740335F0FA7B019006D124
:1041CE00E075F003A42450FEE435F09006EAF0A367
:1041DE00CEF07D037C00123BF41249BAE4FCFDFEE6
:1041EE009006DA1206C97B017A0679DA9006EAE4BD
:0C41FE00F0A374A1F07D017C00123BF4E2
:01420A002291
:1049BA00E49006E5F0A3F0A3F09006E6F0E4900692
:1049CA00E7F09006E6E075F019A4248AF974033535
:1049DA00F0FA7B01A3E07E0029F9EE3AFA120456B6
:1049EA00FF9006E5E06F90391E939006E5F0900679
:1049FA00E7E004F0E0B40CCA9006E6E004F0E0B4A4
:074A0A000EBB9006E5E0FF82
:014A11002282
:093E7C009006DFEFF0A3EDF0FB6E
:103E8500A31206D500000000EB640170439006DF25
:103E9500E0FF75F019A4248AF582E5F03403F58373
:103EA5007401F0EF75F019A4248AF9740335F0FA5A
:103EB5007B019006DFE075F003A42450FEE435F0A5
:103EC5009006EAF0A3CEF07D037C00123BF4804619
:103ED5009006E0E070409006DFE0FF75F019A4243D
:103EE5008AF582E5F03403F583E4F0EF75F019A463
:103EF500248AF9740335F0FA7B019006DFE075F04A
:103F050003A42450FEE435F09006EAF0A3CEF07D3C
:103F1500037C00123BF41249BAE4FCFDFE9006E175
:103F25001206C97B017A0679E19006EAE4F0A374EA
:093F3500A1F07D017C00123BF4B7
:013F3E002260
:104A1200E49006DAF0A31206D500000000E4900646
:104A2200DAF09006DAE0FFC3940E500DE4FD123E78
:104A32007C9006DAE004F080E91249BAE4FCFDFE5B
:104A42009006DB1206C97B017A0679DB9006EAE45E
:0C4A5200F0A374A1F07D017C00123BF485
:014A5E002235
:10193A004106CC004106A9004106AA004106AB00B7
:0B194B009006D1EBF0A3EAF0A3E9F056
:05195600E49006F2F030
:10195B009006D404F0120507FFAEF0E5F060030229
:10196B001C62EF24ED603724F67003021A2724F56E
:10197B007003021A9124F47003021B792434600360
:10198B00021C629006D1E0FBA3E0FAA3E0F9900001
:10199B0002E4F5F0120589E475F01312056A90065E
:1019AB00D1E0FBA3E0FAA3E0F9900002120532C3E9
:1019BB009401E5F094004003D38001C340037F0002
:1019CB00229006CCE075F026A42403F582E5F034D2
:1019DB0005F583E0706A9006A9F09006CCE075F0EF
:1019EB0026A42403F582E5F03405F583E0703690E8
:1019FB0006A9E06408602E9006CCE0045407F09032
:101A0B0006A9E004F0E49006D4F09006D1E0FBA325
:101A1B00E0FAA3E0F9E475F01D12056A9006D4E034
:101A2B0070B87F01229006A9E0B408149006D1E0AB
:101A3B00FBA3E0FAA3E0F9E4F5F012056A7F0022BC
:101A4B009006CCE075F026A424DEF9740435F0FA88
:101A5B007B01EAC0E0E9C0E07A0679AC78AC7C06A1
:101A6B007D01D0E0F9D0E0FA7E007F20120430E453
:101A7B009006D4F09006D1E0FBA3E0FAA3E0F9E4E2
:101A8B0075F02812056A9006D4E070037F0122904E
:101A9B0006AA7407F0E49006ABF09006AAE0FFA349
:101AAB00E0C39F4003021B8BE025E025E024B0F54B
:101ABB0082E43406F583E0FCA3E0FDA3E0FEA3E0A3
:101ACB00FF9006ABE025E025E024ACF582E434067C
:101ADB00F583E0F8A3E0F9A3E0FAA3E0FBD3120649
:101AEB009240749006ABE025E025E024ACF582E44F
:101AFB003406F583E0FCA3E0FDA3E0FEA3E0FF903A
:101B0B0006CD1206C99006ABE025E025E024B0F522
:101B1B0082E43406F583E0FCA3E0FDA3E0FEA3E042
:101B2B00FF9006ABE025E025E024ACF582E434061B
:101B3B00F5831206C99006CDE0FCA3E0FDA3E0FE01
:101B4B00A3E0FF9006ABE025E025E024B0F582E4AE
:101B5B003406F5831206C9E49006D4F09006D1E062
:101B6B00FBA3E0FAA3E0F9E475F03412056A9006E2
:101B7B00D4E070037F01229006ABE004F0021AA5BB
:101B8B009006AAE014F0E06003021AA09006BCE0F5
:101B9B00FCA3E0FDA3E0FEA3E0FF9006B8E0F8A3F2
:101BAB00E0F9A3E0FAA3E02FFFEA3EFEE93DFDE8F2
:101BBB003CFC78011206A39006CCE075F019A42426
:101BCB0082F582E5F03403F5831206C99006CCE06A
:101BDB0075F019A4248AF582E5F03403F583E060EF
:101BEB00409006CCE075F019A42482F582E5F03420
:101BFB0003F583E0FCA3E0FDA3E0FEA3E0FF90066A
:101C0B00D61206C99006CCE0FF123FFF9006CCE03F
:101C1B0075F019A42486F582E5F03403F5831206DA
:101C2B00C99006CCE075F026A42403F582E5F034C8
:101C3B0005F583E4F09006F4E004F070069006F3EB
:101C4B00E004F09006D1E0FBA3E0FAA3E0F9E4F5A1
:101C5B00F012056A7F0022E49006D4F09006D1E0E2
:0F1C6B00FBA3E0FAA3E0F9E4F5F012056A7F03AA
:011C7A002247
:104BFF0053890F438910758D8A758BD0D2ABD28EA6
:014C0F002282
:10391E0000BC01BD02BE03BF04B805B906BA07BBA1
:10392E0008B409B50AB60BB70CB00DB10EB20FB391
:10393E0010AC11AD12AE13AF14A815A916AA17AB81
:10394E0018A419A51AA61BA71CA01DA11EA21FA371
:10395E00209C219D229E239F24982599269A279B61
:10396E00289429952A962B972C902D912E922F9351
:10397E00308C318D328E338F34883589368A378B41
:10398E00388439853A863B873C803D813E823F8331
:10399E0040FC41FD42FE43FF44F845F946FA47FB21
:1039AE0048F449F54AF64BF74CF04DF14EF24FF311
:1039BE0050EC51ED52EE53EF54E855E956EA57EB01
:1039CE0058E459E55AE65BE75CE05DE15EE25FE3F1
:1039DE0060DC61DD62DE63DF64D865D966DA67DBE1
:1039EE0068D469D56AD66BD76CD06DD16ED26FD3D1
:1039FE0070CC71CD72CE73CF74C875C976CA77CBC1
:103A0E0078C479C57AC67BC77CC07DC17EC27FC3B0
:104B6700E4FCCBEDCB1DEB60160FEFCAEECA70016C
:104B77000E14F5828A83E06C90391E93FC80E3CF94
:024B8700ECCF71
:014B89002209
:1000360002034BE86480F8E933E83360110460F0AA
:10004600ED33EC337009E8FCE9FDEAFEEBFF220430
:1000560060DED3EB9FEA9EE99DE8C2E78CF0C2F72B
:1000660095F0400CE8CCF8E9CDF9EACEFAEBCFFBF7
:1000760012031685D0F05804700320D5B3E8047037
:10008600075002B2D502035592D5EC0460F7E4CCD2
:10009600C0E0C398F8603B94186008400DD0E0FBC0
:1000A60002032DE4FBFAC9FC8028E830E406E4C923
:1000B600FBE4CAFCE830E305E4C9CACBFCE8540714
:1000C6006010F8C3E913F9EA13FAEB13FBEC13FC1F
:1000D600D8F130F52FC3E49CFCEF9BFFEE9AFEEDC2
:1000E60099FDD0E0FBEF4E4D4C701222DB0302036C
:1000F60052EC2CFCEF33FFEE33FEED33FDED30E733
:10010600EB02032DEF2BFFEE3AFEED39FDD0E0FBBF
:1001160050130BBB0003020355ED13FDEE13FEEF68
:0801260013FFEC13FC02032D92
:10012E00EC4D6011E8497017ED33EC3304600DE4CB
:10013E00FCFFFEFD22E933E8330470F802034B1294
:10014E00031658046009E4CC248150062850090295
:10015E000355284003020352C0E0EB4A7044B980B5
:10016E0006D0E0FB020341EF4E701CBD8008EBFF92
:10017E00EAFEE9FD80EBE98DF0A4FEE5F002021740
:10018E00E9CDF9EAFEEBFFEF89F0A4FCE5F0CE89AC
:10019E00F0A42EFFE435F0CD89F0A42DFEE435F069
:1001AE008067EF4E7005BD80D780C3EF8BF0A4AC97
:1001BE00F0EE8BF0A42CFCE435F0F8EF8AF0A42CD2
:1001CE00E5F038FCE433CB8DF0A42CFCE5F03BF8E5
:1001DE00EE8AF0A42CFCE5F038F8E433CF89F0A4D5
:1001EE002CFCE5F038CF3400CE89F0A42FFFE5F0DB
:1001FE003EFEE433C98DF0A42EFEE5F039CD8AF033
:10020E00A42FFFE5F03EFEE43DFD33D0E0FB5007AA
:10021E000BBB000F020355EC2CFCEF33FFEE33FE4D
:06022E00ED33FD02032D7B
:1002340074F8CC6480CCC86480C8F582046043C37D
:10024400EB9FF5F0EA9E42F0E99D42F0E89C45F010
:1002540060305018E5825FFFE582F42B5582FB5035
:10026400210ABA001D09B90019088016E5825BFB52
:10027400E582F42F5582FF50090EBE00050DBD0026
:10028400010CC3EB9FF5F0EA9E42F0E99D42F0E8D1
:0D0294009C45F06007CC4820E701B3EC2248
:1002A10075F020800E75F010800575F0087D007ED8
:1002B100007F003392D530D503120684EC33401011
:1002C100EF33FFEE33FEED33FDEC33FCD5F0ED22E1
:0E02D100E5F0247EA2D513CC92E7CDCEFF221D
:1002DF00EDD2E7CD33EC3392D524814006E4FFFE17
:1002EF00FDFC22FCE4CFCECDCC24E0501174FF8076
:1002FF00EDC3CC13CCCD13CDCE13CECF13CF047013
:07030F00F030D5DE02068488
:10031600E9D2E7C933E833F892D5EDD2E7CD33EC2D
:0703260033FC5002B2D522A6
:10032D00EC30E7100FBF000C0EBE00080DBD000431
:10033D000BEB6014A2D5EB13FCED92E7FD2274FFDD
:10034D00FCFDFEFF22E480F8A2D574FF13FC7D8036
:03035D00E480EF4A
:1042C500024512E493A3F8E493A34003F68001F2B8
:1042D50008DFF48029E493A3F85407240CC8C333FA
:1042E500C4540F4420C8834004F456800146F6DFC9
:1042F500E4800B01020408102040809015F8E47E4C
:10430500019360BCA3FF543F30E509541FFEE493BD
:10431500A360010ECF54C025E060A840B8E493A384
:10432500FAE493A3F8E493A3C8C582C8CAC583CAAF
:10433500F0A3C8C582C8CAC583CADFE9DEE780BE67
:01194A00009C
:10036000E709F608DFFA8046E709F208DFFA803E7F
:1003700088828C83E709F0A3DFFA8032E309F6086C
:10038000DFFA8078E309F208DFFA807088828C83D4
:10039000E309F0A3DFFA806489828A83E0A3F60888
:1003A000DFFA805889828A83E0A3F208DFFA804C62
:1003B00080D280FA80C680D4806980F28033801039
:1003C00080A680EA809A80A880DA80E280CA8033A2
:1003D00089828A83ECFAE493A3C8C582C8CCC5831A
:1003E000CCF0A3C8C582C8CCC583CCDFE9DEE780EA
:1003F0000D89828A83E493A3F608DFF9ECFAA9F069
:10040000EDFB2289828A83ECFAE0A3C8C582C8CCBE
:10041000C583CCF0A3C8C582C8CCC583CCDFEADED7
:10042000E880DB89828A83E493A3F208DFF980CC39
:1004300088F0EF60010E4E60C388F0ED2402B40432
:100440000050B9F582EB2402B4040050AF232345D9
:0604500082239003B0734B
:10045600BB010689828A83E0225002E722BBFE02A4
:09046600E32289828A83E49322D7
:10046F00BB010CE58229F582E5833AF583E0225042
:10047F0006E92582F8E622BBFE06E92582F8E2228C
:0D048F00E58229F582E5833AF583E49322A6
:10049C00BB010FF8E58229F582E5833AF583E02864
:1004AC00F0225009C58229F8E58226F622BBFE0906
:1004BC00C58229F8E22582F222F8EA2583F583E940
:0304CC0093282250
:1004CF00F8BB010DE58229F582E5833AF583E8F063
:1004DF00225006E92582C8F622BBFE05E92582C80F
:0204EF00F222F7
:1004F100C5F0F8A3E028F0C5F0F8E5821582700296
:060501001583E038F02232
:10050700BB010A89828A83E0F5F0A3E022500687BF
:10051700F009E71922BBFE07E3F5F009E319228981
:0B052700828A83E493F5F074019322B4
:10053200BB0110E58229F582E5833AF583E0F5F007
:10054200A3E0225009E92582F886F008E622BBFEE4
:100552000AE92582F8E2F5F008E222E5832AF5832A
:08056200E993F5F0A3E99322EF
:10056A00BB010A89828A83F0E5F0A3F0225006F7DC
:0F057A0009A7F01922BBFE06F3E5F009F31922D9
:10058900F8BB0111E58229F582E5833AF583E8F0A4
:10059900E5F0A3F0225009E92582C8F608A6F02261
:0D05A900BBFE09E92582C8F2E5F008F22248
:1005B60075F008758200EF2FFFEE33FECD33CDCCFC
:1005C60033CCC58233C5829BED9AEC99E58298407F
:1005D6000CF582EE9BFEED9AFDEC99FC0FD5F0D65C
:1005E600E4CEFBE4CDFAE4CCF9A88222B800C1B986
:1005F6000059BA002DEC8BF084CFCECDFCE5F0CBC4
:10060600F97818EF2FFFEE33FEED33FDEC33FCEBFC
:1006160033FB10D703994004EB99FB0FD8E5E4F9B7
:10062600FA227818EF2FFFEE33FEED33FDEC33FCA4
:10063600C933C910D7059BE99A4007EC9BFCE99A98
:10064600F90FD8E0E4C9FAE4CCFB2275F010EF2FDD
:10065600FFEE33FEED33FDCC33CCC833C810D707DD
:100666009BEC9AE899400AED9BFDEC9AFCE899F818
:0E0676000FD5F0DAE4CDFBE4CCFAE4C8F922AB
:104A5F00C2D5E830E70FB2D5E4C39BFBE49AFAE482
:104A6F0099F9E498F8EC30E717B2D5124A95120588
:104A7F00F2E4C39BFBE49AFAE499F9E498F8800313
:104A8F001205F230D50DE4C39FFFE49EFEE49DFDB9
:044A9F00E49CFC2275
:0E068400C3E49FFFE49EFEE49DFDE49CFC2287
:10069200EB9FF5F0EA9E42F0E99D42F0E89C45F0BE
:0106A2002235
:1006A300E8600FECC313FCED13FDEE13FEEF13FF35
:0306B300D8F12259
:1006B600E8600FEFC333FFEE33FEED33FDEC33FCA2
:0306C600D8F12246
:0C06C900ECF0A3EDF0A3EEF0A3EFF022A4
:1006D500A8828583F0D083D0821206EC1206EC1234
:1006E50006EC1206ECE473E493A3C583C5F0C58359
:1006F500C8C582C8F0A3C583C5F0C583C8C582C86F
:0107050022D1
:0C070600A42582F582E5F03583F58322FE
:10071200D083D082F8E4937012740193700DA3A376
:1007220093F8740193F5828883E47374029368608A
:06073200EFA3A3A380DF8A
:10073800D083D082F8E4937012740193700DA3A350
:1007480093F8740193F5828883E473740293B5F087
:0D075800067403936860E9A3A3A3A380D8EF
:00000001FF
