:10453A00C2AF53D7F912436D12440A124A96124B6C
:10454A00B5124AC7124B92123F67124B40E49007CA
:10455A0004F0A3F0900708F0A3F090070CF0A3F082
:10456A00900710F0A3F0D2AF780CF69006D804F0BA
:10457A00A3F0A37406F0A3748FF0A3740BF07B006E
:10458A007A00790C7F58124AF47B017A02796D120B
:10459A0019267B017A0779041240E37B017A0779AD
:1045AA00081224BB7B017A07790C1215F67B017A73
:1045BA00077910120F177B017A02797112221A8079
:0245CA00C82205
:1040E3009006D0EBF0A3EAF0A3E9F0E49006F7F032
:1040F3009006D304F0120507FFAEF0E5F07076EFFB
:1041030024A9601F2457706D9006D0E0FBA3E0FA4A
:10411300A3E0F9900002E4F5F0120589E475F05785
:1041230012056A9006D0E0FBA3E0FAA3E0F9900041
:1041330002120532C3940FE5F094004003D38001CB
:10414300C340037F00229006D87401F0A3F0A37448
:1041530006F0A3748FF0A3740BF07B007A00790C44
:104163007F58124AF49006F9E004F070069006F8BE
:10417300E004F08093E49006D3F09006D0E0FBA334
:0D418300E0FAA3E0F9E4F5F012056A7F030D
:01419000220C
:03001B0002479009
:10479000C0E0C083C082758D8A758BD0900707E01A
:1047A00004F07006900706E004F090070BE004F0B8
:1047B000700690070AE004F090070FE004F070061E
:1047C00090070EE004F0900270E004F07006900292
:1047D0006FE004F0900703E004F07006900702E039
:1047E00004F0900274E004F07006900273E004F0AC
:0747F000D082D083D0E0323B
:104B9200759E82759D2D759852D2ACC299C298D2DB
:024BA200BC2233
:104AC70075D10075D20075E60043D28043D22043EA
:104AD700D20753E6F043E6401242337F03124BDC22
:0D4AE7007F647E00124B56D2AE43D12022D8
:0300330002332B6A
:10332B00C0E0C0F0C083C082C0D0EEC0E0EFC0E010
:10333B00E5E654079004DBF0E0FF75F026A424FDCE
:10334B00F582E5F03404F583E09004DCF075F026AB
:10335B00EFA424DDF582E5F03404F583C083C0824D
:10336B009004DCE0FFD082D08375F004120706E4F2
:10337B00F09004DBE0FE75F026A424DEF582E5F088
:10338B003404F58375F004EF120706E5DBF075F0F6
:10339B0026EEA424DFF582E5F03404F583C083C068
:1033AB00829004DCE0FFD082D08375F00412070614
:1033BB00E5DAF09004DBE0FE75F026A424E0F5825C
:1033CB00E5F03404F58375F004EF120706E5D9F048
:1033DB009004DCE0045407FF75F026EEA424FDF501
:1033EB0082E5F03404F583EFF09004DBE0FF75F039
:1033FB0026A42402F582E5F03405F5837401F0EF81
:10340B00045407FFE5E654F04FF5E6E5E65407757F
:10341B00F019A4247FF582E5F03403F583E064070B
:10342B005407FFE5D254F84FF5D2E5E6540775F093
:10343B0019A42480F582E5F03403F583E0F5D4C2BA
:01344B00DFA1
:10344C00D0E0FFD0E0FED0D0D082D083D0F0D0E05E
:01345C00323D
:074BDC0053D1F8EF42D12292
:104B5600CBEFCBCAEECAE4F9F87F557E05FDFC1211
:054B66004A198FD42262
:10423300E49006D0F0A3F09006D0F09006D0E0FF13
:10424300C3940840030242CF75F026EFA424FDF582
:1042530082E5F03404F583E4F075F026EFA424003E
:10426300F582E5F03405F583E4F075F026EFA42438
:1042730001F582E5F03405F5837420F075F026EF3F
:10428300A42402F582E5F03405F583E4F09006D129
:10429300F09006D1E0FFC3940850289006D0E07553
:1042A300F026A424DDF582E5F03404F58375F004EB
:1042B300EF1207061206D5000000009006D1E004B5
:0C42C300F080CE9006D0E004F002423EF5
:0142CF0022CC
:083B5C009006E7ECF0A3EDF088
:103B6400E49006EBF0A3F0A3F09006E7E0FEA3E0F8
:103B7400FF9006EAE02F9006E9E03EC39404400477
:103B8400E4FEFF22E49006EBF0A3F09006E7E0FEEB
:103B9400A3E0FFC39006ECE09F9006EBE09E400399
:103BA400023C36A2AFE4339006EDF0C2AF9006EBD0
:103BB400E0FEA3E07802C333CE33CED8F9FFF5821A
:103BC4008E8312046FF5BC8F828E83A312046FF56B
:103BD400BD9006EBE0FEA3E07802C333CE33CED82B
:103BE400F9FFF5828E83A3A312046FF5BE8F828E34
:103BF40083A3A3A312046FF5BF9006E9E0FEA3E03C
:103C0400FF8EC78FC675B90575B9029006EDE0241D
:103C1400FF92AF9006EAE004F070069006E9E00433
:103C2400F09006ECE004F070069006EBE004F0027D
:0A3C34003B8F9006EBE0FEA3E0FFDB
:013C3E002263
:083C3F009006DCECF0A3EDF0AF
:103C4700E49006E0F0A3F0A3F09006DCE0FEA3E02A
:103C5700FF9006DFE02F9006DEE03EC394044004A9
:103C6700E4FEFF22E49006E0F0A3F09006DCE0FE1D
:103C7700A3E0FFC39006E1E09F9006E0E09E4003CB
:103C8700023D15A2AFE4339006E2F0C2AF9006DE24
:103C9700E0FEA3E0FF8EC78FC675B901A3E0FCA3C2
:103CA700E0FDCEECCE7802C333CE33CED8F9FFF5A4
:103CB700828E83E5BC1204CF8F828E83A3E5BD126B
:103CC70004CFEDCEECCE7802C333CE33CED8F9FF96
:103CD700F5828E83A3A3E5BE1204CF8F828E83A3C2
:103CE700A3A3E5BF1204CF9006E2E024FF92AF90B2
:103CF70006DFE004F070069006DEE004F09006E1CF
:103D0700E004F070069006E0E004F0023C729006D2
:063D1700E0E0FEA3E0FF66
:013D1D002283
:104A5D00E4FE8F0AD2C0850AC0EE75F003A424EFE0
:104A6D00F582E43406F583E4F0A3F0EE75F003A4CB
:104A7D0024EEF582E43406F5837401F00EEEB406EF
:084A8D00D8E4900700F0A3F04B
:014A950022FE
:0A4BD200C2AFD2C0850AC0D2AF22E4
:0B356D00900729EBF0A3EAF0A3E9F0BF
:09357800E4A3F0A3F09006F4F0C6
:1035810090072E04F0900729E0FBA3E0FAA3E0F9ED
:10359100120507FFAEF0E5F06003023661EF24C3C8
:1035A1006022243D6003023661900729E0FBA3E01D
:1035B100FAA3E0F9900002E4F5F0120589E475F050
:1035C1003D12056A900729E0FBA3E0FAA3E0F99018
:1035D1000002120532C39464E5F094004003D380E5
:1035E10001C340037F0022E490072DF09006F6E02E
:1035F10004F070069006F5E004F0E490072CF090DA
:10360100072CE075F003A424EEF582E43406F5837B
:10361100E0FF90072CE075F003A424EFF582E43479
:1036210006F583E0FEA3E04F4E700790072D04F0EE
:10363100801F90072CE075F003A424EFF582E43499
:1036410006F583E4F0A3F090072CE004F0E0B40663
:10365100AE90072DE060030235AA124BD20235AAC3
:10366100E490072EF0900729E0FBA3E0FAA3E0F92C
:08367100E4F5F012056A7F0385
:01367900222E
:1012A3005400053C3C7555534F5F323E3E000000F1
:1012B30000000000000000602800193C2D2D20478D
:1012C300454F5350484552415F32303132202D2D26
:1012D3003E000000000000000000000000000000CD
:1012E3000000004800413030303031000000410040
:1012F300490141004A1401120041004E00610E00F1
:101303004F0000000000000000000000000000008B
:1013130000000000000000000000000000000000CA
:1013230000000000000000000000000000000000BA
:1013330000000000000000000000000000000000AA
:10134300000000000000000000000000000000009A
:10135300000000000000000000000000000000008A
:10136300000000000000000000000000000000007A
:10137300000000000000000000000000000000006A
:10138300000000000000000000000000000000005A
:10139300000000000000000000000000000000004A
:1013A300000000000000000000000000000000003A
:1013B300000000000000000000000000000000002A
:1013C300000000000000000000000000000000001A
:1013D300000000000000000000000000000000000A
:1013E30000000000000000000000000000000000FA
:1013F30000000000000000000000000000000000EA
:101403000000000000000000000000000000006178
:101413000E015D000000000000000000000000005D
:1014230000000000000000000000000000000000B9
:1014330000000000000000000000000000000000A9
:101443000000000000000000000000000000000099
:101453000000000000000000000000000000000089
:101463000000000000000000000000000000000079
:101473000000000000000000000000000000000069
:101483000000000000000000000000000000000059
:101493000000000000000000000000000000000049
:1014A3000000000000000000000000000000000039
:1014B3000000000000000000000000000000000029
:1014C3000000000000000000000000000000000019
:1014D3000000000000000000000000000000000009
:1014E30000000000000000000000000000000000F9
:1014F30000000000000000000000000000000000E9
:1015030000000000000000000000000000000000D8
:1015130000000000000000000000000000000000C8
:101523000041026BC00114FF41026C004100000046
:10153300410001004100020041000300410004009A
:03002300023EA7F3
:103EA700C0E0C083C082C0D0E8C0E0EFC0E0C2AFCE
:103EB70030981EC298900375E02475F582E43402A9
:103EC700F583E599F0900375E004F0900377E0043B
:103ED700F030997BC29990004DE0FF90004CE0C311
:103EE7009F505EE0C39403400790026CE0B4011852
:103EF70090004CE0245DF582E43401F583E0F59908
:103F070090004CE004F080477813E6702B90004C4B
:103F1700E0245DF582E43401F583E0B4D70276014D
:103F270090004CE0245DF582E43401F583E0F599D7
:103F370090004CE004F080177599007813760080A4
:103F47000E90004CE4F07813F690026DF0A3F0D2D7
:103F5700AFD0E0FFD0E0F8D0D0D082D083D0E0322D
:104A9600C299C298123986E4900375F0A3F0A3F088
:104AA60090004BF0A3F0A3F0C2B57813F690026B1A
:104AB60074C0F0E490026DF0A3F0900271F0A3F0E0
:014AC60022CD
:102F1200E4FF90015DF0A374D7F0A37429F0900050
:102F220049E0900160F0A37402F090026BE090011E
:102F320063F0E4EFC39414501A74052FF582E4345D
:102F420000F583E0FE74642FF582E43401F583EE2C
:102F5200F0800C74642FF582E43401F583E4F00F01
:102F6200EFB414CFE4FFEFC39408501874412FF567
:102F720082E43400F583E0FE74782FF582E43401B4
:102F8200F583EEF00FEFB405DD9004DAE090017DF9
:102F9200F0E4FF9004DAE0FEEFC39E504C75F019A6
:102FA200EFA4247DF582E5F03403F583E0FEC454FA
:102FB200F0FE75F019EFA4247EF582E5F03403F5F6
:102FC20083E04EFE75F002EFA4247EF582E5F03434
:102FD20001F583EEF075F002EFA4247FF582E5F0AF
:102FE2003401F583E4F00F80AAE4FF90004AE0FE8A
:102FF200EFC39E502D74192FF582E43400F583E05F
:10300200FE9004DAE075F002A42FF582E435F0F5C3
:1030120083E582247EF582E5833401F583EEF00FA9
:1030220080C99004DAE025E0FD241CFF90004AE00C
:103032002F900162F07E017F5EED2420FD90004A18
:10304200E02DFD124B1D90004AE0FE9004DAE0FDF7
:1030520075F002A42EF582E435F0F583E582247E34
:10306200F582E5833401F583EFF0ED25E02422FFBC
:0630720090004AE02FFF70
:013078002235
:030006007F002256
:03000E007F00224E
:030016007F002246
:10307900E4FF9006D0F0900054E014FEEFC39E40A8
:10308900030231CB74552FF582E43400F583E0FE59
:103099009004DAE0FDEEC39D40030231C574562F5A
:1030A900F582E43400F583E0FEC4540F6003023175
:1030B900BE74552FF582E43400F583E075F019A448
:1030C900247EF582E5F03403F583E0FE74562FF58E
:1030D90082E43400F583E0FDEE6D705974552FF5E7
:1030E90082E43400F583E075F019A4247FF582E5C4
:1030F900F03403F583E0FE74572FF582E43400F5CC
:1031090083E0FDEE6D702E74552FF582E43400F5E1
:1031190083E075F019A42480F582E5F03403F58382
:10312900E0FE74582FF582E43400F583E0FDEE6D7E
:1031390070030231BB74572FF582E43400F583E044
:10314900FE74552FF582E43400F583E075F019A477
:10315900247FF582E5F03403F583EEF074582FF5FA
:1031690082E43400F583E0FE74552FF582E43400DF
:10317900F583E075F019A42480F582E5F03403F5B0
:1031890083EEF074562FF582E43400F583E0540F92
:10319900FE74552FF582E43400F583E075F019A427
:1031A900247EF582E5F03403F583EEF09006D074C1
:1031B90001F00F8001000F0F0F02307F7F011248CD
:1031C900C1229006D0E060031246BAE4FF1248C15A
:0131D90022D3
:03001E007F00223E
:030026007F002236
:03002E007F00222E
:034BE3007F00222E
:104B7F0090026B7440F0780C761212440AE4FF1224
:034B8F0048C122F8
:10076500E4F508F50990015DF0A374D7F0A37429A9
:10077500F0900049E0900160F0A37415F090026BD1
:10078500E0900163F0750807E4F5099004DAE0FFED
:10079500E509C39F4003020B3AAF080508745D2FB6
:1007A500F582E43401F583E509F075F019A4247D9B
:1007B500F582E5F03403F583E0C454F0FF75F019D4
:1007C500E509A4247EF582E5F03403F583E04FFFC7
:1007D500AE080508745D2EF582E43401F583EFF06B
:1007E50075F019E509A4247DF582E5F03403F58358
:1007F500E01470030209B2147003020A6124026056
:1008050003020B3575F019E509A4247EF582E5F0A0
:100815003403F583E024FD70030208B32403600369
:10082500020B3575F019E509A42489F582E5F03444
:1008350003F583E0640175F019702FE509A4248799
:10084500F582E5F03403F583E0FFAE080508745D35
:100855002EF582E43401F583EFF075F019E509A46E
:100865002486F582E5F03403802DE509A42483F57B
:1008750082E5F03403F583E0FFAE080508745D2ECC
:10088500F582E43401F583EFF075F019E509A42448
:1008950082F582E5F03403F583E0FFAE08050874C0
:1008A5005D2EF582E43401F583EFF002097F75F0E2
:1008B50019E509A42489F582E5F03403F583E0649C
:1008C5000175F0197051E509A42488F582E5F03425
:1008D50003F583E0FFAE080508745D2EF582E43468
:1008E50001F583EFF075F019E509A42487F582E594
:1008F500F03403F583E0FFAE080508745D2EF5823C
:10090500E43401F583EFF075F019E509A42486F5C3
:1009150082E5F03403804FE509A42484F582E5F0EF
:100925003403F583E0FFAE080508745D2EF582E417
:100935003401F583EFF075F019E509A42483F582F8
:10094500E5F03403F583E0FFAE080508745D2EF588
:1009550082E43401F583EFF075F019E509A42482EA
:10096500F582E5F03403F583E0FFAE080508745D14
:100975002EF582E43401F583EFF075F019E509A44D
:10098500247FF582E5F03403F583E0FFAE08050822
:10099500745D2EF582E43401F583EFF075F019E509
:1009A50009A42480F582E5F03403020B2175F019C2
:1009B500E509A4247EF582E5F03403F583E06003C0
:1009C500020B3575F019E509A42484F582E5F034A8
:1009D50003F583E0FFAE080508745D2EF582E43467
:1009E50001F583EFF075F019E509A42483F582E597
:1009F500F03403F583E0FFAE080508745D2EF5823B
:100A0500E43401F583EFF075F019E509A42482F5C6
:100A150082E5F03403F583E0FFAE080508745D2E2A
:100A2500F582E43401F583EFF075F019E509A424A6
:100A350081F582E5F03403F583E0FFAE080508741F
:100A45005D2EF582E43401F583EFF075F019E509C3
:100A5500A4247FF582E5F03403020B2175F019E536
:100A650009A4247EF582E5F03403F583E014605A89
:100A7500046003020B3575F019E509A42484F58299
:100A8500E5F03403F583E0FFAE080508745D2EF547
:100A950082E43401F583EFF075F019E509A42483A8
:100AA500F582E5F03403F583E0FFAE080508745DD3
:100AB5002EF582E43401F583EFF075F019E509A40C
:100AC500247FF582E5F03403805275F019E509A419
:100AD5002484F582E5F03403F583E0FFAE080508CC
:100AE500745D2EF582E43401F583EFF075F019E5B8
:100AF50009A42483F582E5F03403F583E0FFAE080D
:100B05000508745D2EF582E43401F583EFF075F088
:100B150019E509A4247FF582E5F03403F583E0FFA8
:100B2500AE080508745D2EF582E43401F583EFF017
:100B35000509020790E50824FB900162F07E017F1C
:100B45005EE50814FD124B1D745D2508F582E4343D
:090B550001F583EFF0E50804FF4F
:010B5E002274
:103A770090005AE0FF900378EFF0900059E0FF9034
:103A87000379EFF0900058E0FF90037AEFF0900091
:103A970057E0FF90037BEFF0900378E0FCA3E0FD95
:103AA700A3E0FEA3E0FF9007211206C990005EE0A5
:103AB700FF900378EFF090005DE0FF900379EFF05F
:103AC70090005CE0FF90037AEFF090005BE0FF90DE
:103AD700037BEFF0900378E0FCA3E0FDA3E0FEA3F7
:103AE700E0FF9007251206C9900056E0FFEF120786
:103AF700123B05003B3D013B490200003B5590004E
:103B070055E0FFEFC0E0900721E0FCA3E0FDA3E054
:103B1700FEA3E0FF9006D11206C9900725E0FCA39B
:103B2700E0FDA3E0FEA3E0FF9006D51206C9D0E0B2
:103B3700FF1241918019900055E0FF7D00123DE48E
:103B4700800D900055E0FF7D01123DE48001007F6C
:043B5700001248C14F
:013B5B002247
:10378100750B0090015DE4F090015E74D7F090013B
:103791005F7429F0900049E0FF900160EFF0900123
:1037A1006174CCF0900162740BF0900055E0FF8FD2
:1037B1000B9004DAE0FFE50BC39F40067F09124836
:1037C100C122900163E50BF0AF0B75F019EFA42452
:1037D10089F582E5F03403F583E0FF900164EFF0B1
:1037E100AF0B75F019EFA4248AF582E5F03403F5E7
:1037F10083E0FCA3E0FDA3E0FEA3E0FF90037812C9
:1038010006C9900378E0FF900168EFF0900379E03A
:10381100FF900167EFF090037AE0FF900166EFF00F
:1038210090037BE0FF900165EFF0AF0B75F019EFAE
:10383100A4248EF582E5F03403F583E0FCA3E0FDDA
:10384100A3E0FEA3E0FF9003781206C9900378E09D
:10385100FF90016CEFF0900379E0FF90016BEFF0C6
:1038610090037AE0FF90016AEFF090037BE0FF9014
:103871000169EFF07E017F5E7D0F124B1D90016D9E
:04388100EFF07F11D4
:013885002220
:1045CC0090074EE4F0900054E0FFEF24E5FF9007D5
:1045DC004EEFF090074EE0FFEF6054900055E0FF77
:1045EC007B017A007956EBC0E0EAC0E0E9C0E07BE1
:1045FC00017A00796A900718EBF0A3EAF0A3E9F0CE
:10460C007B017A00796F90071BEBF0A3EAF0A3E92A
:10461C00F090074EE0FE90071EEEF0D0E0F9D0E0EF
:10462C00FAD0E0FB12292B7F001248C12280067FB2
:07463C00091248C1227F00B2
:014643002254
:0C4BC6001227431249CC7F001248C12284
:1048C10090074FEFF090015DE4F090015E74D7F036
:1048D10090015F7429F0900049E0FF900160EFF0D2
:1048E100900053E0FF900164EFF090016174FFF0DC
:1048F10090026BE0FF900163EFF090074FE0FF90B3
:104901000165EFF09001627404F07E017F5D7D0925
:0B491100124B1D900166EFF07F0A22A0
:0D464400900735EEF0A3EFF0900737EDF092
:10465100900738E4F0900739E4F0900739E4F090DE
:104661000737E0FF900739E0FEEEC39F5036C2D70F
:10467100900739E0FF900735E0FCA3E0FD8D828CC7
:1046810083E5822FF582E43583F583E0FF900738D7
:10469100E02FF030D706900738E004F0900739E0BA
:1046A10004F080BB900738E0FFC374FF9FFF9007C1
:0846B10038EFF0900738E0FF3C
:0146B90022DE
:101C4E00900746E4F0900747E4F0900053E0FFEF72
:101C5E00131313541FFFEF541FFF900746EFF0901E
:101C6E000746E0FFEFC3940E4003021F4590015D4F
:101C7E00E4F090015E74D7F090015F7428F090014B
:101C8E0060E4F0900053E0FF900161EFF09001628C
:101C9E007403F0900746E0FF75F019EFA4247DF56C
:101CAE0082E5F03403F583E0FFEF1207121CC80043
:101CBE001E20011E7D0200001F0F900746E0FF75DB
:101CCE00F019EFA4247EF582E5F03403F583E0FFEE
:101CDE00EF1207121CEC001D780300001F0F900777
:101CEE0046E0FF75F019EFA42489F582E5F0340380
:101CFE00F583E0FFEFB40139900746E0FF75F01968
:101D0E00EFA42486F582E5F03403F583E0FF90011D
:101D1E0063EFF0900746E0FF75F019EFA42487F506
:101D2E0082E5F03403F583E0FF900164EFF0021FCB
:101D3E000F900746E0FF75F019EFA42482F582E5B7
:101D4E00F03403F583E0FF900163EFF0900746E077
:101D5E00FF75F019EFA42483F582E5F03403F583C3
:101D6E00E0FF900164EFF0021F0F900746E0FF7551
:101D7E00F019EFA42489F582E5F03403F583E0FF32
:101D8E00EF64017051900746E0FF75F019EFA4243F
:101D9E0086F582E5F03403F583E0FF900746E0FE1A
:101DAE00745D2EF582E43401F583EFF0900746E082
:101DBE00FF75F019EFA42487F582E5F03403F5835F
:101DCE00E0FF900746E0FE745D2EF582E43401F5E7
:101DDE0083EFF0021F0F900746E0FF75F019EFA496
:101DEE002482F582E5F03403F583E0FF900163EF82
:101DFE00F0900746E0FF75F019EFA42483F582E515
:101E0E00F03403F583E0FF900164EFF0021F0F0240
:101E1E001F0F900746E0FF75F019EFA4247EF582A0
:101E2E00E5F03403F583E0FFEF1207121E410000C8
:101E3E00001F0F900746E0FF75F019EFA42483F5FD
:101E4E0082E5F03403F583E0FF900163EFF0900735
:101E5E0046E0FF75F019EFA42484F582E5F0340313
:101E6E00F583E0FF900164EFF0021F0F021F0F9049
:101E7E000746E0FF75F019EFA4247EF582E5F034F5
:101E8E0003F583E0FFEF1207121EA1001ED9010019
:101E9E00001F0F900746E0FF75F019EFA42483F59D
:101EAE0082E5F03403F583E0FF900163EFF09007D5
:101EBE0046E0FF75F019EFA42484F582E5F03403B3
:101ECE00F583E0FF900164EFF08036900746E0FF67
:101EDE0075F019EFA42483F582E5F03403F583E061
:101EEE00FF900163EFF0900746E0FF75F019EFA445
:101EFE002484F582E5F03403F583E0FF900164EF6E
:101F0E00F07B017A01795D7D0812367A900747EFF2
:101F1E00F07E017F5D900747E0FD12464490074733
:101F2E00E0FE745D2EF582E43401F583EFF0900748
:091F3E0047E0FFEF04FF227F00E1
:011F47002277
:100B5F00900748E4F0900749E4F0900053E0FFEF6E
:100B6F00131313541FFFEF541FFF900748EFF0901C
:100B7F000748E0FFEFC3940E4003020F1490015D8E
:100B8F00E4F090015E74D7F090015F7428F090014B
:100B9F0060E4F0900053E0FF900161EFF09001628C
:100BAF007406F0900748E0FF75F019EFA4247DF567
:100BBF0082E5F03403F583E0FFEF1207120BD90043
:100BCF000D85010E3B0200000ED8900748E0FF751F
:100BDF00F019EFA4247EF582E5F03403F583E0FFEE
:100BEF00EF1207120BFD000C890300000D2A90076E
:100BFF0048E0FF75F019EFA42489F582E5F034037E
:100C0F00F583E0FFEFB40139900748E0FF75F01965
:100C1F00EFA42486F582E5F03403F583E0FF90011D
:100C2F0063EFF0900748E0FF75F019EFA42487F504
:100C3F0082E5F03403F583E0FF900164EFF0020DDD
:100C4F002A900748E0FF75F019EFA42482F582E59A
:100C5F00F03403F583E0FF900163EFF0900748E075
:100C6F00FF75F019EFA42483F582E5F03403F583C3
:100C7F00E0FF900164EFF0020D2A900748E0FF7546
:100C8F00F019EFA42489F582E5F03403F583E0FF32
:100C9F00EF64017050900748E0FF75F019EFA4243E
:100CAF0086F582E5F03403F583E0FF900748E0FE18
:100CBF00745D2EF582E43401F583EFF0900748E080
:100CCF00FF75F019EFA42487F582E5F03403F5835F
:100CDF00E0FF900748E0FE745D2EF582E43401F5E5
:100CEF0083EFF08036900748E0FF75F019EFA424EA
:100CFF0082F582E5F03403F583E0FF900163EFF0B6
:100D0F00900748E0FF75F019EFA42483F582E5F012
:100D1F003403F583E0FF900164EFF0900748E0FFA4
:100D2F0075F019EFA4247FF582E5F03403F583E025
:100D3F00FFEF5407FFEF1207120D58000D5F010D63
:100D4F0067050D6F0700000D77900165E4F0801DBA
:100D5F009001657402F080159001657404F0800DA8
:100D6F009001657406F08005900165E4F0900166CE
:100D7F00740AF0020ED8900748E0FF75F019EFA43F
:100D8F00247EF582E5F03403F583E0FFEF120712BE
:100D9F000DA60000000ED8900748E0FF75F019EF80
:100DAF00A42483F582E5F03403F583E0FF9001631B
:100DBF00EFF0900748E0FF75F019EFA42484F58257
:100DCF00E5F03403F583E0FF900164EFF0900748FE
:100DDF00E0FF75F019EFA4247FF582E5F03403F5F9
:100DEF0083E0FFEF5407FFEF1207120E0A000E12F7
:100DFF00010E1A050E220700000E2A90016574409D
:100E0F00F0801E9001657442F08016900165744465
:100E1F00F0800E9001657446F08006900165744075
:100E2F00F0900166E4F0020ED8020ED8900748E069
:100E3F00FF75F019EFA4247EF582E5F03403F583F6
:100E4F00E0FFEF1207120E5F000E970100000ECDAC
:100E5F00900748E0FF75F019EFA42483F582E5F0C1
:100E6F003403F583E0FF900163EFF0900748E0FF54
:100E7F0075F019EFA42484F582E5F03403F583E0CF
:100E8F00FF900164EFF08036900748E0FF75F0198E
:100E9F00EFA42483F582E5F03403F583E0FF90019E
:100EAF0063EFF0900748E0FF75F019EFA42484F585
:100EBF0082E5F03403F583E0FF900164EFF09001D9
:100ECF00657440F0900166E4F090016774FFF07B69
:100EDF00017A01795D7D0B12367A900749EFF07E2A
:100EEF00017F5D900749E0FD124644900749E0FEFF
:100EFF00745D2EF582E43401F583EFF0900749E03D
:070F0F00FFEF04FF227F0049
:010F160022B8
:102C310090074AE4F090074BE4F0900053E0FFEF77
:102C4100131313541FFFEF541FFF90074AEFF09027
:102C5100074AE0FFEFC3940E4003022DA190015DEE
:102C6100E4F090015E74D7F090015F7428F0900158
:102C710060E4F0900053E0FF900161EFF090016299
:102C81007403F090074AE0FF75F019EFA4247DF575
:102C910082E5F03403F583E0FFEF1207122CAB005D
:102CA1002D05012D600200002D6B90074AE0FF7594
:102CB100F019EFA4247FF582E5F03403F583E0FFFA
:102CC100EF5407FFEF1207122CD9002CE0012CE87A
:102CD100052CF00700002CF8900163E4F0801D90B2
:102CE10001637402F080159001637404F0800D900B
:102CF10001637406F08005900163E4F0900164744F
:102D01000AF0806690074AE0FF75F019EFA4247F6E
:102D1100F582E5F03403F583E0FFEF5407FFEF128E
:102D210007122D33002D3B012D43052D4B070000CC
:102D31002D539001637440F0801E9001637442F042
:102D410080169001637444F0800E9001637446F024
:102D510080069001637440F0900164E4F0800B9070
:102D610001637440F0900164E4F07B017A01795DC4
:102D71007D0812367A90074BEFF07E017F5D900758
:102D81004BE0FD12464490074BE0FE745D2EF58248
:102D9100E43401F583EFF090074BE0FFEF04FF22ED
:022DA1007F00B1
:012DA300220D
:034BE6007F00222B
:102DA400900750E4F0900053E0FFEF131313541F07
:102DB400FFEF541FFF900750EFF0900750E0FFEF34
:102DC400C3940E4003022F0F900055E0FFEFC3138E
:102DD400FFEF5403FFEF1207122DED002E28012EF2
:102DE40063022E9D0300002ED7900750E0FF75F07C
:102DF40019EFA4247FF582E5F03403F583E0FFEFB7
:102E040054F0FFEFF0900750E0FF75F019EFA424A1
:102E14007FF582E5F03403F583E0FFEF4400FFEF34
:102E2400F0022F0F900750E0FF75F019EFA4247FF4
:102E3400F582E5F03403F583E0FFEF54F0FFEFF0A3
:102E4400900750E0FF75F019EFA4247FF582E5F0B8
:102E54003403F583E0FFEF4401FFEFF0022F0F90FE
:102E64000750E0FF75F019EFA4247FF582E5F034F4
:102E740003F583E0FFEF54F0FFEFF0900750E0FF1D
:102E840075F019EFA4247FF582E5F03403F583E0AF
:102E9400FFEF4405FFEFF08072900750E0FF75F0FC
:102EA40019EFA4247FF582E5F03403F583E0FFEF06
:102EB40054F0FFEFF0900750E0FF75F019EFA424F1
:102EC4007FF582E5F03403F583E0FFEF4407FFEF7D
:102ED400F08038900750E0FF75F019EFA4247FF5D7
:102EE40082E5F03403F583E0FFEF54F0FFEFF09058
:102EF4000750E0FF75F019EFA4247FF582E5F03464
:0D2F040003F583E0FFEF4400FFEFF07F00D6
:012F1100229D
:10367A0090072FEBF0A3EAF0A3E9F0900732EDF000
:10368A00900733E4F0900734E4F09007337403F0C2
:10369A00900732E0FF900733E0FEEEC39F4003023B
:1036AA00377B90072FE0FBA3E0FAA3E0F9900733FA
:1036BA00E0FF8F8275830012046FFFEF64D7600307
:1036CA00023772900732E0FFEF14FF900734EFF0F1
:1036DA00900733E0FF900734E0FEEED39F40459019
:1036EA00072FE0FBA3E0FAA3E0F9900734E0FF8F8D
:1036FA008275830012046FFF900734E0FEEEFD7CB2
:10370A0000ED2401FDEC3400FC90072FE0FBA3E060
:10371A00FAA3E0F98D828C83EF1204CF900734E08C
:10372A0014F080AC900733E0FF7E00EF2401FFEE37
:10373A003400FE90072FE0FBA3E0FAA3E0F98F82A2
:10374A008E83E41204CF90072FE0FBA3E0FAA3E0F4
:10375A00F9758205758300740112049C900732E0A2
:10376A0004F0900733E004F0900733E004F00236E7
:06377A009A900732E0FF07
:013780002226
:102AB40090026CE0FFEF1207122ACA002BA2012B2E
:102AC400F60300002C309004927440F09004937448
:102AD4000AF0900053E0FFEF1207122B10012B199C
:102AE400032B22052B2B072B34092B3D0A2B460CD9
:102AF4002B4F0E2B58102B61122B6A142B7CCA2BD4
:102B04008ECB2B73CD2B85DF00002B97122F1290C9
:102B1400004DEFF02212000690004DEFF02212005B
:102B24000E90004DEFF02212001690004DEFF022AF
:102B340012307990004DEFF02212001E90004DEFFC
:102B4400F02212002690004DEFF02212002E900089
:102B54004DEFF022124BE390004DEFF022124B7F29
:102B640090004DEFF02212076590004DEFF0221215
:102B740045CC90004DEFF022123A7790004DEFF0E3
:102B840022124BC690004DEFF02212378190004D77
:102B9400EFF0227F061248C190004DEFF022900022
:102BA40054E0FFEFC4135407FFEF5407FFEF12077D
:102BB400122BC8002BD1012BDA022BE3032BEC04DC
:102BC40000002C30124BE690004DEFF022122DA4A1
:102BD40090004DEFF022122C3190004DEFF02212B4
:102BE4001C4E90004DEFF022120B5F90004DEFF061
:102BF4002222900052E0FF120000EFC454F0FFEFD5
:102C0400C0E0900053E0FF120000CEEFCED0E0FF12
:102C1400EE4FFFEF1207122C220300002C2B1200A0
:0D2C24000090004DEFF02290004DE4F022F2
:0B19260090073AEBF0A3EAF0A3E9F011
:1019310090073D7401F090073AE0FBA3E0FAA3E0C1
:10194100F9120507FFAEF0EF8EF0120738196200A9
:1019510000198B052C1BAB05771C05057B00001CB2
:101961003490004BE4F0D29CC2B5D2AC9006EE7438
:1019710001F090073DE4F090073AE0FBA3E0FAA301
:10198100E0F9740575F02C12056A90073DE0FFEF50
:1019910060077812E6FFEF70037F01229006F0E006
:1019A10004F070069006EFE004F0781276009002E1
:1019B1006CE0FFEF12071219C5001A31011A7A0300
:1019C10000001B2D900049E0FF900052E0FEEE6FF9
:1019D100601590073AE0FBA3E0FAA3E0F9E475F0A3
:1019E1000012056A7F002290004BE0FF744E2FF534
:1019F10082E43400F583E0FF900000EFF07E007F89
:101A01004F90004BE0FDED14FD124B1D900000E0E6
:101A1100FEEF6E7003021B2D90073AE0FBA3E0FA84
:101A2100A3E0F9E475F00012056A7F0022021B2D84
:101A310090004BE0FF744E2FF582E43400F583E013
:101A4100FF900000EFF07E007F4F90004BE0FDED36
:101A510014FD124644900000E0FEEF6E7003021B7D
:101A61002D90073AE0FBA3E0FAA3E0F9E475F0005A
:101A710012056A7F0022021B2D900050E0FF120028
:101A810000EFC454F0FFEFC0E0900051E0FF1200FE
:101A910000CEEFCED0E0FFEE4FFF900049E0FEEF29
:101AA1006E601590073AE0FBA3E0FAA3E0F9E47554
:101AB100F00012056A7F002290004BE0FF744D2F69
:101AC100F582E43400F583E0FF120000EFC454F026
:101AD100FFEFC0E090004BE0FF744E2FF582E4343D
:101AE10000F583E0FF120000CEEFCED0E0FFEE4F15
:101AF100FF900001EFF07B017A00794F90004BE0FD
:101B0100FF7E00EF24FEFDEE34FFFC12000090008A
:101B110001E0FEEF6E601590073AE0FBA3E0FAA347
:101B2100E0F9E475F00012056A7F0022122AB490F0
:101B3100004DE0FFEF701890073AE0FBA3E0FAA335
:101B4100E0F9E475F00012056A7F0022021962D201
:101B5100B5C29C90004CE4F07813760090004CE004
:101B6100FF745D2FF582E43401F583E0FF8F9990D6
:101B7100004CE004F0D2AC90026CE0FFEF705A90A0
:101B8100073AE0FBA3E0FAA3E0F97582027583004E
:101B9100E475F00012058990073AE0FBA3E0FAA38F
:101BA100E0F9740575F07712056A90073AE0FBA336
:101BB100E0FAA3E0F9758202758300120532FFAEE7
:101BC100F0C3EF940AEE94004003D38001C35003A5
:101BD1000219627F002202196290073AE0FBA3E03A
:101BE100FAA3E0F9758202758300E475F00012052D
:101BF1008990073AE0FBA3E0FAA3E0F9740575F0D8
:101C01007B12056A90073AE0FBA3E0FAA3E0F975BD
:101C11008202758300120532FFAEF0C3EF9403EE2A
:101C210094004003D38001C350030219627F002254
:101C310002196290073DE4F090073AE0FBA3E0FA55
:0C1C4100A3E0F9E475F00012056A7F03CF
:011C4D002274
:10292B00900714EFF0900715EBF0A3EAF0A3E9F092
:10293B0090071FE4F0A3E4F07B017A07791490066B
:10294B00E9E4F0A3742AF07D017C00123B5C900754
:10295B0015E0FBA3E0FAA3E0F99006E9E4F0A37419
:10296B002BF07D057C00123B5C900715E0FBA3E090
:10297B00FAA3E0F9EBC0E0EAC0E0E9C0E07B017A42
:10298B00007905C8E9C8CCEACCCDEBCDD0E0F9D0C5
:10299B00E0FAD0E0FB7E007F14120430900718E0C1
:1029AB00FBA3E0FAA3E0F99006E9E4F0A37430F09E
:1029BB007D027C00123B5C900718E0FBA3E0FAA3BE
:1029CB00E0F9EBC0E0EAC0E0E9C0E07B017A007916
:1029DB0041C8E9C8CCEACCCDEBCDD0E0F9D0E0FAD8
:1029EB00D0E0FB7E007F0812043090071EE0FFEF63
:1029FB001313543FFF7E0090071FEEF0A3EFF090F0
:102A0B00071EE0FFEF54FCFFEF600E900720E00481
:102A1B00F0700690071FE004F090071FE0FEA3E0A4
:102A2B00FFD3EF940AEE9400400990071FE4F0A344
:102A3B00740AF090071BE0FBA3E0FAA3E0F9900700
:102A4B001FE0FCA3E0FD9006E9E4F0A37433F01261
:102A5B003B5C90071EE0FF90004AEFF07B017A078A
:102A6B00791E9006E9E4F0A37432F07D017C00122C
:102A7B003B5C90071EE0FF7E0090071BE0FBA3E092
:102A8B00FAA3E0F9EBC0E0EAC0E0E9C0E07B017A31
:102A9B00007919C8E9C8CCEACCCDEBCDD0E0F9D0A0
:082AAB00E0FAD0E0FB12043058
:012AB3002200
:1039860090074CE4F0A3E4F07B017A0079499006B5
:10399600DEE4F0A3742AF07D017C00123C3F900027
:1039A60049E0FFEFC39401400B900049E0FFEFD3DD
:1039B600940F40069000497401F07B017A00790566
:1039C6009006DEE4F0A3742BF07D057C00123C3FEC
:1039D6007B017A0079419006DEE4F0A37430F07D35
:1039E600027C00123C3F7B017A00794A9006DEE4B5
:1039F600F0A37432F07D017C00123C3F90004AE057
:103A0600FFEFD39428400690004A7428F090004AAD
:103A1600E0FFEF1313543FFF7E0090074CEEF0A338
:103A2600EFF090004AE0FFEF54FCFFEF600E9007C6
:103A36004DE004F0700690074CE004F090074CE06F
:103A4600FEA3E0FFD3EF940AEE9400400990074CE2
:103A5600E4F0A3740AF07B017A00791990074CE030
:103A6600FCA3E0FD9006DEE4F0A37433F0123C3FC5
:013A7600222D
:0B221A0090073EEBF0A3EAF0A3E9F010
:102225009007417401F090073EE0FBA3E0FAA3E0BC
:10223500F9120507FFAEF0EF8EF0120738224E00B7
:1022450000226605CB000024A1900741E4F0900729
:102255003EE0FBA3E0FAA3E0F9740575F0CB1205A7
:102265006A900741E0FFEF6011900377E0FFEFD33D
:1022750094004003D38001C340037F0122C2AC9088
:102285000377E0FF900002EFF0900377E4F090030E
:1022950075E0FF900003EFF0D2AC900002E0FF90F4
:1022A5000003E0FEC3EE9FFF900004EFF0900003F3
:1022B500E0FF900004E0FEEEC39F508D900004E027
:1022C500FF74752FF582E43402F583E0FFEF120702
:1022D5001223BF00236A2823152922E6D7000023ED
:1022E500F7900004E0FF74752FF582E43402F5835E
:1022F500E0FF90004BE0FE744F2EF582E43400F5CC
:1023050083EFF090004BE004F0781376010224236C
:102315007813E6FFEFB4011E90004FE4F0900050F3
:1023250074D7F09000517429F090004B7403F0902D
:10233500026CE4F08028900004E0FF74752FF582AC
:10234500E43402F583E0FF90004BE0FE744F2EF578
:1023550082E43400F583EFF090004BE004F078134D
:1023650076000224237813E6FFEFB4011F90004F97
:10237500E4F090005074D7F09000517428F090006C
:102385004B7403F090026C7401F08028900004E017
:10239500FF74752FF582E43402F583E0FF90004B5E
:1023A500E0FE744F2EF582E43400F583EFF09000E3
:1023B5004BE004F07813760080647813E6FFEFB401
:1023C5000106781376008056900004E0FF74752F9F
:1023D500F582E43402F583E0FF90004BE0FE744F94
:1023E5002EF582E43400F583EFF090004BE004F025
:1023F500802C900004E0FF74752FF582E43402F51B
:1024050083E0FF90004BE0FE744F2EF582E434002C
:10241500F583EFF090004BE004F078137600900020
:102425004BE0FFEFD39406403190004EE0FF7E0075
:10243500EF2406FFEE3400FE90004BE0FD7C00ED3E
:102445006F7002EC6E704978127601C2AC9003751C
:10245500E4F0C29C78137600803690004BE0FFEFE5
:10246500B4062D90004BE0FF744E2FF582E4340046
:10247500F583E0FF90004EEFF090026CE0FFEFB4C3
:10248500010E90004EE0FFEF541FFF90004EEFF05D
:10249500900004E004F00222B202224E900741E4CB
:1024A500F090073EE0FBA3E0FAA3E0F9E475F00045
:0524B50012056A7F031F
:0124BA0022FF
:041543004104DA0E77
:10440A001244A29003811206D50000000090039A7C
:10441A001206D5000000009003B31206D500000072
:10442A00009003CC1206D5000000009003E51206A6
:10443A00D5000000009003FE1206D500000000908F
:10444A0004171206D5000000009004301206D500A9
:10445A000000009004491206D50000000090046292
:10446A001206D50000000090047B1206D500000059
:10447A00009004AD1206D5000000009004C6120692
:10448A00D5000000009004927440F0A3740AF0A3CF
:08449A001206D580008000220B
:1046BA00E49006D9F0A31206D500000000E49006A3
:1046CA00D9F09006D9E0FFC3940E502BEF75F0197C
:1046DA00A4247DF9740335F0FA7B01E02410FEE48A
:1046EA00339006E9F0A3CEF07D017C00123B5C908A
:1046FA0006D9E004F080CB12491CE4FCFDFE9006CA
:10470A00DA1206C97B017A0679DA9006E9E4F0A39F
:0A471A0074A0F07D017C00123B5CEE
:014724002272
:1044A200E49006D0F0A31206D5000000009006D5D5
:1044B2001206D500000000E49006D0F09006D0E08D
:1044C200FFC3940E502BEF75F019A4247DF97403E9
:1044D20035F0FA7B01E02410FEE4339006DEF0A30F
:1044E200CEF07D017C00123C3F9006D0E004F080CB
:1044F200CB12491CE4FCFDFE9006D51206C97B01D5
:104502007A0679D19006DEE4F0A374A0F07D017CF6
:1045120000123C3F9006D1E0FCA3E0FDA3E0FEA325
:10452200E0FFA3E0F8A3E0F9A3E0FAA3E0FBC312E3
:07453200069260031227430B
:01453900225F
:10274300E490037CF0A3F0A37403F0A37440F0A31C
:102753007406F0A31206D50000000090038512064C
:10276300D5000000009003957401F0E4A3F0A37476
:1027730003F0A37440F0A37406F0A31206D500007F
:10278300000090039E1206D5000000009003AE7473
:1027930002F0E4A3F0A37403F0A37440F0A374065F
:1027A300F0A31206D5000000009003B71206D5006F
:1027B3000000009003C77403F0E4A3F0A37403F0D4
:1027C300A37440F0A37406F0A31206D50000000022
:1027D3009003D01206D5000000009003E07404F0CB
:1027E300E4A3F0A37403F0A37440F0A37406F0A36E
:1027F3001206D5000000009003E91206D500000080
:10280300009003F97405F0E4A3F0A37403F0A37438
:1028130040F0A37406F0A31206D500000000900454
:10282300021206D5000000009004127406F0E4A31F
:10283300F0A37403F0A37440F0A37406F0A312068C
:10284300D50000000090041B1206D5000000009084
:10285300042B7407F0E4A3F0A37403F0A37440F013
:10286300A37406F0A31206D50000000090043412EE
:1028730006D5000000009004447408F0A37402F02D
:10288300A314F0A37440F0A3740AF0A31206D500B6
:1028930000000090045D7409F0A37402F0A314F027
:1028A300A37440F0A3740AF0A31206D5000000003D
:1028B300900476740AF0A37402F0A314F0A3744096
:1028C300F0A3740AF0A31206D50000000190048F50
:1028D300740BF0A37401F0E4A3F0A37440F0A374A9
:1028E3000AF0A31206D5800080009004A8740CF0AF
:1028F300A37402F0E4A3F0A37440F0A3740AF0A35A
:102903001206D5000000009004C1740DF0A37402F8
:10291300F0E4A3F0A37440F0A3740AF0A31206D565
:08292300000000001246BA2278
:10491C00E49006DEF0A3F0A3F09006DFF0E490063E
:10492C00E0F09006DFE075F019A4247DF9740335EE
:10493C00F0FA7B01A3E07E0029F9EE3AFA12045654
:10494C00FF9006DEE06F903886939006DEF09006BE
:10495C00E0E004F0E0B404CA9006DFE004F0E0B458
:07496C000EBB9006DEE0FF28
:014973002221
:030000000242D0E9
:1042D00043AF01787FE4F6D8FD9000007FFF7E8039
:0D42E000E4F0A3DFFCDEFA75811402432830
:1015470060660612000000000000000000000000B6
:101557000000000000000000000000000000000084
:101567000000000000000000000000000000000074
:101577000000000000000000000000000000000064
:101587000000000000000000000000000000000054
:101597000000000000000000000000000000000044
:1015A7000000000000000000000041060D00440696
:0515B7000E0000000021
:103F6700E4FF9006D0F0124BA4124B6BD2AAD2A852
:103F7700D288D28AE4FFEF75F022A42412F582E4F6
:103F87003406F583E4F0A3F09006D0F0EF75F02245
:103F9700A42414F582E43406F583C083C082900616
:103FA700D0E0FED082D08375F008120706E4F0A3B4
:103FB700F0EF75F022A42416F582E43406F5837534
:103FC700F008EE120706E4F0A3F0EF75F022A42440
:103FD70018F582E43406F583C083C0829006D0E0EA
:103FE700FED082D08375F008120706E4F0A3F0EF45
:103FF70075F022A4241AF582E43406F58375F008D7
:10400700EE120706E4F0A3F09006D0E004F0E064B7
:0F401700046003023F930FEF64036003023F7DD9
:014026002277
:030003000247F7BA
:1047F700C0E0C0F0C083C082C0D0E8C0E0ECC0E039
:06480700EDC0E0EFC0E08F
:10480D00900612E0C3135403FF75F008A42414F5A9
:10481D0082E43406F583E475F0011204F19006127A
:10482D00E0FCA3E0FDEF75F008A42416F582E43456
:08483D0006F583ECF0A3EDF099
:10484500D0E0FFD0E0FDD0E0FCD0E0F8D0D0D082C1
:07485500D083D0F0D0E03267
:0300130002485C44
:10485C00C0E0C0F0C083C082C0D0E8C0E0ECC0E0D3
:06486C00EDC0E0EFC0E02A
:10487200900612E0C3135403FF75F008A42436F522
:1048820082E43406F583E475F0011204F190061215
:10489200E0FCA3E0FDEF75F008A42438F582E434CF
:0848A20006F583ECF0A3EDF034
:1048AA00D0E0FFD0E0FDD0E0FCD0E0F8D0D0D0825C
:0748BA00D083D0F0D0E03202
:03000B0002472584
:10472500C0E0C0F0C083C082C0D0E8C0E0ECC0E00B
:06473500EDC0E0EFC0E062
:10473B00758CFF758AFF900612E0C3135403FF7547
:10474B00F008A42458F582E43406F583E475F001EF
:10475B001204F1900612E0FCA3E0FDEF75F008A443
:0E476B00245AF582E43406F583ECF0A3EDF059
:10477900D0E0FFD0E0FDD0E0FCD0E0F8D0D0D0828E
:07478900D083D0F0D0E03234
:03002B00021F4869
:101F4800C0E0C0F0C083C082C0D0E8C0E0ECC0E010
:101F5800EDC0E0EEC0E0EFC0E0C2CF900612E0FEB8
:101F6800A3E08EF01207381F8301FF202D03FF2006
:101F7800BF05FF215207FF000021EB900617E02460
:101F8800FFFF900616E03407FE90062EE0FCA3E063
:101F9800FDC3EF9DFFEE9C900618F0A3EFF09006AE
:101FA80014E0FFA3E090061ACFF0A3EFF090062C00
:101FB800E4F0A3F0900639E024FFFF900638E034FF
:101FC80007FE900650E0FCA3E0FDC3EF9DFFEE9CEA
:101FD80090063AF0A3EFF0900636E0FFA3E09006F3
:101FE8003CCFF0A3EFF090064EE4F0A3F090065B30
:101FF800E024FFFF90065AE03407FE900672E0FCEA
:10200800A3E0FDC3EF9DFFEE9C90065CF0A3EFF00C
:10201800900658E0FFA3E090065ECFF0A3EFF090A3
:10202800067002214E900616E0FEA3E0FFC390065C
:102038001FE09FFF90061EE09E900620F0A3EFF0A1
:1020480090061CE0FFA3E0900622CFF0A3EFF090EB
:102058000614E4F0A3F0900638E0FEA3E0FFC39076
:102068000641E09FFF900640E09E900642F0A3EFF5
:10207800F090063EE0FFA3E0900644CFF0A3EFF017
:10208800900636E4F0A3F090065AE0FEA3E0FFC302
:10209800900663E09FFF900662E09E900664F0A3BE
:1020A800EFF0900660E0FFA3E0900666CFF0A3EFA4
:1020B800F090065802214E90061EE0FEA3E0FFC3F2
:1020C800900627E09FFF900626E09E900628F0A342
:1020D800EFF0900624E0FFA3E090062ACFF0A3EFEC
:1020E800F090061CE4F0A3F0900640E0FEA3E0FFA9
:1020F800C3900649E09FFF900648E09E90064AF08C
:10210800A3EFF0900646E0FFA3E090064CCFF0A3C3
:10211800EFF090063EE4F0A3F0900662E0FEA3E044
:10212800FFC390066BE09FFF90066AE09E90066CE6
:10213800F0A3EFF0900668E0FFA3E090066ECFF002
:10214800A3EFF0900660E40221E8900626E0FEA3E3
:10215800E0FFC390062FE09FFF90062EE09E9006BA
:1021680030F0A3EFF090062CE0FFA3E0900632CF0A
:10217800F0A3EFF0900624E4F0A3F0900648E0FE08
:10218800A3E0FFC3900651E09FFF900650E09E90A9
:102198000652F0A3EFF090064EE0FFA3E09006543D
:1021A800CFF0A3EFF0900646E4F0A3F090066AE0C3
:1021B800FEA3E0FFC3900673E09FFF900672E09EC7
:1021C800900674F0A3EFF0900670E0FFA3E090068D
:1021D80076CFF0A3EFF0900668E4F0A3F090061233
:1021E800F0A3F0900613E004F07006900612E004E5
:1021F800F0900612E05407F0D0E0FFD0E0FED0E007
:10220800FDD0E0FCD0E0F8D0D0D082D083D0F0D0A0
:02221800E032B2
:0B24BB00900742EBF0A3EAF0A3E9F069
:0524C6009006FAE4F0AD
:1024CB009007457401F0900742E0FBA3E0FAA3E00C
:1024DB00F9120507FFAEF0EF8EF012073824F80063
:1024EB0000252200C1269900C4000027299007422D
:1024FB00E0FBA3E0FAA3E0F9758202758300E475B3
:10250B00F000120589900742E0FBA3E0FAA3E0F983
:10251B00E475F0C112056A900742E0FBA3E0FAA351
:10252B00E0F9758202758300120532FFAEF0C3EF3E
:10253B009414EE94004003D38001C340037F002228
:10254B0090060DE0FFEF75F022A42422F582E4340F
:10255B0006F583E0FEA3E0FFCBEFCBCAEECAE4F9AE
:10256B00F890060DE0FFEF75F022A4241AF582E433
:10257B003406F583E0FEA3E0FFE4FCFDEF2BFBEE5E
:10258B003AFAED39F9EC38F890060DE0FFEF75F0FB
:10259B0022A4242AF582E43406F583E0FEA3E0FFAF
:1025AB00E4FCFDEB2FFBEA3EFAE93DF9E83CF89041
:1025BB00060DE0FFEF75F022A42432F582E4340619
:1025CB00F583E0FEA3E0FFE4FCFDEB2FFFEA3EFE0C
:1025DB00E93DFDE83CFC78121206B6ECC0E0EDC01C
:1025EB00E0EEC0E0EFC0E090060DE0FFEF75F022EB
:1025FB00A42420F582E43406F583E0FEA3E0FF90EB
:10260B00060DE0FDED75F022A42418F582E43406E6
:10261B00F583E0FCA3E0FDED2FFFEC3EFE90060DF5
:10262B00E0FDED75F022A42428F582E43406F58351
:10263B00E0FCA3E0FDEF2DFFEE3CFE90060DE0FD70
:10264B00ED75F022A42430F582E43406F583E0FC2A
:10265B00A3E0FDEF2DFFEE3CFECBEFCBCAEECAE4C1
:10266B00F9F8D0E0FFD0E0FED0E0FDD0E0FC1205A1
:10267B00F290060E1206C9900745E4F0900742E06F
:10268B00FBA3E0FAA3E0F9E475F0C412056A900726
:10269B0045E0FFEF70037F01227FFF7EFF7D007C13
:1026AB000090060EE0F8A3E0F9A3E0FAA3E0FBD359
:1026BB00120692502790060EE0FCA3E0FDA3E0FE6D
:1026CB00A3E0FF90060DE0FB75F019EBA42449F590
:1026DB0082E5F03404F5831206C9801B90060DE0E9
:1026EB00FF75F019EFA42449F582E5F03404F58366
:1026FB001206D50000FFFF90060DE004F090060DCA
:10270B00E0FFEFC39403400590060DE4F09006FC48
:10271B00E004F070069006FBE004F00224F890074A
:10272B0045E4F0900742E0FBA3E0FAA3E0F9E4757F
:07273B00F00012056A7F03A4
:012742002274
:104BA4005389F0438905758CFF758AFFD2A9D28C8D
:014BB40022DE
:104B6B00D2ADE4F5C875CCFF75CDE775CAFF75CB33
:044B7B00E7D2CA2291
:1015BC0041067F0041068000410684124A068500E0
:1015CC00000000000000000000060C0000000000FD
:0915DC000041069A0041069B0043
:104B4000D2EBE490069CF0A3F09006A0F0A3F090C6
:064B500006A4F0A3F02210
:104AF400EF25E054FE90067EF09006D8E090067F05
:104B0400F09006DCE0900680F0A3EBF0A3EAF0A3BB
:094B1400E9F090069A7401F02208
:100F17009006D0EBF0A3EAF0A3E9F0E49006FDF029
:100F27009006D304F0120507FFAEF0E5F060030268
:100F3700128AEF1207120F6B000F7D4C0FA8570F85
:100F4700CC5D101D66105A7110AB7810EC85111727
:100F57008B11689311A59B11FBA2123CAE1260B3D3
:100F67000000128A9006D0E0FBA3E0FAA3E0F9E4C0
:100F770075F04C12056A90069AE07002FF22E49021
:100F8700069AF0D2EEC2EDD2EFD2ED9006D3F090F2
:100F970006D0E0FBA3E0FAA3E0F9E475F0571205E9
:100FA7006A9006D3E070037F0122C2EFE49006A0A7
:100FB700F0A3F09006D0E0FBA3E0FAA3E0F9E47514
:100FC700F05D12056A7A06797E9006D77401F0A360
:100FD7007406F0A3747EF0A37401F0FB7A0679A07F
:100FE7001231DAC3EF6480948250028001C3500348
:100FF7007F002290069BE06041C2EDC2EFD2EDE494
:101007009006D3F09006D0E0FBA3E0FAA3E0F9E462
:1010170075F06612056A9006D3E070037F0122D24D
:10102700EFE490069BF09006D0E0FBA3E0FAA3E084
:10103700F9E4F5F012056A7F0022E49006A0F0A318
:10104700F09006D0E0FBA3E0FAA3E0F9E475F071B5
:1010570012056A9006D7E4F0A37400F0A3740CF0AD
:1010670090067FE09006DAF07B017A0679A01231CC
:10107700DAC3EF6480948250028001C350037F007B
:101087002290069BE06041C2EDC2EFD2EDE49006EC
:10109700D3F09006D0E0FBA3E0FAA3E0F9E475F003
:1010A7007812056A9006D3E070037F0122D2EFE43D
:1010B70090069BF09006D0E0FBA3E0FAA3E0F9E4EA
:1010C700F5F012056A7F0022C2EDD2EFD2EDE4906F
:1010D70006D3F09006D0E0FBA3E0FAA3E0F9E475AD
:1010E700F08512056A9006D3E070037F0122C2EFF4
:1010F70090067EE04401F0E49006A0F0A3F090068D
:10110700D0E0FBA3E0FAA3E0F9E475F08B12056ADF
:101117007A06797E9006D77401F0A37406F0A3745B
:101127007EF0A37401F0FB7A0679A01231DAC3EFDF
:101137006480948250028001C350037F002290068E
:101147009BE06041C2EDC2EFD2EDE49006D3F09090
:1011570006D0E0FBA3E0FAA3E0F9E475F0931205EB
:101167006A9006D3E070037F0122D2EFE490069BDA
:10117700F09006D0E0FBA3E0FAA3E0F9E4F5F01263
:10118700056A7F0022E490069CF0A3F09006D0E069
:10119700FBA3E0FAA3E0F9E475F09B12056A7A066F
:1011A700798F9006D77401F0A37406F0A3748FF0BB
:1011B700900680E09006DAF07B017A06799C12347B
:1011C7005DC3EF6480948250028001C350037F00A7
:1011D7002290069BE06041C2EDC2EFD2EDE490069B
:1011E700D3F09006D0E0FBA3E0FAA3E0F9E475F0B2
:1011F700A212056A9006D3E070037F0122D2EFE4C2
:1012070090069BF09006D0E0FBA3E0FAA3E0F9E498
:10121700F5F012056A7F0022C2EDC2EFD2EDE4902D
:1012270006D3F09006D0E0FBA3E0FAA3E0F9E4755B
:10123700F0AE12056A9006D3E070037F0122D2EF69
:10124700E49006A4F0A3F09006D0E0FBA3E0FAA395
:10125700E0F9E475F0B312056A7B017A0679A41206
:101267003D1EC3EF6480948250028001C350037F08
:1012770000229006FFE004F070069006FEE004F0FE
:10128700020F6BE49006D3F09006D0E0FBA3E0FAE0
:0B129700A3E0F9E4F5F012056A7F0304
:0112A2002229
:0B345D009006D4EBF0A3EAF0A3E9F026
:103468009006DB7401F0120507FFAEF0E5F060038B
:10347800023554EF2436604224E4700302353D24BB
:10348800E66003023554E4900678F09006DAE0FF2F
:10349800900678E0C39F400302354DE490067AF029
:1034A800C2EEC2ED9006DBF09006D4E0FBA3E0FA92
:1034B800A3E0F9E475F0CA12056A9006DBE0700330
:1034C8007F0122E4900679F0D2ED90067AE0FF259C
:1034D800E0FFA2ECE4334FF0C2ED900679E004F08F
:1034E800E0B408E490067AE0FF9006D7E0FBA3E09A
:1034F800FAA3E0F9900678E0F582758300EF1204EC
:10350800CF900678E004F0D2EE9006DAE0FF90065D
:1035180078E0C39F5004C2EF8002D2EFD2EDE4906E
:1035280006DBF09006D4E0FBA3E0FAA3E0F9E4752B
:10353800F0E612056A9006DBE070037F0122C2ED17
:10354800C2EE023493D2EEE490069BF0E49006DBE0
:10355800F09006D4E0FBA3E0FAA3E0F9E4F5F0125A
:04356800056A7F036E
:01356C00223C
:0B31DA009006D4EBF0A3EAF0A3E9F0AC
:1031E5009006DB7401F0120507120738320900005A
:1031F500325A00FF328C010732BD010E32E0011058
:1032050000003312D2EEE490067BF09006DAE0FF80
:1032150090067BE0C39F400302330D9006D7E0FB89
:10322500A3E0FAA3E0F990067BE0F582758300122E
:10323500046F90067DF090067BE004F0C2EDE4900B
:1032450006DBF09006D4E0FBA3E0FAA3E0F9E47511
:10325500F0FF12056A9006DBE070037F0122E4901F
:10326500067CF090067DE0FF25E0F092EFD2EDE4DC
:103275009006DBF09006D4E0FBA3E0FAA3E0F97436
:103285000175F00712056A9006DBE070037F0122E5
:10329500C2ED90067CE004F0E0B408C7C2EEC2EDD2
:1032A500E49006DBF09006D4E0FBA3E0FAA3E0F996
:1032B500740175F00E12056A9006DBE070037F015C
:1032C50022D2EDE49006DBF09006D4E0FBA3E0FA11
:1032D500A3E0F9740175F01012056A9006DBE07041
:1032E500037F0122C2EDD2EE20EC030232109006DC
:1032F5009B7401F09006D4E0FBA3E0FAA3E0F9E4A7
:10330500F5F012056A7F0222E490069BF0E4900630
:10331500DBF09006D4E0FBA3E0FAA3E0F9E4F5F0D6
:0533250012056A7F03A0
:01332A002280
:0B3D1E009006D4EBF0A3EAF0A3E9F05C
:103D2900A37401F0120507FFAEF06003023DCBEE6C
:103D39006003023DCB7E067F8F7D0A124B1D9006E4
:103D490099E06F707990068FE0FCA3E0FDA3E0FE97
:103D5900A3E0FF9004941206C9900693E060221430
:103D6900704C900694E0FEA3E0FFE4FCFD9004ADE6
:103D79001206C99004AA7401F09004DA740DF08057
:103D89002D900694E0FEA3E0FFE4FCFD9004AD1243
:103D990006C9900696E0FEA3E0FFE4FCFD9004C688
:103DA9001206C9E49004AAF09004DA740EF09002A5
:103DB9006BE0FF900698E0FEEF4E90026BF0E4781E
:103DC9000CF6E49006D7F09006D4E0FBA3E0FAA342
:0A3DD900E0F9E4F5F012056A7F033B
:013DE30022BD
:054027009006D4EFF04B
:10402C009006D91206D5000000009006D5E0FCA33E
:10403C00E0FDA3E0FEA3E0FFE41202A19006D4E0B1
:10404C0075F019A4248AF582E5F03403F583E0F8C1
:10405C00A3E0F9A3E0FAA3E0FB12012E9006D4E052
:10406C0075F019A4248EF582E5F03403F583E0F89D
:10407C00A3E0F9A3E0FAA3E0FB12003D9006D912ED
:10408C0006C97FFF7EFF7D7F7C4B9006D9E0F8A3AD
:10409C00E0F9A3E0FAA3E0FB120234600A400874D2
:1040AC00FFFFFEFD7C0022E4FFFEFDFC9006D9E044
:1040BC00F8A3E0F9A3E0FAA3E0FB1202345006E403
:1040CC00FFFEFDFC229006D9E0FCA3E0FDA3E0FE80
:0640DC00A3E0FF1202DF69
:0140E20022BB
:10436D00E49006D0F0A31206D5000000009006D50B
:10437D001206D500000000E49006D0F09006D0E0C3
:10438D00FFC3940E5030EF75F019A42489F974030E
:10439D0035F0FA7B01E075F003A42450FEE435F00E
:1043AD009006DEF0A3CEF07D037C00123C3F90061C
:1043BD00D0E004F080C6124974E4FCFDFE9006D5F1
:1043CD001206C97B017A0679D19006DEE4F0A3745A
:1043DD00A1F07D017C00123C3F9006D1E0FCA3E0F2
:1043ED00FDA3E0FEA3E0FFA3E0F8A3E0F9A3E0FA4C
:0C43FD00A3E0FBC312069260031249CC3F
:014409002290
:054191009006D0EFF0E4
:104196009006D91206D5000000009006D1E0FCA3D7
:1041A600E0FDA3E0FEA3E0FF9006D0E0FB75F0196A
:1041B600A4248AF582E5F03403F5831206C9900635
:1041C600D5E0FCA3E0FDA3E0FEA3E0FF75F019EB4C
:1041D600A4248EF582E5F03403F5831206C9EB7547
:1041E600F019A42489F9740335F0FA7B019006D0FE
:1041F600E075F003A42450FEE435F09006E9F0A340
:10420600CEF07D037C00123B5C124974E4FCFDFE9B
:104216009006D91206C97B017A0679D99006E9E497
:0C422600F0A374A1F07D017C00123B5C51
:014232002269
:10497400E49006E4F0A3F0A3F09006E5F0E49006DA
:10498400E6F09006E5E075F019A42489F97403357E
:10499400F0FA7B01A3E07E0029F9EE3AFA120456FC
:1049A400FF9006E4E06F903886939006E4F090065A
:1049B400E6E004F0E0B40CCA9006E5E004F0E0B4EC
:0749C4000EBB9006E4E0FFCA
:0149CB0022C9
:093DE4009006DEEFF0A3EDF0FB08
:103DED00A31206D500000000EB640170439006DEBF
:103DFD00E0FF75F019A42489F582E5F03403F5830D
:103E0D007401F0EF75F019A42489F9740335F0FAF3
:103E1D007B019006DEE075F003A42450FEE435F03E
:103E2D009006E9F0A3CEF07D037C00123B5C80464A
:103E3D009006DFE070409006DEE0FF75F019A424D7
:103E4D0089F582E5F03403F583E4F0EF75F019A4FC
:103E5D002489F9740335F0FA7B019006DEE075F0E4
:103E6D0003A42450FEE435F09006E9F0A3CEF07DD6
:103E7D00037C00123B5C124974E4FCFDFE9006E0ED
:103E8D001206C97B017A0679E09006E9E4F0A37485
:093E9D00A1F07D017C00123B5CE8
:013EA60022F9
:1049CC00E49006D9F0A31206D500000000E490068E
:1049DC00D9F09006D9E0FFC3940E500DE4FD123DC2
:1049EC00E49006D9E004F080E9124974E4FCFDFE81
:1049FC009006DA1206C97B017A0679DA9006E9E4A8
:0C4A0C00F0A374A1F07D017C00123B5C63
:014A1800227B
:1015E5004106CB004106A8004106A9004106AA0014
:0B15F6009006D0EBF0A3EAF0A3E9F0B0
:05160100E49006F1F089
:101606009006D304F0120507FFAEF0E5F060030282
:10161600190DEF24ED603724F670030216D224F577
:10162600700302173C24F470030218242434600368
:1016360002190D9006D0E0FBA3E0FAA3E0F99000B2
:1016460002E4F5F0120589E475F01312056A9006B6
:10165600D0E0FBA3E0FAA3E0F9900002120532C342
:101666009401E5F094004003D38001C340037F005A
:10167600229006CBE075F026A42402F582E5F0342C
:1016860005F583E0706A9006A8F09006CBE075F049
:1016960026A42402F582E5F03405F583E070369041
:1016A60006A8E06408602E9006CBE0045407F0908C
:1016B60006A8E004F0E49006D3F09006D0E0FBA381
:1016C600E0FAA3E0F9E475F01D12056A9006D3E08E
:1016D60070B87F01229006A8E0B408149006D0E006
:1016E600FBA3E0FAA3E0F9E4F5F012056A7F002215
:1016F6009006CBE075F026A424DDF9740435F0FAE3
:101706007B01EAC0E0E9C0E07A0679AB78AB7C06FB
:101716007D01D0E0F9D0E0FA7E007F20120430E4AB
:101726009006D3F09006D0E0FBA3E0FAA3E0F9E43C
:1017360075F02812056A9006D3E070037F012290A7
:1017460006A97407F0E49006AAF09006A9E0FFA3A4
:10175600E0C39F4003021836E025E025E024AFF5FC
:1017660082E43406F583E0FCA3E0FDA3E0FEA3E0FB
:10177600FF9006AAE025E025E024ABF582E43406D6
:10178600F583E0F8A3E0F9A3E0FAA3E0FBD31206A1
:101796009240749006AAE025E025E024ABF582E4A9
:1017A6003406F583E0FCA3E0FDA3E0FEA3E0FF9092
:1017B60006CC1206C99006AAE025E025E024AFF57E
:1017C60082E43406F583E0FCA3E0FDA3E0FEA3E09B
:1017D600FF9006AAE025E025E024ABF582E4340676
:1017E600F5831206C99006CCE0FCA3E0FDA3E0FE5B
:1017F600A3E0FF9006AAE025E025E024AFF582E409
:101806003406F5831206C9E49006D3F09006D0E0BC
:10181600FBA3E0FAA3E0F9E475F03412056A90063A
:10182600D3E070037F01229006AAE004F00217506D
:101836009006A9E014F0E0600302174B9006BBE0A7
:10184600FCA3E0FDA3E0FEA3E0FF9006B7E0F8A34B
:10185600E0F9A3E0FAA3E02FFFEA3EFEE93DFDE84A
:101866003CFC78011206A39006CBE075F019A4247F
:1018760081F582E5F03403F5831206C99006CBE0C4
:1018860075F019A42489F582E5F03403F583E06048
:10189600409006CBE075F019A42481F582E5F0347A
:1018A60003F583E0FCA3E0FDA3E0FEA3E0FF9006C2
:1018B600D51206C99006CBE0FF1240279006CBE072
:1018C60075F019A42485F582E5F03403F583120634
:1018D600C99006CBE075F026A42402F582E5F03423
:1018E60005F583E4F09006F3E004F070069006F246
:1018F600E004F09006D0E0FBA3E0FAA3E0F9E4F5FB
:10190600F012056A7F0022E49006D3F09006D0E03C
:0F191600FBA3E0FAA3E0F9E4F5F012056A7F0302
:01192500229F
:104BB50053890F438910758D8A758BD0D2ABD28EF0
:014BC50022CD
:1038860000BC01BD02BE03BF04B805B906BA07BB3A
:1038960008B409B50AB60BB70CB00DB10EB20FB32A
:1038A60010AC11AD12AE13AF14A815A916AA17AB1A
:1038B60018A419A51AA61BA71CA01DA11EA21FA30A
:1038C600209C219D229E239F24982599269A279BFA
:1038D600289429952A962B972C902D912E922F93EA
:1038E600308C318D328E338F34883589368A378BDA
:1038F600388439853A863B873C803D813E823F83CA
:1039060040FC41FD42FE43FF44F845F946FA47FBB9
:1039160048F449F54AF64BF74CF04DF14EF24FF3A9
:1039260050EC51ED52EE53EF54E855E956EA57EB99
:1039360058E459E55AE65BE75CE05DE15EE25FE389
:1039460060DC61DD62DE63DF64D865D966DA67DB79
:1039560068D469D56AD66BD76CD06DD16ED26FD369
:1039660070CC71CD72CE73CF74C875C976CA77CB59
:1039760078C479C57AC67BC77CC07DC17EC27FC349
:104B1D00E4FCCBEDCB1DEB60160FEFCAEECA7001B6
:104B2D000E14F5828A83E06C90388693FC80E3CF77
:024B3D00ECCFBB
:014B3F002253
:1000360002034BE86480F8E933E83360110460F0AA
:10004600ED33EC337009E8FCE9FDEAFEEBFF220430
:1000560060DED3EB9FEA9EE99DE8C2E78CF0C2F72B
:1000660095F0400CE8CCF8E9CDF9EACEFAEBCFFBF7
:1000760012031685D0F05804700320D5B3E8047037
:10008600075002B2D502035592D5EC0460F7E4CCD2
:10009600C0E0C398F8603B94186008400DD0E0FBC0
:1000A60002032DE4FBFAC9FC8028E830E406E4C923
:1000B600FBE4CAFCE830E305E4C9CACBFCE8540714
:1000C6006010F8C3E913F9EA13FAEB13FBEC13FC1F
:1000D600D8F130F52FC3E49CFCEF9BFFEE9AFEEDC2
:1000E60099FDD0E0FBEF4E4D4C701222DB0302036C
:1000F60052EC2CFCEF33FFEE33FEED33FDED30E733
:10010600EB02032DEF2BFFEE3AFEED39FDD0E0FBBF
:1001160050130BBB0003020355ED13FDEE13FEEF68
:0801260013FFEC13FC02032D92
:10012E00EC4D6011E8497017ED33EC3304600DE4CB
:10013E00FCFFFEFD22E933E8330470F802034B1294
:10014E00031658046009E4CC248150062850090295
:10015E000355284003020352C0E0EB4A7044B980B5
:10016E0006D0E0FB020341EF4E701CBD8008EBFF92
:10017E00EAFEE9FD80EBE98DF0A4FEE5F002021740
:10018E00E9CDF9EAFEEBFFEF89F0A4FCE5F0CE89AC
:10019E00F0A42EFFE435F0CD89F0A42DFEE435F069
:1001AE008067EF4E7005BD80D780C3EF8BF0A4AC97
:1001BE00F0EE8BF0A42CFCE435F0F8EF8AF0A42CD2
:1001CE00E5F038FCE433CB8DF0A42CFCE5F03BF8E5
:1001DE00EE8AF0A42CFCE5F038F8E433CF89F0A4D5
:1001EE002CFCE5F038CF3400CE89F0A42FFFE5F0DB
:1001FE003EFEE433C98DF0A42EFEE5F039CD8AF033
:10020E00A42FFFE5F03EFEE43DFD33D0E0FB5007AA
:10021E000BBB000F020355EC2CFCEF33FFEE33FE4D
:06022E00ED33FD02032D7B
:1002340074F8CC6480CCC86480C8F582046043C37D
:10024400EB9FF5F0EA9E42F0E99D42F0E89C45F010
:1002540060305018E5825FFFE582F42B5582FB5035
:10026400210ABA001D09B90019088016E5825BFB52
:10027400E582F42F5582FF50090EBE00050DBD0026
:10028400010CC3EB9FF5F0EA9E42F0E99D42F0E8D1
:0D0294009C45F06007CC4820E701B3EC2248
:1002A10075F020800E75F010800575F0087D007ED8
:1002B100007F003392D530D503120684EC33401011
:1002C100EF33FFEE33FEED33FDEC33FCD5F0ED22E1
:0E02D100E5F0247EA2D513CC92E7CDCEFF221D
:1002DF00EDD2E7CD33EC3392D524814006E4FFFE17
:1002EF00FDFC22FCE4CFCECDCC24E0501174FF8076
:1002FF00EDC3CC13CCCD13CDCE13CECF13CF047013
:07030F00F030D5DE02068488
:10031600E9D2E7C933E833F892D5EDD2E7CD33EC2D
:0703260033FC5002B2D522A6
:10032D00EC30E7100FBF000C0EBE00080DBD000431
:10033D000BEB6014A2D5EB13FCED92E7FD2274FFDD
:10034D00FCFDFEFF22E480F8A2D574FF13FC7D8036
:03035D00E480EF4A
:1042ED0002453AE493A3F8E493A34003F68001F268
:1042FD0008DFF48029E493A3F85407240CC8C333D2
:10430D00C4540F4420C8834004F456800146F6DFA0
:10431D00E4800B01020408102040809012A3E47E7B
:10432D00019360BCA3FF543F30E509541FFEE49395
:10433D00A360010ECF54C025E060A840B8E493A35C
:10434D00FAE493A3F8E493A3C8C582C8CAC583CA87
:10435D00F0A3C8C582C8CAC583CADFE9DEE780BE3F
:0115F50000F5
:10036000E709F608DFFA8046E709F208DFFA803E7F
:1003700088828C83E709F0A3DFFA8032E309F6086C
:10038000DFFA8078E309F208DFFA807088828C83D4
:10039000E309F0A3DFFA806489828A83E0A3F60888
:1003A000DFFA805889828A83E0A3F208DFFA804C62
:1003B00080D280FA80C680D4806980F28033801039
:1003C00080A680EA809A80A880DA80E280CA8033A2
:1003D00089828A83ECFAE493A3C8C582C8CCC5831A
:1003E000CCF0A3C8C582C8CCC583CCDFE9DEE780EA
:1003F0000D89828A83E493A3F608DFF9ECFAA9F069
:10040000EDFB2289828A83ECFAE0A3C8C582C8CCBE
:10041000C583CCF0A3C8C582C8CCC583CCDFEADED7
:10042000E880DB89828A83E493A3F208DFF980CC39
:1004300088F0EF60010E4E60C388F0ED2402B40432
:100440000050B9F582EB2402B4040050AF232345D9
:0604500082239003B0734B
:10045600BB010689828A83E0225002E722BBFE02A4
:09046600E32289828A83E49322D7
:10046F00BB010CE58229F582E5833AF583E0225042
:10047F0006E92582F8E622BBFE06E92582F8E2228C
:0D048F00E58229F582E5833AF583E49322A6
:10049C00BB010FF8E58229F582E5833AF583E02864
:1004AC00F0225009C58229F8E58226F622BBFE0906
:1004BC00C58229F8E22582F222F8EA2583F583E940
:0304CC0093282250
:1004CF00F8BB010DE58229F582E5833AF583E8F063
:1004DF00225006E92582C8F622BBFE05E92582C80F
:0204EF00F222F7
:1004F100C5F0F8A3E028F0C5F0F8E5821582700296
:060501001583E038F02232
:10050700BB010A89828A83E0F5F0A3E022500687BF
:10051700F009E71922BBFE07E3F5F009E319228981
:0B052700828A83E493F5F074019322B4
:10053200BB0110E58229F582E5833AF583E0F5F007
:10054200A3E0225009E92582F886F008E622BBFEE4
:100552000AE92582F8E2F5F008E222E5832AF5832A
:08056200E993F5F0A3E99322EF
:10056A00BB010A89828A83F0E5F0A3F0225006F7DC
:0F057A0009A7F01922BBFE06F3E5F009F31922D9
:10058900F8BB0111E58229F582E5833AF583E8F0A4
:10059900E5F0A3F0225009E92582C8F608A6F02261
:0D05A900BBFE09E92582C8F2E5F008F22248
:1005B60075F008758200EF2FFFEE33FECD33CDCCFC
:1005C60033CCC58233C5829BED9AEC99E58298407F
:1005D6000CF582EE9BFEED9AFDEC99FC0FD5F0D65C
:1005E600E4CEFBE4CDFAE4CCF9A88222B800C1B986
:1005F6000059BA002DEC8BF084CFCECDFCE5F0CBC4
:10060600F97818EF2FFFEE33FEED33FDEC33FCEBFC
:1006160033FB10D703994004EB99FB0FD8E5E4F9B7
:10062600FA227818EF2FFFEE33FEED33FDEC33FCA4
:10063600C933C910D7059BE99A4007EC9BFCE99A98
:10064600F90FD8E0E4C9FAE4CCFB2275F010EF2FDD
:10065600FFEE33FEED33FDCC33CCC833C810D707DD
:100666009BEC9AE899400AED9BFDEC9AFCE899F818
:0E0676000FD5F0DAE4CDFBE4CCFAE4C8F922AB
:104A1900C2D5E830E70FB2D5E4C39BFBE49AFAE4C8
:104A290099F9E498F8EC30E717B2D5124A4F120514
:104A3900F2E4C39BFBE49AFAE499F9E498F8800359
:104A49001205F230D50DE4C39FFFE49EFEE49DFDFF
:044A5900E49CFC22BB
:0E068400C3E49FFFE49EFEE49DFDE49CFC2287
:10069200EB9FF5F0EA9E42F0E99D42F0E89C45F0BE
:0106A2002235
:1006A300E8600FECC313FCED13FDEE13FEEF13FF35
:0306B300D8F12259
:1006B600E8600FEFC333FFEE33FEED33FDEC33FCA2
:0306C600D8F12246
:0C06C900ECF0A3EDF0A3EEF0A3EFF022A4
:1006D500A8828583F0D083D0821206EC1206EC1234
:1006E50006EC1206ECE473E493A3C583C5F0C58359
:1006F500C8C582C8F0A3C583C5F0C583C8C582C86F
:0107050022D1
:0C070600A42582F582E5F03583F58322FE
:10071200D083D082F8E4937012740193700DA3A376
:1007220093F8740193F5828883E47374029368608A
:06073200EFA3A3A380DF8A
:10073800D083D082F8E4937012740193700DA3A350
:1007480093F8740193F5828883E473740293B5F087
:0D075800067403936860E9A3A3A3A380D8EF
:00000001FF
