:10467400C2AF53D7F912484F1248EC12515B125390
:104684000012518B1252DD1243A87F721251221272
:10469400528BE490070AF0A3F090070EF0A3F09079
:1046A4000712F0A3F0900716F0A3F0D2AF780C76BF
:1046B400139006DB04F0A3F0A37406F0A37492F045
:1046C400A3740BF07B007A00790C7F581251B87BED
:1046D400017A02797012210C7B017A07790A12455A
:1046E400247B017A07790E1229F17B017A0779126A
:1046F400121DDC7B017A0779161213AA7B017A0753
:104704007906123B757B017A02797412078D80BF9A
:014714002282
:104524009006D3EBF0A3EAF0A3E9F0E49006FAF0E6
:104534009006D604F012052FFFAEF0E5F07076EF8A
:1045440024A9601F2457706D9006D3E0FBA3E0FA02
:10455400A3E0F9900002E4F5F01205B1E475F05718
:104564001205929006D3E0FBA3E0FAA3E0F99000D1
:104574000212055AC3940FE5F094004003D380015E
:10458400C340037F00229006DB7401F0A3F0A37400
:1045940006F0A37492F0A3740BF07B007A00790CFC
:1045A4007F581251B89006FCE004F070069006FBA8
:1045B400E004F08093E49006D6F09006D3E0FBA3E9
:0D45C400E0FAA3E0F9E4F5F01205927F03A0
:0145D10022C7
:03001B00024DC2D1
:104DC200C0E0C083C082758D8A758BD090070DE0DC
:104DD20004F0700690070CE004F0900711E004F074
:104DE2007006900710E004F0900715E004F07006DA
:104DF200900714E004F0900273E004F07006900251
:104E020072E004F0900709E004F07006900708E0F1
:104E120004F0900277E004F07006900276E004F06D
:074E2200D082D083D0E03202
:1052DD00759E82759D2D759852D2ACC299C298D289
:0252ED00BC22E1
:10518B0075D10075D20075E60043D28043D220431F
:10519B00D20753E6F043E6401247157F031253271D
:0D51AB007F647E001252A1D2AE43D12022BB
:030033000238236D
:10382300C0E0C0F0C083C082C0D0EEC0E0EFC0E013
:10383300E5E654079004DEF0E0FF75F026A42400CB
:10384300F582E5F03405F583E09004DFF075F026AA
:10385300EFA424E0F582E5F03404F583C083C0824D
:103863009004DFE0FFD082D08375F00412072EE4CA
:10387300F09004DEE0FE75F026A424E1F582E5F085
:103883003404F58375F004EF12072EE5DBF075F0D1
:1038930026EEA424E2F582E5F03404F583C083C068
:1038A300829004DFE0FFD082D08375F00412072EEC
:1038B300E5DAF09004DEE0FE75F026A424E3F58259
:1038C300E5F03404F58375F004EF12072EE5D9F023
:1038D3009004DFE0045407FF75F026EEA42400F5FE
:1038E30082E5F03405F583EFF09004DEE0FF75F038
:1038F30026A42405F582E5F03405F5837401F0EF81
:10390300045407FFE5E654F04FF5E6E5E654077582
:10391300F019A42482F582E5F03403F583E064070B
:103923005407FFE5D254F84FF5D2E5E6540775F096
:1039330019A42483F582E5F03403F583E0F5D4C2BA
:01394300DFA4
:10394400D0E0FFD0E0FED0D0D082D083D0F0D0E061
:013954003240
:0753270053D1F8EF42D1223F
:1052A100CBEFCBCAEECAE4F9F87F557E05FDFC12BF
:0552B10050DE8FD42245
:10471500E49006D3F0A3F09006D3F09006D3E0FF23
:10472500C3940840030247B175F026EFA42400F5B1
:1047350082E5F03405F583E4F075F026EFA4240353
:10474500F582E5F03405F583E4F075F026EFA42451
:1047550004F582E5F03405F5837420F075F026EF55
:10476500A42405F582E5F03405F583E4F09006D43C
:10477500F09006D4E0FFC3940850289006D3E07566
:10478500F026A424E0F582E5F03404F58375F00401
:10479500EF12072E1206FD000000009006D4E0047B
:0C47A500F080CE9006D3E004F002472024
:0147B10022E5
:08405D009006EAECF0A3EDF07F
:10406500E49006EEF0A3F0A3F09006EAE0FEA3E0EC
:10407500FF9006EDE02F9006ECE03EC3940440046B
:10408500E4FEFF22E49006EEF0A3F09006EAE0FEDF
:10409500A3E0FFC39006EFE09F9006EEE09E40038D
:1040A500024137A2AFE4339006F0F0C2AF9006EEBE
:1040B500E0FEA3E07802C333CE33CED8F9FFF58214
:1040C5008E8312046FF5BC8F828E83A312046FF565
:1040D500BD9006EEE0FEA3E07802C333CE33CED822
:1040E500F9FFF5828E83A3A312046FF5BE8F828E2E
:1040F50083A3A3A312046FF5BF9006ECE0FEA3E033
:10410500FF8EC78FC675B90575B9029006F0E02414
:10411500FF92AF9006EDE004F070069006ECE00427
:10412500F09006EFE004F070069006EEE004F00271
:0A41350040909006EEE0FEA3E0FFCC
:01413F00225D
:084140009006DFECF0A3EDF0A6
:10414800E49006E3F0A3F0A3F09006DFE0FEA3E01E
:10415800FF9006E2E02F9006E1E03EC3940440049D
:10416800E4FEFF22E49006E3F0A3F09006DFE0FE11
:10417800A3E0FFC39006E4E09F9006E3E09E4003BF
:10418800024216A2AFE4339006E5F0C2AF9006E112
:10419800E0FEA3E0FF8EC78FC675B901A3E0FCA3BC
:1041A800E0FDCEECCE7802C333CE33CED8F9FFF59E
:1041B800828E83E5BC1204E18F828E83A3E5BD1253
:1041C80004E1EDCEECCE7802C333CE33CED8F9FF7E
:1041D800F5828E83A3A3E5BE1204E18F828E83A3AA
:1041E800A3A3E5BF1204E19006E5E024FF92AF9097
:1041F80006E2E004F070069006E1E004F09006E4C0
:10420800E004F070069006E3E004F00241739006C3
:06421800E3E0FEA3E0FF5D
:01421E00227D
:10512200E4FE8F0AD2C0850AC0EE75F003A424F211
:10513200F582E43406F583E4F0A3F0EE75F003A4FF
:1051420024F1F582E43406F5837401F00EEEB4071F
:08515200D8E4900706F0A3F079
:01515A002232
:0A531D00C2AFD2C0850AC0D2AF2291
:0B3B75009006D3EBF0A3EAF0A3E9F008
:093B8000E4A3F0A3F09006F7F0B5
:103B89009006D804F09006D3E0FBA3E0FAA3E0F98D
:103B990012052FFFAEF0E5F06003023C69EF24C384
:103BA9006022243D6003023C699006D3E0FBA3E058
:103BB900FAA3E0F9900002E4F5F01205B1E475F01A
:103BC9003D1205929006D3E0FBA3E0FAA3E0F99039
:103BD900000212055AC39464E5F094004003D380AF
:103BE90001C340037F0022E49006D7F09006F9E074
:103BF90004F070069006F8E004F0E49006D6F09020
:103C090006D6E075F003A424F1F582E43406F583C1
:103C1900E0FF9006D6E075F003A424F2F582E434BF
:103C290006F583E0FEA3E04F4E70079006D704F037
:103C3900801F9006D6E075F003A424F2F582E434DF
:103C490006F583E4F0A3F09006D6E004F0E0B407AB
:103C5900AE9006D7E06003023BB212531D023BB29D
:103C6900E49006D8F09006D3E0FBA3E0FAA3E0F9CC
:083C7900E4F5F01205927F034F
:013C81002220
:101736005400063C3C7555534F5F323E3E00000058
:10174600000000000000006028001A3C2D2D2047F4
:10175600454F5350484552415F32303132202D2D8E
:101766003E00000000000000000000000000000035
:1017760000000048004230303030310000004100A7
:101786004A0141004B1441004C0041005100610EDA
:1017960000520000000000000000000000000000F1
:1017A6000000000000000000000000000000000033
:1017B6000000000000000000000000000000000023
:1017C6000000000000000000000000000000000013
:1017D6000000000000000000000000000000000003
:1017E60000000000000000000000000000000000F3
:1017F60000000000000000000000000000000000E3
:1018060000000000000000000000000000000000D2
:1018160000000000000000000000000000000000C2
:1018260000000000000000000000000000000000B2
:1018360000000000000000000000000000000000A2
:101846000000000000000000000000000000000092
:101856000000000000000000000000000000000082
:101866000000000000000000000000000000000072
:101876000000000000000000000000000000000062
:101886000000000000000000000000000000000052
:101896000000000000000000000000000000000042
:1018A600610E016000000000000000000000000062
:1018B6000000000000000000000000000000000022
:1018C6000000000000000000000000000000000012
:1018D6000000000000000000000000000000000002
:1018E60000000000000000000000000000000000F2
:1018F60000000000000000000000000000000000E2
:1019060000000000000000000000000000000000D1
:1019160000000000000000000000000000000000C1
:1019260000000000000000000000000000000000B1
:1019360000000000000000000000000000000000A1
:101946000000000000000000000000000000000091
:101956000000000000000000000000000000000081
:101966000000000000000000000000000000000071
:101976000000000000000000000000000000000061
:101986000000000000000000000000000000000051
:101996000000000000000000000000000000000041
:1019A6000000000000000000000000000000000031
:1019B600000041026EC041026F004100000041007C
:1019C6000100410002004100030041000400410003
:0219D60005000A
:03002300024C0C80
:104C0C00C0E0C083C082C0D0EEC0E0EFC0E0C2AF55
:104C1C0030981EC298900378E02478F582E4340230
:104C2C00F583E599F0900378E004F090037AE004C2
:104C3C00F0309930C299900050E0FF90004FE0FEA8
:104C4C00C39F501574602EF582E43401F583E0F5B2
:104C5C009990004FE004F0800B90004FE4F090022C
:104C6C0070F0A3F0D2AFD0E0FFD0E0FED0D0D08275
:054C7C00D083D0E032FE
:10515B00C299C298123E87E4900378F0A3F0A3F0B3
:10516B0090004DF0A3F0A3F0A3F0C2B590026E74C3
:10517B00C0F0E4900270F0A3F0900274F0A3F02260
:10343000E4FF900160F0A374D7F0A37429F090002A
:103440004AE0900163F0A37402F090026EE09001F4
:1034500066F0E4EFC39414501A74062FF582E43436
:1034600000F583E0FE74672FF582E43401F583EE06
:10347000F0800C74672FF582E43401F583E4F00FDB
:10348000EFB414CFE4FFEFC39408501874422FF543
:1034900082E43400F583E0FE747B2FF582E434018E
:1034A000F583EEF00FEFB405DD9004DDE0900180D0
:1034B000F0E4FF9004DDE0FEEFC39E504C75F01980
:1034C000EFA42480F582E5F03403F583E0FEC454D4
:1034D000F0FE75F019EFA42481F582E5F03403F5D0
:1034E00083E04EFE75F002EFA42481F582E5F0340E
:1034F00001F583EEF075F002EFA42482F582E5F089
:103500003401F583E4F00F80AAE4FF90004BE0FE65
:10351000EFC39E502D741A2FF582E43400F583E03A
:10352000FE9004DDE075F002A42FF582E435F0F59D
:1035300083E5822481F582E5833401F583EEF00F83
:1035400080C99004DDE025E0FD241CFF90004BE0E5
:10355000FC2F900165F07E017F61ED2420FDEC2DB4
:10356000FD12522F90004BE0FE9004DDE0FD75F05F
:1035700002A42EF582E435F0F583E5822481F582FC
:10358000E5833401F583EFF0ED25E02422FFEE2FF3
:01359000FF3B
:013591002217
:030006007F002256
:03000E007F00224E
:030016007F002246
:1036E300E4FF9006D3F0900057E014FEEFC39E4032
:1036F3000302381474582FF582E43400F583E0FE96
:103703009004DDE0FDEEC39D400302380E74592F93
:10371300F582E43400F583E0FDC4540F60030238FE
:103723000775F019EEA42481F582E5F03403F583DF
:10373300E06D705074582FF582E43400F583E0FE99
:1037430075F019A42482F582E5F03403F583E0FDD6
:10375300745A2FF582E43400F583E0FCED6C702499
:1037630075F019EEA42483F582E5F03403F583E0C4
:10377300FE745B2FF582E43400F583E0FDEE6D709B
:1037830003023804745A2FF582E43400F583E0FE13
:1037930074582FF582E43400F583E075F019A424FE
:1037A30082F582E5F03403F583EEF0745B2FF58246
:1037B300E43400F583E0FE74582FF582E43400F519
:1037C30083E075F019A42483F582E5F03403F583CF
:1037D300EEF074592FF582E43400F583E0540FFEC4
:1037E30074582FF582E43400F583E075F019A424AE
:1037F30081F582E5F03403F583EEF09006D374018E
:10380300F00F8001000F0F0F0236E97F01124EF314
:0F381300229006D3E06003124C81E4FF124EF3C3
:013822002283
:03001E007F00223E
:030026007F002236
:03002E007F00222E
:03532E007F0022DB
:1052CA0090026E7440F0780C76121248ECE4FF12E9
:0352DA004EF3226E
:100BF800E4F508F509900160F0A374D7F0A374290F
:100C0800F090004AE0900163F0A37415F090026E32
:100C1800E0900166F0750807E4F5099004DDE0FF4F
:100C2800E509C39F4003020FCDAF08050874602F84
:100C3800F582E43401F583E509F075F019A4248000
:100C4800F582E5F03403F583E0C454F0FF75F0193C
:100C5800E509A42481F582E5F03403F583E04FFF2C
:100C6800AE08050874602EF582E43401F583EFF0D0
:100C780075F019E509A42480F582E5F03403F583BD
:100C8800E0147003020E45147003020EF42402608F
:100C980003020FC875F019E509A42481F582E5F06F
:100CA8003403F583E024FD7003020D46240360033A
:100CB800020FC875F019E509A4248CF582E5F03413
:100CC80003F583E0640175F019702FE509A4248AFF
:100CD800F582E5F03403F583E0FFAE08050874609B
:100CE8002EF582E43401F583EFF075F019E509A4D7
:100CF8002489F582E5F03403802DE509A42486F5DE
:100D080082E5F03403F583E0FFAE08050874602E31
:100D1800F582E43401F583EFF075F019E509A424B0
:100D280085F582E5F03403F583E0FFAE0805087425
:100D3800602EF582E43401F583EFF0020E1275F0AF
:100D480019E509A4248CF582E5F03403F583E06401
:100D58000175F0197051E509A4248BF582E5F0348A
:100D680003F583E0FFAE08050874602EF582E434CD
:100D780001F583EFF075F019E509A4248AF582E5F9
:100D8800F03403F583E0FFAE08050874602EF582A1
:100D9800E43401F583EFF075F019E509A42489F529
:100DA80082E5F03403804FE509A42487F582E5F055
:100DB8003403F583E0FFAE08050874602EF582E47D
:100DC8003401F583EFF075F019E509A42486F5825E
:100DD800E5F03403F583E0FFAE08050874602EF5EE
:100DE80082E43401F583EFF075F019E509A4248550
:100DF800F582E5F03403F583E0FFAE08050874607A
:100E08002EF582E43401F583EFF075F019E509A4B5
:100E18002482F582E5F03403F583E0FFAE08050887
:100E280074602EF582E43401F583EFF075F019E56E
:100E380009A42483F582E5F03403020FB475F01990
:100E4800E509A42481F582E5F03403F583E0600325
:100E5800020FC875F019E509A42487F582E5F03476
:100E680003F583E0FFAE08050874602EF582E434CC
:100E780001F583EFF075F019E509A42486F582E5FC
:100E8800F03403F583E0FFAE08050874602EF582A0
:100E9800E43401F583EFF075F019E509A42485F52C
:100EA80082E5F03403F583E0FFAE08050874602E90
:100EB800F582E43401F583EFF075F019E509A4240F
:100EC80084F582E5F03403F583E0FFAE0805087485
:100ED800602EF582E43401F583EFF075F019E50929
:100EE800A42482F582E5F03403020FB475F019E505
:100EF80009A42481F582E5F03403F583E014605AEF
:100F0800046003020FC875F019E509A42487F58267
:100F1800E5F03403F583E0FFAE08050874602EF5AC
:100F280082E43401F583EFF075F019E509A424860D
:100F3800F582E5F03403F583E0FFAE080508746038
:100F48002EF582E43401F583EFF075F019E509A474
:100F58002482F582E5F03403805275F019E509A47E
:100F68002487F582E5F03403F583E0FFAE08050831
:100F780074602EF582E43401F583EFF075F019E51D
:100F880009A42486F582E5F03403F583E0FFAE0872
:100F9800050874602EF582E43401F583EFF075F0EE
:100FA80019E509A42482F582E5F03403F583E0FF0E
:100FB800AE08050874602EF582E43401F583EFF07D
:100FC8000509020C23E50824FB900165F07E017FEA
:100FD80061E50814FD12522F74602508F582E43487
:090FE80001F583EFF0E50804FFB8
:010FF10022DD
:103F780090005DE0FF90037BEFF090005CE0FF9025
:103F8800037CEFF090005BE0FF90037DEFF0900082
:103F98005AE0FF90037EEFF090037BE0FCA3E0FD86
:103FA800A3E0FEA3E0FF9007271206F1900061E06E
:103FB800FF90037BEFF0900060E0FF90037CEFF050
:103FC80090005FE0FF90037DEFF090005EE0FF90CF
:103FD800037EEFF090037BE0FCA3E0FDA3E0FEA3EB
:103FE800E0FF90072B1206F1900059E0FFEF12074F
:103FF8003A400600403E01404A0200004056900008
:1040080058E0FFEFC0E0900727E0FCA3E0FDA3E045
:10401800FEA3E0FF9006D41206F190072BE0FCA364
:10402800E0FDA3E0FEA3E0FF9006D81206F1D0E081
:10403800FF1245D28019900058E0FF7D001242E53A
:10404800800D900058E0FF7D011242E58001007F5D
:0440580000124EF311
:01405C002241
:103C8200750B00900160E4F090016174D7F090012F
:103C9200627429F090004AE0FF900163EFF0900116
:103CA2006474CCF0900165740BF0900058E0FF8FC3
:103CB2000B9004DDE0FFE50BC39F40067F09124E27
:103CC200F322900166E50BF0AF0B75F019EFA42417
:103CD2008CF582E5F03403F583E0FF900167EFF0A5
:103CE200AF0B75F019EFA4248DF582E5F03403F5DE
:103CF20083E0FCA3E0FDA3E0FEA3E0FF90037B12C0
:103D020006F190037BE0FF90016BEFF090037CE003
:103D1200FF90016AEFF090037DE0FF900169EFF000
:103D220090037EE0FF900168EFF0AF0B75F019EFA2
:103D3200A42491F582E5F03403F583E0FCA3E0FDD1
:103D4200A3E0FEA3E0FF90037B1206F190037BE069
:103D5200FF90016FEFF090037CE0FF90016EEFF0B7
:103D620090037DE0FF90016DEFF090037EE0FF9005
:103D7200016CEFF07E017F617D0F12522F90017076
:043D8200EFF07F11CE
:013D8600221A
:104B1E0090075BE4F0900057E0FFEF24E5FF90076D
:104B2E005BEFF090075BE0FFEF6054900058E0FF02
:104B3E007B017A007959EBC0E0EAC0E0E9C0E07B86
:104B4E00017A00796D90071EEBF0A3EAF0A3E9F06D
:104B5E007B017A007972900721EBF0A3EAF0A3E9CA
:104B6E00F090075BE0FE900724EEF0D0E0F9D0E085
:104B7E00FAD0E0FB122E617F00124EF32280067FE8
:074B8E0009124EF3227F0023
:014B950022FD
:0C531100122C7912504C7F00124EF32237
:104EF30090075CEFF0900160E4F090016174D7F0EB
:104F03009001627429F090004AE0FF900163EFF092
:104F1300900056E0FF900167EFF090016474FFF09A
:104F230090026EE0FF900166EFF090075CE0FF9067
:104F33000168EFF09001657404F07E017F607D09E4
:0B4F430012522F900169EFF07F0A224C
:0D4B960090073CEEF0A3EFF090073EEDF02D
:104BA30090073FE4F0900740E4F0900740E4F09072
:104BB300073EE0FF900740E0FEEEC39F5036C2D7AA
:104BC300900740E0FF90073CE0FCA3E0FD8D828C62
:104BD30083E5822FF582E43583F583E0FF90073F79
:104BE300E02FF030D70690073FE004F0900740E055
:104BF30004F080BB90073FE0FFC374FF9FFF900763
:084C03003FEFF090073FE0FFD6
:014C0B002286
:10242500900751E4F0900752E4F0900056E0FFEF7A
:10243500131313541FFFEF541FFF900751EFF09034
:102445000751E0FFEFC3940E400302271C90016083
:10245500E4F090016174D7F09001627428F0900166
:1024650063E4F0900056E0FF900164EFF0900165A1
:102475007403F0900751E0FF75F019EFA42480F57F
:1024850082E5F03403F583E0FFEF12073A249F005D
:1024950025F701265402000026E6900751E0FF7556
:1024A500F019EFA42481F582E5F03403F583E0FF0C
:1024B500EF12073A24C300254F03000026E69007D4
:1024C50051E0FF75F019EFA4248CF582E5F0340393
:1024D500F583E0FFEFB40139900751E0FF75F0197E
:1024E500EFA42489F582E5F03403F583E0FF90013C
:1024F50066EFF0900751E0FF75F019EFA4248AF517
:1025050082E5F03403F583E0FF900167EFF00226E2
:10251500E6900751E0FF75F019EFA42485F582E5F3
:10252500F03403F583E0FF900166EFF0900751E08A
:10253500FF75F019EFA42486F582E5F03403F583E1
:10254500E0FF900167EFF00226E6900751E0FF7586
:10255500F019EFA4248CF582E5F03403F583E0FF50
:10256500EF64017051900751E0FF75F019EFA42455
:1025750089F582E5F03403F583E0FF900751E0FE2D
:1025850074602EF582E43401F583EFF0900751E095
:10259500FF75F019EFA4248AF582E5F03403F5837D
:1025A500E0FF900751E0FE74602EF582E43401F5FA
:1025B50083EFF00226E6900751E0FF75F019EFA4CE
:1025C5002485F582E5F03403F583E0FF900166EF9D
:1025D500F0900751E0FF75F019EFA42486F582E528
:1025E500F03403F583E0FF900167EFF00226E60281
:1025F50026E6900751E0FF75F019EFA42481F582D6
:10260500E5F03403F583E0FFEF12073A26180000E2
:102615000026E6900751E0FF75F019EFA42486F532
:1026250082E5F03403F583E0FF900166EFF0900753
:1026350051E0FF75F019EFA42487F582E5F0340326
:10264500F583E0FF900167EFF00226E60226E690AB
:102655000751E0FF75F019EFA42481F582E5F03408
:1026650003F583E0FFEF12073A26780026B0010054
:102675000026E6900751E0FF75F019EFA42486F5D2
:1026850082E5F03403F583E0FF900166EFF09007F3
:1026950051E0FF75F019EFA42487F582E5F03403C6
:1026A500F583E0FF900167EFF08036900751E0FF7A
:1026B50075F019EFA42486F582E5F03403F583E07F
:1026C500FF900166EFF0900751E0FF75F019EFA458
:1026D5002487F582E5F03403F583E0FF900167EF89
:1026E500F07B017A0179607D08123955900752EF28
:1026F500F07E017F60900752E0FD124B96900752E5
:10270500E0FE74602EF582E43401F583EFF0900766
:0927150052E0FFEF04FF227F00F7
:01271E002298
:100FF200900753E4F0900754E4F0900056E0FFEFBE
:10100200131313541FFFEF541FFF900753EFF09079
:101012000753E0FFEFC3940E40030213A790016051
:10102200E4F090016174D7F09001627428F09001AD
:1010320063E4F0900056E0FF900164EFF0900165E8
:101042007406F0900753E0FF75F019EFA42480F5C1
:1010520082E5F03403F583E0FFEF12073A106C00EB
:1010620012180112CE020000136B900753E0FF75B5
:10107200F019EFA42481F582E5F03403F583E0FF53
:10108200EF12073A109000111C03000011BD9007E7
:1010920053E0FF75F019EFA4248CF582E5F03403D8
:1010A200F583E0FFEFB40139900753E0FF75F019C3
:1010B200EFA42489F582E5F03403F583E0FF900183
:1010C20066EFF0900753E0FF75F019EFA4248AF55C
:1010D20082E5F03403F583E0FF900167EFF002113F
:1010E200BD900753E0FF75F019EFA42485F582E562
:1010F200F03403F583E0FF900166EFF0900753E0D0
:10110200FF75F019EFA42486F582E5F03403F58328
:10111200E0FF900167EFF00211BD900753E0FF7509
:10112200F019EFA4248CF582E5F03403F583E0FF97
:10113200EF64017050900753E0FF75F019EFA4249B
:1011420089F582E5F03403F583E0FF900753E0FE72
:1011520074602EF582E43401F583EFF0900753E0DA
:10116200FF75F019EFA4248AF582E5F03403F583C4
:10117200E0FF900753E0FE74602EF582E43401F53F
:1011820083EFF08036900753E0FF75F019EFA42447
:1011920085F582E5F03403F583E0FF900166EFF018
:1011A200900753E0FF75F019EFA42486F582E5F06D
:1011B2003403F583E0FF900167EFF0900753E0FFFF
:1011C20075F019EFA42482F582E5F03403F583E08B
:1011D200FFEF5407FFEF12073A11EB0011F2011172
:1011E200FA051202070000120A900168E4F0801D5D
:1011F2009001687402F080159001687404F0800D0B
:101202009001687406F08005900168E4F09001692D
:10121200740AF002136B900753E0FF75F019EFA404
:101222002481F582E5F03403F583E0FFEF12073AFB
:101232001239000000136B900753E0FF75F019EFAD
:10124200A42486F582E5F03403F583E0FF9001667D
:10125200EFF0900753E0FF75F019EFA42487F582B1
:10126200E5F03403F583E0FF900167EFF090075358
:10127200E0FF75F019EFA42482F582E5F03403F55E
:1012820083E0FFEF5407FFEF12073A129D0012A509
:101292000112AD0512B507000012BD90016874403D
:1012A200F0801E9001687442F080169001687444C8
:1012B200F0800E9001687446F080069001687440D8
:1012C200F0900169E4F002136B02136B900753E094
:1012D200FF75F019EFA42481F582E5F03403F5835C
:1012E200E0FFEF12073A12F200132A010000136026
:1012F200900753E0FF75F019EFA42486F582E5F01C
:101302003403F583E0FF900166EFF0900753E0FFAE
:1013120075F019EFA42487F582E5F03403F583E034
:10132200FF900167EFF08036900753E0FF75F019E8
:10133200EFA42486F582E5F03403F583E0FF900103
:1013420066EFF0900753E0FF75F019EFA42487F5DC
:1013520082E5F03403F583E0FF900167EFF090013E
:10136200687440F0900169E4F090016A74FFF07BC8
:10137200017A0179607D0B123955900754EFF07EA6
:10138200017F60900754E0FD124B96900754E0FEF7
:1013920074602EF582E43401F583EFF0900754E097
:0713A200FFEF04FF227F00B2
:0113A9002221
:102FEA00900755E4F0900756E4F0900056E0FFEFA2
:102FFA00131313541FFFEF541FFF900755EFF09060
:10300A000755E0FFEFC3940E400302315A90016066
:10301A00E4F090016174D7F09001627428F0900195
:10302A0063E4F0900056E0FF900164EFF0900165D0
:10303A007403F0900755E0FF75F019EFA42480F5AA
:10304A0082E5F03403F583E0FFEF12073A306400BB
:10305A0030BE0131190200003124900755E0FF7596
:10306A00F019EFA42482F582E5F03403F583E0FF3A
:10307A00EF5407FFEF12073A30920030990130A15E
:10308A000530A907000030B1900166E4F0801D9078
:10309A0001667402F080159001667404F0800D9048
:1030AA0001667406F08005900166E4F09001677489
:1030BA000AF08066900755E0FF75F019EFA42482A4
:1030CA00F582E5F03403F583E0FFEF5407FFEF12D2
:1030DA00073A30EC0030F40130FC053104070000F7
:1030EA00310C9001667440F0801E9001667442F0C3
:1030FA0080169001667444F0800E9001667446F062
:10310A0080069001667440F0900167E4F0800B90AD
:10311A0001667440F0900167E4F07B017A017960FE
:10312A007D08123955900756EFF07E017F609007AF
:10313A0056E0FD124B96900756E0FE74602EF5821B
:10314A00E43401F583EFF0900756E0FFEF04FF2225
:02315A007F00F4
:01315C002250
:035331007F0022D8
:10315D0090075DE4F0900056E0FFEF131313541F3A
:10316D00FFEF541FFF90075DEFF090075DE0FFEF5D
:10317D00C3940E40030232C8900058E0FFEFC31312
:10318D00FFEF5403FFEF12073A31A60031E1013290
:10319D001C023256030000329090075DE0FF75F07F
:1031AD0019EFA42482F582E5F03403F583E0FFEFF7
:1031BD0054F0FFEFF090075DE0FF75F019EFA424D8
:1031CD0082F582E5F03403F583E0FFEF4400FFEF75
:1031DD00F00232C890075DE0FF75F019EFA424826C
:1031ED00F582E5F03403F583E0FFEF54F0FFEFF0E7
:1031FD0090075DE0FF75F019EFA42482F582E5F0EC
:10320D003403F583E0FFEF4401FFEFF00232C89085
:10321D00075DE0FF75F019EFA42482F582E5F03427
:10322D0003F583E0FFEF54F0FFEFF090075DE0FF53
:10323D0075F019EFA42482F582E5F03403F583E0EF
:10324D00FFEF4405FFEFF0807290075DE0FF75F032
:10325D0019EFA42482F582E5F03403F583E0FFEF46
:10326D0054F0FFEFF090075DE0FF75F019EFA42427
:10327D0082F582E5F03403F583E0FFEF4407FFEFBD
:10328D00F0803890075DE0FF75F019EFA42482F50A
:10329D0082E5F03403F583E0FFEF54F0FFEFF0909B
:1032AD00075DE0FF75F019EFA42482F582E5F03497
:0D32BD0003F583E0FFEF4400FFEFF07F001A
:0132CA0022E1
:10395500900736EBF0A3EAF0A3E9F0900739EDF014
:1039650090073AE4F090073BE4F090073A7403F0CF
:10397500900739E0FF90073AE0FEEEC39F4003024F
:103985003A5F900736E0FBA3E0FAA3E0F990073A27
:10399500E0FF8F8275830012046FFFEF64D7600329
:1039A500023A56900739E0FFEF14FF90073BEFF01E
:1039B50090073AE0FF90073BE0FEEED39F4045902D
:1039C5000736E0FBA3E0FAA3E0F990073BE0FF8FA1
:1039D5008275830012046FFF90073BE0FEEEFD7CCD
:1039E50000ED2401FDEC3400FC900736E0FBA3E07C
:1039F500FAA3E0F98D828C83EF1204E190073BE096
:103A050014F080AC90073AE0FF7E00EF2401FFEE52
:103A15003400FE900736E0FBA3E0FAA3E0F98F82BD
:103A25008E83E41204E190026FE0FFEFB40116907B
:103A35000736E0FBA3E0FAA3E0F97582057583007C
:103A4500740112049C900739E004F090073AE004F1
:0F3A5500F090073AE004F0023975900739E0FF6E
:013A6400223F
:1032CB0090026FE0FFEF12073A32E10033B901349D
:1032DB000D030000342F9004957440F09004967405
:1032EB000AF0900056E0FFEF12073A332701333014
:1032FB0003333905334207334B0933540A335D0C1F
:10330B0033660E336F103378123381143393CA3311
:10331B00A5CB338ACD339CDF000033AE1234309013
:10332B000050EFF022120006900050EFF022120036
:10333B000E900050EFF022120016900050EFF0228A
:10334B001236E3900050EFF02212001E900050EF67
:10335B00F022120026900050EFF02212002E900067
:10336B0050EFF02212532E900050EFF0221252CA5F
:10337B00900050EFF022120BF8900050EFF0221259
:10338B004B1E900050EFF022123F78900050EFF060
:10339B0022125311900050EFF022123C82900050F9
:1033AB00EFF0227F06124EF3900050EFF0229000C8
:1033BB0057E0FFEFC4135407FFEF5407FFEF12075B
:1033CB003A33DF0033E80133F10233FA03340304F9
:1033DB000000342F125331900050EFF02212315D68
:1033EB00900050EFF022122FEA900050EFF02212D3
:1033FB002425900050EFF022120FF2900050EFF0C6
:10340B0022227B017A007955125270EF12073A345F
:10341B0021030000342A121A97900050EFF02290EB
:05342B000050E4F02256
:0B210C00900741EBF0A3EAF0A3E9F01C
:102117009007447401F0900741E0FBA3E0FAA3E0C5
:10212700F912052FFFAEF0EF8EF01207602148007D
:102137000021740492238204E223DC04E6000024D5
:102147000B90004DE4F0A3E4F0D29CC2B5D2AC9062
:1021570006F17401F0900744E4F0900741E0FBA317
:10216700E0FAA3E0F9740475F0921205929007441F
:10217700E0FFEF600890004CE0FFEF70037F012263
:102187009006F1E4F090004CE4F090026FE0FFEF6E
:1021970012073A21A700221901226703000022DF54
:1021A70090004AE0FF900055E0FEEE6F6015900743
:1021B70041E0FBA3E0FAA3E0F9E475F00012059211
:1021C7007F002290004DE0FEA3E0FF74512FF582BF
:1021D70074003EF583E0FF900000EFF07E007F5231
:1021E70090004DE0FCA3E0FDED14FD12522F90008E
:1021F70000E0FEEF6E70030222DF900741E0FBA3D1
:10220700E0FAA3E0F9E475F0001205927F002202DC
:1022170022DF90004DE0FEA3E0FF74512FF582749A
:10222700003EF583E0FF900000EFF07E007F5290C4
:10223700004DE0FCA3E0FDED14FD124B969000006D
:10224700E0FEEF6E70030222DF900741E0FBA3E0A0
:10225700FAA3E0F9E475F0001205927F0022807876
:102267007B017A00795312527090004AE0FEEF6EBC
:102277006015900741E0FBA3E0FAA3E0F9E475F0ED
:10228700001205927F002290004DE0FEA3E0FF744C
:10229700502FF974003EFA7B01125270900001EF43
:1022A700F07B017A00795390004DE0FEA3E0FFEF49
:1022B70024FDFDEE34FFFC124AA5900001E0FEEF7D
:1022C7006E6015900741E0FBA3E0FAA3E0F9E4751F
:1022D700F0001205927F00221232CB900050E0FFEF
:1022E700EF7018900741E0FBA3E0FAA3E0F9E4756B
:1022F700F0001205927F002202214890026FE0FF52
:10230700EF70137B017A017960900050E0FD12397C
:1023170055900050EFF0D2B5C29C90004FE4F0907A
:10232700004FE0FF74602FF582E43401F583E0FF8E
:102337008F9990004FE004F0D2AC9006F3E004F0E0
:1023470070069006F2E004F090026FE0FFEF705A1B
:10235700900741E0FBA3E0FAA3E0F97582027583D9
:1023670000E475F0001205B1900741E0FBA3E0FA25
:10237700A3E0F9740475F0E2120592900741E0FBBF
:10238700A3E0FAA3E0F975820275830012055AFFEC
:10239700AEF0C3EF940AEE94004003D38001C3501C
:1023A700030221487F0022022148900741E0FBA356
:1023B700E0FAA3E0F9758202758300E475F0001274
:1023C70005B1900741E0FBA3E0FAA3E0F9740475B7
:1023D700F0E6120592900741E0FBA3E0FAA3E0F9CB
:1023E70075820275830012055AFFAEF0C3EF94039E
:1023F700EE94004003D38001C350030221487F00BD
:1024070022022148900744E4F0900741E0FBA3E053
:0D241700FAA3E0F9E475F0001205927F03CE
:012424002295
:102E610090071AEFF090071BEBF0A3EAF0A3E9F04B
:102E7100900725E4F0A3E4F07B017A07791A900624
:102E8100ECE4F0A3742AF07D017C0012405D900710
:102E91001BE0FBA3E0FAA3E0F99006ECE4F0A374D5
:102EA1002BF07D057C0012405D90071BE0FBA3E049
:102EB100FAA3E0F9EBC0E0EAC0E0E9C0E07B017A07
:102EC100007906C8E9C8CCEACCCDEBCDD0E0F9D089
:102ED100E0FAD0E0FB7E007F1412043090071EE080
:102EE100FBA3E0FAA3E0F99006ECE4F0A37430F060
:102EF1007D027C0012405D90071EE0FBA3E0FAA377
:102F0100E0F9EBC0E0EAC0E0E9C0E07B017A0079DA
:102F110042C8E9C8CCEACCCDEBCDD0E0F9D0E0FA9B
:102F2100D0E0FB7E007F08120430900724E0FFEF21
:102F31001313543FFF7E00900725EEF0A3EFF090AE
:102F41000724E0FFEF54FCFFEF600E900726E0043A
:102F5100F07006900725E004F0900725E0FEA3E05D
:102F6100FFD3EF940AEE94004009900725E4F0A303
:102F7100740AF0900721E0FBA3E0FAA3E0F99007BF
:102F810025E0FCA3E0FD9006ECE4F0A37433F0121D
:102F9100405D900724E0FF90004BEFF07B017A0742
:102FA10079249006ECE4F0A37432F07D017C0012E8
:102FB100405D900724E0FF7E00900721E0FBA3E045
:102FC100FAA3E0F9EBC0E0EAC0E0E9C0E07B017AF6
:102FD10000791AC8E9C8CCEACCCDEBCDD0E0F9D064
:082FE100E0FAD0E0FB1204301D
:012FE90022C5
:103E8700900757E4F0A3E4F07B017A00794A9006A3
:103E9700E1E4F0A3742AF07D017C00124140900018
:103EA7004AE0FFEFC39401400B90004AE0FFEFD3D5
:103EB700940F400690004A7401F07B017A0079065E
:103EC7009006E1E4F0A3742BF07D057C00124140DD
:103ED7007B017A0079429006E1E4F0A37430F07D2B
:103EE700027C001241407B017A00794B9006E1E4A5
:103EF700F0A37432F07D017C0012414090004BE04A
:103F0700FFEFD39428400690004B7428F090004BA5
:103F1700E0FFEF1313543FFF7E00900757EEF0A327
:103F2700EFF090004BE0FFEF54FCFFEF600E9007BF
:103F370058E004F07006900757E004F0900757E048
:103F4700FEA3E0FFD3EF940AEE94004009900757D1
:103F5700E4F0A3740AF07B017A00791A900757E01E
:103F6700FCA3E0FD9006E1E4F0A37433F0124140B6
:013F77002227
:0B078D00900745EBF0A3EAF0A3E9F0B1
:100798009007487401F0900745E0FBA3E0FAA3E056
:1007A800F912052FFFAEF0EF8EF012076007C500B3
:1007B8000007E805380BCD05D400000BDE900005D6
:1007C800E4F09007037401F0900748E4F0900745BF
:1007D800E0FBA3E0FAA3E0F9740575F0381205927E
:1007E800900748E0FFEF601190037AE0FFEFD394A1
:1007F800004003D38001C340037F0122900703E434
:10080800F0C2AC90037AE0FF900002EFF090037A18
:10081800E4F0900378E0FF900003EFF0D2AC900092
:1008280002E0FF900003E0FEC3EE9FFF900004EF9C
:10083800F0900003E0FF900004E0FEEE6F7003020A
:100848000BA7900004E0FF74782FF582E43402F5DA
:1008580083E0FFEF12073A08B00A0B9E0D086C3AC6
:10086800000008C090004DE4F0A3E4F0900004E01C
:10087800FF74782FF582E43402F583E0FF90004D91
:10088800E0FCA3E0FD74522DF58274003CF583EF83
:10089800F090026F7403F090004EE004F070069040
:1008A800004DE004F0020B9E90004C7401F0C2ACC5
:1008B800C29C020B9E020B9E900004E0FF74782FEE
:1008C800F582E43402F583E0FFEFC39430401790DB
:1008D8000004E0FF74782FF582E43402F583E0FF2A
:1008E800EFD394394034900004E0FF74782FF582F8
:1008F800E43402F583E0FFEFC394415003020B9EFA
:10090800900004E0FF74782FF582E43402F583E068
:10091800FFEFD394464003020B9E900004E0FF745F
:10092800782FF582E43402F583E0FF90004DE0FC77
:10093800A3E0FD74522DF58274003CF583EFF0902E
:10094800004EE004F0700690004DE004F0020B9EAB
:10095800020B9E900004E0FF74782FF582E43402C5
:10096800F583E0FFEF12073A0A86000A212809BC3E
:10097800290980D700000ACB900004E0FF74782F83
:10098800F582E43402F583E0FF90004DE0FCA3E03B
:10099800FD74522DF58274003CF583EFF090004E03
:1009A800E004F0700690004DE004F090000574013A
:1009B800F0020B03900005E0FFEFB4012190005214
:1009C800E4F090005374D7F09000547429F090002C
:1009D8004DE4F0A37403F090026FE4F080339000CC
:1009E80004E0FF74782FF582E43402F583E0FF9089
:1009F800004DE0FCA3E0FD74522DF58274003CF537
:100A080083EFF090004EE004F0700690004DE00493
:100A1800F0900005E4F0020B03900005E0FFEFB44E
:100A28000122900052E4F090005374D7F0900054E3
:100A38007428F090004DE4F0A37403F090026F74F2
:100A480001F08033900004E0FF74782FF582E434DD
:100A580002F583E0FF90004DE0FCA3E0FD74522D09
:100A6800F58274003CF583EFF090004EE004F070DE
:100A78000690004DE004F0900005E4F0807D9000C1
:100A880005E0FFEFB40107900005E4F0806D9000E9
:100A980004E0FF74782FF582E43402F583E0FF90D8
:100AA800004DE0FCA3E0FD74522DF58274003CF586
:100AB80083EFF090004EE004F0700690004DE004E3
:100AC800F08038900004E0FF74782FF582E4340257
:100AD800F583E0FF90004DE0FCA3E0FD74522DF596
:100AE8008274003CF583EFF090004EE004F070064D
:100AF80090004DE004F0900005E4F090004DE0FE19
:100B0800A3E0FFD3EF9406EE9400404C900051E030
:100B1800FF7E00EF2406FFEE3400FE90004DE0FC5F
:100B2800A3E0FDEF6D7002EE6C700F90004C740145
:100B3800F0C2ACC29C900005E4F090004DE0FEA32A
:100B4800E0FFD3EF940EEE9401404B900270E4F076
:100B5800A3E4F07F0022803E90004DE0FEA3E0FF7A
:100B6800EF64064E703090004DE0FEA3E0FF745134
:100B78002FF58274003EF583E0FF900051EFF0906E
:100B8800026FE0FFEFB4010E900051E0FFEF541F39
:100B9800FF900051EFF0900004E004F00208399053
:100BA8000705E004F07006900704E004F090074899
:100BB800E4F0900745E0FBA3E0FAA3E0F9740575BB
:100BC800F0D4120592900748E0FFEF60030207CACD
:100BD8007F01220207CA900748E4F0900745E0FB2E
:0F0BE800A3E0FAA3E0F9E475F0001205927F0391
:010BF70022DB
:0419D8004104DD0EDB
:1048EC001249849003841206FD0000000090039D81
:1048FC001206FD000000009003B61206FD00000039
:10490C00009003CF1206FD000000009003E8120691
:10491C00FD000000009004011206FD000000009054
:10492C00041A1206FD000000009004331206FD006C
:10493C0000000090044C1206FD000000009004657D
:10494C001206FD0000000090047E1206FD0000001F
:10495C00009004B01206FD000000009004C912067D
:10496C00FD000000009004957440F0A3740AF0A3BD
:08497C001206FD8000800022FC
:104C8100E49006DCF0A31206FD00000000E49006AB
:104C9100DCF09006DCE0FFC3940E502BEF75F019A9
:104CA100A42480F9740335F0FA7B01E02410FEE4BA
:104CB100339006ECF0A3CEF07D017C0012405D90B4
:104CC10006DCE004F080CB124F4EE4FCFDFE9006C2
:104CD100DD1206F17B017A0679DD9006ECE4F0A3A2
:0A4CE10074A0F07D017C0012405D1C
:014CEB0022A6
:10498400E49006D3F0A31206FD000000009006D8C0
:104994001206FD00000000E49006D3F09006D3E078
:1049A400FFC3940E502BEF75F019A42480F97403FF
:1049B40035F0FA7B01E02410FEE4339006E1F0A325
:1049C400CEF07D017C001241409006D3E004F080DB
:1049D400CB124F4EE4FCFDFE9006D81206F17B018B
:1049E4007A0679D49006E1E4F0A374A0F07D017C0A
:1049F400001241409006D4E0FCA3E0FDA3E0FEA336
:104A0400E0FFA3E0F8A3E0F9A3E0FAA3E0FBC312FC
:074A140006BA6003122C79C1
:014A1B002278
:102C7900E490037FF0A3F0A37403F0A37440F0A3DE
:102C89007406F0A31206FD000000009003881206E6
:102C9900FD000000009003987401F0E4A3F0A37410
:102CA90003F0A37440F0A37406F0A31206FD00001C
:102CB90000009003A11206FD000000009003B1740A
:102CC90002F0E4A3F0A37403F0A37440F0A3740624
:102CD900F0A31206FD000000009003BA1206FD00E1
:102CE9000000009003CA7403F0E4A3F0A37403F096
:102CF900A37440F0A37406F0A31206FD00000000BF
:102D09009003D31206FD000000009003E37404F061
:102D1900E4A3F0A37403F0A37440F0A37406F0A332
:102D29001206FD000000009003EC1206FD000000F1
:102D3900009003FC7405F0E4A3F0A37403F0A374FA
:102D490040F0A37406F0A31206FD000000009004F1
:102D5900051206FD000000009004157406F0E4A3B6
:102D6900F0A37403F0A37440F0A37406F0A3120651
:102D7900FD0000000090041E1206FD0000000090F6
:102D8900042E7407F0E4A3F0A37403F0A37440F0D5
:102D9900A37406F0A31206FD000000009004371288
:102DA90006FD000000009004477408F0A37402F0C7
:102DB900A314F0A37440F0A3740AF0A31206FD0053
:102DC9000000009004607409F0A37402F0A314F0E9
:102DD900A37440F0A3740AF0A31206FD00000000DA
:102DE900900479740AF0A37402F0A314F0A3744058
:102DF900F0A3740AF0A31206FD00000001900492EA
:102E0900740BF0A37401F0E4A3F0A37440F0A3746D
:102E19000AF0A31206FD800080009004AB740CF048
:102E2900A37402F0E4A3F0A37440F0A3740AF0A31E
:102E39001206FD000000009004C4740DF0A3740292
:102E4900F0E4A3F0A37440F0A3740AF0A31206FD02
:082E590000000000124C812270
:104F4E00E49006E1F0A3F0A3F09006E2F0E4900600
:104F5E00E3F09006E2E075F019A42480F9740335AD
:104F6E00F0FA7B01A3E07E0029F9EE3AFA1204561C
:104F7E00FF9006E1E06F903D87939006E1F090067A
:104F8E00E3E004F0E0B404CA9006E2E004F0E0B41A
:074F9E000EBB9006E1E0FFED
:014FA50022E9
:030000000247B202
:1047B20043AF01787FE4F6D8FD9000007FFF7E8052
:0D47C200E4F0A3DFFCDEFA75811102480A65
:1019DC00606606150000000000000000000000001A
:1019EC0000000000000000000000000000000000EB
:1019FC0000000000000000000000000000000000DB
:101A0C0000000000000000000000000000000000CA
:101A1C0000000000000000000000000000000000BA
:101A2C0000000000000000000000000000000000AA
:101A3C0000000000000000000000410610004406F9
:051A4C00110000000084
:1043A800E4FF9006D3F01252EF1252B6D2AAD2A866
:1043B800D288D28AE4FFEF75F022A42415F582E4AE
:1043C8003406F583E4F0A3F09006D3F0EF75F022FD
:1043D800A42417F582E43406F583C083C0829006CE
:1043E800D3E0FED082D08375F00812072EE4F0A344
:1043F800F0EF75F022A42419F582E43406F58375EC
:10440800F008EE12072EE4F0A3F0EF75F022A424D2
:104418001BF582E43406F583C083C0829006D3E09E
:10442800FED082D08375F00812072EE4F0A3F0EFD7
:1044380075F022A4241DF582E43406F58375F0088E
:10444800EE12072EE4F0A3F09006D3E004F0E06447
:0F4458000460030243D40FEF640360030243BE0A
:014467002232
:03000300024E2981
:104E2900C0E0C0F0C083C082C0D0E8C0E0ECC0E000
:064E3900EDC0E0EFC0E057
:104E3F00900615E0C3135403FF75F008A42417F56B
:104E4F0082E43406F583E475F0011205039006152C
:104E5F00E0FCA3E0FDEF75F008A42419F582E4341B
:084E6F0006F583ECF0A3EDF061
:104E7700D0E0FFD0E0FDD0E0FCD0E0F8D0D0D08289
:074E8700D083D0F0D0E0322F
:03001300024E8E0C
:104E8E00C0E0C0F0C083C082C0D0E8C0E0ECC0E09B
:064E9E00EDC0E0EFC0E0F2
:104EA400900615E0C3135403FF75F008A42439F5E4
:104EB40082E43406F583E475F001120503900615C7
:104EC400E0FCA3E0FDEF75F008A4243BF582E43494
:084ED40006F583ECF0A3EDF0FC
:104EDC00D0E0FFD0E0FDD0E0FCD0E0F8D0D0D08224
:074EEC00D083D0F0D0E032CA
:03000B00024CECB8
:104CEC00C0E0C0F0C083C082C0D0E8C0E0ECC0E03F
:064CFC00EDC0E0EFC0E096
:104D0200758CFF758AFF900615E0C3135403FF7577
:104D1200F008A4245BF582E43406F583E475F0011F
:104D2200120503900615E0FCA3E0FDEF75F008A460
:0E4D3200245DF582E43406F583ECF0A3EDF089
:104D4000D0E0FFD0E0FDD0E0FCD0E0F8D0D0D082C1
:074D5000D083D0F0D0E03267
:03002B0002271F8A
:10271F00C0E0C0F0C083C082C0D0E8C0E0ECC0E031
:10272F00EDC0E0EEC0E0EFC0E0C2CF900615E0FED6
:10273F00A3E08EF0120760275A01FF280403FF2839
:10274F009605FF292907FF000029C290061AE024E9
:10275F00FFFF900619E03407FE900631E0FCA3E07E
:10276F00FDC3EF9DFFEE9C90061BF0A3EFF09006CC
:10277F0017E0FFA3E090061DCFF0A3EFF090062F18
:10278F00E4F0A3F090063CE024FFFF90063BE0341A
:10279F0007FE900653E0FCA3E0FDC3EF9DFFEE9C08
:1027AF0090063DF0A3EFF0900639E0FFA3E090060E
:1027BF003FCFF0A3EFF0900651E4F0A3F090065E48
:1027CF00E024FFFF90065DE03407FE900675E0FC05
:1027DF00A3E0FDC3EF9DFFEE9C90065FF0A3EFF02B
:1027EF0090065BE0FFA3E0900661CFF0A3EFF090BF
:1027FF000673022925900619E0FEA3E0FFC3900699
:10280F0022E09FFF900621E09E900623F0A3EFF0B9
:10281F0090061FE0FFA3E0900625CFF0A3EFF09006
:10282F000617E4F0A3F090063BE0FEA3E0FFC39091
:10283F000644E09FFF900643E09E900645F0A3EF0D
:10284F00F0900641E0FFA3E0900647CFF0A3EFF032
:10285F00900639E4F0A3F090065DE0FEA3E0FFC31D
:10286F00900666E09FFF900665E09E900667F0A3D6
:10287F00EFF0900663E0FFA3E0900669CFF0A3EFBF
:10288F00F090065B022925900621E0FEA3E0FFC32E
:10289F0090062AE09FFF900629E09E90062BF0A35A
:1028AF00EFF0900627E0FFA3E090062DCFF0A3EF07
:1028BF00F090061FE4F0A3F0900643E0FEA3E0FFC4
:1028CF00C390064CE09FFF90064BE09E90064DF0A4
:1028DF00A3EFF0900649E0FFA3E090064FCFF0A3DF
:1028EF00EFF0900641E4F0A3F0900665E0FEA3E060
:1028FF00FFC390066EE09FFF90066DE09E90066FFF
:10290F00F0A3EFF090066BE0FFA3E0900671CFF01D
:10291F00A3EFF0900663E40229BF900629E0FEA31F
:10292F00E0FFC3900632E09FFF900631E09E9006D5
:10293F0033F0A3EFF090062FE0FFA3E0900635CF22
:10294F00F0A3EFF0900627E4F0A3F090064BE0FE23
:10295F00A3E0FFC3900654E09FFF900653E09E90C4
:10296F000655F0A3EFF0900651E0FFA3E090065755
:10297F00CFF0A3EFF0900649E4F0A3F090066DE0DE
:10298F00FEA3E0FFC3900676E09FFF900675E09EE2
:10299F00900677F0A3EFF0900673E0FFA3E09006A8
:1029AF0079CFF0A3EFF090066BE4F0A3F09006154B
:1029BF00F0A3F0900616E004F07006900615E00400
:1029CF00F0900615E05407F0D0E0FFD0E0FED0E025
:1029DF00FDD0E0FCD0E0F8D0D0D082D083D0F0D0C2
:0229EF00E032D4
:0B29F100900749EBF0A3EAF0A3E9F027
:0529FC009006FDE4F06F
:102A010090074C7401F0900749E0FBA3E0FAA3E0C2
:102A1100F912052FFFAEF0EF8EF01207602A2E009B
:102A2100002A5800C12BCF00C400002C5F90074939
:102A3100E0FBA3E0FAA3E0F9758202758300E47577
:102A4100F0001205B1900749E0FBA3E0FAA3E0F919
:102A5100E475F0C1120592900749E0FBA3E0FAA3E7
:102A6100E0F975820275830012055AFFAEF0C3EFDB
:102A71009414EE94004003D38001C340037F0022ED
:102A8100900610E0FFEF75F022A42425F582E434CE
:102A910006F583E0FEA3E0FFCBEFCBCAEECAE4F973
:102AA100F8900610E0FFEF75F022A4241DF582E4F2
:102AB1003406F583E0FEA3E0FFE4FCFDEF2BFBEE23
:102AC1003AFAED39F9EC38F8900610E0FFEF75F0BD
:102AD10022A4242DF582E43406F583E0FEA3E0FF71
:102AE100E4FCFDEB2FFBEA3EFAE93DF9E83CF89006
:102AF1000610E0FFEF75F022A42435F582E43406D8
:102B0100F583E0FEA3E0FFE4FCFDEB2FFFEA3EFED0
:102B1100E93DFDE83CFC78121206DEECC0E0EDC0B8
:102B2100E0EEC0E0EFC0E0900610E0FFEF75F022AC
:102B3100A42423F582E43406F583E0FEA3E0FF90AC
:102B41000610E0FDED75F022A4241BF582E43406A5
:102B5100F583E0FCA3E0FDED2FFFEC3EFE900610B7
:102B6100E0FDED75F022A4242BF582E43406F58313
:102B7100E0FCA3E0FDEF2DFFEE3CFE900610E0FD32
:102B8100ED75F022A42433F582E43406F583E0FCEC
:102B9100A3E0FDEF2DFFEE3CFECBEFCBCAEECAE486
:102BA100F9F8D0E0FFD0E0FED0E0FDD0E0FC120665
:102BB1001A9006111206F190074CE4F0900749E0D3
:102BC100FBA3E0FAA3E0F9E475F0C41205929007C3
:102BD1004CE0FFEF70037F01227FFF7EFF7D007CD1
:102BE10000900611E0F8A3E0F9A3E0FAA3E0FBD31B
:102BF1001206BA5027900611E0FCA3E0FDA3E0FE07
:102C0100A3E0FF900610E0FB75F019EBA4244CF54E
:102C110082E5F03404F5831206F1801B900610E082
:102C2100FF75F019EFA4244CF582E5F03404F58327
:102C31001206FD0000FFFF900610E004F090061060
:102C4100E0FFEFC394034005900610E4F09006FF07
:102C5100E004F070069006FEE004F0022A2E9007D0
:102C61004CE4F0900749E0FBA3E0FAA3E0F9E47536
:072C7100F0001205927F0341
:012C78002239
:1052EF005389F0438905758CFF758AFFD2A9D28C3B
:0152FF00228C
:1052B600D2ADE4F5C875CCFF75CDE775CAFF75CBE1
:0452C600E7D2CA223F
:101A51004106820041068300410687124A0688003A
:101A6100000000000000000000060C000000000063
:091A71000041069D0041069E00A3
:10528B00D2EBE490069FF0A3F09006A3F0A3F0906E
:06529B0006A7F0A3F022BB
:1051B800EF25E054FE900681F09006DBE090068231
:1051C800F09006DFE0900683F0A3EBF0A3EAF0A3EB
:0951D800E9F090069D7401F0223B
:1013AA009006D3EBF0A3EAF0A3E9F0E4900700F08B
:1013BA009006D604F012052FFFAEF0E5F0600302A6
:1013CA00171DEF12073A13FE0014104C143B571462
:1013DA005F5D14B06614ED71153E78157F8515AA08
:1013EA008B15FB9316389B168EA216CFAE16F3B347
:1013FA000000171D9006D3E0FBA3E0FAA3E0F9E48E
:10140A0075F04C12059290069DE07002FF22E4905E
:10141A00069DF0D2EEC2EDD2EFD2ED9006D6F09054
:10142A0006D3E0FBA3E0FAA3E0F9E475F05712054E
:10143A00929006D6E070037F0122C2EFE49006A3E1
:10144A00F0A3F09006D3E0FBA3E0FAA3E0F9E47579
:10145A00F05D1205927A0679819006DA7401F0A39A
:10146A007406F0A37481F0A37401F0FB7A0679A3E1
:10147A00123592C3EF6480948250028001C35003F4
:10148A007F002290069EE06041C2EDC2EFD2EDE4F9
:10149A009006D6F09006D3E0FBA3E0FAA3E0F9E4C5
:1014AA0075F0661205929006D6E070037F0122D28B
:1014BA00EFE490069EF09006D3E0FBA3E0FAA3E0E7
:1014CA00F9E4F5F01205927F0022E49006A3F0A356
:1014DA00F09006D3E0FBA3E0FAA3E0F9E475F0711B
:1014EA001205929006DAE4F0A37400F0A3740CF0EB
:1014FA00900682E09006DDF07B017A0679A3123528
:10150A0092C3EF6480948250028001C350037F002B
:10151A002290069EE06041C2EDC2EFD2EDE4900651
:10152A00D6F09006D3E0FBA3E0FAA3E0F9E475F065
:10153A00781205929006D6E070037F0122D2EFE47A
:10154A0090069EF09006D3E0FBA3E0FAA3E0F9E44C
:10155A00F5F01205927F0022C2EDD2EFD2EDE490AF
:10156A0006D6F09006D3E0FBA3E0FAA3E0F9E4750F
:10157A00F0851205929006D6E070037F0122C2EF31
:10158A00900681E04401F0E49006A3F0A3F09006EF
:10159A00D3E0FBA3E0FAA3E0F9E475F08B1205921D
:1015AA007A0679819006DA7401F0A37406F0A374BE
:1015BA0081F0A37401F0FB7A0679A3123592C3EF86
:1015CA006480948250028001C350037F00229006F7
:1015DA009EE06041C2EDC2EFD2EDE49006D6F090F3
:1015EA0006D3E0FBA3E0FAA3E0F9E475F093120551
:1015FA00929006D6E070037F0122D2EFE490069E15
:10160A00F09006D3E0FBA3E0FAA3E0F9E4F5F012C8
:10161A0005927F0022E490069FF0A3F09006D3E0A3
:10162A00FBA3E0FAA3E0F9E475F09B1205927A06AF
:10163A0079929006DA7401F0A37406F0A37492F01A
:10164A00900683E09006DDF07B017A06799F123AD4
:10165A0065C3EF6480948250028001C350037F0007
:10166A002290069EE06041C2EDC2EFD2EDE4900600
:10167A00D6F09006D3E0FBA3E0FAA3E0F9E475F014
:10168A00A21205929006D6E070037F0122D2EFE4FF
:10169A0090069EF09006D3E0FBA3E0FAA3E0F9E4FB
:1016AA00F5F01205927F0022C2EDC2EFD2EDE4906E
:1016BA0006D6F09006D3E0FBA3E0FAA3E0F9E475BE
:1016CA00F0AE1205929006D6E070037F0122D2EFA7
:1016DA00E49006A7F0A3F09006D3E0FBA3E0FAA3F8
:1016EA00E0F9E475F0B31205927B017A0679A71244
:1016FA00421FC3EF6480948250028001C350037F6B
:10170A000022900702E004F07006900701E004F05E
:10171A000213FEE49006D6F09006D3E0FBA3E0FAAB
:0B172A00A3E0F9E4F5F01205927F0344
:011735002291
:0B3A65009006D7EBF0A3EAF0A3E9F015
:103A70009006DE7401F012052FFFAEF0E5F0600352
:103A8000023B5CEF2436604224E47003023B452491
:103A9000E66003023B5CE490067BF09006DDE0FF0D
:103AA00090067BE0C39F4003023B55E490067DF007
:103AB000C2EEC2ED9006DEF09006D7E0FBA3E0FA7E
:103AC000A3E0F9E475F0CA1205929006DEE07003F7
:103AD0007F0122E490067CF0D2ED90067DE0FF2588
:103AE000E0FFA2ECE4334FF0C2ED90067CE004F07E
:103AF000E0B408E490067DE0FF9006DAE0FBA3E086
:103B0000FAA3E0F990067BE0F582758300EF1204DA
:103B1000E190067BE004F0D2EE9006DDE0FF900637
:103B20007BE0C39F5004C2EF8002D2EFD2EDE4905D
:103B300006DEF09006D7E0FBA3E0FAA3E0F9E47517
:103B4000F0E61205929006DEE070037F0122C2EDDE
:103B5000C2EE023A9BD2EEE490069EF0E49006DEBE
:103B6000F09006D7E0FBA3E0FAA3E0F9E4F5F01249
:043B700005927F0338
:013B7400222E
:0B3592009006D7EBF0A3EAF0A3E9F0ED
:10359D009006DE7401F012052F12076035C1000090
:1035AD00361200FF364401073675010E36980110AC
:1035BD00000036CAD2EEE490067EF09006DDE0FF04
:1035CD0090067EE0C39F40030236C59006DAE0FB0D
:1035DD00A3E0FAA3E0F990067EE0F5827583001270
:1035ED00046F900680F090067EE004F0C2EDE4904A
:1035FD0006DEF09006D7E0FBA3E0FAA3E0F9E47550
:10360D00F0FF1205929006DEE070037F0122E49038
:10361D00067FF0900680E0FF25E0F092EFD2EDE41A
:10362D009006DEF09006D7E0FBA3E0FAA3E0F97474
:10363D000175F0071205929006DEE070037F0122FE
:10364D00C2ED90067FE004F0E0B408C7C2EEC2ED13
:10365D00E49006DEF09006D7E0FBA3E0FAA3E0F9D4
:10366D00740175F00E1205929006DEE070037F0175
:10367D0022D2EDE49006DEF09006D7E0FBA3E0FA4F
:10368D00A3E0F9740175F0101205929006DEE0705A
:10369D00037F0122C2EDD2EE20EC030235C8900665
:1036AD009E7401F09006D7E0FBA3E0FAA3E0F9E4E5
:1036BD00F5F01205927F0222E490069EF0E490064A
:1036CD00DEF09006D7E0FBA3E0FAA3E0F9E4F5F015
:0536DD001205927F03BD
:0136E20022C5
:0B421F009006D7EBF0A3EAF0A3E9F053
:10422A00A37401F012052FFFAEF060030242CCEE38
:10423A0060030242CC7E067F927D0A12522F9006BC
:10424A009CE06F7079900692E0FCA3E0FDA3E0FE8B
:10425A00A3E0FF9004971206F1900696E0602214FC
:10426A00704C900697E0FEA3E0FFE4FCFD9004B0DA
:10427A001206F19004AD7401F09004DD740DF08023
:10428A002D900697E0FEA3E0FFE4FCFD9004B01237
:10429A0006F1900699E0FEA3E0FFE4FCFD9004C954
:1042AA001206F1E49004ADF09004DD740EF0900271
:1042BA006EE0FF90069BE0FEEF4E90026EF0E4780F
:1042CA000CF6E49006DAF09006D7E0FBA3E0FAA336
:0A42DA00E0F9E4F5F01205927F030D
:0142E40022B7
:054468009006D7EFF003
:10446D009006DC1206FD000000009006D8E0FCA3CB
:10447D00E0FDA3E0FEA3E0FFE41202A19006D7E069
:10448D0075F019A4248DF582E5F03403F583E0F879
:10449D00A3E0F9A3E0FAA3E0FB12012E9006D7E00A
:1044AD0075F019A42491F582E5F03403F583E0F855
:1044BD00A3E0F9A3E0FAA3E0FB12003D9006DC12A5
:1044CD0006F17FFF7EFF7D7F7C4B9006DCE0F8A33D
:1044DD00E0F9A3E0FAA3E0FB120234600A4008748D
:1044ED00FFFFFEFD7C0022E4FFFEFDFC9006DCE0FC
:1044FD00F8A3E0F9A3E0FAA3E0FB1202345006E4BE
:10450D00FFFEFDFC229006DCE0FCA3E0FDA3E0FE37
:06451D00A3E0FF1202DF23
:014523002275
:10484F00E49006D3F0A31206FD000000009006D8F6
:10485F001206FD00000000E49006D3F09006D3E0AE
:10486F00FFC3940E5030EF75F019A4248CF9740324
:10487F0035F0FA7B01E075F003A42450FEE435F027
:10488F009006E1F0A3CEF07D037C0012414090062C
:10489F00D3E004F080C6124FA6E4FCFDFE9006D8CC
:1048AF001206F17B017A0679D49006E1E4F0A37445
:1048BF00A1F07D017C001241409006D4E0FCA3E002
:1048CF00FDA3E0FEA3E0FFA3E0F8A3E0F9A3E0FA65
:0C48DF00A3E0FBC31206BA600312504CA9
:0148EB0022AA
:0545D2009006D3EFF09C
:1045D7009006DC1206FD000000009006D4E0FCA364
:1045E700E0FDA3E0FEA3E0FF9006D3E0FB75F01922
:1045F700A4248DF582E5F03403F5831206F19006C5
:10460700D8E0FCA3E0FDA3E0FEA3E0FF75F019EB03
:10461700A42491F582E5F03403F5831206F1EB75D6
:10462700F019A4248CF9740335F0FA7B019006D3B2
:10463700E075F003A42450FEE435F09006ECF0A3F7
:10464700CEF07D037C0012405D124FA6E4FCFDFE18
:104657009006DC1206F17B017A0679DC9006ECE421
:0C466700F0A374A1F07D017C0012405D06
:014673002224
:104FA600E49006E7F0A3F0A3F09006E8F0E490069C
:104FB600E9F09006E8E075F019A4248CF97403353D
:104FC600F0FA7B01A3E07E0029F9EE3AFA120456C4
:104FD600FF9006E7E06F903D87939006E7F0900616
:104FE600E9E004F0E0B40CCA9006E8E004F0E0B4AE
:074FF6000EBB9006E7E0FF8F
:014FFD002291
:0942E5009006E1EFF0A3EDF0FBFF
:1042EE00A31206FD00000000EB640170439006E18E
:1042FE00E0FF75F019A4248CF582E5F03403F58304
:10430E007401F0EF75F019A4248CF9740335F0FAEA
:10431E007B019006E1E075F003A42450FEE435F035
:10432E009006ECF0A3CEF07D037C0012405D80463B
:10433E009006E2E070409006E1E0FF75F019A424CB
:10434E008CF582E5F03403F583E4F0EF75F019A4F3
:10435E00248CF9740335F0FA7B019006E1E075F0D8
:10436E0003A42450FEE435F09006ECF0A3CEF07DCD
:10437E00037C0012405D124FA6E4FCFDFE9006E3A6
:10438E001206F17B017A0679E39006ECE4F0A37451
:09439E00A1F07D017C0012405DDC
:0143A70022F3
:10504C00E49006DCF0A31206FD00000000E49006DC
:10505C00DCF09006DCE0FFC3940E500DE4FD124230
:10506C00E59006DCE004F080E9124FA6E4FCFDFEBE
:10507C009006DD1206F17B017A0679DD9006ECE4F0
:0C508C00F0A374A1F07D017C0012405DD7
:0150980022F5
:101A7A004106CE004106AB004106AC004106AD006E
:0B1DDC009006D3EBF0A3EAF0A3E9F0BF
:051DE700E49006F4F099
:101DEC009006D604F012052FFFAEF0E5F06003026A
:101DFC0020F3EF24ED603724F67003021EB824F5AF
:101E0C007003021F2224F4700302200A243460039E
:101E1C000220F39006D3E0FBA3E0FAA3E0F99000D4
:101E2C0002E4F5F01205B1E475F013120592900678
:101E3C00D3E0FBA3E0FAA3E0F990000212055AC329
:101E4C009401E5F094004003D38001C340037F006C
:101E5C00229006CEE075F026A42405F582E5F03438
:101E6C0005F583E0706A9006ABF09006CEE075F055
:101E7C0026A42405F582E5F03405F583E070369050
:101E8C0006ABE06408602E9006CEE0045407F09098
:101E9C0006ABE004F0E49006D6F09006D3E0FBA38A
:101EAC00E0FAA3E0F9E475F01D1205929006D6E075
:101EBC0070B87F01229006ABE0B408149006D3E012
:101ECC00FBA3E0FAA3E0F9E4F5F01205927F0022FF
:101EDC009006CEE075F026A424E0F9740435F0FAEF
:101EEC007B01EAC0E0E9C0E07A0679AE78AE7C0608
:101EFC007D01D0E0F9D0E0FA7E007F20120430E4BE
:101F0C009006D6F09006D3E0FBA3E0FAA3E0F9E448
:101F1C0075F0281205929006D6E070037F0122908E
:101F2C0006AC7407F0E49006ADF09006ACE0FFA3AD
:101F3C00E0C39F400302201CE025E025E024B2F51D
:101F4C0082E43406F583E0FCA3E0FDA3E0FEA3E00D
:101F5C00FF9006ADE025E025E024AEF582E43406E2
:101F6C00F583E0F8A3E0F9A3E0FAA3E0FBD31206B3
:101F7C00BA40749006ADE025E025E024AEF582E48D
:101F8C003406F583E0FCA3E0FDA3E0FEA3E0FF90A4
:101F9C0006CF1206F19006ADE025E025E024B2F55F
:101FAC0082E43406F583E0FCA3E0FDA3E0FEA3E0AD
:101FBC00FF9006ADE025E025E024AEF582E4340682
:101FCC00F5831206F19006CFE0FCA3E0FDA3E0FE42
:101FDC00A3E0FF9006ADE025E025E024B2F582E415
:101FEC003406F5831206F1E49006D6F09006D3E0A1
:101FFC00FBA3E0FAA3E0F9E475F034120592900625
:10200C00D6E070037F01229006ADE004F0021F368B
:10201C009006ACE014F0E06003021F319006BEE0C5
:10202C00FCA3E0FDA3E0FEA3E0FF9006BAE0F8A35A
:10203C00E0F9A3E0FAA3E02FFFEA3EFEE93DFDE85C
:10204C003CFC78011206CB9006CEE075F019A42466
:10205C0084F582E5F03403F5831206F19006CEE0A8
:10206C0075F019A4248CF582E5F03403F583E06057
:10207C00409006CEE075F019A42484F582E5F03486
:10208C0003F583E0FCA3E0FDA3E0FEA3E0FF9006D4
:10209C00D81206F19006CEE0FF1244689006CEE00E
:1020AC0075F019A42488F582E5F03403F583120643
:1020BC00F19006CEE075F026A42405F582E5F03407
:1020CC0005F583E4F09006F6E004F070069006F552
:1020DC00E004F09006D3E0FBA3E0FAA3E0F9E4F50A
:1020EC00F01205927F0022E49006D6F09006D3E021
:0F20FC00FBA3E0FAA3E0F9E4F5F01205927F03ED
:01210B0022B1
:1053000053890F438910758D8A758BD0D2ABD28E9D
:01531000227A
:103D870000BC01BD02BE03BF04B805B906BA07BB34
:103D970008B409B50AB60BB70CB00DB10EB20FB324
:103DA70010AC11AD12AE13AF14A815A916AA17AB14
:103DB70018A419A51AA61BA71CA01DA11EA21FA304
:103DC700209C219D229E239F24982599269A279BF4
:103DD700289429952A962B972C902D912E922F93E4
:103DE700308C318D328E338F34883589368A378BD4
:103DF700388439853A863B873C803D813E823F83C4
:103E070040FC41FD42FE43FF44F845F946FA47FBB3
:103E170048F449F54AF64BF74CF04DF14EF24FF3A3
:103E270050EC51ED52EE53EF54E855E956EA57EB93
:103E370058E459E55AE65BE75CE05DE15EE25FE383
:103E470060DC61DD62DE63DF64D865D966DA67DB73
:103E570068D469D56AD66BD76CD06DD16ED26FD363
:103E670070CC71CD72CE73CF74C875C976CA77CB53
:103E770078C479C57AC67BC77CC07DC17EC27FC343
:10522F00E4FCCBEDCB1DEB60160FEFCAEECA70019D
:10523F000E14F5828A83E06C903D8793FC80E3CF58
:02524F00ECCFA2
:01525100223A
:0C1A8A0041072F004107300041073100E8
:104AA5009006D3EBF0A3EAF0A3E9F0A3ECF0A3EDB5
:014AB500F010
:104AB600E4A3F09006D6E07002A3E060529006D31D
:104AC600E0FBA3E475F001120519A9F0FA120456E9
:104AD600FF1251E1EFC454F0FEEEC0E09006D3E0C1
:104AE600FBA3E475F001120519A9F0FA120456FFAA
:104AF6001251E1D0E04FFF9006D8E02FF0E0F090A1
:104B060006D7E024FEF09006D6E034FFF080A490AD
:074B160006D8E0F404FFF0F3
:014B1D002275
:1051E100CEEFCEEEC39430400CEED394395006C3CB
:1051F100EE9430FF22EEC39441400BEED39446501F
:0952010005EE24C9FF227FFF2203
:10520A00CEEFCEEED394095005EE2430FF22EEC342
:10521A00940A400BEED3940F5005EE2437FF227FF9
:05522A00FF227F30228D
:1050990090000112046FFF1251E1CDEFCD120456B9
:1050A900FF1251E1EFC454F04D9006D3F090000285
:1050B90012046FFF1251E1EFC454F0FD9000031286
:1050C900046FFF1251E1EF4D9006D4F09006D3E042
:0450D900FEA3E0FF53
:0150DD0022B0
:1052700090000112046FFF1251E1CDEFCD120456E0
:0A528000FF1251E1EFC454F04DFF9E
:01528A002201
:104FFE00900759EEF0A3EFF0900759E0540FFF120F
:10500E00520A900001EF1204E1900759E0FFC454D8
:10501E000FFF12520AEF1204CF90075AE0540FFFFF
:10502E0012520A900003EF1204E190075AE0FFC4F7
:0D503E00540FFF12520A900002EF1204E11D
:01504B002242
:10525200CDEFCDEDC4540FFF12520AEF1204CFED81
:0E526200540FFF12520A900001EF1204E122D5
:104A1C0090000112046FFF1251E1CDEFCD1204563C
:104A2C00FF1251E1EFC454F04D90074DF09000028D
:104A3C0012046FFF1251E1EFC454F0FD9000031209
:104A4C00046FFF1251E1EF4D90074EF090000412ED
:104A5C00046FFF1251E1EFC454F0FD9000051204F5
:104A6C006FFF1251E1EF4D90074FF09000061204CA
:104A7C006FFF1251E1EFC454F0FD90000712046F68
:104A8C00FF1251E1EF4D900750F090074DE0FCA361
:084A9C00E0FDA3E0FEA3E0FF32
:014AA40022EF
:104D57009006D31206F19006D7EBF0A3EAF0A3E989
:014D6700F05B
:104D6800E4A3F09006D3E0FCA3E0FDA3E0FEA3E0FB
:104D7800E4FFFEFDEC54F0FC781C1206CB12520A3C
:104D8800A3E0FBA3E0FAA3E0F9A3E0F582758300B2
:104D9800EF1204E19006D3E0FCA3E0FDA3E0FEA33C
:104DA800E0FF78041206DE9006D31206F19006DAC8
:094DB800E004F0E0C3940840AAF5
:014DC10022CF
:101A9700E4900730F07B017A00795712509990074C
:101AA70032EEF0A3EFF07A00795B12509990073489
:101AB700EEF0A3EFF0900732E0FEA3E0FFC3EE9451
:101AC700105003021DD3D3EF941CEE941040030271
:101AD7001DD3900735E0941C900734E09400400331
:101AE700021DD3900160743AF0900730E004F09043
:101AF700004AE0FF7A017961125252900730E024E0
:101B070002F07A0179637F03125252900730E02482
:101B170002F0E02402F0900732E0A3E090072FF0F4
:101B2700900734E0FEA3E0FF900733E02FFF900714
:101B370032E03EFEE42FFFEE34F0C313FEEF13FF57
:101B470090072FE0FDC39FE49E4003021D6675F0DA
:101B570019EDA42480F582E5F03403F583E01470D1
:101B670003021C96147003021CDF24026003021D8B
:101B77005690072FE0FF75F019A42481F582E5F050
:101B87003403F583E024FD7003021C1B2403600368
:101B9700021D5675F019EFA4248CF582E5F0340385
:101BA700F583E0B4013790072FE075F019A4248876
:101BB700F582E5F03403F583E0FCA3E0FDA3E0FE46
:101BC700A3E0FF78081206CB900730E07A00246084
:101BD700F9EA3401FA7B01124D57021D5690072F7F
:101BE700E075F019A42484F582E5F03403F583E069
:101BF700FCA3E0FDA3E0FEA3E0FF78081206CB906C
:101C07000730E07A002460F9EA3401FA7B01124DCB
:101C170057021D5690072FE0FF75F019A4248CF585
:101C270082E5F03403F583E0B4012F75F019EFA4D2
:101C37002488F582E5F03403F583E0FCA3E0FDA3F7
:101C4700E0FEA3E0FF900730E07A002460F9EA3471
:101C570001FA7B01124D57021D5690072FE075F0D0
:101C670019A42484F582E5F03403F583E0FCA3E0AE
:101C7700FDA3E0FEA3E0FF900730E07A002460F9BF
:101C8700EA3401FA7B01124D57021D56021D569088
:101C9700072FE0FF75F019A42481F582E5F03403DE
:101CA700F583E06003021D5675F019EFA42484F54F
:101CB70082E5F03403F583E0FCA3E0FDA3E0FEA397
:101CC700E0FF900730E07A002460F9EA3401FA7BFC
:101CD70001124D578079807790072FE0FF75F01933
:101CE700A42481F582E5F03403F583E01460310420
:101CF700705D75F019EFA42484F582E5F03403F5DF
:101D070083E0FCA3E0FDA3E0FEA3E0FF900730E043
:101D17007A002460F9EA3401FA7B01124D57802FCB
:101D270090072FE075F019A42484F582E5F03403B9
:101D3700F583E0FCA3E0FDA3E0FEA3E0FF900730FE
:101D4700E07A002460F9EA3401FA7B01124D5790DA
:101D57000730E02408F090072FE004F0021B2790DB
:101D67000730E024F9FFC313FF7B017A017965127D
:101D770052527A017961900730E024FFFDE434FF85
:101D8700FC124AA5900731EFF0E0FF900730E07CA6
:101D9700002460F9EC3401FA7B01125252900730AB
:101DA700E02402F0E02460F582E43401F583740D49
:101DB700F0900730E004F0E02460F582E43401F5A8
:101DC70083740AF0900730E004F080037F002290CC
:041DD7000730E0FFF2
:011DDB0022E5
:1000360002034BE86480F8E933E83360110460F0AA
:10004600ED33EC337009E8FCE9FDEAFEEBFF220430
:1000560060DED3EB9FEA9EE99DE8C2E78CF0C2F72B
:1000660095F0400CE8CCF8E9CDF9EACEFAEBCFFBF7
:1000760012031685D0F05804700320D5B3E8047037
:10008600075002B2D502035592D5EC0460F7E4CCD2
:10009600C0E0C398F8603B94186008400DD0E0FBC0
:1000A60002032DE4FBFAC9FC8028E830E406E4C923
:1000B600FBE4CAFCE830E305E4C9CACBFCE8540714
:1000C6006010F8C3E913F9EA13FAEB13FBEC13FC1F
:1000D600D8F130F52FC3E49CFCEF9BFFEE9AFEEDC2
:1000E60099FDD0E0FBEF4E4D4C701222DB0302036C
:1000F60052EC2CFCEF33FFEE33FEED33FDED30E733
:10010600EB02032DEF2BFFEE3AFEED39FDD0E0FBBF
:1001160050130BBB0003020355ED13FDEE13FEEF68
:0801260013FFEC13FC02032D92
:10012E00EC4D6011E8497017ED33EC3304600DE4CB
:10013E00FCFFFEFD22E933E8330470F802034B1294
:10014E00031658046009E4CC248150062850090295
:10015E000355284003020352C0E0EB4A7044B980B5
:10016E0006D0E0FB020341EF4E701CBD8008EBFF92
:10017E00EAFEE9FD80EBE98DF0A4FEE5F002021740
:10018E00E9CDF9EAFEEBFFEF89F0A4FCE5F0CE89AC
:10019E00F0A42EFFE435F0CD89F0A42DFEE435F069
:1001AE008067EF4E7005BD80D780C3EF8BF0A4AC97
:1001BE00F0EE8BF0A42CFCE435F0F8EF8AF0A42CD2
:1001CE00E5F038FCE433CB8DF0A42CFCE5F03BF8E5
:1001DE00EE8AF0A42CFCE5F038F8E433CF89F0A4D5
:1001EE002CFCE5F038CF3400CE89F0A42FFFE5F0DB
:1001FE003EFEE433C98DF0A42EFEE5F039CD8AF033
:10020E00A42FFFE5F03EFEE43DFD33D0E0FB5007AA
:10021E000BBB000F020355EC2CFCEF33FFEE33FE4D
:06022E00ED33FD02032D7B
:1002340074F8CC6480CCC86480C8F582046043C37D
:10024400EB9FF5F0EA9E42F0E99D42F0E89C45F010
:1002540060305018E5825FFFE582F42B5582FB5035
:10026400210ABA001D09B90019088016E5825BFB52
:10027400E582F42F5582FF50090EBE00050DBD0026
:10028400010CC3EB9FF5F0EA9E42F0E99D42F0E8D1
:0D0294009C45F06007CC4820E701B3EC2248
:1002A10075F020800E75F010800575F0087D007ED8
:1002B100007F003392D530D5031206ACEC334010E9
:1002C100EF33FFEE33FEED33FDEC33FCD5F0ED22E1
:0E02D100E5F0247EA2D513CC92E7CDCEFF221D
:1002DF00EDD2E7CD33EC3392D524814006E4FFFE17
:1002EF00FDFC22FCE4CFCECDCC24E0501174FF8076
:1002FF00EDC3CC13CCCD13CDCE13CECF13CF047013
:07030F00F030D5DE0206AC60
:10031600E9D2E7C933E833F892D5EDD2E7CD33EC2D
:0703260033FC5002B2D522A6
:10032D00EC30E7100FBF000C0EBE00080DBD000431
:10033D000BEB6014A2D5EB13FCED92E7FD2274FFDD
:10034D00FCFDFEFF22E480F8A2D574FF13FC7D8036
:03035D00E480EF4A
:1047CF00024674E493A3F8E493A34003F68001F246
:1047DF0008DFF48029E493A3F85407240CC8C333EB
:1047EF00C4540F4420C8834004F456800146F6DFBA
:1047FF00E4800B0102040810204080901736E47EFD
:10480F00019360BCA3FF543F30E509541FFEE493AE
:10481F00A360010ECF54C025E060A840B8E493A375
:10482F00FAE493A3F8E493A3C8C582C8CAC583CAA0
:10483F00F0A3C8C582C8CAC583CADFE9DEE780BE58
:011A9600004F
:10036000E709F608DFFA8046E709F208DFFA803E7F
:1003700088828C83E709F0A3DFFA8032E309F6086C
:10038000DFFA8078E309F208DFFA807088828C83D4
:10039000E309F0A3DFFA806489828A83E0A3F60888
:1003A000DFFA805889828A83E0A3F208DFFA804C62
:1003B00080D280FA80C680D4806980F28033801039
:1003C00080A680EA809A80A880DA80E280CA8033A2
:1003D00089828A83ECFAE493A3C8C582C8CCC5831A
:1003E000CCF0A3C8C582C8CCC583CCDFE9DEE780EA
:1003F0000D89828A83E493A3F608DFF9ECFAA9F069
:10040000EDFB2289828A83ECFAE0A3C8C582C8CCBE
:10041000C583CCF0A3C8C582C8CCC583CCDFEADED7
:10042000E880DB89828A83E493A3F208DFF980CC39
:1004300088F0EF60010E4E60C388F0ED2402B40432
:100440000050B9F582EB2402B4040050AF232345D9
:0604500082239003B0734B
:10045600BB010689828A83E0225002E722BBFE02A4
:09046600E32289828A83E49322D7
:10046F00BB010CE58229F582E5833AF583E0225042
:10047F0006E92582F8E622BBFE06E92582F8E2228C
:0D048F00E58229F582E5833AF583E49322A6
:10049C00BB010FF8E58229F582E5833AF583E02864
:1004AC00F0225009C58229F8E58226F622BBFE0906
:1004BC00C58229F8E22582F222F8EA2583F583E940
:0304CC0093282250
:1004CF00BB010689828A83F0225002F722BBFE010C
:0204DF00F32206
:1004E100F8BB010DE58229F582E5833AF583E8F051
:1004F100225006E92582C8F622BBFE05E92582C8FD
:02050100F222E4
:10050300C5F0F8A3E028F0C5F0F8E5821582700283
:060513001583E038F02220
:10051900A3F8E0C5F025F0F0E58215827002158395
:06052900E0C838F0E822F2
:10052F00BB010A89828A83E0F5F0A3E02250068797
:10053F00F009E71922BBFE07E3F5F009E319228959
:0B054F00828A83E493F5F0740193228C
:10055A00BB0110E58229F582E5833AF583E0F5F0DF
:10056A00A3E0225009E92582F886F008E622BBFEBC
:10057A000AE92582F8E2F5F008E222E5832AF58302
:08058A00E993F5F0A3E99322C7
:10059200BB010A89828A83F0E5F0A3F0225006F7B4
:0F05A20009A7F01922BBFE06F3E5F009F31922B1
:1005B100F8BB0111E58229F582E5833AF583E8F07C
:1005C100E5F0A3F0225009E92582C8F608A6F02239
:0D05D100BBFE09E92582C8F2E5F008F22220
:1005DE0075F008758200EF2FFFEE33FECD33CDCCD4
:1005EE0033CCC58233C5829BED9AEC99E582984057
:1005FE000CF582EE9BFEED9AFDEC99FC0FD5F0D634
:10060E00E4CEFBE4CDFAE4CCF9A88222B800C1B95D
:10061E000059BA002DEC8BF084CFCECDFCE5F0CB9B
:10062E00F97818EF2FFFEE33FEED33FDEC33FCEBD4
:10063E0033FB10D703994004EB99FB0FD8E5E4F98F
:10064E00FA227818EF2FFFEE33FEED33FDEC33FC7C
:10065E00C933C910D7059BE99A4007EC9BFCE99A70
:10066E00F90FD8E0E4C9FAE4CCFB2275F010EF2FB5
:10067E00FFEE33FEED33FDCC33CCC833C810D707B5
:10068E009BEC9AE899400AED9BFDEC9AFCE899F8F0
:0E069E000FD5F0DAE4CDFBE4CCFAE4C8F92283
:1050DE00C2D5E830E70FB2D5E4C39BFBE49AFAE4FD
:1050EE0099F9E498F8EC30E717B2D512511412067C
:1050FE001AE4C39BFBE49AFAE499F9E498F8800366
:10510E0012061A30D50DE4C39FFFE49EFEE49DFD0A
:04511E00E49CFC22EF
:0E06AC00C3E49FFFE49EFEE49DFDE49CFC225F
:1006BA00EB9FF5F0EA9E42F0E99D42F0E89C45F096
:0106CA00220D
:1006CB00E8600FECC313FCED13FDEE13FEEF13FF0D
:0306DB00D8F12231
:1006DE00E8600FEFC333FFEE33FEED33FDEC33FC7A
:0306EE00D8F1221E
:0C06F100ECF0A3EDF0A3EEF0A3EFF0227C
:1006FD00A8828583F0D083D08212071412071412BA
:10070D000714120714E473E493A3C583C5F0C583DE
:10071D00C8C582C8F0A3C583C5F0C583C8C582C846
:01072D0022A9
:0C072E00A42582F582E5F03583F58322D6
:10073A00D083D082F8E4937012740193700DA3A34E
:10074A0093F8740193F5828883E473740293686062
:06075A00EFA3A3A380DF62
:10076000D083D082F8E4937012740193700DA3A328
:1007700093F8740193F5828883E473740293B5F05F
:0D078000067403936860E9A3A3A3A380D8C7
:00000001FF
