:10443800C2AF53D7F91246131246B0124F1F12508B
:10444800C4124F4F1250A112416C7F72124EE612E5
:10445800504FE490070AF0A3F090070EF0A3F090F5
:104468000712F0A3F0900716F0A3F0D2AF780C76FD
:10447800139006DB04F0A3F0A37406F0A37492F083
:10448800A3740BF07B007A00790C7F58124F7C7B69
:10449800017A0279701219E77B017A07790A1242C8
:1044A800E87B017A07790E12263F7B017A07791299
:1044B800121D437B017A0779161212FA7B017A07DB
:1044C80079061239397B017A027974120B8780BF19
:0144D80022C1
:1042E8009006D3EBF0A3EAF0A3E9F0E49006FAF025
:1042F8009006D604F012052FFFAEF0E5F07076EFC9
:1043080024A9601F2457706D9006D3E0FBA3E0FA40
:10431800A3E0F9900002E4F5F01205B1E475F05756
:104328001205929006D3E0FBA3E0FAA3E0F990000F
:104338000212055AC3940FE5F094004003D380019C
:10434800C340037F00229006DB7401F0A3F0A3743E
:1043580006F0A37492F0A3740BF07B007A00790C3A
:104368007F58124F7C9006FCE004F070069006FB24
:10437800E004F08093E49006D6F09006D3E0FBA327
:0D438800E0FAA3E0F9E4F5F01205927F03DE
:014395002205
:03001B00024B860F
:104B8600C0E0C083C082758D8A758BD090070DE01A
:104B960004F0700690070CE004F0900711E004F0B2
:104BA6007006900710E004F0900715E004F0700618
:104BB600900714E004F0900273E004F0700690028F
:104BC60072E004F0900709E004F07006900708E030
:104BD60004F0900277E004F07006900276E004F0AC
:074BE600D082D083D0E03241
:1050A100759E82759D2D759852D2ACC299C298D2C7
:0250B100BC221F
:104F4F0075D10075D20075E60043D28043D220435D
:104F5F00D20753E6F043E6401244D97F031250EBD9
:0D4F6F007F647E00125065D2AE43D1202237
:030033000235E7AC
:1035E700C0E0C0F0C083C082C0D0EEC0E0EFC0E052
:1035F700E5E654079004DEF0E0FF75F026A424000A
:10360700F582E5F03405F583E09004DFF075F026E8
:10361700EFA424E0F582E5F03404F583C083C0828B
:103627009004DFE0FFD082D08375F00412072EE408
:10363700F09004DEE0FE75F026A424E1F582E5F0C3
:103647003404F58375F004EF12072EE5DBF075F00F
:1036570026EEA424E2F582E5F03404F583C083C0A6
:10366700829004DFE0FFD082D08375F00412072E2A
:10367700E5DAF09004DEE0FE75F026A424E3F58297
:10368700E5F03404F58375F004EF12072EE5D9F061
:103697009004DFE0045407FF75F026EEA42400F53C
:1036A70082E5F03405F583EFF09004DEE0FF75F076
:1036B70026A42405F582E5F03405F5837401F0EFBF
:1036C700045407FFE5E654F04FF5E6E5E6540775C1
:1036D700F019A42482F582E5F03403F583E064074A
:1036E7005407FFE5D254F84FF5D2E5E6540775F0D5
:1036F70019A42483F582E5F03403F583E0F5D4C2F9
:01370700DFE2
:10370800D0E0FFD0E0FED0D0D082D083D0F0D0E09F
:01371800327E
:0750EB0053D1F8EF42D1227E
:10506500CBEFCBCAEECAE4F9F87F557E05FDFC12FD
:055075004EA28FD422C1
:1044D900E49006D3F0A3F09006D3F09006D3E0FF62
:1044E900C39408400302457575F026EFA42400F52E
:1044F90082E5F03405F583E4F075F026EFA4240392
:10450900F582E5F03405F583E4F075F026EFA4248F
:1045190004F582E5F03405F5837420F075F026EF93
:10452900A42405F582E5F03405F583E4F09006D47A
:10453900F09006D4E0FFC3940850289006D3E075A4
:10454900F026A424E0F582E5F03404F58375F0043F
:10455900EF12072E1206FD000000009006D4E004B9
:0C456900F080CE9006D3E004F00244E4A1
:014575002223
:083E21009006EAECF0A3EDF0BD
:103E2900E49006EEF0A3F0A3F09006EAE0FEA3E02A
:103E3900FF9006EDE02F9006ECE03EC394044004A9
:103E4900E4FEFF22E49006EEF0A3F09006EAE0FE1D
:103E5900A3E0FFC39006EFE09F9006EEE09E4003CB
:103E6900023EFBA2AFE4339006F0F0C2AF9006EE3B
:103E7900E0FEA3E07802C333CE33CED8F9FFF58252
:103E89008E8312046FF5BC8F828E83A312046FF5A3
:103E9900BD9006EEE0FEA3E07802C333CE33CED860
:103EA900F9FFF5828E83A3A312046FF5BE8F828E6C
:103EB90083A3A3A312046FF5BF9006ECE0FEA3E071
:103EC900FF8EC78FC675B90575B9029006F0E02453
:103ED900FF92AF9006EDE004F070069006ECE00466
:103EE900F09006EFE004F070069006EEE004F002B0
:0A3EF9003E549006EEE0FEA3E0FF49
:013F0300229B
:083F04009006DFECF0A3EDF0E4
:103F0C00E49006E3F0A3F0A3F09006DFE0FEA3E05C
:103F1C00FF9006E2E02F9006E1E03EC394044004DB
:103F2C00E4FEFF22E49006E3F0A3F09006DFE0FE4F
:103F3C00A3E0FFC39006E4E09F9006E3E09E4003FD
:103F4C00023FDAA2AFE4339006E5F0C2AF9006E18F
:103F5C00E0FEA3E0FF8EC78FC675B901A3E0FCA3FA
:103F6C00E0FDCEECCE7802C333CE33CED8F9FFF5DC
:103F7C00828E83E5BC1204E18F828E83A3E5BD1291
:103F8C0004E1EDCEECCE7802C333CE33CED8F9FFBC
:103F9C00F5828E83A3A3E5BE1204E18F828E83A3E8
:103FAC00A3A3E5BF1204E19006E5E024FF92AF90D5
:103FBC0006E2E004F070069006E1E004F09006E4FE
:103FCC00E004F070069006E3E004F0023F37900640
:063FDC00E3E0FEA3E0FF9C
:013FE20022BC
:104EE600E4FE8F0AD2C0850AC0EE75F003A424F250
:104EF600F582E43406F583E4F0A3F0EE75F003A43E
:104F060024F1F582E43406F5837401F00EEEB4075D
:084F1600D8E4900706F0A3F0B7
:014F1E002270
:0A50E100C2AFD2C0850AC0D2AF22D0
:0B3939009006D3EBF0A3EAF0A3E9F046
:09394400E4A3F0A3F09006F7F0F3
:10394D009006D804F09006D3E0FBA3E0FAA3E0F9CB
:10395D0012052FFFAEF0E5F06003023A2DEF24C300
:10396D006022243D6003023A2D9006D3E0FBA3E0D4
:10397D00FAA3E0F9900002E4F5F01205B1E475F058
:10398D003D1205929006D3E0FBA3E0FAA3E0F99077
:10399D00000212055AC39464E5F094004003D380ED
:1039AD0001C340037F0022E49006D7F09006F9E0B2
:1039BD0004F070069006F8E004F0E49006D6F0905E
:1039CD0006D6E075F003A424F1F582E43406F58300
:1039DD00E0FF9006D6E075F003A424F2F582E434FE
:1039ED0006F583E0FEA3E04F4E70079006D704F076
:1039FD00801F9006D6E075F003A424F2F582E4341E
:103A0D0006F583E4F0A3F09006D6E004F0E0B407E9
:103A1D00AE9006D7E060030239761250E102397696
:103A2D00E49006D8F09006D3E0FBA3E0FAA3E0F90A
:083A3D00E4F5F01205927F038D
:013A4500225E
:101686005400063C3C7555534F5F323E3E00000009
:10169600000000000000006028001A3C2D2D2047A5
:1016A600454F5350484552415F32303132202D2D3F
:1016B6003E000000000000000000000000000000E6
:1016C6000000004800423030303031000000410058
:1016D6004A0141004B1441004C0041005100610E8B
:1016E60000520000000000000000000000000000A2
:1016F60000000000000000000000000000000000E4
:1017060000000000000000000000000000000000D3
:1017160000000000000000000000000000000000C3
:1017260000000000000000000000000000000000B3
:1017360000000000000000000000000000000000A3
:101746000000000000000000000000000000000093
:101756000000000000000000000000000000000083
:101766000000000000000000000000000000000073
:101776000000000000000000000000000000000063
:101786000000000000000000000000000000000053
:101796000000000000000000000000000000000043
:1017A6000000000000000000000000000000000033
:1017B6000000000000000000000000000000000023
:1017C6000000000000000000000000000000000013
:1017D6000000000000000000000000000000000003
:1017E60000000000000000000000000000000000F3
:1017F600610E016000000000000000000000000013
:1018060000000000000000000000000000000000D2
:1018160000000000000000000000000000000000C2
:1018260000000000000000000000000000000000B2
:1018360000000000000000000000000000000000A2
:101846000000000000000000000000000000000092
:101856000000000000000000000000000000000082
:101866000000000000000000000000000000000072
:101876000000000000000000000000000000000062
:101886000000000000000000000000000000000052
:101896000000000000000000000000000000000042
:1018A6000000000000000000000000000000000032
:1018B6000000000000000000000000000000000022
:1018C6000000000000000000000000000000000012
:1018D6000000000000000000000000000000000002
:1018E60000000000000000000000000000000000F2
:1018F60000000000000000000000000000000000E2
:10190600000041026EC041026F004100000041002C
:1019160001004100020041000300410004004100B3
:021926000500BA
:030023000249D0BF
:1049D000C0E0C083C082C0D0EEC0E0EFC0E0C2AF94
:1049E00030981EC298900378E02478F582E434026F
:1049F000F583E599F0900378E004F090037AE00401
:104A0000F0309930C299900050E0FF90004FE0FEE6
:104A1000C39F501574602EF582E43401F583E0F5F0
:104A20009990004FE004F0800B90004FE4F090026A
:104A300070F0A3F0D2AFD0E0FFD0E0FED0D0D082B3
:054A4000D083D0E0323C
:104F1F00C299C298123C4BE4900378F0A3F0A3F02F
:104F2F0090004DF0A3F0A3F0A3F0C2B590026E7401
:104F3F00C0F0E4900270F0A3F0900274F0A3F0229E
:10309600E4FF900160F0A374D7F0A37429F09000C8
:1030A6004AE0900163F0A37402F090026EE0900192
:1030B60066F0E4EFC39414501A74062FF582E434D4
:1030C60000F583E0FE74672FF582E43401F583EEA4
:1030D600F0800C74672FF582E43401F583E4F00F79
:1030E600EFB414CFE4FFEFC39408501874422FF5E1
:1030F60082E43400F583E0FE747B2FF582E434012C
:10310600F583EEF00FEFB405DD9004DDE09001806D
:10311600F0E4FF9004DDE0FEEFC39E504C75F0191D
:10312600EFA42480F582E5F03403F583E0FEC45471
:10313600F0FE75F019EFA42481F582E5F03403F56D
:1031460083E04EFE75F002EFA42481F582E5F034AB
:1031560001F583EEF075F002EFA42482F582E5F026
:103166003401F583E4F00F80AAE4FF90004BE0FE03
:10317600EFC39E502D741A2FF582E43400F583E0D8
:10318600FE9004DDE075F002A42FF582E435F0F53B
:1031960083E5822481F582E5833401F583EEF00F21
:1031A60080C99004DDE025E0FD241CFF90004BE083
:1031B600FC2F900165F07E017F61ED2420FDEC2D52
:1031C600FD124FF390004BE0FE9004DDE0FD75F03C
:1031D60002A42EF582E435F0F583E5822481F5829A
:1031E600E5833401F583EFF0ED25E02422FFEE2F91
:0131F600FFD9
:0131F70022B5
:030006007F002256
:03000E007F00224E
:030016007F002246
:1034A700E4FF9006D3F0900057E014FEEFC39E4070
:1034B700030235D874582FF582E43400F583E0FE13
:1034C7009004DDE0FDEEC39D40030235D274592F11
:1034D700F582E43400F583E0FDC4540F6003023540
:1034E700CB75F019EEA42481F582E5F03403F5835A
:1034F700E06D705074582FF582E43400F583E0FED8
:1035070075F019A42482F582E5F03403F583E0FD14
:10351700745A2FF582E43400F583E0FCED6C7024D7
:1035270075F019EEA42483F582E5F03403F583E002
:10353700FE745B2FF582E43400F583E0FDEE6D70D9
:10354700030235C8745A2FF582E43400F583E0FE90
:1035570074582FF582E43400F583E075F019A4243C
:1035670082F582E5F03403F583EEF0745B2FF58284
:10357700E43400F583E0FE74582FF582E43400F557
:1035870083E075F019A42483F582E5F03403F5830D
:10359700EEF074592FF582E43400F583E0540FFE02
:1035A70074582FF582E43400F583E075F019A424EC
:1035B70081F582E5F03403F583EEF09006D37401CC
:1035C700F00F8001000F0F0F0234AD7F01124CB7CF
:0F35D700229006D3E06003124A45E4FF124CB77E
:0135E60022C2
:03001E007F00223E
:030026007F002236
:03002E007F00222E
:0350F2007F00221A
:10508E0090026E7440F0780C76121246B0E4FF1265
:03509E004CB722EA
:10078D00E4F508F509900160F0A374D7F0A374297E
:10079D00F090004AE0900163F0A37415F090026EA2
:1007AD00E0900166F0750807E4F5099004DDE0FFBF
:1007BD00E509C39F4003020B62AF08050874602F63
:1007CD00F582E43401F583E509F075F019A4248070
:1007DD00F582E5F03403F583E0C454F0FF75F019AC
:1007ED00E509A42481F582E5F03403F583E04FFF9C
:1007FD00AE08050874602EF582E43401F583EFF040
:10080D0075F019E509A42480F582E5F03403F5832C
:10081D00E01470030209DA147003020A89240260DD
:10082D0003020B5D75F019E509A42481F582E5F04D
:10083D003403F583E024FD70030208DB2403600319
:10084D00020B5D75F019E509A4248CF582E5F034F1
:10085D0003F583E0640175F019702FE509A4248A6E
:10086D00F582E5F03403F583E0FFAE08050874600A
:10087D002EF582E43401F583EFF075F019E509A446
:10088D002489F582E5F03403802DE509A42486F54D
:10089D0082E5F03403F583E0FFAE08050874602EA1
:1008AD00F582E43401F583EFF075F019E509A42420
:1008BD0085F582E5F03403F583E0FFAE0805087495
:1008CD00602EF582E43401F583EFF00209A775F08F
:1008DD0019E509A4248CF582E5F03403F583E06471
:1008ED000175F0197051E509A4248BF582E5F034FA
:1008FD0003F583E0FFAE08050874602EF582E4343D
:10090D0001F583EFF075F019E509A4248AF582E568
:10091D00F03403F583E0FFAE08050874602EF58210
:10092D00E43401F583EFF075F019E509A42489F598
:10093D0082E5F03403804FE509A42487F582E5F0C4
:10094D003403F583E0FFAE08050874602EF582E4EC
:10095D003401F583EFF075F019E509A42486F582CD
:10096D00E5F03403F583E0FFAE08050874602EF55D
:10097D0082E43401F583EFF075F019E509A42485BF
:10098D00F582E5F03403F583E0FFAE0805087460E9
:10099D002EF582E43401F583EFF075F019E509A425
:1009AD002482F582E5F03403F583E0FFAE080508F7
:1009BD0074602EF582E43401F583EFF075F019E5DE
:1009CD0009A42483F582E5F03403020B4975F0196F
:1009DD00E509A42481F582E5F03403F583E0600395
:1009ED00020B5D75F019E509A42487F582E5F03455
:1009FD0003F583E0FFAE08050874602EF582E4343C
:100A0D0001F583EFF075F019E509A42486F582E56B
:100A1D00F03403F583E0FFAE08050874602EF5820F
:100A2D00E43401F583EFF075F019E509A42485F59B
:100A3D0082E5F03403F583E0FFAE08050874602EFF
:100A4D00F582E43401F583EFF075F019E509A4247E
:100A5D0084F582E5F03403F583E0FFAE08050874F4
:100A6D00602EF582E43401F583EFF075F019E50998
:100A7D00A42482F582E5F03403020B4975F019E5E3
:100A8D0009A42481F582E5F03403F583E014605A5E
:100A9D00046003020B5D75F019E509A42487F58246
:100AAD00E5F03403F583E0FFAE08050874602EF51C
:100ABD0082E43401F583EFF075F019E509A424867D
:100ACD00F582E5F03403F583E0FFAE0805087460A8
:100ADD002EF582E43401F583EFF075F019E509A4E4
:100AED002482F582E5F03403805275F019E509A4EE
:100AFD002487F582E5F03403F583E0FFAE080508A1
:100B0D0074602EF582E43401F583EFF075F019E58C
:100B1D0009A42486F582E5F03403F583E0FFAE08E1
:100B2D00050874602EF582E43401F583EFF075F05D
:100B3D0019E509A42482F582E5F03403F583E0FF7D
:100B4D00AE08050874602EF582E43401F583EFF0EC
:100B5D0005090207B8E50824FB900165F07E017FC9
:100B6D0061E50814FD124FF374602508F582E43435
:090B7D0001F583EFF0E50804FF27
:010B8600224C
:103D3C0090005DE0FF90037BEFF090005CE0FF9063
:103D4C00037CEFF090005BE0FF90037DEFF09000C0
:103D5C005AE0FF90037EEFF090037BE0FCA3E0FDC4
:103D6C00A3E0FEA3E0FF9007271206F1900061E0AC
:103D7C00FF90037BEFF0900060E0FF90037CEFF08E
:103D8C0090005FE0FF90037DEFF090005EE0FF900D
:103D9C00037EEFF090037BE0FCA3E0FDA3E0FEA329
:103DAC00E0FF90072B1206F1900059E0FFEF12078D
:103DBC003A3DCA003E02013E0E0200003E1A90003F
:103DCC0058E0FFEFC0E0900727E0FCA3E0FDA3E084
:103DDC00FEA3E0FF9006D41206F190072BE0FCA3A3
:103DEC00E0FDA3E0FEA3E0FF9006D81206F1D0E0C0
:103DFC00FF1243968019900058E0FF7D001240A9F5
:103E0C00800D900058E0FF7D011240A98001007FD9
:043E1C0000124CB78D
:013E2000227F
:103A4600750B00900160E4F090016174D7F090016D
:103A5600627429F090004AE0FF900163EFF0900154
:103A66006474CCF0900165740BF0900058E0FF8F01
:103A76000B9004DDE0FFE50BC39F40067F09124C67
:103A8600B722900166E50BF0AF0B75F019EFA42491
:103A96008CF582E5F03403F583E0FF900167EFF0E3
:103AA600AF0B75F019EFA4248DF582E5F03403F51C
:103AB60083E0FCA3E0FDA3E0FEA3E0FF90037B12FE
:103AC60006F190037BE0FF90016BEFF090037CE042
:103AD600FF90016AEFF090037DE0FF900169EFF03F
:103AE60090037EE0FF900168EFF0AF0B75F019EFE1
:103AF600A42491F582E5F03403F583E0FCA3E0FD10
:103B0600A3E0FEA3E0FF90037B1206F190037BE0A7
:103B1600FF90016FEFF090037CE0FF90016EEFF0F5
:103B260090037DE0FF90016DEFF090037EE0FF9043
:103B3600016CEFF07E017F617D0F124FF3900170F3
:043B4600EFF07F110C
:013B4A002258
:1048E20090075BE4F0900057E0FFEF24E5FF9007AC
:1048F2005BEFF090075BE0FFEF6054900058E0FF41
:104902007B017A007959EBC0E0EAC0E0E9C0E07BC4
:10491200017A00796D90071EEBF0A3EAF0A3E9F0AB
:104922007B017A007972900721EBF0A3EAF0A3E908
:10493200F090075BE0FE900724EEF0D0E0F9D0E0C3
:10494200FAD0E0FB122AAF7F00124CB72280067F1A
:0749520009124CB7227F009F
:01495900223B
:0C50D5001228C7124E107F00124CB722A8
:104CB70090075CEFF0900160E4F090016174D7F029
:104CC7009001627429F090004AE0FF900163EFF0D1
:104CD700900056E0FF900167EFF090016474FFF0D9
:104CE70090026EE0FF900166EFF090075CE0FF90A6
:104CF7000168EFF09001657404F07E017F607D0923
:0B4D0700124FF3900169EFF07F0A22C9
:0D495A0090073CEEF0A3EFF090073EEDF06B
:1049670090073FE4F0900740E4F0900740E4F090B0
:10497700073EE0FF900740E0FEEEC39F5036C2D7E8
:10498700900740E0FF90073CE0FCA3E0FD8D828CA0
:1049970083E5822FF582E43583F583E0FF90073FB7
:1049A700E02FF030D70690073FE004F0900740E093
:1049B70004F080BB90073FE0FFC374FF9FFF9007A1
:0849C7003FEFF090073FE0FF15
:0149CF0022C5
:10207300900751E4F0900752E4F0900056E0FFEF30
:10208300131313541FFFEF541FFF900751EFF090EA
:102093000751E0FFEFC3940E400302236A900160EF
:1020A300E4F090016174D7F09001627428F090011C
:1020B30063E4F0900056E0FF900164EFF090016557
:1020C3007403F0900751E0FF75F019EFA42480F535
:1020D30082E5F03403F583E0FFEF12073A20ED00C9
:1020E30022450122A20200002334900751E0FF752C
:1020F300F019EFA42481F582E5F03403F583E0FFC2
:10210300EF12073A211100219D03000023349007A9
:1021130051E0FF75F019EFA4248CF582E5F0340348
:10212300F583E0FFEFB40139900751E0FF75F01933
:10213300EFA42489F582E5F03403F583E0FF9001F1
:1021430066EFF0900751E0FF75F019EFA4248AF5CC
:1021530082E5F03403F583E0FF900167EFF002239B
:1021630034900751E0FF75F019EFA42485F582E55B
:10217300F03403F583E0FF900166EFF0900751E040
:10218300FF75F019EFA42486F582E5F03403F58397
:10219300E0FF900167EFF0022334900751E0FF75F1
:1021A300F019EFA4248CF582E5F03403F583E0FF06
:1021B300EF64017051900751E0FF75F019EFA4240B
:1021C30089F582E5F03403F583E0FF900751E0FEE3
:1021D30074602EF582E43401F583EFF0900751E04B
:1021E300FF75F019EFA4248AF582E5F03403F58333
:1021F300E0FF900751E0FE74602EF582E43401F5B0
:1022030083EFF0022334900751E0FF75F019EFA438
:102213002485F582E5F03403F583E0FF900166EF52
:10222300F0900751E0FF75F019EFA42486F582E5DD
:10223300F03403F583E0FF900167EFF002233402EB
:102243002334900751E0FF75F019EFA42481F58240
:10225300E5F03403F583E0FFEF12073A226600004E
:10226300002334900751E0FF75F019EFA42486F59D
:1022730082E5F03403F583E0FF900166EFF0900709
:1022830051E0FF75F019EFA42487F582E5F03403DC
:10229300F583E0FF900167EFF002233402233490CB
:1022A3000751E0FF75F019EFA42481F582E5F034BE
:1022B30003F583E0FFEF12073A22C60022FE010076
:1022C300002334900751E0FF75F019EFA42486F53D
:1022D30082E5F03403F583E0FF900166EFF09007A9
:1022E30051E0FF75F019EFA42487F582E5F034037C
:1022F300F583E0FF900167EFF08036900751E0FF30
:1023030075F019EFA42486F582E5F03403F583E034
:10231300FF900166EFF0900751E0FF75F019EFA40D
:102323002487F582E5F03403F583E0FF900167EF3E
:10233300F07B017A0179607D08123719900752EF1B
:10234300F07E017F60900752E0FD12495A900752D8
:10235300E0FE74602EF582E43401F583EFF090071C
:0923630052E0FFEF04FF227F00AD
:01236C00224E
:100F4200900753E4F0900754E4F0900056E0FFEF6E
:100F5200131313541FFFEF541FFF900753EFF0902A
:100F62000753E0FFEFC3940E40030212F7900160B3
:100F7200E4F090016174D7F09001627428F090015E
:100F820063E4F0900056E0FF900164EFF090016599
:100F92007406F0900753E0FF75F019EFA42480F572
:100FA20082E5F03403F583E0FFEF12073A0FBC004D
:100FB200116801121E02000012BB900753E0FF7578
:100FC200F019EFA42481F582E5F03403F583E0FF04
:100FD200EF12073A0FE000106C030000110D9007AA
:100FE20053E0FF75F019EFA4248CF582E5F0340389
:100FF200F583E0FFEFB40139900753E0FF75F01974
:10100200EFA42489F582E5F03403F583E0FF900133
:1010120066EFF0900753E0FF75F019EFA4248AF50C
:1010220082E5F03403F583E0FF900167EFF00211EF
:101032000D900753E0FF75F019EFA42485F582E5C2
:10104200F03403F583E0FF900166EFF0900753E080
:10105200FF75F019EFA42486F582E5F03403F583D9
:10106200E0FF900167EFF002110D900753E0FF756A
:10107200F019EFA4248CF582E5F03403F583E0FF48
:10108200EF64017050900753E0FF75F019EFA4244C
:1010920089F582E5F03403F583E0FF900753E0FE23
:1010A20074602EF582E43401F583EFF0900753E08B
:1010B200FF75F019EFA4248AF582E5F03403F58375
:1010C200E0FF900753E0FE74602EF582E43401F5F0
:1010D20083EFF08036900753E0FF75F019EFA424F8
:1010E20085F582E5F03403F583E0FF900166EFF0C9
:1010F200900753E0FF75F019EFA42486F582E5F01E
:101102003403F583E0FF900167EFF0900753E0FFAF
:1011120075F019EFA42482F582E5F03403F583E03B
:10112200FFEF5407FFEF12073A113B001142011182
:101132004A051152070000115A900168E4F0801D1F
:101142009001687402F080159001687404F0800DBB
:101152009001687406F08005900168E4F0900169DE
:10116200740AF00212BB900753E0FF75F019EFA466
:101172002481F582E5F03403F583E0FFEF12073AAC
:10118200118900000012BB900753E0FF75F019EFC0
:10119200A42486F582E5F03403F583E0FF9001662E
:1011A200EFF0900753E0FF75F019EFA42487F58262
:1011B200E5F03403F583E0FF900167EFF090075309
:1011C200E0FF75F019EFA42482F582E5F03403F50F
:1011D20083E0FFEF5407FFEF12073A11ED0011F51C
:1011E2000111FD051205070000120D9001687440FF
:1011F200F0801E9001687442F08016900168744479
:10120200F0800E9001687446F08006900168744088
:10121200F0900169E4F00212BB0212BB900753E0A6
:10122200FF75F019EFA42481F582E5F03403F5830C
:10123200E0FFEF12073A124200127A01000012B0E8
:10124200900753E0FF75F019EFA42486F582E5F0CC
:101252003403F583E0FF900166EFF0900753E0FF5F
:1012620075F019EFA42487F582E5F03403F583E0E5
:10127200FF900167EFF08036900753E0FF75F01999
:10128200EFA42486F582E5F03403F583E0FF9001B4
:1012920066EFF0900753E0FF75F019EFA42487F58D
:1012A20082E5F03403F583E0FF900167EFF09001EF
:1012B200687440F0900169E4F090016A74FFF07B79
:1012C200017A0179607D0B123719900754EFF07E95
:1012D200017F60900754E0FD12495A900754E0FEE6
:1012E20074602EF582E43401F583EFF0900754E048
:0712F200FFEF04FF227F0063
:0112F90022D2
:102DB500900755E4F0900756E4F0900056E0FFEFD9
:102DC500131313541FFFEF541FFF900755EFF09097
:102DD5000755E0FFEFC3940E4003022F25900160D5
:102DE500E4F090016174D7F09001627428F09001CD
:102DF50063E4F0900056E0FF900164EFF090016508
:102E05007403F0900755E0FF75F019EFA42480F5E1
:102E150082E5F03403F583E0FFEF12073A2E2F0029
:102E25002E89012EE40200002EEF900755E0FF7574
:102E3500F019EFA42482F582E5F03403F583E0FF71
:102E4500EF5407FFEF12073A2E5D002E64012E6C3A
:102E5500052E740700002E7C900166E4F0801D901D
:102E650001667402F080159001667404F0800D907F
:102E750001667406F08005900166E4F090016774C0
:102E85000AF08066900755E0FF75F019EFA42482DB
:102E9500F582E5F03403F583E0FFEF5407FFEF1209
:102EA500073A2EB7002EBF012EC7052ECF0700000B
:102EB5002ED79001667440F0801E9001667442F032
:102EC50080169001667444F0800E9001667446F099
:102ED50080069001667440F0900167E4F0800B90E5
:102EE50001667440F0900167E4F07B017A01796036
:102EF5007D08123719900756EFF07E017F60900725
:102F050056E0FD12495A900756E0FE74602EF58290
:102F1500E43401F583EFF0900756E0FFEF04FF225C
:022F25007F002B
:012F27002287
:0350F5007F002217
:102F280090075DE4F0900056E0FFEF131313541F71
:102F3800FFEF541FFF90075DEFF090075DE0FFEF94
:102F4800C3940E4003023093900058E0FFEFC31380
:102F5800FFEF5403FFEF12073A2F71002FAC012F38
:102F6800E7023021030000305B90075DE0FF75F059
:102F780019EFA42482F582E5F03403F583E0FFEF2E
:102F880054F0FFEFF090075DE0FF75F019EFA4240F
:102F980082F582E5F03403F583E0FFEF4400FFEFAC
:102FA800F002309390075DE0FF75F019EFA42482DA
:102FB800F582E5F03403F583E0FFEF54F0FFEFF01E
:102FC80090075DE0FF75F019EFA42482F582E5F023
:102FD8003403F583E0FFEF4401FFEFF002309390F4
:102FE800075DE0FF75F019EFA42482F582E5F0345F
:102FF80003F583E0FFEF54F0FFEFF090075DE0FF8B
:1030080075F019EFA42482F582E5F03403F583E026
:10301800FFEF4405FFEFF0807290075DE0FF75F069
:1030280019EFA42482F582E5F03403F583E0FFEF7D
:1030380054F0FFEFF090075DE0FF75F019EFA4245E
:1030480082F582E5F03403F583E0FFEF4407FFEFF4
:10305800F0803890075DE0FF75F019EFA42482F541
:1030680082E5F03403F583E0FFEF54F0FFEFF090D2
:10307800075DE0FF75F019EFA42482F582E5F034CE
:0D30880003F583E0FFEF4400FFEFF07F0051
:013095002218
:10371900900736EBF0A3EAF0A3E9F0900739EDF052
:1037290090073AE4F090073BE4F090073A7403F00D
:10373900900739E0FF90073AE0FEEEC39F4003028D
:103749003823900736E0FBA3E0FAA3E0F990073AA3
:10375900E0FF8F8275830012046FFFEF64D7600367
:1037690002381A900739E0FFEF14FF90073BEFF09A
:1037790090073AE0FF90073BE0FEEED39F4045906B
:103789000736E0FBA3E0FAA3E0F990073BE0FF8FDF
:103799008275830012046FFF90073BE0FEEEFD7C0B
:1037A90000ED2401FDEC3400FC900736E0FBA3E0BA
:1037B900FAA3E0F98D828C83EF1204E190073BE0D4
:1037C90014F080AC90073AE0FF7E00EF2401FFEE91
:1037D9003400FE900736E0FBA3E0FAA3E0F98F82FC
:1037E9008E83E41204E190026FE0FFEFB4011690BA
:1037F9000736E0FBA3E0FAA3E0F9758205758300BB
:10380900740112049C900739E004F090073AE0042F
:0F381900F090073AE004F0023739900739E0FFEA
:01382800227D
:102C380090026FE0FFEF12073A2C4E002D26012D6F
:102C48007A0300002DB49004957440F090049674B3
:102C58000AF0900056E0FFEF12073A2C94012C9DE1
:102C6800032CA6052CAF072CB8092CC10A2CCA0CBA
:102C78002CD30E2CDC102CE5122CEE142D00CA2DB2
:102C880012CB2CF7CD2D09DF00002D1B12309690AA
:102C98000050EFF022120006900050EFF0221200D0
:102CA8000E900050EFF022120016900050EFF02224
:102CB8001234A7900050EFF02212001E900050EF3F
:102CC800F022120026900050EFF02212002E900001
:102CD80050EFF0221250F2900050EFF02212508E76
:102CE800900050EFF02212078D900050EFF0221262
:102CF80048E2900050EFF022123D3C900050EFF077
:102D0800221250D5900050EFF022123A469000500F
:102D1800EFF0227F06124CB7900050EFF02290009F
:102D280057E0FFEFC4135407FFEF5407FFEF1207F4
:102D38003A2D4C002D55012D5E022D67032D700490
:102D480000002DB41250F5900050EFF022122F28F9
:102D5800900050EFF022122DB5900050EFF02212A3
:102D68002073900050EFF022120F42900050EFF0C5
:102D78002222900055E0FF124FA5EFC454F0FFEF58
:102D8800C0E0900056E0FF124FA5CEEFCED0E0FF96
:102D9800EE4FFFEF12073A2DA60300002DAF1231B8
:0D2DA800F8900050EFF022900050E4F0226F
:0B19E700900741EBF0A3EAF0A3E9F049
:1019F2009007447401F0900741E0FBA3E0FAA3E0F2
:101A0200F912052FFFAEF0EF8EF01207601A2300D5
:101A1200001A4F04911CA004E11CFA04E500001D09
:101A22002990004DE4F0A3E4F0D29CC2B5D2AC9070
:101A320006F17401F0900744E4F0900741E0FBA343
:101A4200E0FAA3E0F9740475F0911205929007444C
:101A5200E0FFEF600890004CE0FFEF70037F01228F
:101A62009006F1E4F090004CE4F090026FE0FFEF9A
:101A720012073A1A82001AF4011B430300001BFDED
:101A820090004AE0FF900055E0FEEE6F601590076F
:101A920041E0FBA3E0FAA3E0F9E475F0001205923D
:101AA2007F002290004DE0FEA3E0FF74512FF582EB
:101AB20074003EF583E0FF900000EFF07E007F525D
:101AC20090004DE0FCA3E0FDED14FD124FF39000F9
:101AD20000E0FEEF6E7003021BFD900741E0FBA3E6
:101AE200E0FAA3E0F9E475F0001205927F00220209
:101AF2001BFD90004DE0FEA3E0FF74512FF58274B0
:101B0200003EF583E0FF900000EFF07E007F5290F0
:101B1200004DE0FCA3E0FDED14FD12495A900000D7
:101B2200E0FEEF6E7003021BFD900741E0FBA3E0B5
:101B3200FAA3E0F9E475F0001205927F0022021B7D
:101B4200FD900053E0FF124FA5EFC454F0FFEFC029
:101B5200E0900054E0FF124FA5CEEFCED0E0FFEEB2
:101B62004FFF90004AE0FEEF6E6015900741E0FBE8
:101B7200A3E0FAA3E0F9E475F0001205927F0022D7
:101B820090004DE0FEA3E0FF74502FF58274003EFA
:101B9200F583E0FF124FA5EFC454F0FFEFC0E090D1
:101BA200004DE0FEA3E0FF74512FF58274003EF574
:101BB20083E0FF124FA5CEEFCED0E0FFEE4FFF90B5
:101BC2000001EFF07B017A00795390004DE0FEA313
:101BD200E0FFEF24FDFDEE34FFFC124869900001A6
:101BE200E0FEEF6E6015900741E0FBA3E0FAA3E090
:101BF200F9E475F0001205927F0022122C38900051
:101C020050E0FFEF7018900741E0FBA3E0FAA3E079
:101C1200F9E475F0001205927F0022021A23900265
:101C22006FE0FFEF70137B017A017960900050E062
:101C3200FD123719900050EFF0D2B5C29C90004FC0
:101C4200E4F090004FE0FF74602FF582E43401F578
:101C520083E0FF8F9990004FE004F0D2AC9006F33E
:101C6200E004F070069006F2E004F090026FE0FFEC
:101C7200EF705A900741E0FBA3E0FAA3E0F9758206
:101C820002758300E475F0001205B1900741E0FB94
:101C9200A3E0FAA3E0F9740475F0E112059290074B
:101CA20041E0FBA3E0FAA3E0F9758202758300121A
:101CB200055AFFAEF0C3EF940AEE94004003D380BE
:101CC20001C35003021A237F0022021A2390074104
:101CD200E0FBA3E0FAA3E0F9758202758300E475E4
:101CE200F0001205B1900741E0FBA3E0FAA3E0F98E
:101CF200740475F0E5120592900741E0FBA3E0FA47
:101D0200A3E0F975820275830012055AFFAEF0C393
:101D1200EF9403EE94004003D38001C35003021AF0
:101D2200237F0022021A23900744E4F0900741E047
:101D3200FBA3E0FAA3E0F9E475F0001205927F0339
:011D4200227E
:102AAF0090071AEFF090071BEBF0A3EAF0A3E9F001
:102ABF00900725E4F0A3E4F07B017A07791A9006DA
:102ACF00ECE4F0A3742AF07D017C00123E21900704
:102ADF001BE0FBA3E0FAA3E0F99006ECE4F0A3748B
:102AEF002BF07D057C00123E2190071BE0FBA3E03D
:102AFF00FAA3E0F9EBC0E0EAC0E0E9C0E07B017ABD
:102B0F00007906C8E9C8CCEACCCDEBCDD0E0F9D03E
:102B1F00E0FAD0E0FB7E007F1412043090071EE035
:102B2F00FBA3E0FAA3E0F99006ECE4F0A37430F015
:102B3F007D027C00123E2190071EE0FBA3E0FAA36A
:102B4F00E0F9EBC0E0EAC0E0E9C0E07B017A007990
:102B5F0042C8E9C8CCEACCCDEBCDD0E0F9D0E0FA51
:102B6F00D0E0FB7E007F08120430900724E0FFEFD7
:102B7F001313543FFF7E00900725EEF0A3EFF09064
:102B8F000724E0FFEF54FCFFEF600E900726E004F0
:102B9F00F07006900725E004F0900725E0FEA3E013
:102BAF00FFD3EF940AEE94004009900725E4F0A3B9
:102BBF00740AF0900721E0FBA3E0FAA3E0F9900775
:102BCF0025E0FCA3E0FD9006ECE4F0A37433F012D3
:102BDF003E21900724E0FF90004BEFF07B017A0736
:102BEF0079249006ECE4F0A37432F07D017C00129E
:102BFF003E21900724E0FF7E00900721E0FBA3E039
:102C0F00FAA3E0F9EBC0E0EAC0E0E9C0E07B017AAB
:102C1F0000791AC8E9C8CCEACCCDEBCDD0E0F9D019
:082C2F00E0FAD0E0FB120430D2
:012C3700227A
:103C4B00900757E4F0A3E4F07B017A00794A9006E1
:103C5B00E1E4F0A3742AF07D017C00123F04900094
:103C6B004AE0FFEFC39401400B90004AE0FFEFD313
:103C7B00940F400690004A7401F07B017A0079069C
:103C8B009006E1E4F0A3742BF07D057C00123F0459
:103C9B007B017A0079429006E1E4F0A37430F07D69
:103CAB00027C00123F047B017A00794B9006E1E421
:103CBB00F0A37432F07D017C00123F0490004BE0C6
:103CCB00FFEFD39428400690004B7428F090004BE4
:103CDB00E0FFEF1313543FFF7E00900757EEF0A366
:103CEB00EFF090004BE0FFEF54FCFFEF600E9007FE
:103CFB0058E004F07006900757E004F0900757E087
:103D0B00FEA3E0FFD3EF940AEE940040099007570F
:103D1B00E4F0A3740AF07B017A00791A900757E05C
:103D2B00FCA3E0FD9006E1E4F0A37433F0123F0432
:013D3B002265
:0B0B8700900745EBF0A3EAF0A3E9F0B3
:100B92009007487401F0900745E0FBA3E0FAA3E058
:100BA200F912052FFFAEF0EF8EF01207600BBF00B7
:100BB200000BE205370F1705C500000F289000054E
:100BC200E4F09007037401F0900748E4F0900745C1
:100BD200E0FBA3E0FAA3E0F9740575F03712059281
:100BE200900748E0FFEF601190037AE0FFEFD394A3
:100BF200004003D38001C340037F0122900703E436
:100C0200F0C2AC90037AE0FF900002EFF090037A1A
:100C1200E4F0900378E0FF900003EFF0D2AC900094
:100C220002E0FF900003E0FEC3EE9FFF900004EF9E
:100C3200F0900003E0FF900004E0FEEE6F7003020C
:100C42000EF1900004E0FF74782FF582E43402F58F
:100C520083E0FFEF12073A0D79000E070A0E4D0DE1
:100C62000D13280CAE290DC03A0C72D700000E15D8
:100C7200900004E0FF74782FF582E43402F583E0FB
:100C8200FF90004DE0FCA3E0FD74522DF58274004C
:100C92003CF583EFF090004EE004F0700690004DBA
:100CA200E004F09000057401F0020E4D900005E0A2
:100CB200FFEFB40121900052E4F090005374D7F09A
:100CC2009000547429F090004DE4F0A37403F09066
:100CD200026FE4F08033900004E0FF74782FF58215
:100CE200E43402F583E0FF90004DE0FCA3E0FD74E4
:100CF200522DF58274003CF583EFF090004EE00433
:100D0200F0700690004DE004F0900005E4F0020E51
:100D12004D900005E0FFEFB40122900052E4F09004
:100D2200005374D7F09000547428F090004DE4F012
:100D3200A37403F090026F7401F08033900004E01A
:100D4200FF74782FF582E43402F583E0FF90004DC2
:100D5200E0FCA3E0FD74522DF58274003CF583EFB4
:100D6200F090004EE004F0700690004DE004F09028
:100D72000005E4F0020E4D900005E0FFEFB401081B
:100D8200900005E4F0020E4D900004E0FF74782F0D
:100D9200F582E43402F583E0FF90004DE0FCA3E02D
:100DA200FD74522DF58274003CF583EFF090004EF5
:100DB200E004F0700690004DE004F0020E4D900049
:100DC20004E0FF74782FF582E43402F583E0FF90AB
:100DD200004DE0FCA3E0FD74522DF58274003CF559
:100DE20083EFF090004EE004F0700690004DE004B6
:100DF200F090004DE0FEA3E0FFEF4E704E90026FC8
:100E02007403F0804690004C7401F0C2ACC29C8026
:100E12003A8038900004E0FF74782FF582E43402BF
:100E2200F583E0FF90004DE0FCA3E0FD74522DF548
:100E32008274003CF583EFF090004EE004F07006FF
:100E420090004DE004F0900005E4F090004DE0FECB
:100E5200A3E0FFD3EF9406EE9400404C900051E0E3
:100E6200FF7E00EF2406FFEE3400FE90004DE0FC12
:100E7200A3E0FDEF6D7002EE6C700F90004C7401F8
:100E8200F0C2ACC29C900005E4F090004DE0FEA3DD
:100E9200E0FFD3EF940EEE9401404B900270E4F029
:100EA200A3E4F07F0022803E90004DE0FEA3E0FF2D
:100EB200EF64064E703090004DE0FEA3E0FF7451E7
:100EC2002FF58274003EF583E0FF900051EFF09021
:100ED200026FE0FFEFB4010E900051E0FFEF541FEC
:100EE200FF900051EFF0900004E004F0020C339008
:100EF2000705E004F07006900704E004F09007484C
:100F0200E4F0900745E0FBA3E0FAA3E0F97405756D
:100F1200F0C5120592900748E0FFEF6003020BC490
:100F22007F0122020BC4900748E4F0900745E0FBE2
:0F0F3200A3E0FAA3E0F9E475F0001205927F0343
:010F4100228D
:041928004104DD0E8B
:1046B0001247489003841206FD0000000090039DFD
:1046C0001206FD000000009003B61206FD00000077
:1046D000009003CF1206FD000000009003E81206D0
:1046E000FD000000009004011206FD000000009093
:1046F000041A1206FD000000009004331206FD00AB
:1047000000000090044C1206FD00000000900465BB
:104710001206FD0000000090047E1206FD0000005D
:10472000009004B01206FD000000009004C91206BB
:10473000FD000000009004957440F0A3740AF0A3FB
:084740001206FD80008000223A
:104A4500E49006DCF0A31206FD00000000E49006E9
:104A5500DCF09006DCE0FFC3940E502BEF75F019E7
:104A6500A42480F9740335F0FA7B01E02410FEE4F8
:104A7500339006ECF0A3CEF07D017C00123E219030
:104A850006DCE004F080CB124D12E4FCFDFE90063E
:104A9500DD1206F17B017A0679DD9006ECE4F0A3E0
:0A4AA50074A0F07D017C00123E2198
:014AAF0022E4
:10474800E49006D3F0A31206FD000000009006D8FE
:104758001206FD00000000E49006D3F09006D3E0B6
:10476800FFC3940E502BEF75F019A42480F974033D
:1047780035F0FA7B01E02410FEE4339006E1F0A363
:10478800CEF07D017C00123F049006D3E004F08057
:10479800CB124D12E4FCFDFE9006D81206F17B0107
:1047A8007A0679D49006E1E4F0A374A0F07D017C48
:1047B80000123F049006D4E0FCA3E0FDA3E0FEA3B2
:1047C800E0FFA3E0F8A3E0F9A3E0FAA3E0FBC3123B
:0747D80006BA60031228C7B6
:0147DF0022B7
:1028C700E490037FF0A3F0A37403F0A37440F0A394
:1028D7007406F0A31206FD0000000090038812069C
:1028E700FD000000009003987401F0E4A3F0A374C6
:1028F70003F0A37440F0A37406F0A31206FD0000D2
:1029070000009003A11206FD000000009003B174BF
:1029170002F0E4A3F0A37403F0A37440F0A37406D9
:10292700F0A31206FD000000009003BA1206FD0096
:102937000000009003CA7403F0E4A3F0A37403F04B
:10294700A37440F0A37406F0A31206FD0000000074
:102957009003D31206FD000000009003E37404F017
:10296700E4A3F0A37403F0A37440F0A37406F0A3E8
:102977001206FD000000009003EC1206FD000000A7
:10298700009003FC7405F0E4A3F0A37403F0A374B0
:1029970040F0A37406F0A31206FD000000009004A7
:1029A700051206FD000000009004157406F0E4A36C
:1029B700F0A37403F0A37440F0A37406F0A3120607
:1029C700FD0000000090041E1206FD0000000090AC
:1029D700042E7407F0E4A3F0A37403F0A37440F08B
:1029E700A37406F0A31206FD00000000900437123E
:1029F70006FD000000009004477408F0A37402F07D
:102A0700A314F0A37440F0A3740AF0A31206FD0008
:102A17000000009004607409F0A37402F0A314F09E
:102A2700A37440F0A3740AF0A31206FD000000008F
:102A3700900479740AF0A37402F0A314F0A374400D
:102A4700F0A3740AF0A31206FD000000019004929F
:102A5700740BF0A37401F0E4A3F0A37440F0A37423
:102A67000AF0A31206FD800080009004AB740CF0FE
:102A7700A37402F0E4A3F0A37440F0A3740AF0A3D4
:102A87001206FD000000009004C4740DF0A3740248
:102A9700F0E4A3F0A37440F0A3740AF0A31206FDB8
:082AA70000000000124A452264
:104D1200E49006E1F0A3F0A3F09006E2F0E490063E
:104D2200E3F09006E2E075F019A42480F9740335EB
:104D3200F0FA7B01A3E07E0029F9EE3AFA1204565A
:104D4200FF9006E1E06F903B4B939006E1F09006F6
:104D5200E3E004F0E0B404CA9006E2E004F0E0B458
:074D62000EBB9006E1E0FF2B
:014D69002227
:0300000002457640
:1045760043AF01787FE4F6D8FD9000007FFF7E8090
:0D458600E4F0A3DFFCDEFA7581110245CEE2
:10192C0060660615000000000000000000000000CA
:10193C00000000000000000000000000000000009B
:10194C00000000000000000000000000000000008B
:10195C00000000000000000000000000000000007B
:10196C00000000000000000000000000000000006B
:10197C00000000000000000000000000000000005B
:10198C0000000000000000000000410610004406AA
:05199C00110000000035
:10416C00E4FF9006D3F01250B312507AD2AAD2A820
:10417C00D288D28AE4FFEF75F022A42415F582E4EC
:10418C003406F583E4F0A3F09006D3F0EF75F0223B
:10419C00A42417F582E43406F583C083C08290060C
:1041AC00D3E0FED082D08375F00812072EE4F0A382
:1041BC00F0EF75F022A42419F582E43406F583752A
:1041CC00F008EE12072EE4F0A3F0EF75F022A42411
:1041DC001BF582E43406F583C083C0829006D3E0DD
:1041EC00FED082D08375F00812072EE4F0A3F0EF16
:1041FC0075F022A4241DF582E43406F58375F008CD
:10420C00EE12072EE4F0A3F09006D3E004F0E06485
:0F421C000460030241980FEF64036003024182C4
:01422B002270
:03000300024BEDC0
:104BED00C0E0C0F0C083C082C0D0E8C0E0ECC0E03F
:064BFD00EDC0E0EFC0E096
:104C0300900615E0C3135403FF75F008A42417F5A9
:104C130082E43406F583E475F0011205039006156A
:104C2300E0FCA3E0FDEF75F008A42419F582E43459
:084C330006F583ECF0A3EDF09F
:104C3B00D0E0FFD0E0FDD0E0FCD0E0F8D0D0D082C7
:074C4B00D083D0F0D0E0326D
:03001300024C524A
:104C5200C0E0C0F0C083C082C0D0E8C0E0ECC0E0D9
:064C6200EDC0E0EFC0E030
:104C6800900615E0C3135403FF75F008A42439F522
:104C780082E43406F583E475F00112050390061505
:104C8800E0FCA3E0FDEF75F008A4243BF582E434D2
:084C980006F583ECF0A3EDF03A
:104CA000D0E0FFD0E0FDD0E0FCD0E0F8D0D0D08262
:074CB000D083D0F0D0E03208
:03000B00024AB0F6
:104AB000C0E0C0F0C083C082C0D0E8C0E0ECC0E07D
:064AC000EDC0E0EFC0E0D4
:104AC600758CFF758AFF900615E0C3135403FF75B6
:104AD600F008A4245BF582E43406F583E475F0015E
:104AE600120503900615E0FCA3E0FDEF75F008A49F
:0E4AF600245DF582E43406F583ECF0A3EDF0C8
:104B0400D0E0FFD0E0FDD0E0FCD0E0F8D0D0D082FF
:074B1400D083D0F0D0E032A5
:03002B0002236D40
:10236D00C0E0C0F0C083C082C0D0E8C0E0ECC0E0E7
:10237D00EDC0E0EEC0E0EFC0E0C2CF900615E0FE8C
:10238D00A3E08EF012076023A801FF245203FF245F
:10239D00E405FF257707FF0000261090061AE024BC
:1023AD00FFFF900619E03407FE900631E0FCA3E034
:1023BD00FDC3EF9DFFEE9C90061BF0A3EFF0900682
:1023CD0017E0FFA3E090061DCFF0A3EFF090062FCE
:1023DD00E4F0A3F090063CE024FFFF90063BE034D0
:1023ED0007FE900653E0FCA3E0FDC3EF9DFFEE9CBE
:1023FD0090063DF0A3EFF0900639E0FFA3E09006C4
:10240D003FCFF0A3EFF0900651E4F0A3F090065EFD
:10241D00E024FFFF90065DE03407FE900675E0FCBA
:10242D00A3E0FDC3EF9DFFEE9C90065FF0A3EFF0E0
:10243D0090065BE0FFA3E0900661CFF0A3EFF09074
:10244D000673022573900619E0FEA3E0FFC3900604
:10245D0022E09FFF900621E09E900623F0A3EFF06F
:10246D0090061FE0FFA3E0900625CFF0A3EFF090BC
:10247D000617E4F0A3F090063BE0FEA3E0FFC39047
:10248D000644E09FFF900643E09E900645F0A3EFC3
:10249D00F0900641E0FFA3E0900647CFF0A3EFF0E8
:1024AD00900639E4F0A3F090065DE0FEA3E0FFC3D3
:1024BD00900666E09FFF900665E09E900667F0A38C
:1024CD00EFF0900663E0FFA3E0900669CFF0A3EF75
:1024DD00F090065B022573900621E0FEA3E0FFC39A
:1024ED0090062AE09FFF900629E09E90062BF0A310
:1024FD00EFF0900627E0FFA3E090062DCFF0A3EFBD
:10250D00F090061FE4F0A3F0900643E0FEA3E0FF79
:10251D00C390064CE09FFF90064BE09E90064DF059
:10252D00A3EFF0900649E0FFA3E090064FCFF0A394
:10253D00EFF0900641E4F0A3F0900665E0FEA3E015
:10254D00FFC390066EE09FFF90066DE09E90066FB4
:10255D00F0A3EFF090066BE0FFA3E0900671CFF0D3
:10256D00A3EFF0900663E402260D900629E0FEA38A
:10257D00E0FFC3900632E09FFF900631E09E90068B
:10258D0033F0A3EFF090062FE0FFA3E0900635CFD8
:10259D00F0A3EFF0900627E4F0A3F090064BE0FED9
:1025AD00A3E0FFC3900654E09FFF900653E09E907A
:1025BD000655F0A3EFF0900651E0FFA3E09006570B
:1025CD00CFF0A3EFF0900649E4F0A3F090066DE094
:1025DD00FEA3E0FFC3900676E09FFF900675E09E98
:1025ED00900677F0A3EFF0900673E0FFA3E090065E
:1025FD0079CFF0A3EFF090066BE4F0A3F090061501
:10260D00F0A3F0900616E004F07006900615E004B5
:10261D00F0900615E05407F0D0E0FFD0E0FED0E0DA
:10262D00FDD0E0FCD0E0F8D0D0D082D083D0F0D077
:02263D00E03289
:0B263F00900749EBF0A3EAF0A3E9F0DC
:05264A009006FDE4F024
:10264F0090074C7401F0900749E0FBA3E0FAA3E078
:10265F00F912052FFFAEF0EF8EF0120760267C0007
:10266F000026A600C1281D00C4000028AD90074910
:10267F00E0FBA3E0FAA3E0F9758202758300E4752D
:10268F00F0001205B1900749E0FBA3E0FAA3E0F9CF
:10269F00E475F0C1120592900749E0FBA3E0FAA39D
:1026AF00E0F975820275830012055AFFAEF0C3EF91
:1026BF009414EE94004003D38001C340037F0022A3
:1026CF00900610E0FFEF75F022A42425F582E43484
:1026DF0006F583E0FEA3E0FFCBEFCBCAEECAE4F929
:1026EF00F8900610E0FFEF75F022A4241DF582E4A8
:1026FF003406F583E0FEA3E0FFE4FCFDEF2BFBEED9
:10270F003AFAED39F9EC38F8900610E0FFEF75F072
:10271F0022A4242DF582E43406F583E0FEA3E0FF26
:10272F00E4FCFDEB2FFBEA3EFAE93DF9E83CF890BB
:10273F000610E0FFEF75F022A42435F582E434068D
:10274F00F583E0FEA3E0FFE4FCFDEB2FFFEA3EFE86
:10275F00E93DFDE83CFC78121206DEECC0E0EDC06E
:10276F00E0EEC0E0EFC0E0900610E0FFEF75F02262
:10277F00A42423F582E43406F583E0FEA3E0FF9062
:10278F000610E0FDED75F022A4241BF582E434065B
:10279F00F583E0FCA3E0FDED2FFFEC3EFE9006106D
:1027AF00E0FDED75F022A4242BF582E43406F583C9
:1027BF00E0FCA3E0FDEF2DFFEE3CFE900610E0FDE8
:1027CF00ED75F022A42433F582E43406F583E0FCA2
:1027DF00A3E0FDEF2DFFEE3CFECBEFCBCAEECAE43C
:1027EF00F9F8D0E0FFD0E0FED0E0FDD0E0FC12061B
:1027FF001A9006111206F190074CE4F0900749E089
:10280F00FBA3E0FAA3E0F9E475F0C4120592900778
:10281F004CE0FFEF70037F01227FFF7EFF7D007C86
:10282F0000900611E0F8A3E0F9A3E0FAA3E0FBD3D0
:10283F001206BA5027900611E0FCA3E0FDA3E0FEBC
:10284F00A3E0FF900610E0FB75F019EBA4244CF504
:10285F0082E5F03404F5831206F1801B900610E038
:10286F00FF75F019EFA4244CF582E5F03404F583DD
:10287F001206FD0000FFFF900610E004F090061016
:10288F00E0FFEFC394034005900610E4F09006FFBD
:10289F00E004F070069006FEE004F002267C90073C
:1028AF004CE4F0900749E0FBA3E0FAA3E0F9E475EC
:0728BF00F0001205927F03F7
:0128C60022EF
:1050B3005389F0438905758CFF758AFFD2A9D28C79
:0150C30022CA
:10507A00D2ADE4F5C875CCFF75CDE775CAFF75CB1F
:04508A00E7D2CA227D
:1019A1004106820041068300410687124A068800EB
:1019B100000000000000000000060C000000000014
:0919C1000041069D0041069E0054
:10504F00D2EBE490069FF0A3F09006A3F0A3F090AC
:06505F0006A7F0A3F022F9
:104F7C00EF25E054FE900681F09006DBE09006826F
:104F8C00F09006DFE0900683F0A3EBF0A3EAF0A329
:094F9C00E9F090069D7401F02279
:1012FA009006D3EBF0A3EAF0A3E9F0E4900700F03C
:10130A009006D604F012052FFFAEF0E5F060030256
:10131A00166DEF12073A134E0013604C138B5713D6
:10132A00AF5D140066143D71148E7814CF8514FADB
:10133A008B154B9315889B15DEA2161FAE1643B369
:10134A000000166D9006D3E0FBA3E0FAA3E0F9E4EF
:10135A0075F04C12059290069DE07002FF22E4900F
:10136A00069DF0D2EEC2EDD2EFD2ED9006D6F09005
:10137A0006D3E0FBA3E0FAA3E0F9E475F0571205FF
:10138A00929006D6E070037F0122C2EFE49006A392
:10139A00F0A3F09006D3E0FBA3E0FAA3E0F9E4752A
:1013AA00F05D1205927A0679819006DA7401F0A34B
:1013BA007406F0A37481F0A37401F0FB7A0679A392
:1013CA00123356C3EF6480948250028001C35003E3
:1013DA007F002290069EE06041C2EDC2EFD2EDE4AA
:1013EA009006D6F09006D3E0FBA3E0FAA3E0F9E476
:1013FA0075F0661205929006D6E070037F0122D23C
:10140A00EFE490069EF09006D3E0FBA3E0FAA3E097
:10141A00F9E4F5F01205927F0022E49006A3F0A306
:10142A00F09006D3E0FBA3E0FAA3E0F9E475F071CB
:10143A001205929006DAE4F0A37400F0A3740CF09B
:10144A00900682E09006DDF07B017A0679A31233DA
:10145A0056C3EF6480948250028001C350037F0018
:10146A002290069EE06041C2EDC2EFD2EDE4900602
:10147A00D6F09006D3E0FBA3E0FAA3E0F9E475F016
:10148A00781205929006D6E070037F0122D2EFE42B
:10149A0090069EF09006D3E0FBA3E0FAA3E0F9E4FD
:1014AA00F5F01205927F0022C2EDD2EFD2EDE49060
:1014BA0006D6F09006D3E0FBA3E0FAA3E0F9E475C0
:1014CA00F0851205929006D6E070037F0122C2EFE2
:1014DA00900681E04401F0E49006A3F0A3F09006A0
:1014EA00D3E0FBA3E0FAA3E0F9E475F08B120592CE
:1014FA007A0679819006DA7401F0A37406F0A3746F
:10150A0081F0A37401F0FB7A0679A3123356C3EF74
:10151A006480948250028001C350037F00229006A7
:10152A009EE06041C2EDC2EFD2EDE49006D6F090A3
:10153A0006D3E0FBA3E0FAA3E0F9E475F093120501
:10154A00929006D6E070037F0122D2EFE490069EC5
:10155A00F09006D3E0FBA3E0FAA3E0F9E4F5F01279
:10156A0005927F0022E490069FF0A3F09006D3E054
:10157A00FBA3E0FAA3E0F9E475F09B1205927A0660
:10158A0079929006DA7401F0A37406F0A37492F0CB
:10159A00900683E09006DDF07B017A06799F123887
:1015AA0029C3EF6480948250028001C350037F00F4
:1015BA002290069EE06041C2EDC2EFD2EDE49006B1
:1015CA00D6F09006D3E0FBA3E0FAA3E0F9E475F0C5
:1015DA00A21205929006D6E070037F0122D2EFE4B0
:1015EA0090069EF09006D3E0FBA3E0FAA3E0F9E4AC
:1015FA00F5F01205927F0022C2EDC2EFD2EDE4901F
:10160A0006D6F09006D3E0FBA3E0FAA3E0F9E4756E
:10161A00F0AE1205929006D6E070037F0122D2EF57
:10162A00E49006A7F0A3F09006D3E0FBA3E0FAA3A8
:10163A00E0F9E475F0B31205927B017A0679A712F4
:10164A003FE3C3EF6480948250028001C350037F5A
:10165A000022900702E004F07006900701E004F00F
:10166A0002134EE49006D6F09006D3E0FBA3E0FA0C
:0B167A00A3E0F9E4F5F01205927F03F5
:011685002242
:0B3829009006D7EBF0A3EAF0A3E9F053
:103834009006DE7401F012052FFFAEF0E5F0600390
:10384400023920EF2436604224E47003023909244B
:10385400E66003023920E490067BF09006DDE0FF89
:1038640090067BE0C39F4003023919E490067DF083
:10387400C2EEC2ED9006DEF09006D7E0FBA3E0FABC
:10388400A3E0F9E475F0CA1205929006DEE0700335
:103894007F0122E490067CF0D2ED90067DE0FF25C6
:1038A400E0FFA2ECE4334FF0C2ED90067CE004F0BC
:1038B400E0B408E490067DE0FF9006DAE0FBA3E0C4
:1038C400FAA3E0F990067BE0F582758300EF120419
:1038D400E190067BE004F0D2EE9006DDE0FF900676
:1038E4007BE0C39F5004C2EF8002D2EFD2EDE4909C
:1038F40006DEF09006D7E0FBA3E0FAA3E0F9E47556
:10390400F0E61205929006DEE070037F0122C2ED1C
:10391400C2EE02385FD2EEE490069EF0E49006DE3A
:10392400F09006D7E0FBA3E0FAA3E0F9E4F5F01287
:0439340005927F0376
:01393800226C
:0B3356009006D7EBF0A3EAF0A3E9F02B
:103361009006DE7401F012052F120760338500000C
:1033710033D600FF340801073439010E345C0110E3
:103381000000348ED2EEE490067EF09006DDE0FF80
:1033910090067EE0C39F40030234899006DAE0FB89
:1033A100A3E0FAA3E0F990067EE0F58275830012AE
:1033B100046F900680F090067EE004F0C2EDE49088
:1033C10006DEF09006D7E0FBA3E0FAA3E0F9E4758E
:1033D100F0FF1205929006DEE070037F0122E49077
:1033E100067FF0900680E0FF25E0F092EFD2EDE459
:1033F1009006DEF09006D7E0FBA3E0FAA3E0F974B3
:103401000175F0071205929006DEE070037F01223C
:10341100C2ED90067FE004F0E0B408C7C2EEC2ED51
:10342100E49006DEF09006D7E0FBA3E0FAA3E0F912
:10343100740175F00E1205929006DEE070037F01B3
:1034410022D2EDE49006DEF09006D7E0FBA3E0FA8D
:10345100A3E0F9740175F0101205929006DEE07098
:10346100037F0122C2EDD2EE20EC0302338C9006E1
:103471009E7401F09006D7E0FBA3E0FAA3E0F9E423
:10348100F5F01205927F0222E490069EF0E4900688
:10349100DEF09006D7E0FBA3E0FAA3E0F9E4F5F053
:0534A1001205927F03FB
:0134A6002203
:0B3FE3009006D7EBF0A3EAF0A3E9F092
:103FEE00A37401F012052FFFAEF06003024090EEB5
:103FFE0060030240907E067F927D0A124FF3900678
:10400E009CE06F7079900692E0FCA3E0FDA3E0FEC9
:10401E00A3E0FF9004971206F1900696E06022143A
:10402E00704C900697E0FEA3E0FFE4FCFD9004B018
:10403E001206F19004AD7401F09004DD740DF08061
:10404E002D900697E0FEA3E0FFE4FCFD9004B01275
:10405E0006F1900699E0FEA3E0FFE4FCFD9004C992
:10406E001206F1E49004ADF09004DD740EF09002AF
:10407E006EE0FF90069BE0FEEF4E90026EF0E4784D
:10408E000CF6E49006DAF09006D7E0FBA3E0FAA374
:0A409E00E0F9E4F5F01205927F034B
:0140A80022F5
:05422C009006D7EFF041
:104231009006DC1206FD000000009006D8E0FCA309
:10424100E0FDA3E0FEA3E0FFE41202A19006D7E0A7
:1042510075F019A4248DF582E5F03403F583E0F8B7
:10426100A3E0F9A3E0FAA3E0FB12012E9006D7E048
:1042710075F019A42491F582E5F03403F583E0F893
:10428100A3E0F9A3E0FAA3E0FB12003D9006DC12E3
:1042910006F17FFF7EFF7D7F7C4B9006DCE0F8A37B
:1042A100E0F9A3E0FAA3E0FB120234600A400874CB
:1042B100FFFFFEFD7C0022E4FFFEFDFC9006DCE03A
:1042C100F8A3E0F9A3E0FAA3E0FB1202345006E4FC
:1042D100FFFEFDFC229006DCE0FCA3E0FDA3E0FE76
:0642E100A3E0FF1202DF62
:0142E70022B4
:10461300E49006D3F0A31206FD000000009006D834
:104623001206FD00000000E49006D3F09006D3E0EC
:10463300FFC3940E5030EF75F019A4248CF9740362
:1046430035F0FA7B01E075F003A42450FEE435F065
:104653009006E1F0A3CEF07D037C00123F049006A8
:10466300D3E004F080C6124D6AE4FCFDFE9006D848
:104673001206F17B017A0679D49006E1E4F0A37483
:10468300A1F07D017C00123F049006D4E0FCA3E07E
:10469300FDA3E0FEA3E0FFA3E0F8A3E0F9A3E0FAA3
:0C46A300A3E0FBC31206BA6003124E1025
:0146AF0022E8
:054396009006D3EFF0DA
:10439B009006DC1206FD000000009006D4E0FCA3A2
:1043AB00E0FDA3E0FEA3E0FF9006D3E0FB75F01960
:1043BB00A4248DF582E5F03403F5831206F1900603
:1043CB00D8E0FCA3E0FDA3E0FEA3E0FF75F019EB42
:1043DB00A42491F582E5F03403F5831206F1EB7515
:1043EB00F019A4248CF9740335F0FA7B019006D3F1
:1043FB00E075F003A42450FEE435F09006ECF0A336
:10440B00CEF07D037C00123E21124D6AE4FCFDFED2
:10441B009006DC1206F17B017A0679DC9006ECE45F
:0C442B00F0A374A1F07D017C00123E2182
:014437002262
:104D6A00E49006E7F0A3F0A3F09006E8F0E49006DA
:104D7A00E9F09006E8E075F019A4248CF97403357B
:104D8A00F0FA7B01A3E07E0029F9EE3AFA12045602
:104D9A00FF9006E7E06F903B4B939006E7F0900692
:104DAA00E9E004F0E0B40CCA9006E8E004F0E0B4EC
:074DBA000EBB9006E7E0FFCD
:014DC10022CF
:0940A9009006E1EFF0A3EDF0FB3D
:1040B200A31206FD00000000EB640170439006E1CC
:1040C200E0FF75F019A4248CF582E5F03403F58342
:1040D2007401F0EF75F019A4248CF9740335F0FA29
:1040E2007B019006E1E075F003A42450FEE435F074
:1040F2009006ECF0A3CEF07D037C00123E218046B8
:104102009006E2E070409006E1E0FF75F019A42409
:104112008CF582E5F03403F583E4F0EF75F019A431
:10412200248CF9740335F0FA7B019006E1E075F016
:1041320003A42450FEE435F09006ECF0A3CEF07D0B
:10414200037C00123E21124D6AE4FCFDFE9006E360
:104152001206F17B017A0679E39006ECE4F0A3748F
:09416200A1F07D017C00123E2158
:01416B002231
:104E1000E49006DCF0A31206FD00000000E490061A
:104E2000DCF09006DCE0FFC3940E500DE4FD124070
:104E3000A99006DCE004F080E9124D6AE4FCFDFE76
:104E40009006DD1206F17B017A0679DD9006ECE42E
:0C4E5000F0A374A1F07D017C00123E2153
:014E5C002233
:1019CA004106CE004106AB004106AC004106AD001F
:0B1D43009006D3EBF0A3EAF0A3E9F058
:051D4E00E49006F4F032
:101D53009006D604F012052FFFAEF0E5F060030203
:101D6300205AEF24ED603724F67003021E1F24F57A
:101D73007003021E8924F47003021F71243460036C
:101D830002205A9006D3E0FBA3E0FAA3E0F9900007
:101D930002E4F5F01205B1E475F013120592900612
:101DA300D3E0FBA3E0FAA3E0F990000212055AC3C3
:101DB3009401E5F094004003D38001C340037F0006
:101DC300229006CEE075F026A42405F582E5F034D2
:101DD30005F583E0706A9006ABF09006CEE075F0EF
:101DE30026A42405F582E5F03405F583E0703690EA
:101DF30006ABE06408602E9006CEE0045407F09032
:101E030006ABE004F0E49006D6F09006D3E0FBA323
:101E1300E0FAA3E0F9E475F01D1205929006D6E00E
:101E230070B87F01229006ABE0B408149006D3E0AB
:101E3300FBA3E0FAA3E0F9E4F5F01205927F002298
:101E43009006CEE075F026A424E0F9740435F0FA88
:101E53007B01EAC0E0E9C0E07A0679AE78AE7C06A1
:101E63007D01D0E0F9D0E0FA7E007F20120430E457
:101E73009006D6F09006D3E0FBA3E0FAA3E0F9E4E2
:101E830075F0281205929006D6E070037F01229028
:101E930006AC7407F0E49006ADF09006ACE0FFA347
:101EA300E0C39F4003021F83E025E025E024B2F551
:101EB30082E43406F583E0FCA3E0FDA3E0FEA3E0A7
:101EC300FF9006ADE025E025E024AEF582E434067C
:101ED300F583E0F8A3E0F9A3E0FAA3E0FBD312064D
:101EE300BA40749006ADE025E025E024AEF582E427
:101EF3003406F583E0FCA3E0FDA3E0FEA3E0FF903E
:101F030006CF1206F19006ADE025E025E024B2F5F8
:101F130082E43406F583E0FCA3E0FDA3E0FEA3E046
:101F2300FF9006ADE025E025E024AEF582E434061B
:101F3300F5831206F19006CFE0FCA3E0FDA3E0FEDB
:101F4300A3E0FF9006ADE025E025E024B2F582E4AE
:101F53003406F5831206F1E49006D6F09006D3E03A
:101F6300FBA3E0FAA3E0F9E475F0341205929006BE
:101F7300D6E070037F01229006ADE004F0021E9DBF
:101F83009006ACE014F0E06003021E989006BEE0F9
:101F9300FCA3E0FDA3E0FEA3E0FF9006BAE0F8A3F4
:101FA300E0F9A3E0FAA3E02FFFEA3EFEE93DFDE8F6
:101FB3003CFC78011206CB9006CEE075F019A42400
:101FC30084F582E5F03403F5831206F19006CEE042
:101FD30075F019A4248CF582E5F03403F583E060F1
:101FE300409006CEE075F019A42484F582E5F03420
:101FF30003F583E0FCA3E0FDA3E0FEA3E0FF90066E
:10200300D81206F19006CEE0FF12422C9006CEE0E5
:1020130075F019A42488F582E5F03403F5831206DC
:10202300F19006CEE075F026A42405F582E5F034A0
:1020330005F583E4F09006F6E004F070069006F5EB
:10204300E004F09006D3E0FBA3E0FAA3E0F9E4F5A3
:10205300F01205927F0022E49006D6F09006D3E0BA
:0F206300FBA3E0FAA3E0F9E4F5F01205927F0386
:01207200224B
:1050C40053890F438910758D8A758BD0D2ABD28EDC
:0150D40022B9
:103B4B0000BC01BD02BE03BF04B805B906BA07BB72
:103B5B0008B409B50AB60BB70CB00DB10EB20FB362
:103B6B0010AC11AD12AE13AF14A815A916AA17AB52
:103B7B0018A419A51AA61BA71CA01DA11EA21FA342
:103B8B00209C219D229E239F24982599269A279B32
:103B9B00289429952A962B972C902D912E922F9322
:103BAB00308C318D328E338F34883589368A378B12
:103BBB00388439853A863B873C803D813E823F8302
:103BCB0040FC41FD42FE43FF44F845F946FA47FBF2
:103BDB0048F449F54AF64BF74CF04DF14EF24FF3E2
:103BEB0050EC51ED52EE53EF54E855E956EA57EBD2
:103BFB0058E459E55AE65BE75CE05DE15EE25FE3C2
:103C0B0060DC61DD62DE63DF64D865D966DA67DBB1
:103C1B0068D469D56AD66BD76CD06DD16ED26FD3A1
:103C2B0070CC71CD72CE73CF74C875C976CA77CB91
:103C3B0078C479C57AC67BC77CC07DC17EC27FC381
:104FF300E4FCCBEDCB1DEB60160FEFCAEECA7001DC
:105003000E14F5828A83E06C903B4B93FC80E3CFD4
:02501300ECCFE0
:015015002278
:0C19DA0041072F00410730004107310099
:104869009006D3EBF0A3EAF0A3E9F0A3ECF0A3EDF3
:01487900F04E
:10487A00E4A3F09006D6E07002A3E060529006D35B
:10488A00E0FBA3E475F001120519A9F0FA12045627
:10489A00FF124FA5EFC454F0FEEEC0E09006D3E03D
:1048AA00FBA3E475F001120519A9F0FA120456FFE8
:1048BA00124FA5D0E04FFF9006D8E02FF0E0F0901D
:1048CA0006D7E024FEF09006D6E034FFF080A490EC
:0748DA0006D8E0F404FFF032
:0148E10022B4
:104FA500CEEFCEEEC39430400CEED394395006C309
:104FB500EE9430FF22EEC39441400BEED39446505D
:094FC50005EE24C9FF227FFF2242
:104FCE00CEEFCEEED394095005EE2430FF22EEC381
:104FDE00940A400BEED3940F5005EE2437FF227F38
:054FEE00FF227F3022CC
:104E5D0090000112046FFF124FA5CDEFCD12045635
:104E6D00FF124FA5EFC454F04D9006D3F090000201
:104E7D0012046FFF124FA5EFC454F0FD9000031202
:104E8D00046FFF124FA5EF4D9006D4F09006D3E0BE
:044E9D00FEA3E0FF91
:014EA10022EE
:1050340090000112046FFF124FA5CDEFCD1204565C
:0A504400FF124FA5EFC454F04DFF1A
:01504E00223F
:104DC200900759EEF0A3EFF0900759E0540FFF124D
:104DD2004FCE900001EF1204E1900759E0FFC45456
:104DE2000FFF124FCEEF1204CF90075AE0540FFF7D
:104DF200124FCE900003EF1204E190075AE0FFC475
:0D4E0200540FFF124FCE900002EF1204E19A
:014E0F002280
:10501600CDEFCDEDC4540FFF124FCEEF1204CFEDFE
:0E502600540FFF124FCE900001EF1204E12252
:1047E00090000112046FFF124FA5CDEFCD120456B9
:1047F000FF124FA5EFC454F04D90074DF09000020A
:1048000012046FFF124FA5EFC454F0FD9000031285
:10481000046FFF124FA5EF4D90074EF09000041269
:10482000046FFF124FA5EFC454F0FD900005120471
:104830006FFF124FA5EF4D90074FF0900006120446
:104840006FFF124FA5EFC454F0FD90000712046FE4
:10485000FF124FA5EF4D900750F090074DE0FCA3DD
:08486000E0FDA3E0FEA3E0FF70
:01486800222D
:104B1B009006D31206F19006D7EBF0A3EAF0A3E9C7
:014B2B00F099
:104B2C00E4A3F09006D3E0FCA3E0FDA3E0FEA3E039
:104B3C00E4FFFEFDEC54F0FC781C1206CB124FCEB9
:104B4C00A3E0FBA3E0FAA3E0F9A3E0F582758300F0
:104B5C00EF1204E19006D3E0FCA3E0FDA3E0FEA37A
:104B6C00E0FF78041206DE9006D31206F19006DA06
:094B7C00E004F0E0C3940840AA33
:014B8500220D
:1031F800E4900730F07B017A007955124E5D900714
:1032080032EEF0A3EFF07A007957124E5D90073452
:10321800EEF0A3EFF0900732E0FEA3E0FFC3EE94D8
:1032280010500302334DD3EF941CEE941040030268
:10323800334D900735E0941C900734E09400400328
:1032480002334D900160743AF0900730E004F0903A
:10325800004AE0FF7A017961125016900730E024A5
:1032680002F07A0179637F03125016900730E02448
:1032780002F0E02402F0900732E0A3E090072FF07C
:10328800900734E0FEA3E0FF900733E02FFF90079C
:1032980032E03EC313FEEF13FF90072FE0FDC39FFC
:1032A800E49E503B75F019EDA42484F582E5F034D2
:1032B80003F583E0FCA3E0FDA3E0FEA3E0FF900795
:1032C80030E07A002460F9EA3401FA7B01124B1BE2
:1032D800900730E02408F090072FE004F080A190D8
:1032E8000730E024F9FF7B017A0179651250167ADC
:1032F800017961900730E024FFFDE434FFFC1248B7
:1033080069900731EFF0E0FF900730E07C0024601F
:10331800F9EC3401FA7B01125016900730E02402D0
:10332800F0E0FF2460F582E43401F583740DF07455
:10333800602FF582E43401F583740AF0900730E0D9
:0D3348002402F080037F0022900730E0FF98
:013355002255
:1000360002034BE86480F8E933E83360110460F0AA
:10004600ED33EC337009E8FCE9FDEAFEEBFF220430
:1000560060DED3EB9FEA9EE99DE8C2E78CF0C2F72B
:1000660095F0400CE8CCF8E9CDF9EACEFAEBCFFBF7
:1000760012031685D0F05804700320D5B3E8047037
:10008600075002B2D502035592D5EC0460F7E4CCD2
:10009600C0E0C398F8603B94186008400DD0E0FBC0
:1000A60002032DE4FBFAC9FC8028E830E406E4C923
:1000B600FBE4CAFCE830E305E4C9CACBFCE8540714
:1000C6006010F8C3E913F9EA13FAEB13FBEC13FC1F
:1000D600D8F130F52FC3E49CFCEF9BFFEE9AFEEDC2
:1000E60099FDD0E0FBEF4E4D4C701222DB0302036C
:1000F60052EC2CFCEF33FFEE33FEED33FDED30E733
:10010600EB02032DEF2BFFEE3AFEED39FDD0E0FBBF
:1001160050130BBB0003020355ED13FDEE13FEEF68
:0801260013FFEC13FC02032D92
:10012E00EC4D6011E8497017ED33EC3304600DE4CB
:10013E00FCFFFEFD22E933E8330470F802034B1294
:10014E00031658046009E4CC248150062850090295
:10015E000355284003020352C0E0EB4A7044B980B5
:10016E0006D0E0FB020341EF4E701CBD8008EBFF92
:10017E00EAFEE9FD80EBE98DF0A4FEE5F002021740
:10018E00E9CDF9EAFEEBFFEF89F0A4FCE5F0CE89AC
:10019E00F0A42EFFE435F0CD89F0A42DFEE435F069
:1001AE008067EF4E7005BD80D780C3EF8BF0A4AC97
:1001BE00F0EE8BF0A42CFCE435F0F8EF8AF0A42CD2
:1001CE00E5F038FCE433CB8DF0A42CFCE5F03BF8E5
:1001DE00EE8AF0A42CFCE5F038F8E433CF89F0A4D5
:1001EE002CFCE5F038CF3400CE89F0A42FFFE5F0DB
:1001FE003EFEE433C98DF0A42EFEE5F039CD8AF033
:10020E00A42FFFE5F03EFEE43DFD33D0E0FB5007AA
:10021E000BBB000F020355EC2CFCEF33FFEE33FE4D
:06022E00ED33FD02032D7B
:1002340074F8CC6480CCC86480C8F582046043C37D
:10024400EB9FF5F0EA9E42F0E99D42F0E89C45F010
:1002540060305018E5825FFFE582F42B5582FB5035
:10026400210ABA001D09B90019088016E5825BFB52
:10027400E582F42F5582FF50090EBE00050DBD0026
:10028400010CC3EB9FF5F0EA9E42F0E99D42F0E8D1
:0D0294009C45F06007CC4820E701B3EC2248
:1002A10075F020800E75F010800575F0087D007ED8
:1002B100007F003392D530D5031206ACEC334010E9
:1002C100EF33FFEE33FEED33FDEC33FCD5F0ED22E1
:0E02D100E5F0247EA2D513CC92E7CDCEFF221D
:1002DF00EDD2E7CD33EC3392D524814006E4FFFE17
:1002EF00FDFC22FCE4CFCECDCC24E0501174FF8076
:1002FF00EDC3CC13CCCD13CDCE13CECF13CF047013
:07030F00F030D5DE0206AC60
:10031600E9D2E7C933E833F892D5EDD2E7CD33EC2D
:0703260033FC5002B2D522A6
:10032D00EC30E7100FBF000C0EBE00080DBD000431
:10033D000BEB6014A2D5EB13FCED92E7FD2274FFDD
:10034D00FCFDFEFF22E480F8A2D574FF13FC7D8036
:03035D00E480EF4A
:10459300024438E493A3F8E493A34003F68001F2C2
:1045A30008DFF48029E493A3F85407240CC8C33329
:1045B300C4540F4420C8834004F456800146F6DFF8
:1045C300E4800B0102040810204080901686E47EEC
:1045D300019360BCA3FF543F30E509541FFEE493ED
:1045E300A360010ECF54C025E060A840B8E493A3B4
:1045F300FAE493A3F8E493A3C8C582C8CAC583CADF
:10460300F0A3C8C582C8CAC583CADFE9DEE780BE96
:0119E6000000
:10036000E709F608DFFA8046E709F208DFFA803E7F
:1003700088828C83E709F0A3DFFA8032E309F6086C
:10038000DFFA8078E309F208DFFA807088828C83D4
:10039000E309F0A3DFFA806489828A83E0A3F60888
:1003A000DFFA805889828A83E0A3F208DFFA804C62
:1003B00080D280FA80C680D4806980F28033801039
:1003C00080A680EA809A80A880DA80E280CA8033A2
:1003D00089828A83ECFAE493A3C8C582C8CCC5831A
:1003E000CCF0A3C8C582C8CCC583CCDFE9DEE780EA
:1003F0000D89828A83E493A3F608DFF9ECFAA9F069
:10040000EDFB2289828A83ECFAE0A3C8C582C8CCBE
:10041000C583CCF0A3C8C582C8CCC583CCDFEADED7
:10042000E880DB89828A83E493A3F208DFF980CC39
:1004300088F0EF60010E4E60C388F0ED2402B40432
:100440000050B9F582EB2402B4040050AF232345D9
:0604500082239003B0734B
:10045600BB010689828A83E0225002E722BBFE02A4
:09046600E32289828A83E49322D7
:10046F00BB010CE58229F582E5833AF583E0225042
:10047F0006E92582F8E622BBFE06E92582F8E2228C
:0D048F00E58229F582E5833AF583E49322A6
:10049C00BB010FF8E58229F582E5833AF583E02864
:1004AC00F0225009C58229F8E58226F622BBFE0906
:1004BC00C58229F8E22582F222F8EA2583F583E940
:0304CC0093282250
:1004CF00BB010689828A83F0225002F722BBFE010C
:0204DF00F32206
:1004E100F8BB010DE58229F582E5833AF583E8F051
:1004F100225006E92582C8F622BBFE05E92582C8FD
:02050100F222E4
:10050300C5F0F8A3E028F0C5F0F8E5821582700283
:060513001583E038F02220
:10051900A3F8E0C5F025F0F0E58215827002158395
:06052900E0C838F0E822F2
:10052F00BB010A89828A83E0F5F0A3E02250068797
:10053F00F009E71922BBFE07E3F5F009E319228959
:0B054F00828A83E493F5F0740193228C
:10055A00BB0110E58229F582E5833AF583E0F5F0DF
:10056A00A3E0225009E92582F886F008E622BBFEBC
:10057A000AE92582F8E2F5F008E222E5832AF58302
:08058A00E993F5F0A3E99322C7
:10059200BB010A89828A83F0E5F0A3F0225006F7B4
:0F05A20009A7F01922BBFE06F3E5F009F31922B1
:1005B100F8BB0111E58229F582E5833AF583E8F07C
:1005C100E5F0A3F0225009E92582C8F608A6F02239
:0D05D100BBFE09E92582C8F2E5F008F22220
:1005DE0075F008758200EF2FFFEE33FECD33CDCCD4
:1005EE0033CCC58233C5829BED9AEC99E582984057
:1005FE000CF582EE9BFEED9AFDEC99FC0FD5F0D634
:10060E00E4CEFBE4CDFAE4CCF9A88222B800C1B95D
:10061E000059BA002DEC8BF084CFCECDFCE5F0CB9B
:10062E00F97818EF2FFFEE33FEED33FDEC33FCEBD4
:10063E0033FB10D703994004EB99FB0FD8E5E4F98F
:10064E00FA227818EF2FFFEE33FEED33FDEC33FC7C
:10065E00C933C910D7059BE99A4007EC9BFCE99A70
:10066E00F90FD8E0E4C9FAE4CCFB2275F010EF2FB5
:10067E00FFEE33FEED33FDCC33CCC833C810D707B5
:10068E009BEC9AE899400AED9BFDEC9AFCE899F8F0
:0E069E000FD5F0DAE4CDFBE4CCFAE4C8F92283
:104EA200C2D5E830E70FB2D5E4C39BFBE49AFAE43B
:104EB20099F9E498F8EC30E717B2D5124ED81206F9
:104EC2001AE4C39BFBE49AFAE499F9E498F88003A4
:104ED20012061A30D50DE4C39FFFE49EFEE49DFD49
:044EE200E49CFC222E
:0E06AC00C3E49FFFE49EFEE49DFDE49CFC225F
:1006BA00EB9FF5F0EA9E42F0E99D42F0E89C45F096
:0106CA00220D
:1006CB00E8600FECC313FCED13FDEE13FEEF13FF0D
:0306DB00D8F12231
:1006DE00E8600FEFC333FFEE33FEED33FDEC33FC7A
:0306EE00D8F1221E
:0C06F100ECF0A3EDF0A3EEF0A3EFF0227C
:1006FD00A8828583F0D083D08212071412071412BA
:10070D000714120714E473E493A3C583C5F0C583DE
:10071D00C8C582C8F0A3C583C5F0C583C8C582C846
:01072D0022A9
:0C072E00A42582F582E5F03583F58322D6
:10073A00D083D082F8E4937012740193700DA3A34E
:10074A0093F8740193F5828883E473740293686062
:06075A00EFA3A3A380DF62
:10076000D083D082F8E4937012740193700DA3A328
:1007700093F8740193F5828883E473740293B5F05F
:0D078000067403936860E9A3A3A3A380D8C7
:00000001FF
