:10468100C2AF53D7F912485C1248F912516812535C
:10469100111251981252EE1243B57F7212512F121C
:1046A1005298E490070BF0A3F090070FF0A3F0905D
:1046B1000713F0A3F0900717F0A3F0D2AF780C76B0
:1046C100139006DC04F0A3F0A37406F0A37492F037
:1046D100A3740CF07B007A00790C7F581251C57BD2
:1046E100017A0279701221197B017A07790B12453F
:1046F100317B017A07790F1229FE7B017A07791341
:10470100121DE97B017A0779171213B77B017A072A
:104711007907123B827B017A02797412078D80BF7F
:014721002275
:104531009006D4EBF0A3EAF0A3E9F0E49006FBF0D7
:104541009006D704F012052FFFAEF0E5F07076EF7C
:1045510024A9601F2457706D9006D4E0FBA3E0FAF4
:10456100A3E0F9900002E4F5F01205B1E475F0570B
:104571001205929006D4E0FBA3E0FAA3E0F99000C3
:104581000212055AC3940FE5F094004003D3800151
:10459100C340037F00229006DC7401F0A3F0A374F2
:1045A10006F0A37492F0A3740CF07B007A00790CEE
:1045B1007F581251C59006FDE004F070069006FC8C
:1045C100E004F08093E49006D7F09006D4E0FBA3DA
:0D45D100E0FAA3E0F9E4F5F01205927F0393
:0145DE0022BA
:03001B00024DCFC4
:104DCF00C0E0C083C082758D8A758BD090070EE0CE
:104DDF0004F0700690070DE004F0900712E004F065
:104DEF007006900711E004F0900716E004F07006CB
:104DFF00900715E004F0900273E004F07006900243
:104E0F0072E004F090070AE004F07006900709E0E2
:104E1F0004F0900277E004F07006900276E004F060
:074E2F00D082D083D0E032F5
:1052EE00759E82759D2D759852D2ACC299C298D278
:0252FE00BC22D0
:1051980075D10075D20075E60043D28043D2204312
:1051A800D20753E6F043E6401247227F03125338F2
:0D51B8007F647E001252B2D2AE43D120229D
:0300330002383060
:10383000C0E0C0F0C083C082C0D0EEC0E0EFC0E006
:10384000E5E654079004DEF0E0FF75F026A42400BE
:10385000F582E5F03405F583E09004DFF075F0269D
:10386000EFA424E0F582E5F03404F583C083C08240
:103870009004DFE0FFD082D08375F00412072EE4BD
:10388000F09004DEE0FE75F026A424E1F582E5F078
:103890003404F58375F004EF12072EE5DBF075F0C4
:1038A00026EEA424E2F582E5F03404F583C083C05B
:1038B000829004DFE0FFD082D08375F00412072EDF
:1038C000E5DAF09004DEE0FE75F026A424E3F5824C
:1038D000E5F03404F58375F004EF12072EE5D9F016
:1038E0009004DFE0045407FF75F026EEA42400F5F1
:1038F00082E5F03405F583EFF09004DEE0FF75F02B
:1039000026A42405F582E5F03405F5837401F0EF73
:10391000045407FFE5E654F04FF5E6E5E654077575
:10392000F019A42482F582E5F03403F583E06407FE
:103930005407FFE5D254F84FF5D2E5E6540775F089
:1039400019A42483F582E5F03403F583E0F5D4C2AD
:01395000DF97
:10395100D0E0FFD0E0FED0D0D082D083D0F0D0E054
:013961003233
:0753380053D1F8EF42D1222E
:1052B200CBEFCBCAEECAE4F9F87F557E05FDFC12AE
:0552C20050EB8FD42227
:10472200E49006D4F0A3F09006D4F09006D4E0FF13
:10473200C3940840030247BE75F026EFA42400F597
:1047420082E5F03405F583E4F075F026EFA4240346
:10475200F582E5F03405F583E4F075F026EFA42444
:1047620004F582E5F03405F5837420F075F026EF48
:10477200A42405F582E5F03405F583E4F09006D52E
:10478200F09006D5E0FFC3940850289006D4E07557
:10479200F026A424E0F582E5F03404F58375F004F4
:1047A200EF12072E1206FD000000009006D5E0046D
:0C47B200F080CE9006D4E004F002472D09
:0147BE0022D8
:08406A009006EBECF0A3EDF071
:10407200E49006EFF0A3F0A3F09006EBE0FEA3E0DD
:10408200FF9006EEE02F9006EDE03EC3940440045C
:10409200E4FEFF22E49006EFF0A3F09006EBE0FED0
:1040A200A3E0FFC39006F0E09F9006EFE09E40037E
:1040B200024144A2AFE4339006F1F0C2AF9006EFA2
:1040C200E0FEA3E07802C333CE33CED8F9FFF58207
:1040D2008E8312046FF5BC8F828E83A312046FF558
:1040E200BD9006EFE0FEA3E07802C333CE33CED814
:1040F200F9FFF5828E83A3A312046FF5BE8F828E21
:1041020083A3A3A312046FF5BF9006EDE0FEA3E024
:10411200FF8EC78FC675B90575B9029006F1E02406
:10412200FF92AF9006EEE004F070069006EDE00418
:10413200F09006F0E004F070069006EFE004F00262
:0A414200409D9006EFE0FEA3E0FFB1
:01414C002250
:08414D009006E0ECF0A3EDF098
:10415500E49006E4F0A3F0A3F09006E0E0FEA3E00F
:10416500FF9006E3E02F9006E2E03EC3940440048E
:10417500E4FEFF22E49006E4F0A3F09006E0E0FE02
:10418500A3E0FFC39006E5E09F9006E4E09E4003B0
:10419500024223A2AFE4339006E6F0C2AF9006E2F6
:1041A500E0FEA3E0FF8EC78FC675B901A3E0FCA3AF
:1041B500E0FDCEECCE7802C333CE33CED8F9FFF591
:1041C500828E83E5BC1204E18F828E83A3E5BD1246
:1041D50004E1EDCEECCE7802C333CE33CED8F9FF71
:1041E500F5828E83A3A3E5BE1204E18F828E83A39D
:1041F500A3A3E5BF1204E19006E6E024FF92AF9089
:1042050006E3E004F070069006E2E004F09006E5AF
:10421500E004F070069006E4E004F00241809006A8
:06422500E4E0FEA3E0FF4F
:01422B002270
:10512F00E4FE8F0AD2C0850AC0EE75F003A424F303
:10513F00F582E43406F583E4F0A3F0EE75F003A4F2
:10514F0024F2F582E43406F5837401F00EEEB40711
:08515F00D8E4900707F0A3F06B
:015167002225
:0A532E00C2AFD2C0850AC0D2AF2280
:0B3B82009006D4EBF0A3EAF0A3E9F0FA
:093B8D00E4A3F0A3F09006F8F0A7
:103B96009006D904F09006D4E0FBA3E0FAA3E0F97E
:103BA60012052FFFAEF0E5F06003023C76EF24C36A
:103BB6006022243D6003023C769006D4E0FBA3E03D
:103BC600FAA3E0F9900002E4F5F01205B1E475F00D
:103BD6003D1205929006D4E0FBA3E0FAA3E0F9902B
:103BE600000212055AC39464E5F094004003D380A2
:103BF60001C340037F0022E49006D8F09006FAE065
:103C060004F070069006F9E004F0E49006D7F09010
:103C160006D7E075F003A424F2F582E43406F583B2
:103C2600E0FF9006D7E075F003A424F3F582E434B0
:103C360006F583E0FEA3E04F4E70079006D804F029
:103C4600801F9006D7E075F003A424F3F582E434D0
:103C560006F583E4F0A3F09006D7E004F0E0B4079D
:103C6600AE9006D8E06003023BBF12532E023BBF64
:103C7600E49006D9F09006D4E0FBA3E0FAA3E0F9BD
:083C8600E4F5F01205927F0342
:013C8E002213
:101743005400063C3C7555534F5F323E3E0000004B
:10175300000000000000006028001A3C2D2D2047E7
:10176300454F5350484552415F32303132202D2D81
:101773003E00000000000000000000000000000028
:10178300000000480042303030303100000041009A
:101793004A0141004B1441004C0041005100610ECD
:1017A30000520000000000000000000000000000E4
:1017B3000000000000000000000000000000000026
:1017C3000000000000000000000000000000000016
:1017D3000000000000000000000000000000000006
:1017E30000000000000000000000000000000000F6
:1017F30000000000000000000000000000000000E6
:1018030000000000000000000000000000000000D5
:1018130000000000000000000000000000000000C5
:1018230000000000000000000000000000000000B5
:1018330000000000000000000000000000000000A5
:101843000000000000000000000000000000000095
:101853000000000000000000000000000000000085
:101863000000000000000000000000000000000075
:101873000000000000000000000000000000000065
:101883000000000000000000000000000000000055
:101893000000000000000000000000000000000045
:1018A3000000000000000000000000000000000035
:1018B300610E016000000000000000000000000055
:1018C3000000000000000000000000000000000015
:1018D3000000000000000000000000000000000005
:1018E30000000000000000000000000000000000F5
:1018F30000000000000000000000000000000000E5
:1019030000000000000000000000000000000000D4
:1019130000000000000000000000000000000000C4
:1019230000000000000000000000000000000000B4
:1019330000000000000000000000000000000000A4
:101943000000000000000000000000000000000094
:101953000000000000000000000000000000000084
:101963000000000000000000000000000000000074
:101973000000000000000000000000000000000064
:101983000000000000000000000000000000000054
:101993000000000000000000000000000000000044
:1019A3000000000000000000000000000000000034
:1019B3000000000000000000000000000000000024
:1019C300000041026EC041026F004100000041006F
:1019D30001004100020041000300410004004100F6
:0219E3000500FD
:03002300024C1973
:104C1900C0E0C083C082C0D0EEC0E0EFC0E0C2AF48
:104C290030981EC298900378E02478F582E4340223
:104C3900F583E599F0900378E004F090037AE004B5
:104C4900F0309930C299900050E0FF90004FE0FE9B
:104C5900C39F501574602EF582E43401F583E0F5A5
:104C69009990004FE004F0800B90004FE4F090021F
:104C790070F0A3F0D2AFD0E0FFD0E0FED0D0D08268
:054C8900D083D0E032F1
:10516800C299C298123E94E4900378F0A3F0A3F099
:1051780090004DF0A3F0A3F0A3F0C2B590026E74B6
:10518800C0F0E4900270F0A3F0900274F0A3F02253
:10343D00E4FF900160F0A374D7F0A37429F090001D
:10344D004AE0900163F0A37402F090026EE09001E7
:10345D0066F0E4EFC39414501A74062FF582E43429
:10346D0000F583E0FE74672FF582E43401F583EEF9
:10347D00F0800C74672FF582E43401F583E4F00FCE
:10348D00EFB414CFE4FFEFC39408501874422FF536
:10349D0082E43400F583E0FE747B2FF582E4340181
:1034AD00F583EEF00FEFB405DD9004DDE0900180C3
:1034BD00F0E4FF9004DDE0FEEFC39E504C75F01973
:1034CD00EFA42480F582E5F03403F583E0FEC454C7
:1034DD00F0FE75F019EFA42481F582E5F03403F5C3
:1034ED0083E04EFE75F002EFA42481F582E5F03401
:1034FD0001F583EEF075F002EFA42482F582E5F07C
:10350D003401F583E4F00F80AAE4FF90004BE0FE58
:10351D00EFC39E502D741A2FF582E43400F583E02D
:10352D00FE9004DDE075F002A42FF582E435F0F590
:10353D0083E5822481F582E5833401F583EEF00F76
:10354D0080C99004DDE025E0FD241CFF90004BE0D8
:10355D00FC2F900165F07E017F61ED2420FDEC2DA7
:10356D00FD12523C90004BE0FE9004DDE0FD75F045
:10357D0002A42EF582E435F0F583E5822481F582EF
:10358D00E5833401F583EFF0ED25E02422FFEE2FE6
:01359D00FF2E
:01359E00220A
:030006007F002256
:03000E007F00224E
:030016007F002246
:1036F000E4FF9006D4F0900057E014FEEFC39E4024
:103700000302382174582FF582E43400F583E0FE7B
:103710009004DDE0FDEEC39D400302381B74592F79
:10372000F582E43400F583E0FDC4540F60030238F1
:103730001475F019EEA42481F582E5F03403F583C5
:10374000E06D705074582FF582E43400F583E0FE8C
:1037500075F019A42482F582E5F03403F583E0FDC9
:10376000745A2FF582E43400F583E0FCED6C70248C
:1037700075F019EEA42483F582E5F03403F583E0B7
:10378000FE745B2FF582E43400F583E0FDEE6D708E
:1037900003023811745A2FF582E43400F583E0FEF9
:1037A00074582FF582E43400F583E075F019A424F1
:1037B00082F582E5F03403F583EEF0745B2FF58239
:1037C000E43400F583E0FE74582FF582E43400F50C
:1037D00083E075F019A42483F582E5F03403F583C2
:1037E000EEF074592FF582E43400F583E0540FFEB7
:1037F00074582FF582E43400F583E075F019A424A1
:1038000081F582E5F03403F583EEF09006D474017F
:10381000F00F8001000F0F0F0236F67F01124F00EC
:0F382000229006D4E06003124C8EE4FF124F009A
:01382F002276
:03001E007F00223E
:030026007F002236
:03002E007F00222E
:03533F007F0022CA
:1052DB0090026E7440F0780C76121248F9E4FF12CB
:0352EB004F00224F
:100C0500E4F508F509900160F0A374D7F0A3742901
:100C1500F090004AE0900163F0A37415F090026E25
:100C2500E0900166F0750807E4F5099004DDE0FF42
:100C3500E509C39F4003020FDAAF08050874602F6A
:100C4500F582E43401F583E509F075F019A42480F3
:100C5500F582E5F03403F583E0C454F0FF75F0192F
:100C6500E509A42481F582E5F03403F583E04FFF1F
:100C7500AE08050874602EF582E43401F583EFF0C3
:100C850075F019E509A42480F582E5F03403F583B0
:100C9500E0147003020E52147003020F0124026067
:100CA50003020FD575F019E509A42481F582E5F055
:100CB5003403F583E024FD7003020D532403600320
:100CC500020FD575F019E509A4248CF582E5F034F9
:100CD50003F583E0640175F019702FE509A4248AF2
:100CE500F582E5F03403F583E0FFAE08050874608E
:100CF5002EF582E43401F583EFF075F019E509A4CA
:100D05002489F582E5F03403802DE509A42486F5D0
:100D150082E5F03403F583E0FFAE08050874602E24
:100D2500F582E43401F583EFF075F019E509A424A3
:100D350085F582E5F03403F583E0FFAE0805087418
:100D4500602EF582E43401F583EFF0020E1F75F095
:100D550019E509A4248CF582E5F03403F583E064F4
:100D65000175F0197051E509A4248BF582E5F0347D
:100D750003F583E0FFAE08050874602EF582E434C0
:100D850001F583EFF075F019E509A4248AF582E5EC
:100D9500F03403F583E0FFAE08050874602EF58294
:100DA500E43401F583EFF075F019E509A42489F51C
:100DB50082E5F03403804FE509A42487F582E5F048
:100DC5003403F583E0FFAE08050874602EF582E470
:100DD5003401F583EFF075F019E509A42486F58251
:100DE500E5F03403F583E0FFAE08050874602EF5E1
:100DF50082E43401F583EFF075F019E509A4248543
:100E0500F582E5F03403F583E0FFAE08050874606C
:100E15002EF582E43401F583EFF075F019E509A4A8
:100E25002482F582E5F03403F583E0FFAE0805087A
:100E350074602EF582E43401F583EFF075F019E561
:100E450009A42483F582E5F03403020FC175F01976
:100E5500E509A42481F582E5F03403F583E0600318
:100E6500020FD575F019E509A42487F582E5F0345C
:100E750003F583E0FFAE08050874602EF582E434BF
:100E850001F583EFF075F019E509A42486F582E5EF
:100E9500F03403F583E0FFAE08050874602EF58293
:100EA500E43401F583EFF075F019E509A42485F51F
:100EB50082E5F03403F583E0FFAE08050874602E83
:100EC500F582E43401F583EFF075F019E509A42402
:100ED50084F582E5F03403F583E0FFAE0805087478
:100EE500602EF582E43401F583EFF075F019E5091C
:100EF500A42482F582E5F03403020FC175F019E5EB
:100F050009A42481F582E5F03403F583E014605AE1
:100F1500046003020FD575F019E509A42487F5824D
:100F2500E5F03403F583E0FFAE08050874602EF59F
:100F350082E43401F583EFF075F019E509A4248600
:100F4500F582E5F03403F583E0FFAE08050874602B
:100F55002EF582E43401F583EFF075F019E509A467
:100F65002482F582E5F03403805275F019E509A471
:100F75002487F582E5F03403F583E0FFAE08050824
:100F850074602EF582E43401F583EFF075F019E510
:100F950009A42486F582E5F03403F583E0FFAE0865
:100FA500050874602EF582E43401F583EFF075F0E1
:100FB50019E509A42482F582E5F03403F583E0FF01
:100FC500AE08050874602EF582E43401F583EFF070
:100FD5000509020C30E50824FB900165F07E017FD0
:100FE50061E50814FD12523C74602508F582E4346D
:090FF50001F583EFF0E50804FFAB
:010FFE0022D0
:103F850090005DE0FF90037BEFF090005CE0FF9018
:103F9500037CEFF090005BE0FF90037DEFF0900075
:103FA5005AE0FF90037EEFF090037BE0FCA3E0FD79
:103FB500A3E0FEA3E0FF9007281206F1900061E060
:103FC500FF90037BEFF0900060E0FF90037CEFF043
:103FD50090005FE0FF90037DEFF090005EE0FF90C2
:103FE500037EEFF090037BE0FCA3E0FDA3E0FEA3DE
:103FF500E0FF90072C1206F1900059E0FFEF120741
:104005003A401300404B01405702000040639000C6
:1040150058E0FFEFC0E0900728E0FCA3E0FDA3E037
:10402500FEA3E0FF9006D51206F190072CE0FCA355
:10403500E0FDA3E0FEA3E0FF9006D91206F1D0E073
:10404500FF1245DF8019900058E0FF7D001242F213
:10405500800D900058E0FF7D011242F28001007F43
:0440650000124F00F6
:014069002234
:103C8F00750B00900160E4F090016174D7F0900122
:103C9F00627429F090004AE0FF900163EFF0900109
:103CAF006474CCF0900165740BF0900058E0FF8FB6
:103CBF000B9004DDE0FFE50BC39F40067F09124F19
:103CCF000022900166E50BF0AF0B75F019EFA424FD
:103CDF008CF582E5F03403F583E0FF900167EFF098
:103CEF00AF0B75F019EFA4248DF582E5F03403F5D1
:103CFF0083E0FCA3E0FDA3E0FEA3E0FF90037B12B3
:103D0F0006F190037BE0FF90016BEFF090037CE0F6
:103D1F00FF90016AEFF090037DE0FF900169EFF0F3
:103D2F0090037EE0FF900168EFF0AF0B75F019EF95
:103D3F00A42491F582E5F03403F583E0FCA3E0FDC4
:103D4F00A3E0FEA3E0FF90037B1206F190037BE05C
:103D5F00FF90016FEFF090037CE0FF90016EEFF0AA
:103D6F0090037DE0FF90016DEFF090037EE0FF90F8
:103D7F00016CEFF07E017F617D0F12523C9001705C
:043D8F00EFF07F11C1
:013D9300220D
:104B2B0090075CE4F0900057E0FFEF24E5FF90075F
:104B3B005CEFF090075CE0FFEF6054900058E0FFF3
:104B4B007B017A007959EBC0E0EAC0E0E9C0E07B79
:104B5B00017A00796D90071FEBF0A3EAF0A3E9F05F
:104B6B007B017A007972900722EBF0A3EAF0A3E9BC
:104B7B00F090075CE0FE900725EEF0D0E0F9D0E076
:104B8B00FAD0E0FB122E6E7F00124F002280067FC0
:074B9B0009124F00227F0008
:014BA20022F0
:0C532200122C861250597F00124F0022FE
:104F000090075DEFF0900160E4F090016174D7F0DC
:104F10009001627429F090004AE0FF900163EFF085
:104F2000900056E0FF900167EFF090016474FFF08D
:104F300090026EE0FF900166EFF090075DE0FF9059
:104F40000168EFF09001657404F07E017F607D09D7
:0B4F500012523C900169EFF07F0A2232
:0D4BA30090073DEEF0A3EFF090073FEDF01E
:104BB000900740E4F0900741E4F0900741E4F09062
:104BC000073FE0FF900741E0FEEEC39F5036C2D79B
:104BD000900741E0FF90073DE0FCA3E0FD8D828C53
:104BE00083E5822FF582E43583F583E0FF9007406B
:104BF000E02FF030D706900740E004F0900741E046
:104C000004F080BB900740E0FFC374FF9FFF900754
:084C100040EFF0900740E0FFC7
:014C18002279
:10243200900752E4F0900753E4F0900056E0FFEF6B
:10244200131313541FFFEF541FFF900752EFF09026
:102452000752E0FFEFC3940E400302272990016068
:10246200E4F090016174D7F09001627428F0900159
:1024720063E4F0900056E0FF900164EFF090016594
:102482007403F0900752E0FF75F019EFA42480F571
:1024920082E5F03403F583E0FFEF12073A24AC0043
:1024A200260401266102000026F3900752E0FF7520
:1024B200F019EFA42481F582E5F03403F583E0FFFF
:1024C200EF12073A24D000255C03000026F39007A0
:1024D20052E0FF75F019EFA4248CF582E5F0340385
:1024E200F583E0FFEFB40139900752E0FF75F01970
:1024F200EFA42489F582E5F03403F583E0FF90012F
:1025020066EFF0900752E0FF75F019EFA4248AF508
:1025120082E5F03403F583E0FF900167EFF00226D5
:10252200F3900752E0FF75F019EFA42485F582E5D8
:10253200F03403F583E0FF900166EFF0900752E07C
:10254200FF75F019EFA42486F582E5F03403F583D4
:10255200E0FF900167EFF00226F3900752E0FF756B
:10256200F019EFA4248CF582E5F03403F583E0FF43
:10257200EF64017051900752E0FF75F019EFA42447
:1025820089F582E5F03403F583E0FF900752E0FE1F
:1025920074602EF582E43401F583EFF0900752E087
:1025A200FF75F019EFA4248AF582E5F03403F58370
:1025B200E0FF900752E0FE74602EF582E43401F5EC
:1025C20083EFF00226F3900752E0FF75F019EFA4B3
:1025D2002485F582E5F03403F583E0FF900166EF90
:1025E200F0900752E0FF75F019EFA42486F582E51A
:1025F200F03403F583E0FF900167EFF00226F30267
:1026020026F3900752E0FF75F019EFA42481F582BA
:10261200E5F03403F583E0FFEF12073A26250000C8
:102622000026F3900752E0FF75F019EFA42486F517
:1026320082E5F03403F583E0FF900166EFF0900746
:1026420052E0FF75F019EFA42487F582E5F0340318
:10265200F583E0FF900167EFF00226F30226F39084
:102662000752E0FF75F019EFA42481F582E5F034FA
:1026720003F583E0FFEF12073A26850026BD01002D
:102682000026F3900752E0FF75F019EFA42486F5B7
:1026920082E5F03403F583E0FF900166EFF09007E6
:1026A20052E0FF75F019EFA42487F582E5F03403B8
:1026B200F583E0FF900167EFF08036900752E0FF6C
:1026C20075F019EFA42486F582E5F03403F583E072
:1026D200FF900166EFF0900752E0FF75F019EFA44A
:1026E2002487F582E5F03403F583E0FF900167EF7C
:1026F200F07B017A0179607D08123962900753EF0D
:10270200F07E017F60900753E0FD124BA3900753C8
:10271200E0FE74602EF582E43401F583EFF0900759
:0927220053E0FFEF04FF227F00E9
:01272B00228B
:100FFF00900754E4F0900755E4F0900056E0FFEFAF
:10100F00131313541FFFEF541FFF900754EFF0906B
:10101F000754E0FFEFC3940E40030213B490016036
:10102F00E4F090016174D7F09001627428F09001A0
:10103F0063E4F0900056E0FF900164EFF0900165DB
:10104F007406F0900754E0FF75F019EFA42480F5B3
:10105F0082E5F03403F583E0FFEF12073A107900D1
:10106F0012250112DB0200001378900754E0FF7580
:10107F00F019EFA42481F582E5F03403F583E0FF46
:10108F00EF12073A109D00112903000011CA9007B3
:10109F0054E0FF75F019EFA4248CF582E5F03403CA
:1010AF00F583E0FFEFB40139900754E0FF75F019B5
:1010BF00EFA42489F582E5F03403F583E0FF900176
:1010CF0066EFF0900754E0FF75F019EFA4248AF54E
:1010DF0082E5F03403F583E0FF900167EFF0021132
:1010EF00CA900754E0FF75F019EFA42485F582E547
:1010FF00F03403F583E0FF900166EFF0900754E0C2
:10110F00FF75F019EFA42486F582E5F03403F5831B
:10111F00E0FF900167EFF00211CA900754E0FF75EE
:10112F00F019EFA4248CF582E5F03403F583E0FF8A
:10113F00EF64017050900754E0FF75F019EFA4248D
:10114F0089F582E5F03403F583E0FF900754E0FE64
:10115F0074602EF582E43401F583EFF0900754E0CC
:10116F00FF75F019EFA4248AF582E5F03403F583B7
:10117F00E0FF900754E0FE74602EF582E43401F531
:10118F0083EFF08036900754E0FF75F019EFA42439
:10119F0085F582E5F03403F583E0FF900166EFF00B
:1011AF00900754E0FF75F019EFA42486F582E5F05F
:1011BF003403F583E0FF900167EFF0900754E0FFF1
:1011CF0075F019EFA42482F582E5F03403F583E07E
:1011DF00FFEF5407FFEF12073A11F80011FF01124A
:1011EF000705120F0700001217900168E4F0801D29
:1011FF009001687402F080159001687404F0800DFE
:10120F009001687406F08005900168E4F090016920
:10121F00740AF0021378900754E0FF75F019EFA4E9
:10122F002481F582E5F03403F583E0FFEF12073AEE
:10123F0012460000001378900754E0FF75F019EF85
:10124F00A42486F582E5F03403F583E0FF90016670
:10125F00EFF0900754E0FF75F019EFA42487F582A3
:10126F00E5F03403F583E0FF900167EFF09007544A
:10127F00E0FF75F019EFA42482F582E5F03403F551
:10128F0083E0FFEF5407FFEF12073A12AA0012B2E2
:10129F000112BA0512C207000012CA900168744009
:1012AF00F0801E9001687442F080169001687444BB
:1012BF00F0800E9001687446F080069001687440CB
:1012CF00F0900169E4F0021378021378900754E06C
:1012DF00FF75F019EFA42481F582E5F03403F5834F
:1012EF00E0FFEF12073A12FF001337010000136DF2
:1012FF00900754E0FF75F019EFA42486F582E5F00E
:10130F003403F583E0FF900166EFF0900754E0FFA0
:10131F0075F019EFA42487F582E5F03403F583E027
:10132F00FF900167EFF08036900754E0FF75F019DA
:10133F00EFA42486F582E5F03403F583E0FF9001F6
:10134F0066EFF0900754E0FF75F019EFA42487F5CE
:10135F0082E5F03403F583E0FF900167EFF0900131
:10136F00687440F0900169E4F090016A74FFF07BBB
:10137F00017A0179607D0B123962900755EFF07E8B
:10138F00017F60900755E0FD124BA3900755E0FEDB
:10139F0074602EF582E43401F583EFF0900755E089
:0713AF00FFEF04FF227F00A5
:0113B6002214
:102FF700900756E4F0900757E4F0900056E0FFEF93
:10300700131313541FFFEF541FFF900756EFF09051
:103017000756E0FFEFC3940E40030231679001604B
:10302700E4F090016174D7F09001627428F0900188
:1030370063E4F0900056E0FF900164EFF0900165C3
:103047007403F0900756E0FF75F019EFA42480F59C
:1030570082E5F03403F583E0FFEF12073A307100A1
:1030670030CB0131260200003131900756E0FF7561
:10307700F019EFA42482F582E5F03403F583E0FF2D
:10308700EF5407FFEF12073A309F0030A60130AE2A
:103097000530B607000030BE900166E4F0801D9051
:1030A70001667402F080159001667404F0800D903B
:1030B70001667406F08005900166E4F0900167747C
:1030C7000AF08066900756E0FF75F019EFA4248296
:1030D700F582E5F03403F583E0FFEF5407FFEF12C5
:1030E700073A30F9003101013109053111070000B4
:1030F70031199001667440F0801E9001667442F0A9
:1031070080169001667444F0800E9001667446F054
:1031170080069001667440F0900167E4F0800B90A0
:1031270001667440F0900167E4F07B017A017960F1
:103137007D08123962900757EFF07E017F60900794
:1031470057E0FD124BA3900757E0FE74602EF582FF
:10315700E43401F583EFF0900757E0FFEF04FF2217
:023167007F00E7
:013169002243
:035342007F0022C7
:10316A0090075EE4F0900056E0FFEF131313541F2C
:10317A00FFEF541FFF90075EEFF090075EE0FFEF4E
:10318A00C3940E40030232D5900058E0FFEFC313F8
:10319A00FFEF5403FFEF12073A31B30031EE013269
:1031AA0029023263030000329D90075EE0FF75F04A
:1031BA0019EFA42482F582E5F03403F583E0FFEFEA
:1031CA0054F0FFEFF090075EE0FF75F019EFA424CA
:1031DA0082F582E5F03403F583E0FFEF4400FFEF68
:1031EA00F00232D590075EE0FF75F019EFA4248251
:1031FA00F582E5F03403F583E0FFEF54F0FFEFF0DA
:10320A0090075EE0FF75F019EFA42482F582E5F0DD
:10321A003403F583E0FFEF4401FFEFF00232D5906B
:10322A00075EE0FF75F019EFA42482F582E5F03419
:10323A0003F583E0FFEF54F0FFEFF090075EE0FF45
:10324A0075F019EFA42482F582E5F03403F583E0E2
:10325A00FFEF4405FFEFF0807290075EE0FF75F024
:10326A0019EFA42482F582E5F03403F583E0FFEF39
:10327A0054F0FFEFF090075EE0FF75F019EFA42419
:10328A0082F582E5F03403F583E0FFEF4407FFEFB0
:10329A00F0803890075EE0FF75F019EFA42482F5FC
:1032AA0082E5F03403F583E0FFEF54F0FFEFF0908E
:1032BA00075EE0FF75F019EFA42482F582E5F03489
:0D32CA0003F583E0FFEF4400FFEFF07F000D
:0132D70022D4
:10396200900737EBF0A3EAF0A3E9F090073AEDF005
:1039720090073BE4F090073CE4F090073B7403F0BF
:1039820090073AE0FF90073BE0FEEEC39F40030240
:103992003A6C900737E0FBA3E0FAA3E0F990073B0B
:1039A200E0FF8F8275830012046FFFEF64D760031C
:1039B200023A6390073AE0FFEF14FF90073CEFF002
:1039C20090073BE0FF90073CE0FEEED39F4045901E
:1039D2000737E0FBA3E0FAA3E0F990073CE0FF8F92
:1039E2008275830012046FFF90073CE0FEEEFD7CBF
:1039F20000ED2401FDEC3400FC900737E0FBA3E06E
:103A0200FAA3E0F98D828C83EF1204E190073CE087
:103A120014F080AC90073BE0FF7E00EF2401FFEE44
:103A22003400FE900737E0FBA3E0FAA3E0F98F82AF
:103A32008E83E41204E190026FE0FFEFB40116906E
:103A42000737E0FBA3E0FAA3E0F97582057583006E
:103A5200740112049C90073AE004F090073BE004E2
:0F3A6200F090073BE004F002398290073AE0FF52
:013A71002232
:1032D80090026FE0FFEF12073A32EE0033C6013476
:1032E8001A030000343C9004957440F090049674DE
:1032F8000AF0900056E0FFEF12073A333401333DED
:1033080003334605334F0733580933610A336A0CD0
:1033180033730E337C10338512338E1433A0CA33C3
:10332800B2CB3397CD33A9DF000033BB12343D90C5
:103338000050EFF022120006900050EFF022120029
:103348000E900050EFF022120016900050EFF0227D
:103358001236F0900050EFF02212001E900050EF4D
:10336800F022120026900050EFF02212002E90005A
:1033780050EFF02212533F900050EFF0221252DB30
:10338800900050EFF022120C05900050EFF022123E
:103398004B2B900050EFF022123F85900050EFF039
:1033A80022125322900050EFF022123C8F900050CE
:1033B800EFF0227F06124F00900050EFF0229000AD
:1033C80057E0FFEFC4135407FFEF5407FFEF12074E
:1033D8003A33EC0033F50133FE02340703341004AA
:1033E8000000343C125342900050EFF02212316A30
:1033F800900050EFF022122FF7900050EFF02212B9
:103408002432900050EFF022120FFF900050EFF09E
:1034180022227B017A00795512527DEF12073A3445
:103428002E0300003437121AA4900050EFF02290B7
:053438000050E4F02249
:0B211900900742EBF0A3EAF0A3E9F00E
:102124009007457401F0900742E0FBA3E0FAA3E0B6
:10213400F912052FFFAEF0EF8EF012076021550063
:102144000021810494238F04E423E904E80000249B
:102154001890004DE4F0A3E4F0D29CC2B5D2AC9048
:1021640006F27401F0900745E4F0900742E0FBA307
:10217400E0FAA3E0F9740475F0941205929007450F
:10218400E0FFEF600890004CE0FFEF70037F012256
:102194009006F2E4F090004CE4F090026FE0FFEF60
:1021A40012073A21B400222601227403000022EC13
:1021B40090004AE0FF900055E0FEEE6F6015900736
:1021C40042E0FBA3E0FAA3E0F9E475F00012059203
:1021D4007F002290004DE0FEA3E0FF74512FF582B2
:1021E40074003EF583E0FF900000EFF07E007F5224
:1021F40090004DE0FCA3E0FDED14FD12523C900074
:1022040000E0FEEF6E70030222EC900742E0FBA3B5
:10221400E0FAA3E0F9E475F0001205927F002202CF
:1022240022EC90004DE0FEA3E0FF74512FF5827480
:10223400003EF583E0FF900000EFF07E007F5290B7
:10224400004DE0FCA3E0FDED14FD124BA390000053
:10225400E0FEEF6E70030222EC900742E0FBA3E085
:10226400FAA3E0F9E475F0001205927F0022807869
:102274007B017A00795312527D90004AE0FEEF6EA2
:102284006015900742E0FBA3E0FAA3E0F9E475F0DF
:10229400001205927F002290004DE0FEA3E0FF743F
:1022A400502FF974003EFA7B0112527D900001EF29
:1022B400F07B017A00795390004DE0FEA3E0FFEF3C
:1022C40024FDFDEE34FFFC124AB2900001E0FEEF63
:1022D4006E6015900742E0FBA3E0FAA3E0F9E47511
:1022E400F0001205927F00221232D8900050E0FFD5
:1022F400EF7018900742E0FBA3E0FAA3E0F9E4755D
:10230400F0001205927F002202215590026FE0FF37
:10231400EF70137B017A017960900050E0FD12396F
:1023240062900050EFF0D2B5C29C90004FE4F09060
:10233400004FE0FF74602FF582E43401F583E0FF81
:102344008F9990004FE004F0D2AC9006F4E004F0D2
:1023540070069006F3E004F090026FE0FFEF705A0D
:10236400900742E0FBA3E0FAA3E0F97582027583CB
:1023740000E475F0001205B1900742E0FBA3E0FA17
:10238400A3E0F9740475F0E4120592900742E0FBAF
:10239400A3E0FAA3E0F975820275830012055AFFDF
:1023A400AEF0C3EF940AEE94004003D38001C3500F
:1023B400030221557F0022022155900742E0FBA32E
:1023C400E0FAA3E0F9758202758300E475F0001267
:1023D40005B1900742E0FBA3E0FAA3E0F9740475A9
:1023E400F0E8120592900742E0FBA3E0FAA3E0F9BB
:1023F40075820275830012055AFFAEF0C3EF940391
:10240400EE94004003D38001C350030221557F00A2
:1024140022022155900745E4F0900742E0FBA3E037
:0D242400FAA3E0F9E475F0001205927F03C1
:012431002288
:102E6E0090071BEFF090071CEBF0A3EAF0A3E9F03C
:102E7E00900726E4F0A3E4F07B017A07791B900615
:102E8E00EDE4F0A3742AF07D017C0012406A9007F5
:102E9E001CE0FBA3E0FAA3E0F99006EDE4F0A374C6
:102EAE002BF07D057C0012406A90071CE0FBA3E02E
:102EBE00FAA3E0F9EBC0E0EAC0E0E9C0E07B017AFA
:102ECE00007906C8E9C8CCEACCCDEBCDD0E0F9D07C
:102EDE00E0FAD0E0FB7E007F1412043090071FE072
:102EEE00FBA3E0FAA3E0F99006EDE4F0A37430F052
:102EFE007D027C0012406A90071FE0FBA3E0FAA35C
:102F0E00E0F9EBC0E0EAC0E0E9C0E07B017A0079CD
:102F1E0042C8E9C8CCEACCCDEBCDD0E0F9D0E0FA8E
:102F2E00D0E0FB7E007F08120430900725E0FFEF13
:102F3E001313543FFF7E00900726EEF0A3EFF090A0
:102F4E000725E0FFEF54FCFFEF600E900727E0042B
:102F5E00F07006900726E004F0900726E0FEA3E04E
:102F6E00FFD3EF940AEE94004009900726E4F0A3F5
:102F7E00740AF0900722E0FBA3E0FAA3E0F99007B1
:102F8E0026E0FCA3E0FD9006EDE4F0A37433F0120E
:102F9E00406A900725E0FF90004BEFF07B017A0727
:102FAE0079259006EDE4F0A37432F07D017C0012D9
:102FBE00406A900725E0FF7E00900722E0FBA3E029
:102FCE00FAA3E0F9EBC0E0EAC0E0E9C0E07B017AE9
:102FDE0000791AC8E9C8CCEACCCDEBCDD0E0F9D057
:082FEE00E0FAD0E0FB12043010
:012FF60022B8
:103E9400900758E4F0A3E4F07B017A00794A900695
:103EA400E2E4F0A3742AF07D017C0012414D9000FD
:103EB4004AE0FFEFC39401400B90004AE0FFEFD3C8
:103EC400940F400690004A7401F07B017A00790651
:103ED4009006E2E4F0A3742BF07D057C0012414DC2
:103EE4007B017A0079429006E2E4F0A37430F07D1D
:103EF400027C0012414D7B017A00794B9006E2E48A
:103F0400F0A37432F07D017C0012414D90004BE02F
:103F1400FFEFD39428400690004B7428F090004B98
:103F2400E0FFEF1313543FFF7E00900758EEF0A319
:103F3400EFF090004BE0FFEF54FCFFEF600E9007B2
:103F440059E004F07006900758E004F0900758E038
:103F5400FEA3E0FFD3EF940AEE94004009900758C3
:103F6400E4F0A3740AF07B017A00791A900758E010
:103F7400FCA3E0FD9006E2E4F0A37433F012414D9B
:013F8400221A
:0B078D00900746EBF0A3EAF0A3E9F0B0
:100798009007497401F0900746E0FBA3E0FAA3E054
:1007A800F912052FFFAEF0EF8EF012076007C500B3
:1007B8000007E8053A0BDA05D600000BEB900005B8
:1007C800E4F09007047401F0900749E4F0900746BC
:1007D800E0FBA3E0FAA3E0F9740575F03A1205927C
:1007E800900749E0FFEF601190037AE0FFEFD394A0
:1007F800004003D38001C340037F0122900704E433
:10080800F0C2AC90037AE0FF900002EFF090037A18
:10081800E4F0900378E0FF900003EFF0D2AC900092
:1008280002E0FF900003E0FEC3EE9FFF900004EF9C
:10083800F0900003E0FF900004E0FEEE6F7003020A
:100848000BB490069CE0FFEF640160030209689016
:100858000004E0FF74782FF582E43402F583E0FFAA
:10086800EF12073A08BD0A0BAB0D08793A000008E9
:10087800CD90004DE4F0A3E4F0900004E0FF74781C
:100888002FF582E43402F583E0FF90004DE0FCA3ED
:10089800E0FD74522DF58274003CF583EFF0900270
:1008A8006F7403F090004EE004F0700690004DE085
:1008B80004F0020BAB90004C7401F0C2ACC29C0275
:1008C8000BAB020BAB900004E0FF74782FF582E4C9
:1008D8003402F583E0FFEFC394304017900004E042
:1008E800FF74782FF582E43402F583E0FFEFD394A8
:1008F800394034900004E0FF74782FF582E4340224
:10090800F583E0FFEFC394415003020BAB90000462
:10091800E0FF74782FF582E43402F583E0FFEFD32B
:1009280094464003020BAB900004E0FF74782FF567
:1009380082E43402F583E0FF90004DE0FCA3E0FD83
:1009480074522DF58274003CF583EFF090004EE070
:1009580004F0700690004DE004F0020BAB020BAB04
:10096800900004E0FF74782FF582E43402F583E008
:10097800FFEF12073A0A93000A2E2809C929098DA0
:10098800D700000AD8900004E0FF74782FF582E4BD
:100998003402F583E0FF90004DE0FCA3E0FD7452C3
:1009A8002DF58274003CF583EFF090004EE004F0E2
:1009B800700690004DE004F09000057401F0020B01
:1009C80010900005E0FFEFB40121900052E4F09090
:1009D800005374D7F09000547429F090004DE4F05F
:1009E800A37403F090026FE4F08033900004E0FFFA
:1009F80074782FF582E43402F583E0FF90004DE02F
:100A0800FCA3E0FD74522DF58274003CF583EFF0F1
:100A180090004EE004F0700690004DE004F0900065
:100A280005E4F0020B10900005E0FFEFB4012290FE
:100A38000052E4F090005374D7F09000547428F0FA
:100A480090004DE4F0A37403F090026F7401F080FD
:100A580033900004E0FF74782FF582E43402F583C4
:100A6800E0FF90004DE0FCA3E0FD74522DF5827488
:100A7800003CF583EFF090004EE004F07006900023
:100A88004DE004F0900005E4F0807D900005E0FF63
:100A9800EFB40107900005E4F0806D900004E0FFDA
:100AA80074782FF582E43402F583E0FF90004DE07E
:100AB800FCA3E0FD74522DF58274003CF583EFF041
:100AC80090004EE004F0700690004DE004F080388D
:100AD800900004E0FF74782FF582E43402F583E097
:100AE800FF90004DE0FCA3E0FD74522DF5827400E8
:100AF8003CF583EFF090004EE004F0700690004D56
:100B0800E004F0900005E4F090004DE0FEA3E0FF63
:100B1800D3EF9406EE9400404C900051E0FF7E0025
:100B2800EF2406FFEE3400FE90004DE0FCA3E0FD4C
:100B3800EF6D7002EE6C700F90004C7401F0C2AC57
:100B4800C29C900005E4F090004DE0FEA3E0FFD3C6
:100B5800EF940EEE9401404B900270E4F0A3E4F0A1
:100B68007F0022803E90004DE0FEA3E0FFEF640688
:100B78004E703090004DE0FEA3E0FF74512FF582D7
:100B880074003EF583E0FF900051EFF090026FE0B3
:100B9800FFEFB4010E900051E0FFEF541FFF9000EB
:100BA80051EFF0900004E004F0020839900706E0E5
:100BB80004F07006900705E004F0900749E4F0900F
:100BC8000746E0FBA3E0FAA3E0F9740575F0D61236
:100BD8000592900749E0FFEF60030207CA7F0122F0
:100BE8000207CA900749E4F0900746E0FBA3E0FA41
:0C0BF800A3E0F9E475F0001205927F0301
:010C040022CD
:0419E5004104DD0ECE
:1048F9001249919003841206FD0000000090039D67
:104909001206FD000000009003B61206FD0000002B
:10491900009003CF1206FD000000009003E8120684
:10492900FD000000009004011206FD000000009047
:10493900041A1206FD000000009004331206FD005F
:1049490000000090044C1206FD0000000090046570
:104959001206FD0000000090047E1206FD00000012
:10496900009004B01206FD000000009004C9120670
:10497900FD000000009004957440F0A3740AF0A3B0
:084989001206FD8000800022EF
:104C8E00E49006DDF0A31206FD00000000E490069D
:104C9E00DDF09006DDE0FFC3940E502BEF75F0199A
:104CAE00A42480F9740335F0FA7B01E02410FEE4AD
:104CBE00339006EDF0A3CEF07D017C0012406A9099
:104CCE0006DDE004F080CB124F5BE4FCFDFE9006A7
:104CDE00DE1206F17B017A0679DE9006EDE4F0A392
:0A4CEE0074A0F07D017C0012406A02
:014CF8002299
:10499100E49006D4F0A31206FD000000009006D9B1
:1049A1001206FD00000000E49006D4F09006D4E069
:1049B100FFC3940E502BEF75F019A42480F97403F2
:1049C10035F0FA7B01E02410FEE4339006E2F0A317
:1049D100CEF07D017C0012414D9006D4E004F080C0
:1049E100CB124F5BE4FCFDFE9006D91206F17B0170
:1049F1007A0679D59006E2E4F0A374A0F07D017CFB
:104A01000012414D9006D5E0FCA3E0FDA3E0FEA31A
:104A1100E0FFA3E0F8A3E0F9A3E0FAA3E0FBC312EF
:074A210006BA6003122C86A7
:014A2800226B
:102C8600E490037FF0A3F0A37403F0A37440F0A3D1
:102C96007406F0A31206FD000000009003881206D9
:102CA600FD000000009003987401F0E4A3F0A37403
:102CB60003F0A37440F0A37406F0A31206FD00000F
:102CC60000009003A11206FD000000009003B174FD
:102CD60002F0E4A3F0A37403F0A37440F0A3740617
:102CE600F0A31206FD000000009003BA1206FD00D4
:102CF6000000009003CA7403F0E4A3F0A37403F089
:102D0600A37440F0A37406F0A31206FD00000000B1
:102D16009003D31206FD000000009003E37404F054
:102D2600E4A3F0A37403F0A37440F0A37406F0A325
:102D36001206FD000000009003EC1206FD000000E4
:102D4600009003FC7405F0E4A3F0A37403F0A374ED
:102D560040F0A37406F0A31206FD000000009004E4
:102D6600051206FD000000009004157406F0E4A3A9
:102D7600F0A37403F0A37440F0A37406F0A3120644
:102D8600FD0000000090041E1206FD0000000090E9
:102D9600042E7407F0E4A3F0A37403F0A37440F0C8
:102DA600A37406F0A31206FD00000000900437127B
:102DB60006FD000000009004477408F0A37402F0BA
:102DC600A314F0A37440F0A3740AF0A31206FD0046
:102DD6000000009004607409F0A37402F0A314F0DC
:102DE600A37440F0A3740AF0A31206FD00000000CD
:102DF600900479740AF0A37402F0A314F0A374404B
:102E0600F0A3740AF0A31206FD00000001900492DC
:102E1600740BF0A37401F0E4A3F0A37440F0A37460
:102E26000AF0A31206FD800080009004AB740CF03B
:102E3600A37402F0E4A3F0A37440F0A3740AF0A311
:102E46001206FD000000009004C4740DF0A3740285
:102E5600F0E4A3F0A37440F0A3740AF0A31206FDF5
:082E660000000000124C8E2256
:104F5B00E49006E2F0A3F0A3F09006E3F0E49006F1
:104F6B00E4F09006E3E075F019A42480F97403359E
:104F7B00F0FA7B01A3E07E0029F9EE3AFA1204560F
:104F8B00FF9006E2E06F903D94939006E2F090065E
:104F9B00E4E004F0E0B404CA9006E3E004F0E0B40B
:074FAB000EBB9006E2E0FFDF
:014FB20022DC
:030000000247BFF5
:1047BF0043AF01787FE4F6D8FD9000007FFF7E8045
:0D47CF00E4F0A3DFFCDEFA7581110248174B
:1019E900606606150000000000000000000000000D
:1019F90000000000000000000000000000000000DE
:101A090000000000000000000000000000000000CD
:101A190000000000000000000000000000000000BD
:101A290000000000000000000000000000000000AD
:101A3900000000000000000000000000000000009D
:101A490000000000000000000000410610004406EC
:051A5900110000000077
:1043B500E4FF9006D4F01253001252C7D2AAD2A835
:1043C500D288D28AE4FFEF75F022A42415F582E4A1
:1043D5003406F583E4F0A3F09006D4F0EF75F022EF
:1043E500A42417F582E43406F583C083C0829006C1
:1043F500D4E0FED082D08375F00812072EE4F0A336
:10440500F0EF75F022A42419F582E43406F58375DE
:10441500F008EE12072EE4F0A3F0EF75F022A424C5
:104425001BF582E43406F583C083C0829006D4E090
:10443500FED082D08375F00812072EE4F0A3F0EFCA
:1044450075F022A4241DF582E43406F58375F00881
:10445500EE12072EE4F0A3F09006D4E004F0E06439
:0F4465000460030243E10FEF640360030243CBE3
:014474002225
:03000300024E3674
:104E3600C0E0C0F0C083C082C0D0E8C0E0ECC0E0F3
:064E4600EDC0E0EFC0E04A
:104E4C00900615E0C3135403FF75F008A42417F55E
:104E5C0082E43406F583E475F0011205039006151F
:104E6C00E0FCA3E0FDEF75F008A42419F582E4340E
:084E7C0006F583ECF0A3EDF054
:104E8400D0E0FFD0E0FDD0E0FCD0E0F8D0D0D0827C
:074E9400D083D0F0D0E03222
:03001300024E9BFF
:104E9B00C0E0C0F0C083C082C0D0E8C0E0ECC0E08E
:064EAB00EDC0E0EFC0E0E5
:104EB100900615E0C3135403FF75F008A42439F5D7
:104EC10082E43406F583E475F001120503900615BA
:104ED100E0FCA3E0FDEF75F008A4243BF582E43487
:084EE10006F583ECF0A3EDF0EF
:104EE900D0E0FFD0E0FDD0E0FCD0E0F8D0D0D08217
:074EF900D083D0F0D0E032BD
:03000B00024CF9AB
:104CF900C0E0C0F0C083C082C0D0E8C0E0ECC0E032
:064D0900EDC0E0EFC0E088
:104D0F00758CFF758AFF900615E0C3135403FF756A
:104D1F00F008A4245BF582E43406F583E475F00112
:104D2F00120503900615E0FCA3E0FDEF75F008A453
:0E4D3F00245DF582E43406F583ECF0A3EDF07C
:104D4D00D0E0FFD0E0FDD0E0FCD0E0F8D0D0D082B4
:074D5D00D083D0F0D0E0325A
:03002B0002272C7D
:10272C00C0E0C0F0C083C082C0D0E8C0E0ECC0E024
:10273C00EDC0E0EEC0E0EFC0E0C2CF900615E0FEC9
:10274C00A3E08EF0120760276701FF281103FF2812
:10275C00A305FF293607FF000029CF90061AE024B5
:10276C00FFFF900619E03407FE900631E0FCA3E071
:10277C00FDC3EF9DFFEE9C90061BF0A3EFF09006BF
:10278C0017E0FFA3E090061DCFF0A3EFF090062F0B
:10279C00E4F0A3F090063CE024FFFF90063BE0340D
:1027AC0007FE900653E0FCA3E0FDC3EF9DFFEE9CFB
:1027BC0090063DF0A3EFF0900639E0FFA3E0900601
:1027CC003FCFF0A3EFF0900651E4F0A3F090065E3B
:1027DC00E024FFFF90065DE03407FE900675E0FCF8
:1027EC00A3E0FDC3EF9DFFEE9C90065FF0A3EFF01E
:1027FC0090065BE0FFA3E0900661CFF0A3EFF090B2
:10280C000673022932900619E0FEA3E0FFC390067E
:10281C0022E09FFF900621E09E900623F0A3EFF0AC
:10282C0090061FE0FFA3E0900625CFF0A3EFF090F9
:10283C000617E4F0A3F090063BE0FEA3E0FFC39084
:10284C000644E09FFF900643E09E900645F0A3EF00
:10285C00F0900641E0FFA3E0900647CFF0A3EFF025
:10286C00900639E4F0A3F090065DE0FEA3E0FFC310
:10287C00900666E09FFF900665E09E900667F0A3C9
:10288C00EFF0900663E0FFA3E0900669CFF0A3EFB2
:10289C00F090065B022932900621E0FEA3E0FFC314
:1028AC0090062AE09FFF900629E09E90062BF0A34D
:1028BC00EFF0900627E0FFA3E090062DCFF0A3EFFA
:1028CC00F090061FE4F0A3F0900643E0FEA3E0FFB7
:1028DC00C390064CE09FFF90064BE09E90064DF097
:1028EC00A3EFF0900649E0FFA3E090064FCFF0A3D2
:1028FC00EFF0900641E4F0A3F0900665E0FEA3E053
:10290C00FFC390066EE09FFF90066DE09E90066FF1
:10291C00F0A3EFF090066BE0FFA3E0900671CFF010
:10292C00A3EFF0900663E40229CC900629E0FEA305
:10293C00E0FFC3900632E09FFF900631E09E9006C8
:10294C0033F0A3EFF090062FE0FFA3E0900635CF15
:10295C00F0A3EFF0900627E4F0A3F090064BE0FE16
:10296C00A3E0FFC3900654E09FFF900653E09E90B7
:10297C000655F0A3EFF0900651E0FFA3E090065748
:10298C00CFF0A3EFF0900649E4F0A3F090066DE0D1
:10299C00FEA3E0FFC3900676E09FFF900675E09ED5
:1029AC00900677F0A3EFF0900673E0FFA3E090069B
:1029BC0079CFF0A3EFF090066BE4F0A3F09006153E
:1029CC00F0A3F0900616E004F07006900615E004F3
:1029DC00F0900615E05407F0D0E0FFD0E0FED0E018
:1029EC00FDD0E0FCD0E0F8D0D0D082D083D0F0D0B5
:0229FC00E032C7
:0B29FE0090074AEBF0A3EAF0A3E9F019
:052A09009006FEE4F060
:102A0E0090074D7401F090074AE0FBA3E0FAA3E0B3
:102A1E00F912052FFFAEF0EF8EF01207602A3B0081
:102A2E00002A6500C12BDC00C400002C6C90074A04
:102A3E00E0FBA3E0FAA3E0F9758202758300E4756A
:102A4E00F0001205B190074AE0FBA3E0FAA3E0F90B
:102A5E00E475F0C112059290074AE0FBA3E0FAA3D9
:102A6E00E0F975820275830012055AFFAEF0C3EFCE
:102A7E009414EE94004003D38001C340037F0022E0
:102A8E00900610E0FFEF75F022A42425F582E434C1
:102A9E0006F583E0FEA3E0FFCBEFCBCAEECAE4F966
:102AAE00F8900610E0FFEF75F022A4241DF582E4E5
:102ABE003406F583E0FEA3E0FFE4FCFDEF2BFBEE16
:102ACE003AFAED39F9EC38F8900610E0FFEF75F0B0
:102ADE0022A4242DF582E43406F583E0FEA3E0FF64
:102AEE00E4FCFDEB2FFBEA3EFAE93DF9E83CF890F9
:102AFE000610E0FFEF75F022A42435F582E43406CB
:102B0E00F583E0FEA3E0FFE4FCFDEB2FFFEA3EFEC3
:102B1E00E93DFDE83CFC78121206DEECC0E0EDC0AB
:102B2E00E0EEC0E0EFC0E0900610E0FFEF75F0229F
:102B3E00A42423F582E43406F583E0FEA3E0FF909F
:102B4E000610E0FDED75F022A4241BF582E4340698
:102B5E00F583E0FCA3E0FDED2FFFEC3EFE900610AA
:102B6E00E0FDED75F022A4242BF582E43406F58306
:102B7E00E0FCA3E0FDEF2DFFEE3CFE900610E0FD25
:102B8E00ED75F022A42433F582E43406F583E0FCDF
:102B9E00A3E0FDEF2DFFEE3CFECBEFCBCAEECAE479
:102BAE00F9F8D0E0FFD0E0FED0E0FDD0E0FC120658
:102BBE001A9006111206F190074DE4F090074AE0C4
:102BCE00FBA3E0FAA3E0F9E475F0C41205929007B6
:102BDE004DE0FFEF70037F01227FFF7EFF7D007CC3
:102BEE0000900611E0F8A3E0F9A3E0FAA3E0FBD30E
:102BFE001206BA5027900611E0FCA3E0FDA3E0FEFA
:102C0E00A3E0FF900610E0FB75F019EBA4244CF541
:102C1E0082E5F03404F5831206F1801B900610E075
:102C2E00FF75F019EFA4244CF582E5F03404F5831A
:102C3E001206FD0000FFFF900610E004F090061053
:102C4E00E0FFEFC394034005900610E4F0900700F8
:102C5E00E004F070069006FFE004F0022A3B9007B5
:102C6E004DE4F090074AE0FBA3E0FAA3E0F9E47527
:072C7E00F0001205927F0334
:012C8500222C
:105300005389F0438905758CFF758AFFD2A9D28C29
:01531000227A
:1052C700D2ADE4F5C875CCFF75CDE775CAFF75CBD0
:0452D700E7D2CA222E
:101A5E004106820041068300410687124A0688002D
:101A6E00000000000000000000060C000000000056
:091A7E000041069E0041069F0094
:10529800D2EBE49006A0F0A3F09006A4F0A3F0905F
:0A52A80006A8F0A3F090069CF02287
:1051C500EF25E054FE900681F09006DCE090068223
:1051D500F09006E0E0900683F0A3EBF0A3EAF0A3DD
:0951E500E9F090069E7401F0222D
:1013B7009006D4EBF0A3EAF0A3E9F0E4900701F07C
:1013C7009006D704F012052FFFAEF0E5F060030298
:1013D700172AEF12073A140B00141D4E144859141C
:1013E7006C5F14BD6814FA73154B7A158C8715B7A3
:1013F7008D16089516459D169BA416DCB01700B5EB
:101407000000172A9006D4E0FBA3E0FAA3E0F9E472
:1014170075F04E12059290069EE07002FF22E4904E
:10142700069EF0D2EEC2EDD2EFD2ED9006D7F09045
:1014370006D4E0FBA3E0FAA3E0F9E475F05912053E
:10144700929006D7E070037F0122C2EFE49006A4D2
:10145700F0A3F09006D4E0FBA3E0FAA3E0F9E4756B
:10146700F05F1205927A0679819006DB7401F0A38A
:101477007406F0A37481F0A37401F0FB7A0679A4D3
:1014870012359FC3EF6480948250028001C35003DA
:101497007F002290069FE06041C2EDC2EFD2EDE4EB
:1014A7009006D7F09006D4E0FBA3E0FAA3E0F9E4B6
:1014B70075F0681205929006D7E070037F0122D27B
:1014C700EFE490069FF09006D4E0FBA3E0FAA3E0D8
:1014D700F9E4F5F01205927F0022E49006A4F0A348
:1014E700F09006D4E0FBA3E0FAA3E0F9E475F0730B
:1014F7001205929006DBE4F0A37400F0A3740CF0DD
:10150700900682E09006DEF07B017A0679A4123518
:101517009FC3EF6480948250028001C350037F0011
:101527002290069FE06041C2EDC2EFD2EDE4900643
:10153700D7F09006D4E0FBA3E0FAA3E0F9E475F056
:101547007A1205929006D7E070037F0122D2EFE46A
:1015570090069FF09006D4E0FBA3E0FAA3E0F9E43D
:10156700F5F01205927F0022C2EDD2EFD2EDE490A2
:1015770006D7F09006D4E0FBA3E0FAA3E0F9E47500
:10158700F0871205929006D7E070037F0122C2EF21
:10159700900681E04401F0E49006A4F0A3F09006E1
:1015A700D4E0FBA3E0FAA3E0F9E475F08D1205920D
:1015B7007A0679819006DB7401F0A37406F0A374B0
:1015C70081F0A37401F0FB7A0679A412359FC3EF6B
:1015D7006480948250028001C350037F00229006EA
:1015E7009FE06041C2EDC2EFD2EDE49006D7F090E4
:1015F70006D4E0FBA3E0FAA3E0F9E475F095120541
:10160700929006D7E070037F0122D2EFE490069F05
:10161700F09006D4E0FBA3E0FAA3E0F9E4F5F012BA
:1016270005927F0022E49006A0F0A3F09006D4E094
:10163700FBA3E0FAA3E0F9E475F09D1205927A06A0
:1016470079929006DB7401F0A37406F0A37492F00C
:10165700900683E09006DEF07B017A0679A0123AC5
:1016670072C3EF6480948250028001C350037F00ED
:101677002290069FE06041C2EDC2EFD2EDE49006F2
:10168700D7F09006D4E0FBA3E0FAA3E0F9E475F005
:10169700A41205929006D7E070037F0122D2EFE4EF
:1016A70090069FF09006D4E0FBA3E0FAA3E0F9E4EC
:1016B700F5F01205927F0022C2EDC2EFD2EDE49061
:1016C70006D7F09006D4E0FBA3E0FAA3E0F9E475AF
:1016D700F0B01205929006D7E070037F0122D2EF97
:1016E700E49006A8F0A3F09006D4E0FBA3E0FAA3E9
:1016F700E0F9E475F0B51205927B017A0679A81234
:10170700422CC3EF6480948250028001C350037F50
:101717000022900703E004F07006900702E004F04F
:1017270002140BE49006D7F09006D4E0FBA3E0FA8E
:0B173700A3E0F9E4F5F01205927F0337
:011742002284
:0B3A72009006D8EBF0A3EAF0A3E9F007
:103A7D009006DF7401F012052FFFAEF0E5F0600344
:103A8D00023B69EF2434604224E47003023B52246C
:103A9D00E86003023B69E490067BF09006DEE0FFF0
:103AAD0090067BE0C39F4003023B62E490067DF0ED
:103ABD00C2EEC2ED9006DFF09006D8E0FBA3E0FA6F
:103ACD00A3E0F9E475F0CC1205929006DFE07003E7
:103ADD007F0122E490067CF0D2ED90067DE0FF257B
:103AED00E0FFA2ECE4334FF0C2ED90067CE004F071
:103AFD00E0B408E490067DE0FF9006DBE0FBA3E078
:103B0D00FAA3E0F990067BE0F582758300EF1204CD
:103B1D00E190067BE004F0D2EE9006DEE0FF900629
:103B2D007BE0C39F5004C2EF8002D2EFD2EDE49050
:103B3D0006DFF09006D8E0FBA3E0FAA3E0F9E47508
:103B4D00F0E81205929006DFE070037F0122C2EDCE
:103B5D00C2EE023AA8D2EEE490069FF0E49006DFA2
:103B6D00F09006D8E0FBA3E0FAA3E0F9E4F5F0123B
:043B7D0005927F032B
:013B81002221
:0B359F009006D8EBF0A3EAF0A3E9F0DF
:1035AA009006DF7401F012052F12076035CE000075
:1035BA00361F0101365101093682011036A5011262
:1035CA00000036D7D2EEE490067EF09006DEE0FFE9
:1035DA0090067EE0C39F40030236D29006DBE0FBF2
:1035EA00A3E0FAA3E0F990067EE0F5827583001263
:1035FA00046F900680F090067EE004F0C2EDE4903D
:10360A0006DFF09006D8E0FBA3E0FAA3E0F9740124
:10361A00F5F01205929006DFE070037F0122E49034
:10362A00067FF0900680E0FF25E0F092EFD2EDE40D
:10363A009006DFF09006D8E0FBA3E0FAA3E0F97465
:10364A000175F0091205929006DFE070037F0122EE
:10365A00C2ED90067FE004F0E0B408C7C2EEC2ED06
:10366A00E49006DFF09006D8E0FBA3E0FAA3E0F9C5
:10367A00740175F0101205929006DFE070037F0165
:10368A0022D2EDE49006DFF09006D8E0FBA3E0FA40
:10369A00A3E0F9740175F0121205929006DFE0704A
:1036AA00037F0122C2EDD2EE20EC030235D590064B
:1036BA009F7401F09006D8E0FBA3E0FAA3E0F9E4D6
:1036CA00F5F01205927F0222E490069FF0E490063C
:1036DA00DFF09006D8E0FBA3E0FAA3E0F9E4F5F006
:0536EA001205927F03B0
:0136EF0022B8
:0B422C009006D8EBF0A3EAF0A3E9F045
:10423700A37401F012052FFFAEF060030242D9EE1E
:1042470060030242D97E067F927D0B12523C900694
:104257009DE06F7079900692E0FCA3E0FDA3E0FE7D
:10426700A3E0FF9004971206F1900696E0602214EF
:10427700704C900697E0FEA3E0FFE4FCFD9004B0CD
:104287001206F19004AD7401F09004DD740DF08016
:104297002D900697E0FEA3E0FFE4FCFD9004B0122A
:1042A70006F1900699E0FEA3E0FFE4FCFD9004C947
:1042B7001206F1E49004ADF09004DD740EF0900264
:1042C7006EE0FF90069BE0FEEF4E90026EF0E47802
:1042D7000CF6E49006DBF09006D8E0FBA3E0FAA327
:0A42E700E0F9E4F5F01205927F0300
:0142F10022AA
:054475009006D8EFF0F5
:10447A009006DD1206FD000000009006D9E0FCA3BC
:10448A00E0FDA3E0FEA3E0FFE41202A19006D8E05B
:10449A0075F019A4248DF582E5F03403F583E0F86C
:1044AA00A3E0F9A3E0FAA3E0FB12012E9006D8E0FC
:1044BA0075F019A42491F582E5F03403F583E0F848
:1044CA00A3E0F9A3E0FAA3E0FB12003D9006DD1297
:1044DA0006F17FFF7EFF7D7F7C4B9006DDE0F8A32F
:1044EA00E0F9A3E0FAA3E0FB120234600A40087480
:1044FA00FFFFFEFD7C0022E4FFFEFDFC9006DDE0EE
:10450A00F8A3E0F9A3E0FAA3E0FB1202345006E4B0
:10451A00FFFEFDFC229006DDE0FCA3E0FDA3E0FE29
:06452A00A3E0FF1202DF16
:014530002268
:10485C00E49006D4F0A31206FD000000009006D9E7
:10486C001206FD00000000E49006D4F09006D4E09F
:10487C00FFC3940E5030EF75F019A4248CF9740317
:10488C0035F0FA7B01E075F003A42450FEE435F01A
:10489C009006E2F0A3CEF07D037C0012414D900611
:1048AC00D4E004F080C6124FB3E4FCFDFE9006D9B0
:1048BC001206F17B017A0679D59006E2E4F0A37436
:1048CC00A1F07D017C0012414D9006D5E0FCA3E0E7
:1048DC00FDA3E0FEA3E0FFA3E0F8A3E0F9A3E0FA58
:0C48EC00A3E0FBC31206BA60031250598F
:0148F800229D
:0545DF009006D4EFF08E
:1045E4009006DD1206FD000000009006D5E0FCA355
:1045F400E0FDA3E0FEA3E0FF9006D4E0FB75F01914
:10460400A4248DF582E5F03403F5831206F19006B7
:10461400D9E0FCA3E0FDA3E0FEA3E0FF75F019EBF5
:10462400A42491F582E5F03403F5831206F1EB75C9
:10463400F019A4248CF9740335F0FA7B019006D4A4
:10464400E075F003A42450FEE435F09006EDF0A3E9
:10465400CEF07D037C0012406A124FB3E4FCFDFEF1
:104664009006DD1206F17B017A0679DD9006EDE411
:0C467400F0A374A1F07D017C0012406AEC
:014680002217
:104FB300E49006E8F0A3F0A3F09006E9F0E490068D
:104FC300EAF09006E9E075F019A4248CF97403352E
:104FD300F0FA7B01A3E07E0029F9EE3AFA120456B7
:104FE300FF9006E8E06F903D94939006E8F09006FA
:104FF300EAE004F0E0B40CCA9006E9E004F0E0B49F
:075003000EBB9006E8E0FF80
:01500A002283
:0942F2009006E2EFF0A3EDF0FBF1
:1042FB00A31206FD00000000EB640170439006E280
:10430B00E0FF75F019A4248CF582E5F03403F583F6
:10431B007401F0EF75F019A4248CF9740335F0FADD
:10432B007B019006E2E075F003A42450FEE435F027
:10433B009006EDF0A3CEF07D037C0012406A804620
:10434B009006E3E070409006E2E0FF75F019A424BC
:10435B008CF582E5F03403F583E4F0EF75F019A4E6
:10436B00248CF9740335F0FA7B019006E2E075F0CA
:10437B0003A42450FEE435F09006EDF0A3CEF07DBF
:10438B00037C0012406A124FB3E4FCFDFE9006E47E
:10439B001206F17B017A0679E49006EDE4F0A37442
:0943AB00A1F07D017C0012406AC2
:0143B40022E6
:10505900E49006DDF0A31206FD00000000E49006CE
:10506900DDF09006DDE0FFC3940E500DE4FD124221
:10507900F29006DDE004F080E9124FB3E4FCFDFE96
:105089009006DE1206F17B017A0679DE9006EDE4E0
:0C509900F0A374A1F07D017C0012406ABD
:0150A50022E8
:101A87004106CF004106AC004106AD004106AE005D
:0B1DE9009006D4EBF0A3EAF0A3E9F0B1
:051DF400E49006F5F08B
:101DF9009006D704F012052FFFAEF0E5F06003025C
:101E09002100EF24ED603724F67003021EC524F586
:101E19007003021F2F24F470030220172434600377
:101E29000221009006D4E0FBA3E0FAA3E0F99000B8
:101E390002E4F5F01205B1E475F01312059290066B
:101E4900D4E0FBA3E0FAA3E0F990000212055AC31B
:101E59009401E5F094004003D38001C340037F005F
:101E6900229006CFE075F026A42405F582E5F0342A
:101E790005F583E0706A9006ACF09006CFE075F046
:101E890026A42405F582E5F03405F583E070369043
:101E990006ACE06408602E9006CFE0045407F09089
:101EA90006ACE004F0E49006D7F09006D4E0FBA37A
:101EB900E0FAA3E0F9E475F01D1205929006D7E067
:101EC90070B87F01229006ACE0B408149006D4E003
:101ED900FBA3E0FAA3E0F9E4F5F01205927F0022F2
:101EE9009006CFE075F026A424E0F9740435F0FAE1
:101EF9007B01EAC0E0E9C0E07A0679AF78AF7C06F9
:101F09007D01D0E0F9D0E0FA7E007F20120430E4B0
:101F19009006D7F09006D4E0FBA3E0FAA3E0F9E439
:101F290075F0281205929006D7E070037F01229080
:101F390006AD7407F0E49006AEF09006ADE0FFA39D
:101F4900E0C39F4003022029E025E025E024B3F502
:101F590082E43406F583E0FCA3E0FDA3E0FEA3E000
:101F6900FF9006AEE025E025E024AFF582E43406D3
:101F7900F583E0F8A3E0F9A3E0FAA3E0FBD31206A6
:101F8900BA40749006AEE025E025E024AFF582E47E
:101F99003406F583E0FCA3E0FDA3E0FEA3E0FF9097
:101FA90006D01206F19006AEE025E025E024B3F54F
:101FB90082E43406F583E0FCA3E0FDA3E0FEA3E0A0
:101FC900FF9006AEE025E025E024AFF582E4340673
:101FD900F5831206F19006D0E0FCA3E0FDA3E0FE34
:101FE900A3E0FF9006AEE025E025E024B3F582E406
:101FF9003406F5831206F1E49006D7F09006D4E092
:10200900FBA3E0FAA3E0F9E475F034120592900617
:10201900D7E070037F01229006AEE004F0021F436F
:102029009006ADE014F0E06003021F3E9006BFE0A9
:10203900FCA3E0FDA3E0FEA3E0FF9006BBE0F8A34C
:10204900E0F9A3E0FAA3E02FFFEA3EFEE93DFDE84F
:102059003CFC78011206CB9006CFE075F019A42458
:1020690084F582E5F03403F5831206F19006CFE09A
:1020790075F019A4248CF582E5F03403F583E0604A
:10208900409006CFE075F019A42484F582E5F03478
:1020990003F583E0FCA3E0FDA3E0FEA3E0FF9006C7
:1020A900D91206F19006CFE0FF1244759006CFE0F1
:1020B90075F019A42488F582E5F03403F583120636
:1020C900F19006CFE075F026A42405F582E5F034F9
:1020D90005F583E4F09006F7E004F070069006F643
:1020E900E004F09006D4E0FBA3E0FAA3E0F9E4F5FC
:1020F900F01205927F0022E49006D7F09006D4E012
:0F210900FBA3E0FAA3E0F9E4F5F01205927F03DF
:0121180022A4
:1053110053890F438910758D8A758BD0D2ABD28E8C
:015321002269
:103D940000BC01BD02BE03BF04B805B906BA07BB27
:103DA40008B409B50AB60BB70CB00DB10EB20FB317
:103DB40010AC11AD12AE13AF14A815A916AA17AB07
:103DC40018A419A51AA61BA71CA01DA11EA21FA3F7
:103DD400209C219D229E239F24982599269A279BE7
:103DE400289429952A962B972C902D912E922F93D7
:103DF400308C318D328E338F34883589368A378BC7
:103E0400388439853A863B873C803D813E823F83B6
:103E140040FC41FD42FE43FF44F845F946FA47FBA6
:103E240048F449F54AF64BF74CF04DF14EF24FF396
:103E340050EC51ED52EE53EF54E855E956EA57EB86
:103E440058E459E55AE65BE75CE05DE15EE25FE376
:103E540060DC61DD62DE63DF64D865D966DA67DB66
:103E640068D469D56AD66BD76CD06DD16ED26FD356
:103E740070CC71CD72CE73CF74C875C976CA77CB46
:103E840078C479C57AC67BC77CC07DC17EC27FC336
:10523C00E4FCCBEDCB1DEB60160FEFCAEECA700190
:10524C000E14F5828A83E06C903D9493FC80E3CF3E
:02525C00ECCF95
:01525E00222D
:0C1A9700410730004107310041073200D8
:104AB2009006D4EBF0A3EAF0A3E9F0A3ECF0A3EDA7
:014AC200F003
:104AC300E4A3F09006D7E07002A3E060529006D40E
:104AD300E0FBA3E475F001120519A9F0FA120456DC
:104AE300FF1251EEEFC454F0FEEEC0E09006D4E0A6
:104AF300FBA3E475F001120519A9F0FA120456FF9D
:104B03001251EED0E04FFF9006D9E02FF0E0F09085
:104B130006D8E024FEF09006D7E034FFF080A4909E
:074B230006D9E0F404FFF0E5
:014B2A002268
:1051EE00CEEFCEEEC39430400CEED394395006C3BE
:1051FE00EE9430FF22EEC39441400BEED394465012
:09520E0005EE24C9FF227FFF22F6
:10521700CEEFCEEED394095005EE2430FF22EEC335
:10522700940A400BEED3940F5005EE2437FF227FEC
:05523700FF227F302280
:1050A60090000112046FFF1251EECDEFCD1204569F
:1050B600FF1251EEEFC454F04D9006D4F09000026A
:1050C60012046FFF1251EEEFC454F0FD900003126C
:1050D600046FFF1251EEEF4D9006D5F09006D4E026
:0450E600FEA3E0FF46
:0150EA0022A3
:10527D0090000112046FFF1251EECDEFCD120456C6
:0A528D00FF1251EEEFC454F04DFF84
:0152970022F4
:10500B0090075AEEF0A3EFF090075AE0540FFF12FF
:10501B005217900001EF1204E190075AE0FFC454BD
:10502B000FFF125217EF1204CF90075BE0540FFFE4
:10503B00125217900003EF1204E190075BE0FFC4DC
:0D504B00540FFF125217900002EF1204E103
:015058002235
:10525F00CDEFCDEDC4540FFF125217EF1204CFED67
:0E526F00540FFF125217900001EF1204E122BB
:104A290090000112046FFF1251EECDEFCD12045622
:104A3900FF1251EEEFC454F04D90074EF090000272
:104A490012046FFF1251EEEFC454F0FD90000312EF
:104A5900046FFF1251EEEF4D90074FF090000412D2
:104A6900046FFF1251EEEFC454F0FD9000051204DB
:104A79006FFF1251EEEF4D900750F09000061204AF
:104A89006FFF1251EEEFC454F0FD90000712046F4E
:104A9900FF1251EEEF4D900751F090074EE0FCA345
:084AA900E0FDA3E0FEA3E0FF25
:014AB10022E2
:104D64009006D41206F19006D8EBF0A3EAF0A3E97A
:014D7400F04E
:104D7500E4A3F09006D4E0FCA3E0FDA3E0FEA3E0ED
:104D8500E4FFFEFDEC54F0FC781C1206CB12521722
:104D9500A3E0FBA3E0FAA3E0F9A3E0F582758300A5
:104DA500EF1204E19006D4E0FCA3E0FDA3E0FEA32E
:104DB500E0FF78041206DE9006D41206F19006DBB9
:094DC500E004F0E0C3940840AAE8
:014DCE0022C2
:101AA400E4900731F07B017A0079571250A6900731
:101AB40033EEF0A3EFF07A00795B1250A69007356D
:101AC400EEF0A3EFF0900733E0FEA3E0FFC3EE9443
:101AD400105003021DE0D3EF941CEE941040030257
:101AE4001DE0900736E0941C900735E09400400315
:101AF400021DE0900160743AF0900731E004F09028
:101B0400004AE0FF7A01796112525F900731E024C4
:101B140002F07A0179637F0312525F900731E02467
:101B240002F0E02402F0900733E0A3E0900730F0E5
:101B3400900735E0FEA3E0FF900734E02FFF900705
:101B440033E03EFEE42FFFEE34F0C313FEEF13FF49
:101B5400900730E0FDC39FE49E4003021D7375F0BF
:101B640019EDA42480F582E5F03403F583E01470C4
:101B740003021CA3147003021CEC24026003021D64
:101B840063900730E0FF75F019A42481F582E5F035
:101B94003403F583E024FD7003021C28240360034E
:101BA400021D6375F019EFA4248CF582E5F034036B
:101BB400F583E0B40137900730E075F019A4248868
:101BC400F582E5F03403F583E0FCA3E0FDA3E0FE39
:101BD400A3E0FF78081206CB900731E07A00246076
:101BE400F9EA3401FA7B01124D64021D6390073057
:101BF400E075F019A42484F582E5F03403F583E05C
:101C0400FCA3E0FDA3E0FEA3E0FF78081206CB905E
:101C14000731E07A002460F9EA3401FA7B01124DBD
:101C240064021D63900730E0FF75F019A4248CF55D
:101C340082E5F03403F583E0B4012F75F019EFA4C5
:101C44002488F582E5F03403F583E0FCA3E0FDA3EA
:101C5400E0FEA3E0FF900731E07A002460F9EA3463
:101C640001FA7B01124D64021D63900730E075F0A8
:101C740019A42484F582E5F03403F583E0FCA3E0A1
:101C8400FDA3E0FEA3E0FF900731E07A002460F9B1
:101C9400EA3401FA7B01124D64021D63021D639054
:101CA4000730E0FF75F019A42481F582E5F03403D0
:101CB400F583E06003021D6375F019EFA42484F535
:101CC40082E5F03403F583E0FCA3E0FDA3E0FEA38A
:101CD400E0FF900731E07A002460F9EA3401FA7BEE
:101CE40001124D6480798077900730E0FF75F01918
:101CF400A42481F582E5F03403F583E01460310413
:101D0400705D75F019EFA42484F582E5F03403F5D1
:101D140083E0FCA3E0FDA3E0FEA3E0FF900731E035
:101D24007A002460F9EA3401FA7B01124D64802FB1
:101D3400900730E075F019A42484F582E5F03403AB
:101D4400F583E0FCA3E0FDA3E0FEA3E0FF900731F0
:101D5400E07A002460F9EA3401FA7B01124D6490C0
:101D64000731E02408F0900730E004F0021B3490BF
:101D74000731E024F9FFC313FF7B017A017965126F
:101D8400525F7A017961900731E024FFFDE434FF6A
:101D9400FC124AB2900732EFF0E0FF900731E07C8A
:101DA400002460F9EC3401FA7B0112525F90073190
:101DB400E02402F0E02460F582E43401F583740D3C
:101DC400F0900731E004F0E02460F582E43401F59A
:101DD40083740AF0900731E004F080037F002290BE
:041DE4000731E0FFE4
:011DE80022D8
:1000360002034BE86480F8E933E83360110460F0AA
:10004600ED33EC337009E8FCE9FDEAFEEBFF220430
:1000560060DED3EB9FEA9EE99DE8C2E78CF0C2F72B
:1000660095F0400CE8CCF8E9CDF9EACEFAEBCFFBF7
:1000760012031685D0F05804700320D5B3E8047037
:10008600075002B2D502035592D5EC0460F7E4CCD2
:10009600C0E0C398F8603B94186008400DD0E0FBC0
:1000A60002032DE4FBFAC9FC8028E830E406E4C923
:1000B600FBE4CAFCE830E305E4C9CACBFCE8540714
:1000C6006010F8C3E913F9EA13FAEB13FBEC13FC1F
:1000D600D8F130F52FC3E49CFCEF9BFFEE9AFEEDC2
:1000E60099FDD0E0FBEF4E4D4C701222DB0302036C
:1000F60052EC2CFCEF33FFEE33FEED33FDED30E733
:10010600EB02032DEF2BFFEE3AFEED39FDD0E0FBBF
:1001160050130BBB0003020355ED13FDEE13FEEF68
:0801260013FFEC13FC02032D92
:10012E00EC4D6011E8497017ED33EC3304600DE4CB
:10013E00FCFFFEFD22E933E8330470F802034B1294
:10014E00031658046009E4CC248150062850090295
:10015E000355284003020352C0E0EB4A7044B980B5
:10016E0006D0E0FB020341EF4E701CBD8008EBFF92
:10017E00EAFEE9FD80EBE98DF0A4FEE5F002021740
:10018E00E9CDF9EAFEEBFFEF89F0A4FCE5F0CE89AC
:10019E00F0A42EFFE435F0CD89F0A42DFEE435F069
:1001AE008067EF4E7005BD80D780C3EF8BF0A4AC97
:1001BE00F0EE8BF0A42CFCE435F0F8EF8AF0A42CD2
:1001CE00E5F038FCE433CB8DF0A42CFCE5F03BF8E5
:1001DE00EE8AF0A42CFCE5F038F8E433CF89F0A4D5
:1001EE002CFCE5F038CF3400CE89F0A42FFFE5F0DB
:1001FE003EFEE433C98DF0A42EFEE5F039CD8AF033
:10020E00A42FFFE5F03EFEE43DFD33D0E0FB5007AA
:10021E000BBB000F020355EC2CFCEF33FFEE33FE4D
:06022E00ED33FD02032D7B
:1002340074F8CC6480CCC86480C8F582046043C37D
:10024400EB9FF5F0EA9E42F0E99D42F0E89C45F010
:1002540060305018E5825FFFE582F42B5582FB5035
:10026400210ABA001D09B90019088016E5825BFB52
:10027400E582F42F5582FF50090EBE00050DBD0026
:10028400010CC3EB9FF5F0EA9E42F0E99D42F0E8D1
:0D0294009C45F06007CC4820E701B3EC2248
:1002A10075F020800E75F010800575F0087D007ED8
:1002B100007F003392D530D5031206ACEC334010E9
:1002C100EF33FFEE33FEED33FDEC33FCD5F0ED22E1
:0E02D100E5F0247EA2D513CC92E7CDCEFF221D
:1002DF00EDD2E7CD33EC3392D524814006E4FFFE17
:1002EF00FDFC22FCE4CFCECDCC24E0501174FF8076
:1002FF00EDC3CC13CCCD13CDCE13CECF13CF047013
:07030F00F030D5DE0206AC60
:10031600E9D2E7C933E833F892D5EDD2E7CD33EC2D
:0703260033FC5002B2D522A6
:10032D00EC30E7100FBF000C0EBE00080DBD000431
:10033D000BEB6014A2D5EB13FCED92E7FD2274FFDD
:10034D00FCFDFEFF22E480F8A2D574FF13FC7D8036
:03035D00E480EF4A
:1047DC00024681E493A3F8E493A34003F68001F22C
:1047EC0008DFF48029E493A3F85407240CC8C333DE
:1047FC00C4540F4420C8834004F456800146F6DFAD
:10480C00E4800B0102040810204080901743E47EE2
:10481C00019360BCA3FF543F30E509541FFEE493A1
:10482C00A360010ECF54C025E060A840B8E493A368
:10483C00FAE493A3F8E493A3C8C582C8CAC583CA93
:10484C00F0A3C8C582C8CAC583CADFE9DEE780BE4B
:011AA3000042
:10036000E709F608DFFA8046E709F208DFFA803E7F
:1003700088828C83E709F0A3DFFA8032E309F6086C
:10038000DFFA8078E309F208DFFA807088828C83D4
:10039000E309F0A3DFFA806489828A83E0A3F60888
:1003A000DFFA805889828A83E0A3F208DFFA804C62
:1003B00080D280FA80C680D4806980F28033801039
:1003C00080A680EA809A80A880DA80E280CA8033A2
:1003D00089828A83ECFAE493A3C8C582C8CCC5831A
:1003E000CCF0A3C8C582C8CCC583CCDFE9DEE780EA
:1003F0000D89828A83E493A3F608DFF9ECFAA9F069
:10040000EDFB2289828A83ECFAE0A3C8C582C8CCBE
:10041000C583CCF0A3C8C582C8CCC583CCDFEADED7
:10042000E880DB89828A83E493A3F208DFF980CC39
:1004300088F0EF60010E4E60C388F0ED2402B40432
:100440000050B9F582EB2402B4040050AF232345D9
:0604500082239003B0734B
:10045600BB010689828A83E0225002E722BBFE02A4
:09046600E32289828A83E49322D7
:10046F00BB010CE58229F582E5833AF583E0225042
:10047F0006E92582F8E622BBFE06E92582F8E2228C
:0D048F00E58229F582E5833AF583E49322A6
:10049C00BB010FF8E58229F582E5833AF583E02864
:1004AC00F0225009C58229F8E58226F622BBFE0906
:1004BC00C58229F8E22582F222F8EA2583F583E940
:0304CC0093282250
:1004CF00BB010689828A83F0225002F722BBFE010C
:0204DF00F32206
:1004E100F8BB010DE58229F582E5833AF583E8F051
:1004F100225006E92582C8F622BBFE05E92582C8FD
:02050100F222E4
:10050300C5F0F8A3E028F0C5F0F8E5821582700283
:060513001583E038F02220
:10051900A3F8E0C5F025F0F0E58215827002158395
:06052900E0C838F0E822F2
:10052F00BB010A89828A83E0F5F0A3E02250068797
:10053F00F009E71922BBFE07E3F5F009E319228959
:0B054F00828A83E493F5F0740193228C
:10055A00BB0110E58229F582E5833AF583E0F5F0DF
:10056A00A3E0225009E92582F886F008E622BBFEBC
:10057A000AE92582F8E2F5F008E222E5832AF58302
:08058A00E993F5F0A3E99322C7
:10059200BB010A89828A83F0E5F0A3F0225006F7B4
:0F05A20009A7F01922BBFE06F3E5F009F31922B1
:1005B100F8BB0111E58229F582E5833AF583E8F07C
:1005C100E5F0A3F0225009E92582C8F608A6F02239
:0D05D100BBFE09E92582C8F2E5F008F22220
:1005DE0075F008758200EF2FFFEE33FECD33CDCCD4
:1005EE0033CCC58233C5829BED9AEC99E582984057
:1005FE000CF582EE9BFEED9AFDEC99FC0FD5F0D634
:10060E00E4CEFBE4CDFAE4CCF9A88222B800C1B95D
:10061E000059BA002DEC8BF084CFCECDFCE5F0CB9B
:10062E00F97818EF2FFFEE33FEED33FDEC33FCEBD4
:10063E0033FB10D703994004EB99FB0FD8E5E4F98F
:10064E00FA227818EF2FFFEE33FEED33FDEC33FC7C
:10065E00C933C910D7059BE99A4007EC9BFCE99A70
:10066E00F90FD8E0E4C9FAE4CCFB2275F010EF2FB5
:10067E00FFEE33FEED33FDCC33CCC833C810D707B5
:10068E009BEC9AE899400AED9BFDEC9AFCE899F8F0
:0E069E000FD5F0DAE4CDFBE4CCFAE4C8F92283
:1050EB00C2D5E830E70FB2D5E4C39BFBE49AFAE4F0
:1050FB0099F9E498F8EC30E717B2D5125121120662
:10510B001AE4C39BFBE49AFAE499F9E498F8800358
:10511B0012061A30D50DE4C39FFFE49EFEE49DFDFD
:04512B00E49CFC22E2
:0E06AC00C3E49FFFE49EFEE49DFDE49CFC225F
:1006BA00EB9FF5F0EA9E42F0E99D42F0E89C45F096
:0106CA00220D
:1006CB00E8600FECC313FCED13FDEE13FEEF13FF0D
:0306DB00D8F12231
:1006DE00E8600FEFC333FFEE33FEED33FDEC33FC7A
:0306EE00D8F1221E
:0C06F100ECF0A3EDF0A3EEF0A3EFF0227C
:1006FD00A8828583F0D083D08212071412071412BA
:10070D000714120714E473E493A3C583C5F0C583DE
:10071D00C8C582C8F0A3C583C5F0C583C8C582C846
:01072D0022A9
:0C072E00A42582F582E5F03583F58322D6
:10073A00D083D082F8E4937012740193700DA3A34E
:10074A0093F8740193F5828883E473740293686062
:06075A00EFA3A3A380DF62
:10076000D083D082F8E4937012740193700DA3A328
:1007700093F8740193F5828883E473740293B5F05F
:0D078000067403936860E9A3A3A3A380D8C7
:00000001FF
