:10456D00C2AF53D7F91243A012443D124D64124EFF
:10457D0058124CC0124E35123F9A7F72124C871250
:10458D004DE3E49005FAF0A3F09005FEF0A3F09052
:10459D000602F0A3F0900606F0A3F0D2AF780CF669
:1045AD009005CE04F0A3F0A37405F0A37485F0A3D9
:1045BD00740BF07B007A00790C7F58124CED7B0167
:1045CD007A02796A12194E7B017A0579FA1241162F
:1045DD007B017A0579FE1222427B017A067902125D
:1045ED00161E7B017A067906120F3F7B017A05793B
:0745FD00F612366080C822AF
:104116009005C6EBF0A3EAF0A3E9F0E49005EDF014
:104126009005C904F012052FFFAEF0E5F07076EFAA
:1041360024AA601F2456706D9005C6E0FBA3E0FA22
:10414600A3E0F9900002E4F5F01205B1E475F0562B
:104156001205929005C6E0FBA3E0FAA3E0F99000F1
:104166000212055AC3940FE5F094004003D3800170
:10417600C340037F00229005CE7401F0A3F0A37420
:1041860005F0A37485F0A3740BF07B007A00790C1C
:104196007F58124CED9005EFE004F070069005EEA6
:1041A600E004F08093E49005C9F09005C6E0FBA317
:0D41B600E0FAA3E0F9E4F5F01205927F03B2
:0141C30022D9
:03001B00024A5A3C
:104A5A00C0E0C083C082758D8A758BD09005FDE059
:104A6A0004F070069005FCE004F0900601E004F002
:104A7A007006900600E004F0900605E004F0700667
:104A8A00900604E004F090026DE004F070069002D3
:104A9A006CE004F09005F9E004F070069005F8E087
:094AAA0004F0D082D083D0E03288
:104E3500759E82759D2D759852D2ACC299C298D235
:024E4500BC228D
:104CC00075D10075D20075E60043D28043D22043EF
:104CD000D20753E6F043E6401242667F03124E7F4E
:0D4CE0007F647E00124DF9D2AE43D1202238
:0300330002341E76
:10341E00C0E0C0F0C083C082C0D0EEC0E0EFC0E01C
:10342E00E5E654079003D1F0E0FF75F026A424F3EF
:10343E00F582E5F03403F583E09003D2F075F026C3
:10344E00EFA424D3F582E5F03403F583C083C08264
:10345E009003D2E0FFD082D08375F00412072EE4E1
:10346E00F09003D1E0FE75F026A424D4F582E5F0A9
:10347E003403F58375F004EF12072EE5DBF075F0DB
:10348E0026EEA424D5F582E5F03403F583C083C07F
:10349E00829003D2E0FFD082D08375F00412072E03
:1034AE00E5DAF09003D1E0FE75F026A424D6F5827D
:1034BE00E5F03403F58375F004EF12072EE5D9F02D
:1034CE009003D2E0045407FF75F026EEA424F3F522
:1034DE0082E5F03403F583EFF09003D1E0FF75F051
:1034EE0026A424F8F582E5F03403F5837401F0EF99
:1034FE00045407FFE5E654F04FF5E6E5E65407758C
:10350E00F019A42475F582E5F03402F583E0640722
:10351E005407FFE5D254F84FF5D2E5E6540775F09F
:10352E0019A42476F582E5F03402F583E0F5D4C2D1
:01353E00DFAD
:10353F00D0E0FFD0E0FED0D0D082D083D0F0D0E06A
:01354F003249
:074E7F0053D1F8EF42D122EC
:104DF900CBEFCBCAEECAE4F9F87F557E05FDFC126C
:054E09004C438FD42290
:10426600E49005C6F0A3F09005C6F09005C6E0FF01
:10427600C39408400302430275F026EFA424F3F525
:1042860082E5F03403F583E4F075F026EFA424F616
:10429600F582E5F03403F583E4F075F026EFA42407
:1042A600F7F582E5F03403F5837420F075F026EF18
:1042B600A424F8F582E5F03403F583E4F09005C70D
:1042C600F09005C7E0FFC3940850289005C6E07536
:1042D600F026A424D3F582E5F03403F58375F004C3
:1042E600EF12072E1206FD000000009005C7E0043D
:0C42F600F080CE9005C6E004F00242719A
:014302002298
:083C4F009005DDECF0A3EDF09F
:103C5700E49005E1F0A3F0A3F09005DDE0FEA3E01A
:103C6700FF9005E0E02F9005DFE03EC39404400499
:103C7700E4FEFF22E49005E1F0A3F09005DDE0FE0D
:103C8700A3E0FFC39005E2E09F9005E1E09E4003BB
:103C9700023D29A2AFE4339005E3F0C2AF9005E1FE
:103CA700E0FEA3E07802C333CE33CED8F9FFF58226
:103CB7008E8312046FF5BC8F828E83A312046FF577
:103CC700BD9005E1E0FEA3E07802C333CE33CED842
:103CD700F9FFF5828E83A3A312046FF5BE8F828E40
:103CE70083A3A3A312046FF5BF9005DFE0FEA3E053
:103CF700FF8EC78FC675B90575B9029005E3E02435
:103D0700FF92AF9005E0E004F070069005DFE00455
:103D1700F09005E2E004F070069005E1E004F0029F
:0A3D27003C829005E1E0FEA3E0FFFE
:013D3100226F
:083D32009005D2ECF0A3EDF0C6
:103D3A00E49005D6F0A3F0A3F09005D2E0FEA3E04C
:103D4A00FF9005D5E02F9005D4E03EC394044004CB
:103D5A00E4FEFF22E49005D6F0A3F09005D2E0FE3F
:103D6A00A3E0FFC39005D7E09F9005D6E09E4003ED
:103D7A00023E08A2AFE4339005D8F0C2AF9005D452
:103D8A00E0FEA3E0FF8EC78FC675B901A3E0FCA3CE
:103D9A00E0FDCEECCE7802C333CE33CED8F9FFF5B0
:103DAA00828E83E5BC1204E18F828E83A3E5BD1265
:103DBA0004E1EDCEECCE7802C333CE33CED8F9FF90
:103DCA00F5828E83A3A3E5BE1204E18F828E83A3BC
:103DDA00A3A3E5BF1204E19005D8E024FF92AF90B7
:103DEA0005D5E004F070069005D4E004F09005D7FC
:103DFA00E004F070069005D6E004F0023D659005F7
:063E0A00D6E0FEA3E0FF7C
:013E1000228F
:104C8700E4FE8F0AD2C0850AC0EE75F003A424E5BE
:104C9700F582E43405F583E4F0A3F0EE75F003A4A0
:104CA70024E4F582E43405F5837401F00EEEB406CE
:084CB700D8E49005F6F0A3F02B
:014CBF0022D2
:0A4E7500C2AFD2C0850AC0D2AF223E
:0B3660009005C6EBF0A3EAF0A3E9F030
:09366B00E4A3F0A3F09005EAF0DD
:103674009005CB04F09005C6E0FBA3E0FAA3E0F9C3
:1036840012052FFFAEF0E5F06003023754EF24C3B8
:103694006022243D60030237549005C6E0FBA3E09A
:1036A400FAA3E0F9900002E4F5F01205B1E475F034
:1036B4003D1205929005C6E0FBA3E0FAA3E0F99061
:1036C400000212055AC39464E5F094004003D380C9
:1036D40001C340037F0022E49005CAF09005ECE0AA
:1036E40004F070069005EBE004F0E49005C9F09056
:1036F40005C9E075F003A424E4F582E43405F583F8
:10370400E0FF9005C9E075F003A424E5F582E434F4
:1037140005F583E0FEA3E04F4E70079005CA04F060
:10372400801F9005C9E075F003A424E5F582E43414
:1037340005F583E4F0A3F09005C9E004F0E0B406D5
:10374400AE9005CAE0600302369D124E7502369DA6
:10375400E49005CBF09005C6E0FBA3E0FAA3E0F902
:08376400E4F5F01205927F0369
:01376C00223A
:1012CB005400023C3C7555534F5F323E3E000000CC
:1012DB0000000000000000602800163C2D2D204768
:1012EB00454F5350484552415F32303132202D2DFE
:1012FB003E000000000000000000000000000000A5
:10130B0000000048003E303030303100000041001A
:10131B0046014100471401120041004B00610E00D1
:10132B004C00000000000000000000000000000066
:10133B0000000000000000000000000000000000A2
:10134B000000000000000000000000000000000092
:10135B000000000000000000000000000000000082
:10136B000000000000000000000000000000000072
:10137B000000000000000000000000000000000062
:10138B000000000000000000000000000000000052
:10139B000000000000000000000000000000000042
:1013AB000000000000000000000000000000000032
:1013BB000000000000000000000000000000000022
:1013CB000000000000000000000000000000000012
:1013DB000000000000000000000000000000000002
:1013EB0000000000000000000000000000000000F2
:1013FB0000000000000000000000000000000000E2
:10140B0000000000000000000000000000000000D1
:10141B0000000000000000000000000000000000C1
:10142B000000000000000000000000000000006150
:10143B000E015A0000000000000000000000000038
:10144B000000000000000000000000000000000091
:10145B000000000000000000000000000000000081
:10146B000000000000000000000000000000000071
:10147B000000000000000000000000000000000061
:10148B000000000000000000000000000000000051
:10149B000000000000000000000000000000000041
:1014AB000000000000000000000000000000000031
:1014BB000000000000000000000000000000000021
:1014CB000000000000000000000000000000000011
:1014DB000000000000000000000000000000000001
:1014EB0000000000000000000000000000000000F1
:1014FB0000000000000000000000000000000000E1
:10150B0000000000000000000000000000000000D0
:10151B0000000000000000000000000000000000C0
:10152B0000000000000000000000000000000000B0
:10153B0000000000000000000000000000000000A0
:10154B0000410268C00114FF410269004100000024
:04155B00410001004A
:030023000224CAEA
:1024CA00C0E0C083C082C0D0E8C0E0EEC0E0EFC088
:1024DA00E0C2AF209803022646C298900048E0D393
:1024EA00940E74809481400A90026AE4F0A3F00288
:1024FA0026C67814A6999005E4E4F0E6700302254E
:10250A00B824D86069146026245260030225DD7855
:10251A0014E6FF900048E0244CF582E43400F58389
:10252A00EFF0900048E004F01876010225F97813DC
:10253A00E6B4011A90004CE4F0A374D7F0A374290E
:10254A00F09000487403F0900269E4F0801978145E
:10255A00E6FF900048E0244CF582E43400F583EF6E
:10256A00F0900048E004F0781376000225F9781319
:10257A00E6B4011B90004CE4F0A374D7F0A37428CE
:10258A00F09000487403F09002697401F0801978A1
:10259A0014E6FF900048E0244CF582E43400F58309
:1025AA00EFF0900048E004F0781376008041781349
:1025BA00E6B40104760080377814E6FF900048E01C
:1025CA00244CF582E43400F583EFF0900048E004EF
:1025DA00F0801C7814E6FF900048E0244CF582E471
:1025EA003400F583EFF0900048E004F0187600908C
:1025FA000048E0D39406402090004BE02406FFE414
:10260A0033FE900048E06F7001EE70307812760168
:10261A00C2ACC29C08F68024900048E0B4061DE0D3
:10262A00244BF582E43400F583E090004BF09002ED
:10263A0069E0B4010790004BE0541FF030997BC267
:10264A009990004AE0FF900049E0C39F505EE0C3C2
:10265A0094034007900269E0B40118900049E0240D
:10266A005AF582E43401F583E0F599900049E004D3
:10267A00F080477813E6702B900049E0245AF582DF
:10268A00E43401F583E0B4D7027601900049E024EE
:10269A005AF582E43401F583E0F599900049E004A3
:1026AA00F0801775990078137600800E900049E43F
:1026BA00F07813F690026AF0A3F0D2AFD0E0FFD020
:0E26CA00E0FED0E0F8D0D0D082D083D0E03255
:104D6400C299C298123A79E4900048F0A3F0A3F0F3
:104D7400C2B57813F690026874C0F0E490026AF049
:034D8400A3F02277
:102EA700E4FF90015AF0A374D7F0A37429F09000BF
:102EB70046E090015DF0A37402F0900268E0900193
:102EC70060F0E4EFC39414501A74022FF582E434CF
:102ED70000F583E0FE74612FF582E43401F583EE9B
:102EE700F0800C74612FF582E43401F583E4F00F70
:102EF700EFB414CFE4FFEFC394085018743E2FF5D6
:102F070082E43400F583E0FE74752FF582E4340122
:102F1700F583EEF00FEFB405DD9003D0E090017A72
:102F2700F0E4FF9003D0E0FEEFC39E504C75F0191C
:102F3700EFA42473F582E5F03402F583E0FEC45470
:102F4700F0FE75F019EFA42474F582E5F03402F56C
:102F570083E04EFE75F002EFA4247BF582E5F034A2
:102F670001F583EEF075F002EFA4247CF582E5F01D
:102F77003401F583E4F00F80AAE4FF900047E0FEF8
:102F8700EFC39E502D74162FF582E43400F583E0CD
:102F9700FE9003D0E075F002A42FF582E435F0F53A
:102FA70083E582247BF582E5833401F583EEF00F18
:102FB70080C99003D0E025E0FD241CFF900047E086
:102FC7002F90015FF07E017F5BED2420FD9000478D
:102FD700E02DFD124D87900047E0FE9003D0E0FD05
:102FE70075F002A42EF582E435F0F583E582247BA3
:102FF700F582E5833401F583EFF0ED25E02422FF28
:06300700900047E02FFFDE
:01300D0022A0
:030006007F002256
:03000E007F00224E
:030016007F002246
:10300E00E4FF9005C6F0900051E014FEEFC39E4021
:10301E000302316074522FF582E43400F583E0FE32
:10302E009003D0E0FDEEC39D400302315A74532F3E
:10303E00F582E43400F583E0FEC4540F60030231E0
:10304E005374522FF582E43400F583E075F019A421
:10305E002474F582E5F03402F583E0FE74532FF507
:10306E0082E43400F583E0FDEE6D705974522FF555
:10307E0082E43400F583E075F019A42475F582E539
:10308E00F03402F583E0FE74542FF582E43400F53B
:10309E0083E0FDEE6D702E74522FF582E43400F550
:1030AE0083E075F019A42476F582E5F03402F583F9
:1030BE00E0FE74552FF582E43400F583E0FDEE6DED
:1030CE00700302315074542FF582E43400F583E01E
:1030DE00FE74522FF582E43400F583E075F019A4E6
:1030EE002475F582E5F03402F583EEF074552FF574
:1030FE0082E43400F583E0FE74522FF582E434004E
:10310E00F583E075F019A42476F582E5F03402F526
:10311E0083EEF074532FF582E43400F583E0540F00
:10312E00FE74522FF582E43400F583E075F019A495
:10313E002474F582E5F03402F583EEF09005C67442
:10314E0001F00F8001000F0F0F0230147F011249A2
:10315E00FF229005C6E060031247F4E4FF1249FF18
:01316E00223E
:03001E007F00223E
:030026007F002236
:03002E007F00222E
:034E86007F002288
:104E22009002687440F0780C761212443DE4FF124E
:034E320049FF2213
:10078D00E4F508F50990015AF0A374D7F0A3742984
:10079D00F0900046E090015DF0A37415F0900268B2
:1007AD00E0900160F0750807E4F5099003D0E0FFD3
:1007BD00E509C39F4003020B62AF080508745A2F69
:1007CD00F582E43401F583E509F075F019A424737D
:1007DD00F582E5F03402F583E0C454F0FF75F019AD
:1007ED00E509A42474F582E5F03402F583E04FFFAA
:1007FD00AE080508745A2EF582E43401F583EFF046
:10080D0075F019E509A42473F582E5F03402F5833A
:10081D00E01470030209DA147003020A89240260DD
:10082D0003020B5D75F019E509A42474F582E5F05A
:10083D003402F583E024FD70030208DB240360031A
:10084D00020B5D75F019E509A4247FF582E5F034FE
:10085D0002F583E0640175F019702FE509A4247D7C
:10086D00F582E5F03402F583E0FFAE080508745A11
:10087D002EF582E43401F583EFF075F019E509A446
:10088D00247CF582E5F03402802DE509A42479F568
:10089D0082E5F03402F583E0FFAE080508745A2EA8
:1008AD00F582E43401F583EFF075F019E509A42420
:1008BD0078F582E5F03402F583E0FFAE08050874A3
:1008CD005A2EF582E43401F583EFF00209A775F095
:1008DD0019E509A4247FF582E5F03402F583E0647F
:1008ED000175F0197051E509A4247EF582E5F03407
:1008FD0002F583E0FFAE080508745A2EF582E43444
:10090D0001F583EFF075F019E509A4247DF582E575
:10091D00F03402F583E0FFAE080508745A2EF58217
:10092D00E43401F583EFF075F019E509A4247CF5A5
:10093D0082E5F03402804FE509A4247AF582E5F0D2
:10094D003402F583E0FFAE080508745A2EF582E4F3
:10095D003401F583EFF075F019E509A42479F582DA
:10096D00E5F03402F583E0FFAE080508745A2EF564
:10097D0082E43401F583EFF075F019E509A42478CC
:10098D00F582E5F03402F583E0FFAE080508745AF0
:10099D002EF582E43401F583EFF075F019E509A425
:1009AD002475F582E5F03402F583E0FFAE08050805
:1009BD00745A2EF582E43401F583EFF075F019E5E4
:1009CD0009A42476F582E5F03402020B4975F0197D
:1009DD00E509A42474F582E5F03402F583E06003A3
:1009ED00020B5D75F019E509A4247AF582E5F03462
:1009FD0002F583E0FFAE080508745A2EF582E43443
:100A0D0001F583EFF075F019E509A42479F582E578
:100A1D00F03402F583E0FFAE080508745A2EF58216
:100A2D00E43401F583EFF075F019E509A42478F5A8
:100A3D0082E5F03402F583E0FFAE080508745A2E06
:100A4D00F582E43401F583EFF075F019E509A4247E
:100A5D0077F582E5F03402F583E0FFAE0805087402
:100A6D005A2EF582E43401F583EFF075F019E5099E
:100A7D00A42475F582E5F03402020B4975F019E5F1
:100A8D0009A42474F582E5F03402F583E014605A6C
:100A9D00046003020B5D75F019E509A4247AF58253
:100AAD00E5F03402F583E0FFAE080508745A2EF523
:100ABD0082E43401F583EFF075F019E509A424798A
:100ACD00F582E5F03402F583E0FFAE080508745AAF
:100ADD002EF582E43401F583EFF075F019E509A4E4
:100AED002475F582E5F03402805275F019E509A4FC
:100AFD00247AF582E5F03402F583E0FFAE080508AF
:100B0D00745A2EF582E43401F583EFF075F019E592
:100B1D0009A42479F582E5F03402F583E0FFAE08EF
:100B2D000508745A2EF582E43401F583EFF075F063
:100B3D0019E509A42475F582E5F03402F583E0FF8B
:100B4D00AE080508745A2EF582E43401F583EFF0F2
:100B5D0005090207B8E50824FB90015FF07E017FCF
:100B6D005BE50814FD124D87745A2508F582E434AF
:090B7D0001F583EFF0E50804FF27
:010B8600224C
:103B6A00900057E0FF90026EEFF0900056E0FF9051
:103B7A00026FEFF0900055E0FF900270EFF09000B6
:103B8A0054E0FF900271EFF090026EE0FCA3E0FDBA
:103B9A00A3E0FEA3E0FF9006171206F190005BE097
:103BAA00FF90026EEFF090005AE0FF90026FEFF084
:103BBA00900059E0FF900270EFF0900058E0FF90FB
:103BCA000271EFF090026EE0FCA3E0FDA3E0FEA319
:103BDA00E0FF90061B1206F1900053E0FFEF120778
:103BEA003A3BF8003C30013C3C0200003C48900063
:103BFA0052E0FFEFC0E0900617E0FCA3E0FDA3E06F
:103C0A00FEA3E0FF9005C71206F190061BE0FCA395
:103C1A00E0FDA3E0FEA3E0FF9005CB1206F1D0E0A1
:103C2A00FF1241C48019900052E0FF7D00123ED776
:103C3A00800D900052E0FF7D01123ED78001007F87
:043C4A00001249FF1C
:013C4E002253
:10387400750B0090015AE4F090015B74D7F090014D
:103884005C7429F0900046E0FF90015DEFF0900138
:103894005E74CCF090015F740BF0900052E0FF8FE7
:1038A4000B9003D0E0FFE50BC39F40067F0912494C
:1038B400FF22900160E50BF0AF0B75F019EFA42423
:1038C4007FF582E5F03402F583E0FF900161EFF0CB
:1038D400AF0B75F019EFA42480F582E5F03402F5FE
:1038E40083E0FCA3E0FDA3E0FEA3E0FF90026E12E0
:1038F40006F190026EE0FF900165EFF090026FE038
:10390400FF900164EFF0900270E0FF900163EFF02C
:10391400900271E0FF900162EFF0AF0B75F019EFC8
:10392400A42484F582E5F03402F583E0FCA3E0FDF1
:10393400A3E0FEA3E0FF90026E1206F190026EE097
:10394400FF900169EFF090026FE0FF900168EFF0E3
:10395400900270E0FF900167EFF0900271E0FF9039
:103964000166EFF07E017F5B7D0F124D8790016A47
:04397400EFF07F11E0
:01397800222C
:10470600900647E4F0900051E0FFEF24E5FF9006A5
:1047160047EFF0900647E0FFEF6054900052E0FF4D
:104726007B017A007953EBC0E0EAC0E0E9C0E07BA8
:10473600017A00796790060EEBF0A3EAF0A3E9F0A0
:104746007B017A00796C900611EBF0A3EAF0A3E9FD
:10475600F0900647E0FE900614EEF0D0E0F9D0E0C7
:10476600FAD0E0FB1228C07F001249FF2280067FA4
:07477600091249FF227F0038
:01477D002219
:0C4E69001226D8124BB17F001249FF2224
:1049FF00900648EFF090015AE4F090015B74D7F005
:104A0F0090015C7429F0900046E0FF90015DEFF09B
:104A1F00900050E0FF900161EFF090015E74FFF0A5
:104A2F00900268E0FF900160EFF0900648E0FF9081
:104A3F000162EFF090015F7404F07E017F5A7D09EF
:0B4A4F00124D87900163EFF07F0A22F8
:0D477E0090062CEEF0A3EFF090062EEDF06B
:10478B0090062FE4F0900630E4F0900630E4F090C1
:10479B00062EE0FF900630E0FEEEC39F5036C2D7E8
:1047AB00900630E0FF90062CE0FCA3E0FD8D828CA0
:1047BB0083E5822FF582E43583F583E0FF90062FA6
:1047CB00E02FF030D70690062FE004F0900630E093
:1047DB0004F080BB90062FE0FFC374FF9FFF900691
:0847EB002FEFF090062FE0FF14
:0147F30022A3
:101C760090063DE4F090063EE4F0900050E0FFEF61
:101C8600131313541FFFEF541FFF90063DEFF09000
:101C9600063DE0FFEFC3940E4003021F6D90015A0C
:101CA600E4F090015B74D7F090015C7428F0900129
:101CB6005DE4F0900050E0FF90015EEFF090015F70
:101CC6007403F090063DE0FF75F019EFA42473F558
:101CD60082E5F03402F583E0FFEF12073A1CF000CC
:101CE6001E48011EA50200001F3790063DE0FF7545
:101CF600F019EFA42474F582E5F03402F583E0FFD1
:101D0600EF12073A1D14001DA00300001F379006AE
:101D16003DE0FF75F019EFA4247FF582E5F034026B
:101D2600F583E0FFEFB4013990063DE0FF75F01949
:101D3600EFA4247CF582E5F03402F583E0FF900100
:101D460060EFF090063DE0FF75F019EFA4247DF5F5
:101D560082E5F03402F583E0FF900161EFF0021FA7
:101D66003790063DE0FF75F019EFA42478F582E57B
:101D7600F03402F583E0FF900160EFF090063DE05D
:101D8600FF75F019EFA42479F582E5F03402F583A6
:101D9600E0FF900161EFF0021F3790063DE0FF750E
:101DA600F019EFA4247FF582E5F03402F583E0FF15
:101DB600EF6401705190063DE0FF75F019EFA42421
:101DC6007CF582E5F03402F583E0FF90063DE0FE07
:101DD600745A2EF582E43401F583EFF090063DE067
:101DE600FF75F019EFA4247DF582E5F03402F58342
:101DF600E0FF90063DE0FE745A2EF582E43401F5CC
:101E060083EFF0021F3790063DE0FF75F019EFA44F
:101E16002478F582E5F03402F583E0FF900160EF67
:101E2600F090063DE0FF75F019EFA42479F582E500
:101E3600F03402F583E0FF900161EFF0021F3702F4
:101E46001F3790063DE0FF75F019EFA42474F58264
:101E5600E5F03402F583E0FFEF12073A1E69000051
:101E6600001F3790063DE0FF75F019EFA42479F5C1
:101E760082E5F03402F583E0FF900160EFF0900612
:101E86003DE0FF75F019EFA4247AF582E5F03402FF
:101E9600F583E0FF900161EFF0021F37021F3790D4
:101EA600063DE0FF75F019EFA42474F582E5F034E1
:101EB60002F583E0FFEF12073A1EC9001F01010079
:101EC600001F3790063DE0FF75F019EFA42479F561
:101ED60082E5F03402F583E0FF900160EFF09006B2
:101EE6003DE0FF75F019EFA4247AF582E5F034029F
:101EF600F583E0FF900161EFF0803690063DE0FF4C
:101F060075F019EFA42479F582E5F03402F583E043
:101F1600FF900160EFF090063DE0FF75F019EFA429
:101F2600247AF582E5F03402F583E0FF900161EF53
:101F3600F07B017A01795A7D0812376D90063EEFE3
:101F4600F07E017F5A90063EE0FD12477E90063EE7
:101F5600E0FE745A2EF582E43401F583EFF0900624
:091F66003EE0FFEF04FF227F00C2
:011F6F00224F
:100B870090063FE4F0900640E4F0900050E0FFEF5D
:100B9700131313541FFFEF541FFF90063FEFF090FE
:100BA700063FE0FFEFC3940E4003020F3C90015A4B
:100BB700E4F090015B74D7F090015C7428F0900129
:100BC7005DE4F0900050E0FF90015EEFF090015F70
:100BD7007406F090063FE0FF75F019EFA42473F553
:100BE70082E5F03402F583E0FFEF12073A0C0100CB
:100BF7000DAD010E630200000F0090063FE0FF7588
:100C0700F019EFA42474F582E5F03402F583E0FFD0
:100C1700EF12073A0C25000CB10300000D529006A5
:100C27003FE0FF75F019EFA4247FF582E5F0340269
:100C3700F583E0FFEFB4013990063FE0FF75F01947
:100C4700EFA4247CF582E5F03402F583E0FF900100
:100C570060EFF090063FE0FF75F019EFA4247DF5F3
:100C670082E5F03402F583E0FF900161EFF0020DB9
:100C77005290063FE0FF75F019EFA42478F582E55E
:100C8700F03402F583E0FF900160EFF090063FE05B
:100C9700FF75F019EFA42479F582E5F03402F583A6
:100CA700E0FF900161EFF0020D5290063FE0FF7503
:100CB700F019EFA4247FF582E5F03402F583E0FF15
:100CC700EF6401705090063FE0FF75F019EFA42420
:100CD7007CF582E5F03402F583E0FF90063FE0FE05
:100CE700745A2EF582E43401F583EFF090063FE065
:100CF700FF75F019EFA4247DF582E5F03402F58342
:100D0700E0FF90063FE0FE745A2EF582E43401F5C9
:100D170083EFF0803690063FE0FF75F019EFA424CB
:100D270078F582E5F03402F583E0FF900160EFF09B
:100D370090063FE0FF75F019EFA42479F582E5F0FE
:100D47003402F583E0FF900161EFF090063FE0FF8A
:100D570075F019EFA42475F582E5F03402F583E008
:100D6700FFEF5407FFEF12073A0D80000D87010DC3
:100D77008F050D970700000D9F900162E4F0801D1D
:100D87009001627402F080159001627404F0800D86
:100D97009001627406F08005900162E4F0900163AF
:100DA700740AF0020F0090063FE0FF75F019EFA4F8
:100DB7002474F582E5F03402F583E0FFEF12073A79
:100DC7000DCE0000000F0090063FE0FF75F019EF11
:100DD700A42479F582E5F03402F583E0FF90016001
:100DE700EFF090063FE0FF75F019EFA4247AF58243
:100DF700E5F03402F583E0FF900161EFF090063FE4
:100E0700E0FF75F019EFA42475F582E5F03402F5DB
:100E170083E0FFEF5407FFEF12073A0E32000E3A56
:100E2700010E42050E4A0700000E529001627440FF
:100E3700F0801E9001627442F08016900162744443
:100E4700F0800E9001627446F08006900162744053
:100E5700F0900163E4F0020F00020F0090063FE0FC
:100E6700FF75F019EFA42474F582E5F03402F583D9
:100E7700E0FFEF12073A0E87000EBF0100000EF5E4
:100E870090063FE0FF75F019EFA42479F582E5F0AD
:100E97003402F583E0FF900160EFF090063FE0FF3A
:100EA70075F019EFA4247AF582E5F03402F583E0B2
:100EB700FF900161EFF0803690063FE0FF75F01973
:100EC700EFA42479F582E5F03402F583E0FF900181
:100ED70060EFF090063FE0FF75F019EFA4247AF574
:100EE70082E5F03402F583E0FF900161EFF09001B5
:100EF700627440F0900163E4F090016474FFF07B4A
:100F0700017A01795A7D0B12376D900640EFF07E1A
:100F1700017F5A900640E0FD12477E900640E0FEB2
:100F2700745A2EF582E43401F583EFF0900640E021
:070F3700FFEF04FF227F0021
:010F3E002290
:102BC600900641E4F0900642E4F0900050E0FFEFFA
:102BD600131313541FFFEF541FFF900641EFF0909D
:102BE6000641E0FFEFC3940E4003022D3690015AD2
:102BF600E4F090015B74D7F090015C7428F09001CA
:102C06005DE4F0900050E0FF90015EEFF090015F10
:102C16007403F0900641E0FF75F019EFA42473F5F4
:102C260082E5F03402F583E0FFEF12073A2C40000C
:102C36002C9A012CF50200002D00900641E0FF754C
:102C4600F019EFA42475F582E5F03402F583E0FF70
:102C5600EF5407FFEF12073A2C6E002C75012C7DFE
:102C6600052C850700002C8D900160E4F0801D90F6
:102C760001607402F080159001607404F0800D907C
:102C860001607406F08005900160E4F090016174C3
:102C96000AF08066900641E0FF75F019EFA42475EE
:102CA600F582E5F03402F583E0FFEF5407FFEF12FB
:102CB600073A2CC8002CD0012CD8052CE0070000C0
:102CC6002CE89001607440F0801E9001607442F020
:102CD60080169001607444F0800E9001607446F096
:102CE60080069001607440F0900161E4F0800B90E2
:102CF60001607440F0900161E4F07B017A01795A39
:102D06007D0812376D900642EFF07E017F5A9006DD
:102D160042E0FD12477E900642E0FE745A2EF5828E
:102D2600E43401F583EFF0900642E0FFEF04FF2262
:022D36007F001C
:012D38002278
:034E89007F002285
:102D3900900649E4F0900050E0FFEF131313541F7D
:102D4900FFEF541FFF900649EFF0900649E0FFEFAF
:102D5900C3940E4003022EA4900052E0FFEFC31368
:102D6900FFEF5403FFEF12073A2D82002DBD012D0D
:102D7900F8022E320300002E6C900649E0FF75F030
:102D890019EFA42475F582E5F03402F583E0FFEF2D
:102D990054F0FFEFF0900649E0FF75F019EFA42415
:102DA90075F582E5F03402F583E0FFEF4400FFEFAB
:102DB900F0022EA4900649E0FF75F019EFA42475DE
:102DC900F582E5F03402F583E0FFEF54F0FFEFF010
:102DD900900649E0FF75F019EFA42475F582E5F036
:102DE9003402F583E0FFEF4401FFEFF0022EA490D7
:102DF9000649E0FF75F019EFA42475F582E5F03472
:102E090002F583E0FFEF54F0FFEFF0900649E0FF91
:102E190075F019EFA42475F582E5F03402F583E025
:102E2900FFEF4405FFEFF08072900649E0FF75F06F
:102E390019EFA42475F582E5F03402F583E0FFEF7C
:102E490054F0FFEFF0900649E0FF75F019EFA42464
:102E590075F582E5F03402F583E0FFEF4407FFEFF3
:102E6900F08038900649E0FF75F019EFA42475F554
:102E790082E5F03402F583E0FFEF54F0FFEFF090C4
:102E89000649E0FF75F019EFA42475F582E5F034E1
:0D2E990002F583E0FFEF4400FFEFF07F0043
:012EA6002209
:10376D00900626EBF0A3EAF0A3E9F0900629EDF020
:10377D0090062AE4F090062BE4F090062A7403F0EC
:10378D00900629E0FF90062AE0FEEEC39F4003025B
:10379D00386E900626E0FBA3E0FAA3E0F990062A26
:1037AD00E0FF8F8275830012046FFFEF64D7600313
:1037BD00023865900629E0FFEF14FF90062BEFF01D
:1037CD0090062AE0FF90062BE0FEEED39F40459039
:1037DD000626E0FBA3E0FAA3E0F990062BE0FF8FAD
:1037ED008275830012046FFF90062BE0FEEEFD7CC8
:1037FD0000ED2401FDEC3400FC900626E0FBA3E077
:10380D00FAA3E0F98D828C83EF1204E190062BE090
:10381D0014F080AC90062AE0FF7E00EF2401FFEE4D
:10382D003400FE900626E0FBA3E0FAA3E0F98F82B8
:10383D008E83E41204E1900626E0FBA3E0FAA3E0F8
:10384D00F9758205758300740112049C900629E0B8
:10385D0004F090062AE004F090062AE004F0023706
:06386D008D900629E0FF2A
:013873002232
:102A4900900269E0FFEF12073A2A5F002B37012B4A
:102A59008B0300002BC59003887440F090038974A0
:102A69000AF0900050E0FFEF12073A2AA5012AAEBA
:102A7900032AB7052AC0072AC9092AD20A2ADB0C60
:102A89002AE40E2AED102AF6122AFF142B11CA2B5A
:102A990023CB2B08CD2B1ADF00002B2C122EA7904D
:102AA900004AEFF02212000690004AEFF0221200CD
:102AB9000E90004AEFF02212001690004AEFF02221
:102AC90012300E90004AEFF02212001E90004AEFD9
:102AD900F02212002690004AEFF02212002E9000F8
:102AE9004AEFF022124E8690004AEFF022124E224F
:102AF90090004AEFF02212078D90004AEFF022125F
:102B0900470690004AEFF022123B6A90004AEFF024
:102B190022124E6990004AEFF02212387490004A4E
:102B2900EFF0227F061249FF90004AEFF022900051
:102B390051E0FFEFC4135407FFEF5407FFEF1207EB
:102B49003A2B5D002B66012B6F022B78032B810436
:102B590000002BC5124E8990004AEFF022122D3940
:102B690090004AEFF022122BC690004AEFF0221291
:102B79001C7690004AEFF022120B8790004AEFF082
:102B8900222290004FE0FF124D16EFC454F0FFEFE0
:102B9900C0E0900050E0FF124D16CEEFCED0E0FF1E
:102BA900EE4FFFEF12073A2BB70300002BC012318B
:0D2BB9006F90004AEFF02290004AE4F022F5
:0B194E00900631EBF0A3EAF0A3E9F0F3
:101959009006347401F0900631E0FBA3E0FAA3E0AD
:10196900F912052FFFAEF0EF8EF0120760198A0009
:101979000019B305021BD3054D1C2D055100001C90
:101989005C900048E4F0D29CC2B5D2AC9005E474F6
:1019990001F0900634E4F0900631E0FBA3E0FAA3ED
:1019A900E0F9740575F002120592900634E0FFEF34
:1019B90060077812E6FFEF70037F01229005E6E0E9
:1019C90004F070069005E5E004F0781276009002C4
:1019D90069E0FFEF12073A19ED001A59011AA2033B
:1019E90000001B55900046E0FF90004FE0FEEE6FAF
:1019F9006015900631E0FBA3E0FAA3E0F9E475F085
:101A0900001205927F0022900048E0FF744B2FF5E9
:101A190082E43400F583E0FF900000EFF07E007F60
:101A29004C900048E0FDED14FD124D87900000E058
:101A3900FEEF6E7003021B55900631E0FBA3E0FA3E
:101A4900A3E0F9E475F0001205927F0022021B550C
:101A5900900048E0FF744B2FF582E43400F583E0F1
:101A6900FF900000EFF07E007F4C900048E0FDED14
:101A790014FD12477E900000E0FEEF6E7003021B1A
:101A890055900631E0FBA3E0FAA3E0F9E475F00014
:101A99001205927F0022021B5590004DE0FF124D66
:101AA90016EFC454F0FFEFC0E090004EE0FF124D76
:101AB90016CEEFCED0E0FFEE4FFF900046E0FEEFEE
:101AC9006E6015900631E0FBA3E0FAA3E0F9E47536
:101AD900F0001205927F0022900048E0FF744A2F1F
:101AE900F582E43400F583E0FF124D16EFC454F09B
:101AF900FFEFC0E0900048E0FF744B2FF582E4341B
:101B090000F583E0FF124D16CEEFCED0E0FFEE4F89
:101B1900FF900001EFF07B017A00794C900048E0DA
:101B2900FF7E00EF24FEFDEE34FFFC12468D90008F
:101B390001E0FEEF6E6015900631E0FBA3E0FAA329
:101B4900E0F9E475F0001205927F0022122A49900B
:101B5900004AE0FFEF7018900631E0FBA3E0FAA31A
:101B6900E0F9E475F0001205927F002202198AD289
:101B7900B5C29C900049E4F078137600900049E0E2
:101B8900FF745A2FF582E43401F583E0FF8F9990B1
:101B99000049E004F0D2AC900269E0FFEF705A907E
:101BA9000631E0FBA3E0FAA3E0F975820275830030
:101BB900E475F0001205B1900631E0FBA3E0FAA349
:101BC900E0F9740575F04D120592900631E0FBA31A
:101BD900E0FAA3E0F975820275830012055AFFAE97
:101BE900F0C3EF940AEE94004003D38001C350037D
:101BF90002198A7F002202198A900631E0FBA3E0CC
:101C0900FAA3E0F9758202758300E475F000120504
:101C1900B1900631E0FBA3E0FAA3E0F9740575F091
:101C290051120592900631E0FBA3E0FAA3E0F975A1
:101C3900820275830012055AFFAEF0C3EF9403EEDA
:101C490094004003D38001C3500302198A7F002204
:101C590002198A900634E4F0900631E0FBA3E0FA19
:0C1C6900A3E0F9E475F0001205927F037F
:011C7500224C
:1028C00090060AEFF090060BEBF0A3EAF0A3E9F014
:1028D000900615E4F0A3E4F07B017A06790A9005EE
:1028E000DFE4F0A3742AF07D017C00123C4F9006D7
:1028F0000BE0FBA3E0FAA3E0F99005DFE4F0A3749A
:102900002BF07D057C00123C4F90060BE0FBA3E012
:10291000FAA3E0F9EBC0E0EAC0E0E9C0E07B017AAD
:10292000007902C8E9C8CCEACCCDEBCDD0E0F9D033
:10293000E0FAD0E0FB7E007F1412043090060EE037
:10294000FBA3E0FAA3E0F99005DFE4F0A37430F014
:102950007D027C00123C4F90060EE0FBA3E0FAA340
:10296000E0F9EBC0E0EAC0E0E9C0E07B017A007981
:102970003EC8E9C8CCEACCCDEBCDD0E0F9D0E0FA46
:10298000D0E0FB7E007F08120430900614E0FFEFD9
:102990001313543FFF7E00900615EEF0A3EFF09066
:1029A0000614E0FFEF54FCFFEF600E900616E00403
:1029B000F07006900615E004F0900615E0FEA3E026
:1029C000FFD3EF940AEE94004009900615E4F0A3BB
:1029D000740AF0900611E0FBA3E0FAA3E0F9900678
:1029E00015E0FCA3E0FD9005DFE4F0A37433F012E2
:1029F0003C4F900614E0FF900047EFF07B017A0611
:102A000079149005DFE4F0A37432F07D017C0012AC
:102A10003C4F900614E0FF7E00900611E0FBA3E01F
:102A2000FAA3E0F9EBC0E0EAC0E0E9C0E07B017A9C
:102A3000007916C8E9C8CCEACCCDEBCDD0E0F9D00E
:082A4000E0FAD0E0FB120430C3
:012A4800226B
:103A7900900643E4F0A3E4F07B017A0079469005CF
:103A8900D4E4F0A3742AF07D017C00123D32900049
:103A990046E0FFEFC39401400B900046E0FFEFD3EF
:103AA900940F40069000467401F07B017A00790278
:103AB9009005D4E4F0A3742BF07D057C00123D320F
:103AC9007B017A00793E9005D4E4F0A37430F07D4F
:103AD900027C00123D327B017A0079479005D4E4DB
:103AE900F0A37432F07D017C00123D32900047E072
:103AF900FFEFD3942840069000477428F0900047C0
:103B0900E0FFEF1313543FFF7E00900643EEF0A34E
:103B1900EFF0900047E0FFEF54FCFFEF600E9006D6
:103B290044E004F07006900643E004F0900643E098
:103B3900FEA3E0FFD3EF940AEE94004009900643F8
:103B4900E4F0A3740AF07B017A007916900643E049
:103B5900FCA3E0FD9005D4E4F0A37433F0123D32E8
:013B69002239
:04155F004103D00E66
:10443D001244D59002771206FD0000000090029004
:10444D001206FD000000009002A91206FD000000FA
:10445D00009002C21206FD000000009002DB120661
:10446D00FD000000009002F41206FD000000009017
:10447D00030D1206FD000000009003261206FD003C
:10448D0000000090033F1206FD000000009003584D
:10449D001206FD000000009003711206FD000000E1
:1044AD00009003A31206FD000000009003BC12064D
:1044BD00FD000000009003887440F0A3740AF0A37F
:0844CD001206FD8000800022B0
:1047F400E49005CFF0A31206FD00000000E490054C
:10480400CFF09005CFE0FFC3940E502BEF75F01955
:10481400A42473F9740235F0FA7B01E02410FEE459
:10482400339005DFF0A3CEF07D017C00123C4F9065
:1048340005CFE004F080CB124AB3E4FCFDFE900502
:10484400D01206F17B017A0579D09005DFE4F0A35C
:0A48540074A0F07D017C00123C4FBF
:01485E002237
:1044D500E49005C6F0A31206FD000000009005CB90
:1044E5001206FD00000000E49005C6F09005C6E048
:1044F500FFC3940E502BEF75F019A42473F97402C1
:1045050035F0FA7B01E02410FEE4339005D4F0A3E6
:10451500CEF07D017C00123D329005C6E004F080AE
:10452500CB124AB3E4FCFDFE9005CB1206F17B01EC
:104535007A0579C79005D4E4F0A374A0F07D017CD9
:1045450000123D329005C7E0FCA3E0FDA3E0FEA309
:10455500E0FFA3E0F8A3E0F9A3E0FAA3E0FBC312B0
:0745650006BA60031226D81C
:01456C00222C
:1026D800E4900272F0A3F0A37403F0A37440F0A393
:1026E8007406F0A31206FD0000000090027B12069B
:1026F800FD0000000090028B7401F0E4A3F0A374C5
:1027080003F0A37440F0A37406F0A31206FD0000C2
:1027180000009002941206FD000000009002A474CC
:1027280002F0E4A3F0A37403F0A37440F0A37406CA
:10273800F0A31206FD000000009002AD1206FD0095
:102748000000009002BD7403F0E4A3F0A37403F04A
:10275800A37440F0A37406F0A31206FD0000000065
:102768009002C61206FD000000009002D67404F024
:10277800E4A3F0A37403F0A37440F0A37406F0A3D9
:102788001206FD000000009002DF1206FD000000A6
:10279800009002EF7405F0E4A3F0A37403F0A374AF
:1027A80040F0A37406F0A31206FD0000000090029A
:1027B800F81206FD000000009003087406F0E4A378
:1027C800F0A37403F0A37440F0A37406F0A31206F8
:1027D800FD000000009003111206FD0000000090AB
:1027E80003217407F0E4A3F0A37403F0A37440F08A
:1027F800A37406F0A31206FD0000000090032A123D
:1028080006FD0000000090033A7408F0A37402F07B
:10281800A314F0A37440F0A3740AF0A31206FD00F9
:102828000000009003537409F0A37402F0A314F09D
:10283800A37440F0A3740AF0A31206FD0000000080
:1028480090036C740AF0A37402F0A314F0A374400C
:10285800F0A3740AF0A31206FD000000019003859E
:10286800740BF0A37401F0E4A3F0A37440F0A37414
:102878000AF0A31206FD8000800090039E740CF0FD
:10288800A37402F0E4A3F0A37440F0A3740AF0A3C5
:102898001206FD000000009003B7740DF0A3740247
:1028A800F0E4A3F0A37440F0A3740AF0A31206FDA9
:0828B800000000001247F422A9
:104AB300E49005D4F0A3F0A3F09005D5F0E49005BD
:104AC300D6F09005D5E075F019A42473F974023576
:104AD300F0FA7B01A3E07E0029F9EE3AFA120456BC
:104AE300FF9005D4E06F903979939005D4F0900549
:104AF300D6E004F0E0B404CA9005D5E004F0E0B4D5
:074B03000EBB9005D4E0FF9A
:014B0A002288
:03000000024303B5
:1043030043AF01787FE4F6D8FD9000007FFF7E8005
:0D431300E4F0A3DFFCDEFA75811402435BC9
:1015630060660508000000000000000000000000A5
:101573000000000000000000000000000000000068
:101583000000000000000000000000000000000058
:101593000000000000000000000000000000000048
:1015A3000000000000000000000000000000000038
:1015B3000000000000000000000000000000000028
:1015C3000000000000000000000041050300440586
:0515D30004000000000F
:103F9A00E4FF9005C6F0124E47124E0ED2AAD2A8DE
:103FAA00D288D28AE4FFEF75F022A42408F582E4CD
:103FBA003405F583E4F0A3F09005C6F0EF75F0221E
:103FCA00A4240AF582E43405F583C083C0829005EF
:103FDA00C6E0FED082D08375F00812072EE4F0A363
:103FEA00F0EF75F022A4240CF582E43405F583750C
:103FFA00F008EE12072EE4F0A3F0EF75F022A424E5
:10400A000EF582E43405F583C083C0829005C6E0CC
:10401A00FED082D08375F00812072EE4F0A3F0EFE9
:10402A0075F022A42410F582E43405F58375F008AE
:10403A00EE12072EE4F0A3F09005C6E004F0E06467
:0F404A00046003023FC60FEF64036003023FB040
:014059002244
:030003000249357A
:10493500C0E0C0F0C083C082C0D0E8C0E0ECC0E0F9
:06494500EDC0E0EFC0E050
:10494B00900508E0C3135403FF75F008A4240AF57F
:10495B0082E43405F583E475F00112050390050834
:10496B00E0FCA3E0FDEF75F008A4240CF582E43421
:08497B0005F583ECF0A3EDF05B
:10498300D0E0FFD0E0FDD0E0FCD0E0F8D0D0D08282
:07499300D083D0F0D0E03228
:0300130002499A05
:10499A00C0E0C0F0C083C082C0D0E8C0E0ECC0E094
:0649AA00EDC0E0EFC0E0EB
:1049B000900508E0C3135403FF75F008A4242CF5F8
:1049C00082E43405F583E475F001120503900508CF
:1049D000E0FCA3E0FDEF75F008A4242EF582E4349A
:0849E00005F583ECF0A3EDF0F6
:1049E800D0E0FFD0E0FDD0E0FCD0E0F8D0D0D0821D
:0749F800D083D0F0D0E032C3
:03000B0002485F49
:10485F00C0E0C0F0C083C082C0D0E8C0E0ECC0E0D0
:06486F00EDC0E0EFC0E027
:10487500758CFF758AFF900508E0C3135403FF7517
:10488500F008A4244EF582E43405F583E475F001BF
:10489500120503900508E0FCA3E0FDEF75F008A400
:0E48A5002450F582E43405F583ECF0A3EDF029
:1048B300D0E0FFD0E0FDD0E0FCD0E0F8D0D0D08253
:0748C300D083D0F0D0E032F9
:03002B00021F7041
:101F7000C0E0C0F0C083C082C0D0E8C0E0ECC0E0E8
:101F8000EDC0E0EEC0E0EFC0E0C2CF900508E0FE9B
:101F9000A3E08EF01207601FAB01FF205503FF2066
:101FA000E705FF217A07FF0000221390050DE024CA
:101FB000FFFF90050CE03407FE900524E0FCA3E051
:101FC000FDC3EF9DFFEE9C90050EF0A3EFF0900592
:101FD0000AE0FFA3E0900510CFF0A3EFF0900522F8
:101FE000E4F0A3F090052FE024FFFF90052EE034ED
:101FF00007FE900546E0FCA3E0FDC3EF9DFFEE9CCD
:10200000900530F0A3EFF090052CE0FFA3E09005E1
:1020100032CFF0A3EFF0900544E4F0A3F090055127
:10202000E024FFFF900550E03407FE900568E0FCD7
:10203000A3E0FDC3EF9DFFEE9C900552F0A3EFF0EF
:1020400090054EE0FFA3E0900554CFF0A3EFF09091
:10205000056602217690050CE0FEA3E0FFC3900523
:1020600015E09FFF900514E09E900516F0A3EFF099
:10207000900512E0FFA3E0900518CFF0A3EFF090D9
:10208000050AE4F0A3F090052EE0FEA3E0FFC39064
:102090000537E09FFF900536E09E900538F0A3EFEE
:1020A000F0900534E0FFA3E090053ACFF0A3EFF005
:1020B00090052CE4F0A3F0900550E0FEA3E0FFC3F0
:1020C000900559E09FFF900558E09E90055AF0A3B7
:1020D000EFF0900556E0FFA3E090055CCFF0A3EF92
:1020E000F090054E022176900514E0FEA3E0FFC3B8
:1020F00090051DE09FFF90051CE09E90051EF0A33B
:10210000EFF090051AE0FFA3E0900520CFF0A3EFD9
:10211000F0900512E4F0A3F0900536E0FEA3E0FF96
:10212000C390053FE09FFF90053EE09E900540F084
:10213000A3EFF090053CE0FFA3E0900542CFF0A3B1
:10214000EFF0900534E4F0A3F0900558E0FEA3E032
:10215000FFC3900561E09FFF900560E09E900562DF
:10216000F0A3EFF090055EE0FFA3E0900564CFF0F0
:10217000A3EFF0900556E402221090051CE0FEA3A8
:10218000E0FFC3900525E09FFF900524E09E9005A9
:1021900026F0A3EFF0900522E0FFA3E0900528CF02
:1021A000F0A3EFF090051AE4F0A3F090053EE0FEF6
:1021B000A3E0FFC3900547E09FFF900546E09E9097
:1021C0000548F0A3EFF0900544E0FFA3E090054A36
:1021D000CFF0A3EFF090053CE4F0A3F0900560E0B1
:1021E000FEA3E0FFC3900569E09FFF900568E09EB5
:1021F00090056AF0A3EFF0900566E0FFA3E090057C
:102200006CCFF0A3EFF090055EE4F0A3F09005082A
:10221000F0A3F0900509E004F07006900508E004D2
:10222000F0900508E05407F0D0E0FFD0E0FED0E0E9
:10223000FDD0E0FCD0E0F8D0D0D082D083D0F0D078
:02224000E0328A
:0B224200900635EBF0A3EAF0A3E9F0F2
:05224D009005F0E4F033
:102252009006387401F0900635E0FBA3E0FAA3E0A3
:10226200F912052FFFAEF0EF8EF0120760227F0009
:102272000022A900C1242000C4000024B090063529
:10228200E0FBA3E0FAA3E0F9758202758300E4752E
:10229200F0001205B1900635E0FBA3E0FAA3E0F9E5
:1022A200E475F0C1120592900635E0FBA3E0FAA3B3
:1022B200E0F975820275830012055AFFAEF0C3EF92
:1022C2009414EE94004003D38001C340037F0022A4
:1022D200900503E0FFEF75F022A42418F582E434A0
:1022E20005F583E0FEA3E0FFCBEFCBCAEECAE4F92B
:1022F200F8900503E0FFEF75F022A42410F582E4C4
:102302003405F583E0FEA3E0FFE4FCFDEF2BFBEEDA
:102312003AFAED39F9EC38F8900503E0FFEF75F081
:1023220022A42420F582E43405F583E0FEA3E0FF35
:10233200E4FCFDEB2FFBEA3EFAE93DF9E83CF890BC
:102342000503E0FFEF75F022A42428F582E43405AA
:10235200F583E0FEA3E0FFE4FCFDEB2FFFEA3EFE87
:10236200E93DFDE83CFC78121206DEECC0E0EDC06F
:10237200E0EEC0E0EFC0E0900503E0FFEF75F02271
:10238200A42416F582E43405F583E0FEA3E0FF9071
:102392000503E0FDED75F022A4240EF582E4340578
:1023A200F583E0FCA3E0FDED2FFFEC3EFE9005037C
:1023B200E0FDED75F022A4241EF582E43405F583D8
:1023C200E0FCA3E0FDEF2DFFEE3CFE900503E0FDF7
:1023D200ED75F022A42426F582E43405F583E0FCB1
:1023E200A3E0FDEF2DFFEE3CFECBEFCBCAEECAE43D
:1023F200F9F8D0E0FFD0E0FED0E0FDD0E0FC12061C
:102402001A9005041206F1900638E4F0900635E0C1
:10241200FBA3E0FAA3E0F9E475F0C412059290067A
:1024220038E0FFEF70037F01227FFF7EFF7D007C9B
:1024320000900504E0F8A3E0F9A3E0FAA3E0FBD3DF
:102442001206BA5027900504E0FCA3E0FDA3E0FECB
:10245200A3E0FF900503E0FB75F019EBA4243FF520
:1024620082E5F03403F5831206F1801B900503E048
:10247200FF75F019EFA4243FF582E5F03403F583EC
:102482001206FD0000FFFF900503E004F090050333
:10249200E0FFEFC394034005900503E4F09005F2DA
:1024A200E004F070069005F1E004F002227F90064D
:1024B20038E4F0900635E0FBA3E0FAA3E0F9E47516
:0724C200F0001205927F03F8
:0124C90022F0
:104E47005389F0438905758CFF758AFFD2A9D28CE7
:014E57002238
:104E0E00D2ADE4F5C875CCFF75CDE775CAFF75CB8D
:044E1E00E7D2CA22EB
:1015D800410575004105760041057A124A057B00F0
:1015E800000000000000000000060C0000000000E1
:0915F8000041059000410591003D
:104DE300D2EBE4900592F0A3F0900596F0A3F09037
:064DF300059AF0A3F02276
:104CED00EF25E054FE900574F09005CEE09005752B
:104CFD00F09005D2E0900576F0A3EBF0A3EAF0A3D7
:094D0D00E9F09005907401F02218
:100F3F009005C6EBF0A3EAF0A3E9F0E49005F3F017
:100F4F009005C904F012052FFFAEF0E5F060030223
:100F5F0012B2EF12073A0F93000FA54C0FD0570F95
:100F6F00F45D10456610827110D378111485113F0E
:100F7F008B11909311CD9B1223A21264AE1288B3E2
:100F8F00000012B29005C6E0FBA3E0FAA3E0F9E47B
:100F9F0075F04C120592900590E07002FF22E490DC
:100FAF000590F0D2EEC2EDD2EFD2ED9005C9F090E0
:100FBF0005C6E0FBA3E0FAA3E0F9E475F0571205CC
:100FCF00929005C9E070037F0122C2EFE49005966D
:100FDF00F0A3F09005C6E0FBA3E0FAA3E0F9E475F7
:100FEF00F05D1205927A0579749005CD7401F0A326
:100FFF007405F0A37474F0A37401F0FB7A0579966D
:10100F001232CDC3EF6480948250028001C350032B
:10101F007F0022900591E06041C2EDC2EFD2EDE476
:10102F009005C9F09005C6E0FBA3E0FAA3E0F9E450
:10103F0075F0661205929005C9E070037F0122D208
:10104F00EFE4900591F09005C6E0FBA3E0FAA3E072
:10105F00F9E4F5F01205927F0022E4900596F0A3D3
:10106F00F09005C6E0FBA3E0FAA3E0F9E475F07198
:10107F001205929005CDE4F0A37400F0A3740CF068
:10108F00900575E09005D0F07B017A0579961232C4
:10109F00CDC3EF6480948250028001C350037F0060
:1010AF0022900591E06041C2EDC2EFD2EDE49005D0
:1010BF00C9F09005C6E0FBA3E0FAA3E0F9E475F0F0
:1010CF00781205929005C9E070037F0122D2EFE4F8
:1010DF00900591F09005C6E0FBA3E0FAA3E0F9E4D8
:1010EF00F5F01205927F0022C2EDD2EFD2EDE4901F
:1010FF0005C9F09005C6E0FBA3E0FAA3E0F9E4759B
:10110F00F0851205929005C9E070037F0122C2EFAE
:10111F00900574E04401F0E4900596F0A3F090057B
:10112F00C6E0FBA3E0FAA3E0F9E475F08B12059299
:10113F007A0579749005CD7401F0A37405F0A3744A
:10114F0074F0A37401F0FB7A0579961232CDC3EFD8
:10115F006480948250028001C350037F0022900567
:10116F0091E06041C2EDC2EFD2EDE49005C9F0907D
:10117F0005C6E0FBA3E0FAA3E0F9E475F0931205CE
:10118F00929005C9E070037F0122D2EFE4900591A0
:10119F00F09005C6E0FBA3E0FAA3E0F9E4F5F01246
:1011AF0005927F0022E4900592F0A3F09005C6E02F
:1011BF00FBA3E0FAA3E0F9E475F09B1205927A0520
:1011CF0079859005CD7401F0A37405F0A37485F0B3
:1011DF00900576E09005D0F07B017A057992123573
:1011EF0050C3EF6480948250028001C350037F008C
:1011FF0022900591E06041C2EDC2EFD2EDE490057F
:10120F00C9F09005C6E0FBA3E0FAA3E0F9E475F09E
:10121F00A21205929005C9E070037F0122D2EFE47C
:10122F00900591F09005C6E0FBA3E0FAA3E0F9E486
:10123F00F5F01205927F0022C2EDC2EFD2EDE490DD
:10124F0005C9F09005C6E0FBA3E0FAA3E0F9E47549
:10125F00F0AE1205929005C9E070037F0122D2EF24
:10126F00E490059AF0A3F09005C6E0FBA3E0FAA383
:10127F00E0F9E475F0B31205927B017A05799A12C1
:10128F003E11C3EF6480948250028001C350037FEC
:10129F0000229005F5E004F070069005F4E004F0EC
:1012AF00020F93E49005C9F09005C6E0FBA3E0FAA6
:0B12BF00A3E0F9E4F5F01205927F03B4
:0112CA002201
:0B3550009005CAEBF0A3EAF0A3E9F03D
:10355B009005D17401F012052FFFAEF0E5F060037A
:10356B00023647EF2436604224E4700302363024DF
:10357B00E66003023647E490056EF09005D0E0FF5D
:10358B0090056EE0C39F4003023640E4900570F057
:10359B00C2EEC2ED9005D1F09005CAE0FBA3E0FAB4
:1035AB00A3E0F9E475F0CA1205929005D1E070031F
:1035BB007F0122E490056FF0D2ED900570E0FF25BE
:1035CB00E0FFA2ECE4334FF0C2ED90056FE004F0A6
:1035DB00E0B408E4900570E0FF9005CDE0FBA3E0BC
:1035EB00FAA3E0F990056EE0F582758300EF120403
:1035FB00E190056EE004F0D2EE9005D0E0FF90056F
:10360B006EE0C39F5004C2EF8002D2EFD2EDE49084
:10361B0005D1F09005CAE0FBA3E0FAA3E0F9E4754D
:10362B00F0E61205929005D1E070037F0122C2ED06
:10363B00C2EE023586D2EEE4900591F0E49005D10E
:10364B00F09005CAE0FBA3E0FAA3E0F9E4F5F01271
:04365B0005927F0352
:01365F002248
:0B32CD009005CAEBF0A3EAF0A3E9F0C3
:1032D8009005D17401F012052F12076032FC00002E
:1032E800334D00FF337F010733B0010E33D3011094
:1032F80000003405D2EEE4900571F09005D0E0FFAF
:10330800900571E0C39F40030234009005CDE0FBB7
:10331800A3E0FAA3E0F9900571E0F5827583001245
:10332800046F900573F0900571E004F0C2EDE4902D
:1033380005D1F09005CAE0FBA3E0FAA3E0F9E47533
:10334800F0FF1205929005D1E070037F0122E4900E
:103358000572F0900573E0FF25E0F092EFD2EDE4FE
:103368009005D1F09005CAE0FBA3E0FAA3E0F97458
:103378000175F0071205929005D1E070037F0122D4
:10338800C2ED900572E004F0E0B408C7C2EEC2EDE9
:10339800E49005D1F09005CAE0FBA3E0FAA3E0F9B8
:1033A800740175F00E1205929005D1E070037F014B
:1033B80022D2EDE49005D1F09005CAE0FBA3E0FA33
:1033C800A3E0F9740175F0101205929005D1E07030
:1033D800037F0122C2EDD2EE20EC030233039005F5
:1033E800917401F09005CAE0FBA3E0FAA3E0F9E4C8
:1033F800F5F01205927F0222E4900591F0E4900521
:10340800D1F09005CAE0FBA3E0FAA3E0F9E4F5F0F7
:053418001205927F0384
:01341D00228C
:0B3E11009005CAEBF0A3EAF0A3E9F073
:103E1C00A37401F012052FFFAEF06003023EBEEE5C
:103E2C006003023EBE7E057F857D0A124D8790059C
:103E3C008FE06F7079900585E0FCA3E0FDA3E0FEB8
:103E4C00A3E0FF90038A1206F1900589E06022142A
:103E5C00704C90058AE0FEA3E0FFE4FCFD9003A308
:103E6C001206F19003A07401F09003D0740DF08051
:103E7C002D90058AE0FEA3E0FFE4FCFD9003A31265
:103E8C0006F190058CE0FEA3E0FFE4FCFD9003BC82
:103E9C001206F1E49003A0F09003D0740EF090029F
:103EAC0068E0FF90058EE0FEEF4E900268F0E4783B
:103EBC000CF6E49005CDF09005CAE0FBA3E0FAA364
:0A3ECC00E0F9E4F5F01205927F031F
:013ED60022C9
:05405A009005CAEFF023
:10405F009005CF1206FD000000009005CBE0FCA3F9
:10406F00E0FDA3E0FEA3E0FFE41202A19005CAE089
:10407F0075F019A42480F582E5F03402F583E0F899
:10408F00A3E0F9A3E0FAA3E0FB12012E9005CAE02A
:10409F0075F019A42484F582E5F03402F583E0F875
:1040AF00A3E0F9A3E0FAA3E0FB12003D9005CF12C5
:1040BF0006F17FFF7EFF7D7F7C4B9005CFE0F8A35D
:1040CF00E0F9A3E0FAA3E0FB120234600A4008749F
:1040DF00FFFFFEFD7C0022E4FFFEFDFC9005CFE01C
:1040EF00F8A3E0F9A3E0FAA3E0FB1202345006E4D0
:1040FF00FFFEFDFC229005CFE0FCA3E0FDA3E0FE58
:06410F00A3E0FF1202DF35
:014115002287
:1043A000E49005C6F0A31206FD000000009005CBC6
:1043B0001206FD00000000E49005C6F09005C6E07E
:1043C000FFC3940E5030EF75F019A4247FF97402E6
:1043D00035F0FA7B01E075F003A42450FEE435F0DB
:1043E0009005D4F0A3CEF07D037C00123D32900501
:1043F000C6E004F080C6124B0BE4FCFDFE9005CB3A
:104400001206F17B017A0579C79005D4E4F0A37414
:10441000A1F07D017C00123D329005C7E0FCA3E0D5
:10442000FDA3E0FEA3E0FFA3E0F8A3E0F9A3E0FA18
:0C443000A3E0FBC31206BA6003124BB1FC
:01443C00225D
:0541C4009005C6EFF0BC
:1041C9009005CF1206FD000000009005C7E0FCA392
:1041D900E0FDA3E0FEA3E0FF9005C6E0FB75F01942
:1041E900A42480F582E5F03402F5831206F19005E6
:1041F900CBE0FCA3E0FDA3E0FEA3E0FF75F019EB23
:10420900A42484F582E5F03402F5831206F1EB75F6
:10421900F019A4247FF9740235F0FA7B019005C6E0
:10422900E075F003A42450FEE435F09005DFF0A317
:10423900CEF07D037C00123C4F124B0BE4FCFDFEDB
:104249009005CF1206F17B017A0579CF9005DFE45D
:0C425900F0A374A1F07D017C00123C4F2A
:014265002236
:104B0B00E49005DAF0A3F0A3F09005DBF0E4900558
:104B1B00DCF09005DBE075F019A4247FF974023505
:104B2B00F0FA7B01A3E07E0029F9EE3AFA12045663
:104B3B00FF9005DAE06F903979939005DAF09005E4
:104B4B00DCE004F0E0B40CCA9005DBE004F0E0B468
:074B5B000EBB9005DAE0FF3C
:014B62002230
:093ED7009005D4EFF0A3EDF0FB1F
:103EE000A31206FD00000000EB640170439005D4AE
:103EF000E0FF75F019A4247FF582E5F03402F58324
:103F00007401F0EF75F019A4247FF9740235F0FA0A
:103F10007B019005D4E075F003A42450FEE435F055
:103F20009005DFF0A3CEF07D037C00123C4F80466D
:103F30009005D5E070409005D4E0FF75F019A424F9
:103F40007FF582E5F03402F583E4F0EF75F019A413
:103F5000247FF9740235F0FA7B019005D4E075F006
:103F600003A42450FEE435F09005DFF0A3CEF07DED
:103F7000037C00123C4F124B0BE4FCFDFE9005D677
:103F80001206F17B017A0579D69005DFE4F0A3747F
:093F9000A1F07D017C00123C4F00
:013F99002205
:104BB100E49005CFF0A31206FD00000000E490058B
:104BC100CFF09005CFE0FFC3940E500DE4FD123EEF
:104BD100D79005CFE004F080E9124B0BE4FCFDFE19
:104BE1009005D01206F17B017A0579D09005DFE4BA
:0C4BF100F0A374A1F07D017C00123C4F89
:014BFD002295
:101601004105C10041059E0041059F004105A00023
:0B161E009005C6EBF0A3EAF0A3E9F092
:05162900E49005E7F06C
:10162E009005C904F012052FFFAEF0E5F06003023D
:10163E001935EF24ED603724F670030216FA24F5FF
:10164E00700302176424F4700302184C24346003F0
:10165E000219359005C6E0FBA3E0FAA3E0F990006D
:10166E0002E4F5F01205B1E475F01312059290053F
:10167E00C6E0FBA3E0FAA3E0F990000212055AC3FC
:10168E009401E5F094004003D38001C340037F0032
:10169E00229005C1E075F026A424F8F582E5F03419
:1016AE0003F583E0706A90059EF09005C1E075F039
:1016BE0026A424F8F582E5F03403F583E070369025
:1016CE00059EE06408602E9005C1E0045407F0907A
:1016DE00059EE004F0E49005C9F09005C6E0FBA37A
:1016EE00E0FAA3E0F9E475F01D1205929005C9E049
:1016FE0070B87F012290059EE0B408149005C6E0F4
:10170E00FBA3E0FAA3E0F9E4F5F01205927F0022C4
:10171E009005C1E075F026A424D3F9740335F0FAD0
:10172E007B01EAC0E0E9C0E07A0579A178A17C05E9
:10173E007D01D0E0F9D0E0FA7E007F20120430E483
:10174E009005C9F09005C6E0FBA3E0FAA3E0F9E42A
:10175E0075F0281205929005C9E070037F01229062
:10176E00059F7407F0E49005A0F090059FE0FFA39D
:10177E00E0C39F400302185EE025E025E024A5F5B6
:10178E0082E43405F583E0FCA3E0FDA3E0FEA3E0D4
:10179E00FF9005A0E025E025E024A1F582E43405C4
:1017AE00F583E0F8A3E0F9A3E0FAA3E0FBD3120679
:1017BE00BA40749005A0E025E025E024A1F582E46E
:1017CE003405F583E0FCA3E0FDA3E0FEA3E0FF906B
:1017DE0005C21206F19005A0E025E025E024A5F54E
:1017EE0082E43405F583E0FCA3E0FDA3E0FEA3E074
:1017FE00FF9005A0E025E025E024A1F582E4340564
:10180E00F5831206F19005C2E0FCA3E0FDA3E0FE15
:10181E00A3E0FF9005A0E025E025E024A5F582E4F5
:10182E003405F5831206F1E49005C9F09005C6E083
:10183E00FBA3E0FAA3E0F9E475F0341205929005EB
:10184E00C9E070037F01229005A0E004F002177832
:10185E0090059FE014F0E060030217739005B1E06D
:10186E00FCA3E0FDA3E0FEA3E0FF9005ADE0F8A32E
:10187E00E0F9A3E0FAA3E02FFFEA3EFEE93DFDE822
:10188E003CFC78011206CB9005C1E075F019A4243A
:10189E0077F582E5F03402F5831206F19005C1E08A
:1018AE0075F019A4247FF582E5F03402F583E0602B
:1018BE00409005C1E075F019A42477F582E5F03467
:1018CE0002F583E0FCA3E0FDA3E0FEA3E0FF90059C
:1018DE00CB1206F19005C1E0FF12405A9005C1E00F
:1018EE0075F019A4247BF582E5F03402F583120617
:1018FE00F19005C1E075F026A424F8F582E5F034E8
:10190E0003F583E4F09005E9E004F070069005E835
:10191E00E004F09005C6E0FBA3E0FAA3E0F9E4F5DD
:10192E00F01205927F0022E49005C9F09005C6E002
:0F193E00FBA3E0FAA3E0F9E4F5F01205927F03B2
:01194D002277
:104E580053890F438910758D8A758BD0D2ABD28E4A
:014E68002227
:1039790000BC01BD02BE03BF04B805B906BA07BB46
:1039890008B409B50AB60BB70CB00DB10EB20FB336
:1039990010AC11AD12AE13AF14A815A916AA17AB26
:1039A90018A419A51AA61BA71CA01DA11EA21FA316
:1039B900209C219D229E239F24982599269A279B06
:1039C900289429952A962B972C902D912E922F93F6
:1039D900308C318D328E338F34883589368A378BE6
:1039E900388439853A863B873C803D813E823F83D6
:1039F90040FC41FD42FE43FF44F845F946FA47FBC6
:103A090048F449F54AF64BF74CF04DF14EF24FF3B5
:103A190050EC51ED52EE53EF54E855E956EA57EBA5
:103A290058E459E55AE65BE75CE05DE15EE25FE395
:103A390060DC61DD62DE63DF64D865D966DA67DB85
:103A490068D469D56AD66BD76CD06DD16ED26FD375
:103A590070CC71CD72CE73CF74C875C976CA77CB65
:103A690078C479C57AC67BC77CC07DC17EC27FC355
:104D8700E4FCCBEDCB1DEB60160FEFCAEECA70014A
:104D97000E14F5828A83E06C90397993FC80E3CF17
:024DA700ECCF4F
:014DA90022E7
:0C16110041061F00410620004106210098
:10468D009005C6EBF0A3EAF0A3E9F0A3ECF0A3EDDF
:01469D00F02C
:10469E00E4A3F09005C9E07002A3E060529005C655
:1046AE00E0FBA3E475F001120519A9F0FA12045605
:1046BE00FF124D16EFC454F0FEEEC0E09005C6E0BA
:1046CE00FBA3E475F001120519A9F0FA120456FFC6
:1046DE00124D16D0E04FFF9005CBE02FF0E0F0909A
:1046EE0005CAE024FEF09005C9E034FFF080A490E6
:0746FE0005CBE0F404FFF01E
:014705002291
:104D1600CEEFCEEEC39430400CEED394395006C39A
:104D2600EE9430FF22EEC39441400BEED3944650EE
:094D360005EE24C9FF227FFF22D3
:104D3F00CEEFCEEED394095005EE2430FF22EEC312
:104D4F00940A400BEED3940F5005EE2437FF227FC9
:054D5F00FF227F30225D
:104BFE0090000112046FFF124D16CDEFCD12045628
:104C0E00FF124D16EFC454F04D9005C6F090000201
:104C1E0012046FFF124D16EFC454F0FD90000312F4
:104C2E00046FFF124D16EF4D9005C7F09005C6E0CC
:044C3E00FEA3E0FFF2
:014C4200224F
:104DC80090000112046FFF124D16CDEFCD1204565C
:0A4DD800FF124D16EFC454F04DFF1A
:014DE20022AE
:104B6300900645EEF0A3EFF0900645E0540FFF12D8
:104B73004D3F900001EF1204E1900645E0FFC4545D
:104B83000FFF124D3FEF1204CF900646E0540FFF84
:104B9300124D3F900003EF1204E1900646E0FFC47C
:0D4BA300540FFF124D3F900002EF1204E18D
:014BB00022E2
:104DAA00CDEFCDEDC4540FFF124D3FEF1204CFEDFE
:0E4DBA00540FFF124D3F900001EF1204E12252
:1046040090000112046FFF124D16CDEFCD12045627
:10461400FF124D16EFC454F04D900639F09000028D
:1046240012046FFF124D16EFC454F0FD90000312F4
:10463400046FFF124D16EF4D90063AF090000412ED
:10464400046FFF124D16EFC454F0FD9000051204E0
:104654006FFF124D16EF4D90063BF09000061204CA
:104664006FFF124D16EFC454F0FD90000712046F53
:10467400FF124D16EF4D90063CF0900639E0FCA376
:08468400E0FDA3E0FEA3E0FF4E
:01468C00220B
:1048CA009005C61206F19005CAEBF0A3EAF0A3E937
:0148DA00F0ED
:1048DB00E4A3F09005C6E0FCA3E0FDA3E0FEA3E09B
:1048EB00E4FFFEFDEC54F0FC781C1206CB124D3F9E
:1048FB00A3E0FBA3E0FAA3E0F9A3E0F58275830044
:10490B00EF1204E19005C6E0FCA3E0FDA3E0FEA3DB
:10491B00E0FF78041206DE9005C61206F19005CD75
:09492B00E004F0E0C3940840AA86
:014934002260
:10316F00E4900620F07B017A00794F124BFE900617
:10317F0022EEF0A3EFF07A007951124BFE90062465
:10318F00EEF0A3EFF0900622E0FEA3E0FFC3EE9473
:10319F001050030232C4D3EF940EEE94104003028A
:1031AF0032C4900625E0940E900624E0940040036C
:1031BF000232C490015A743AF0900620E004F09065
:1031CF000046E0FF7A01795B124DAA900620E024B9
:1031DF0002F07A01795D7F03124DAA900620E02458
:1031EF0002F0E02402F0900622E0A3E090061FF028
:1031FF00900624E0FEA3E0FF900623E02FFF900649
:10320F0022E03EC313FEEF13FF90061FE0FDC39FA6
:10321F00E49E503B75F019EDA42477F582E5F03468
:10322F0002F583E0FCA3E0FDA3E0FEA3E0FF900620
:10323F0020E07A00245AF9EA3401FA7B011248CAD5
:10324F00900620E02408F090061FE004F080A19083
:10325F000620E024F9FF7B017A01795F124DAA7AEB
:10326F0001795B900620E024FFFDE434FFFC124659
:10327F008D900621EFF0E0FF900620E07C00245AAD
:10328F00F9EC3401FA7B01124DAA900620E02402DA
:10329F00F0E0FF245AF582E43401F583740DF074E5
:1032AF005A2FF582E43401F583740AF0900620E07A
:0D32BF002402F080037F0022900620E0FF33
:0132CC0022DF
:1000360002034BE86480F8E933E83360110460F0AA
:10004600ED33EC337009E8FCE9FDEAFEEBFF220430
:1000560060DED3EB9FEA9EE99DE8C2E78CF0C2F72B
:1000660095F0400CE8CCF8E9CDF9EACEFAEBCFFBF7
:1000760012031685D0F05804700320D5B3E8047037
:10008600075002B2D502035592D5EC0460F7E4CCD2
:10009600C0E0C398F8603B94186008400DD0E0FBC0
:1000A60002032DE4FBFAC9FC8028E830E406E4C923
:1000B600FBE4CAFCE830E305E4C9CACBFCE8540714
:1000C6006010F8C3E913F9EA13FAEB13FBEC13FC1F
:1000D600D8F130F52FC3E49CFCEF9BFFEE9AFEEDC2
:1000E60099FDD0E0FBEF4E4D4C701222DB0302036C
:1000F60052EC2CFCEF33FFEE33FEED33FDED30E733
:10010600EB02032DEF2BFFEE3AFEED39FDD0E0FBBF
:1001160050130BBB0003020355ED13FDEE13FEEF68
:0801260013FFEC13FC02032D92
:10012E00EC4D6011E8497017ED33EC3304600DE4CB
:10013E00FCFFFEFD22E933E8330470F802034B1294
:10014E00031658046009E4CC248150062850090295
:10015E000355284003020352C0E0EB4A7044B980B5
:10016E0006D0E0FB020341EF4E701CBD8008EBFF92
:10017E00EAFEE9FD80EBE98DF0A4FEE5F002021740
:10018E00E9CDF9EAFEEBFFEF89F0A4FCE5F0CE89AC
:10019E00F0A42EFFE435F0CD89F0A42DFEE435F069
:1001AE008067EF4E7005BD80D780C3EF8BF0A4AC97
:1001BE00F0EE8BF0A42CFCE435F0F8EF8AF0A42CD2
:1001CE00E5F038FCE433CB8DF0A42CFCE5F03BF8E5
:1001DE00EE8AF0A42CFCE5F038F8E433CF89F0A4D5
:1001EE002CFCE5F038CF3400CE89F0A42FFFE5F0DB
:1001FE003EFEE433C98DF0A42EFEE5F039CD8AF033
:10020E00A42FFFE5F03EFEE43DFD33D0E0FB5007AA
:10021E000BBB000F020355EC2CFCEF33FFEE33FE4D
:06022E00ED33FD02032D7B
:1002340074F8CC6480CCC86480C8F582046043C37D
:10024400EB9FF5F0EA9E42F0E99D42F0E89C45F010
:1002540060305018E5825FFFE582F42B5582FB5035
:10026400210ABA001D09B90019088016E5825BFB52
:10027400E582F42F5582FF50090EBE00050DBD0026
:10028400010CC3EB9FF5F0EA9E42F0E99D42F0E8D1
:0D0294009C45F06007CC4820E701B3EC2248
:1002A10075F020800E75F010800575F0087D007ED8
:1002B100007F003392D530D5031206ACEC334010E9
:1002C100EF33FFEE33FEED33FDEC33FCD5F0ED22E1
:0E02D100E5F0247EA2D513CC92E7CDCEFF221D
:1002DF00EDD2E7CD33EC3392D524814006E4FFFE17
:1002EF00FDFC22FCE4CFCECDCC24E0501174FF8076
:1002FF00EDC3CC13CCCD13CDCE13CECF13CF047013
:07030F00F030D5DE0206AC60
:10031600E9D2E7C933E833F892D5EDD2E7CD33EC2D
:0703260033FC5002B2D522A6
:10032D00EC30E7100FBF000C0EBE00080DBD000431
:10033D000BEB6014A2D5EB13FCED92E7FD2274FFDD
:10034D00FCFDFEFF22E480F8A2D574FF13FC7D8036
:03035D00E480EF4A
:1043200002456DE493A3F8E493A34003F68001F201
:1043300008DFF48029E493A3F85407240CC8C3339E
:10434000C4540F4420C8834004F456800146F6DF6D
:10435000E4800B01020408102040809012CBE47E20
:10436000019360BCA3FF543F30E509541FFEE49362
:10437000A360010ECF54C025E060A840B8E493A329
:10438000FAE493A3F8E493A3C8C582C8CAC583CA54
:10439000F0A3C8C582C8CAC583CADFE9DEE780BE0C
:01161D0000CC
:10036000E709F608DFFA8046E709F208DFFA803E7F
:1003700088828C83E709F0A3DFFA8032E309F6086C
:10038000DFFA8078E309F208DFFA807088828C83D4
:10039000E309F0A3DFFA806489828A83E0A3F60888
:1003A000DFFA805889828A83E0A3F208DFFA804C62
:1003B00080D280FA80C680D4806980F28033801039
:1003C00080A680EA809A80A880DA80E280CA8033A2
:1003D00089828A83ECFAE493A3C8C582C8CCC5831A
:1003E000CCF0A3C8C582C8CCC583CCDFE9DEE780EA
:1003F0000D89828A83E493A3F608DFF9ECFAA9F069
:10040000EDFB2289828A83ECFAE0A3C8C582C8CCBE
:10041000C583CCF0A3C8C582C8CCC583CCDFEADED7
:10042000E880DB89828A83E493A3F208DFF980CC39
:1004300088F0EF60010E4E60C388F0ED2402B40432
:100440000050B9F582EB2402B4040050AF232345D9
:0604500082239003B0734B
:10045600BB010689828A83E0225002E722BBFE02A4
:09046600E32289828A83E49322D7
:10046F00BB010CE58229F582E5833AF583E0225042
:10047F0006E92582F8E622BBFE06E92582F8E2228C
:0D048F00E58229F582E5833AF583E49322A6
:10049C00BB010FF8E58229F582E5833AF583E02864
:1004AC00F0225009C58229F8E58226F622BBFE0906
:1004BC00C58229F8E22582F222F8EA2583F583E940
:0304CC0093282250
:1004CF00BB010689828A83F0225002F722BBFE010C
:0204DF00F32206
:1004E100F8BB010DE58229F582E5833AF583E8F051
:1004F100225006E92582C8F622BBFE05E92582C8FD
:02050100F222E4
:10050300C5F0F8A3E028F0C5F0F8E5821582700283
:060513001583E038F02220
:10051900A3F8E0C5F025F0F0E58215827002158395
:06052900E0C838F0E822F2
:10052F00BB010A89828A83E0F5F0A3E02250068797
:10053F00F009E71922BBFE07E3F5F009E319228959
:0B054F00828A83E493F5F0740193228C
:10055A00BB0110E58229F582E5833AF583E0F5F0DF
:10056A00A3E0225009E92582F886F008E622BBFEBC
:10057A000AE92582F8E2F5F008E222E5832AF58302
:08058A00E993F5F0A3E99322C7
:10059200BB010A89828A83F0E5F0A3F0225006F7B4
:0F05A20009A7F01922BBFE06F3E5F009F31922B1
:1005B100F8BB0111E58229F582E5833AF583E8F07C
:1005C100E5F0A3F0225009E92582C8F608A6F02239
:0D05D100BBFE09E92582C8F2E5F008F22220
:1005DE0075F008758200EF2FFFEE33FECD33CDCCD4
:1005EE0033CCC58233C5829BED9AEC99E582984057
:1005FE000CF582EE9BFEED9AFDEC99FC0FD5F0D634
:10060E00E4CEFBE4CDFAE4CCF9A88222B800C1B95D
:10061E000059BA002DEC8BF084CFCECDFCE5F0CB9B
:10062E00F97818EF2FFFEE33FEED33FDEC33FCEBD4
:10063E0033FB10D703994004EB99FB0FD8E5E4F98F
:10064E00FA227818EF2FFFEE33FEED33FDEC33FC7C
:10065E00C933C910D7059BE99A4007EC9BFCE99A70
:10066E00F90FD8E0E4C9FAE4CCFB2275F010EF2FB5
:10067E00FFEE33FEED33FDCC33CCC833C810D707B5
:10068E009BEC9AE899400AED9BFDEC9AFCE899F8F0
:0E069E000FD5F0DAE4CDFBE4CCFAE4C8F92283
:104C4300C2D5E830E70FB2D5E4C39BFBE49AFAE49C
:104C530099F9E498F8EC30E717B2D5124C791206BB
:104C63001AE4C39BFBE49AFAE499F9E498F8800305
:104C730012061A30D50DE4C39FFFE49EFEE49DFDAA
:044C8300E49CFC228F
:0E06AC00C3E49FFFE49EFEE49DFDE49CFC225F
:1006BA00EB9FF5F0EA9E42F0E99D42F0E89C45F096
:0106CA00220D
:1006CB00E8600FECC313FCED13FDEE13FEEF13FF0D
:0306DB00D8F12231
:1006DE00E8600FEFC333FFEE33FEED33FDEC33FC7A
:0306EE00D8F1221E
:0C06F100ECF0A3EDF0A3EEF0A3EFF0227C
:1006FD00A8828583F0D083D08212071412071412BA
:10070D000714120714E473E493A3C583C5F0C583DE
:10071D00C8C582C8F0A3C583C5F0C583C8C582C846
:01072D0022A9
:0C072E00A42582F582E5F03583F58322D6
:10073A00D083D082F8E4937012740193700DA3A34E
:10074A0093F8740193F5828883E473740293686062
:06075A00EFA3A3A380DF62
:10076000D083D082F8E4937012740193700DA3A328
:1007700093F8740193F5828883E473740293B5F05F
:0D078000067403936860E9A3A3A3A380D8C7
:00000001FF
