:10442500C2AF53D7F91245FF12469C124F0B1250DB
:10443500B0124F3B12508D1241597F72124ED2125B
:10444500503BE490070AF0A3F090070EF0A3F0901C
:104455000712F0A3F0900716F0A3F0D2AF780CF690
:104465009006DB04F0A3F0A37406F0A37492F0A306
:10447500740BF07B007A00790C7F58124F687B0132
:104485007A0279701219E77B017A07790A1242D507
:104495007B017A07790E1226387B017A0779121289
:1044A5001D3C7B017A0779161212FA7B017A07798E
:1044B500061239267B017A027974120B8780BF2296
:1042D5009006D3EBF0A3EAF0A3E9F0E49006FAF038
:1042E5009006D604F012052FFFAEF0E5F07076EFDC
:1042F50024A9601F2457706D9006D3E0FBA3E0FA54
:10430500A3E0F9900002E4F5F01205B1E475F05769
:104315001205929006D3E0FBA3E0FAA3E0F9900022
:104325000212055AC3940FE5F094004003D38001AF
:10433500C340037F00229006DB7401F0A3F0A37451
:1043450006F0A37492F0A3740BF07B007A00790C4D
:104355007F58124F689006FCE004F070069006FB4B
:10436500E004F08093E49006D6F09006D3E0FBA33A
:0D437500E0FAA3E0F9E4F5F01205927F03F1
:014382002218
:03001B00024B7223
:104B7200C0E0C083C082758D8A758BD090070DE02E
:104B820004F0700690070CE004F0900711E004F0C6
:104B92007006900710E004F0900715E004F070062C
:104BA200900714E004F0900273E004F070069002A3
:104BB20072E004F0900709E004F07006900708E044
:104BC20004F0900277E004F07006900276E004F0C0
:074BD200D082D083D0E03255
:10508D00759E82759D2D759852D2ACC299C298D2DB
:02509D00BC2233
:104F3B0075D10075D20075E60043D28043D2204371
:104F4B00D20753E6F043E6401244C57F031250D715
:0D4F5B007F647E00125051D2AE43D120225F
:030033000235D4BF
:1035D400C0E0C0F0C083C082C0D0EEC0E0EFC0E065
:1035E400E5E654079004DEF0E0FF75F026A424001D
:1035F400F582E5F03405F583E09004DFF075F026FC
:10360400EFA424E0F582E5F03404F583C083C0829E
:103614009004DFE0FFD082D08375F00412072EE41B
:10362400F09004DEE0FE75F026A424E1F582E5F0D6
:103634003404F58375F004EF12072EE5DBF075F022
:1036440026EEA424E2F582E5F03404F583C083C0B9
:10365400829004DFE0FFD082D08375F00412072E3D
:10366400E5DAF09004DEE0FE75F026A424E3F582AA
:10367400E5F03404F58375F004EF12072EE5D9F074
:103684009004DFE0045407FF75F026EEA42400F54F
:1036940082E5F03405F583EFF09004DEE0FF75F089
:1036A40026A42405F582E5F03405F5837401F0EFD2
:1036B400045407FFE5E654F04FF5E6E5E6540775D4
:1036C400F019A42482F582E5F03403F583E064075D
:1036D4005407FFE5D254F84FF5D2E5E6540775F0E8
:1036E40019A42483F582E5F03403F583E0F5D4C20C
:0136F400DFF6
:1036F500D0E0FFD0E0FED0D0D082D083D0F0D0E0B3
:013705003291
:0750D70053D1F8EF42D12292
:10505100CBEFCBCAEECAE4F9F87F557E05FDFC1211
:055061004E8E8FD422E9
:1044C500E49006D3F0A3F09006D3F09006D3E0FF76
:1044D500C39408400302456175F026EFA42400F556
:1044E50082E5F03405F583E4F075F026EFA42403A6
:1044F500F582E5F03405F583E4F075F026EFA424A4
:1045050004F582E5F03405F5837420F075F026EFA7
:10451500A42405F582E5F03405F583E4F09006D48E
:10452500F09006D4E0FFC3940850289006D3E075B8
:10453500F026A424E0F582E5F03404F58375F00453
:10454500EF12072E1206FD000000009006D4E004CD
:0C455500F080CE9006D3E004F00244D0C9
:014561002237
:083E0E009006EAECF0A3EDF0D0
:103E1600E49006EEF0A3F0A3F09006EAE0FEA3E03D
:103E2600FF9006EDE02F9006ECE03EC394044004BC
:103E3600E4FEFF22E49006EEF0A3F09006EAE0FE30
:103E4600A3E0FFC39006EFE09F9006EEE09E4003DE
:103E5600023EE8A2AFE4339006F0F0C2AF9006EE61
:103E6600E0FEA3E07802C333CE33CED8F9FFF58265
:103E76008E8312046FF5BC8F828E83A312046FF5B6
:103E8600BD9006EEE0FEA3E07802C333CE33CED873
:103E9600F9FFF5828E83A3A312046FF5BE8F828E7F
:103EA60083A3A3A312046FF5BF9006ECE0FEA3E084
:103EB600FF8EC78FC675B90575B9029006F0E02466
:103EC600FF92AF9006EDE004F070069006ECE00479
:103ED600F09006EFE004F070069006EEE004F002C3
:0A3EE6003E419006EEE0FEA3E0FF6F
:013EF00022AF
:083EF1009006DFECF0A3EDF0F8
:103EF900E49006E3F0A3F0A3F09006DFE0FEA3E070
:103F0900FF9006E2E02F9006E1E03EC394044004EE
:103F1900E4FEFF22E49006E3F0A3F09006DFE0FE62
:103F2900A3E0FFC39006E4E09F9006E3E09E400310
:103F3900023FC7A2AFE4339006E5F0C2AF9006E1B5
:103F4900E0FEA3E0FF8EC78FC675B901A3E0FCA30D
:103F5900E0FDCEECCE7802C333CE33CED8F9FFF5EF
:103F6900828E83E5BC1204E18F828E83A3E5BD12A4
:103F790004E1EDCEECCE7802C333CE33CED8F9FFCF
:103F8900F5828E83A3A3E5BE1204E18F828E83A3FB
:103F9900A3A3E5BF1204E19006E5E024FF92AF90E8
:103FA90006E2E004F070069006E1E004F09006E411
:103FB900E004F070069006E3E004F0023F24900666
:063FC900E3E0FEA3E0FFAF
:013FCF0022CF
:104ED200E4FE8F0AD2C0850AC0EE75F003A424F264
:104EE200F582E43406F583E4F0A3F0EE75F003A452
:104EF20024F1F582E43406F5837401F00EEEB40772
:084F0200D8E4900706F0A3F0CB
:014F0A002284
:0A50CD00C2AFD2C0850AC0D2AF22E4
:0B3926009006D3EBF0A3EAF0A3E9F059
:09393100E4A3F0A3F09006F7F006
:10393A009006D804F09006D3E0FBA3E0FAA3E0F9DE
:10394A0012052FFFAEF0E5F06003023A1AEF24C326
:10395A006022243D6003023A1A9006D3E0FBA3E0FA
:10396A00FAA3E0F9900002E4F5F01205B1E475F06B
:10397A003D1205929006D3E0FBA3E0FAA3E0F9908A
:10398A00000212055AC39464E5F094004003D38000
:10399A0001C340037F0022E49006D7F09006F9E0C5
:1039AA0004F070069006F8E004F0E49006D6F09071
:1039BA0006D6E075F003A424F1F582E43406F58313
:1039CA00E0FF9006D6E075F003A424F2F582E43411
:1039DA0006F583E0FEA3E04F4E70079006D704F089
:1039EA00801F9006D6E075F003A424F2F582E43431
:1039FA0006F583E4F0A3F09006D6E004F0E0B407FD
:103A0A00AE9006D7E060030239631250CD023963E3
:103A1A00E49006D8F09006D3E0FBA3E0FAA3E0F91D
:083A2A00E4F5F01205927F03A0
:013A32002271
:101686005400063C3C7555534F5F323E3E00000009
:10169600000000000000006028001A3C2D2D2047A5
:1016A600454F5350484552415F32303132202D2D3F
:1016B6003E000000000000000000000000000000E6
:1016C6000000004800423030303031000000410058
:1016D6004A0141004B1441004C0041005100610E8B
:1016E60000520000000000000000000000000000A2
:1016F60000000000000000000000000000000000E4
:1017060000000000000000000000000000000000D3
:1017160000000000000000000000000000000000C3
:1017260000000000000000000000000000000000B3
:1017360000000000000000000000000000000000A3
:101746000000000000000000000000000000000093
:101756000000000000000000000000000000000083
:101766000000000000000000000000000000000073
:101776000000000000000000000000000000000063
:101786000000000000000000000000000000000053
:101796000000000000000000000000000000000043
:1017A6000000000000000000000000000000000033
:1017B6000000000000000000000000000000000023
:1017C6000000000000000000000000000000000013
:1017D6000000000000000000000000000000000003
:1017E60000000000000000000000000000000000F3
:1017F600610E016000000000000000000000000013
:1018060000000000000000000000000000000000D2
:1018160000000000000000000000000000000000C2
:1018260000000000000000000000000000000000B2
:1018360000000000000000000000000000000000A2
:101846000000000000000000000000000000000092
:101856000000000000000000000000000000000082
:101866000000000000000000000000000000000072
:101876000000000000000000000000000000000062
:101886000000000000000000000000000000000052
:101896000000000000000000000000000000000042
:1018A6000000000000000000000000000000000032
:1018B6000000000000000000000000000000000022
:1018C6000000000000000000000000000000000012
:1018D6000000000000000000000000000000000002
:1018E60000000000000000000000000000000000F2
:1018F60000000000000000000000000000000000E2
:10190600000041026EC041026F004100000041002C
:1019160001004100020041000300410004004100B3
:021926000500BA
:030023000249BCD3
:1049BC00C0E0C083C082C0D0EEC0E0EFC0E0C2AFA8
:1049CC0030981EC298900378E02478F582E4340283
:1049DC00F583E599F0900378E004F090037AE00415
:1049EC00F0309930C299900050E0FF90004FE0FEFB
:1049FC00C39F501574602EF582E43401F583E0F505
:104A0C009990004FE004F0800B90004FE4F090027E
:104A1C0070F0A3F0D2AFD0E0FFD0E0FED0D0D082C7
:054A2C00D083D0E03250
:104F0B00C299C298123C38E4900378F0A3F0A3F056
:104F1B0090004DF0A3F0A3F0A3F0C2B590026E7415
:104F2B00C0F0E4900270F0A3F0900274F0A3F022B2
:10308300E4FF900160F0A374D7F0A37429F09000DB
:103093004AE0900163F0A37402F090026EE09001A5
:1030A30066F0E4EFC39414501A74062FF582E434E7
:1030B30000F583E0FE74672FF582E43401F583EEB7
:1030C300F0800C74672FF582E43401F583E4F00F8C
:1030D300EFB414CFE4FFEFC39408501874422FF5F4
:1030E30082E43400F583E0FE747B2FF582E434013F
:1030F300F583EEF00FEFB405DD9004DDE090018081
:10310300F0E4FF9004DDE0FEEFC39E504C75F01930
:10311300EFA42480F582E5F03403F583E0FEC45484
:10312300F0FE75F019EFA42481F582E5F03403F580
:1031330083E04EFE75F002EFA42481F582E5F034BE
:1031430001F583EEF075F002EFA42482F582E5F039
:103153003401F583E4F00F80AAE4FF90004BE0FE16
:10316300EFC39E502D741A2FF582E43400F583E0EB
:10317300FE9004DDE075F002A42FF582E435F0F54E
:1031830083E5822481F582E5833401F583EEF00F34
:1031930080C99004DDE025E0FD241CFF90004BE096
:1031A300FC2F900165F07E017F61ED2420FDEC2D65
:1031B300FD124FDF90004BE0FE9004DDE0FD75F063
:1031C30002A42EF582E435F0F583E5822481F582AD
:1031D300E5833401F583EFF0ED25E02422FFEE2FA4
:0131E300FFEC
:0131E40022C8
:030006007F002256
:03000E007F00224E
:030016007F002246
:10349400E4FF9006D3F0900057E014FEEFC39E4083
:1034A400030235C574582FF582E43400F583E0FE39
:1034B4009004DDE0FDEEC39D40030235BF74592F37
:1034C400F582E43400F583E0FDC4540F6003023553
:1034D400B875F019EEA42481F582E5F03403F58380
:1034E400E06D705074582FF582E43400F583E0FEEB
:1034F40075F019A42482F582E5F03403F583E0FD28
:10350400745A2FF582E43400F583E0FCED6C7024EA
:1035140075F019EEA42483F582E5F03403F583E015
:10352400FE745B2FF582E43400F583E0FDEE6D70EC
:10353400030235B5745A2FF582E43400F583E0FEB6
:1035440074582FF582E43400F583E075F019A4244F
:1035540082F582E5F03403F583EEF0745B2FF58297
:10356400E43400F583E0FE74582FF582E43400F56A
:1035740083E075F019A42483F582E5F03403F58320
:10358400EEF074592FF582E43400F583E0540FFE15
:1035940074582FF582E43400F583E075F019A424FF
:1035A40081F582E5F03403F583EEF09006D37401DF
:1035B400F00F8001000F0F0F02349A7F01124CA309
:0F35C400229006D3E06003124A31E4FF124CA3B9
:0135D30022D5
:03001E007F00223E
:030026007F002236
:03002E007F00222E
:0350DE007F00222E
:10507A0090026E7440F0780C761212469CE4FF128D
:03508A004CA32212
:10078D00E4F508F509900160F0A374D7F0A374297E
:10079D00F090004AE0900163F0A37415F090026EA2
:1007AD00E0900166F0750807E4F5099004DDE0FFBF
:1007BD00E509C39F4003020B62AF08050874602F63
:1007CD00F582E43401F583E509F075F019A4248070
:1007DD00F582E5F03403F583E0C454F0FF75F019AC
:1007ED00E509A42481F582E5F03403F583E04FFF9C
:1007FD00AE08050874602EF582E43401F583EFF040
:10080D0075F019E509A42480F582E5F03403F5832C
:10081D00E01470030209DA147003020A89240260DD
:10082D0003020B5D75F019E509A42481F582E5F04D
:10083D003403F583E024FD70030208DB2403600319
:10084D00020B5D75F019E509A4248CF582E5F034F1
:10085D0003F583E0640175F019702FE509A4248A6E
:10086D00F582E5F03403F583E0FFAE08050874600A
:10087D002EF582E43401F583EFF075F019E509A446
:10088D002489F582E5F03403802DE509A42486F54D
:10089D0082E5F03403F583E0FFAE08050874602EA1
:1008AD00F582E43401F583EFF075F019E509A42420
:1008BD0085F582E5F03403F583E0FFAE0805087495
:1008CD00602EF582E43401F583EFF00209A775F08F
:1008DD0019E509A4248CF582E5F03403F583E06471
:1008ED000175F0197051E509A4248BF582E5F034FA
:1008FD0003F583E0FFAE08050874602EF582E4343D
:10090D0001F583EFF075F019E509A4248AF582E568
:10091D00F03403F583E0FFAE08050874602EF58210
:10092D00E43401F583EFF075F019E509A42489F598
:10093D0082E5F03403804FE509A42487F582E5F0C4
:10094D003403F583E0FFAE08050874602EF582E4EC
:10095D003401F583EFF075F019E509A42486F582CD
:10096D00E5F03403F583E0FFAE08050874602EF55D
:10097D0082E43401F583EFF075F019E509A42485BF
:10098D00F582E5F03403F583E0FFAE0805087460E9
:10099D002EF582E43401F583EFF075F019E509A425
:1009AD002482F582E5F03403F583E0FFAE080508F7
:1009BD0074602EF582E43401F583EFF075F019E5DE
:1009CD0009A42483F582E5F03403020B4975F0196F
:1009DD00E509A42481F582E5F03403F583E0600395
:1009ED00020B5D75F019E509A42487F582E5F03455
:1009FD0003F583E0FFAE08050874602EF582E4343C
:100A0D0001F583EFF075F019E509A42486F582E56B
:100A1D00F03403F583E0FFAE08050874602EF5820F
:100A2D00E43401F583EFF075F019E509A42485F59B
:100A3D0082E5F03403F583E0FFAE08050874602EFF
:100A4D00F582E43401F583EFF075F019E509A4247E
:100A5D0084F582E5F03403F583E0FFAE08050874F4
:100A6D00602EF582E43401F583EFF075F019E50998
:100A7D00A42482F582E5F03403020B4975F019E5E3
:100A8D0009A42481F582E5F03403F583E014605A5E
:100A9D00046003020B5D75F019E509A42487F58246
:100AAD00E5F03403F583E0FFAE08050874602EF51C
:100ABD0082E43401F583EFF075F019E509A424867D
:100ACD00F582E5F03403F583E0FFAE0805087460A8
:100ADD002EF582E43401F583EFF075F019E509A4E4
:100AED002482F582E5F03403805275F019E509A4EE
:100AFD002487F582E5F03403F583E0FFAE080508A1
:100B0D0074602EF582E43401F583EFF075F019E58C
:100B1D0009A42486F582E5F03403F583E0FFAE08E1
:100B2D00050874602EF582E43401F583EFF075F05D
:100B3D0019E509A42482F582E5F03403F583E0FF7D
:100B4D00AE08050874602EF582E43401F583EFF0EC
:100B5D0005090207B8E50824FB900165F07E017FC9
:100B6D0061E50814FD124FDF74602508F582E43449
:090B7D0001F583EFF0E50804FF27
:010B8600224C
:103D290090005DE0FF90037BEFF090005CE0FF9076
:103D3900037CEFF090005BE0FF90037DEFF09000D3
:103D49005AE0FF90037EEFF090037BE0FCA3E0FDD7
:103D5900A3E0FEA3E0FF9007271206F1900061E0BF
:103D6900FF90037BEFF0900060E0FF90037CEFF0A1
:103D790090005FE0FF90037DEFF090005EE0FF9020
:103D8900037EEFF090037BE0FCA3E0FDA3E0FEA33C
:103D9900E0FF90072B1206F1900059E0FFEF1207A0
:103DA9003A3DB7003DEF013DFB0200003E079000A0
:103DB90058E0FFEFC0E0900727E0FCA3E0FDA3E097
:103DC900FEA3E0FF9006D41206F190072BE0FCA3B6
:103DD900E0FDA3E0FEA3E0FF9006D81206F1D0E0D3
:103DE900FF1243838019900058E0FF7D001240962E
:103DF900800D900058E0FF7D011240968001007F00
:043E090000124CA3B4
:013E0D002292
:103A3300750B00900160E4F090016174D7F0900180
:103A4300627429F090004AE0FF900163EFF0900167
:103A53006474CCF0900165740BF0900058E0FF8F14
:103A63000B9004DDE0FFE50BC39F40067F09124C7A
:103A7300A322900166E50BF0AF0B75F019EFA424B8
:103A83008CF582E5F03403F583E0FF900167EFF0F6
:103A9300AF0B75F019EFA4248DF582E5F03403F52F
:103AA30083E0FCA3E0FDA3E0FEA3E0FF90037B1211
:103AB30006F190037BE0FF90016BEFF090037CE055
:103AC300FF90016AEFF090037DE0FF900169EFF052
:103AD30090037EE0FF900168EFF0AF0B75F019EFF4
:103AE300A42491F582E5F03403F583E0FCA3E0FD23
:103AF300A3E0FEA3E0FF90037B1206F190037BE0BB
:103B0300FF90016FEFF090037CE0FF90016EEFF008
:103B130090037DE0FF90016DEFF090037EE0FF9056
:103B2300016CEFF07E017F617D0F124FDF9001701A
:043B3300EFF07F111F
:013B3700226B
:1048CE0090075BE4F0900057E0FFEF24E5FF9007C0
:1048DE005BEFF090075BE0FFEF6054900058E0FF55
:1048EE007B017A007959EBC0E0EAC0E0E9C0E07BD9
:1048FE00017A00796D90071EEBF0A3EAF0A3E9F0C0
:10490E007B017A007972900721EBF0A3EAF0A3E91C
:10491E00F090075BE0FE900724EEF0D0E0F9D0E0D7
:10492E00FAD0E0FB122AA87F00124CA32280067F49
:07493E0009124CA3227F00C7
:01494500224F
:0C50C1001228C0124DFC7F00124CA322EC
:104CA30090075CEFF0900160E4F090016174D7F03D
:104CB3009001627429F090004AE0FF900163EFF0E5
:104CC300900056E0FF900167EFF090016474FFF0ED
:104CD30090026EE0FF900166EFF090075CE0FF90BA
:104CE3000168EFF09001657404F07E017F607D0937
:0B4CF300124FDF900169EFF07F0A22F2
:0D49460090073CEEF0A3EFF090073EEDF07F
:1049530090073FE4F0900740E4F0900740E4F090C4
:10496300073EE0FF900740E0FEEEC39F5036C2D7FC
:10497300900740E0FF90073CE0FCA3E0FD8D828CB4
:1049830083E5822FF582E43583F583E0FF90073FCB
:10499300E02FF030D70690073FE004F0900740E0A7
:1049A30004F080BB90073FE0FFC374FF9FFF9007B5
:0849B3003FEFF090073FE0FF29
:0149BB0022D9
:10206C00900751E4F0900752E4F0900056E0FFEF37
:10207C00131313541FFFEF541FFF900751EFF090F1
:10208C000751E0FFEFC3940E4003022363900160FD
:10209C00E4F090016174D7F09001627428F0900123
:1020AC0063E4F0900056E0FF900164EFF09001655E
:1020BC007403F0900751E0FF75F019EFA42480F53C
:1020CC0082E5F03403F583E0FFEF12073A20E600D7
:1020DC00223E01229B020000232D900751E0FF7548
:1020EC00F019EFA42481F582E5F03403F583E0FFC9
:1020FC00EF12073A210A002196030000232D9007C6
:10210C0051E0FF75F019EFA4248CF582E5F034034F
:10211C00F583E0FFEFB40139900751E0FF75F0193A
:10212C00EFA42489F582E5F03403F583E0FF9001F8
:10213C0066EFF0900751E0FF75F019EFA4248AF5D3
:10214C0082E5F03403F583E0FF900167EFF00223A2
:10215C002D900751E0FF75F019EFA42485F582E569
:10216C00F03403F583E0FF900166EFF0900751E047
:10217C00FF75F019EFA42486F582E5F03403F5839E
:10218C00E0FF900167EFF002232D900751E0FF75FF
:10219C00F019EFA4248CF582E5F03403F583E0FF0D
:1021AC00EF64017051900751E0FF75F019EFA42412
:1021BC0089F582E5F03403F583E0FF900751E0FEEA
:1021CC0074602EF582E43401F583EFF0900751E052
:1021DC00FF75F019EFA4248AF582E5F03403F5833A
:1021EC00E0FF900751E0FE74602EF582E43401F5B7
:1021FC0083EFF002232D900751E0FF75F019EFA447
:10220C002485F582E5F03403F583E0FF900166EF59
:10221C00F0900751E0FF75F019EFA42486F582E5E4
:10222C00F03403F583E0FF900167EFF002232D02F9
:10223C00232D900751E0FF75F019EFA42481F5824E
:10224C00E5F03403F583E0FFEF12073A225F00005C
:10225C0000232D900751E0FF75F019EFA42486F5AB
:10226C0082E5F03403F583E0FF900166EFF0900710
:10227C0051E0FF75F019EFA42487F582E5F03403E3
:10228C00F583E0FF900167EFF002232D02232D90E0
:10229C000751E0FF75F019EFA42481F582E5F034C5
:1022AC0003F583E0FFEF12073A22BF0022F701008B
:1022BC0000232D900751E0FF75F019EFA42486F54B
:1022CC0082E5F03403F583E0FF900166EFF09007B0
:1022DC0051E0FF75F019EFA42487F582E5F0340383
:1022EC00F583E0FF900167EFF08036900751E0FF37
:1022FC0075F019EFA42486F582E5F03403F583E03C
:10230C00FF900166EFF0900751E0FF75F019EFA414
:10231C002487F582E5F03403F583E0FF900167EF45
:10232C00F07B017A0179607D08123706900752EF35
:10233C00F07E017F60900752E0FD124946900752F3
:10234C00E0FE74602EF582E43401F583EFF0900723
:09235C0052E0FFEF04FF227F00B4
:012365002255
:100F4200900753E4F0900754E4F0900056E0FFEF6E
:100F5200131313541FFFEF541FFF900753EFF0902A
:100F62000753E0FFEFC3940E40030212F7900160B3
:100F7200E4F090016174D7F09001627428F090015E
:100F820063E4F0900056E0FF900164EFF090016599
:100F92007406F0900753E0FF75F019EFA42480F572
:100FA20082E5F03403F583E0FFEF12073A0FBC004D
:100FB200116801121E02000012BB900753E0FF7578
:100FC200F019EFA42481F582E5F03403F583E0FF04
:100FD200EF12073A0FE000106C030000110D9007AA
:100FE20053E0FF75F019EFA4248CF582E5F0340389
:100FF200F583E0FFEFB40139900753E0FF75F01974
:10100200EFA42489F582E5F03403F583E0FF900133
:1010120066EFF0900753E0FF75F019EFA4248AF50C
:1010220082E5F03403F583E0FF900167EFF00211EF
:101032000D900753E0FF75F019EFA42485F582E5C2
:10104200F03403F583E0FF900166EFF0900753E080
:10105200FF75F019EFA42486F582E5F03403F583D9
:10106200E0FF900167EFF002110D900753E0FF756A
:10107200F019EFA4248CF582E5F03403F583E0FF48
:10108200EF64017050900753E0FF75F019EFA4244C
:1010920089F582E5F03403F583E0FF900753E0FE23
:1010A20074602EF582E43401F583EFF0900753E08B
:1010B200FF75F019EFA4248AF582E5F03403F58375
:1010C200E0FF900753E0FE74602EF582E43401F5F0
:1010D20083EFF08036900753E0FF75F019EFA424F8
:1010E20085F582E5F03403F583E0FF900166EFF0C9
:1010F200900753E0FF75F019EFA42486F582E5F01E
:101102003403F583E0FF900167EFF0900753E0FFAF
:1011120075F019EFA42482F582E5F03403F583E03B
:10112200FFEF5407FFEF12073A113B001142011182
:101132004A051152070000115A900168E4F0801D1F
:101142009001687402F080159001687404F0800DBB
:101152009001687406F08005900168E4F0900169DE
:10116200740AF00212BB900753E0FF75F019EFA466
:101172002481F582E5F03403F583E0FFEF12073AAC
:10118200118900000012BB900753E0FF75F019EFC0
:10119200A42486F582E5F03403F583E0FF9001662E
:1011A200EFF0900753E0FF75F019EFA42487F58262
:1011B200E5F03403F583E0FF900167EFF090075309
:1011C200E0FF75F019EFA42482F582E5F03403F50F
:1011D20083E0FFEF5407FFEF12073A11ED0011F51C
:1011E2000111FD051205070000120D9001687440FF
:1011F200F0801E9001687442F08016900168744479
:10120200F0800E9001687446F08006900168744088
:10121200F0900169E4F00212BB0212BB900753E0A6
:10122200FF75F019EFA42481F582E5F03403F5830C
:10123200E0FFEF12073A124200127A01000012B0E8
:10124200900753E0FF75F019EFA42486F582E5F0CC
:101252003403F583E0FF900166EFF0900753E0FF5F
:1012620075F019EFA42487F582E5F03403F583E0E5
:10127200FF900167EFF08036900753E0FF75F01999
:10128200EFA42486F582E5F03403F583E0FF9001B4
:1012920066EFF0900753E0FF75F019EFA42487F58D
:1012A20082E5F03403F583E0FF900167EFF09001EF
:1012B200687440F0900169E4F090016A74FFF07B79
:1012C200017A0179607D0B123706900754EFF07EA8
:1012D200017F60900754E0FD124946900754E0FEFA
:1012E20074602EF582E43401F583EFF0900754E048
:0712F200FFEF04FF227F0063
:0112F90022D2
:102C3100900755E4F0900756E4F0900056E0FFEF5E
:102C4100131313541FFFEF541FFF900755EFF0901C
:102C51000755E0FFEFC3940E4003022DA1900160E0
:102C6100E4F090016174D7F09001627428F0900152
:102C710063E4F0900056E0FF900164EFF09001658D
:102C81007403F0900755E0FF75F019EFA42480F567
:102C910082E5F03403F583E0FFEF12073A2CAB0035
:102CA1002D05012D600200002D6B900755E0FF7589
:102CB100F019EFA42482F582E5F03403F583E0FFF7
:102CC100EF5407FFEF12073A2CD9002CE0012CE852
:102CD100052CF00700002CF8900166E4F0801D90AF
:102CE10001667402F080159001667404F0800D9005
:102CF10001667406F08005900166E4F09001677446
:102D01000AF08066900755E0FF75F019EFA4248260
:102D1100F582E5F03403F583E0FFEF5407FFEF128E
:102D2100073A2D33002D3B012D43052D4B070000A4
:102D31002D539001667440F0801E9001667442F03C
:102D410080169001667444F0800E9001667446F01E
:102D510080069001667440F0900167E4F0800B906A
:102D610001667440F0900167E4F07B017A017960BB
:102D71007D08123706900756EFF07E017F609007BD
:102D810056E0FD124946900756E0FE74602EF5822A
:102D9100E43401F583EFF0900756E0FFEF04FF22E2
:022DA1007F00B1
:012DA300220D
:0350E1007F00222B
:102F150090075DE4F0900056E0FFEF131313541F84
:102F2500FFEF541FFF90075DEFF090075DE0FFEFA7
:102F3500C3940E4003023080900058E0FFEFC313A6
:102F4500FFEF5403FFEF12073A2F5E002F99012F71
:102F5500D402300E030000304890075DE0FF75F0A5
:102F650019EFA42482F582E5F03403F583E0FFEF41
:102F750054F0FFEFF090075DE0FF75F019EFA42422
:102F850082F582E5F03403F583E0FFEF4400FFEFBF
:102F9500F002308090075DE0FF75F019EFA4248200
:102FA500F582E5F03403F583E0FFEF54F0FFEFF031
:102FB50090075DE0FF75F019EFA42482F582E5F036
:102FC5003403F583E0FFEF4401FFEFF0023080901A
:102FD500075DE0FF75F019EFA42482F582E5F03472
:102FE50003F583E0FFEF54F0FFEFF090075DE0FF9E
:102FF50075F019EFA42482F582E5F03403F583E03A
:10300500FFEF4405FFEFF0807290075DE0FF75F07C
:1030150019EFA42482F582E5F03403F583E0FFEF90
:1030250054F0FFEFF090075DE0FF75F019EFA42471
:1030350082F582E5F03403F583E0FFEF4407FFEF07
:10304500F0803890075DE0FF75F019EFA42482F554
:1030550082E5F03403F583E0FFEF54F0FFEFF090E5
:10306500075DE0FF75F019EFA42482F582E5F034E1
:0D30750003F583E0FFEF4400FFEFF07F0064
:01308200222B
:10370600900736EBF0A3EAF0A3E9F0900739EDF065
:1037160090073AE4F090073BE4F090073A7403F020
:10372600900739E0FF90073AE0FEEEC39F400302A0
:103736003810900736E0FBA3E0FAA3E0F990073AC9
:10374600E0FF8F8275830012046FFFEF64D760037A
:10375600023807900739E0FFEF14FF90073BEFF0C0
:1037660090073AE0FF90073BE0FEEED39F4045907E
:103776000736E0FBA3E0FAA3E0F990073BE0FF8FF2
:103786008275830012046FFF90073BE0FEEEFD7C1E
:1037960000ED2401FDEC3400FC900736E0FBA3E0CD
:1037A600FAA3E0F98D828C83EF1204E190073BE0E7
:1037B60014F080AC90073AE0FF7E00EF2401FFEEA4
:1037C6003400FE900736E0FBA3E0FAA3E0F98F820F
:1037D6008E83E41204E190026FE0FFEFB4011690CD
:1037E6000736E0FBA3E0FAA3E0F9758205758300CE
:1037F600740112049C900739E004F090073AE00443
:0F380600F090073AE004F0023726900739E0FF10
:013815002290
:102DA40090026FE0FFEF12073A2DBA002E86012E33
:102DB400DA0300002F14900056E0FFEF12073A2DBB
:102DC400F4012DFD032E06052E0F072E18092E21C2
:102DD4000A2E2A0C2E330E2E3C102E45122E4E1483
:102DE4002E60CA2E72CB2E57CD2E69DF00002E7BAB
:102DF400123083900050EFF022120006900050EF42
:102E0400F02212000E900050EFF0221200169000F3
:102E140050EFF022123494900050EFF02212001E72
:102E2400900050EFF022120026900050EFF0221292
:102E3400002E900050EFF0221250DE900050EFF080
:102E44002212507A900050EFF02212078D90005019
:102E5400EFF0221248CE900050EFF022123D29905C
:102E64000050EFF0221250C1900050EFF022123ABD
:102E740033900050EFF0227F06124CA3900050EFE5
:102E8400F022900057E0FFEFC4135407FFEF5407FC
:102E9400FFEF12073A2EAC002EB5012EBE022EC74C
:102EA400032ED00400002F141250E1900050EFF0D4
:102EB40022122F15900050EFF022122C3190005066
:102EC400EFF02212206C900050EFF022120F42908B
:102ED4000050EFF02222900055E0FF124F91EFC412
:102EE40054F0FFEFC0E0900056E0FF124F91CEEF98
:102EF400CED0E0FFEE4FFFEF12073A2F060300009B
:102F04002F0F1231E5900050EFF022900050E4F0C2
:012F1400229A
:0B19E700900741EBF0A3EAF0A3E9F049
:1019F2009007447401F0900741E0FBA3E0FAA3E0F2
:101A0200F912052FFFAEF0EF8EF01207601A2300D5
:101A1200001A4F04911C9204DF1CE804E300001D2D
:101A22002290004DE4F0A3E4F0D29CC2B5D2AC9077
:101A320006F17401F0900744E4F0900741E0FBA343
:101A4200E0FAA3E0F9740475F0911205929007444C
:101A5200E0FFEF600890004CE0FFEF70037F01228F
:101A62009006F1E4F090004CE4F090026FE0FFEF9A
:101A720012073A1A82001AF4011B430300001BFDED
:101A820090004AE0FF900055E0FEEE6F601590076F
:101A920041E0FBA3E0FAA3E0F9E475F0001205923D
:101AA2007F002290004DE0FEA3E0FF74512FF582EB
:101AB20074003EF583E0FF900000EFF07E007F525D
:101AC20090004DE0FCA3E0FDED14FD124FDF90000D
:101AD20000E0FEEF6E7003021BFD900741E0FBA3E6
:101AE200E0FAA3E0F9E475F0001205927F00220209
:101AF2001BFD90004DE0FEA3E0FF74512FF58274B0
:101B0200003EF583E0FF900000EFF07E007F5290F0
:101B1200004DE0FCA3E0FDED14FD124946900000EB
:101B2200E0FEEF6E7003021BFD900741E0FBA3E0B5
:101B3200FAA3E0F9E475F0001205927F0022021B7D
:101B4200FD900053E0FF124F91EFC454F0FFEFC03D
:101B5200E0900054E0FF124F91CEEFCED0E0FFEEC6
:101B62004FFF90004AE0FEEF6E6015900741E0FBE8
:101B7200A3E0FAA3E0F9E475F0001205927F0022D7
:101B820090004DE0FEA3E0FF74502FF58274003EFA
:101B9200F583E0FF124F91EFC454F0FFEFC0E090E5
:101BA200004DE0FEA3E0FF74512FF58274003EF574
:101BB20083E0FF124F91CEEFCED0E0FFEE4FFF90C9
:101BC2000001EFF07B017A00795390004DE0FEA313
:101BD200E0FFEF24FDFDEE34FFFC124855900001BA
:101BE200E0FEEF6E6015900741E0FBA3E0FAA3E090
:101BF200F9E475F0001205927F0022122DA49000E4
:101C020050E0FFEF7018900741E0FBA3E0FAA3E079
:101C1200F9E475F0001205927F0022021D11900274
:101C22006FE0FFEF70137B017A017960900050E062
:101C3200FD123706900050EFF0D2B5C29C90004FD3
:101C4200E4F090004FE0FF74602FF582E43401F578
:101C520083E0FF8F9990004FE004F0D2AC90026FC6
:101C6200E0FFEF7056900741E0FBA3E0FAA3E0F932
:101C7200758202758300E475F0001205B190074188
:101C8200E0FBA3E0FAA3E0F9740475F0DF12059219
:101C9200900741E0FBA3E0FAA3E0F97582027583A5
:101CA2000012055AFFAEF0C3EF9432EE94004003E7
:101CB200D38001C340597F00228054900741E0FB4A
:101CC200A3E0FAA3E0F9758202758300E475F000DF
:101CD2001205B1900741E0FBA3E0FAA3E0F9740416
:101CE20075F0E3120592900741E0FBA3E0FAA3E04E
:101CF200F975820275830012055AFFAEF0C3EF94A4
:101D020014EE94004003D38001C340037F0022906D
:101D120006F3E004F070069006F2E004F0021A23E3
:101D2200900744E4F0900741E0FBA3E0FAA3E0F956
:091D3200E475F0001205927F0334
:011D3B002285
:102AA80090071AEFF090071BEBF0A3EAF0A3E9F008
:102AB800900725E4F0A3E4F07B017A07791A9006E1
:102AC800ECE4F0A3742AF07D017C00123E0E90071E
:102AD8001BE0FBA3E0FAA3E0F99006ECE4F0A37492
:102AE8002BF07D057C00123E0E90071BE0FBA3E057
:102AF800FAA3E0F9EBC0E0EAC0E0E9C0E07B017AC4
:102B0800007906C8E9C8CCEACCCDEBCDD0E0F9D045
:102B1800E0FAD0E0FB7E007F1412043090071EE03C
:102B2800FBA3E0FAA3E0F99006ECE4F0A37430F01C
:102B38007D027C00123E0E90071EE0FBA3E0FAA384
:102B4800E0F9EBC0E0EAC0E0E9C0E07B017A007997
:102B580042C8E9C8CCEACCCDEBCDD0E0F9D0E0FA58
:102B6800D0E0FB7E007F08120430900724E0FFEFDE
:102B78001313543FFF7E00900725EEF0A3EFF0906B
:102B88000724E0FFEF54FCFFEF600E900726E004F7
:102B9800F07006900725E004F0900725E0FEA3E01A
:102BA800FFD3EF940AEE94004009900725E4F0A3C0
:102BB800740AF0900721E0FBA3E0FAA3E0F990077C
:102BC80025E0FCA3E0FD9006ECE4F0A37433F012DA
:102BD8003E0E900724E0FF90004BEFF07B017A0750
:102BE80079249006ECE4F0A37432F07D017C0012A5
:102BF8003E0E900724E0FF7E00900721E0FBA3E053
:102C0800FAA3E0F9EBC0E0EAC0E0E9C0E07B017AB2
:102C180000791AC8E9C8CCEACCCDEBCDD0E0F9D020
:082C2800E0FAD0E0FB120430D9
:012C30002281
:103C3800900757E4F0A3E4F07B017A00794A9006F4
:103C4800E1E4F0A3742AF07D017C00123EF19000BB
:103C58004AE0FFEFC39401400B90004AE0FFEFD326
:103C6800940F400690004A7401F07B017A007906AF
:103C78009006E1E4F0A3742BF07D057C00123EF180
:103C88007B017A0079429006E1E4F0A37430F07D7C
:103C9800027C00123EF17B017A00794B9006E1E448
:103CA800F0A37432F07D017C00123EF190004BE0ED
:103CB800FFEFD39428400690004B7428F090004BF7
:103CC800E0FFEF1313543FFF7E00900757EEF0A379
:103CD800EFF090004BE0FFEF54FCFFEF600E900711
:103CE80058E004F07006900757E004F0900757E09A
:103CF800FEA3E0FFD3EF940AEE9400400990075723
:103D0800E4F0A3740AF07B017A00791A900757E06F
:103D1800FCA3E0FD9006E1E4F0A37433F0123EF159
:013D28002278
:0B0B8700900745EBF0A3EAF0A3E9F0B3
:100B92009007487401F0900745E0FBA3E0FAA3E058
:100BA200F912052FFFAEF0EF8EF01207600BBF00B7
:100BB200000BE205350F1705C300000F2890000552
:100BC200E4F09007037401F0900748E4F0900745C1
:100BD200E0FBA3E0FAA3E0F9740575F03512059283
:100BE200900748E0FFEF601190037AE0FFEFD394A3
:100BF200004003D38001C340037F0122900703E436
:100C0200F0C2AC90037AE0FF900002EFF090037A1A
:100C1200E4F0900378E0FF900003EFF0D2AC900094
:100C220002E0FF900003E0FEC3EE9FFF900004EF9E
:100C3200F0900003E0FF900004E0FEEE6F7003020C
:100C42000EF1900004E0FF74782FF582E43402F58F
:100C520083E0FFEF12073A0D79000E070A0E4D0DE1
:100C62000D13280CAE290DC03A0C72D700000E15D8
:100C7200900004E0FF74782FF582E43402F583E0FB
:100C8200FF90004DE0FCA3E0FD74522DF58274004C
:100C92003CF583EFF090004EE004F0700690004DBA
:100CA200E004F09000057401F0020E4D900005E0A2
:100CB200FFEFB40121900052E4F090005374D7F09A
:100CC2009000547429F090004DE4F0A37403F09066
:100CD200026FE4F08033900004E0FF74782FF58215
:100CE200E43402F583E0FF90004DE0FCA3E0FD74E4
:100CF200522DF58274003CF583EFF090004EE00433
:100D0200F0700690004DE004F0900005E4F0020E51
:100D12004D900005E0FFEFB40122900052E4F09004
:100D2200005374D7F09000547428F090004DE4F012
:100D3200A37403F090026F7401F08033900004E01A
:100D4200FF74782FF582E43402F583E0FF90004DC2
:100D5200E0FCA3E0FD74522DF58274003CF583EFB4
:100D6200F090004EE004F0700690004DE004F09028
:100D72000005E4F0020E4D900005E0FFEFB401081B
:100D8200900005E4F0020E4D900004E0FF74782F0D
:100D9200F582E43402F583E0FF90004DE0FCA3E02D
:100DA200FD74522DF58274003CF583EFF090004EF5
:100DB200E004F0700690004DE004F0020E4D900049
:100DC20004E0FF74782FF582E43402F583E0FF90AB
:100DD200004DE0FCA3E0FD74522DF58274003CF559
:100DE20083EFF090004EE004F0700690004DE004B6
:100DF200F090004DE0FEA3E0FFEF4E704E90026FC8
:100E02007403F0804690004C7401F0C2ACC29C8026
:100E12003A8038900004E0FF74782FF582E43402BF
:100E2200F583E0FF90004DE0FCA3E0FD74522DF548
:100E32008274003CF583EFF090004EE004F07006FF
:100E420090004DE004F0900005E4F090004DE0FECB
:100E5200A3E0FFD3EF9406EE9400404C900051E0E3
:100E6200FF7E00EF2406FFEE3400FE90004DE0FC12
:100E7200A3E0FDEF6D7002EE6C700F90004C7401F8
:100E8200F0C2ACC29C900005E4F090004DE0FEA3DD
:100E9200E0FFD3EF940EEE9401404B900270E4F029
:100EA200A3E4F07F0022803E90004DE0FEA3E0FF2D
:100EB200EF64064E703090004DE0FEA3E0FF7451E7
:100EC2002FF58274003EF583E0FF900051EFF09021
:100ED200026FE0FFEFB4010E900051E0FFEF541FEC
:100EE200FF900051EFF0900004E004F0020C339008
:100EF2000705E004F07006900704E004F09007484C
:100F0200E4F0900745E0FBA3E0FAA3E0F97405756D
:100F1200F0C3120592900748E0FFEF6003020BC492
:100F22007F0122020BC4900748E4F0900745E0FBE2
:0F0F3200A3E0FAA3E0F9E475F0001205927F0343
:010F4100228D
:041928004104DD0E8B
:10469C001247349003841206FD0000000090039D25
:1046AC001206FD000000009003B61206FD0000008B
:1046BC00009003CF1206FD000000009003E81206E4
:1046CC00FD000000009004011206FD0000000090A7
:1046DC00041A1206FD000000009004331206FD00BF
:1046EC0000000090044C1206FD00000000900465D0
:1046FC001206FD0000000090047E1206FD00000072
:10470C00009004B01206FD000000009004C91206CF
:10471C00FD000000009004957440F0A3740AF0A30F
:08472C001206FD80008000224E
:104A3100E49006DCF0A31206FD00000000E49006FD
:104A4100DCF09006DCE0FFC3940E502BEF75F019FB
:104A5100A42480F9740335F0FA7B01E02410FEE40C
:104A6100339006ECF0A3CEF07D017C00123E0E9057
:104A710006DCE004F080CB124CFEE4FCFDFE900667
:104A8100DD1206F17B017A0679DD9006ECE4F0A3F4
:0A4A910074A0F07D017C00123E0EBF
:014A9B0022F8
:10473400E49006D3F0A31206FD000000009006D812
:104744001206FD00000000E49006D3F09006D3E0CA
:10475400FFC3940E502BEF75F019A42480F9740351
:1047640035F0FA7B01E02410FEE4339006E1F0A377
:10477400CEF07D017C00123EF19006D3E004F0807F
:10478400CB124CFEE4FCFDFE9006D81206F17B0130
:104794007A0679D49006E1E4F0A374A0F07D017C5C
:1047A40000123EF19006D4E0FCA3E0FDA3E0FEA3DA
:1047B400E0FFA3E0F8A3E0F9A3E0FAA3E0FBC3124F
:0747C40006BA60031228C0D1
:0147CB0022CB
:1028C000E490037FF0A3F0A37403F0A37440F0A39B
:1028D0007406F0A31206FD000000009003881206A3
:1028E000FD000000009003987401F0E4A3F0A374CD
:1028F00003F0A37440F0A37406F0A31206FD0000D9
:1029000000009003A11206FD000000009003B174C6
:1029100002F0E4A3F0A37403F0A37440F0A37406E0
:10292000F0A31206FD000000009003BA1206FD009D
:102930000000009003CA7403F0E4A3F0A37403F052
:10294000A37440F0A37406F0A31206FD000000007B
:102950009003D31206FD000000009003E37404F01E
:10296000E4A3F0A37403F0A37440F0A37406F0A3EF
:102970001206FD000000009003EC1206FD000000AE
:10298000009003FC7405F0E4A3F0A37403F0A374B7
:1029900040F0A37406F0A31206FD000000009004AE
:1029A000051206FD000000009004157406F0E4A373
:1029B000F0A37403F0A37440F0A37406F0A312060E
:1029C000FD0000000090041E1206FD0000000090B3
:1029D000042E7407F0E4A3F0A37403F0A37440F092
:1029E000A37406F0A31206FD000000009004371245
:1029F00006FD000000009004477408F0A37402F084
:102A0000A314F0A37440F0A3740AF0A31206FD000F
:102A10000000009004607409F0A37402F0A314F0A5
:102A2000A37440F0A3740AF0A31206FD0000000096
:102A3000900479740AF0A37402F0A314F0A3744014
:102A4000F0A3740AF0A31206FD00000001900492A6
:102A5000740BF0A37401F0E4A3F0A37440F0A3742A
:102A60000AF0A31206FD800080009004AB740CF005
:102A7000A37402F0E4A3F0A37440F0A3740AF0A3DB
:102A80001206FD000000009004C4740DF0A374024F
:102A9000F0E4A3F0A37440F0A3740AF0A31206FDBF
:082AA00000000000124A31227F
:104CFE00E49006E1F0A3F0A3F09006E2F0E4900653
:104D0E00E3F09006E2E075F019A42480F9740335FF
:104D1E00F0FA7B01A3E07E0029F9EE3AFA1204566E
:104D2E00FF9006E1E06F903B38939006E1F090061D
:104D3E00E3E004F0E0B404CA9006E2E004F0E0B46C
:074D4E000EBB9006E1E0FF3F
:014D5500223B
:0300000002456254
:1045620043AF01787FE4F6D8FD9000007FFF7E80A4
:0D457200E4F0A3DFFCDEFA7581110245BA0A
:10192C0060660615000000000000000000000000CA
:10193C00000000000000000000000000000000009B
:10194C00000000000000000000000000000000008B
:10195C00000000000000000000000000000000007B
:10196C00000000000000000000000000000000006B
:10197C00000000000000000000000000000000005B
:10198C0000000000000000000000410610004406AA
:05199C00110000000035
:10415900E4FF9006D3F012509F125066D2AAD2A85B
:10416900D288D28AE4FFEF75F022A42415F582E4FF
:104179003406F583E4F0A3F09006D3F0EF75F0224E
:10418900A42417F582E43406F583C083C08290061F
:10419900D3E0FED082D08375F00812072EE4F0A395
:1041A900F0EF75F022A42419F582E43406F583753D
:1041B900F008EE12072EE4F0A3F0EF75F022A42424
:1041C9001BF582E43406F583C083C0829006D3E0F0
:1041D900FED082D08375F00812072EE4F0A3F0EF29
:1041E90075F022A4241DF582E43406F58375F008E0
:1041F900EE12072EE4F0A3F09006D3E004F0E06499
:0F4209000460030241850FEF6403600302416FFD
:014218002283
:03000300024BD9D4
:104BD900C0E0C0F0C083C082C0D0E8C0E0ECC0E053
:064BE900EDC0E0EFC0E0AA
:104BEF00900615E0C3135403FF75F008A42417F5BE
:104BFF0082E43406F583E475F0011205039006157F
:104C0F00E0FCA3E0FDEF75F008A42419F582E4346D
:084C1F0006F583ECF0A3EDF0B3
:104C2700D0E0FFD0E0FDD0E0FCD0E0F8D0D0D082DB
:074C3700D083D0F0D0E03281
:03001300024C3E5E
:104C3E00C0E0C0F0C083C082C0D0E8C0E0ECC0E0ED
:064C4E00EDC0E0EFC0E044
:104C5400900615E0C3135403FF75F008A42439F536
:104C640082E43406F583E475F00112050390061519
:104C7400E0FCA3E0FDEF75F008A4243BF582E434E6
:084C840006F583ECF0A3EDF04E
:104C8C00D0E0FFD0E0FDD0E0FCD0E0F8D0D0D08276
:074C9C00D083D0F0D0E0321C
:03000B00024A9C0A
:104A9C00C0E0C0F0C083C082C0D0E8C0E0ECC0E091
:064AAC00EDC0E0EFC0E0E8
:104AB200758CFF758AFF900615E0C3135403FF75CA
:104AC200F008A4245BF582E43406F583E475F00172
:104AD200120503900615E0FCA3E0FDEF75F008A4B3
:0E4AE200245DF582E43406F583ECF0A3EDF0DC
:104AF000D0E0FFD0E0FDD0E0FCD0E0F8D0D0D08214
:074B0000D083D0F0D0E032B9
:03002B0002236647
:10236600C0E0C0F0C083C082C0D0E8C0E0ECC0E0EE
:10237600EDC0E0EEC0E0EFC0E0C2CF900615E0FE93
:10238600A3E08EF012076023A101FF244B03FF2474
:10239600DD05FF257007FF0000260990061AE024D8
:1023A600FFFF900619E03407FE900631E0FCA3E03B
:1023B600FDC3EF9DFFEE9C90061BF0A3EFF0900689
:1023C60017E0FFA3E090061DCFF0A3EFF090062FD5
:1023D600E4F0A3F090063CE024FFFF90063BE034D7
:1023E60007FE900653E0FCA3E0FDC3EF9DFFEE9CC5
:1023F60090063DF0A3EFF0900639E0FFA3E09006CB
:102406003FCFF0A3EFF0900651E4F0A3F090065E04
:10241600E024FFFF90065DE03407FE900675E0FCC1
:10242600A3E0FDC3EF9DFFEE9C90065FF0A3EFF0E7
:1024360090065BE0FFA3E0900661CFF0A3EFF0907B
:10244600067302256C900619E0FEA3E0FFC3900612
:1024560022E09FFF900621E09E900623F0A3EFF076
:1024660090061FE0FFA3E0900625CFF0A3EFF090C3
:102476000617E4F0A3F090063BE0FEA3E0FFC3904E
:102486000644E09FFF900643E09E900645F0A3EFCA
:10249600F0900641E0FFA3E0900647CFF0A3EFF0EF
:1024A600900639E4F0A3F090065DE0FEA3E0FFC3DA
:1024B600900666E09FFF900665E09E900667F0A393
:1024C600EFF0900663E0FFA3E0900669CFF0A3EF7C
:1024D600F090065B02256C900621E0FEA3E0FFC3A8
:1024E60090062AE09FFF900629E09E90062BF0A317
:1024F600EFF0900627E0FFA3E090062DCFF0A3EFC4
:10250600F090061FE4F0A3F0900643E0FEA3E0FF80
:10251600C390064CE09FFF90064BE09E90064DF060
:10252600A3EFF0900649E0FFA3E090064FCFF0A39B
:10253600EFF0900641E4F0A3F0900665E0FEA3E01C
:10254600FFC390066EE09FFF90066DE09E90066FBB
:10255600F0A3EFF090066BE0FFA3E0900671CFF0DA
:10256600A3EFF0900663E4022606900629E0FEA398
:10257600E0FFC3900632E09FFF900631E09E900692
:1025860033F0A3EFF090062FE0FFA3E0900635CFDF
:10259600F0A3EFF0900627E4F0A3F090064BE0FEE0
:1025A600A3E0FFC3900654E09FFF900653E09E9081
:1025B6000655F0A3EFF0900651E0FFA3E090065712
:1025C600CFF0A3EFF0900649E4F0A3F090066DE09B
:1025D600FEA3E0FFC3900676E09FFF900675E09E9F
:1025E600900677F0A3EFF0900673E0FFA3E0900665
:1025F60079CFF0A3EFF090066BE4F0A3F090061508
:10260600F0A3F0900616E004F07006900615E004BC
:10261600F0900615E05407F0D0E0FFD0E0FED0E0E1
:10262600FDD0E0FCD0E0F8D0D0D082D083D0F0D07E
:02263600E03290
:0B263800900749EBF0A3EAF0A3E9F0E3
:052643009006FDE4F02B
:1026480090074C7401F0900749E0FBA3E0FAA3E07F
:10265800F912052FFFAEF0EF8EF012076026750015
:1026680000269F00C1281600C4000028A69007492C
:10267800E0FBA3E0FAA3E0F9758202758300E47534
:10268800F0001205B1900749E0FBA3E0FAA3E0F9D6
:10269800E475F0C1120592900749E0FBA3E0FAA3A4
:1026A800E0F975820275830012055AFFAEF0C3EF98
:1026B8009414EE94004003D38001C340037F0022AA
:1026C800900610E0FFEF75F022A42425F582E4348B
:1026D80006F583E0FEA3E0FFCBEFCBCAEECAE4F930
:1026E800F8900610E0FFEF75F022A4241DF582E4AF
:1026F8003406F583E0FEA3E0FFE4FCFDEF2BFBEEE0
:102708003AFAED39F9EC38F8900610E0FFEF75F079
:1027180022A4242DF582E43406F583E0FEA3E0FF2D
:10272800E4FCFDEB2FFBEA3EFAE93DF9E83CF890C2
:102738000610E0FFEF75F022A42435F582E4340694
:10274800F583E0FEA3E0FFE4FCFDEB2FFFEA3EFE8D
:10275800E93DFDE83CFC78121206DEECC0E0EDC075
:10276800E0EEC0E0EFC0E0900610E0FFEF75F02269
:10277800A42423F582E43406F583E0FEA3E0FF9069
:102788000610E0FDED75F022A4241BF582E4340662
:10279800F583E0FCA3E0FDED2FFFEC3EFE90061074
:1027A800E0FDED75F022A4242BF582E43406F583D0
:1027B800E0FCA3E0FDEF2DFFEE3CFE900610E0FDEF
:1027C800ED75F022A42433F582E43406F583E0FCA9
:1027D800A3E0FDEF2DFFEE3CFECBEFCBCAEECAE443
:1027E800F9F8D0E0FFD0E0FED0E0FDD0E0FC120622
:1027F8001A9006111206F190074CE4F0900749E090
:10280800FBA3E0FAA3E0F9E475F0C412059290077F
:102818004CE0FFEF70037F01227FFF7EFF7D007C8D
:1028280000900611E0F8A3E0F9A3E0FAA3E0FBD3D7
:102838001206BA5027900611E0FCA3E0FDA3E0FEC3
:10284800A3E0FF900610E0FB75F019EBA4244CF50B
:1028580082E5F03404F5831206F1801B900610E03F
:10286800FF75F019EFA4244CF582E5F03404F583E4
:102878001206FD0000FFFF900610E004F09006101D
:10288800E0FFEFC394034005900610E4F09006FFC4
:10289800E004F070069006FEE004F002267590074A
:1028A8004CE4F0900749E0FBA3E0FAA3E0F9E475F3
:0728B800F0001205927F03FE
:0128BF0022F6
:10509F005389F0438905758CFF758AFFD2A9D28C8D
:0150AF0022DE
:10506600D2ADE4F5C875CCFF75CDE775CAFF75CB33
:04507600E7D2CA2291
:1019A1004106820041068300410687124A068800EB
:1019B100000000000000000000060C000000000014
:0919C1000041069D0041069E0054
:10503B00D2EBE490069FF0A3F09006A3F0A3F090C0
:06504B0006A7F0A3F0220D
:104F6800EF25E054FE900681F09006DBE090068283
:104F7800F09006DFE0900683F0A3EBF0A3EAF0A33D
:094F8800E9F090069D7401F0228D
:1012FA009006D3EBF0A3EAF0A3E9F0E4900700F03C
:10130A009006D604F012052FFFAEF0E5F060030256
:10131A00166DEF12073A134E0013604C138B5713D6
:10132A00AF5D140066143D71148E7814CF8514FADB
:10133A008B154B9315889B15DEA2161FAE1643B369
:10134A000000166D9006D3E0FBA3E0FAA3E0F9E4EF
:10135A0075F04C12059290069DE07002FF22E4900F
:10136A00069DF0D2EEC2EDD2EFD2ED9006D6F09005
:10137A0006D3E0FBA3E0FAA3E0F9E475F0571205FF
:10138A00929006D6E070037F0122C2EFE49006A392
:10139A00F0A3F09006D3E0FBA3E0FAA3E0F9E4752A
:1013AA00F05D1205927A0679819006DA7401F0A34B
:1013BA007406F0A37481F0A37401F0FB7A0679A392
:1013CA00123343C3EF6480948250028001C35003F6
:1013DA007F002290069EE06041C2EDC2EFD2EDE4AA
:1013EA009006D6F09006D3E0FBA3E0FAA3E0F9E476
:1013FA0075F0661205929006D6E070037F0122D23C
:10140A00EFE490069EF09006D3E0FBA3E0FAA3E097
:10141A00F9E4F5F01205927F0022E49006A3F0A306
:10142A00F09006D3E0FBA3E0FAA3E0F9E475F071CB
:10143A001205929006DAE4F0A37400F0A3740CF09B
:10144A00900682E09006DDF07B017A0679A31233DA
:10145A0043C3EF6480948250028001C350037F002B
:10146A002290069EE06041C2EDC2EFD2EDE4900602
:10147A00D6F09006D3E0FBA3E0FAA3E0F9E475F016
:10148A00781205929006D6E070037F0122D2EFE42B
:10149A0090069EF09006D3E0FBA3E0FAA3E0F9E4FD
:1014AA00F5F01205927F0022C2EDD2EFD2EDE49060
:1014BA0006D6F09006D3E0FBA3E0FAA3E0F9E475C0
:1014CA00F0851205929006D6E070037F0122C2EFE2
:1014DA00900681E04401F0E49006A3F0A3F09006A0
:1014EA00D3E0FBA3E0FAA3E0F9E475F08B120592CE
:1014FA007A0679819006DA7401F0A37406F0A3746F
:10150A0081F0A37401F0FB7A0679A3123343C3EF87
:10151A006480948250028001C350037F00229006A7
:10152A009EE06041C2EDC2EFD2EDE49006D6F090A3
:10153A0006D3E0FBA3E0FAA3E0F9E475F093120501
:10154A00929006D6E070037F0122D2EFE490069EC5
:10155A00F09006D3E0FBA3E0FAA3E0F9E4F5F01279
:10156A0005927F0022E490069FF0A3F09006D3E054
:10157A00FBA3E0FAA3E0F9E475F09B1205927A0660
:10158A0079929006DA7401F0A37406F0A37492F0CB
:10159A00900683E09006DDF07B017A06799F123887
:1015AA0016C3EF6480948250028001C350037F0007
:1015BA002290069EE06041C2EDC2EFD2EDE49006B1
:1015CA00D6F09006D3E0FBA3E0FAA3E0F9E475F0C5
:1015DA00A21205929006D6E070037F0122D2EFE4B0
:1015EA0090069EF09006D3E0FBA3E0FAA3E0F9E4AC
:1015FA00F5F01205927F0022C2EDC2EFD2EDE4901F
:10160A0006D6F09006D3E0FBA3E0FAA3E0F9E4756E
:10161A00F0AE1205929006D6E070037F0122D2EF57
:10162A00E49006A7F0A3F09006D3E0FBA3E0FAA3A8
:10163A00E0F9E475F0B31205927B017A0679A712F4
:10164A003FD0C3EF6480948250028001C350037F6D
:10165A000022900702E004F07006900701E004F00F
:10166A0002134EE49006D6F09006D3E0FBA3E0FA0C
:0B167A00A3E0F9E4F5F01205927F03F5
:011685002242
:0B3816009006D7EBF0A3EAF0A3E9F066
:103821009006DE7401F012052FFFAEF0E5F06003A3
:1038310002390DEF2436604224E470030238F62485
:10384100E6600302390DE490067BF09006DDE0FFAF
:1038510090067BE0C39F4003023906E490067DF0A9
:10386100C2EEC2ED9006DEF09006D7E0FBA3E0FACF
:10387100A3E0F9E475F0CA1205929006DEE0700348
:103881007F0122E490067CF0D2ED90067DE0FF25D9
:10389100E0FFA2ECE4334FF0C2ED90067CE004F0CF
:1038A100E0B408E490067DE0FF9006DAE0FBA3E0D7
:1038B100FAA3E0F990067BE0F582758300EF12042C
:1038C100E190067BE004F0D2EE9006DDE0FF900689
:1038D1007BE0C39F5004C2EF8002D2EFD2EDE490AF
:1038E10006DEF09006D7E0FBA3E0FAA3E0F9E47569
:1038F100F0E61205929006DEE070037F0122C2ED30
:10390100C2EE02384CD2EEE490069EF0E49006DE60
:10391100F09006D7E0FBA3E0FAA3E0F9E4F5F0129A
:0439210005927F0389
:01392500227F
:0B3343009006D7EBF0A3EAF0A3E9F03E
:10334E009006DE7401F012052F1207603372000032
:10335E0033C300FF33F501073426010E3449011043
:10336E000000347BD2EEE490067EF09006DDE0FFA6
:10337E0090067EE0C39F40030234769006DAE0FBAF
:10338E00A3E0FAA3E0F990067EE0F58275830012C1
:10339E00046F900680F090067EE004F0C2EDE4909B
:1033AE0006DEF09006D7E0FBA3E0FAA3E0F9E475A1
:1033BE00F0FF1205929006DEE070037F0122E4908A
:1033CE00067FF0900680E0FF25E0F092EFD2EDE46C
:1033DE009006DEF09006D7E0FBA3E0FAA3E0F974C6
:1033EE000175F0071205929006DEE070037F012250
:1033FE00C2ED90067FE004F0E0B408C7C2EEC2ED65
:10340E00E49006DEF09006D7E0FBA3E0FAA3E0F925
:10341E00740175F00E1205929006DEE070037F01C6
:10342E0022D2EDE49006DEF09006D7E0FBA3E0FAA0
:10343E00A3E0F9740175F0101205929006DEE070AB
:10344E00037F0122C2EDD2EE20EC03023379900607
:10345E009E7401F09006D7E0FBA3E0FAA3E0F9E436
:10346E00F5F01205927F0222E490069EF0E490069B
:10347E00DEF09006D7E0FBA3E0FAA3E0F9E4F5F066
:05348E001205927F030E
:013493002216
:0B3FD0009006D7EBF0A3EAF0A3E9F0A5
:103FDB00A37401F012052FFFAEF0600302407DEEDB
:103FEB00600302407D7E067F927D0A124FDF9006B2
:103FFB009CE06F7079900692E0FCA3E0FDA3E0FEDD
:10400B00A3E0FF9004971206F1900696E06022144D
:10401B00704C900697E0FEA3E0FFE4FCFD9004B02B
:10402B001206F19004AD7401F09004DD740DF08074
:10403B002D900697E0FEA3E0FFE4FCFD9004B01288
:10404B0006F1900699E0FEA3E0FFE4FCFD9004C9A5
:10405B001206F1E49004ADF09004DD740EF09002C2
:10406B006EE0FF90069BE0FEEF4E90026EF0E47860
:10407B000CF6E49006DAF09006D7E0FBA3E0FAA387
:0A408B00E0F9E4F5F01205927F035E
:014095002208
:054219009006D7EFF054
:10421E009006DC1206FD000000009006D8E0FCA31C
:10422E00E0FDA3E0FEA3E0FFE41202A19006D7E0BA
:10423E0075F019A4248DF582E5F03403F583E0F8CA
:10424E00A3E0F9A3E0FAA3E0FB12012E9006D7E05B
:10425E0075F019A42491F582E5F03403F583E0F8A6
:10426E00A3E0F9A3E0FAA3E0FB12003D9006DC12F6
:10427E0006F17FFF7EFF7D7F7C4B9006DCE0F8A38E
:10428E00E0F9A3E0FAA3E0FB120234600A400874DE
:10429E00FFFFFEFD7C0022E4FFFEFDFC9006DCE04D
:1042AE00F8A3E0F9A3E0FAA3E0FB1202345006E40F
:1042BE00FFFEFDFC229006DCE0FCA3E0FDA3E0FE89
:0642CE00A3E0FF1202DF75
:0142D40022C7
:1045FF00E49006D3F0A31206FD000000009006D849
:10460F001206FD00000000E49006D3F09006D3E000
:10461F00FFC3940E5030EF75F019A4248CF9740376
:10462F0035F0FA7B01E075F003A42450FEE435F079
:10463F009006E1F0A3CEF07D037C00123EF19006D0
:10464F00D3E004F080C6124D56E4FCFDFE9006D870
:10465F001206F17B017A0679D49006E1E4F0A37497
:10466F00A1F07D017C00123EF19006D4E0FCA3E0A6
:10467F00FDA3E0FEA3E0FFA3E0F8A3E0F9A3E0FAB7
:0C468F00A3E0FBC31206BA6003124DFC4E
:01469B0022FC
:054383009006D3EFF0ED
:104388009006DC1206FD000000009006D4E0FCA3B5
:10439800E0FDA3E0FEA3E0FF9006D3E0FB75F01973
:1043A800A4248DF582E5F03403F5831206F1900616
:1043B800D8E0FCA3E0FDA3E0FEA3E0FF75F019EB55
:1043C800A42491F582E5F03403F5831206F1EB7528
:1043D800F019A4248CF9740335F0FA7B019006D304
:1043E800E075F003A42450FEE435F09006ECF0A349
:1043F800CEF07D037C00123E0E124D56E4FCFDFE0D
:104408009006DC1206F17B017A0679DC9006ECE472
:0C441800F0A374A1F07D017C00123E0EA8
:014424002275
:104D5600E49006E7F0A3F0A3F09006E8F0E49006EE
:104D6600E9F09006E8E075F019A4248CF97403358F
:104D7600F0FA7B01A3E07E0029F9EE3AFA12045616
:104D8600FF9006E7E06F903B38939006E7F09006B9
:104D9600E9E004F0E0B40CCA9006E8E004F0E0B400
:074DA6000EBB9006E7E0FFE1
:014DAD0022E3
:094096009006E1EFF0A3EDF0FB50
:10409F00A31206FD00000000EB640170439006E1DF
:1040AF00E0FF75F019A4248CF582E5F03403F58355
:1040BF007401F0EF75F019A4248CF9740335F0FA3C
:1040CF007B019006E1E075F003A42450FEE435F087
:1040DF009006ECF0A3CEF07D037C00123E0E8046DE
:1040EF009006E2E070409006E1E0FF75F019A4241D
:1040FF008CF582E5F03403F583E4F0EF75F019A445
:10410F00248CF9740335F0FA7B019006E1E075F029
:10411F0003A42450FEE435F09006ECF0A3CEF07D1E
:10412F00037C00123E0E124D56E4FCFDFE9006E39A
:10413F001206F17B017A0679E39006ECE4F0A374A2
:09414F00A1F07D017C00123E0E7E
:014158002244
:104DFC00E49006DCF0A31206FD00000000E490062F
:104E0C00DCF09006DCE0FFC3940E500DE4FD124084
:104E1C00969006DCE004F080E9124D56E4FCFDFEB1
:104E2C009006DD1206F17B017A0679DD9006ECE442
:0C4E3C00F0A374A1F07D017C00123E0E7A
:014E48002247
:1019CA004106CE004106AB004106AC004106AD001F
:0B1D3C009006D3EBF0A3EAF0A3E9F05F
:051D4700E49006F4F039
:101D4C009006D604F012052FFFAEF0E5F06003020A
:101D5C002053EF24ED603724F67003021E1824F58F
:101D6C007003021E8224F47003021F6A2434600381
:101D7C000220539006D3E0FBA3E0FAA3E0F9900015
:101D8C0002E4F5F01205B1E475F013120592900619
:101D9C00D3E0FBA3E0FAA3E0F990000212055AC3CA
:101DAC009401E5F094004003D38001C340037F000D
:101DBC00229006CEE075F026A42405F582E5F034D9
:101DCC0005F583E0706A9006ABF09006CEE075F0F6
:101DDC0026A42405F582E5F03405F583E0703690F1
:101DEC0006ABE06408602E9006CEE0045407F09039
:101DFC0006ABE004F0E49006D6F09006D3E0FBA32B
:101E0C00E0FAA3E0F9E475F01D1205929006D6E015
:101E1C0070B87F01229006ABE0B408149006D3E0B2
:101E2C00FBA3E0FAA3E0F9E4F5F01205927F00229F
:101E3C009006CEE075F026A424E0F9740435F0FA8F
:101E4C007B01EAC0E0E9C0E07A0679AE78AE7C06A8
:101E5C007D01D0E0F9D0E0FA7E007F20120430E45E
:101E6C009006D6F09006D3E0FBA3E0FAA3E0F9E4E9
:101E7C0075F0281205929006D6E070037F0122902F
:101E8C0006AC7407F0E49006ADF09006ACE0FFA34E
:101E9C00E0C39F4003021F7CE025E025E024B2F55F
:101EAC0082E43406F583E0FCA3E0FDA3E0FEA3E0AE
:101EBC00FF9006ADE025E025E024AEF582E4340683
:101ECC00F583E0F8A3E0F9A3E0FAA3E0FBD3120654
:101EDC00BA40749006ADE025E025E024AEF582E42E
:101EEC003406F583E0FCA3E0FDA3E0FEA3E0FF9045
:101EFC0006CF1206F19006ADE025E025E024B2F500
:101F0C0082E43406F583E0FCA3E0FDA3E0FEA3E04D
:101F1C00FF9006ADE025E025E024AEF582E4340622
:101F2C00F5831206F19006CFE0FCA3E0FDA3E0FEE2
:101F3C00A3E0FF9006ADE025E025E024B2F582E4B5
:101F4C003406F5831206F1E49006D6F09006D3E041
:101F5C00FBA3E0FAA3E0F9E475F0341205929006C5
:101F6C00D6E070037F01229006ADE004F0021E96CD
:101F7C009006ACE014F0E06003021E919006BEE007
:101F8C00FCA3E0FDA3E0FEA3E0FF9006BAE0F8A3FB
:101F9C00E0F9A3E0FAA3E02FFFEA3EFEE93DFDE8FD
:101FAC003CFC78011206CB9006CEE075F019A42407
:101FBC0084F582E5F03403F5831206F19006CEE049
:101FCC0075F019A4248CF582E5F03403F583E060F8
:101FDC00409006CEE075F019A42484F582E5F03427
:101FEC0003F583E0FCA3E0FDA3E0FEA3E0FF900675
:101FFC00D81206F19006CEE0FF1242199006CEE000
:10200C0075F019A42488F582E5F03403F5831206E3
:10201C00F19006CEE075F026A42405F582E5F034A7
:10202C0005F583E4F09006F6E004F070069006F5F2
:10203C00E004F09006D3E0FBA3E0FAA3E0F9E4F5AA
:10204C00F01205927F0022E49006D6F09006D3E0C1
:0F205C00FBA3E0FAA3E0F9E4F5F01205927F038D
:01206B002252
:1050B00053890F438910758D8A758BD0D2ABD28EF0
:0150C00022CD
:103B380000BC01BD02BE03BF04B805B906BA07BB85
:103B480008B409B50AB60BB70CB00DB10EB20FB375
:103B580010AC11AD12AE13AF14A815A916AA17AB65
:103B680018A419A51AA61BA71CA01DA11EA21FA355
:103B7800209C219D229E239F24982599269A279B45
:103B8800289429952A962B972C902D912E922F9335
:103B9800308C318D328E338F34883589368A378B25
:103BA800388439853A863B873C803D813E823F8315
:103BB80040FC41FD42FE43FF44F845F946FA47FB05
:103BC80048F449F54AF64BF74CF04DF14EF24FF3F5
:103BD80050EC51ED52EE53EF54E855E956EA57EBE5
:103BE80058E459E55AE65BE75CE05DE15EE25FE3D5
:103BF80060DC61DD62DE63DF64D865D966DA67DBC5
:103C080068D469D56AD66BD76CD06DD16ED26FD3B4
:103C180070CC71CD72CE73CF74C875C976CA77CBA4
:103C280078C479C57AC67BC77CC07DC17EC27FC394
:104FDF00E4FCCBEDCB1DEB60160FEFCAEECA7001F0
:104FEF000E14F5828A83E06C903B3893FC80E3CFFC
:024FFF00ECCFF5
:01500100228C
:0C19DA0041072F00410730004107310099
:104855009006D3EBF0A3EAF0A3E9F0A3ECF0A3ED07
:01486500F062
:10486600E4A3F09006D6E07002A3E060529006D36F
:10487600E0FBA3E475F001120519A9F0FA1204563B
:10488600FF124F91EFC454F0FEEEC0E09006D3E065
:10489600FBA3E475F001120519A9F0FA120456FFFC
:1048A600124F91D0E04FFF9006D8E02FF0E0F09045
:1048B60006D7E024FEF09006D6E034FFF080A49000
:0748C60006D8E0F404FFF046
:0148CD0022C8
:104F9100CEEFCEEEC39430400CEED394395006C31D
:104FA100EE9430FF22EEC39441400BEED394465071
:094FB10005EE24C9FF227FFF2256
:104FBA00CEEFCEEED394095005EE2430FF22EEC395
:104FCA00940A400BEED3940F5005EE2437FF227F4C
:054FDA00FF227F3022E0
:104E490090000112046FFF124F91CDEFCD1204565D
:104E5900FF124F91EFC454F04D9006D3F090000229
:104E690012046FFF124F91EFC454F0FD900003122A
:104E7900046FFF124F91EF4D9006D4F09006D3E0E6
:044E8900FEA3E0FFA5
:014E8D002202
:1050200090000112046FFF124F91CDEFCD12045684
:0A503000FF124F91EFC454F04DFF42
:01503A002253
:104DAE00900759EEF0A3EFF0900759E0540FFF1261
:104DBE004FBA900001EF1204E1900759E0FFC4547E
:104DCE000FFF124FBAEF1204CF90075AE0540FFFA5
:104DDE00124FBA900003EF1204E190075AE0FFC49D
:0D4DEE00540FFF124FBA900002EF1204E1C3
:014DFB002295
:10500200CDEFCDEDC4540FFF124FBAEF1204CFED26
:0E501200540FFF124FBA900001EF1204E1227A
:1047CC0090000112046FFF124F91CDEFCD120456E1
:1047DC00FF124F91EFC454F04D90074DF090000232
:1047EC0012046FFF124F91EFC454F0FD90000312AE
:1047FC00046FFF124F91EF4D90074EF09000041292
:10480C00046FFF124F91EFC454F0FD900005120499
:10481C006FFF124F91EF4D90074FF090000612046E
:10482C006FFF124F91EFC454F0FD90000712046F0C
:10483C00FF124F91EF4D900750F090074DE0FCA305
:08484C00E0FDA3E0FEA3E0FF84
:014854002241
:104B07009006D31206F19006D7EBF0A3EAF0A3E9DB
:014B1700F0AD
:104B1800E4A3F09006D3E0FCA3E0FDA3E0FEA3E04D
:104B2800E4FFFEFDEC54F0FC781C1206CB124FBAE1
:104B3800A3E0FBA3E0FAA3E0F9A3E0F58275830004
:104B4800EF1204E19006D3E0FCA3E0FDA3E0FEA38E
:104B5800E0FF78041206DE9006D31206F19006DA1A
:094B6800E004F0E0C3940840AA47
:014B71002221
:1031E500E4900730F07B017A007955124E4990073B
:1031F50032EEF0A3EFF07A007957124E499007347A
:10320500EEF0A3EFF0900732E0FEA3E0FFC3EE94EB
:1032150010500302333AD3EF941CEE94104003028E
:10322500333A900735E0941C900734E0940040034E
:1032350002333A900160743AF0900730E004F09060
:10324500004AE0FF7A017961125002900730E024CC
:1032550002F07A0179637F03125002900730E0246F
:1032650002F0E02402F0900732E0A3E090072FF08F
:10327500900734E0FEA3E0FF900733E02FFF9007AF
:1032850032E03EC313FEEF13FF90072FE0FDC39F0F
:10329500E49E503B75F019EDA42484F582E5F034E5
:1032A50003F583E0FCA3E0FDA3E0FEA3E0FF9007A8
:1032B50030E07A002460F9EA3401FA7B01124B0709
:1032C500900730E02408F090072FE004F080A190EB
:1032D5000730E024F9FF7B017A0179651250027A03
:1032E500017961900730E024FFFDE434FFFC1248CA
:1032F50055900731EFF0E0FF900730E07C00246047
:10330500F9EC3401FA7B01125002900730E02402F7
:10331500F0E0FF2460F582E43401F583740DF07468
:10332500602FF582E43401F583740AF0900730E0EC
:0D3335002402F080037F0022900730E0FFAB
:013342002268
:1000360002034BE86480F8E933E83360110460F0AA
:10004600ED33EC337009E8FCE9FDEAFEEBFF220430
:1000560060DED3EB9FEA9EE99DE8C2E78CF0C2F72B
:1000660095F0400CE8CCF8E9CDF9EACEFAEBCFFBF7
:1000760012031685D0F05804700320D5B3E8047037
:10008600075002B2D502035592D5EC0460F7E4CCD2
:10009600C0E0C398F8603B94186008400DD0E0FBC0
:1000A60002032DE4FBFAC9FC8028E830E406E4C923
:1000B600FBE4CAFCE830E305E4C9CACBFCE8540714
:1000C6006010F8C3E913F9EA13FAEB13FBEC13FC1F
:1000D600D8F130F52FC3E49CFCEF9BFFEE9AFEEDC2
:1000E60099FDD0E0FBEF4E4D4C701222DB0302036C
:1000F60052EC2CFCEF33FFEE33FEED33FDED30E733
:10010600EB02032DEF2BFFEE3AFEED39FDD0E0FBBF
:1001160050130BBB0003020355ED13FDEE13FEEF68
:0801260013FFEC13FC02032D92
:10012E00EC4D6011E8497017ED33EC3304600DE4CB
:10013E00FCFFFEFD22E933E8330470F802034B1294
:10014E00031658046009E4CC248150062850090295
:10015E000355284003020352C0E0EB4A7044B980B5
:10016E0006D0E0FB020341EF4E701CBD8008EBFF92
:10017E00EAFEE9FD80EBE98DF0A4FEE5F002021740
:10018E00E9CDF9EAFEEBFFEF89F0A4FCE5F0CE89AC
:10019E00F0A42EFFE435F0CD89F0A42DFEE435F069
:1001AE008067EF4E7005BD80D780C3EF8BF0A4AC97
:1001BE00F0EE8BF0A42CFCE435F0F8EF8AF0A42CD2
:1001CE00E5F038FCE433CB8DF0A42CFCE5F03BF8E5
:1001DE00EE8AF0A42CFCE5F038F8E433CF89F0A4D5
:1001EE002CFCE5F038CF3400CE89F0A42FFFE5F0DB
:1001FE003EFEE433C98DF0A42EFEE5F039CD8AF033
:10020E00A42FFFE5F03EFEE43DFD33D0E0FB5007AA
:10021E000BBB000F020355EC2CFCEF33FFEE33FE4D
:06022E00ED33FD02032D7B
:1002340074F8CC6480CCC86480C8F582046043C37D
:10024400EB9FF5F0EA9E42F0E99D42F0E89C45F010
:1002540060305018E5825FFFE582F42B5582FB5035
:10026400210ABA001D09B90019088016E5825BFB52
:10027400E582F42F5582FF50090EBE00050DBD0026
:10028400010CC3EB9FF5F0EA9E42F0E99D42F0E8D1
:0D0294009C45F06007CC4820E701B3EC2248
:1002A10075F020800E75F010800575F0087D007ED8
:1002B100007F003392D530D5031206ACEC334010E9
:1002C100EF33FFEE33FEED33FDEC33FCD5F0ED22E1
:0E02D100E5F0247EA2D513CC92E7CDCEFF221D
:1002DF00EDD2E7CD33EC3392D524814006E4FFFE17
:1002EF00FDFC22FCE4CFCECDCC24E0501174FF8076
:1002FF00EDC3CC13CCCD13CDCE13CECF13CF047013
:07030F00F030D5DE0206AC60
:10031600E9D2E7C933E833F892D5EDD2E7CD33EC2D
:0703260033FC5002B2D522A6
:10032D00EC30E7100FBF000C0EBE00080DBD000431
:10033D000BEB6014A2D5EB13FCED92E7FD2274FFDD
:10034D00FCFDFEFF22E480F8A2D574FF13FC7D8036
:03035D00E480EF4A
:10457F00024425E493A3F8E493A34003F68001F2E9
:10458F0008DFF48029E493A3F85407240CC8C3333D
:10459F00C4540F4420C8834004F456800146F6DF0C
:1045AF00E4800B0102040810204080901686E47E00
:1045BF00019360BCA3FF543F30E509541FFEE49301
:1045CF00A360010ECF54C025E060A840B8E493A3C8
:1045DF00FAE493A3F8E493A3C8C582C8CAC583CAF3
:1045EF00F0A3C8C582C8CAC583CADFE9DEE780BEAB
:0119E6000000
:10036000E709F608DFFA8046E709F208DFFA803E7F
:1003700088828C83E709F0A3DFFA8032E309F6086C
:10038000DFFA8078E309F208DFFA807088828C83D4
:10039000E309F0A3DFFA806489828A83E0A3F60888
:1003A000DFFA805889828A83E0A3F208DFFA804C62
:1003B00080D280FA80C680D4806980F28033801039
:1003C00080A680EA809A80A880DA80E280CA8033A2
:1003D00089828A83ECFAE493A3C8C582C8CCC5831A
:1003E000CCF0A3C8C582C8CCC583CCDFE9DEE780EA
:1003F0000D89828A83E493A3F608DFF9ECFAA9F069
:10040000EDFB2289828A83ECFAE0A3C8C582C8CCBE
:10041000C583CCF0A3C8C582C8CCC583CCDFEADED7
:10042000E880DB89828A83E493A3F208DFF980CC39
:1004300088F0EF60010E4E60C388F0ED2402B40432
:100440000050B9F582EB2402B4040050AF232345D9
:0604500082239003B0734B
:10045600BB010689828A83E0225002E722BBFE02A4
:09046600E32289828A83E49322D7
:10046F00BB010CE58229F582E5833AF583E0225042
:10047F0006E92582F8E622BBFE06E92582F8E2228C
:0D048F00E58229F582E5833AF583E49322A6
:10049C00BB010FF8E58229F582E5833AF583E02864
:1004AC00F0225009C58229F8E58226F622BBFE0906
:1004BC00C58229F8E22582F222F8EA2583F583E940
:0304CC0093282250
:1004CF00BB010689828A83F0225002F722BBFE010C
:0204DF00F32206
:1004E100F8BB010DE58229F582E5833AF583E8F051
:1004F100225006E92582C8F622BBFE05E92582C8FD
:02050100F222E4
:10050300C5F0F8A3E028F0C5F0F8E5821582700283
:060513001583E038F02220
:10051900A3F8E0C5F025F0F0E58215827002158395
:06052900E0C838F0E822F2
:10052F00BB010A89828A83E0F5F0A3E02250068797
:10053F00F009E71922BBFE07E3F5F009E319228959
:0B054F00828A83E493F5F0740193228C
:10055A00BB0110E58229F582E5833AF583E0F5F0DF
:10056A00A3E0225009E92582F886F008E622BBFEBC
:10057A000AE92582F8E2F5F008E222E5832AF58302
:08058A00E993F5F0A3E99322C7
:10059200BB010A89828A83F0E5F0A3F0225006F7B4
:0F05A20009A7F01922BBFE06F3E5F009F31922B1
:1005B100F8BB0111E58229F582E5833AF583E8F07C
:1005C100E5F0A3F0225009E92582C8F608A6F02239
:0D05D100BBFE09E92582C8F2E5F008F22220
:1005DE0075F008758200EF2FFFEE33FECD33CDCCD4
:1005EE0033CCC58233C5829BED9AEC99E582984057
:1005FE000CF582EE9BFEED9AFDEC99FC0FD5F0D634
:10060E00E4CEFBE4CDFAE4CCF9A88222B800C1B95D
:10061E000059BA002DEC8BF084CFCECDFCE5F0CB9B
:10062E00F97818EF2FFFEE33FEED33FDEC33FCEBD4
:10063E0033FB10D703994004EB99FB0FD8E5E4F98F
:10064E00FA227818EF2FFFEE33FEED33FDEC33FC7C
:10065E00C933C910D7059BE99A4007EC9BFCE99A70
:10066E00F90FD8E0E4C9FAE4CCFB2275F010EF2FB5
:10067E00FFEE33FEED33FDCC33CCC833C810D707B5
:10068E009BEC9AE899400AED9BFDEC9AFCE899F8F0
:0E069E000FD5F0DAE4CDFBE4CCFAE4C8F92283
:104E8E00C2D5E830E70FB2D5E4C39BFBE49AFAE44F
:104E9E0099F9E498F8EC30E717B2D5124EC4120621
:104EAE001AE4C39BFBE49AFAE499F9E498F88003B8
:104EBE0012061A30D50DE4C39FFFE49EFEE49DFD5D
:044ECE00E49CFC2242
:0E06AC00C3E49FFFE49EFEE49DFDE49CFC225F
:1006BA00EB9FF5F0EA9E42F0E99D42F0E89C45F096
:0106CA00220D
:1006CB00E8600FECC313FCED13FDEE13FEEF13FF0D
:0306DB00D8F12231
:1006DE00E8600FEFC333FFEE33FEED33FDEC33FC7A
:0306EE00D8F1221E
:0C06F100ECF0A3EDF0A3EEF0A3EFF0227C
:1006FD00A8828583F0D083D08212071412071412BA
:10070D000714120714E473E493A3C583C5F0C583DE
:10071D00C8C582C8F0A3C583C5F0C583C8C582C846
:01072D0022A9
:0C072E00A42582F582E5F03583F58322D6
:10073A00D083D082F8E4937012740193700DA3A34E
:10074A0093F8740193F5828883E473740293686062
:06075A00EFA3A3A380DF62
:10076000D083D082F8E4937012740193700DA3A328
:1007700093F8740193F5828883E473740293B5F05F
:0D078000067403936860E9A3A3A3A380D8C7
:00000001FF
