:102E82009005CCF0A3F0A37405F0A37484F0A374AE
:102E92000AF07B007A00790B7F58229005C4E0FB90
:072EA200A3E0FAA3E0F9220E
:10276900C2AF53D7F91213A5122ADB122F68122E02
:1027790001122F45122EF07F42122F9D122F0612A1
:102789002D13E49005E2F0A3F09005E6F0A3F09094
:1027990005EAF0A3F09005EEF0A3F0D2AF780BF6BE
:1027A90004122E82122EA97B017A02796C121AADBB
:1027B9007B017A0579E21229B07B017A0579E61263
:1027C90018FE7B017A0579EA120FD57B017A057922
:0927D900EE120DC0122F9380CE08
:0B29B0009005C4EBF0A3EAF0A3E9F0EF
:1029BB00A37401F01203C5FFAEF0E5F07041EF24F4
:1029CB00AF601724517038122E9D900002E4F5F081
:1029DB00120447E475F051120428122E9D90000248
:1029EB001203F0C3940FE5F094004003D38001C3AE
:1029FB0040037F00227401122E82122EA980C8E49C
:0F2A0B009005C7F0122E9DE4F5F01204287F030A
:012A1A002299
:03001B00022A7D39
:102A7D00C0E0C083C08205A7C083C082C0A775A770
:102A8D0000758D8A758BD09005E5E004F070069089
:102A9D0005E4E004F09005E9E004F070069005E827
:102AAD00E004F09005EDE004F070069005ECE00414
:102ABD00F090026FE004F0700690026EE004F0D02A
:0E2ACD00A7D082D08305A7D082D083D0E0327C
:102F4500759E82759D2D759852D2ACC299C298D244
:022F5500BC229C
:102D5400E5E6540775F026A424F2F582E5F0340381
:102D6400F58322F0E5E6540775F026A422E5E6543F
:102D74000775F019A42275F0040205C424F7F5823E
:0F2D8400E5F03403F58322E4F075F026EFA42286
:102E010075D10075D20075E60043D28043D22043CC
:102E1100D207122DCE7F03122FA57F647E00122FC1
:0D2E21001C53E6F043E640D2AE43D1202220
:03003300021E6644
:101E6600C0E0C0F0C083C08205A7C083C082C0A7FF
:101E760075A700C0D0EFC0E0122D6824D2F582E528
:101E8600F03403F583C083C082122D54E0D082D093
:101E960083122D7AE4122D6724D3F582E5F03403FC
:101EA600F583C083C082122D54E0D082D083122DD8
:101EB6007AE5DB122D6724D4F582E5F03403F58349
:101EC600C083C082122D54E0D082D083122D7AE5D1
:101ED600DA122D6724D5F582E5F03403F583C08345
:101EE600C082122D54E0D082D083122D7AE5D9F02B
:101EF600122D54E0045407FF122D54EF122D6712D1
:101F06002D807401F053D1DF8011122D712474F5E8
:101F160082E5F03402F583E0B4FF0FE5E6045407EA
:101F2600FFE5E654F04FF5E680E0122D712477F5D3
:101F360082E5F03402F583E064075407FFE5D254E6
:101F4600F84FF5D2122D712478F582E5F03402F5BA
:101F560083E0F5D443D120C2DFD0E0FFD0D0D0A7B4
:0F1F6600D082D08305A7D082D083D0F0D0E032D4
:072FA50053D1F8EF42D122E5
:102F1C00CBEFCBCAEECAE4F9F87F557E05FDFC1267
:052F2C002CCF8FD42220
:102DCE00E4FF75F026EF122D5B122D8B24F5F582A4
:102DDE00E5F03403F583122D8B24F6F582E5F034FD
:102DEE0003F5837420122D8C122D80E4F00FEFB4B6
:022DFE0008D0FB
:012E000022AF
:0A2F8900E0FEA3E0FF8EC78FC62212
:0824E0009005DCECF0A3EDF027
:1024E800E49005E0F0A3F09005DCE0FEA3E0FF90A7
:1024F80005DFE02F9005DEE03EC394044004E4FECF
:10250800FF22E49005E0F0A3F09005DCE0FEA3E0F4
:10251800FFC39005E1E09F9005E0E09E5071E0FE6A
:10252800A3E07802C333CE33CED8F9FFF5828E8389
:10253800120360F5BC8F828E83A3120360F5BD90F1
:1025480005E0E0FEA3E07802C333CE33CED8F9FF2E
:10255800F5828E83A3A3120360F5BE8F828E83A3B8
:10256800A3A3120360F5BF9005DE122F8975B90584
:1025780075B902E004F070069005DEE004F09005FD
:10258800E1E004F070839005E0E004F0022511908A
:0725980005E0E0FEA3E0FFF7
:01259F002219
:08241E009005C9ECF0A3EDF0FC
:10242600E49005CDF0A3F09005C9E0FEA3E0FF908F
:1024360005CCE02F9005CBE03EC394044004E4FEB7
:10244600FF22E49005CDF0A3F09005C9E0FEA3E0DD
:10245600FFC39005CEE09F9005CDE09E507390059A
:10246600CB122F8975B901A3E0FCA3E0FDCEECCE1B
:102476007802C333CE33CED8F9FFF5828E83E5BC1E
:1024860012038D8F828E83A3E5BD12038DEDCEECF4
:10249600CE7802C333CE33CED8F9FFF5828E83A32E
:1024A600A3E5BE12038D8F828E83A3A3A3E5BF127D
:1024B600038D9005CCE004F070069005CBE004F0A7
:1024C6009005CEE004F070819005CDE004F0022482
:0924D6004F9005CDE0FEA3E0FFEC
:0124DF0022DA
:082F9D008F0AD2C0850AC02290
:0A2F9300C2AFD2C0850AC0D2AF223F
:10207E0000BC01BD02BE03BF04B805B906BA07BB5A
:10208E0008B409B50AB60BB70CB00DB10EB20FB34A
:10209E0010AC11AD12AE13AF14A815A916AA17AB3A
:1020AE0018A419A51AA61BA71CA01DA11EA21FA32A
:1020BE00209C219D229E239F24982599269A279B1A
:1020CE00289429952A962B972C902D912E922F930A
:1020DE00308C318D328E338F34883589368A378BFA
:1020EE00388439853A863B873C803D813E823F83EA
:1020FE0040FC41FD42FE43FF44F845F946FA47FBDA
:10210E0048F449F54AF64BF74CF04DF14EF24FF3C9
:10211E0050EC51ED52EE53EF54E855E956EA57EBB9
:10212E0058E459E55AE65BE75CE05DE15EE25FE3A9
:10213E0060DC61DD62DE63DF64D865D966DA67DB99
:10214E0068D469D56AD66BD76CD06DD16ED26FD389
:10215E0070CC71CD72CE73CF74C875C976CA77CB79
:10216E0078C479C57AC67BC77CC07DC17EC27FC369
:101584005400013C3C7555534F5F323E3E00000011
:1015940000000000000000602800153C2D2D2047AD
:1015A400454F5350484552415F32303132202D2D42
:1015B4003E000000000000000000000000000000E9
:1015C40000000048003D3030303031000000410060
:1015D4004501410046144100470041004C00610EA2
:1015E400004D0000000000000000000000000000AA
:1015F40000000000000000000000000000000000E7
:1016040000000000000000000000000000000000D6
:1016140000000000000000000000000000000000C6
:1016240000000000000000000000000000000000B6
:1016340000000000000000000000000000000000A6
:101644000000000000000000000000000000000096
:101654000000000000000000000000000000000086
:101664000000000000000000000000000000000076
:101674000000000000000000000000000000000066
:101684000000000000000000000000000000000056
:101694000000000000000000000000000000000046
:1016A4000000000000000000000000000000000036
:1016B4000000000000000000000000000000000026
:1016C4000000000000000000000000000000000016
:1016D4000000000000000000000000000000000006
:1016E40000000000000000000000000000000000F6
:1016F400410269C041026AFF41026B0041000000DF
:0300230002174C75
:10174C00C0E0C083C08205A7C083C082C0A775A7B4
:10175C0000C0D0EEC0E0EFC0E0C2AF20980302188A
:10176C007DC298900048E0D3940E74809481400A16
:10177C0090026CE4F0A3F00218E790026AE599F08D
:10178C00E0606524D760292452600302181B900284
:10179C006AE0FF900048E0244DF582E43400F583C4
:1017AC00EFF0900048E004F090004B7401F0807E64
:1017BC0090004BE0B4011590004DE4F0A374D7F009
:1017CC00A37429F09000487403F0805D90026AE0E5
:1017DC00FF900048E0244DF582E43400F583EFF0EF
:1017EC00900048E004F0804190004BE0B40104E428
:1017FC00F0803B90026AE0FF900048E0244DF582B7
:10180C00E43400F583EFF0900048E004F0801F9082
:10181C00026AE0FF900048E0244DF582E43400F5C4
:10182C0083EFF0900048E004F090004BE4F090005F
:10183C0048E0D39406402490004CE02406FFE433A7
:10184C00FE900048E06F7001EE702690004704F0A7
:10185C00C2ACC29C90004BE4F08016900048E0B4FF
:10186C00060FE0244CF582E43400F583E090004C44
:10187C00F0309965C29990004AE0FF900049E0C3AE
:10188C009F5047E0C394035002802090004BE070BF
:10189C002F900049E0245BF582E43401F583E0B439
:1018AC00D70690004B7401F0900049E0245BF58260
:1018BC00E43401F583E0F599900049E004F08019D7
:1018CC0075990090004BE4F0800F900049E4F09083
:1018DC00004BF090026CF0A3F0D2AFD0E0FFD0E060
:1018EC00FED0D0D0A7D082D08305A7D082D083D011
:0218FC00E032D8
:102ADB00E4FFC299C29812227BE4900048F0A3F065
:102AEB00A3F0C2B5A3F090026974C0F0E490026B3E
:102AFB00F0FF75F019EFA42474F582E5F03402F5BC
:102B0B0083E0F4601C90026BE0FE75F019EFA424D7
:102B1B0074F582E5F03402F583EEF090026BE0047D
:0D2B2B00F00FEFB40ECCE490026CF0A3F0BC
:012B3800227A
:1011C200E49005C8F090015BF0A374D7F0A37429F2
:1011D200F0900045E090015EF0A37402F090026985
:1011E200E0900161F0E49005C8F09005C8E0C39476
:1011F20014501DE02401F582E43400F583E0FF90F1
:1012020005C8E02462F582E43401F583EFF0800F33
:101212009005C8E02462F582E43401F583E4F0909D
:1012220005C8E004F0E0B414C1E49005C8F09005EC
:10123200C8E0C39408501BE0243DF582E43400F575
:1012420083E0FF9005C8E02476F582E43401F5835B
:10125200EFF09005C8E004F0E0B405D290026BE034
:1012620090017BF0E49005C8F09005C8E075F01994
:10127200A42474F582E5F03402F583E0F460729000
:1012820005C8E075F019A42475F582E5F03402F57D
:1012920083E0C454F0FF9005C8E075F019A42476E9
:1012A200F582E5F03402F583E04FFF9005C8E07562
:1012B200F019A42474F582E5F03402F583E075F0A8
:1012C20002A4247CF582E5F03401F583EFF0900569
:1012D200C8E075F019A42474F582E5F03402F583B0
:1012E200E075F002A4247DF582E5F03401F583E493
:1012F200F09005C8E004F0E0640E600302126BE4B3
:101302009005C8F0900046E0FF9005C8E0C39F50EA
:1013120037E02415F582E43400F583E0FF9005C838
:10132200E0FE90026BE075F002A42EF582E435F047
:10133200F583E582247CF582E5833401F583EFF0C1
:101342009005C8E004F080BC90026BE025E0241C0C
:10135200FF900046E02F900160F07E017F5C9002DA
:101362006BE025E02420FD900046E02DFD122ECDFD
:10137200900046E0FE90026BE075F002A42EF5822A
:10138200E435F0F583E582247CF582E5833401F5CA
:1013920083EFF090026BE025E02422FF900046E00C
:0213A2002FFF1B
:0113A4002226
:030006007F002256
:03000E007F00224E
:030016007F002246
:101BF500E4FF9005C8F0FEFD900052E014FCEFC331
:101C05009C4003021D2D74532FF582E43400F583A7
:101C1500E0FC90026BE0FBECC39B4003021D2974C2
:101C2500542FF582E43400F583E0FCC4540F6003BF
:101C3500021D22E4FE74532FF582E43400F583E09F
:101C4500FC75F019EEA42474F582E5F03402F583F1
:101C5500E06C7005CDEECD80050EEEB40ED7745454
:101C65002FF582E43400F583E0FC75F019EDA4242A
:101C750076F582E5F03402F583E06C703E74552FFD
:101C8500F582E43400F583E0FC75F019EDA42477C2
:101C9500F582E5F03402F583E06C701F74562FF57C
:101CA50082E43400F583E0FC75F019EDA42478F5A1
:101CB50082E5F03402F583E06C605F74552FF582A0
:101CC500E43400F583E0FC75F019EDA42477F58282
:101CD500E5F03402F583ECF074562FF582E4340018
:101CE500F583E0FC75F019EDA42478F582E5F03470
:101CF50002F583ECF074542FF582E43400F583E0AB
:101D0500540FFC75F019EDA42476F582E5F0340244
:101D1500F583ECF09005C87401F00F8001000F0FFA
:101D25000F021BFD7F01800B9005C8E06003122E9A
:061D35002EE4FF122C4415
:011D3B002285
:03001E007F00223E
:030026007F002236
:03002E007F00222E
:032FAC007F002281
:102F79009002697440F0780B7612E4FF122C442217
:10070900E4F508F50990015BF0A374D7F0A3742907
:10071900F0900045E090015EF0A37415F090026935
:10072900E0900161F0750807E4F50975F019E5092C
:10073900A42474F582E5F03402F583E0FFF4700334
:10074900020AE4AE080508745B2EF582E43401F56B
:1007590083EFF075F019E509A42475F582E5F03405
:1007690002F583E0C454F0FF75F019E509A4247675
:10077900F582E5F03402F583E04FFFAE0805087411
:100789005B2EF582E43401F583EFF075F019E50984
:10079900A42475F582E5F03402F583E014700302B0
:1007A9000961147003020A1024026003020AE47545
:1007B900F019E509A42476F582E5F03402F583E021
:1007C90024FD700302086224036003020AE475F041
:1007D90019E509A42481F582E5F03402F583E06482
:1007E9000175F019702FE509A4247FF582E5F0342D
:1007F90002F583E0FFAE080508745B2EF582E43448
:1008090001F583EFF075F019E509A4247EF582E579
:10081900F03402802DE509A4247BF582E5F0340249
:10082900F583E0FFAE080508745B2EF582E4340118
:10083900F583EFF075F019E509A4247AF582E5F05E
:100849003402F583E0FFAE080508745B2EF582E4F7
:100859003401F583EFF002092E75F019E509A42496
:1008690081F582E5F03402F583E0640175F01970D1
:1008790051E509A42480F582E5F03402F583E0FF0F
:10088900AE080508745B2EF582E43401F583EFF0B8
:1008990075F019E509A4247FF582E5F03402F583A2
:1008A900E0FFAE080508745B2EF582E43401F58398
:1008B900EFF075F019E509A4247EF582E5F034021C
:1008C900804FE509A4247CF582E5F03402F583E044
:1008D900FFAE080508745B2EF582E43401F583EF59
:1008E900F075F019E509A4247BF582E5F03402F5E9
:1008F90083E0FFAE080508745B2EF582E43401F548
:1009090083EFF075F019E509A4247AF582E5F0344E
:1009190002F583E0FFAE080508745B2EF582E43426
:1009290001F583EFF075F019E509A42477F582E55F
:10093900F03402F583E0FFAE080508745B2EF582FA
:10094900E43401F583EFF075F019E509A42478F58D
:1009590082E5F03402020AD075F019E509A424767B
:10096900F582E5F03402F583E06003020AE475F0EC
:1009790019E509A4247CF582E5F03402F583E0FF4A
:10098900AE080508745B2EF582E43401F583EFF0B7
:1009990075F019E509A4247BF582E5F03402F583A5
:1009A900E0FFAE080508745B2EF582E43401F58397
:1009B900EFF075F019E509A4247AF582E5F034021F
:1009C900F583E0FFAE080508745B2EF582E4340177
:1009D900F583EFF075F019E509A42479F582E5F0BE
:1009E9003402F583E0FFAE080508745B2EF582E456
:1009F9003401F583EFF075F019E509A42477F58240
:100A0900E5F03402020AD075F019E509A42476F557
:100A190082E5F03402F583E014605A046003020AA7
:100A2900E475F019E509A4247CF582E5F03402F5B2
:100A390083E0FFAE080508745B2EF582E43401F506
:100A490083EFF075F019E509A4247BF582E5F0340C
:100A590002F583E0FFAE080508745B2EF582E434E5
:100A690001F583EFF075F019E509A42477F582E51E
:100A7900F03402805275F019E509A4247CF582E569
:100A8900F03402F583E0FFAE080508745B2EF582A9
:100A9900E43401F583EFF075F019E509A4247BF539
:100AA90082E5F03402F583E0FFAE080508745B2E99
:100AB900F582E43401F583EFF075F019E509A42412
:100AC90077F582E5F03402F583E0FFAE0805087496
:100AD9005B2EF582E43401F583EFF00509E509643D
:100AE9000E6003020734E50824FB900160F07E01E3
:100AF9007F5CE50814FD122ECD745B2508F582E4B0
:0A0B09003401F583EFF0E50804FF66
:010B130022BF
:101F7500900058E0900270F0900057E0900271F0E8
:101F8500900056E0900272F0900055E0900273F0D8
:101F9500900270E0FCA3E0FDA3E0FEA3E0FF900546
:101FA500C812058790005CE0900270F090005BE03D
:101FB500900271F090005AE0900272F0900059E0A2
:101FC500900273F0900270E0FCA3E0FDA3E0FEA395
:101FD500E0FF9005CC120587900054E014603C1496
:101FE500604E240260030220779005C8E0FCA3E060
:101FF500FDA3E0FEA3E0FF9005D11205879005CC77
:10200500E0FCA3E0FDA3E0FEA3E0FF9005D51205EB
:1020150087900053E0FF1228D38058900053E07555
:10202500F019A42481F582E5F03402F583E48014E7
:10203500900053E075F019A42481F582E5F034028F
:10204500F5837401F0900053E075F019A42481F92B
:10205500740235F0FA7B01E075F003A42450FEE428
:1020650035F09005DEF0A3CEF07D037C001224E070
:08207500800100E4FF122C447D
:01207D002240
:102D9300900052E024E5FE602DA3E0FF9005CC7483
:102DA30001F0A37400F0A37468F0A37401F0A3749A
:102DB30000F0A3746DF0A3EEF07B017A0079541256
:0B2DC3001D3CE4FF80027F09022C444D
:102C4400E490015BF0A374D7F0A37429F0900045DD
:102C5400E090015EF0900051E0900162F090015F1D
:102C640074FFF0900269E0900161F0900163EFF06D
:102C74009001607404F07E017F5B7D09122ECD907B
:072C84000164EFF07F0A225A
:1026EB00900051E01205D0271D0127220327270553
:1026FB00272C0727310927360A273B0C27400E27A3
:10270B004510274A12274F142759CA2754CD0000CA
:10271B00275E1211C28041120006803C12000E800F
:10272B00371200168032121BF5802D12001E8028E6
:10273B00120026802312002E801E122FAC8019123D
:10274B002F798014120709800F122D93800A121F04
:0E275B007580057F06122C4490004AEFF02294
:0B1AAD009005C4EBF0A3EAF0A3E9F001
:101AB800A37401F01203C51205F61AD600001AF431
:101AC80002BB1B4F02C91BB602DB00001BDCE49003
:101AD8000048F0D29CC2B5D2AC9005C4E0FBA3E0AC
:101AE800FAA3E0F9740275F0BB120428900047E0ED
:101AF8007002FF22E4900047F0900045E0FF90005C
:101B080050E06F60028052900048E0244CF582E477
:101B18003400F583E0900000F07E007F4D9000488F
:101B2800E014FD122ECD900000E06F6002802AE4E0
:101B38009005C7F09005C4E0FBA3E0FAA3E0F974B0
:101B48000275F0C91204289005C7E070037F0122CE
:101B58001226EB90004AE070149005C4E0FBA3E065
:101B6800FAA3E0F9E4F5F01204287F0022D2B5C206
:101B78009CE4900049F090004BF0900049E0245B11
:101B8800F582E43401F583E0F599900049E004F02A
:101B9800D2AC9005C4E0FBA3E0FAA3E0F990000200
:101BA800E4F5F0120447740275F0DB12042890057E
:101BB800C4E0FBA3E0FAA3E0F99000021203F0C32B
:101BC800940AE5F094004003D38001C35003021A3D
:101BD800D67F0022E49005C7F09005C4E0FBA3E09F
:0C1BE800FAA3E0F9E4F5F01204287F03F2
:011BF40022CE
:102ECD00E4FCCBEDCB1DEB60160FEFCAEECA700123
:102EDD000E14F5828A83E06C90207E93FC80E3CF04
:022EED00ECCF28
:012EEF0022C0
:0E1D3C009005C8EFF0A3EBF0A3EAF0A3E9F0E6
:101D4A00E49005D3F0A3F07B017A0579C89005DE0B
:101D5A00F0A3742AF07D017C001224E09005C9E00A
:101D6A00FBA3E0FAA3E0F99005DEE4F0A3742BF0FC
:101D7A007D057C001224E07A00790178017C007DDF
:101D8A00019005C9E0FBA3E0FAA3E0F97E007F1405
:101D9A001206E39005CCE0FBA3E0FAA3E0F9900574
:101DAA00DEE4F0A37430F07D027C001224E07A00B5
:101DBA00793D783D7C007D019005CCE0FBA3E0FAFB
:101DCA00A3E0F97E007F081206E39005D2E0FF1334
:101DDA0013543FFDA3E4F0A3EDF0EF54FC600BE0D5
:101DEA0004F070069005D3E004F0D39005D4E09493
:101DFA000A9005D3E094004006E4F0A3740AF09038
:101E0A0005CFE0FBA3E0FAA3E0F99005D3E0FCA339
:101E1A00E0FD9005DEE4F0A37433F01224E09005AF
:101E2A00D2E0900046F07B017A0579D29005DEE493
:101E3A00F0A37432F07D017C001224E09005D2E018
:101E4A00FF7E007A00791578157C007D019005CF18
:0B1E5A00E0FBA3E0FAA3E0F91206E3AE
:011E6500225A
:10227B00E49005C4F0A3F07B017A0079459005CB7F
:10228B00F0A3742AF07D017C0012241E900045E01F
:10229B00C394014006E0D3940F40069000457401AF
:1022AB00F07B017A0079019005CBE4F0A3742BF05D
:1022BB007D057C0012241E7B017A00793D9005CBB5
:1022CB00E4F0A37430F07D027C0012241E7B017AB3
:1022DB000079469005CBE4F0A37432F07D017C00CD
:1022EB0012241E900046E0D3942840037428F090EB
:1022FB000046E0FF1313543FFF9005C4E4F0A3EF37
:10230B00F0900046E054FC600E9005C5E004F070C0
:10231B00069005C4E004F0D39005C5E0940A90053F
:10232B00C4E094004006E4F0A3740AF07B017A0049
:10233B0079159005C4E0FCA3E0FD9005CBE4F0A378
:06234B007433F012241EA1
:012351002269
:102C8B00F0A37440F0A3741EF0227440F0A3740AF6
:102C9B00F022EF75F019A42475F9740235F0FA7B64
:102CAB0001E02410FEE4332274FFF0A37402F0A3BE
:102CBB0014F02274FFF0E4A3F022E4F0A37402F00A
:042CCB00E4A3F0226C
:1013A500122E58900275E0700990028EE0700302CB
:1013B5001498E4900276122C8B90027D120593000E
:1013C500000000E4900281F090028F122C8B9002B5
:1013D5009612059300000000E490029AF09002A88E
:1013E500122C8B9002AF12059300000000E49002CE
:1013F500B3F09002C1122C8B9002C8120593000025
:101405000000E49002CCF09002DA122C8B9002E1FD
:1014150012059300000000E49002E5F09002F3123B
:101425002C8B9002FA12059300000000E49002FE56
:10143500F090030C122C8B900313120593000000FF
:1014450000E4900317F0900325122C8B90032C12C7
:10145500059300000000E4900330F090033F122C48
:1014650095E4900349F0900358122C95E49003629B
:10147500F0900371122C95E490037BF090038A128F
:101485002C95E4900394F09003A3122C959003BC43
:10149500122C95E4900274F0A3F090027912059352
:1014A50000000000E490028DF0A3F0900292120576
:1014B5009300000000E49002A6F0A3F09002AB12A6
:1014C500059300000000E49002BFF0A3F09002C471
:1014D500120593000000009002D8122CBE9002DD88
:1014E500120593000000009002F1122CBE9002F646
:1014F5001205930000000090030A122CBE90030F02
:1015050012059300000000900323122CBE900328BF
:101515001205930000000090033C122CB390034188
:1015250012059300000000900355122CB390035A46
:101535001205930000000090036E122CB390037304
:101545001205930000000090038774FFF0A3740157
:10155500F0E4A3F090038C120593800080009003C3
:10156500A0122CC59003A51205930000000090035E
:0F157500B9122CC59003BE12059300000000228E
:102E2E00E49005C9F0F09005C9E0FFC3940E501967
:102E3E00122C9D9005DEF0A3CEF07D017C001224B5
:092E4E00E09005C9E004F080DD0C
:012E57002258
:102E5800E49005C4F0F09005C4E0FFC3940E501947
:102E6800122C9D9005CBF0A3CEF07D017C0012249E
:092E78001E9005C4E004F080DDA9
:012E8100222E
:0300000002265C79
:0F265C0043AF01787FE4F6D8FD7581110226A601
:0E170400011100410502004405030000000031
:10285B00F583E475F0011203AF90050775F008E0FE
:10286B00FCA3E0FDEFA422E49005C7F09005C4E0C3
:10287B00FBA3E0FAA3E0F922E0FEA3E0FFC32234BE
:10288B0007FEE0FCA3E0FDC3EF9DFFEE9C2290054D
:10289B0007E0C3135403FF75F008A422F890050258
:1028AB00E075F022A422900502E075F019A42441F2
:1028BB00F582E5F03403F58322F583E0FEA3E022F5
:0828CB00F583ECF0A3EDF0220F
:102EF000122F57122F31D2AAD2A8D288D28AE490A8
:062F00000507F0A3F0221A
:03000300022B9637
:102B9600C0E0C0F0C083C08205A7C083C082C0A7C2
:102BA60075A700C0D0E8C0E0ECC0E0EDC0E0EFC023
:012BB600E03E
:102BB7001228992409F582E4340512285B240BF5C1
:072BC70082E434051228CB63
:102BCE00D0E0FFD0E0FDD0E0FCD0E0F8D0D0D0A730
:0F2BDE00D082D08305A7D082D083D0F0D0E03250
:03001300022BEDD0
:102BED00C0E0C0F0C083C08205A7C083C082C0A76B
:102BFD0075A700C0D0E8C0E0ECC0E0EDC0E0EFC0CC
:012C0D00E0E6
:102C0E00122899242BF582E4340512285B242DF525
:072C1E0082E434051228CB0B
:102C2500D0E0FFD0E0FDD0E0FCD0E0F8D0D0D0A7D8
:0F2C3500D082D08305A7D082D083D0F0D0E032F8
:03000B00022B398C
:102B3900C0E0C0F0C083C08205A7C083C082C0A71F
:102B490075A700C0D0E8C0E0ECC0E0EDC0E0EFC080
:012B5900E09B
:102B5A00758CFF758AFF122899244DF582E4340595
:0D2B6A0012285B244FF582E434051228CBBD
:102B7700D0E0FFD0E0FDD0E0FCD0E0F8D0D0D0A787
:0F2B8700D082D08305A7D082D083D0F0D0E032A7
:03002B00020B14B1
:100B1400C0E0C0F0C083C08205A7C083C082C0A764
:100B240075A700C0D0E8C0E0ECC0E0EDC0E0EEC0C6
:100B3400E0EFC0E0C2CF900507E0FEA3E08EF01224
:100B440005F60B5A01FF0BE603FF0C6F05FF0CF9CA
:100B540007FF00000D8990050CE024FFFF90050BB2
:100B6400E090052312288A90050DF0A3EFF090057C
:100B740009E0FFA3E090050FCFF0A3EFF09005216B
:100B8400E4F0A3F090052EE024FFFF90052DE09003
:100B9400054512288A90052FF0A3EFF090052BE06D
:100BA400FFA3E0900531CFF0A3EFF0900543E4F00C
:100BB400A3F0900550E024FFFF90054FE03407FEBA
:100BC40090056712288D900551F0A3EFF090054D24
:100BD400E0FFA3E0900553CFF0A3EFF0900565028A
:100BE4000CF590050B122883900514E09FFF9005E7
:100BF40013E09E900515F0A3EFF0900511E0FFA31C
:100C0400E0900517CFF0A3EFF0900509E4F0A3F00E
:100C140090052D122883900536E09FFF900535E05E
:100C24009E900537F0A3EFF0900533E0FFA3E0902A
:100C34000539CFF0A3EFF090052BE4F0A3F0900575
:100C44004F122883900558E09FFF900557E09E902F
:100C54000559F0A3EFF0900555E0FFA3E090055B84
:100C6400CFF0A3EFF090054D020CF5900513122878
:100C74008390051CE09FFF90051BE09E90051DF0EE
:100C8400A3EFF0900519E0FFA3E090051FCFF0A3B8
:100C9400EFF0900511E4F0A3F0900535122883904D
:100CA400053EE09FFF90053DE09E90053FF0A3EFD9
:100CB400F090053BE0FFA3E0900541CFF0A3EFF0F7
:100CC400900533E4F0A3F090055712288390056053
:100CD400E09FFF90055FE09E900561F0A3EFF09028
:100CE400055DE0FFA3E0900563CFF0A3EFF090056E
:100CF40055E4020D8690051B122883900524E09F7D
:100D0400FF900523E09E900525F0A3EFF0900521C8
:100D1400E0FFA3E0900527CFF0A3EFF0900519E4DE
:100D2400F0A3F090053D122883900546E09FFF90C4
:100D34000545E09E900547F0A3EFF0900543E0FFE2
:100D4400A3E0900549CFF0A3EFF090053BE4F0A3B6
:100D5400F090055F122883900568E09FFF90056777
:100D6400E09E900569F0A3EFF0900565E0FFA3E035
:100D740090056BCFF0A3EFF090055DE4F0A3F09045
:100D84000507F0A3F0900508E004F070069005074D
:100D9400E004F0900507E05407F0D0E0FFD0E0FE57
:100DA400D0E0FDD0E0FCD0E0F8D0D0D0A7D082D005
:0C0DB4008305A7D082D083D0F0D0E032BD
:0B18FE009005C4EBF0A3EAF0A3E9F0B2
:10190900A37401F01203C5FFE5F06003021AA1EF09
:10191900244D602124FD7003021A4924B660030294
:101929001AA1122877900002E4F5F0120447E47531
:10193900F0B31204281228779000021203F0C3941E
:1019490028E5F094004003D38001C340037F0022BF
:101959001228A82417F582E434051228C4FBCAEE1C
:10196900CAE41228A8240FF582E434051228C4FF1A
:10197900EF2BFBEE3AFAE433F9E4331228A7241FDC
:10198900F582E434051228C4FFE4FCFDEB2FFBEAE1
:101999003EFAED39F9EC381228A72427F582E43408
:1019A900051228C4FFEB2FFFEA3EFEED39FDEC38A6
:1019B900FC7812120574ECC0E0EDC0E0EEC0E0EF77
:1019C900C0E0900502E0FF75F022A42415F582E439
:1019D9003405F58375F02212286A240DF582E43462
:1019E900051228C42DFFEE3CFE900502E0FD75F0BE
:1019F90022A4241DF582E43405F583E0FAA3E02F3F
:101A0900FFEA3EFEED75F022A42425F582E43405B3
:101A1900F583E0FCA3E02FFFEC3ECBEFCBFAE4F932
:101A2900F8D0E0FFD0E0FED0E0FDD0E0FC1204B039
:101A3900900503120587122872E475F0B61204287E
:101A49009005C7E070037F0122E47FFF7EFFFDFC64
:101A5900900503E0F8A3E0F9A3E0FAA3E0FBD312B1
:101A690005505016900503E0FCA3E0FDA3E0FEA39A
:101A7900E0FF1228B1120587800A1228B1120593D6
:101A89000000FFFF900502E004F0E0C39403500357
:101A990002192BE4F002192B122872E4F5F0120452
:031AA900287F0390
:011AAC002217
:102F57005389F0438905758CFF758AFFD2A9D28CF6
:012F67002247
:102F3100D2ADE4F5C875CCFF75CDE775CAFF75CB89
:042F4100E7D2CA22E7
:101712004105740041057500410579124A057A00B8
:10172200000000000000000000060B0000000000A6
:091732000041058E0041058F0005
:10294300C2EDC2EFD2EDE49005C7F09005C4E0FB01
:10295300A3E0FAA3E0F9E422E49005CFF09005C8E0
:10296300E0FBA3E0FAA3E0F922EBF0A3EAF0A3E98A
:10297300F022F5F01204287F0322A37401F002036E
:10298300C5E49005CFF09005C822E49005CFF09000
:1029930005C8229005CEE0FF90056DE0C39F22E4B9
:0D29A300900594F0A322C3EF64809482227B
:102F0600D2EBE4900590F0A3F0900594F0A3F09036
:062F16000598F0A3F02273
:102EA900EF25E054FE900573F09005CCE090057491
:102EB900F09005D0E0900575F0A312296C90058E6D
:042EC9007401F0227E
:060DC0009005C412296C2D
:100DC60012297DFFAEF0E5F06003020FADEF1205CC
:100DD600D00E05000E0E440E2C4F0E43550E5F5ED0
:100DE6000E74690EAE700EC77D0EE5830F018B0F74
:100DF6001B930F569A0F7AA60F94AB00000FAD12F5
:100E0600294E75F04412042890058EE07002FF22E8
:100E1600E490058EF0D2EEC2EDD2EFD2ED12294A61
:100E260075F04F1204289005C7E070037F0122C2B7
:100E3600EF1229A212294D75F055120428120FB48B
:100E460050028001C350037F002290058FE060129C
:100E560012294375F05E1204289005C7E070527F90
:100E660001221229A212294D75F069120428900553
:100E7600CBE4F0A37400F0A3740BF0900574E0903B
:100E860005CEF07B017A05799412217E1229A950AC
:100E9600028001C350037F002290058FE060151287
:100EA600294375F0701204289005C7E070037F018E
:100EB60022020F5FC2EDD2EF12294775F07D1204B0
:100EC600289005C7E070037F0122C2EF900573E00A
:100ED6004401F01229A212294D75F083120428123A
:100EE6000FB450028001C350037F002290058FE0AB
:100EF600601412294375F08B1204289005C7E07020
:100F0600037F01228053E4900590F0A312294D75CA
:100F1600F0931204289005CB7401F0A37405F0A396
:100F26007484F0900575E09005CEF07B017A057922
:100F3600901223521229A950028001C350037F0048
:100F46002290058FE0602412294375F09A12042836
:100F56009005C7E070037F0122D2EFE490058FF081
:100F660012294EF5F01204287F002212294375F04B
:100F7600A61204289005C7E070037F0122D2EFE491
:100F8600900598F0A312294D75F0AB1204287B0149
:100F96007A0579981227E21229A950028001C340E6
:0D0FA60003020E057F002212294912297551
:100FB300229005CB7401F0A37405F0A37473F0A31E
:100FC3007401F0FB7A05799412217EC3EF64809457
:020FD300822278
:062352009005C812296C81
:102358009005CF12297EFFE5F06003022414EF24D4
:1023680040603024E470030223FD24DC600302246F
:1023780014E490056DF0122996400302240DE490B0
:10238800056FF0C2EEC2ED12298E12295175F0C008
:102398001204289005CFE070037F0122E490056EB7
:1023A800F0D2ED90056FE025E0FFA2ECE4334FF0AA
:1023B800C2ED90056EE004F0E0B408E590056FE02A
:1023C800FF9005CB12296390056DE0F582758300B7
:1023D800EF12038D90056DE004F0D2EE12299650AD
:1023E80004C2EF8002D2EFD2ED12298D1229517565
:1023F800F0DC1204289005CFE070037F0122C2EDC3
:10240800C2EE02237ED2EEE490058FF012298D12DF
:05241800295112297595
:01241D00229C
:06217E009005C812296C57
:102184009005CF12297E1205F621A5000021E60054
:10219400F4220B00FC222F0103224501050000223A
:1021A40071D2EEE4900570F09005CEE0FF900570DA
:1021B400E0C39F400302226C9005CB122963900573
:1021C40070E0F582758300120360900572F090054B
:1021D40070E004F0C2ED12298412295175F0F41252
:1021E40004289005CFE070037F0122E4900571F08C
:1021F400900572E025E0F092EFD2ED1229841229C5
:102204005175F0FC1204289005CFE070037F012281
:10221400C2ED900571E004F0E0B408D4C2EEC2ED62
:1022240012295B740175F0031204289005CFE07045
:10223400037F0122D2ED12295B740175F0051204AB
:10224400289005CFE070037F0122C2EDD2EE20EC8E
:10225400030221AC90058F7401F09005C812295136
:10226400F5F01204287F0222E490058FF0122984ED
:0622740012295112297528
:01227A002241
:0627E2009005C812296CED
:1027E80012297DAEF0705DEE705A7E057F847D09FA
:1027F800122ECD90058DE06F7046900584E0FCA305
:10280800E0FDA3E0FEA3E0FF90038C12058790058E
:1028180088E0FEA3E0FFE4FCFD9003A51205879085
:10282800058AE0FEA3E0FFE4FCFD9003BE120587E5
:10283800900269E0FF90058CE0FEEF4E900269F08F
:10284800E4780BF6E49005CBF09005C812295112F4
:022858002975E0
:01285A00225B
:0525A0009005C8EFF0FA
:1025A5009005CD120593000000009005C9E0FCA33D
:1025B500E0FDA3E0FEA3E0FFE41202A19005C8E060
:1025C50075F019A42482F582E5F03402F583E0F86C
:1025D500A3E0F9A3E0FAA3E0FB12012E9005C8E001
:1025E50075F019A42486F582E5F03402F583E0F848
:1025F500A3E0F9A3E0FAA3E0FB12003D9005CD129C
:1026050005877FFF7EFF7D7F7C4B9005CDE0F8A39E
:10261500E0F9A3E0FAA3E0FB120234600A40087473
:10262500FFFFFEFD7C0022E4FFFEFDFC9005CDE0F2
:10263500F8A3E0F9A3E0FAA3E0FB1202345006E4A4
:10264500FFFEFDFC229005CDE0FCA3E0FDA3E0FE2E
:06265500A3E0FF1202DF0A
:01265B00225C
:102D1300E49005C4F0F09005C4E0FFC3940E503076
:102D2300EF75F019A42481F9740235F0FA7B01E000
:102D330075F003A42450FEE435F09005CBF0A3CE48
:102D4300F07D037C0012241E9005C4E004F080C6CD
:012D5300225D
:1028D3009005D0EFF0FBA3E0FCA3E0FDA3E0FEA393
:1028E300E0FF75F019EBA42482F582E5F03402F5DC
:1028F300831205879005D5E0FCA3E0FDA3E0FEA3CA
:10290300E0FF75F019EBA42486F582E5F03402F5B7
:1029130083120587EB75F019A42481F9740235F04D
:10292300FA7B019005D0E075F003A42450FEE43552
:10293300F09005DEF0A3CEF07D037C001224E022AC
:10173B004105BF0041059C0041059D0041059E00F0
:102A1B00E49005C7F09005C4E0FBA3E0FAA3E0F94E
:102A2B0022E025E025E024A3F582E43405F583E0DC
:102A3B00FCA3E0FDA3E0FEA3E0FF229005BFE07541
:102A4B00F026A424F7F582E5F03403F583229005F4
:102A5B009EE025E025E0249FF582E43405229005D5
:102A6B00BFE075F019A422E0F8A3E0F9A3E0FAA304
:022A7B00E02257
:0B0FD5009005C4EBF0A3EAF0A3E9F0E4
:100FE000A37401F01203C5FFE5F060030211B6EF30
:100FF00024F0602C24F6607324F570030210B324EF
:10100000F47003021122243160030211B6122A2067
:10101000900002E4F5F0120447E475F01012042881
:10102000122A209000021203F0C3940AE5F0940003
:101030004003D38001C340037F0022122A46E070A0
:101040003D90059CF0122A46E0702990059CE064D2
:101050000860219005BFE0045407F090059CE0046F
:10106000F0122A1BE475F01A1204289005C7E070EC
:10107000D47F012290059CE0B408030211AA9005D8
:10108000BFE075F026A424D2F9740335F0FA7B0191
:10109000EAC0E0E9C0E0789F7C057D01D0E0F9D0AE
:1010A000E0FA7E007F201206E3122A1BE475F02589
:1010B0001204289005C7E070037F012290059D74FB
:1010C00007F0E490059EF090059DE0FFA3E0C39F2C
:1010D0005062122A2C122A59F583122A72FBD3125B
:1010E00005504034122A59122A389005C01205873B
:1010F00090059E122A2C122A59F583120587900515
:10110000C0122A3A90059EE025E025E024A3F5824E
:10111000E43405F583120587122A1BE475F03112B9
:1011200004289005C7E070037F012290059EE0042B
:10113000F00210C790059DE014F0E070859005AFB7
:10114000122A3A9005AB122A722FFFEA3EFEE93DC1
:10115000FDE83CFC7801120561122A692479F582C8
:10116000E5F03402F583120587122A692481F5829D
:10117000E5F03402F583E0602C122A692479F582C7
:10118000E5F03402122A389005C91205879005BF90
:10119000E0FF1225A0122A69247DF582E5F03402D1
:1011A000F583120587122A46E4F0122A20E4F5F0AE
:1011B0001204287F0022122A1BE4F5F01204287F73
:0111C000032B
:0111C100220B
:102F680053890F438910758D8A758BD0D2ABD28E59
:012F78002236
:1000360002034BE86480F8E933E83360110460F0AA
:10004600ED33EC337009E8FCE9FDEAFEEBFF220430
:1000560060DED3EB9FEA9EE99DE8C2E78CF0C2F72B
:1000660095F0400CE8CCF8E9CDF9EACEFAEBCFFBF7
:1000760012031685D0F05804700320D5B3E8047037
:10008600075002B2D502035592D5EC0460F7E4CCD2
:10009600C0E0C398F8603B94186008400DD0E0FBC0
:1000A60002032DE4FBFAC9FC8028E830E406E4C923
:1000B600FBE4CAFCE830E305E4C9CACBFCE8540714
:1000C6006010F8C3E913F9EA13FAEB13FBEC13FC1F
:1000D600D8F130F52FC3E49CFCEF9BFFEE9AFEEDC2
:1000E60099FDD0E0FBEF4E4D4C701222DB0302036C
:1000F60052EC2CFCEF33FFEE33FEED33FDED30E733
:10010600EB02032DEF2BFFEE3AFEED39FDD0E0FBBF
:1001160050130BBB0003020355ED13FDEE13FEEF68
:0801260013FFEC13FC02032D92
:10012E00EC4D6011E8497017ED33EC3304600DE4CB
:10013E00FCFFFEFD22E933E8330470F802034B1294
:10014E00031658046009E4CC248150062850090295
:10015E000355284003020352C0E0EB4A7044B980B5
:10016E0006D0E0FB020341EF4E701CBD8008EBFF92
:10017E00EAFEE9FD80EBE98DF0A4FEE5F002021740
:10018E00E9CDF9EAFEEBFFEF89F0A4FCE5F0CE89AC
:10019E00F0A42EFFE435F0CD89F0A42DFEE435F069
:1001AE008067EF4E7005BD80D780C3EF8BF0A4AC97
:1001BE00F0EE8BF0A42CFCE435F0F8EF8AF0A42CD2
:1001CE00E5F038FCE433CB8DF0A42CFCE5F03BF8E5
:1001DE00EE8AF0A42CFCE5F038F8E433CF89F0A4D5
:1001EE002CFCE5F038CF3400CE89F0A42FFFE5F0DB
:1001FE003EFEE433C98DF0A42EFEE5F039CD8AF033
:10020E00A42FFFE5F03EFEE43DFD33D0E0FB5007AA
:10021E000BBB000F020355EC2CFCEF33FFEE33FE4D
:06022E00ED33FD02032D7B
:1002340074F8CC6480CCC86480C8F582046043C37D
:10024400EB9FF5F0EA9E42F0E99D42F0E89C45F010
:1002540060305018E5825FFFE582F42B5582FB5035
:10026400210ABA001D09B90019088016E5825BFB52
:10027400E582F42F5582FF50090EBE00050DBD0026
:10028400010CC3EB9FF5F0EA9E42F0E99D42F0E8D1
:0D0294009C45F06007CC4820E701B3EC2248
:1002A10075F020800E75F010800575F0087D007ED8
:1002B100007F003392D530D503120542EC33401054
:1002C100EF33FFEE33FEED33FDEC33FCD5F0ED22E1
:0E02D100E5F0247EA2D513CC92E7CDCEFF221D
:1002DF00EDD2E7CD33EC3392D524814006E4FFFE17
:1002EF00FDFC22FCE4CFCECDCC24E0501174FF8076
:1002FF00EDC3CC13CCCD13CDCE13CECF13CF047013
:07030F00F030D5DE020542CB
:10031600E9D2E7C933E833F892D5EDD2E7CD33EC2D
:0703260033FC5002B2D522A6
:10032D00EC30E7100FBF000C0EBE00080DBD000431
:10033D000BEB6014A2D5EB13FCED92E7FD2274FFDD
:10034D00FCFDFEFF22E480F8A2D574FF13FC7D8036
:03035D00E480EF4A
:10266B00022769E493A3F8E493A34003F68001F2F5
:10267B0008DFF48029E493A3F85407240CC8C33370
:10268B00C4540F4420C8834004F456800146F6DF3F
:10269B00E4800B0102040810204080901584E47E36
:1026AB00019360BCA3FF543F30E509541FFEE49334
:1026BB00A360010ECF54C025E060A840B8E493A3FB
:1026CB00FAE493A3F8E493A3C8C582C8CAC583CA26
:1026DB00F0A3C8C582C8CAC583CADFE9DEE780BEDE
:01174B00009D
:10036000BB010CE58229F582E5833AF583E0225052
:1003700006E92582F8E622BBFE06E92582F8E2229C
:0D038000E58229F582E5833AF583E49322B6
:10038D00F8BB010DE58229F582E5833AF583E8F0A6
:10039D00225006E92582C8F622BBFE05E92582C852
:0203AD00F2223A
:1003AF00C5F0F8A3E028F0C5F0F8E58215827002D9
:0603BF001583E038F02276
:1003C500BB010A89828A83E0F5F0A3E02250068703
:1003D500F009E71922BBFE07E3F5F009E3192289C5
:0B03E500828A83E493F5F074019322F8
:1003F000BB0110E58229F582E5833AF583E0F5F04B
:10040000A3E0225009E92582F886F008E622BBFE27
:100410000AE92582F8E2F5F008E222E5832AF5836D
:08042000E993F5F0A3E9932232
:10042800BB010A89828A83F0E5F0A3F0225006F71F
:0F04380009A7F01922BBFE06F3E5F009F319221C
:10044700F8BB0111E58229F582E5833AF583E8F0E7
:10045700E5F0A3F0225009E92582C8F608A6F022A4
:0D046700BBFE09E92582C8F2E5F008F2228B
:1004740075F008758200EF2FFFEE33FECD33CDCC3F
:1004840033CCC58233C5829BED9AEC99E5829840C2
:100494000CF582EE9BFEED9AFDEC99FC0FD5F0D69F
:1004A400E4CEFBE4CDFAE4CCF9A88222B800C1B9C9
:1004B4000059BA002DEC8BF084CFCECDFCE5F0CB07
:1004C400F97818EF2FFFEE33FEED33FDEC33FCEB40
:1004D40033FB10D703994004EB99FB0FD8E5E4F9FB
:1004E400FA227818EF2FFFEE33FEED33FDEC33FCE8
:1004F400C933C910D7059BE99A4007EC9BFCE99ADC
:10050400F90FD8E0E4C9FAE4CCFB2275F010EF2F20
:10051400FFEE33FEED33FDCC33CCC833C810D70720
:100524009BEC9AE899400AED9BFDEC9AFCE899F85B
:0E0534000FD5F0DAE4CDFBE4CCFAE4C8F922EE
:102CCF00C2D5E830E70FB2D5E4C39BFBE49AFAE430
:102CDF0099F9E498F8EC30E717B2D5122D051204E4
:102CEF00B0E4C39BFBE49AFAE499F9E498F8800303
:102CFF001204B030D50DE4C39FFFE49EFEE49DFDAA
:042D0F00E49CFC2222
:0E054200C3E49FFFE49EFEE49DFDE49CFC22CA
:10055000EB9FF5F0EA9E42F0E99D42F0E89C45F001
:010560002278
:10056100E8600FECC313FCED13FDEE13FEEF13FF78
:03057100D8F1229C
:10057400E8600FEFC333FFEE33FEED33FDEC33FCE5
:03058400D8F12289
:0C058700ECF0A3EDF0A3EEF0A3EFF022E7
:10059300A8828583F0D083D0821205AA1205AA12FD
:1005A30005AA1205AAE473E493A3C583C5F0C58322
:1005B300C8C582C8F0A3C583C5F0C583C8C582C8B2
:0105C3002215
:0C05C400A42582F582E5F03583F5832242
:1005D000D083D082F8E4937012740193700DA3A3BA
:1005E00093F8740193F5828883E4737402936860CE
:0605F000EFA3A3A380DFCE
:1005F600D083D082F8E4937012740193700DA3A394
:1006060093F8740193F5828883E473740293B5F0CA
:0D061600067403936860E9A3A3A3A380D832
:10062300E709F608DFFA8046E709F208DFFA803EB9
:1006330088828C83E709F0A3DFFA8032E309F608A6
:10064300DFFA8070E309F208DFFA806888828C831E
:10065300E309F0A3DFFA805C89828A83E0A3F608CA
:10066300DFFA805089828A83E0A3F208DFFA8044AC
:1006730080D280FA80C680D4805980F2802B80108B
:1006830080A680EA809A80A880DA80E280CA802BE4
:1006930089828A8305A788828C8375A754E493F0A3
:1006A300DFFBDEF975A700800B89828A83E493A3BD
:1006B300F608DFF9ECFAA9F0EDFB2289828A8305BB
:1006C300A788828C8375A754E0F0DFFCDEFA75A758
:1006D3000080E189828A83E493A3F208DFF980D45E
:1006E30088F0EF60010E4E60CB88F0ED2402B40475
:1006F3000050C1F582EB2402B4040050B723234514
:06070300822390067373CF
:00000001FF
