:102DD0009005CCF0A3F0A37405F0A37484F0A37461
:102DE0000AF07B007A00790B7F58229005C4E0FB43
:072DF000A3E0FAA3E0F922C1
:10264000C2AF53D7F9121338122A29122EB6122DFF
:102650004F122E93122E3E7F42122EEB122E541248
:102660002C61E49005E2F0A3F09005E6F0A3F09071
:1026700005EAF0A3F09005EEF0A3F0D2AF780BF6E8
:1026800004122DD0122DF77B017A02796C121A40B8
:102690007B017A0579E21228FE7B017A0579E61240
:1026A00018917B017A0579EA120F687B017A057926
:0926B000EE120D53122EE180CE52
:0B28FE009005C4EBF0A3EAF0A3E9F0A2
:10290900A37401F0120358FFAEF0E5F07041EF2413
:10291900AF601724517038122DEB900002E4F5F0E6
:102929001203DAE475F0511203BB122DEB90000289
:10293900120383C3940FE5F094004003D38001C3CD
:1029490040037F00227401122DD0122DF780C8E4B4
:0F2959009005C7F0122DEBE4F5F01203BB7F03DE
:01296800224C
:03001B000229CBEC
:1029CB00C0E0C083C08205A7C083C082C0A775A723
:1029DB0000758D8A758BD09005E5E004F07006903C
:1029EB0005E4E004F09005E9E004F070069005E8DA
:1029FB00E004F09005EDE004F070069005ECE004C7
:102A0B00F090026FE004F0700690026EE004F0D0DC
:0E2A1B00A7D082D08305A7D082D083D0E0322E
:102E9300759E82759D2D759852D2ACC299C298D2F7
:022EA300BC224F
:102CA200E5E6540775F026A424F2F582E5F0340334
:102CB200F58322F0E5E6540775F026A422E5E654F2
:102CC2000775F019A42275F00402055724F7F5825E
:0F2CD200E5F03403F58322E4F075F026EFA42239
:102D4F0075D10075D20075E60043D28043D220437F
:102D5F00D207122D1C7F03122EF37F647E00122EDA
:0D2D6F006A53E6F043E640D2AE43D1202285
:03003300021DF9B2
:101DF900C0E0C0F0C083C08205A7C083C082C0A76D
:101E090075A700C0D0EFC0E0122CB624D2F582E548
:101E1900F03403F583C083C082122CA2E0D082D0B3
:101E290083122CC8E4122CB524D3F582E5F03403CF
:101E3900F583C083C082122CA2E0D082D083122CF9
:101E4900C8E5DB122CB524D4F582E5F03403F5831B
:101E5900C083C082122CA2E0D082D083122CC8E5A4
:101E6900DA122CB524D5F582E5F03403F583C08365
:101E7900C082122CA2E0D082D083122CC8E5D9F0FE
:101E8900122CA2E0045407FF122CA2EF122CB51257
:101E99002CCE7401F053D1DF8011122CBF2474F5BC
:101EA90082E5F03402F583E0B4FF0FE5E604540758
:101EB900FFE5E654F04FF5E680E0122CBF2477F5F4
:101EC90082E5F03402F583E064075407FFE5D25454
:101ED900F84FF5D2122CBF2478F582E5F03402F5DB
:101EE90083E0F5D443D120C2DFD0E0FFD0D0D0A722
:0F1EF900D082D08305A7D082D083D0F0D0E03242
:072EF30053D1F8EF42D12298
:102E6A00CBEFCBCAEECAE4F9F87F557E05FDFC121A
:052E7A002C1D8FD42285
:102D1C00E4FF75F026EF122CA9122CD924F5F582BC
:102D2C00E5F03403F583122CD924F6F582E5F03462
:102D3C0003F5837420122CDA122CCEE4F00FEFB4CE
:022D4C0008D0AD
:012D4E002262
:0A2ED700E0FEA3E0FF8EC78FC622C5
:082473009005DCECF0A3EDF094
:10247B00E49005E0F0A3F09005DCE0FEA3E0FF9014
:10248B0005DFE02F9005DEE03EC394044004E4FE3C
:10249B00FF22E49005E0F0A3F09005DCE0FEA3E062
:1024AB00FFC39005E1E09F9005E0E09E5071E0FED8
:1024BB00A3E07802C333CE33CED8F9FFF5828E83F7
:1024CB001202F3F5BC8F828E83A31202F3F5BD903B
:1024DB0005E0E0FEA3E07802C333CE33CED8F9FF9C
:1024EB00F5828E83A3A31202F3F5BE8F828E83A394
:1024FB00A3A31202F3F5BF9005DE122ED775B90513
:10250B0075B902E004F070069005DEE004F090056A
:10251B00E1E004F070839005E0E004F00224A49065
:07252B0005E0E0FEA3E0FF64
:012532002286
:0823B1009005C9ECF0A3EDF06A
:1023B900E49005CDF0A3F09005C9E0FEA3E0FF90FD
:1023C90005CCE02F9005CBE03EC394044004E4FE25
:1023D900FF22E49005CDF0A3F09005C9E0FEA3E04B
:1023E900FFC39005CEE09F9005CDE09E5073900508
:1023F900CB122ED775B901A3E0FCA3E0FDCEECCE3C
:102409007802C333CE33CED8F9FFF5828E83E5BC8B
:102419001203208F828E83A3E5BD120320EDCEEC3B
:10242900CE7802C333CE33CED8F9FFF5828E83A39B
:10243900A3E5BE1203208F828E83A3A3A3E5BF1257
:1024490003209005CCE004F070069005CBE004F081
:102459009005CEE004F070819005CDE004F00223F0
:09246900E29005CDE0FEA3E0FFC6
:012472002247
:082EEB008F0AD2C0850AC02243
:0A2EE100C2AFD2C0850AC0D2AF22F2
:1020110000BC01BD02BE03BF04B805B906BA07BBC7
:1020210008B409B50AB60BB70CB00DB10EB20FB3B7
:1020310010AC11AD12AE13AF14A815A916AA17ABA7
:1020410018A419A51AA61BA71CA01DA11EA21FA397
:10205100209C219D229E239F24982599269A279B87
:10206100289429952A962B972C902D912E922F9377
:10207100308C318D328E338F34883589368A378B67
:10208100388439853A863B873C803D813E823F8357
:1020910040FC41FD42FE43FF44F845F946FA47FB47
:1020A10048F449F54AF64BF74CF04DF14EF24FF337
:1020B10050EC51ED52EE53EF54E855E956EA57EB27
:1020C10058E459E55AE65BE75CE05DE15EE25FE317
:1020D10060DC61DD62DE63DF64D865D966DA67DB07
:1020E10068D469D56AD66BD76CD06DD16ED26FD3F7
:1020F10070CC71CD72CE73CF74C875C976CA77CBE7
:1021010078C479C57AC67BC77CC07DC17EC27FC3D6
:101517005400013C3C7555534F5F323E3E0000007E
:1015270000000000000000602800153C2D2D20471A
:10153700454F5350484552415F32303132202D2DAF
:101547003E00000000000000000000000000000056
:1015570000000048003D30303030310000004100CD
:101567004501410046144100470041004C00610E0F
:10157700004D000000000000000000000000000017
:101587000000000000000000000000000000000054
:101597000000000000000000000000000000000044
:1015A7000000000000000000000000000000000034
:1015B7000000000000000000000000000000000024
:1015C7000000000000000000000000000000000014
:1015D7000000000000000000000000000000000004
:1015E70000000000000000000000000000000000F4
:1015F70000000000000000000000000000000000E4
:1016070000000000000000000000000000000000D3
:1016170000000000000000000000000000000000C3
:1016270000000000000000000000000000000000B3
:1016370000000000000000000000000000000000A3
:101647000000000000000000000000000000000093
:101657000000000000000000000000000000000083
:101667000000000000000000000000000000000073
:101677000000000000000000000000000000000063
:10168700410269C041026AFF41026B00410000004C
:030023000216DFE3
:1016DF00C0E0C083C08205A7C083C082C0A775A722
:1016EF0000C0D0EEC0E0EFC0E0C2AF2098030218F8
:1016FF0010C298900048E0D3940E74809481400AF1
:10170F0090026CE4F0A3F002187A90026AE599F067
:10171F00E0606524D76029245260030217AE90025F
:10172F006AE0FF900048E0244DF582E43400F58331
:10173F00EFF0900048E004F090004B7401F0807ED1
:10174F0090004BE0B4011590004DE4F0A374D7F076
:10175F00A37429F09000487403F0805D90026AE052
:10176F00FF900048E0244DF582E43400F583EFF05C
:10177F00900048E004F0804190004BE0B40104E495
:10178F00F0803B90026AE0FF900048E0244DF58224
:10179F00E43400F583EFF0900048E004F0801F90F0
:1017AF00026AE0FF900048E0244DF582E43400F532
:1017BF0083EFF0900048E004F090004BE4F09000CD
:1017CF0048E0D39406402490004CE02406FFE43315
:1017DF00FE900048E06F7001EE702690004704F015
:1017EF00C2ACC29C90004BE4F08016900048E0B46D
:1017FF00060FE0244CF582E43400F583E090004CB2
:10180F00F0309965C29990004AE0FF900049E0C31B
:10181F009F5047E0C394035002802090004BE0702C
:10182F002F900049E0245BF582E43401F583E0B4A6
:10183F00D70690004B7401F0900049E0245BF582CD
:10184F00E43401F583E0F599900049E004F0801944
:10185F0075990090004BE4F0800F900049E4F090F0
:10186F00004BF090026CF0A3F0D2AFD0E0FFD0E0CD
:10187F00FED0D0D0A7D082D08305A7D082D083D07E
:02188F00E03245
:102A2900E4FFC299C29812220EE4900048F0A3F084
:102A3900A3F0C2B5A3F090026974C0F0E490026BF0
:102A4900F0FF75F019EFA42474F582E5F03402F56E
:102A590083E0F4601C90026BE0FE75F019EFA4248A
:102A690074F582E5F03402F583EEF090026BE00430
:0D2A7900F00FEFB40ECCE490026CF0A3F06F
:012A8600222D
:10115500E49005C8F090015BF0A374D7F0A374295F
:10116500F0900045E090015EF0A37402F0900269F2
:10117500E0900161F0E49005C8F09005C8E0C394E3
:1011850014501DE02401F582E43400F583E0FF905E
:1011950005C8E02462F582E43401F583EFF0800FA1
:1011A5009005C8E02462F582E43401F583E4F0900B
:1011B50005C8E004F0E0B414C1E49005C8F090055A
:1011C500C8E0C39408501BE0243DF582E43400F5E3
:1011D50083E0FF9005C8E02476F582E43401F583C9
:1011E500EFF09005C8E004F0E0B405D290026BE0A2
:1011F50090017BF0E49005C8F09005C8E075F01902
:10120500A42474F582E5F03402F583E0F46072906D
:1012150005C8E075F019A42475F582E5F03402F5EA
:1012250083E0C454F0FF9005C8E075F019A4247656
:10123500F582E5F03402F583E04FFF9005C8E075CF
:10124500F019A42474F582E5F03402F583E075F015
:1012550002A4247CF582E5F03401F583EFF09005D6
:10126500C8E075F019A42474F582E5F03402F5831D
:10127500E075F002A4247DF582E5F03401F583E400
:10128500F09005C8E004F0E0640E60030211FEE48E
:101295009005C8F0900046E0FF9005C8E0C39F5058
:1012A50037E02415F582E43400F583E0FF9005C8A6
:1012B500E0FE90026BE075F002A42EF582E435F0B5
:1012C500F583E582247CF582E5833401F583EFF02F
:1012D5009005C8E004F080BC90026BE025E0241C7A
:1012E500FF900046E02F900160F07E017F5C900248
:1012F5006BE025E02420FD900046E02DFD122E1B1D
:10130500900046E0FE90026BE075F002A42EF58297
:10131500E435F0F583E582247CF582E5833401F537
:1013250083EFF090026BE025E02422FF900046E079
:021335002FFF88
:011337002293
:030006007F002256
:03000E007F00224E
:030016007F002246
:101B8800E4FF9005C8F0FEFD900052E014FCEFC39E
:101B98009C4003021CC074532FF582E43400F58383
:101BA800E0FC90026BE0FBECC39B4003021CBC749E
:101BB800542FF582E43400F583E0FCC4540F60032D
:101BC800021CB5E4FE74532FF582E43400F583E07B
:101BD800FC75F019EEA42474F582E5F03402F5835F
:101BE800E06C7005CDEECD80050EEEB40ED77454C2
:101BF8002FF582E43400F583E0FC75F019EDA42498
:101C080076F582E5F03402F583E06C703E74552F6A
:101C1800F582E43400F583E0FC75F019EDA424772F
:101C2800F582E5F03402F583E06C701F74562FF5E9
:101C380082E43400F583E0FC75F019EDA42478F50E
:101C480082E5F03402F583E06C605F74552FF5820D
:101C5800E43400F583E0FC75F019EDA42477F582EF
:101C6800E5F03402F583ECF074562FF582E4340085
:101C7800F583E0FC75F019EDA42478F582E5F034DD
:101C880002F583ECF074542FF582E43400F583E018
:101C9800540FFC75F019EDA42476F582E5F03402B2
:101CA800F583ECF09005C87401F00F8001000F0F68
:101CB8000F021B907F01800B9005C8E06003122D76
:061CC8007CE4FF122B92E8
:011CCE0022F3
:03001E007F00223E
:030026007F002236
:03002E007F00222E
:032EFA007F002234
:102EC7009002697440F0780B7612E4FF122B92227D
:10069C00E4F508F50990015BF0A374D7F0A3742975
:1006AC00F0900045E090015EF0A37415F0900269A3
:1006BC00E0900161F0750807E4F50975F019E5099A
:1006CC00A42474F582E5F03402F583E0FFF47003A2
:1006DC00020A77AE080508745B2EF582E43401F546
:1006EC0083EFF075F019E509A42475F582E5F03473
:1006FC0002F583E0C454F0FF75F019E509A42476E3
:10070C00F582E5F03402F583E04FFFAE080508747E
:10071C005B2EF582E43401F583EFF075F019E509F1
:10072C00A42475F582E5F03402F583E0147003021D
:10073C0008F41470030209A324026003020A7775FB
:10074C00F019E509A42476F582E5F03402F583E08E
:10075C0024FD70030207F524036003020A7775F089
:10076C0019E509A42481F582E5F03402F583E064EF
:10077C000175F019702FE509A4247FF582E5F0349A
:10078C0002F583E0FFAE080508745B2EF582E434B5
:10079C0001F583EFF075F019E509A4247EF582E5E7
:1007AC00F03402802DE509A4247BF582E5F03402B7
:1007BC00F583E0FFAE080508745B2EF582E4340186
:1007CC00F583EFF075F019E509A4247AF582E5F0CC
:1007DC003402F583E0FFAE080508745B2EF582E465
:1007EC003401F583EFF00208C175F019E509A42472
:1007FC0081F582E5F03402F583E0640175F019703F
:10080C0051E509A42480F582E5F03402F583E0FF7C
:10081C00AE080508745B2EF582E43401F583EFF025
:10082C0075F019E509A4247FF582E5F03402F5830F
:10083C00E0FFAE080508745B2EF582E43401F58305
:10084C00EFF075F019E509A4247EF582E5F0340289
:10085C00804FE509A4247CF582E5F03402F583E0B1
:10086C00FFAE080508745B2EF582E43401F583EFC6
:10087C00F075F019E509A4247BF582E5F03402F556
:10088C0083E0FFAE080508745B2EF582E43401F5B5
:10089C0083EFF075F019E509A4247AF582E5F034BC
:1008AC0002F583E0FFAE080508745B2EF582E43494
:1008BC0001F583EFF075F019E509A42477F582E5CD
:1008CC00F03402F583E0FFAE080508745B2EF58268
:1008DC00E43401F583EFF075F019E509A42478F5FB
:1008EC0082E5F03402020A6375F019E509A4247656
:1008FC00F582E5F03402F583E06003020A7775F0C7
:10090C0019E509A4247CF582E5F03402F583E0FFB7
:10091C00AE080508745B2EF582E43401F583EFF024
:10092C0075F019E509A4247BF582E5F03402F58312
:10093C00E0FFAE080508745B2EF582E43401F58304
:10094C00EFF075F019E509A4247AF582E5F034028C
:10095C00F583E0FFAE080508745B2EF582E43401E4
:10096C00F583EFF075F019E509A42479F582E5F02B
:10097C003402F583E0FFAE080508745B2EF582E4C3
:10098C003401F583EFF075F019E509A42477F582AD
:10099C00E5F03402020A6375F019E509A42476F532
:1009AC0082E5F03402F583E014605A046003020A15
:1009BC007775F019E509A4247CF582E5F03402F58D
:1009CC0083E0FFAE080508745B2EF582E43401F574
:1009DC0083EFF075F019E509A4247BF582E5F0347A
:1009EC0002F583E0FFAE080508745B2EF582E43453
:1009FC0001F583EFF075F019E509A42477F582E58C
:100A0C00F03402805275F019E509A4247CF582E5D6
:100A1C00F03402F583E0FFAE080508745B2EF58216
:100A2C00E43401F583EFF075F019E509A4247BF5A6
:100A3C0082E5F03402F583E0FFAE080508745B2E06
:100A4C00F582E43401F583EFF075F019E509A4247F
:100A5C0077F582E5F03402F583E0FFAE0805087403
:100A6C005B2EF582E43401F583EFF00509E50964AA
:100A7C000E60030206C7E50824FB900160F07E01BE
:100A8C007F5CE50814FD122E1B745B2508F582E4CF
:0A0A9C003401F583EFF0E50804FFD4
:010AA600222D
:101F0800900058E0900270F0900057E0900271F055
:101F1800900056E0900272F0900055E0900273F045
:101F2800900270E0FCA3E0FDA3E0FEA3E0FF9005B3
:101F3800C812051A90005CE0900270F090005BE017
:101F4800900271F090005AE0900272F0900059E00F
:101F5800900273F0900270E0FCA3E0FDA3E0FEA302
:101F6800E0FF9005CC12051A900054E014603C1470
:101F7800604E2402600302200A9005C8E0FCA3E03A
:101F8800FDA3E0FEA3E0FF9005D112051A9005CC51
:101F9800E0FCA3E0FDA3E0FEA3E0FF9005D5120559
:101FA8001A900053E0FF1228218058900053E075E2
:101FB800F019A42481F582E5F03402F583E4801455
:101FC800900053E075F019A42481F582E5F03402FD
:101FD800F5837401F0900053E075F019A42481F999
:101FE800740235F0FA7B01E075F003A42450FEE496
:101FF80035F09005DEF0A3CEF07D037C001224734B
:08200800800100E4FF122B929D
:0120100022AD
:102CE100900052E024E5FE602DA3E0FF9005CC7436
:102CF10001F0A37400F0A37468F0A37401F0A3744D
:102D010000F0A3746DF0A3EEF07B017A0079541208
:0B2D11001CCFE4FF80027F09022B9220
:102B9200E490015BF0A374D7F0A37429F090004590
:102BA200E090015EF0900051E0900162F090015FD0
:102BB20074FFF0900269E0900161F0900163EFF020
:102BC2009001607404F07E017F5B7D09122E1B90E0
:072BD2000164EFF07F0A220D
:1025C200900051E012056325F40125F90325FE056B
:1025D200260307260809260D0A26120C26170E26A0
:1025E2001C102621122626142630CA262BCD0000C6
:1025F20026351211558041120006803C12000E80D1
:10260200371200168032121B88802D12001E80287D
:10261200120026802312002E801E122EFA8019121A
:102622002EC7801412069C800F122CE1800A121F02
:0E2632000880057F06122B9290004AEFF022DE
:0B1A40009005C4EBF0A3EAF0A3E9F06E
:101A4B00A37401F01203581205891A6900001A8752
:101A5B0002BB1AE202C91B4902DB00001B6FE490B8
:101A6B000048F0D29CC2B5D2AC9005C4E0FBA3E019
:101A7B00FAA3E0F9740275F0BB1203BB900047E0C8
:101A8B007002FF22E4900047F0900045E0FF9000C9
:101A9B0050E06F60028052900048E0244CF582E4E5
:101AAB003400F583E0900000F07E007F4D900048FD
:101ABB00E014FD122E1B900000E06F6002802AE400
:101ACB009005C7F09005C4E0FBA3E0FAA3E0F9741E
:101ADB000275F0C91203BB9005C7E070037F0122AA
:101AEB001225C290004AE070149005C4E0FBA3E0FD
:101AFB00FAA3E0F9E4F5F01203BB7F0022D2B5C2E2
:101B0B009CE4900049F090004BF0900049E0245B7E
:101B1B00F582E43401F583E0F599900049E004F097
:101B2B00D2AC9005C4E0FBA3E0FAA3E0F99000026D
:101B3B00E4F5F01203DA740275F0DB1203BB9005C7
:101B4B00C4E0FBA3E0FAA3E0F9900002120383C305
:101B5B00940AE5F094004003D38001C35003021AAA
:101B6B00697F0022E49005C7F09005C4E0FBA3E079
:0C1B7B00FAA3E0F9E4F5F01203BB7F03CD
:011B8700223B
:102E1B00E4FCCBEDCB1DEB60160FEFCAEECA7001D5
:102E2B000E14F5828A83E06C90201193FC80E3CF23
:022E3B00ECCFDA
:012E3D002272
:0E1CCF009005C8EFF0A3EBF0A3EAF0A3E9F054
:101CDD00E49005D3F0A3F07B017A0579C89005DE79
:101CED00F0A3742AF07D017C001224739005C9E0E5
:101CFD00FBA3E0FAA3E0F99005DEE4F0A3742BF06A
:101D0D007D057C001224737A00790178017C007DB9
:101D1D00019005C9E0FBA3E0FAA3E0F97E007F1472
:101D2D001206769005CCE0FBA3E0FAA3E0F990054E
:101D3D00DEE4F0A37430F07D027C001224737A008F
:101D4D00793D783D7C007D019005CCE0FBA3E0FA68
:101D5D00A3E0F97E007F081206769005D2E0FF130E
:101D6D0013543FFDA3E4F0A3EDF0EF54FC600BE042
:101D7D0004F070069005D3E004F0D39005D4E09400
:101D8D000A9005D3E094004006E4F0A3740AF090A5
:101D9D0005CFE0FBA3E0FAA3E0F99005D3E0FCA3A7
:101DAD00E0FD9005DEE4F0A37433F012247390058A
:101DBD00D2E0900046F07B017A0579D29005DEE401
:101DCD00F0A37432F07D017C001224739005D2E0F3
:101DDD00FF7E007A00791578157C007D019005CF86
:0B1DED00E0FBA3E0FAA3E0F912067689
:011DF80022C8
:10220E00E49005C4F0A3F07B017A0079459005CBEC
:10221E00F0A3742AF07D017C001223B1900045E0FA
:10222E00C394014006E0D3940F400690004574011C
:10223E00F07B017A0079019005CBE4F0A3742BF0CA
:10224E007D057C001223B17B017A00793D9005CB90
:10225E00E4F0A37430F07D027C001223B17B017A8E
:10226E000079469005CBE4F0A37432F07D017C003A
:10227E001223B1900046E0D3942840037428F090C6
:10228E000046E0FF1313543FFF9005C4E4F0A3EFA4
:10229E00F0900046E054FC600E9005C5E004F0702E
:1022AE00069005C4E004F0D39005C5E0940A9005AD
:1022BE00C4E094004006E4F0A3740AF07B017A00B7
:1022CE0079159005C4E0FCA3E0FD9005CBE4F0A3E6
:0622DE007433F01223B17D
:0122E40022D7
:102BD900F0A37440F0A3741EF0227440F0A3740AA9
:102BE900F022EF75F019A42475F9740235F0FA7B17
:102BF90001E02410FEE4332274FFF0A37402F0A371
:102C090014F02274FFF0E4A3F022E4F0A37402F0BC
:042C1900E4A3F0221E
:10133800122DA6900275E0700990028EE0700302EB
:10134800142BE4900276122BD990027D1205260008
:10135800000000E4900281F090028F122BD99002D5
:101368009612052600000000E490029AF09002A868
:10137800122BD99002AF12052600000000E490025B
:10138800B3F09002C1122BD99002C81205260000B2
:101398000000E49002CCF09002DA122BD99002E11E
:1013A80012052600000000E49002E5F09002F31216
:1013B8002BD99002FA12052600000000E49002FEE4
:1013C800F090030C122BD99003131205260000008D
:1013D80000E4900317F0900325122BD990032C12E8
:1013E800052600000000E4900330F090033F122B24
:1013F800E3E4900349F0900358122BE3E49003626E
:10140800F0900371122BE3E490037BF090038A12AF
:101418002BE3E4900394F09003A3122BE39003BC16
:10142800122BE3E4900274F0A3F0900279120526DF
:1014380000000000E490028DF0A3F09002921205E3
:101448002600000000E49002A6F0A3F09002AB1280
:10145800052600000000E49002BFF0A3F09002C44B
:10146800120526000000009002D8122C0C9002DD14
:10147800120526000000009002F1122C0C9002F6D2
:101488001205260000000090030A122C0C90030F8E
:1014980012052600000000900323122C0C9003284C
:1014A8001205260000000090033C122C0190034115
:1014B80012052600000000900355122C0190035AD3
:1014C8001205260000000090036E122C0190037391
:1014D8001205260000000090038774FFF0A3740132
:1014E800F0E4A3F090038C1205268000800090039E
:1014F800A0122C139003A5120526000000009003EB
:0F150800B9122C139003BE12052600000000221A
:102D7C00E49005C9F0F09005C9E0FFC3940E50191A
:102D8C00122BEB9005DEF0A3CEF07D017C0012241B
:092D9C00739005C9E004F080DD2C
:012DA500220B
:102DA600E49005C4F0F09005C4E0FFC3940E5019FA
:102DB600122BEB9005CBF0A3CEF07D017C00122305
:092DC600B19005C4E004F080DDC9
:012DCF0022E1
:03000000022533A3
:0F25330043AF01787FE4F6D8FD75811102257D55
:0E16970001110041050200440503000000009F
:10273200F583E475F00112034290050775F008E095
:10274200FCA3E0FDEFA422E49005C7F09005C4E0ED
:10275200FBA3E0FAA3E0F922E0FEA3E0FFC32234E8
:1027620007FEE0FCA3E0FDC3EF9DFFEE9C22900577
:1027720007E0C3135403FF75F008A422F890050282
:10278200E075F022A422900502E075F019A424411C
:10279200F582E5F03403F58322F583E0FEA3E0221F
:0827A200F583ECF0A3EDF02239
:102E3E00122EA5122E7FD2AAD2A8D288D28AE490C0
:062E4E000507F0A3F022CD
:03000300022AE4EA
:102AE400C0E0C0F0C083C08205A7C083C082C0A775
:102AF40075A700C0D0E8C0E0ECC0E0EDC0E0EFC0D6
:012B0400E0F0
:102B05001227702409F582E43405122732240BF5C7
:072B150082E434051227A23F
:102B1C00D0E0FFD0E0FDD0E0FCD0E0F8D0D0D0A7E2
:0F2B2C00D082D08305A7D082D083D0F0D0E03202
:03001300022B3B82
:102B3B00C0E0C0F0C083C08205A7C083C082C0A71D
:102B4B0075A700C0D0E8C0E0ECC0E0EDC0E0EFC07E
:012B5B00E099
:102B5C00122770242BF582E43405122732242DF52C
:072B6C0082E434051227A2E8
:102B7300D0E0FFD0E0FDD0E0FCD0E0F8D0D0D0A78B
:0F2B8300D082D08305A7D082D083D0F0D0E032AB
:03000B00022A873F
:102A8700C0E0C0F0C083C08205A7C083C082C0A7D2
:102A970075A700C0D0E8C0E0ECC0E0EDC0E0EFC033
:012AA700E04E
:102AA800758CFF758AFF122770244DF582E4340572
:0D2AB800122732244FF582E434051227A2C4
:102AC500D0E0FFD0E0FDD0E0FCD0E0F8D0D0D0A73A
:0F2AD500D082D08305A7D082D083D0F0D0E0325A
:03002B00020AA71F
:100AA700C0E0C0F0C083C08205A7C083C082C0A7D2
:100AB70075A700C0D0E8C0E0ECC0E0EDC0E0EEC034
:100AC700E0EFC0E0C2CF900507E0FEA3E08EF01292
:100AD70005890AED01FF0B7903FF0C0205FF0C8C5A
:100AE70007FF00000D1C90050CE024FFFF90050B8D
:100AF700E090052312276190050DF0A3EFF0900514
:100B070009E0FFA3E090050FCFF0A3EFF0900521D8
:100B1700E4F0A3F090052EE024FFFF90052DE09070
:100B2700054512276190052FF0A3EFF090052BE004
:100B3700FFA3E0900531CFF0A3EFF0900543E4F079
:100B4700A3F0900550E024FFFF90054FE03407FE27
:100B5700900567122764900551F0A3EFF090054DBB
:100B6700E0FFA3E0900553CFF0A3EFF090056502F7
:100B77000C8890050B12275A900514E09FFF9005EB
:100B870013E09E900515F0A3EFF0900511E0FFA389
:100B9700E0900517CFF0A3EFF0900509E4F0A3F07C
:100BA70090052D12275A900536E09FFF900535E0F6
:100BB7009E900537F0A3EFF0900533E0FFA3E09098
:100BC7000539CFF0A3EFF090052BE4F0A3F09005E3
:100BD7004F12275A900558E09FFF900557E09E90C7
:100BE7000559F0A3EFF0900555E0FFA3E090055BF2
:100BF700CFF0A3EFF090054D020C88900513122754
:100C07005A90051CE09FFF90051BE09E90051DF084
:100C1700A3EFF0900519E0FFA3E090051FCFF0A325
:100C2700EFF0900511E4F0A3F090053512275A90E4
:100C3700053EE09FFF90053DE09E90053FF0A3EF46
:100C4700F090053BE0FFA3E0900541CFF0A3EFF064
:100C5700900533E4F0A3F090055712275A900560EA
:100C6700E09FFF90055FE09E900561F0A3EFF09095
:100C7700055DE0FFA3E0900563CFF0A3EFF09005DB
:100C870055E4020D1990051B12275A900524E09F81
:100C9700FF900523E09E900525F0A3EFF090052136
:100CA700E0FFA3E0900527CFF0A3EFF0900519E44C
:100CB700F0A3F090053D12275A900546E09FFF905C
:100CC7000545E09E900547F0A3EFF0900543E0FF50
:100CD700A3E0900549CFF0A3EFF090053BE4F0A324
:100CE700F090055F12275A900568E09FFF9005670F
:100CF700E09E900569F0A3EFF0900565E0FFA3E0A3
:100D070090056BCFF0A3EFF090055DE4F0A3F090B2
:100D17000507F0A3F0900508E004F07006900507BA
:100D2700E004F0900507E05407F0D0E0FFD0E0FEC4
:100D3700D0E0FDD0E0FCD0E0F8D0D0D0A7D082D072
:0C0D47008305A7D082D083D0F0D0E0322A
:0B1891009005C4EBF0A3EAF0A3E9F01F
:10189C00A37401F0120358FFE5F06003021A34EF51
:1018AC00244D602124FD70030219DC24B660030270
:1018BC001A3412274E900002E4F5F01203DAE475A4
:1018CC00F0B31203BB12274E900002120383C39491
:1018DC0028E5F094004003D38001C340037F00222D
:1018EC0012277F2417F582E4340512279BFBCAEEDE
:1018FC00CAE412277F240FF582E4340512279BFFDC
:10190C00EF2BFBEE3AFAE433F9E43312277E241F73
:10191C00F582E4340512279BFFE4FCFDEB2FFBEA78
:10192C003EFAED39F9EC3812277E2427F582E4349F
:10193C000512279BFFEB2FFFEA3EFEED39FDEC383D
:10194C00FC7812120507ECC0E0EDC0E0EEC0E0EF51
:10195C00C0E0900502E0FF75F022A42415F582E4A6
:10196C003405F58375F022122741240DF582E434F9
:10197C000512279B2DFFEE3CFE900502E0FD75F055
:10198C0022A4241DF582E43405F583E0FAA3E02FAC
:10199C00FFEA3EFEED75F022A42425F582E4340521
:1019AC00F583E0FCA3E02FFFEC3ECBEFCBFAE4F9A0
:1019BC00F8D0E0FFD0E0FED0E0FDD0E0FC12044314
:1019CC0090050312051A122749E475F0B61203BBF1
:1019DC009005C7E070037F0122E47FFF7EFFFDFCD2
:1019EC00900503E0F8A3E0F9A3E0FAA3E0FBD3121F
:1019FC0004E35016900503E0FCA3E0FDA3E0FEA376
:101A0C00E0FF12278812051A800A12278812052671
:101A1C000000FFFF900502E004F0E0C394035003C4
:101A2C000218BEE4F00218BE122749E4F5F01203C6
:031A3C00BB7F036A
:011A3F002284
:102EA5005389F0438905758CFF758AFFD2A9D28CA9
:012EB50022FA
:102E7F00D2ADE4F5C875CCFF75CDE775CAFF75CB3C
:042E8F00E7D2CA229A
:1016A5004105740041057500410579124A057A0026
:1016B500000000000000000000060B000000000014
:0916C5000041058E0041058F0073
:10289100C2EDC2EFD2EDE49005C7F09005C4E0FBB4
:1028A100A3E0FAA3E0F9E422E49005CFF09005C893
:1028B100E0FBA3E0FAA3E0F922EBF0A3EAF0A3E93D
:1028C100F022F5F01203BB7F0322A37401F002038F
:1028D10058E49005CFF09005C822E49005CFF09020
:1028E10005C8229005CEE0FF90056DE0C39F22E46C
:0D28F100900594F0A322C3EF64809482222E
:102E5400D2EBE4900590F0A3F0900594F0A3F090E9
:062E64000598F0A3F02226
:102DF700EF25E054FE900573F09005CCE090057444
:102E0700F09005D0E0900575F0A31228BA90058ED2
:042E17007401F02230
:060D53009005C41228BA4D
:100D59001228CBFFAEF0E5F06003020F40EF120559
:100D6900630D98000DA1440DBF4F0DD6550DF25ED0
:100D79000E07690E41700E5A7D0E78830E948B0E04
:100D8900AE930EE99A0F0DA60F27AB00000F401284
:100D9900289C75F0441203BB90058EE07002FF2277
:100DA900E490058EF0D2EEC2EDD2EFD2ED12289882
:100DB90075F04F1203BB9005C7E070037F0122C293
:100DC900EF1228F012289B75F0551203BB120F473A
:100DD90050028001C350037F002290058FE060120A
:100DE90012289175F05E1203BB9005C7E070527F1F
:100DF90001221228F012289B75F0691203BB900595
:100E0900CBE4F0A37400F0A3740BF0900574E090A8
:100E190005CEF07B017A0579941221111228F75039
:100E2900028001C350037F002290058FE0601512F4
:100E3900289175F0701203BB9005C7E070037F011C
:100E490022020EF2C2EDD2EF12289575F07D12033F
:100E5900BB9005C7E070037F0122C2EF900573E0E4
:100E69004401F01228F012289B75F0831203BB127B
:100E79000F4750028001C350037F002290058FE085
:100E8900601412289175F08B1203BB9005C7E070AE
:100E9900037F01228053E4900590F0A312289B75EB
:100EA900F0931203BB9005CB7401F0A37405F0A372
:100EB9007484F0900575E09005CEF07B017A057990
:100EC900901222E51228F750028001C350037F00D7
:100ED9002290058FE0602412289175F09A1203BBC5
:100EE9009005C7E070037F0122D2EFE490058FF0EF
:100EF90012289CF5F01203BB7F002212289175F08D
:100F0900A61203BB9005C7E070037F0122D2EFE46C
:100F1900900598F0A312289B75F0AB1203BB7B01D7
:100F29007A0579981226B91228F750028001C34030
:0D0F390003020D987F00221228971228C392
:100F4600229005CB7401F0A37405F0A37473F0A38B
:100F56007401F0FB7A057994122111C3EF64809431
:020F66008222E5
:0622E5009005C81228BAA2
:1022EB009005CF1228CCFFE5F060030223A7EF2463
:1022FB0040603024E4700302239024DC600302234B
:10230B00A7E490056DF01228E440030223A0E490AB
:10231B00056FF0C2EEC2ED1228DC12289F75F0C0DB
:10232B001203BB9005CFE070037F0122E490056E92
:10233B00F0D2ED90056FE025E0FFA2ECE4334FF017
:10234B00C2ED90056EE004F0E0B408E590056FE097
:10235B00FF9005CB1228B190056DE0F582758300D7
:10236B00EF12032090056DE004F0D2EE1228E4503A
:10237B0004C2EF8002D2EFD2ED1228DB12289F7538
:10238B00F0DC1203BB9005CFE070037F0122C2ED9E
:10239B00C2EE022311D2EEE490058FF01228DB126D
:0523AB00289F1228C369
:0123B000220A
:062111009005C81228BA77
:102117009005CF1228CC12058921380000217900BB
:10212700F4219E00FC21C2010321D80105000022F1
:1021370004D2EEE4900570F09005CEE0FF900570B4
:10214700E0C39F40030221FF9005CB1228B1900501
:1021570070E0F5827583001202F3900572F0900526
:1021670070E004F0C2ED1228D212289F75F0F41225
:1021770003BB9005CFE070037F0122E4900571F067
:10218700900572E025E0F092EFD2ED1228D21228E6
:102197009F75F0FC1203BB9005CFE070037F01220F
:1021A700C2ED900571E004F0E0B408D4C2EEC2EDD0
:1021B7001228A9740175F0031203BB9005CFE070D4
:1021C700037F0122D2ED1228A9740175F0051203CD
:1021D700BB9005CFE070037F0122C2EDD2EE20EC69
:1021E7000302213F90058F7401F09005C812289FC4
:1021F700F5F01203BB7F0222E490058FF01228D27C
:0622070012289F1228C3FB
:01220D0022AE
:0626B9009005C81228BACA
:1026BF001228CBAEF0705DEE705A7E057F847D09D7
:1026CF00122E1B90058DE06F7046900584E0FCA3E1
:1026DF00E0FDA3E0FEA3E0FF90038C12051A900526
:1026EF0088E0FEA3E0FFE4FCFD9003A512051A901D
:1026FF00058AE0FEA3E0FFE4FCFD9003BE12051A7D
:10270F00900269E0FF90058CE0FEEF4E900269F0B9
:10271F00E4780BF6E49005CBF09005C812289F12D1
:02272F0028C3BD
:012731002285
:1027AA009005C8EFF0E4FFFEFDFCA3E0F8A3E0F912
:1027BA00A3E0FAA3E0FBC31204E37005FFFEFDFCED
:1027CA00229005C9E0FCA3E0FDA3E0FEA3E0FFE43C
:1027DA001202349005C8E075F019A42482F582E546
:1027EA00F03402F583E0F8A3E0F9A3E0FAA3E0FBF2
:1027FA0012012E9005C8E075F019A42486F582E529
:10280A00F03402F583E0F8A3E0F9A3E0FAA3E0FBD1
:07281A0012003D12027222C0
:102C6100E49005C4F0F09005C4E0FFC3940E503029
:102C7100EF75F019A42481F9740235F0FA7B01E0B3
:102C810075F003A42450FEE435F09005CBF0A3CEFB
:102C9100F07D037C001223B19005C4E004F080C6EE
:012CA1002210
:102821009005D0EFF0FBA3E0FCA3E0FDA3E0FEA345
:10283100E0FF75F019EBA42482F582E5F03402F58E
:102841008312051A9005D5E0FCA3E0FDA3E0FEA3E9
:10285100E0FF75F019EBA42486F582E5F03402F56A
:102861008312051AEB75F019A42481F9740235F06D
:10287100FA7B019005D0E075F003A42450FEE43505
:10288100F09005DEF0A3CEF07D037C0012247322CC
:1016CE004105BF0041059C0041059D0041059E005E
:10296900E49005C7F09005C4E0FBA3E0FAA3E0F901
:1029790022E025E025E024A3F582E43405F583E08F
:10298900FCA3E0FDA3E0FEA3E0FF229005BFE075F4
:10299900F026A424F7F582E5F03403F583229005A7
:1029A9009EE025E025E0249FF582E4340522900588
:1029B900BFE075F019A422E0F8A3E0F9A3E0FAA3B7
:0229C900E0220A
:0B0F68009005C4EBF0A3EAF0A3E9F051
:100F7300A37401F0120358FFE5F06003021149EF77
:100F830024F0602C24F6607324F5700302104624C9
:100F9300F470030210B52431600302114912296E63
:100FA300900002E4F5F01203DAE475F0101203BBCB
:100FB30012296E900002120383C3940AE5F0940091
:100FC3004003D38001C340037F0022122994E070C1
:100FD3003D90059CF0122994E0702990059CE064F3
:100FE3000860219005BFE0045407F090059CE004DD
:100FF300F0122969E475F01A1203BB9005C7E0707B
:10100300D47F012290059CE0B4080302113D9005B2
:10101300BFE075F026A424D2F9740335F0FA7B01FE
:10102300EAC0E0E9C0E0789F7C057D01D0E0F9D01B
:10103300E0FA7E007F20120676122969E475F02516
:101043001203BB9005C7E070037F012290059D74D6
:1010530007F0E490059EF090059DE0FFA3E0C39F99
:10106300506212297A1229A7F5831229C0FBD312E1
:1010730004E340341229A71229869005C012051AE9
:1010830090059E12297A1229A7F58312051A900555
:10109300C012298890059EE025E025E024A3F5826F
:1010A300E43405F58312051A122969E475F0311247
:1010B30003BB9005C7E070037F012290059EE00407
:1010C300F002105A90059DE014F0E070859005AF92
:1010D3001229889005AB1229C02FFFEA3EFEE93D95
:1010E300FDE83CFC78011204F41229B72479F58257
:1010F300E5F03402F58312051A1229B72481F5822B
:10110300E5F03402F583E0602C1229B72479F582E7
:10111300E5F034021229869005C912051A9005BF1D
:10112300E0FF1227AA1229B7247DF582E5F03402E5
:10113300F58312051A122994E4F012296EE4F5F0EE
:101143001203BB7F0022122969E4F5F01203BB7F6F
:011153000398
:011154002278
:102EB60053890F438910758D8A758BD0D2ABD28E0C
:012EC60022E9
:100036000202DEE86480F8E933E83360110460F018
:10004600ED33EC337009E8FCE9FDEAFEEBFF220430
:1000560060DED3EB9FEA9EE99DE8C2E78CF0C2F72B
:1000660095F0400CE8CCF8E9CDF9EACEFAEBCFFBF7
:100076001202A985D0F05804700320D5B3E80470A5
:10008600075002B2D50202E892D5EC0460F7E4CC40
:10009600C0E0C398F8603B94186008400DD0E0FBC0
:1000A6000202C0E4FBFAC9FC8028E830E406E4C991
:1000B600FBE4CAFCE830E305E4C9CACBFCE8540714
:1000C6006010F8C3E913F9EA13FAEB13FBEC13FC1F
:1000D600D8F130F52FC3E49CFCEF9BFFEE9AFEEDC2
:1000E60099FDD0E0FBEF4E4D4C701222DB0302026D
:1000F600E5EC2CFCEF33FFEE33FEED33FDED30E7A0
:10010600EB0202C0EF2BFFEE3AFEED39FDD0E0FB2D
:1001160050130BBB00030202E8ED13FDEE13FEEFD6
:0801260013FFEC13FC0202C000
:10012E00EC4D6011E8497017ED33EC3304600DE4CB
:10013E00FCFFFEFD22E933E8330470F80202DE1202
:10014E0002A958046009E4CC248150062850090203
:10015E0002E82840030202E5C0E0EB4A7044B98091
:10016E0006D0E0FB0202D4EF4E701CBD8008EBFF00
:10017E00EAFEE9FD80EBE98DF0A4FEE5F002021740
:10018E00E9CDF9EAFEEBFFEF89F0A4FCE5F0CE89AC
:10019E00F0A42EFFE435F0CD89F0A42DFEE435F069
:1001AE008067EF4E7005BD80D780C3EF8BF0A4AC97
:1001BE00F0EE8BF0A42CFCE435F0F8EF8AF0A42CD2
:1001CE00E5F038FCE433CB8DF0A42CFCE5F03BF8E5
:1001DE00EE8AF0A42CFCE5F038F8E433CF89F0A4D5
:1001EE002CFCE5F038CF3400CE89F0A42FFFE5F0DB
:1001FE003EFEE433C98DF0A42EFEE5F039CD8AF033
:10020E00A42FFFE5F03EFEE43DFD33D0E0FB5007AA
:10021E000BBB000F0202E8EC2CFCEF33FFEE33FEBB
:06022E00ED33FD0202C0E9
:1002340075F020800E75F010800575F0087D007E45
:10024400007F003392D530D5031204D5EC3340102F
:10025400EF33FFEE33FEED33FDEC33FCD5F0ED224E
:0E026400E5F0247EA2D513CC92E7CDCEFF228A
:10027200EDD2E7CD33EC3392D524814006E4FFFE84
:10028200FDFC22FCE4CFCECDCC24E0501174FF80E3
:10029200EDC3CC13CCCD13CDCE13CECF13CF047080
:0702A200F030D5DE0204D5A7
:1002A900E9D2E7C933E833F892D5EDD2E7CD33EC9B
:0702B90033FC5002B2D52214
:1002C000EC30E7100FBF000C0EBE00080DBD00049F
:1002D0000BEB6014A2D5EB13FCED92E7FD2274FF4B
:1002E000FCFDFEFF22E480F8A2D574FF13FC7D80A4
:0302F000E480EFB8
:10254200022640E493A3F8E493A34003F68001F249
:1025520008DFF48029E493A3F85407240CC8C3339A
:10256200C4540F4420C8834004F456800146F6DF69
:10257200E4800B0102040810204080901517E47ECD
:10258200019360BCA3FF543F30E509541FFEE4935E
:10259200A360010ECF54C025E060A840B8E493A325
:1025A200FAE493A3F8E493A3C8C582C8CAC583CA50
:1025B200F0A3C8C582C8CAC583CADFE9DEE780BE08
:0116DE00000B
:1002F300BB010CE58229F582E5833AF583E02250C0
:1003030006E92582F8E622BBFE06E92582F8E22209
:0D031300E58229F582E5833AF583E4932223
:10032000F8BB010DE58229F582E5833AF583E8F013
:10033000225006E92582C8F622BBFE05E92582C8BF
:02034000F222A7
:10034200C5F0F8A3E028F0C5F0F8E5821582700246
:060352001583E038F022E3
:10035800BB010A89828A83E0F5F0A3E02250068770
:10036800F009E71922BBFE07E3F5F009E319228932
:0B037800828A83E493F5F07401932265
:10038300BB0110E58229F582E5833AF583E0F5F0B8
:10039300A3E0225009E92582F886F008E622BBFE95
:1003A3000AE92582F8E2F5F008E222E5832AF583DB
:0803B300E993F5F0A3E99322A0
:1003BB00BB010A89828A83F0E5F0A3F0225006F78D
:0F03CB0009A7F01922BBFE06F3E5F009F319228A
:1003DA00F8BB0111E58229F582E5833AF583E8F055
:1003EA00E5F0A3F0225009E92582C8F608A6F02212
:0D03FA00BBFE09E92582C8F2E5F008F222F9
:1004070075F008758200EF2FFFEE33FECD33CDCCAC
:1004170033CCC58233C5829BED9AEC99E58298402F
:100427000CF582EE9BFEED9AFDEC99FC0FD5F0D60C
:10043700E4CEFBE4CDFAE4CCF9A88222B800C1B936
:100447000059BA002DEC8BF084CFCECDFCE5F0CB74
:10045700F97818EF2FFFEE33FEED33FDEC33FCEBAD
:1004670033FB10D703994004EB99FB0FD8E5E4F968
:10047700FA227818EF2FFFEE33FEED33FDEC33FC55
:10048700C933C910D7059BE99A4007EC9BFCE99A49
:10049700F90FD8E0E4C9FAE4CCFB2275F010EF2F8E
:1004A700FFEE33FEED33FDCC33CCC833C810D7078E
:1004B7009BEC9AE899400AED9BFDEC9AFCE899F8C9
:0E04C7000FD5F0DAE4CDFBE4CCFAE4C8F9225C
:102C1D00C2D5E830E70FB2D5E4C39BFBE49AFAE4E2
:102C2D0099F9E498F8EC30E717B2D5122C53120449
:102C3D0043E4C39BFBE49AFAE499F9E498F8800322
:102C4D0012044330D50DE4C39FFFE49EFEE49DFDC9
:042C5D00E49CFC22D5
:0E04D500C3E49FFFE49EFEE49DFDE49CFC2238
:1004E300EB9FF5F0EA9E42F0E99D42F0E89C45F06F
:0104F30022E6
:1004F400E8600FECC313FCED13FDEE13FEEF13FFE6
:03050400D8F12209
:10050700E8600FEFC333FFEE33FEED33FDEC33FC52
:03051700D8F122F6
:0C051A00ECF0A3EDF0A3EEF0A3EFF02254
:10052600A8828583F0D083D08212053D12053D1244
:10053600053D12053DE473E493A3C583C5F0C58369
:10054600C8C582C8F0A3C583C5F0C583C8C582C81F
:010556002282
:0C055700A42582F582E5F03583F58322AF
:10056300D083D082F8E4937012740193700DA3A327
:1005730093F8740193F5828883E47374029368603B
:06058300EFA3A3A380DF3B
:10058900D083D082F8E4937012740193700DA3A301
:1005990093F8740193F5828883E473740293B5F038
:0D05A900067403936860E9A3A3A3A380D8A0
:1005B600E709F608DFFA8046E709F208DFFA803E27
:1005C60088828C83E709F0A3DFFA8032E309F60814
:1005D600DFFA8070E309F208DFFA806888828C838C
:1005E600E309F0A3DFFA805C89828A83E0A3F60838
:1005F600DFFA805089828A83E0A3F208DFFA80441A
:1006060080D280FA80C680D4805980F2802B8010F8
:1006160080A680EA809A80A880DA80E280CA802B51
:1006260089828A8305A788828C8375A754E493F010
:10063600DFFBDEF975A700800B89828A83E493A32A
:10064600F608DFF9ECFAA9F0EDFB2289828A830528
:10065600A788828C8375A754E0F0DFFCDEFA75A7C5
:100666000080E189828A83E493A3F208DFF980D4CB
:1006760088F0EF60010E4E60CB88F0ED2402B404E2
:100686000050C1F582EB2402B4040050B723234581
:06069600822390060673AA
:00000001FF
