:10096200C2AF53D70912002412000E1209827F72FD
:100972001209AA120917D2AF1202C51209A080F8F1
:0809AA008F18D2C08518C0228D
:0A09A000C2AFD2C08518C0D2AF224A
:03000000020806ED
:0F08060043AF01787FE4F6D8FD75812A020850D0
:06002400758950D28E2206
:0B002E00782712024F90004D0202677D
:1009820078271202738000800012002ED2B3C2B404
:0E099200D288C289D2A8D2B820B202B2B42252
:030003000207737E
:10077300C0E0C0F0C083C08205A7C083C082C0A709
:1007830075A700C0D0E8C0E0E9C0E0EAC0E0ECC073
:10079300E0EDC0E0EEC0E0EFC0E0C2A8B2B478275D
:1007A30030B31512024FE4FAF9F8EF2401FFEA3EE1
:1007B300FEE93DFDE83C801212024F74FF2FFFEE6D
:1007C30034FFFEED34FFFDEC34FFFC782712025BAF
:1007D30090004CE0700312002ED2A8D0E0FFD0E0CE
:1007E300FED0E0FDD0E0FCD0E0FAD0E0F9D0E0F8B4
:1007F300D0D0D0A7D082D08305A7D082D083D0F029
:03080300D0E03210
:1004430000BC01BD02BE03BF04B805B906BA07BBB1
:1004530008B409B50AB60BB70CB00DB10EB20FB3A1
:1004630010AC11AD12AE13AF14A815A916AA17AB91
:1004730018A419A51AA61BA71CA01DA11EA21FA381
:10048300209C219D229E239F24982599269A279B71
:10049300289429952A962B972C902D912E922F9361
:1004A300308C318D328E338F34883589368A378B51
:1004B300388439853A863B873C803D813E823F8341
:1004C30040FC41FD42FE43FF44F845F946FA47FB31
:1004D30048F449F54AF64BF74CF04DF14EF24FF321
:1004E30050EC51ED52EE53EF54E855E956EA57EB11
:1004F30058E459E55AE65BE75CE05DE15EE25FE301
:1005030060DC61DD62DE63DF64D865D966DA67DBF0
:1005130068D469D56AD66BD76CD06DD16ED26FD3E0
:1005230070CC71CD72CE73CF74C875C976CA77CBD0
:1005330078C479C57AC67BC77CC07DC17EC27FC3C0
:1006D2004F00550102030405060708090A0B0C0D19
:0E06E2000E0F41006400410065004100661EDD
:10091700E4F5E8759B5843A90190004CF05389F022
:10092700438901F58CF58A900066741EF0D2A9D22E
:080937008C90004A74C0F0220C
:03003B0002054378
:10054300C0E0C0F0C083C08205A7C083C082C0A73B
:1005530075A700C0D0E8C0E0E9C0E0EAC0E0EBC0A6
:10056300E0ECC0E0EDC0E0EEC0E0EFC0E020E95E0B
:10057300900064E59AF090004AE03392A090004D19
:10058300E0FCA3E0FDA3E0FEA3E0FF900042120223
:1005930067900051E0FFA3E0900046CFF0A3EFF097
:1005A300900053E0FFA3E0900048CFF0A3EFF0905A
:1005B3000065E4F0A3741EF0758C00758A0090004A
:1005C30064E06412703690004A7440F0802E90000C
:1005D30065E0C3940A5025E02442F582E43400F533
:1005E30083E0F59A900065E004F0E0B4090E7E0024
:1005F3007F427D0912093F90004BEFF0D0E0FFD01E
:10060300E0FED0E0FDD0E0FCD0E0FBD0E0FAD0E0AB
:10061300F9D0E0F8D0D0D0A7D082D08305A7D0827C
:07062300D083D0F0D0E032DB
:03000B000208DF09
:1008DF00C0E0C083C08205A7C083C082C0A775A730
:1008EF0000C28D758C00758A00900066E014F0E0F0
:1008FF007007D2EAC2EA741EF0D0A7D082D0830567
:08090F00A7D082D083D0E032B2
:10093F00E4FCCBEDCB1DEB60160FEFCAEECA7001D6
:10094F000E14F5828A83E06C90044393FC80E3CF0E
:02095F00ECCFDB
:010961002273
:1006F000040800000000040C0000000002190000C3
:10070000021B0000021D0000041F00000000042363
:100710000000000042000000004200020000603CB7
:1007200000040000000000000000000000000000C5
:1007300000000000000000000000000000000000B9
:1007400000000000000000000000000000000000A9
:100750000000000000000000000000000000041085
:1007600000000000041400000000410040004100AF
:02077000410046
:10089500FBCAEECA900000E0FEA3E0FF7C007D05E8
:1008A50002019D90000475F014EF12028CEE75F0B4
:1008B50014A42583F583E5822BF582E5833AF58338
:1008C50022E513250BF513E512350AF512E5113569
:0A08D50009F511E5103508F51022B1
:10000E00D2ADC2BDE4F5C875CD8675CB8675CC076D
:06001E0075CA07D2CA22D8
:03002B0002062AA0
:10062A00C0E0C0F0C083C08205A7C083C082C0A753
:10063A0075A700C0D0E8C0E0E9C0E0EAC0E0EBC0BE
:0D064A00E0ECC0E0EDC0E0EEC0E0EFC0E08D
:10065700900067E4F0A3F0C2CFC3781EE6941318A6
:10066700E6940050090806E6187035068032AF8D0B
:100677007E007C017D00120298C8ECC8C9EDC9CA8A
:10068700EECACBEFCBAF8BEB4FF50FEAF50EE9F5E3
:100697000DE8F50C758B00758D009000417401F025
:1006A700D0E0FFD0E0FED0E0FDD0E0FCD0E0FBD012
:1006B700E0FAD0E0F9D0E0F8D0D0D0A7D082D0834C
:0B06C70005A7D082D083D0F0D0E03235
:1002C500900041E07003020442E4900041F0900088
:1002D50040E004F0E4F58BF58DE50B250FF50BE516
:1002E5000A350EF50AE509350DF509E508350CF56C
:1002F50008782312024FEF250FFFEE350EFEED3580
:100305000DFDEC350CFC782312025B900040E0B447
:100315000229782312024FE47B05FAF9F81201F25B
:10032500782312025B782312024F900051EEF0A35E
:10033500EFF0782312027300000000900040E064A3
:1003450002600302043CF0781AE664041846600F64
:10035500120899ED4C7008781A06E61870010678AF
:100365001AE6640418467066120899EDCEECCE784C
:1003750002C333CE33CED8F91208951208A8E0F897
:10038500A3E0F9A3E0FAA3E0FBC3E5139BF513E5AE
:10039500129AF512E51199F511E51098F510120864
:1003A500C6AF13AE12AD11AC10E41200DEE4FBFAD9
:1003B5007940784012004112011C781F12025B78C7
:1003C5001F12024F900053EEF0A3EFF080031208C6
:1003D500C6AF0BAE0AAD09AC08ECC0E0EDC0E0EE6F
:1003E500C0E0EFC0E0120899EDCEECCE7802C33341
:1003F500CE33CED8F91208951208A8D0E0FFD0E088
:10040500FED0E0FDD0E0FC120267C3900001E0944D
:100415000E900000E09400500EA3E004F0700690EA
:100425000000E004F08007E4900000F0A3F0E4F59C
:0E0435000BF50AF509F508E4781DF608F62225
:10003E00020192EC5D046005E85904700302018828
:10004E00120153580460F6EC4860F2EC7004FDFEA9
:10005E00FF22C860DB2481C85009C3986002500695
:10006E0002018F9850CAF582E9294B4A7005AB827E
:10007E0002017E75F0007C1A7880C3EF9BEE9AED3C
:10008E0099400DC3EF9BFFEE9AFEED99FDE842F00D
:10009E00DC23ACF0D0E0FFD0E0FED0E0FDAB822060
:1000AE00E7101BEB60BAEC2CFCEF33FFEE33FEEDEA
:1000BE0033FD02016AE803F830E705C0F075F00081
:1000CE00EF2FFFEE33FEED33FD40B830E7C280AACE
:1000DE0075F020800E75F010800575F0087D007E9D
:1000EE00007F003392D530D503120241EC3340101D
:1000FE00EF33FFEE33FEED33FDEC33FCD5F0ED22A6
:0E010E00E5F0247EA2D513CC92E7CDCEFF22E1
:10011C00EDD2E7CD33EC3392D524814006E4FFFEDB
:10012C00FDFC22FCE4CFCECDCC24E0501174FF803A
:10013C00EDC3CC13CCCD13CDCE13CECF13CF0470D7
:07014C00F030D5DE02024194
:10015300E9D2E7C933E833F892D5EDD2E7CD33ECF2
:0701630033FC5002B2D5226B
:10016A00EC30E7100FBF000C0EBE00080DBD0004F6
:10017A000BEB6014A2D5EB13FCED92E7FD2274FFA2
:10018A00FCFDFEFF22E480F8A2D574FF13FC7D80FB
:03019A00E480EF0F
:10081500020962E493A3F8E493A34003F68001F28E
:1008250008DFF48029E493A3F85407240CC8C333E4
:10083500C4540F4420C8834004F456800146F6DFB3
:10084500E4800B01020408102040809006D2E47E6B
:10085500019360BCA3FF543F30E509541FFEE493A8
:10086500A360010ECF54C025E060A840B8E493A36F
:10087500FAE493A3F8E493A3C8C582C8CAC583CA9A
:10088500F0A3C8C582C8CAC583CADFE9DEE780BE52
:010772000086
:10019D00BC000BBE0029EF8DF084FFADF022E4CC46
:1001AD00F875F008EF2FFFEE33FEEC33FCEE9DEC0F
:1001BD00984005FCEE9DFE0FD5F0E9E4CEFD22ED55
:1001CD00F8F5F0EE8420D21CFEADF075F008EF2F9F
:1001DD00FFED33FD4007985006D5F0F222C398FD90
:0501ED000FD5F0EA222D
:1001F200E88FF0A4CC8BF0A42CFCE98EF0A42CFCAC
:100202008AF0EDA42CFCEA8EF0A4CDA8F08BF0A429
:100212002DCC3825F0FDE98FF0A42CCD35F0FCEB88
:100222008EF0A4FEA9F0EB8FF0A4CFC5F02ECD394D
:0F023200FEE43CFCEAA42DCE35F0FDE43CFC22BA
:0E024100C3E49FFFE49EFEE49DFDE49CFC22CE
:0C024F00E6FC08E6FD08E6FE08E6FF22DB
:0C025B00ECF608EDF608EEF608EFF622CF
:0C026700ECF0A3EDF0A3EEF0A3EFF0220A
:10027300D083D082E493F608740193F60874029352
:09028300F608740393F674047389
:0C028C00A42582F582E5F03583F583227D
:10029800EC8EF0A4CCC5F0CCCDF8EFA4CEC5F02DF3
:1002A800FDE43CFCE8A42EC8C5F03DFDE43CFCEFB1
:0D02B800A4FFE5F028FEE43DFDE43CFC223F
:00000001FF
