:100F2D00C2AF53D709D2A020A00890006D7401F074
:100F3D008005E490006DF090006DE0FF120C8412BE
:100F4D000FAC7F7212002E120F61D2AF12003E1243
:040F5D00001E80F8FA
:08002E008F18D2C08518C02212
:0A001E00C2AFD2C08518C0D2AF22D5
:03000000020DE806
:0F0DE80043AF01787FE4F6D8FD75812A020E3201
:0B000E00782712075A90007502077F48
:100FAC00782712078B8000800012000ED2B3C2B4D7
:0E0FBC00D288C289D2A8D2B820B202B2B42222
:03000300020D5596
:100D5500C0E0C0F0C083C08205A7C083C082C0A721
:100D650075A700C0D0E8C0E0E9C0E0EAC0E0ECC08B
:100D7500E0EDC0E0EEC0E0EFC0E0C2A8B2B4782775
:100D850030B31512075AE4FAF9F8EF2401FFEA3EE9
:100D9500FEE93DFDE83C801212075A74FF2FFFEE75
:100DA50034FFFEED34FFFDEC34FFFC7827120773AA
:100DB500900074E0700312000ED2A8D0E0FFD0E0DE
:100DC500FED0E0FDD0E0FCD0E0FAD0E0F9D0E0F8CC
:100DD500D0D0D0A7D082D08305A7D082D083D0F041
:030DE500D0E03229
:1009C30000BC01BD02BE03BF04B805B906BA07BB2C
:1009D30008B409B50AB60BB70CB00DB10EB20FB31C
:1009E30010AC11AD12AE13AF14A815A916AA17AB0C
:1009F30018A419A51AA61BA71CA01DA11EA21FA3FC
:100A0300209C219D229E239F24982599269A279BEB
:100A1300289429952A962B972C902D912E922F93DB
:100A2300308C318D328E338F34883589368A378BCB
:100A3300388439853A863B873C803D813E823F83BB
:100A430040FC41FD42FE43FF44F845F946FA47FBAB
:100A530048F449F54AF64BF74CF04DF14EF24FF39B
:100A630050EC51ED52EE53EF54E855E956EA57EB8B
:100A730058E459E55AE65BE75CE05DE15EE25FE37B
:100A830060DC61DD62DE63DF64D865D966DA67DB6B
:100A930068D469D56AD66BD76CD06DD16ED26FD35B
:100AA30070CC71CD72CE73CF74C875C976CA77CB4B
:100AB30078C479C57AC67BC77CC07DC17EC27FC33B
:100BB2004F007D0102030405060708090A0B0C0D0C
:0E0BC2000E0F41008C0041008D0041008E1E80
:100F6100E4F5E8759B5843A901900074F05389F0AA
:100F7100438901F58CF58A90008E741EF0D2A9D2B6
:080F81008C90007274C0F02294
:03003B00020AC3F3
:100AC300C0E0C0F0C083C08205A7C083C082C0A7B6
:100AD30075A700C0D0E8C0E0E9C0E0EAC0E0EBC021
:100AE300E0ECC0E0EDC0E0EEC0E0EFC0E020E9667E
:100AF30090008CE59AF0900072E03392A09000751C
:100B0300E0FCA3E0FDA3E0FEA3E0FF900069120771
:100B13007F900079E0FFA3E090006ECFF0A3EFF0A9
:100B230090007BE0FFA3E0900070CFF0A3EFF09084
:100B3300008DE4F0A3741EF0758C00758A0090009C
:100B43008CE024ED600B04703B9000727440F080E5
:100B530033120FAC802E90008DE0C3940B5025E030
:100B63002469F582E43400F583E0F59A90008DE082
:100B730004F0E0B40A0E7E007F697D0A120F8990AB
:100B83000073EFF0D0E0FFD0E0FED0E0FDD0E0FC5A
:100B9300D0E0FBD0E0FAD0E0F9D0E0F8D0D0D0A795
:0F0BA300D082D08305A7D082D083D0F0D0E032AB
:03000B00020EF5ED
:100EF500C0E0C083C08205A7C083C082C0A775A714
:100F050000C28D758C00758A0090008EE014F0E0AB
:100F15007007D2EAC2EA741EF0D0A7D082D083054A
:080F2500A7D082D083D0E03296
:100F8900E4FCCBEDCB1DEB60160FEFCAEECA700186
:100F99000E14F5828A83E06C9009C393FC80E3CF39
:020FA900ECCF8B
:010FAB002223
:100BD000602200050000000000000000000000008E
:100BE0000000000000000000000000000000000005
:100BF000000000000000040800000000040C0000D9
:100C0000000002190000021B0000021D0000041F6A
:100C10000000000004230000000042002700004202
:100C200000290000603C002B0000000000000000D4
:100C300000000000000000000000000000000000B4
:100C400000000000000000000000000000000000A4
:100C50000000000000000000000000000000000094
:100C60000000000004100000000004140000000058
:100C7000410067004100680041000000440001009D
:030C800000000071
:100C8400E4FEEF64016003020D3653890F4389507B
:100C9400758DFF758BFFD2ABD28ED2ADF5C875CCF6
:100CA400FF75CDE775CAFF75CBE7D2CAEE75F022A2
:100CB400A42405F582E43400F583E4F0A3F0FDEE0A
:100CC40075F022A42407F582E43400F58375F00856
:100CD400ED1207A4E4F0A3F0EE75F022A42409F5C4
:100CE40082E43400F58375F008ED1207A4E4F0A360
:100CF400F0EE75F022A4240BF582E43400F583753C
:100D0400F008ED1207A4E4F0A3F0EE75F022A42499
:100D14000DF582E43400F58375F008ED1207A4E4C0
:100D2400F0A3F00DEDB404970EEE64016003020C21
:100D3400B022758950E4F58DF58BD28ED2ADC2BD4B
:100D4400F5C875CD8675CB8675CC0775CA07D2CA2A
:010D5400227C
:03001B00020E775B
:100E7700C0E0C0F0C083C08205A7C083C082C0A7FE
:100E870075A700C0D0E8C0E0ECC0E0EDC0E0EFC05F
:010E9700E07A
:100E9800758DFF758BFF900005E0C3135403FF7534
:100EA800F008A42407F582E43400F583E475F00122
:100EB8001205F5900005E0FCA3E0FDEF75F008A42D
:0E0EC8002409F582E43400F583ECF0A3EDF08C
:100ED600D0E0FFD0E0FDD0E0FCD0E0F8D0D0D0A745
:0F0EE600D082D08305A7D082D083D0F0D0E03265
:03002B0002080ABE
:10080A00C0E0C0F0C083C08205A7C083C082C0A771
:10081A0075A700C0D0E8C0E0E9C0E0EAC0E0EBC0DC
:10082A00E0ECC0E0EDC0E0EEC0E0EFC0E090006DAB
:10083A00E064016003020948C2CF900005E0FEA30C
:10084A00E08EF01207B0086401FF089B03FF08CA94
:10085A0005FF08FA07FF0000093190000AE024FFAB
:10086A00FF900009E03407FE900021E0FCA3E0FDC0
:10087A00C3EF9DFFEE9C90000BF0A3EFF0900007F2
:10088A00E0FFA3E090000DCFF0A3EFF090001F80EF
:10089A005C900009E0FEA3E0FFC3900012E09FFF16
:1008AA00900011E09E900013F0A3EFF090000FE08B
:1008BA00FFA3E0900015CFF0A3EFF0900007802D82
:1008CA00900011E0FEA3E0FFC390001AE09FFF90A2
:1008DA000019E09E90001BF0A3EFF0900017E0FFD4
:1008EA00A3E090001DCFF0A3EFF090000FE4803456
:1008FA00900019E0FEA3E0FFC3900022E09FFF9062
:10090A000021E09E900023F0A3EFF090001FE0FF8B
:10091A00A3E0900025CFF0A3EFF0900017E4F0A336
:10092A00F0900005F0A3F0900006E004F070069045
:0E093A000005E004F0900005E05407F0805046
:1009480090008FE4F0A3F0C2CFC3781EE69413188A
:10095800E6940050090806E6187035068032AF8D17
:100968007E007C017D001207DDC8ECC8C9EDC9CA4C
:10097800EECACBEFCBAF8BEB4FF50FEAF50EE9F5EF
:100988000DE8F50C758B00758D009000687401F00A
:10099800D0E0FFD0E0FED0E0FDD0E0FCD0E0FBD01E
:1009A800E0FAD0E0F9D0E0F8D0D0D0A7D082D08358
:0B09B80005A7D082D083D0F0D0E03241
:10003E0090006DE0FFEF640160030201C0900000CC
:10004E00E0FFEF75F022A42415F582E43400F58369
:10005E00E0FEA3E0FFCBEFCBCAEECAE4F9F89000C6
:10006E0000E0FFEF75F022A4240DF582E43400F5D4
:10007E0083E0FEA3E0FFE4FCFDEF2BFBEE3AFAED8E
:10008E0039F9EC38F8900000E0FFEF75F022A42467
:10009E001DF582E43400F583E0FEA3E0FFE4FCFDF1
:1000AE00EB2FFBEA3EFAE93DF9E83CF8900000E060
:1000BE00FFEF75F022A42425F582E43400F583E0E9
:1000CE00FEA3E0FFE4FCFDEB2FFFEA3EFEE93DFD63
:1000DE00E83CFC7812120747ECC0E0EDC0E0EEC041
:1000EE00E0EFC0E0900000E0FFEF75F022A42413D3
:1000FE00F582E43400F583E0FEA3E0FF900000E01B
:10010E00FDED75F022A4240BF582E43400F583E0B6
:10011E00FCA3E0FDED2FFFEC3EFE900000E0FDEDB8
:10012E0075F022A4241BF582E43400F583E0FCA3D1
:10013E00E0FDEF2DFFEE3CFE900000E0FDED75F0D2
:10014E0022A42423F582E43400F583E0FCA3E0FD31
:10015E00EF2DFFEE3CFECBEFCBCAEECAE4F9F8D0A2
:10016E00E0FFD0E0FED0E0FDD0E0FC12069690005D
:10017E000112077F7FFF7EFF7D007C00900001E073
:10018E00F8A3E0F9A3E0FAA3E0FBD3120736501769
:10019E00900001E0FCA3E0FDA3E0FEA3E0FF9000D1
:1001AE0079EEF0A3EFF02290007974FFF0A374FFC4
:1001BE00F022900068E0FFEF7003020440900068A8
:1001CE00E4F0900067E004F0758B00758D00E50B90
:1001DE00250FF50BE50A350EF50AE509350DF5097E
:1001EE00E508350CF508782312075AEF250FFFEEB8
:1001FE00350EFEED350DFDEC350CFC782312077334
:10020E00900067E0FFEF6402704A782312075A7B72
:10021E00057A007900780012060B78231207737F97
:10022E00FF7EFF7D007C007823120766D31207360F
:10023E00500F782312075A900079EEF0A3EFF0805A
:10024E000A90007974FFF0A374FFF0782312078BE5
:10025E0000000000900067E0FFEF640260030204FC
:10026E0039900067E4F07819E6FE08E6FFEF6404C3
:10027E004E601B900027E0FEA3E0FF7C007D051280
:10028E0005A0ED4C7008781A06E61870010678196C
:10029E00E6FE08E6FFEF64044E600302037D900065
:1002AE0027E0FEA3E0FF7C007D051205A0EDCEEC5D
:1002BE00CE7802C333CE33CED8F9FBCAEECA900045
:1002CE0027E0FEA3E0FF7C007D051205A090002B29
:1002DE0075F014EF1207A4EE75F014A42583F583C0
:1002EE00E5822BF582E5833AF583E0F8A3E0F9A3E6
:1002FE00E0FAA3E0FBC3E5139BF513E5129AF512A2
:10030E00E51199F511E51098F510E513250BF51388
:10031E00E512350AF512E5113509F511E510350826
:10032E00F510AF13AE12AD11AC10E41204E17B0068
:10033E007A007940784012044412051F781F120784
:10034E00737FFF7EFF7D007C00781F120766D3123D
:10035E000736500F781F12075A90007BEEF0A3EF6E
:10036E00F0802490007B74FFF0A374FFF08018E5FA
:10037E0013250BF513E512350AF512E5113509F5BE
:10038E0011E5103508F510AF0BAE0AAD09AC08EC4F
:10039E00C0E0EDC0E0EEC0E0EFC0E0900027E0FE70
:1003AE00A3E0FF7C007D051205A0EDCEECCE780219
:1003BE00C333CE33CED8F9FBCAEECA900027E0FE87
:1003CE00A3E0FF7C007D051205A090002B75F014B4
:1003DE00EF1207A4EE75F014A42583F583E5822BA6
:1003EE00F582E5833AF583D0E0FFD0E0FED0E0FD64
:1003FE00D0E0FC12077F900027E0FEA3E0FFC3EFE2
:10040E00940EEE94005010900028E004F0700690C8
:10041E000027E004F08008900027E4F0A3E4F075D4
:10042E000B00750A00750900750800781D76000826
:02043E00760046
:010440002299
:10044100020595EC5D046005E85904700302058B13
:10045100120556580460F6EC4860F2EC7004FDFE9B
:10046100FF22C860DB2481C85009C398600250068E
:100471000205929850CAF582E9294B4A7005AB8270
:1004810002058175F0007C1A7880C3EF9BEE9AED2E
:1004910099400DC3EF9BFFEE9AFEED99FDE842F006
:1004A100DC23ACF0D0E0FFD0E0FED0E0FDAB822059
:1004B100E7101BEB60BAEC2CFCEF33FFEE33FEEDE3
:1004C10033FD02056DE803F830E705C0F075F00073
:1004D100EF2FFFEE33FEED33FD40B830E7C280AAC7
:1004E10075F020800E75F010800575F0087D007E96
:1004F100007F003392D530D503120728EC3340102A
:10050100EF33FFEE33FEED33FDEC33FCD5F0ED229E
:0E051100E5F0247EA2D513CC92E7CDCEFF22DA
:10051F00EDD2E7CD33EC3392D524814006E4FFFED4
:10052F00FDFC22FCE4CFCECDCC24E0501174FF8033
:10053F00EDC3CC13CCCD13CDCE13CECF13CF0470D0
:07054F00F030D5DE020728A1
:10055600E9D2E7C933E833F892D5EDD2E7CD33ECEB
:0705660033FC5002B2D52264
:10056D00EC30E7100FBF000C0EBE00080DBD0004EF
:10057D000BEB6014A2D5EB13FCED92E7FD2274FF9B
:10058D00FCFDFEFF22E480F8A2D574FF13FC7D80F4
:03059D00E480EF08
:100DF700020F2DE493A3F8E493A34003F68001F2D6
:100E070008DFF48029E493A3F85407240CC8C333FC
:100E1700C4540F4420C8834004F456800146F6DFCB
:100E2700E4800B0102040810204080900BB2E47E9E
:100E3700019360BCA3FF543F30E509541FFEE493C0
:100E4700A360010ECF54C025E060A840B8E493A387
:100E5700FAE493A3F8E493A3C8C582C8CAC583CAB2
:100E6700F0A3C8C582C8CAC583CADFE9DEE780BE6A
:010C83000070
:1005A000BC000BBE0029EF8DF084FFADF022E4CC3F
:1005B000F875F008EF2FFFEE33FEEC33FCEE9DEC08
:1005C000984005FCEE9DFE0FD5F0E9E4CEFD22ED4E
:1005D000F8F5F0EE8420D21CFEADF075F008EF2F98
:1005E000FFED33FD4007985006D5F0F222C398FD89
:0505F0000FD5F0EA2226
:1005F500C5F0F8A3E028F0C5F0F8E5821582700291
:060605001583E038F0222D
:10060B00E88FF0A4CC8BF0A42CFCE98EF0A42CFC8E
:10061B008AF0EDA42CFCEA8EF0A4CDA8F08BF0A40C
:10062B002DCC3825F0FDE98FF0A42CCD35F0FCEB6B
:10063B008EF0A4FEA9F0EB8FF0A4CFC5F02ECD3930
:0F064B00FEE43CFCEAA42DCE35F0FDE43CFC229D
:10065A0075F008758200EF2FFFEE33FECD33CDCC57
:10066A0033CCC58233C5829BED9AEC99E5829840DA
:10067A000CF582EE9BFEED9AFDEC99FC0FD5F0D6B7
:10068A00E4CEFBE4CDFAE4CCF9A88222B800C1B9E1
:10069A000059BA002DEC8BF084CFCECDFCE5F0CB1F
:1006AA00F97818EF2FFFEE33FEED33FDEC33FCEB58
:1006BA0033FB10D703994004EB99FB0FD8E5E4F913
:1006CA00FA227818EF2FFFEE33FEED33FDEC33FC00
:1006DA00C933C910D7059BE99A4007EC9BFCE99AF4
:1006EA00F90FD8E0E4C9FAE4CCFB2275F010EF2F39
:1006FA00FFEE33FEED33FDCC33CCC833C810D70739
:10070A009BEC9AE899400AED9BFDEC9AFCE899F873
:0E071A000FD5F0DAE4CDFBE4CCFAE4C8F92206
:0E072800C3E49FFFE49EFEE49DFDE49CFC22E2
:10073600EB9FF5F0EA9E42F0E99D42F0E89C45F019
:010746002290
:10074700E8600FEFC333FFEE33FEED33FDEC33FC10
:03075700D8F122B4
:0C075A00E6FC08E6FD08E6FE08E6FF22CB
:0D076600E6FB08E6F908E6FA08E6CBF82203
:0C077300ECF608EDF608EEF608EFF622B2
:0C077F00ECF0A3EDF0A3EEF0A3EFF022ED
:10078B00D083D082E493F608740193F60874029335
:09079B00F608740393F67404736C
:0C07A400A42582F582E5F03583F5832260
:1007B000D083D082F8E4937012740193700DA3A3D8
:1007C00093F8740193F5828883E473740293B5F00F
:0D07D000067403936860E9A3A3A3A380D877
:1007DD00EC8EF0A4CCC5F0CCCDF8EFA4CEC5F02DA9
:1007ED00FDE43CFCE8A42EC8C5F03DFDE43CFCEF67
:0D07FD00A4FFE5F028FEE43DFDE43CFC22F5
:00000001FF
